{
	"contracts/Lock.sol": {
		"Lock": {
			"abi": [
				{
					"inputs": [],
					"stateMutability": "nonpayable",
					"type": "constructor"
				},
				{
					"inputs": [],
					"name": "checkUserRootExists",
					"outputs": [
						{
							"internalType": "string",
							"name": "",
							"type": "string"
						}
					],
					"stateMutability": "view",
					"type": "function"
				},
				{
					"inputs": [
						{
							"internalType": "string[]",
							"name": "path",
							"type": "string[]"
						},
						{
							"internalType": "string",
							"name": "folderName",
							"type": "string"
						}
					],
					"name": "createFolder",
					"outputs": [],
					"stateMutability": "nonpayable",
					"type": "function"
				},
				{
					"inputs": [
						{
							"internalType": "string[]",
							"name": "path",
							"type": "string[]"
						},
						{
							"internalType": "string",
							"name": "itemName",
							"type": "string"
						}
					],
					"name": "deleteItem",
					"outputs": [],
					"stateMutability": "nonpayable",
					"type": "function"
				},
				{
					"inputs": [
						{
							"internalType": "string[]",
							"name": "path",
							"type": "string[]"
						}
					],
					"name": "getFolderData",
					"outputs": [
						{
							"components": [
								{
									"internalType": "string",
									"name": "name",
									"type": "string"
								},
								{
									"internalType": "uint256",
									"name": "createdAt",
									"type": "uint256"
								},
								{
									"components": [
										{
											"internalType": "string",
											"name": "name",
											"type": "string"
										},
										{
											"internalType": "string",
											"name": "cid",
											"type": "string"
										},
										{
											"internalType": "uint256",
											"name": "size",
											"type": "uint256"
										},
										{
											"internalType": "string",
											"name": "fileType",
											"type": "string"
										},
										{
											"internalType": "uint256",
											"name": "createdAt",
											"type": "uint256"
										}
									],
									"internalType": "struct Lock.FileInfo[]",
									"name": "files",
									"type": "tuple[]"
								},
								{
									"internalType": "string[]",
									"name": "subFolderNames",
									"type": "string[]"
								},
								{
									"components": [
										{
											"internalType": "string",
											"name": "name",
											"type": "string"
										},
										{
											"internalType": "string",
											"name": "cid",
											"type": "string"
										},
										{
											"internalType": "uint256",
											"name": "size",
											"type": "uint256"
										},
										{
											"internalType": "string",
											"name": "fileType",
											"type": "string"
										},
										{
											"internalType": "uint256",
											"name": "createdAt",
											"type": "uint256"
										}
									],
									"internalType": "struct Lock.FileInfo[]",
									"name": "sharedWithMe",
									"type": "tuple[]"
								}
							],
							"internalType": "struct Lock.FolderInfo",
							"name": "",
							"type": "tuple"
						}
					],
					"stateMutability": "view",
					"type": "function"
				},
				{
					"inputs": [],
					"name": "getSharedWithMeFiles",
					"outputs": [
						{
							"components": [
								{
									"internalType": "string",
									"name": "name",
									"type": "string"
								},
								{
									"internalType": "string",
									"name": "cid",
									"type": "string"
								},
								{
									"internalType": "uint256",
									"name": "size",
									"type": "uint256"
								},
								{
									"internalType": "string",
									"name": "fileType",
									"type": "string"
								},
								{
									"internalType": "uint256",
									"name": "createdAt",
									"type": "uint256"
								}
							],
							"internalType": "struct Lock.FileInfo[]",
							"name": "",
							"type": "tuple[]"
						}
					],
					"stateMutability": "view",
					"type": "function"
				},
				{
					"inputs": [],
					"name": "initializeUserRoot",
					"outputs": [
						{
							"internalType": "string",
							"name": "",
							"type": "string"
						}
					],
					"stateMutability": "nonpayable",
					"type": "function"
				},
				{
					"inputs": [
						{
							"internalType": "string[]",
							"name": "path",
							"type": "string[]"
						},
						{
							"internalType": "string",
							"name": "fileName",
							"type": "string"
						},
						{
							"internalType": "address",
							"name": "recipient",
							"type": "address"
						}
					],
					"name": "shareFileWithUser",
					"outputs": [],
					"stateMutability": "nonpayable",
					"type": "function"
				},
				{
					"inputs": [
						{
							"internalType": "string[]",
							"name": "path",
							"type": "string[]"
						},
						{
							"internalType": "string",
							"name": "fileName",
							"type": "string"
						},
						{
							"internalType": "string",
							"name": "newCid",
							"type": "string"
						},
						{
							"internalType": "uint256",
							"name": "newSize",
							"type": "uint256"
						},
						{
							"internalType": "string",
							"name": "newFileName",
							"type": "string"
						},
						{
							"internalType": "string",
							"name": "newFileType",
							"type": "string"
						}
					],
					"name": "updateFile",
					"outputs": [],
					"stateMutability": "nonpayable",
					"type": "function"
				},
				{
					"inputs": [
						{
							"internalType": "string[]",
							"name": "path",
							"type": "string[]"
						},
						{
							"internalType": "string",
							"name": "fileName",
							"type": "string"
						},
						{
							"internalType": "string",
							"name": "cid",
							"type": "string"
						},
						{
							"internalType": "uint256",
							"name": "size",
							"type": "uint256"
						},
						{
							"internalType": "string",
							"name": "fileType",
							"type": "string"
						}
					],
					"name": "uploadFile",
					"outputs": [],
					"stateMutability": "nonpayable",
					"type": "function"
				}
			],
			"devdoc": {
				"kind": "dev",
				"methods": {},
				"version": 1
			},
			"evm": {
				"assembly": "    /* \"contracts/Lock.sol\":65:11844  contract Lock {... */\n  mstore(0x40, 0x80)\n    /* \"contracts/Lock.sol\":754:816  constructor() {... */\n  callvalue\n  dup1\n  iszero\n  tag_1\n  jumpi\n  0x00\n  dup1\n  revert\ntag_1:\n  pop\n    /* \"contracts/Lock.sol\":778:809  _initializeUserRoot(msg.sender) */\n  tag_4\n    /* \"contracts/Lock.sol\":798:808  msg.sender */\n  caller\n    /* \"contracts/Lock.sol\":778:797  _initializeUserRoot */\n  shl(0x20, tag_5)\n    /* \"contracts/Lock.sol\":778:809  _initializeUserRoot(msg.sender) */\n  0x20\n  shr\n  jump\t// in\ntag_4:\n    /* \"contracts/Lock.sol\":65:11844  contract Lock {... */\n  jump(tag_6)\n    /* \"contracts/Lock.sol\":822:1132  function _initializeUserRoot(address user) internal {... */\ntag_5:\n    /* \"contracts/Lock.sol\":925:926  0 */\n  0x00\n    /* \"contracts/Lock.sol\":894:902  userRoot */\n  dup1\n    /* \"contracts/Lock.sol\":894:908  userRoot[user] */\n  0x00\n    /* \"contracts/Lock.sol\":903:907  user */\n  dup4\n    /* \"contracts/Lock.sol\":894:908  userRoot[user] */\n  0xffffffffffffffffffffffffffffffffffffffff\n  and\n  0xffffffffffffffffffffffffffffffffffffffff\n  and\n  dup2\n  mstore\n  0x20\n  add\n  swap1\n  dup2\n  mstore\n  0x20\n  add\n  0x00\n  keccak256\n    /* \"contracts/Lock.sol\":894:913  userRoot[user].name */\n  0x00\n  add\n    /* \"contracts/Lock.sol\":888:921  bytes(userRoot[user].name).length */\n  dup1\n  sload\n  tag_8\n  swap1\n  tag_9\n  jump\t// in\ntag_8:\n  swap1\n  pop\n    /* \"contracts/Lock.sol\":888:926  bytes(userRoot[user].name).length == 0 */\n  sub\n    /* \"contracts/Lock.sol\":884:1126  if (bytes(userRoot[user].name).length == 0) {... */\n  tag_10\n  jumpi\n    /* \"contracts/Lock.sol\":942:967  Folder storage rootFolder */\n  0x00\n    /* \"contracts/Lock.sol\":970:978  userRoot */\n  dup1\n    /* \"contracts/Lock.sol\":970:984  userRoot[user] */\n  0x00\n    /* \"contracts/Lock.sol\":979:983  user */\n  dup4\n    /* \"contracts/Lock.sol\":970:984  userRoot[user] */\n  0xffffffffffffffffffffffffffffffffffffffff\n  and\n  0xffffffffffffffffffffffffffffffffffffffff\n  and\n  dup2\n  mstore\n  0x20\n  add\n  swap1\n  dup2\n  mstore\n  0x20\n  add\n  0x00\n  keccak256\n    /* \"contracts/Lock.sol\":942:984  Folder storage rootFolder = userRoot[user] */\n  swap1\n  pop\n    /* \"contracts/Lock.sol\":998:1026  rootFolder.name = \"My Space\" */\n  mload(0x40)\n  dup1\n  0x40\n  add\n  0x40\n  mstore\n  dup1\n  0x08\n  dup2\n  mstore\n  0x20\n  add\n  0x4d79205370616365000000000000000000000000000000000000000000000000\n  dup2\n  mstore\n  pop\n    /* \"contracts/Lock.sol\":998:1008  rootFolder */\n  dup2\n    /* \"contracts/Lock.sol\":998:1013  rootFolder.name */\n  0x00\n  add\n    /* \"contracts/Lock.sol\":998:1026  rootFolder.name = \"My Space\" */\n  swap1\n  dup2\n  tag_11\n  swap2\n  swap1\n  tag_12\n  jump\t// in\ntag_11:\n  pop\n    /* \"contracts/Lock.sol\":1059:1063  user */\n  dup2\n    /* \"contracts/Lock.sol\":1040:1050  rootFolder */\n  dup2\n    /* \"contracts/Lock.sol\":1040:1056  rootFolder.owner */\n  0x01\n  add\n  0x00\n    /* \"contracts/Lock.sol\":1040:1063  rootFolder.owner = user */\n  0x0100\n  exp\n  dup2\n  sload\n  dup2\n  0xffffffffffffffffffffffffffffffffffffffff\n  mul\n  not\n  and\n  swap1\n  dup4\n  0xffffffffffffffffffffffffffffffffffffffff\n  and\n  mul\n  or\n  swap1\n  sstore\n  pop\n    /* \"contracts/Lock.sol\":1100:1115  block.timestamp */\n  timestamp\n    /* \"contracts/Lock.sol\":1077:1087  rootFolder */\n  dup2\n    /* \"contracts/Lock.sol\":1077:1097  rootFolder.createdAt */\n  0x02\n  add\n    /* \"contracts/Lock.sol\":1077:1115  rootFolder.createdAt = block.timestamp */\n  dup2\n  swap1\n  sstore\n  pop\n    /* \"contracts/Lock.sol\":928:1126  {... */\n  pop\n    /* \"contracts/Lock.sol\":884:1126  if (bytes(userRoot[user].name).length == 0) {... */\ntag_10:\n    /* \"contracts/Lock.sol\":822:1132  function _initializeUserRoot(address user) internal {... */\n  pop\n  jump\t// out\n    /* \"#utility.yul\":7:187   */\ntag_13:\n    /* \"#utility.yul\":55:132   */\n  0x4e487b7100000000000000000000000000000000000000000000000000000000\n    /* \"#utility.yul\":52:53   */\n  0x00\n    /* \"#utility.yul\":45:133   */\n  mstore\n    /* \"#utility.yul\":152:156   */\n  0x22\n    /* \"#utility.yul\":149:150   */\n  0x04\n    /* \"#utility.yul\":142:157   */\n  mstore\n    /* \"#utility.yul\":176:180   */\n  0x24\n    /* \"#utility.yul\":173:174   */\n  0x00\n    /* \"#utility.yul\":166:181   */\n  revert\n    /* \"#utility.yul\":193:513   */\ntag_9:\n    /* \"#utility.yul\":237:243   */\n  0x00\n    /* \"#utility.yul\":274:275   */\n  0x02\n    /* \"#utility.yul\":268:272   */\n  dup3\n    /* \"#utility.yul\":264:276   */\n  div\n    /* \"#utility.yul\":254:276   */\n  swap1\n  pop\n    /* \"#utility.yul\":321:322   */\n  0x01\n    /* \"#utility.yul\":315:319   */\n  dup3\n    /* \"#utility.yul\":311:323   */\n  and\n    /* \"#utility.yul\":342:360   */\n  dup1\n    /* \"#utility.yul\":332:413   */\n  tag_35\n  jumpi\n    /* \"#utility.yul\":398:402   */\n  0x7f\n    /* \"#utility.yul\":390:396   */\n  dup3\n    /* \"#utility.yul\":386:403   */\n  and\n    /* \"#utility.yul\":376:403   */\n  swap2\n  pop\n    /* \"#utility.yul\":332:413   */\ntag_35:\n    /* \"#utility.yul\":460:462   */\n  0x20\n    /* \"#utility.yul\":452:458   */\n  dup3\n    /* \"#utility.yul\":449:463   */\n  lt\n    /* \"#utility.yul\":429:447   */\n  dup2\n    /* \"#utility.yul\":426:464   */\n  sub\n    /* \"#utility.yul\":423:507   */\n  tag_36\n  jumpi\n    /* \"#utility.yul\":479:497   */\n  tag_37\n  tag_13\n  jump\t// in\ntag_37:\n    /* \"#utility.yul\":423:507   */\ntag_36:\n    /* \"#utility.yul\":244:513   */\n  pop\n    /* \"#utility.yul\":193:513   */\n  swap2\n  swap1\n  pop\n  jump\t// out\n    /* \"#utility.yul\":519:618   */\ntag_14:\n    /* \"#utility.yul\":571:577   */\n  0x00\n    /* \"#utility.yul\":605:610   */\n  dup2\n    /* \"#utility.yul\":599:611   */\n  mload\n    /* \"#utility.yul\":589:611   */\n  swap1\n  pop\n    /* \"#utility.yul\":519:618   */\n  swap2\n  swap1\n  pop\n  jump\t// out\n    /* \"#utility.yul\":624:804   */\ntag_15:\n    /* \"#utility.yul\":672:749   */\n  0x4e487b7100000000000000000000000000000000000000000000000000000000\n    /* \"#utility.yul\":669:670   */\n  0x00\n    /* \"#utility.yul\":662:750   */\n  mstore\n    /* \"#utility.yul\":769:773   */\n  0x41\n    /* \"#utility.yul\":766:767   */\n  0x04\n    /* \"#utility.yul\":759:774   */\n  mstore\n    /* \"#utility.yul\":793:797   */\n  0x24\n    /* \"#utility.yul\":790:791   */\n  0x00\n    /* \"#utility.yul\":783:798   */\n  revert\n    /* \"#utility.yul\":810:951   */\ntag_16:\n    /* \"#utility.yul\":859:863   */\n  0x00\n    /* \"#utility.yul\":882:885   */\n  dup2\n    /* \"#utility.yul\":874:885   */\n  swap1\n  pop\n    /* \"#utility.yul\":905:908   */\n  dup2\n    /* \"#utility.yul\":902:903   */\n  0x00\n    /* \"#utility.yul\":895:909   */\n  mstore\n    /* \"#utility.yul\":939:943   */\n  0x20\n    /* \"#utility.yul\":936:937   */\n  0x00\n    /* \"#utility.yul\":926:944   */\n  keccak256\n    /* \"#utility.yul\":918:944   */\n  swap1\n  pop\n    /* \"#utility.yul\":810:951   */\n  swap2\n  swap1\n  pop\n  jump\t// out\n    /* \"#utility.yul\":957:1050   */\ntag_17:\n    /* \"#utility.yul\":994:1000   */\n  0x00\n    /* \"#utility.yul\":1041:1043   */\n  0x20\n    /* \"#utility.yul\":1036:1038   */\n  0x1f\n    /* \"#utility.yul\":1029:1034   */\n  dup4\n    /* \"#utility.yul\":1025:1039   */\n  add\n    /* \"#utility.yul\":1021:1044   */\n  div\n    /* \"#utility.yul\":1011:1044   */\n  swap1\n  pop\n    /* \"#utility.yul\":957:1050   */\n  swap2\n  swap1\n  pop\n  jump\t// out\n    /* \"#utility.yul\":1056:1163   */\ntag_18:\n    /* \"#utility.yul\":1100:1108   */\n  0x00\n    /* \"#utility.yul\":1150:1155   */\n  dup3\n    /* \"#utility.yul\":1144:1148   */\n  dup3\n    /* \"#utility.yul\":1140:1156   */\n  shl\n    /* \"#utility.yul\":1119:1156   */\n  swap1\n  pop\n    /* \"#utility.yul\":1056:1163   */\n  swap3\n  swap2\n  pop\n  pop\n  jump\t// out\n    /* \"#utility.yul\":1169:1562   */\ntag_19:\n    /* \"#utility.yul\":1238:1244   */\n  0x00\n    /* \"#utility.yul\":1288:1289   */\n  0x08\n    /* \"#utility.yul\":1276:1286   */\n  dup4\n    /* \"#utility.yul\":1272:1290   */\n  mul\n    /* \"#utility.yul\":1311:1408   */\n  tag_44\n    /* \"#utility.yul\":1341:1407   */\n  0xffffffffffffffffffffffffffffffffffffffffffffffffffffffffffffffff\n    /* \"#utility.yul\":1330:1339   */\n  dup3\n    /* \"#utility.yul\":1311:1408   */\n  tag_18\n  jump\t// in\ntag_44:\n    /* \"#utility.yul\":1429:1468   */\n  tag_45\n    /* \"#utility.yul\":1459:1467   */\n  dup7\n    /* \"#utility.yul\":1448:1457   */\n  dup4\n    /* \"#utility.yul\":1429:1468   */\n  tag_18\n  jump\t// in\ntag_45:\n    /* \"#utility.yul\":1417:1468   */\n  swap6\n  pop\n    /* \"#utility.yul\":1501:1505   */\n  dup1\n    /* \"#utility.yul\":1497:1506   */\n  not\n    /* \"#utility.yul\":1490:1495   */\n  dup5\n    /* \"#utility.yul\":1486:1507   */\n  and\n    /* \"#utility.yul\":1477:1507   */\n  swap4\n  pop\n    /* \"#utility.yul\":1550:1554   */\n  dup1\n    /* \"#utility.yul\":1540:1548   */\n  dup7\n    /* \"#utility.yul\":1536:1555   */\n  and\n    /* \"#utility.yul\":1529:1534   */\n  dup5\n    /* \"#utility.yul\":1526:1556   */\n  or\n    /* \"#utility.yul\":1516:1556   */\n  swap3\n  pop\n    /* \"#utility.yul\":1245:1562   */\n  pop\n  pop\n    /* \"#utility.yul\":1169:1562   */\n  swap4\n  swap3\n  pop\n  pop\n  pop\n  jump\t// out\n    /* \"#utility.yul\":1568:1645   */\ntag_20:\n    /* \"#utility.yul\":1605:1612   */\n  0x00\n    /* \"#utility.yul\":1634:1639   */\n  dup2\n    /* \"#utility.yul\":1623:1639   */\n  swap1\n  pop\n    /* \"#utility.yul\":1568:1645   */\n  swap2\n  swap1\n  pop\n  jump\t// out\n    /* \"#utility.yul\":1651:1711   */\ntag_21:\n    /* \"#utility.yul\":1679:1682   */\n  0x00\n    /* \"#utility.yul\":1700:1705   */\n  dup2\n    /* \"#utility.yul\":1693:1705   */\n  swap1\n  pop\n    /* \"#utility.yul\":1651:1711   */\n  swap2\n  swap1\n  pop\n  jump\t// out\n    /* \"#utility.yul\":1717:1859   */\ntag_22:\n    /* \"#utility.yul\":1767:1776   */\n  0x00\n    /* \"#utility.yul\":1800:1853   */\n  tag_49\n    /* \"#utility.yul\":1818:1852   */\n  tag_50\n    /* \"#utility.yul\":1827:1851   */\n  tag_51\n    /* \"#utility.yul\":1845:1850   */\n  dup5\n    /* \"#utility.yul\":1827:1851   */\n  tag_20\n  jump\t// in\ntag_51:\n    /* \"#utility.yul\":1818:1852   */\n  tag_21\n  jump\t// in\ntag_50:\n    /* \"#utility.yul\":1800:1853   */\n  tag_20\n  jump\t// in\ntag_49:\n    /* \"#utility.yul\":1787:1853   */\n  swap1\n  pop\n    /* \"#utility.yul\":1717:1859   */\n  swap2\n  swap1\n  pop\n  jump\t// out\n    /* \"#utility.yul\":1865:1940   */\ntag_23:\n    /* \"#utility.yul\":1908:1911   */\n  0x00\n    /* \"#utility.yul\":1929:1934   */\n  dup2\n    /* \"#utility.yul\":1922:1934   */\n  swap1\n  pop\n    /* \"#utility.yul\":1865:1940   */\n  swap2\n  swap1\n  pop\n  jump\t// out\n    /* \"#utility.yul\":1946:2215   */\ntag_24:\n    /* \"#utility.yul\":2056:2095   */\n  tag_54\n    /* \"#utility.yul\":2087:2094   */\n  dup4\n    /* \"#utility.yul\":2056:2095   */\n  tag_22\n  jump\t// in\ntag_54:\n    /* \"#utility.yul\":2117:2208   */\n  tag_55\n    /* \"#utility.yul\":2166:2207   */\n  tag_56\n    /* \"#utility.yul\":2190:2206   */\n  dup3\n    /* \"#utility.yul\":2166:2207   */\n  tag_23\n  jump\t// in\ntag_56:\n    /* \"#utility.yul\":2158:2164   */\n  dup5\n    /* \"#utility.yul\":2151:2155   */\n  dup5\n    /* \"#utility.yul\":2145:2156   */\n  sload\n    /* \"#utility.yul\":2117:2208   */\n  tag_19\n  jump\t// in\ntag_55:\n    /* \"#utility.yul\":2111:2115   */\n  dup3\n    /* \"#utility.yul\":2104:2209   */\n  sstore\n    /* \"#utility.yul\":2022:2215   */\n  pop\n    /* \"#utility.yul\":1946:2215   */\n  pop\n  pop\n  pop\n  jump\t// out\n    /* \"#utility.yul\":2221:2294   */\ntag_25:\n    /* \"#utility.yul\":2266:2269   */\n  0x00\n    /* \"#utility.yul\":2221:2294   */\n  swap1\n  jump\t// out\n    /* \"#utility.yul\":2300:2489   */\ntag_26:\n    /* \"#utility.yul\":2377:2409   */\n  tag_59\n  tag_25\n  jump\t// in\ntag_59:\n    /* \"#utility.yul\":2418:2483   */\n  tag_60\n    /* \"#utility.yul\":2476:2482   */\n  dup2\n    /* \"#utility.yul\":2468:2474   */\n  dup5\n    /* \"#utility.yul\":2462:2466   */\n  dup5\n    /* \"#utility.yul\":2418:2483   */\n  tag_24\n  jump\t// in\ntag_60:\n    /* \"#utility.yul\":2353:2489   */\n  pop\n    /* \"#utility.yul\":2300:2489   */\n  pop\n  pop\n  jump\t// out\n    /* \"#utility.yul\":2495:2681   */\ntag_27:\n    /* \"#utility.yul\":2555:2675   */\ntag_62:\n    /* \"#utility.yul\":2572:2575   */\n  dup2\n    /* \"#utility.yul\":2565:2570   */\n  dup2\n    /* \"#utility.yul\":2562:2576   */\n  lt\n    /* \"#utility.yul\":2555:2675   */\n  iszero\n  tag_64\n  jumpi\n    /* \"#utility.yul\":2626:2665   */\n  tag_65\n    /* \"#utility.yul\":2663:2664   */\n  0x00\n    /* \"#utility.yul\":2656:2661   */\n  dup3\n    /* \"#utility.yul\":2626:2665   */\n  tag_26\n  jump\t// in\ntag_65:\n    /* \"#utility.yul\":2599:2600   */\n  0x01\n    /* \"#utility.yul\":2592:2597   */\n  dup2\n    /* \"#utility.yul\":2588:2601   */\n  add\n    /* \"#utility.yul\":2579:2601   */\n  swap1\n  pop\n    /* \"#utility.yul\":2555:2675   */\n  jump(tag_62)\ntag_64:\n    /* \"#utility.yul\":2495:2681   */\n  pop\n  pop\n  jump\t// out\n    /* \"#utility.yul\":2687:3230   */\ntag_28:\n    /* \"#utility.yul\":2788:2790   */\n  0x1f\n    /* \"#utility.yul\":2783:2786   */\n  dup3\n    /* \"#utility.yul\":2780:2791   */\n  gt\n    /* \"#utility.yul\":2777:3223   */\n  iszero\n  tag_67\n  jumpi\n    /* \"#utility.yul\":2822:2860   */\n  tag_68\n    /* \"#utility.yul\":2854:2859   */\n  dup2\n    /* \"#utility.yul\":2822:2860   */\n  tag_16\n  jump\t// in\ntag_68:\n    /* \"#utility.yul\":2906:2935   */\n  tag_69\n    /* \"#utility.yul\":2924:2934   */\n  dup5\n    /* \"#utility.yul\":2906:2935   */\n  tag_17\n  jump\t// in\ntag_69:\n    /* \"#utility.yul\":2896:2904   */\n  dup2\n    /* \"#utility.yul\":2892:2936   */\n  add\n    /* \"#utility.yul\":3089:3091   */\n  0x20\n    /* \"#utility.yul\":3077:3087   */\n  dup6\n    /* \"#utility.yul\":3074:3092   */\n  lt\n    /* \"#utility.yul\":3071:3120   */\n  iszero\n  tag_70\n  jumpi\n    /* \"#utility.yul\":3110:3118   */\n  dup2\n    /* \"#utility.yul\":3095:3118   */\n  swap1\n  pop\n    /* \"#utility.yul\":3071:3120   */\ntag_70:\n    /* \"#utility.yul\":3133:3213   */\n  tag_71\n    /* \"#utility.yul\":3189:3211   */\n  tag_72\n    /* \"#utility.yul\":3207:3210   */\n  dup6\n    /* \"#utility.yul\":3189:3211   */\n  tag_17\n  jump\t// in\ntag_72:\n    /* \"#utility.yul\":3179:3187   */\n  dup4\n    /* \"#utility.yul\":3175:3212   */\n  add\n    /* \"#utility.yul\":3162:3173   */\n  dup3\n    /* \"#utility.yul\":3133:3213   */\n  tag_27\n  jump\t// in\ntag_71:\n    /* \"#utility.yul\":2792:3223   */\n  pop\n  pop\n    /* \"#utility.yul\":2777:3223   */\ntag_67:\n    /* \"#utility.yul\":2687:3230   */\n  pop\n  pop\n  pop\n  jump\t// out\n    /* \"#utility.yul\":3236:3353   */\ntag_29:\n    /* \"#utility.yul\":3290:3298   */\n  0x00\n    /* \"#utility.yul\":3340:3345   */\n  dup3\n    /* \"#utility.yul\":3334:3338   */\n  dup3\n    /* \"#utility.yul\":3330:3346   */\n  shr\n    /* \"#utility.yul\":3309:3346   */\n  swap1\n  pop\n    /* \"#utility.yul\":3236:3353   */\n  swap3\n  swap2\n  pop\n  pop\n  jump\t// out\n    /* \"#utility.yul\":3359:3528   */\ntag_30:\n    /* \"#utility.yul\":3403:3409   */\n  0x00\n    /* \"#utility.yul\":3436:3487   */\n  tag_75\n    /* \"#utility.yul\":3484:3485   */\n  0x00\n    /* \"#utility.yul\":3480:3486   */\n  not\n    /* \"#utility.yul\":3472:3477   */\n  dup5\n    /* \"#utility.yul\":3469:3470   */\n  0x08\n    /* \"#utility.yul\":3465:3478   */\n  mul\n    /* \"#utility.yul\":3436:3487   */\n  tag_29\n  jump\t// in\ntag_75:\n    /* \"#utility.yul\":3432:3488   */\n  not\n    /* \"#utility.yul\":3517:3521   */\n  dup1\n    /* \"#utility.yul\":3511:3515   */\n  dup4\n    /* \"#utility.yul\":3507:3522   */\n  and\n    /* \"#utility.yul\":3497:3522   */\n  swap2\n  pop\n    /* \"#utility.yul\":3410:3528   */\n  pop\n    /* \"#utility.yul\":3359:3528   */\n  swap3\n  swap2\n  pop\n  pop\n  jump\t// out\n    /* \"#utility.yul\":3533:3828   */\ntag_31:\n    /* \"#utility.yul\":3609:3613   */\n  0x00\n    /* \"#utility.yul\":3755:3784   */\n  tag_77\n    /* \"#utility.yul\":3780:3783   */\n  dup4\n    /* \"#utility.yul\":3774:3778   */\n  dup4\n    /* \"#utility.yul\":3755:3784   */\n  tag_30\n  jump\t// in\ntag_77:\n    /* \"#utility.yul\":3747:3784   */\n  swap2\n  pop\n    /* \"#utility.yul\":3817:3820   */\n  dup3\n    /* \"#utility.yul\":3814:3815   */\n  0x02\n    /* \"#utility.yul\":3810:3821   */\n  mul\n    /* \"#utility.yul\":3804:3808   */\n  dup3\n    /* \"#utility.yul\":3801:3822   */\n  or\n    /* \"#utility.yul\":3793:3822   */\n  swap1\n  pop\n    /* \"#utility.yul\":3533:3828   */\n  swap3\n  swap2\n  pop\n  pop\n  jump\t// out\n    /* \"#utility.yul\":3833:5228   */\ntag_12:\n    /* \"#utility.yul\":3950:3987   */\n  tag_79\n    /* \"#utility.yul\":3983:3986   */\n  dup3\n    /* \"#utility.yul\":3950:3987   */\n  tag_14\n  jump\t// in\ntag_79:\n    /* \"#utility.yul\":4052:4070   */\n  0xffffffffffffffff\n    /* \"#utility.yul\":4044:4050   */\n  dup2\n    /* \"#utility.yul\":4041:4071   */\n  gt\n    /* \"#utility.yul\":4038:4094   */\n  iszero\n  tag_80\n  jumpi\n    /* \"#utility.yul\":4074:4092   */\n  tag_81\n  tag_15\n  jump\t// in\ntag_81:\n    /* \"#utility.yul\":4038:4094   */\ntag_80:\n    /* \"#utility.yul\":4118:4156   */\n  tag_82\n    /* \"#utility.yul\":4150:4154   */\n  dup3\n    /* \"#utility.yul\":4144:4155   */\n  sload\n    /* \"#utility.yul\":4118:4156   */\n  tag_9\n  jump\t// in\ntag_82:\n    /* \"#utility.yul\":4203:4270   */\n  tag_83\n    /* \"#utility.yul\":4263:4269   */\n  dup3\n    /* \"#utility.yul\":4255:4261   */\n  dup3\n    /* \"#utility.yul\":4249:4253   */\n  dup6\n    /* \"#utility.yul\":4203:4270   */\n  tag_28\n  jump\t// in\ntag_83:\n    /* \"#utility.yul\":4297:4298   */\n  0x00\n    /* \"#utility.yul\":4321:4325   */\n  0x20\n    /* \"#utility.yul\":4308:4325   */\n  swap1\n  pop\n    /* \"#utility.yul\":4353:4355   */\n  0x1f\n    /* \"#utility.yul\":4345:4351   */\n  dup4\n    /* \"#utility.yul\":4342:4356   */\n  gt\n    /* \"#utility.yul\":4370:4371   */\n  0x01\n    /* \"#utility.yul\":4365:4983   */\n  dup2\n  eq\n  tag_85\n  jumpi\n    /* \"#utility.yul\":5027:5028   */\n  0x00\n    /* \"#utility.yul\":5044:5050   */\n  dup5\n    /* \"#utility.yul\":5041:5118   */\n  iszero\n  tag_86\n  jumpi\n    /* \"#utility.yul\":5093:5102   */\n  dup3\n    /* \"#utility.yul\":5088:5091   */\n  dup8\n    /* \"#utility.yul\":5084:5103   */\n  add\n    /* \"#utility.yul\":5078:5104   */\n  mload\n    /* \"#utility.yul\":5069:5104   */\n  swap1\n  pop\n    /* \"#utility.yul\":5041:5118   */\ntag_86:\n    /* \"#utility.yul\":5144:5211   */\n  tag_87\n    /* \"#utility.yul\":5204:5210   */\n  dup6\n    /* \"#utility.yul\":5197:5202   */\n  dup3\n    /* \"#utility.yul\":5144:5211   */\n  tag_31\n  jump\t// in\ntag_87:\n    /* \"#utility.yul\":5138:5142   */\n  dup7\n    /* \"#utility.yul\":5131:5212   */\n  sstore\n    /* \"#utility.yul\":5000:5222   */\n  pop\n    /* \"#utility.yul\":4335:5222   */\n  jump(tag_84)\n    /* \"#utility.yul\":4365:4983   */\ntag_85:\n    /* \"#utility.yul\":4417:4421   */\n  0x1f\n    /* \"#utility.yul\":4413:4422   */\n  not\n    /* \"#utility.yul\":4405:4411   */\n  dup5\n    /* \"#utility.yul\":4401:4423   */\n  and\n    /* \"#utility.yul\":4451:4488   */\n  tag_88\n    /* \"#utility.yul\":4483:4487   */\n  dup7\n    /* \"#utility.yul\":4451:4488   */\n  tag_16\n  jump\t// in\ntag_88:\n    /* \"#utility.yul\":4510:4511   */\n  0x00\n    /* \"#utility.yul\":4524:4732   */\ntag_89:\n    /* \"#utility.yul\":4538:4545   */\n  dup3\n    /* \"#utility.yul\":4535:4536   */\n  dup2\n    /* \"#utility.yul\":4532:4546   */\n  lt\n    /* \"#utility.yul\":4524:4732   */\n  iszero\n  tag_91\n  jumpi\n    /* \"#utility.yul\":4617:4626   */\n  dup5\n    /* \"#utility.yul\":4612:4615   */\n  dup10\n    /* \"#utility.yul\":4608:4627   */\n  add\n    /* \"#utility.yul\":4602:4628   */\n  mload\n    /* \"#utility.yul\":4594:4600   */\n  dup3\n    /* \"#utility.yul\":4587:4629   */\n  sstore\n    /* \"#utility.yul\":4668:4669   */\n  0x01\n    /* \"#utility.yul\":4660:4666   */\n  dup3\n    /* \"#utility.yul\":4656:4670   */\n  add\n    /* \"#utility.yul\":4646:4670   */\n  swap2\n  pop\n    /* \"#utility.yul\":4715:4717   */\n  0x20\n    /* \"#utility.yul\":4704:4713   */\n  dup6\n    /* \"#utility.yul\":4700:4718   */\n  add\n    /* \"#utility.yul\":4687:4718   */\n  swap5\n  pop\n    /* \"#utility.yul\":4561:4565   */\n  0x20\n    /* \"#utility.yul\":4558:4559   */\n  dup2\n    /* \"#utility.yul\":4554:4566   */\n  add\n    /* \"#utility.yul\":4549:4566   */\n  swap1\n  pop\n    /* \"#utility.yul\":4524:4732   */\n  jump(tag_89)\ntag_91:\n    /* \"#utility.yul\":4760:4766   */\n  dup7\n    /* \"#utility.yul\":4751:4758   */\n  dup4\n    /* \"#utility.yul\":4748:4767   */\n  lt\n    /* \"#utility.yul\":4745:4924   */\n  iszero\n  tag_92\n  jumpi\n    /* \"#utility.yul\":4818:4827   */\n  dup5\n    /* \"#utility.yul\":4813:4816   */\n  dup10\n    /* \"#utility.yul\":4809:4828   */\n  add\n    /* \"#utility.yul\":4803:4829   */\n  mload\n    /* \"#utility.yul\":4861:4909   */\n  tag_93\n    /* \"#utility.yul\":4903:4907   */\n  0x1f\n    /* \"#utility.yul\":4895:4901   */\n  dup10\n    /* \"#utility.yul\":4891:4908   */\n  and\n    /* \"#utility.yul\":4880:4889   */\n  dup3\n    /* \"#utility.yul\":4861:4909   */\n  tag_30\n  jump\t// in\ntag_93:\n    /* \"#utility.yul\":4853:4859   */\n  dup4\n    /* \"#utility.yul\":4846:4910   */\n  sstore\n    /* \"#utility.yul\":4768:4924   */\n  pop\n    /* \"#utility.yul\":4745:4924   */\ntag_92:\n    /* \"#utility.yul\":4970:4971   */\n  0x01\n    /* \"#utility.yul\":4966:4967   */\n  0x02\n    /* \"#utility.yul\":4958:4964   */\n  dup9\n    /* \"#utility.yul\":4954:4968   */\n  mul\n    /* \"#utility.yul\":4950:4972   */\n  add\n    /* \"#utility.yul\":4944:4948   */\n  dup9\n    /* \"#utility.yul\":4937:4973   */\n  sstore\n    /* \"#utility.yul\":4372:4983   */\n  pop\n  pop\n  pop\n    /* \"#utility.yul\":4335:5222   */\ntag_84:\n  pop\n    /* \"#utility.yul\":3925:5228   */\n  pop\n  pop\n  pop\n    /* \"#utility.yul\":3833:5228   */\n  pop\n  pop\n  jump\t// out\n    /* \"contracts/Lock.sol\":65:11844  contract Lock {... */\ntag_6:\n  dataSize(sub_0)\n  dup1\n  dataOffset(sub_0)\n  0x00\n  codecopy\n  0x00\n  return\nstop\n\nsub_0: assembly {\n        /* \"contracts/Lock.sol\":65:11844  contract Lock {... */\n      mstore(0x40, 0x80)\n      callvalue\n      dup1\n      iszero\n      tag_1\n      jumpi\n      0x00\n      dup1\n      revert\n    tag_1:\n      pop\n      jumpi(tag_2, lt(calldatasize, 0x04))\n      shr(0xe0, calldataload(0x00))\n      dup1\n      0xe01adc05\n      gt\n      tag_12\n      jumpi\n      dup1\n      0xe01adc05\n      eq\n      tag_7\n      jumpi\n      dup1\n      0xe75c5051\n      eq\n      tag_8\n      jumpi\n      dup1\n      0xeff9f64f\n      eq\n      tag_9\n      jumpi\n      dup1\n      0xf5ded10b\n      eq\n      tag_10\n      jumpi\n      dup1\n      0xf7da18c8\n      eq\n      tag_11\n      jumpi\n      jump(tag_2)\n    tag_12:\n      dup1\n      0x243a658d\n      eq\n      tag_3\n      jumpi\n      dup1\n      0x37db6c1a\n      eq\n      tag_4\n      jumpi\n      dup1\n      0xc905819b\n      eq\n      tag_5\n      jumpi\n      dup1\n      0xd3780e10\n      eq\n      tag_6\n      jumpi\n    tag_2:\n      0x00\n      dup1\n      revert\n        /* \"contracts/Lock.sol\":11180:11842  function getSharedWithMeFiles() public view returns (FileInfo[] memory) {... */\n    tag_3:\n      tag_13\n      tag_14\n      jump\t// in\n    tag_13:\n      mload(0x40)\n      tag_15\n      swap2\n      swap1\n      tag_16\n      jump\t// in\n    tag_15:\n      mload(0x40)\n      dup1\n      swap2\n      sub\n      swap1\n      return\n        /* \"contracts/Lock.sol\":1138:1362  function checkUserRootExists() public view returns (string memory) {... */\n    tag_4:\n      tag_17\n      tag_18\n      jump\t// in\n    tag_17:\n      mload(0x40)\n      tag_19\n      swap2\n      swap1\n      tag_20\n      jump\t// in\n    tag_19:\n      mload(0x40)\n      dup1\n      swap2\n      sub\n      swap1\n      return\n        /* \"contracts/Lock.sol\":4160:4732  function getFolderData(... */\n    tag_5:\n      tag_21\n      0x04\n      dup1\n      calldatasize\n      sub\n      dup2\n      add\n      swap1\n      tag_22\n      swap2\n      swap1\n      tag_23\n      jump\t// in\n    tag_22:\n      tag_24\n      jump\t// in\n    tag_21:\n      mload(0x40)\n      tag_25\n      swap2\n      swap1\n      tag_26\n      jump\t// in\n    tag_25:\n      mload(0x40)\n      dup1\n      swap2\n      sub\n      swap1\n      return\n        /* \"contracts/Lock.sol\":8913:10244  function deleteItem(string[] memory path, string memory itemName) public {... */\n    tag_6:\n      tag_27\n      0x04\n      dup1\n      calldatasize\n      sub\n      dup2\n      add\n      swap1\n      tag_28\n      swap2\n      swap1\n      tag_29\n      jump\t// in\n    tag_28:\n      tag_30\n      jump\t// in\n    tag_27:\n      stop\n        /* \"contracts/Lock.sol\":1368:1633  function initializeUserRoot() public returns (string memory) {... */\n    tag_7:\n      tag_31\n      tag_32\n      jump\t// in\n    tag_31:\n      mload(0x40)\n      tag_33\n      swap2\n      swap1\n      tag_20\n      jump\t// in\n    tag_33:\n      mload(0x40)\n      dup1\n      swap2\n      sub\n      swap1\n      return\n        /* \"contracts/Lock.sol\":1639:2663  function createFolder(... */\n    tag_8:\n      tag_34\n      0x04\n      dup1\n      calldatasize\n      sub\n      dup2\n      add\n      swap1\n      tag_35\n      swap2\n      swap1\n      tag_29\n      jump\t// in\n    tag_35:\n      tag_36\n      jump\t// in\n    tag_34:\n      stop\n        /* \"contracts/Lock.sol\":6695:8907  function updateFile(... */\n    tag_9:\n      tag_37\n      0x04\n      dup1\n      calldatasize\n      sub\n      dup2\n      add\n      swap1\n      tag_38\n      swap2\n      swap1\n      tag_39\n      jump\t// in\n    tag_38:\n      tag_40\n      jump\t// in\n    tag_37:\n      stop\n        /* \"contracts/Lock.sol\":10250:11174  function shareFileWithUser(... */\n    tag_10:\n      tag_41\n      0x04\n      dup1\n      calldatasize\n      sub\n      dup2\n      add\n      swap1\n      tag_42\n      swap2\n      swap1\n      tag_43\n      jump\t// in\n    tag_42:\n      tag_44\n      jump\t// in\n    tag_41:\n      stop\n        /* \"contracts/Lock.sol\":2669:3839  function uploadFile(... */\n    tag_11:\n      tag_45\n      0x04\n      dup1\n      calldatasize\n      sub\n      dup2\n      add\n      swap1\n      tag_46\n      swap2\n      swap1\n      tag_47\n      jump\t// in\n    tag_46:\n      tag_48\n      jump\t// in\n    tag_45:\n      stop\n        /* \"contracts/Lock.sol\":11180:11842  function getSharedWithMeFiles() public view returns (FileInfo[] memory) {... */\n    tag_14:\n        /* \"contracts/Lock.sol\":11233:11250  FileInfo[] memory */\n      0x60\n        /* \"contracts/Lock.sol\":11262:11290  Folder storage currentFolder */\n      0x00\n        /* \"contracts/Lock.sol\":11293:11301  userRoot */\n      dup1\n        /* \"contracts/Lock.sol\":11293:11313  userRoot[msg.sender] */\n      0x00\n        /* \"contracts/Lock.sol\":11302:11312  msg.sender */\n      caller\n        /* \"contracts/Lock.sol\":11293:11313  userRoot[msg.sender] */\n      0xffffffffffffffffffffffffffffffffffffffff\n      and\n      0xffffffffffffffffffffffffffffffffffffffff\n      and\n      dup2\n      mstore\n      0x20\n      add\n      swap1\n      dup2\n      mstore\n      0x20\n      add\n      0x00\n      keccak256\n        /* \"contracts/Lock.sol\":11262:11313  Folder storage currentFolder = userRoot[msg.sender] */\n      swap1\n      pop\n        /* \"contracts/Lock.sol\":11323:11352  FileInfo[] memory sharedFiles */\n      0x00\n        /* \"contracts/Lock.sol\":11383:11396  currentFolder */\n      dup2\n        /* \"contracts/Lock.sol\":11383:11409  currentFolder.sharedWithMe */\n      0x06\n      add\n        /* \"contracts/Lock.sol\":11383:11416  currentFolder.sharedWithMe.length */\n      dup1\n      sload\n      swap1\n      pop\n        /* \"contracts/Lock.sol\":11355:11426  new FileInfo[](... */\n      0xffffffffffffffff\n      dup2\n      gt\n      iszero\n      tag_50\n      jumpi\n      tag_51\n      tag_52\n      jump\t// in\n    tag_51:\n    tag_50:\n      mload(0x40)\n      swap1\n      dup1\n      dup3\n      mstore\n      dup1\n      0x20\n      mul\n      0x20\n      add\n      dup3\n      add\n      0x40\n      mstore\n      dup1\n      iszero\n      tag_53\n      jumpi\n      dup2\n      0x20\n      add\n    tag_54:\n      tag_55\n      tag_56\n      jump\t// in\n    tag_55:\n      dup2\n      mstore\n      0x20\n      add\n      swap1\n      0x01\n      swap1\n      sub\n      swap1\n      dup2\n      tag_54\n      jumpi\n      swap1\n      pop\n    tag_53:\n      pop\n        /* \"contracts/Lock.sol\":11323:11426  FileInfo[] memory sharedFiles = new FileInfo[](... */\n      swap1\n      pop\n        /* \"contracts/Lock.sol\":11442:11451  uint256 i */\n      0x00\n        /* \"contracts/Lock.sol\":11437:11807  for (uint256 i = 0; i < currentFolder.sharedWithMe.length; i++) {... */\n    tag_57:\n        /* \"contracts/Lock.sol\":11461:11474  currentFolder */\n      dup3\n        /* \"contracts/Lock.sol\":11461:11487  currentFolder.sharedWithMe */\n      0x06\n      add\n        /* \"contracts/Lock.sol\":11461:11494  currentFolder.sharedWithMe.length */\n      dup1\n      sload\n      swap1\n      pop\n        /* \"contracts/Lock.sol\":11457:11458  i */\n      dup2\n        /* \"contracts/Lock.sol\":11457:11494  i < currentFolder.sharedWithMe.length */\n      lt\n        /* \"contracts/Lock.sol\":11437:11807  for (uint256 i = 0; i < currentFolder.sharedWithMe.length; i++) {... */\n      iszero\n      tag_58\n      jumpi\n        /* \"contracts/Lock.sol\":11515:11538  File storage sharedFile */\n      0x00\n        /* \"contracts/Lock.sol\":11541:11554  currentFolder */\n      dup4\n        /* \"contracts/Lock.sol\":11541:11567  currentFolder.sharedWithMe */\n      0x06\n      add\n        /* \"contracts/Lock.sol\":11568:11569  i */\n      dup3\n        /* \"contracts/Lock.sol\":11541:11570  currentFolder.sharedWithMe[i] */\n      dup2\n      sload\n      dup2\n      lt\n      tag_60\n      jumpi\n      tag_61\n      tag_62\n      jump\t// in\n    tag_61:\n    tag_60:\n      swap1\n      0x00\n      mstore\n      keccak256(0x00, 0x20)\n      swap1\n      0x06\n      mul\n      add\n        /* \"contracts/Lock.sol\":11515:11570  File storage sharedFile = currentFolder.sharedWithMe[i] */\n      swap1\n      pop\n        /* \"contracts/Lock.sol\":11601:11796  FileInfo(... */\n      mload(0x40)\n      dup1\n      0xa0\n      add\n      0x40\n      mstore\n      dup1\n        /* \"contracts/Lock.sol\":11627:11637  sharedFile */\n      dup3\n        /* \"contracts/Lock.sol\":11627:11642  sharedFile.name */\n      0x00\n      add\n        /* \"contracts/Lock.sol\":11601:11796  FileInfo(... */\n      dup1\n      sload\n      tag_64\n      swap1\n      tag_65\n      jump\t// in\n    tag_64:\n      dup1\n      0x1f\n      add\n      0x20\n      dup1\n      swap2\n      div\n      mul\n      0x20\n      add\n      mload(0x40)\n      swap1\n      dup2\n      add\n      0x40\n      mstore\n      dup1\n      swap3\n      swap2\n      swap1\n      dup2\n      dup2\n      mstore\n      0x20\n      add\n      dup3\n      dup1\n      sload\n      tag_66\n      swap1\n      tag_65\n      jump\t// in\n    tag_66:\n      dup1\n      iszero\n      tag_67\n      jumpi\n      dup1\n      0x1f\n      lt\n      tag_68\n      jumpi\n      0x0100\n      dup1\n      dup4\n      sload\n      div\n      mul\n      dup4\n      mstore\n      swap2\n      0x20\n      add\n      swap2\n      jump(tag_67)\n    tag_68:\n      dup3\n      add\n      swap2\n      swap1\n      0x00\n      mstore\n      keccak256(0x00, 0x20)\n      swap1\n    tag_69:\n      dup2\n      sload\n      dup2\n      mstore\n      swap1\n      0x01\n      add\n      swap1\n      0x20\n      add\n      dup1\n      dup4\n      gt\n      tag_69\n      jumpi\n      dup3\n      swap1\n      sub\n      0x1f\n      and\n      dup3\n      add\n      swap2\n    tag_67:\n      pop\n      pop\n      pop\n      pop\n      pop\n      dup2\n      mstore\n      0x20\n      add\n        /* \"contracts/Lock.sol\":11660:11670  sharedFile */\n      dup3\n        /* \"contracts/Lock.sol\":11660:11674  sharedFile.cid */\n      0x01\n      add\n        /* \"contracts/Lock.sol\":11601:11796  FileInfo(... */\n      dup1\n      sload\n      tag_70\n      swap1\n      tag_65\n      jump\t// in\n    tag_70:\n      dup1\n      0x1f\n      add\n      0x20\n      dup1\n      swap2\n      div\n      mul\n      0x20\n      add\n      mload(0x40)\n      swap1\n      dup2\n      add\n      0x40\n      mstore\n      dup1\n      swap3\n      swap2\n      swap1\n      dup2\n      dup2\n      mstore\n      0x20\n      add\n      dup3\n      dup1\n      sload\n      tag_71\n      swap1\n      tag_65\n      jump\t// in\n    tag_71:\n      dup1\n      iszero\n      tag_72\n      jumpi\n      dup1\n      0x1f\n      lt\n      tag_73\n      jumpi\n      0x0100\n      dup1\n      dup4\n      sload\n      div\n      mul\n      dup4\n      mstore\n      swap2\n      0x20\n      add\n      swap2\n      jump(tag_72)\n    tag_73:\n      dup3\n      add\n      swap2\n      swap1\n      0x00\n      mstore\n      keccak256(0x00, 0x20)\n      swap1\n    tag_74:\n      dup2\n      sload\n      dup2\n      mstore\n      swap1\n      0x01\n      add\n      swap1\n      0x20\n      add\n      dup1\n      dup4\n      gt\n      tag_74\n      jumpi\n      dup3\n      swap1\n      sub\n      0x1f\n      and\n      dup3\n      add\n      swap2\n    tag_72:\n      pop\n      pop\n      pop\n      pop\n      pop\n      dup2\n      mstore\n      0x20\n      add\n        /* \"contracts/Lock.sol\":11692:11702  sharedFile */\n      dup3\n        /* \"contracts/Lock.sol\":11692:11707  sharedFile.size */\n      0x02\n      add\n      sload\n        /* \"contracts/Lock.sol\":11601:11796  FileInfo(... */\n      dup2\n      mstore\n      0x20\n      add\n        /* \"contracts/Lock.sol\":11725:11735  sharedFile */\n      dup3\n        /* \"contracts/Lock.sol\":11725:11744  sharedFile.fileType */\n      0x03\n      add\n        /* \"contracts/Lock.sol\":11601:11796  FileInfo(... */\n      dup1\n      sload\n      tag_75\n      swap1\n      tag_65\n      jump\t// in\n    tag_75:\n      dup1\n      0x1f\n      add\n      0x20\n      dup1\n      swap2\n      div\n      mul\n      0x20\n      add\n      mload(0x40)\n      swap1\n      dup2\n      add\n      0x40\n      mstore\n      dup1\n      swap3\n      swap2\n      swap1\n      dup2\n      dup2\n      mstore\n      0x20\n      add\n      dup3\n      dup1\n      sload\n      tag_76\n      swap1\n      tag_65\n      jump\t// in\n    tag_76:\n      dup1\n      iszero\n      tag_77\n      jumpi\n      dup1\n      0x1f\n      lt\n      tag_78\n      jumpi\n      0x0100\n      dup1\n      dup4\n      sload\n      div\n      mul\n      dup4\n      mstore\n      swap2\n      0x20\n      add\n      swap2\n      jump(tag_77)\n    tag_78:\n      dup3\n      add\n      swap2\n      swap1\n      0x00\n      mstore\n      keccak256(0x00, 0x20)\n      swap1\n    tag_79:\n      dup2\n      sload\n      dup2\n      mstore\n      swap1\n      0x01\n      add\n      swap1\n      0x20\n      add\n      dup1\n      dup4\n      gt\n      tag_79\n      jumpi\n      dup3\n      swap1\n      sub\n      0x1f\n      and\n      dup3\n      add\n      swap2\n    tag_77:\n      pop\n      pop\n      pop\n      pop\n      pop\n      dup2\n      mstore\n      0x20\n      add\n        /* \"contracts/Lock.sol\":11762:11772  sharedFile */\n      dup3\n        /* \"contracts/Lock.sol\":11762:11782  sharedFile.createdAt */\n      0x05\n      add\n      sload\n        /* \"contracts/Lock.sol\":11601:11796  FileInfo(... */\n      dup2\n      mstore\n      pop\n        /* \"contracts/Lock.sol\":11584:11595  sharedFiles */\n      dup4\n        /* \"contracts/Lock.sol\":11596:11597  i */\n      dup4\n        /* \"contracts/Lock.sol\":11584:11598  sharedFiles[i] */\n      dup2\n      mload\n      dup2\n      lt\n      tag_80\n      jumpi\n      tag_81\n      tag_62\n      jump\t// in\n    tag_81:\n    tag_80:\n      0x20\n      mul\n      0x20\n      add\n      add\n        /* \"contracts/Lock.sol\":11584:11796  sharedFiles[i] = FileInfo(... */\n      dup2\n      swap1\n      mstore\n      pop\n        /* \"contracts/Lock.sol\":11501:11807  {... */\n      pop\n        /* \"contracts/Lock.sol\":11496:11499  i++ */\n      dup1\n      dup1\n      0x01\n      add\n      swap2\n      pop\n      pop\n        /* \"contracts/Lock.sol\":11437:11807  for (uint256 i = 0; i < currentFolder.sharedWithMe.length; i++) {... */\n      jump(tag_57)\n    tag_58:\n      pop\n        /* \"contracts/Lock.sol\":11824:11835  sharedFiles */\n      dup1\n        /* \"contracts/Lock.sol\":11817:11835  return sharedFiles */\n      swap3\n      pop\n      pop\n      pop\n        /* \"contracts/Lock.sol\":11180:11842  function getSharedWithMeFiles() public view returns (FileInfo[] memory) {... */\n      swap1\n      jump\t// out\n        /* \"contracts/Lock.sol\":1138:1362  function checkUserRootExists() public view returns (string memory) {... */\n    tag_18:\n        /* \"contracts/Lock.sol\":1190:1203  string memory */\n      0x60\n        /* \"contracts/Lock.sol\":1262:1263  0 */\n      0x00\n        /* \"contracts/Lock.sol\":1225:1233  userRoot */\n      dup1\n        /* \"contracts/Lock.sol\":1225:1245  userRoot[msg.sender] */\n      0x00\n        /* \"contracts/Lock.sol\":1234:1244  msg.sender */\n      caller\n        /* \"contracts/Lock.sol\":1225:1245  userRoot[msg.sender] */\n      0xffffffffffffffffffffffffffffffffffffffff\n      and\n      0xffffffffffffffffffffffffffffffffffffffff\n      and\n      dup2\n      mstore\n      0x20\n      add\n      swap1\n      dup2\n      mstore\n      0x20\n      add\n      0x00\n      keccak256\n        /* \"contracts/Lock.sol\":1225:1250  userRoot[msg.sender].name */\n      0x00\n      add\n        /* \"contracts/Lock.sol\":1219:1258  bytes(userRoot[msg.sender].name).length */\n      dup1\n      sload\n      tag_83\n      swap1\n      tag_65\n      jump\t// in\n    tag_83:\n      swap1\n      pop\n        /* \"contracts/Lock.sol\":1219:1263  bytes(userRoot[msg.sender].name).length == 0 */\n      sub\n        /* \"contracts/Lock.sol\":1215:1318  if (bytes(userRoot[msg.sender].name).length == 0) {... */\n      tag_84\n      jumpi\n        /* \"contracts/Lock.sol\":1279:1307  return \"Base does not exist\" */\n      mload(0x40)\n      dup1\n      0x40\n      add\n      0x40\n      mstore\n      dup1\n      0x13\n      dup2\n      mstore\n      0x20\n      add\n      0x4261736520646f6573206e6f7420657869737400000000000000000000000000\n      dup2\n      mstore\n      pop\n      swap1\n      pop\n      jump(tag_82)\n        /* \"contracts/Lock.sol\":1215:1318  if (bytes(userRoot[msg.sender].name).length == 0) {... */\n    tag_84:\n        /* \"contracts/Lock.sol\":1327:1355  return \"Base already exists\" */\n      mload(0x40)\n      dup1\n      0x40\n      add\n      0x40\n      mstore\n      dup1\n      0x13\n      dup2\n      mstore\n      0x20\n      add\n      0x4261736520616c72656164792065786973747300000000000000000000000000\n      dup2\n      mstore\n      pop\n      swap1\n      pop\n        /* \"contracts/Lock.sol\":1138:1362  function checkUserRootExists() public view returns (string memory) {... */\n    tag_82:\n      swap1\n      jump\t// out\n        /* \"contracts/Lock.sol\":4160:4732  function getFolderData(... */\n    tag_24:\n        /* \"contracts/Lock.sol\":4240:4257  FolderInfo memory */\n      tag_85\n      tag_86\n      jump\t// in\n    tag_85:\n        /* \"contracts/Lock.sol\":4269:4297  Folder storage currentFolder */\n      0x00\n        /* \"contracts/Lock.sol\":4300:4308  userRoot */\n      dup1\n        /* \"contracts/Lock.sol\":4300:4320  userRoot[msg.sender] */\n      0x00\n        /* \"contracts/Lock.sol\":4309:4319  msg.sender */\n      caller\n        /* \"contracts/Lock.sol\":4300:4320  userRoot[msg.sender] */\n      0xffffffffffffffffffffffffffffffffffffffff\n      and\n      0xffffffffffffffffffffffffffffffffffffffff\n      and\n      dup2\n      mstore\n      0x20\n      add\n      swap1\n      dup2\n      mstore\n      0x20\n      add\n      0x00\n      keccak256\n        /* \"contracts/Lock.sol\":4269:4320  Folder storage currentFolder = userRoot[msg.sender] */\n      swap1\n      pop\n        /* \"contracts/Lock.sol\":4392:4401  uint256 i */\n      0x00\n        /* \"contracts/Lock.sol\":4387:4679  for (uint256 i = 0; i < path.length; i++) {... */\n    tag_88:\n        /* \"contracts/Lock.sol\":4411:4415  path */\n      dup4\n        /* \"contracts/Lock.sol\":4411:4422  path.length */\n      mload\n        /* \"contracts/Lock.sol\":4407:4408  i */\n      dup2\n        /* \"contracts/Lock.sol\":4407:4422  i < path.length */\n      lt\n        /* \"contracts/Lock.sol\":4387:4679  for (uint256 i = 0; i < path.length; i++) {... */\n      iszero\n      tag_89\n      jumpi\n        /* \"contracts/Lock.sol\":4542:4543  0 */\n      0x00\n        /* \"contracts/Lock.sol\":4495:4508  currentFolder */\n      dup3\n        /* \"contracts/Lock.sol\":4495:4516  currentFolder.folders */\n      0x05\n      add\n        /* \"contracts/Lock.sol\":4517:4521  path */\n      dup6\n        /* \"contracts/Lock.sol\":4522:4523  i */\n      dup4\n        /* \"contracts/Lock.sol\":4517:4524  path[i] */\n      dup2\n      mload\n      dup2\n      lt\n      tag_91\n      jumpi\n      tag_92\n      tag_62\n      jump\t// in\n    tag_92:\n    tag_91:\n      0x20\n      mul\n      0x20\n      add\n      add\n      mload\n        /* \"contracts/Lock.sol\":4495:4525  currentFolder.folders[path[i]] */\n      mload(0x40)\n      tag_93\n      swap2\n      swap1\n      tag_94\n      jump\t// in\n    tag_93:\n      swap1\n      dup2\n      mstore\n      0x20\n      add\n      mload(0x40)\n      dup1\n      swap2\n      sub\n      swap1\n      keccak256\n        /* \"contracts/Lock.sol\":4495:4530  currentFolder.folders[path[i]].name */\n      0x00\n      add\n        /* \"contracts/Lock.sol\":4489:4538  bytes(currentFolder.folders[path[i]].name).length */\n      dup1\n      sload\n      tag_95\n      swap1\n      tag_65\n      jump\t// in\n    tag_95:\n      swap1\n      pop\n        /* \"contracts/Lock.sol\":4489:4543  bytes(currentFolder.folders[path[i]].name).length == 0 */\n      sub\n        /* \"contracts/Lock.sol\":4485:4609  if (bytes(currentFolder.folders[path[i]].name).length == 0) {... */\n      tag_96\n      jumpi\n        /* \"contracts/Lock.sol\":4563:4594  revert(\"Folder does not exist\") */\n      mload(0x40)\n      0x08c379a000000000000000000000000000000000000000000000000000000000\n      dup2\n      mstore\n      0x04\n      add\n      tag_97\n      swap1\n      tag_98\n      jump\t// in\n    tag_97:\n      mload(0x40)\n      dup1\n      swap2\n      sub\n      swap1\n      revert\n        /* \"contracts/Lock.sol\":4485:4609  if (bytes(currentFolder.folders[path[i]].name).length == 0) {... */\n    tag_96:\n        /* \"contracts/Lock.sol\":4638:4651  currentFolder */\n      dup2\n        /* \"contracts/Lock.sol\":4638:4659  currentFolder.folders */\n      0x05\n      add\n        /* \"contracts/Lock.sol\":4660:4664  path */\n      dup5\n        /* \"contracts/Lock.sol\":4665:4666  i */\n      dup3\n        /* \"contracts/Lock.sol\":4660:4667  path[i] */\n      dup2\n      mload\n      dup2\n      lt\n      tag_99\n      jumpi\n      tag_100\n      tag_62\n      jump\t// in\n    tag_100:\n    tag_99:\n      0x20\n      mul\n      0x20\n      add\n      add\n      mload\n        /* \"contracts/Lock.sol\":4638:4668  currentFolder.folders[path[i]] */\n      mload(0x40)\n      tag_101\n      swap2\n      swap1\n      tag_94\n      jump\t// in\n    tag_101:\n      swap1\n      dup2\n      mstore\n      0x20\n      add\n      mload(0x40)\n      dup1\n      swap2\n      sub\n      swap1\n      keccak256\n        /* \"contracts/Lock.sol\":4622:4668  currentFolder = currentFolder.folders[path[i]] */\n      swap2\n      pop\n        /* \"contracts/Lock.sol\":4424:4427  i++ */\n      dup1\n      dup1\n      0x01\n      add\n      swap2\n      pop\n      pop\n        /* \"contracts/Lock.sol\":4387:4679  for (uint256 i = 0; i < path.length; i++) {... */\n      jump(tag_88)\n    tag_89:\n      pop\n        /* \"contracts/Lock.sol\":4696:4725  _getFolderInfo(currentFolder) */\n      tag_102\n        /* \"contracts/Lock.sol\":4711:4724  currentFolder */\n      dup2\n        /* \"contracts/Lock.sol\":4696:4710  _getFolderInfo */\n      tag_103\n        /* \"contracts/Lock.sol\":4696:4725  _getFolderInfo(currentFolder) */\n      jump\t// in\n    tag_102:\n        /* \"contracts/Lock.sol\":4689:4725  return _getFolderInfo(currentFolder) */\n      swap2\n      pop\n      pop\n        /* \"contracts/Lock.sol\":4160:4732  function getFolderData(... */\n      swap2\n      swap1\n      pop\n      jump\t// out\n        /* \"contracts/Lock.sol\":8913:10244  function deleteItem(string[] memory path, string memory itemName) public {... */\n    tag_30:\n        /* \"contracts/Lock.sol\":8996:9027  _initializeUserRoot(msg.sender) */\n      tag_105\n        /* \"contracts/Lock.sol\":9016:9026  msg.sender */\n      caller\n        /* \"contracts/Lock.sol\":8996:9015  _initializeUserRoot */\n      tag_106\n        /* \"contracts/Lock.sol\":8996:9027  _initializeUserRoot(msg.sender) */\n      jump\t// in\n    tag_105:\n        /* \"contracts/Lock.sol\":9037:9065  Folder storage currentFolder */\n      0x00\n        /* \"contracts/Lock.sol\":9068:9076  userRoot */\n      dup1\n        /* \"contracts/Lock.sol\":9068:9088  userRoot[msg.sender] */\n      0x00\n        /* \"contracts/Lock.sol\":9077:9087  msg.sender */\n      caller\n        /* \"contracts/Lock.sol\":9068:9088  userRoot[msg.sender] */\n      0xffffffffffffffffffffffffffffffffffffffff\n      and\n      0xffffffffffffffffffffffffffffffffffffffff\n      and\n      dup2\n      mstore\n      0x20\n      add\n      swap1\n      dup2\n      mstore\n      0x20\n      add\n      0x00\n      keccak256\n        /* \"contracts/Lock.sol\":9037:9088  Folder storage currentFolder = userRoot[msg.sender] */\n      swap1\n      pop\n        /* \"contracts/Lock.sol\":9160:9169  uint256 i */\n      0x00\n        /* \"contracts/Lock.sol\":9155:9268  for (uint256 i = 0; i < path.length; i++) {... */\n    tag_107:\n        /* \"contracts/Lock.sol\":9179:9183  path */\n      dup4\n        /* \"contracts/Lock.sol\":9179:9190  path.length */\n      mload\n        /* \"contracts/Lock.sol\":9175:9176  i */\n      dup2\n        /* \"contracts/Lock.sol\":9175:9190  i < path.length */\n      lt\n        /* \"contracts/Lock.sol\":9155:9268  for (uint256 i = 0; i < path.length; i++) {... */\n      iszero\n      tag_108\n      jumpi\n        /* \"contracts/Lock.sol\":9227:9240  currentFolder */\n      dup2\n        /* \"contracts/Lock.sol\":9227:9248  currentFolder.folders */\n      0x05\n      add\n        /* \"contracts/Lock.sol\":9249:9253  path */\n      dup5\n        /* \"contracts/Lock.sol\":9254:9255  i */\n      dup3\n        /* \"contracts/Lock.sol\":9249:9256  path[i] */\n      dup2\n      mload\n      dup2\n      lt\n      tag_110\n      jumpi\n      tag_111\n      tag_62\n      jump\t// in\n    tag_111:\n    tag_110:\n      0x20\n      mul\n      0x20\n      add\n      add\n      mload\n        /* \"contracts/Lock.sol\":9227:9257  currentFolder.folders[path[i]] */\n      mload(0x40)\n      tag_112\n      swap2\n      swap1\n      tag_94\n      jump\t// in\n    tag_112:\n      swap1\n      dup2\n      mstore\n      0x20\n      add\n      mload(0x40)\n      dup1\n      swap2\n      sub\n      swap1\n      keccak256\n        /* \"contracts/Lock.sol\":9211:9257  currentFolder = currentFolder.folders[path[i]] */\n      swap2\n      pop\n        /* \"contracts/Lock.sol\":9192:9195  i++ */\n      dup1\n      dup1\n      0x01\n      add\n      swap2\n      pop\n      pop\n        /* \"contracts/Lock.sol\":9155:9268  for (uint256 i = 0; i < path.length; i++) {... */\n      jump(tag_107)\n    tag_108:\n      pop\n        /* \"contracts/Lock.sol\":9399:9400  0 */\n      0x00\n        /* \"contracts/Lock.sol\":9353:9366  currentFolder */\n      dup2\n        /* \"contracts/Lock.sol\":9353:9372  currentFolder.files */\n      0x04\n      add\n        /* \"contracts/Lock.sol\":9373:9381  itemName */\n      dup4\n        /* \"contracts/Lock.sol\":9353:9382  currentFolder.files[itemName] */\n      mload(0x40)\n      tag_113\n      swap2\n      swap1\n      tag_94\n      jump\t// in\n    tag_113:\n      swap1\n      dup2\n      mstore\n      0x20\n      add\n      mload(0x40)\n      dup1\n      swap2\n      sub\n      swap1\n      keccak256\n        /* \"contracts/Lock.sol\":9353:9387  currentFolder.files[itemName].name */\n      0x00\n      add\n        /* \"contracts/Lock.sol\":9347:9395  bytes(currentFolder.files[itemName].name).length */\n      dup1\n      sload\n      tag_114\n      swap1\n      tag_65\n      jump\t// in\n    tag_114:\n      swap1\n      pop\n        /* \"contracts/Lock.sol\":9347:9400  bytes(currentFolder.files[itemName].name).length != 0 */\n      eq\n        /* \"contracts/Lock.sol\":9343:9731  if (bytes(currentFolder.files[itemName].name).length != 0) {... */\n      tag_115\n      jumpi\n        /* \"contracts/Lock.sol\":9461:9474  currentFolder */\n      dup1\n        /* \"contracts/Lock.sol\":9461:9480  currentFolder.files */\n      0x04\n      add\n        /* \"contracts/Lock.sol\":9481:9489  itemName */\n      dup3\n        /* \"contracts/Lock.sol\":9461:9490  currentFolder.files[itemName] */\n      mload(0x40)\n      tag_116\n      swap2\n      swap1\n      tag_94\n      jump\t// in\n    tag_116:\n      swap1\n      dup2\n      mstore\n      0x20\n      add\n      mload(0x40)\n      dup1\n      swap2\n      sub\n      swap1\n      keccak256\n      0x00\n        /* \"contracts/Lock.sol\":9454:9490  delete currentFolder.files[itemName] */\n      dup1\n      dup3\n      add\n      0x00\n      tag_117\n      swap2\n      swap1\n      tag_118\n      jump\t// in\n    tag_117:\n      0x01\n      dup3\n      add\n      0x00\n      tag_119\n      swap2\n      swap1\n      tag_118\n      jump\t// in\n    tag_119:\n      0x02\n      dup3\n      add\n      0x00\n      swap1\n      sstore\n      0x03\n      dup3\n      add\n      0x00\n      tag_120\n      swap2\n      swap1\n      tag_118\n      jump\t// in\n    tag_120:\n      0x04\n      dup3\n      add\n      exp(0x0100, 0x00)\n      dup2\n      sload\n      swap1\n      0xffffffffffffffffffffffffffffffffffffffff\n      mul\n      not\n      and\n      swap1\n      sstore\n      0x05\n      dup3\n      add\n      0x00\n      swap1\n      sstore\n      pop\n      pop\n        /* \"contracts/Lock.sol\":9343:9731  if (bytes(currentFolder.files[itemName].name).length != 0) {... */\n      jump(tag_121)\n    tag_115:\n        /* \"contracts/Lock.sol\":9565:9566  0 */\n      0x00\n        /* \"contracts/Lock.sol\":9517:9530  currentFolder */\n      dup2\n        /* \"contracts/Lock.sol\":9517:9538  currentFolder.folders */\n      0x05\n      add\n        /* \"contracts/Lock.sol\":9539:9547  itemName */\n      dup4\n        /* \"contracts/Lock.sol\":9517:9548  currentFolder.folders[itemName] */\n      mload(0x40)\n      tag_122\n      swap2\n      swap1\n      tag_94\n      jump\t// in\n    tag_122:\n      swap1\n      dup2\n      mstore\n      0x20\n      add\n      mload(0x40)\n      dup1\n      swap2\n      sub\n      swap1\n      keccak256\n        /* \"contracts/Lock.sol\":9517:9553  currentFolder.folders[itemName].name */\n      0x00\n      add\n        /* \"contracts/Lock.sol\":9511:9561  bytes(currentFolder.folders[itemName].name).length */\n      dup1\n      sload\n      tag_123\n      swap1\n      tag_65\n      jump\t// in\n    tag_123:\n      swap1\n      pop\n        /* \"contracts/Lock.sol\":9511:9566  bytes(currentFolder.folders[itemName].name).length != 0 */\n      eq\n        /* \"contracts/Lock.sol\":9507:9731  if (bytes(currentFolder.folders[itemName].name).length != 0) {... */\n      tag_124\n      jumpi\n        /* \"contracts/Lock.sol\":9629:9642  currentFolder */\n      dup1\n        /* \"contracts/Lock.sol\":9629:9650  currentFolder.folders */\n      0x05\n      add\n        /* \"contracts/Lock.sol\":9651:9659  itemName */\n      dup3\n        /* \"contracts/Lock.sol\":9629:9660  currentFolder.folders[itemName] */\n      mload(0x40)\n      tag_125\n      swap2\n      swap1\n      tag_94\n      jump\t// in\n    tag_125:\n      swap1\n      dup2\n      mstore\n      0x20\n      add\n      mload(0x40)\n      dup1\n      swap2\n      sub\n      swap1\n      keccak256\n      0x00\n        /* \"contracts/Lock.sol\":9622:9660  delete currentFolder.folders[itemName] */\n      dup1\n      dup3\n      add\n      0x00\n      tag_126\n      swap2\n      swap1\n      tag_118\n      jump\t// in\n    tag_126:\n      0x01\n      dup3\n      add\n      exp(0x0100, 0x00)\n      dup2\n      sload\n      swap1\n      0xffffffffffffffffffffffffffffffffffffffff\n      mul\n      not\n      and\n      swap1\n      sstore\n      0x02\n      dup3\n      add\n      0x00\n      swap1\n      sstore\n      0x03\n      dup3\n      add\n      0x00\n      tag_127\n      swap2\n      swap1\n      tag_128\n      jump\t// in\n    tag_127:\n      0x06\n      dup3\n      add\n      0x00\n      tag_129\n      swap2\n      swap1\n      tag_130\n      jump\t// in\n    tag_129:\n      pop\n      pop\n        /* \"contracts/Lock.sol\":9507:9731  if (bytes(currentFolder.folders[itemName].name).length != 0) {... */\n      jump(tag_131)\n    tag_124:\n        /* \"contracts/Lock.sol\":9691:9720  revert(\"Item does not exist\") */\n      mload(0x40)\n      0x08c379a000000000000000000000000000000000000000000000000000000000\n      dup2\n      mstore\n      0x04\n      add\n      tag_132\n      swap1\n      tag_133\n      jump\t// in\n    tag_132:\n      mload(0x40)\n      dup1\n      swap2\n      sub\n      swap1\n      revert\n        /* \"contracts/Lock.sol\":9507:9731  if (bytes(currentFolder.folders[itemName].name).length != 0) {... */\n    tag_131:\n        /* \"contracts/Lock.sol\":9343:9731  if (bytes(currentFolder.files[itemName].name).length != 0) {... */\n    tag_121:\n        /* \"contracts/Lock.sol\":9803:9812  uint256 i */\n      0x00\n        /* \"contracts/Lock.sol\":9798:10238  for (uint256 i = 0; i < currentFolder.fileNames.length; i++) {... */\n    tag_134:\n        /* \"contracts/Lock.sol\":9822:9835  currentFolder */\n      dup2\n        /* \"contracts/Lock.sol\":9822:9845  currentFolder.fileNames */\n      0x03\n      add\n        /* \"contracts/Lock.sol\":9822:9852  currentFolder.fileNames.length */\n      dup1\n      sload\n      swap1\n      pop\n        /* \"contracts/Lock.sol\":9818:9819  i */\n      dup2\n        /* \"contracts/Lock.sol\":9818:9852  i < currentFolder.fileNames.length */\n      lt\n        /* \"contracts/Lock.sol\":9798:10238  for (uint256 i = 0; i < currentFolder.fileNames.length; i++) {... */\n      iszero\n      tag_135\n      jumpi\n        /* \"contracts/Lock.sol\":9974:9982  itemName */\n      dup3\n        /* \"contracts/Lock.sol\":9958:9984  keccak256(bytes(itemName)) */\n      dup1\n      mload\n      swap1\n      0x20\n      add\n      keccak256\n        /* \"contracts/Lock.sol\":9910:9923  currentFolder */\n      dup3\n        /* \"contracts/Lock.sol\":9910:9933  currentFolder.fileNames */\n      0x03\n      add\n        /* \"contracts/Lock.sol\":9934:9935  i */\n      dup3\n        /* \"contracts/Lock.sol\":9910:9936  currentFolder.fileNames[i] */\n      dup2\n      sload\n      dup2\n      lt\n      tag_137\n      jumpi\n      tag_138\n      tag_62\n      jump\t// in\n    tag_138:\n    tag_137:\n      swap1\n      0x00\n      mstore\n      keccak256(0x00, 0x20)\n      add\n        /* \"contracts/Lock.sol\":9894:9938  keccak256(bytes(currentFolder.fileNames[i])) */\n      mload(0x40)\n      tag_140\n      swap2\n      swap1\n      tag_141\n      jump\t// in\n    tag_140:\n      mload(0x40)\n      dup1\n      swap2\n      sub\n      swap1\n      keccak256\n        /* \"contracts/Lock.sol\":9894:9984  keccak256(bytes(currentFolder.fileNames[i])) ==... */\n      sub\n        /* \"contracts/Lock.sol\":9873:10228  if (... */\n      tag_142\n      jumpi\n        /* \"contracts/Lock.sol\":10046:10059  currentFolder */\n      dup2\n        /* \"contracts/Lock.sol\":10046:10069  currentFolder.fileNames */\n      0x03\n      add\n        /* \"contracts/Lock.sol\":10124:10125  1 */\n      0x01\n        /* \"contracts/Lock.sol\":10091:10104  currentFolder */\n      dup4\n        /* \"contracts/Lock.sol\":10091:10114  currentFolder.fileNames */\n      0x03\n      add\n        /* \"contracts/Lock.sol\":10091:10121  currentFolder.fileNames.length */\n      dup1\n      sload\n      swap1\n      pop\n        /* \"contracts/Lock.sol\":10091:10125  currentFolder.fileNames.length - 1 */\n      tag_143\n      swap2\n      swap1\n      tag_144\n      jump\t// in\n    tag_143:\n        /* \"contracts/Lock.sol\":10046:10143  currentFolder.fileNames[... */\n      dup2\n      sload\n      dup2\n      lt\n      tag_145\n      jumpi\n      tag_146\n      tag_62\n      jump\t// in\n    tag_146:\n    tag_145:\n      swap1\n      0x00\n      mstore\n      keccak256(0x00, 0x20)\n      add\n        /* \"contracts/Lock.sol\":10017:10030  currentFolder */\n      dup3\n        /* \"contracts/Lock.sol\":10017:10040  currentFolder.fileNames */\n      0x03\n      add\n        /* \"contracts/Lock.sol\":10041:10042  i */\n      dup3\n        /* \"contracts/Lock.sol\":10017:10043  currentFolder.fileNames[i] */\n      dup2\n      sload\n      dup2\n      lt\n      tag_148\n      jumpi\n      tag_149\n      tag_62\n      jump\t// in\n    tag_149:\n    tag_148:\n      swap1\n      0x00\n      mstore\n      keccak256(0x00, 0x20)\n      add\n        /* \"contracts/Lock.sol\":10017:10143  currentFolder.fileNames[i] = currentFolder.fileNames[... */\n      swap1\n      dup2\n      tag_151\n      swap2\n      swap1\n      tag_152\n      jump\t// in\n    tag_151:\n      pop\n        /* \"contracts/Lock.sol\":10161:10174  currentFolder */\n      dup2\n        /* \"contracts/Lock.sol\":10161:10184  currentFolder.fileNames */\n      0x03\n      add\n        /* \"contracts/Lock.sol\":10161:10190  currentFolder.fileNames.pop() */\n      dup1\n      sload\n      dup1\n      tag_153\n      jumpi\n      tag_154\n      tag_155\n      jump\t// in\n    tag_154:\n    tag_153:\n      0x01\n      swap1\n      sub\n      dup2\n      dup2\n      swap1\n      0x00\n      mstore\n      keccak256(0x00, 0x20)\n      add\n      0x00\n      tag_157\n      swap2\n      swap1\n      tag_118\n      jump\t// in\n    tag_157:\n      swap1\n      sstore\n        /* \"contracts/Lock.sol\":10208:10213  break */\n      jump(tag_135)\n        /* \"contracts/Lock.sol\":9873:10228  if (... */\n    tag_142:\n        /* \"contracts/Lock.sol\":9854:9857  i++ */\n      dup1\n      dup1\n      0x01\n      add\n      swap2\n      pop\n      pop\n        /* \"contracts/Lock.sol\":9798:10238  for (uint256 i = 0; i < currentFolder.fileNames.length; i++) {... */\n      jump(tag_134)\n    tag_135:\n      pop\n        /* \"contracts/Lock.sol\":8986:10244  {... */\n      pop\n        /* \"contracts/Lock.sol\":8913:10244  function deleteItem(string[] memory path, string memory itemName) public {... */\n      pop\n      pop\n      jump\t// out\n        /* \"contracts/Lock.sol\":1368:1633  function initializeUserRoot() public returns (string memory) {... */\n    tag_32:\n        /* \"contracts/Lock.sol\":1414:1427  string memory */\n      0x60\n        /* \"contracts/Lock.sol\":1486:1487  0 */\n      0x00\n        /* \"contracts/Lock.sol\":1449:1457  userRoot */\n      dup1\n        /* \"contracts/Lock.sol\":1449:1469  userRoot[msg.sender] */\n      0x00\n        /* \"contracts/Lock.sol\":1458:1468  msg.sender */\n      caller\n        /* \"contracts/Lock.sol\":1449:1469  userRoot[msg.sender] */\n      0xffffffffffffffffffffffffffffffffffffffff\n      and\n      0xffffffffffffffffffffffffffffffffffffffff\n      and\n      dup2\n      mstore\n      0x20\n      add\n      swap1\n      dup2\n      mstore\n      0x20\n      add\n      0x00\n      keccak256\n        /* \"contracts/Lock.sol\":1449:1474  userRoot[msg.sender].name */\n      0x00\n      add\n        /* \"contracts/Lock.sol\":1443:1482  bytes(userRoot[msg.sender].name).length */\n      dup1\n      sload\n      tag_159\n      swap1\n      tag_65\n      jump\t// in\n    tag_159:\n      swap1\n      pop\n        /* \"contracts/Lock.sol\":1443:1487  bytes(userRoot[msg.sender].name).length == 0 */\n      sub\n        /* \"contracts/Lock.sol\":1439:1584  if (bytes(userRoot[msg.sender].name).length == 0) {... */\n      tag_160\n      jumpi\n        /* \"contracts/Lock.sol\":1503:1534  _initializeUserRoot(msg.sender) */\n      tag_161\n        /* \"contracts/Lock.sol\":1523:1533  msg.sender */\n      caller\n        /* \"contracts/Lock.sol\":1503:1522  _initializeUserRoot */\n      tag_106\n        /* \"contracts/Lock.sol\":1503:1534  _initializeUserRoot(msg.sender) */\n      jump\t// in\n    tag_161:\n        /* \"contracts/Lock.sol\":1548:1573  return \"Base initialized\" */\n      mload(0x40)\n      dup1\n      0x40\n      add\n      0x40\n      mstore\n      dup1\n      0x10\n      dup2\n      mstore\n      0x20\n      add\n      0x4261736520696e697469616c697a656400000000000000000000000000000000\n      dup2\n      mstore\n      pop\n      swap1\n      pop\n      jump(tag_158)\n        /* \"contracts/Lock.sol\":1439:1584  if (bytes(userRoot[msg.sender].name).length == 0) {... */\n    tag_160:\n        /* \"contracts/Lock.sol\":1593:1626  return \"Base already initialized\" */\n      mload(0x40)\n      dup1\n      0x40\n      add\n      0x40\n      mstore\n      dup1\n      0x18\n      dup2\n      mstore\n      0x20\n      add\n      0x4261736520616c726561647920696e697469616c697a65640000000000000000\n      dup2\n      mstore\n      pop\n      swap1\n      pop\n        /* \"contracts/Lock.sol\":1368:1633  function initializeUserRoot() public returns (string memory) {... */\n    tag_158:\n      swap1\n      jump\t// out\n        /* \"contracts/Lock.sol\":1639:2663  function createFolder(... */\n    tag_36:\n        /* \"contracts/Lock.sol\":1748:1779  _initializeUserRoot(msg.sender) */\n      tag_163\n        /* \"contracts/Lock.sol\":1768:1778  msg.sender */\n      caller\n        /* \"contracts/Lock.sol\":1748:1767  _initializeUserRoot */\n      tag_106\n        /* \"contracts/Lock.sol\":1748:1779  _initializeUserRoot(msg.sender) */\n      jump\t// in\n    tag_163:\n        /* \"contracts/Lock.sol\":1789:1817  Folder storage currentFolder */\n      0x00\n        /* \"contracts/Lock.sol\":1820:1828  userRoot */\n      dup1\n        /* \"contracts/Lock.sol\":1820:1840  userRoot[msg.sender] */\n      0x00\n        /* \"contracts/Lock.sol\":1829:1839  msg.sender */\n      caller\n        /* \"contracts/Lock.sol\":1820:1840  userRoot[msg.sender] */\n      0xffffffffffffffffffffffffffffffffffffffff\n      and\n      0xffffffffffffffffffffffffffffffffffffffff\n      and\n      dup2\n      mstore\n      0x20\n      add\n      swap1\n      dup2\n      mstore\n      0x20\n      add\n      0x00\n      keccak256\n        /* \"contracts/Lock.sol\":1789:1840  Folder storage currentFolder = userRoot[msg.sender] */\n      swap1\n      pop\n        /* \"contracts/Lock.sol\":1912:1921  uint256 i */\n      0x00\n        /* \"contracts/Lock.sol\":1907:2020  for (uint256 i = 0; i < path.length; i++) {... */\n    tag_164:\n        /* \"contracts/Lock.sol\":1931:1935  path */\n      dup4\n        /* \"contracts/Lock.sol\":1931:1942  path.length */\n      mload\n        /* \"contracts/Lock.sol\":1927:1928  i */\n      dup2\n        /* \"contracts/Lock.sol\":1927:1942  i < path.length */\n      lt\n        /* \"contracts/Lock.sol\":1907:2020  for (uint256 i = 0; i < path.length; i++) {... */\n      iszero\n      tag_165\n      jumpi\n        /* \"contracts/Lock.sol\":1979:1992  currentFolder */\n      dup2\n        /* \"contracts/Lock.sol\":1979:2000  currentFolder.folders */\n      0x05\n      add\n        /* \"contracts/Lock.sol\":2001:2005  path */\n      dup5\n        /* \"contracts/Lock.sol\":2006:2007  i */\n      dup3\n        /* \"contracts/Lock.sol\":2001:2008  path[i] */\n      dup2\n      mload\n      dup2\n      lt\n      tag_167\n      jumpi\n      tag_168\n      tag_62\n      jump\t// in\n    tag_168:\n    tag_167:\n      0x20\n      mul\n      0x20\n      add\n      add\n      mload\n        /* \"contracts/Lock.sol\":1979:2009  currentFolder.folders[path[i]] */\n      mload(0x40)\n      tag_169\n      swap2\n      swap1\n      tag_94\n      jump\t// in\n    tag_169:\n      swap1\n      dup2\n      mstore\n      0x20\n      add\n      mload(0x40)\n      dup1\n      swap2\n      sub\n      swap1\n      keccak256\n        /* \"contracts/Lock.sol\":1963:2009  currentFolder = currentFolder.folders[path[i]] */\n      swap2\n      pop\n        /* \"contracts/Lock.sol\":1944:1947  i++ */\n      dup1\n      dup1\n      0x01\n      add\n      swap2\n      pop\n      pop\n        /* \"contracts/Lock.sol\":1907:2020  for (uint256 i = 0; i < path.length; i++) {... */\n      jump(tag_164)\n    tag_165:\n      pop\n        /* \"contracts/Lock.sol\":2180:2181  0 */\n      0x00\n        /* \"contracts/Lock.sol\":2130:2143  currentFolder */\n      dup2\n        /* \"contracts/Lock.sol\":2130:2151  currentFolder.folders */\n      0x05\n      add\n        /* \"contracts/Lock.sol\":2152:2162  folderName */\n      dup4\n        /* \"contracts/Lock.sol\":2130:2163  currentFolder.folders[folderName] */\n      mload(0x40)\n      tag_170\n      swap2\n      swap1\n      tag_94\n      jump\t// in\n    tag_170:\n      swap1\n      dup2\n      mstore\n      0x20\n      add\n      mload(0x40)\n      dup1\n      swap2\n      sub\n      swap1\n      keccak256\n        /* \"contracts/Lock.sol\":2130:2168  currentFolder.folders[folderName].name */\n      0x00\n      add\n        /* \"contracts/Lock.sol\":2124:2176  bytes(currentFolder.folders[folderName].name).length */\n      dup1\n      sload\n      tag_171\n      swap1\n      tag_65\n      jump\t// in\n    tag_171:\n      swap1\n      pop\n        /* \"contracts/Lock.sol\":2124:2181  bytes(currentFolder.folders[folderName].name).length == 0 */\n      eq\n        /* \"contracts/Lock.sol\":2103:2228  require(... */\n      tag_172\n      jumpi\n      mload(0x40)\n      0x08c379a000000000000000000000000000000000000000000000000000000000\n      dup2\n      mstore\n      0x04\n      add\n      tag_173\n      swap1\n      tag_174\n      jump\t// in\n    tag_173:\n      mload(0x40)\n      dup1\n      swap2\n      sub\n      swap1\n      revert\n    tag_172:\n        /* \"contracts/Lock.sol\":2313:2314  0 */\n      0x00\n        /* \"contracts/Lock.sol\":2265:2278  currentFolder */\n      dup2\n        /* \"contracts/Lock.sol\":2265:2284  currentFolder.files */\n      0x04\n      add\n        /* \"contracts/Lock.sol\":2285:2295  folderName */\n      dup4\n        /* \"contracts/Lock.sol\":2265:2296  currentFolder.files[folderName] */\n      mload(0x40)\n      tag_175\n      swap2\n      swap1\n      tag_94\n      jump\t// in\n    tag_175:\n      swap1\n      dup2\n      mstore\n      0x20\n      add\n      mload(0x40)\n      dup1\n      swap2\n      sub\n      swap1\n      keccak256\n        /* \"contracts/Lock.sol\":2265:2301  currentFolder.files[folderName].name */\n      0x00\n      add\n        /* \"contracts/Lock.sol\":2259:2309  bytes(currentFolder.files[folderName].name).length */\n      dup1\n      sload\n      tag_176\n      swap1\n      tag_65\n      jump\t// in\n    tag_176:\n      swap1\n      pop\n        /* \"contracts/Lock.sol\":2259:2314  bytes(currentFolder.files[folderName].name).length == 0 */\n      eq\n        /* \"contracts/Lock.sol\":2238:2380  require(... */\n      tag_177\n      jumpi\n      mload(0x40)\n      0x08c379a000000000000000000000000000000000000000000000000000000000\n      dup2\n      mstore\n      0x04\n      add\n      tag_178\n      swap1\n      tag_179\n      jump\t// in\n    tag_178:\n      mload(0x40)\n      dup1\n      swap2\n      sub\n      swap1\n      revert\n    tag_177:\n        /* \"contracts/Lock.sol\":2424:2448  Folder storage newFolder */\n      0x00\n        /* \"contracts/Lock.sol\":2451:2464  currentFolder */\n      dup2\n        /* \"contracts/Lock.sol\":2451:2472  currentFolder.folders */\n      0x05\n      add\n        /* \"contracts/Lock.sol\":2473:2483  folderName */\n      dup4\n        /* \"contracts/Lock.sol\":2451:2484  currentFolder.folders[folderName] */\n      mload(0x40)\n      tag_180\n      swap2\n      swap1\n      tag_94\n      jump\t// in\n    tag_180:\n      swap1\n      dup2\n      mstore\n      0x20\n      add\n      mload(0x40)\n      dup1\n      swap2\n      sub\n      swap1\n      keccak256\n        /* \"contracts/Lock.sol\":2424:2484  Folder storage newFolder = currentFolder.folders[folderName] */\n      swap1\n      pop\n        /* \"contracts/Lock.sol\":2511:2521  folderName */\n      dup3\n        /* \"contracts/Lock.sol\":2494:2503  newFolder */\n      dup2\n        /* \"contracts/Lock.sol\":2494:2508  newFolder.name */\n      0x00\n      add\n        /* \"contracts/Lock.sol\":2494:2521  newFolder.name = folderName */\n      swap1\n      dup2\n      tag_181\n      swap2\n      swap1\n      tag_182\n      jump\t// in\n    tag_181:\n      pop\n        /* \"contracts/Lock.sol\":2549:2559  msg.sender */\n      caller\n        /* \"contracts/Lock.sol\":2531:2540  newFolder */\n      dup2\n        /* \"contracts/Lock.sol\":2531:2546  newFolder.owner */\n      0x01\n      add\n      0x00\n        /* \"contracts/Lock.sol\":2531:2559  newFolder.owner = msg.sender */\n      0x0100\n      exp\n      dup2\n      sload\n      dup2\n      0xffffffffffffffffffffffffffffffffffffffff\n      mul\n      not\n      and\n      swap1\n      dup4\n      0xffffffffffffffffffffffffffffffffffffffff\n      and\n      mul\n      or\n      swap1\n      sstore\n      pop\n        /* \"contracts/Lock.sol\":2591:2606  block.timestamp */\n      timestamp\n        /* \"contracts/Lock.sol\":2569:2578  newFolder */\n      dup2\n        /* \"contracts/Lock.sol\":2569:2588  newFolder.createdAt */\n      0x02\n      add\n        /* \"contracts/Lock.sol\":2569:2606  newFolder.createdAt = block.timestamp */\n      dup2\n      swap1\n      sstore\n      pop\n        /* \"contracts/Lock.sol\":2616:2629  currentFolder */\n      dup2\n        /* \"contracts/Lock.sol\":2616:2639  currentFolder.fileNames */\n      0x03\n      add\n        /* \"contracts/Lock.sol\":2645:2655  folderName */\n      dup4\n        /* \"contracts/Lock.sol\":2616:2656  currentFolder.fileNames.push(folderName) */\n      swap1\n      dup1\n      0x01\n      dup2\n      sload\n      add\n      dup1\n      dup3\n      sstore\n      dup1\n      swap2\n      pop\n      pop\n      0x01\n      swap1\n      sub\n      swap1\n      0x00\n      mstore\n      keccak256(0x00, 0x20)\n      add\n      0x00\n      swap1\n      swap2\n      swap1\n      swap2\n      swap1\n      swap2\n      pop\n      swap1\n      dup2\n      tag_184\n      swap2\n      swap1\n      tag_182\n      jump\t// in\n    tag_184:\n      pop\n        /* \"contracts/Lock.sol\":1738:2663  {... */\n      pop\n      pop\n        /* \"contracts/Lock.sol\":1639:2663  function createFolder(... */\n      pop\n      pop\n      jump\t// out\n        /* \"contracts/Lock.sol\":6695:8907  function updateFile(... */\n    tag_40:\n        /* \"contracts/Lock.sol\":6925:6956  _initializeUserRoot(msg.sender) */\n      tag_186\n        /* \"contracts/Lock.sol\":6945:6955  msg.sender */\n      caller\n        /* \"contracts/Lock.sol\":6925:6944  _initializeUserRoot */\n      tag_106\n        /* \"contracts/Lock.sol\":6925:6956  _initializeUserRoot(msg.sender) */\n      jump\t// in\n    tag_186:\n        /* \"contracts/Lock.sol\":6966:6994  Folder storage currentFolder */\n      0x00\n        /* \"contracts/Lock.sol\":6997:7005  userRoot */\n      dup1\n        /* \"contracts/Lock.sol\":6997:7017  userRoot[msg.sender] */\n      0x00\n        /* \"contracts/Lock.sol\":7006:7016  msg.sender */\n      caller\n        /* \"contracts/Lock.sol\":6997:7017  userRoot[msg.sender] */\n      0xffffffffffffffffffffffffffffffffffffffff\n      and\n      0xffffffffffffffffffffffffffffffffffffffff\n      and\n      dup2\n      mstore\n      0x20\n      add\n      swap1\n      dup2\n      mstore\n      0x20\n      add\n      0x00\n      keccak256\n        /* \"contracts/Lock.sol\":6966:7017  Folder storage currentFolder = userRoot[msg.sender] */\n      swap1\n      pop\n        /* \"contracts/Lock.sol\":7089:7098  uint256 i */\n      0x00\n        /* \"contracts/Lock.sol\":7084:7197  for (uint256 i = 0; i < path.length; i++) {... */\n    tag_187:\n        /* \"contracts/Lock.sol\":7108:7112  path */\n      dup8\n        /* \"contracts/Lock.sol\":7108:7119  path.length */\n      mload\n        /* \"contracts/Lock.sol\":7104:7105  i */\n      dup2\n        /* \"contracts/Lock.sol\":7104:7119  i < path.length */\n      lt\n        /* \"contracts/Lock.sol\":7084:7197  for (uint256 i = 0; i < path.length; i++) {... */\n      iszero\n      tag_188\n      jumpi\n        /* \"contracts/Lock.sol\":7156:7169  currentFolder */\n      dup2\n        /* \"contracts/Lock.sol\":7156:7177  currentFolder.folders */\n      0x05\n      add\n        /* \"contracts/Lock.sol\":7178:7182  path */\n      dup9\n        /* \"contracts/Lock.sol\":7183:7184  i */\n      dup3\n        /* \"contracts/Lock.sol\":7178:7185  path[i] */\n      dup2\n      mload\n      dup2\n      lt\n      tag_190\n      jumpi\n      tag_191\n      tag_62\n      jump\t// in\n    tag_191:\n    tag_190:\n      0x20\n      mul\n      0x20\n      add\n      add\n      mload\n        /* \"contracts/Lock.sol\":7156:7186  currentFolder.folders[path[i]] */\n      mload(0x40)\n      tag_192\n      swap2\n      swap1\n      tag_94\n      jump\t// in\n    tag_192:\n      swap1\n      dup2\n      mstore\n      0x20\n      add\n      mload(0x40)\n      dup1\n      swap2\n      sub\n      swap1\n      keccak256\n        /* \"contracts/Lock.sol\":7140:7186  currentFolder = currentFolder.folders[path[i]] */\n      swap2\n      pop\n        /* \"contracts/Lock.sol\":7121:7124  i++ */\n      dup1\n      dup1\n      0x01\n      add\n      swap2\n      pop\n      pop\n        /* \"contracts/Lock.sol\":7084:7197  for (uint256 i = 0; i < path.length; i++) {... */\n      jump(tag_187)\n    tag_188:\n      pop\n        /* \"contracts/Lock.sol\":7316:7317  0 */\n      0x00\n        /* \"contracts/Lock.sol\":7270:7283  currentFolder */\n      dup2\n        /* \"contracts/Lock.sol\":7270:7289  currentFolder.files */\n      0x04\n      add\n        /* \"contracts/Lock.sol\":7290:7298  fileName */\n      dup8\n        /* \"contracts/Lock.sol\":7270:7299  currentFolder.files[fileName] */\n      mload(0x40)\n      tag_193\n      swap2\n      swap1\n      tag_94\n      jump\t// in\n    tag_193:\n      swap1\n      dup2\n      mstore\n      0x20\n      add\n      mload(0x40)\n      dup1\n      swap2\n      sub\n      swap1\n      keccak256\n        /* \"contracts/Lock.sol\":7270:7304  currentFolder.files[fileName].name */\n      0x00\n      add\n        /* \"contracts/Lock.sol\":7264:7312  bytes(currentFolder.files[fileName].name).length */\n      dup1\n      sload\n      tag_194\n      swap1\n      tag_65\n      jump\t// in\n    tag_194:\n      swap1\n      pop\n        /* \"contracts/Lock.sol\":7264:7317  bytes(currentFolder.files[fileName].name).length != 0 */\n      sub\n        /* \"contracts/Lock.sol\":7243:7362  require(... */\n      tag_195\n      jumpi\n      mload(0x40)\n      0x08c379a000000000000000000000000000000000000000000000000000000000\n      dup2\n      mstore\n      0x04\n      add\n      tag_196\n      swap1\n      tag_197\n      jump\t// in\n    tag_196:\n      mload(0x40)\n      dup1\n      swap2\n      sub\n      swap1\n      revert\n    tag_195:\n        /* \"contracts/Lock.sol\":7472:7473  0 */\n      0x00\n        /* \"contracts/Lock.sol\":7449:7460  newFileName */\n      dup4\n        /* \"contracts/Lock.sol\":7443:7468  bytes(newFileName).length */\n      mload\n        /* \"contracts/Lock.sol\":7443:7473  bytes(newFileName).length != 0 */\n      eq\n      iszero\n        /* \"contracts/Lock.sol\":7443:7548  bytes(newFileName).length != 0 &&... */\n      dup1\n      iszero\n      tag_198\n      jumpi\n      pop\n        /* \"contracts/Lock.sol\":7538:7546  fileName */\n      dup6\n        /* \"contracts/Lock.sol\":7522:7548  keccak256(bytes(fileName)) */\n      dup1\n      mload\n      swap1\n      0x20\n      add\n      keccak256\n        /* \"contracts/Lock.sol\":7505:7516  newFileName */\n      dup4\n        /* \"contracts/Lock.sol\":7489:7518  keccak256(bytes(newFileName)) */\n      dup1\n      mload\n      swap1\n      0x20\n      add\n      keccak256\n        /* \"contracts/Lock.sol\":7489:7548  keccak256(bytes(newFileName)) != keccak256(bytes(fileName)) */\n      eq\n      iszero\n        /* \"contracts/Lock.sol\":7443:7548  bytes(newFileName).length != 0 &&... */\n    tag_198:\n        /* \"contracts/Lock.sol\":7426:7904  if (... */\n      iszero\n      tag_199\n      jumpi\n        /* \"contracts/Lock.sol\":7653:7654  0 */\n      0x00\n        /* \"contracts/Lock.sol\":7604:7617  currentFolder */\n      dup2\n        /* \"contracts/Lock.sol\":7604:7623  currentFolder.files */\n      0x04\n      add\n        /* \"contracts/Lock.sol\":7624:7635  newFileName */\n      dup5\n        /* \"contracts/Lock.sol\":7604:7636  currentFolder.files[newFileName] */\n      mload(0x40)\n      tag_200\n      swap2\n      swap1\n      tag_94\n      jump\t// in\n    tag_200:\n      swap1\n      dup2\n      mstore\n      0x20\n      add\n      mload(0x40)\n      dup1\n      swap2\n      sub\n      swap1\n      keccak256\n        /* \"contracts/Lock.sol\":7604:7641  currentFolder.files[newFileName].name */\n      0x00\n      add\n        /* \"contracts/Lock.sol\":7598:7649  bytes(currentFolder.files[newFileName].name).length */\n      dup1\n      sload\n      tag_201\n      swap1\n      tag_65\n      jump\t// in\n    tag_201:\n      swap1\n      pop\n        /* \"contracts/Lock.sol\":7598:7654  bytes(currentFolder.files[newFileName].name).length == 0 */\n      eq\n        /* \"contracts/Lock.sol\":7573:7716  require(... */\n      tag_202\n      jumpi\n      mload(0x40)\n      0x08c379a000000000000000000000000000000000000000000000000000000000\n      dup2\n      mstore\n      0x04\n      add\n      tag_203\n      swap1\n      tag_204\n      jump\t// in\n    tag_203:\n      mload(0x40)\n      dup1\n      swap2\n      sub\n      swap1\n      revert\n    tag_202:\n        /* \"contracts/Lock.sol\":7812:7813  0 */\n      0x00\n        /* \"contracts/Lock.sol\":7761:7774  currentFolder */\n      dup2\n        /* \"contracts/Lock.sol\":7761:7782  currentFolder.folders */\n      0x05\n      add\n        /* \"contracts/Lock.sol\":7783:7794  newFileName */\n      dup5\n        /* \"contracts/Lock.sol\":7761:7795  currentFolder.folders[newFileName] */\n      mload(0x40)\n      tag_205\n      swap2\n      swap1\n      tag_94\n      jump\t// in\n    tag_205:\n      swap1\n      dup2\n      mstore\n      0x20\n      add\n      mload(0x40)\n      dup1\n      swap2\n      sub\n      swap1\n      keccak256\n        /* \"contracts/Lock.sol\":7761:7800  currentFolder.folders[newFileName].name */\n      0x00\n      add\n        /* \"contracts/Lock.sol\":7755:7808  bytes(currentFolder.folders[newFileName].name).length */\n      dup1\n      sload\n      tag_206\n      swap1\n      tag_65\n      jump\t// in\n    tag_206:\n      swap1\n      pop\n        /* \"contracts/Lock.sol\":7755:7813  bytes(currentFolder.folders[newFileName].name).length == 0 */\n      eq\n        /* \"contracts/Lock.sol\":7730:7893  require(... */\n      tag_207\n      jumpi\n      mload(0x40)\n      0x08c379a000000000000000000000000000000000000000000000000000000000\n      dup2\n      mstore\n      0x04\n      add\n      tag_208\n      swap1\n      tag_209\n      jump\t// in\n    tag_208:\n      mload(0x40)\n      dup1\n      swap2\n      sub\n      swap1\n      revert\n    tag_207:\n        /* \"contracts/Lock.sol\":7426:7904  if (... */\n    tag_199:\n        /* \"contracts/Lock.sol\":7946:7971  File storage fileToUpdate */\n      0x00\n        /* \"contracts/Lock.sol\":7974:7987  currentFolder */\n      dup2\n        /* \"contracts/Lock.sol\":7974:7993  currentFolder.files */\n      0x04\n      add\n        /* \"contracts/Lock.sol\":7994:8002  fileName */\n      dup8\n        /* \"contracts/Lock.sol\":7974:8003  currentFolder.files[fileName] */\n      mload(0x40)\n      tag_210\n      swap2\n      swap1\n      tag_94\n      jump\t// in\n    tag_210:\n      swap1\n      dup2\n      mstore\n      0x20\n      add\n      mload(0x40)\n      dup1\n      swap2\n      sub\n      swap1\n      keccak256\n        /* \"contracts/Lock.sol\":7946:8003  File storage fileToUpdate = currentFolder.files[fileName] */\n      swap1\n      pop\n        /* \"contracts/Lock.sol\":8032:8038  newCid */\n      dup6\n        /* \"contracts/Lock.sol\":8013:8025  fileToUpdate */\n      dup2\n        /* \"contracts/Lock.sol\":8013:8029  fileToUpdate.cid */\n      0x01\n      add\n        /* \"contracts/Lock.sol\":8013:8038  fileToUpdate.cid = newCid */\n      swap1\n      dup2\n      tag_211\n      swap2\n      swap1\n      tag_182\n      jump\t// in\n    tag_211:\n      pop\n        /* \"contracts/Lock.sol\":8068:8075  newSize */\n      dup5\n        /* \"contracts/Lock.sol\":8048:8060  fileToUpdate */\n      dup2\n        /* \"contracts/Lock.sol\":8048:8065  fileToUpdate.size */\n      0x02\n      add\n        /* \"contracts/Lock.sol\":8048:8075  fileToUpdate.size = newSize */\n      dup2\n      swap1\n      sstore\n      pop\n        /* \"contracts/Lock.sol\":8109:8120  newFileType */\n      dup3\n        /* \"contracts/Lock.sol\":8085:8097  fileToUpdate */\n      dup2\n        /* \"contracts/Lock.sol\":8085:8106  fileToUpdate.fileType */\n      0x03\n      add\n        /* \"contracts/Lock.sol\":8085:8120  fileToUpdate.fileType = newFileType */\n      swap1\n      dup2\n      tag_212\n      swap2\n      swap1\n      tag_182\n      jump\t// in\n    tag_212:\n      pop\n        /* \"contracts/Lock.sol\":8235:8236  0 */\n      0x00\n        /* \"contracts/Lock.sol\":8212:8223  newFileName */\n      dup5\n        /* \"contracts/Lock.sol\":8206:8231  bytes(newFileName).length */\n      mload\n        /* \"contracts/Lock.sol\":8206:8236  bytes(newFileName).length != 0 */\n      eq\n      iszero\n        /* \"contracts/Lock.sol\":8206:8311  bytes(newFileName).length != 0 &&... */\n      dup1\n      iszero\n      tag_213\n      jumpi\n      pop\n        /* \"contracts/Lock.sol\":8301:8309  fileName */\n      dup7\n        /* \"contracts/Lock.sol\":8285:8311  keccak256(bytes(fileName)) */\n      dup1\n      mload\n      swap1\n      0x20\n      add\n      keccak256\n        /* \"contracts/Lock.sol\":8268:8279  newFileName */\n      dup5\n        /* \"contracts/Lock.sol\":8252:8281  keccak256(bytes(newFileName)) */\n      dup1\n      mload\n      swap1\n      0x20\n      add\n      keccak256\n        /* \"contracts/Lock.sol\":8252:8311  keccak256(bytes(newFileName)) != keccak256(bytes(fileName)) */\n      eq\n      iszero\n        /* \"contracts/Lock.sol\":8206:8311  bytes(newFileName).length != 0 &&... */\n    tag_213:\n        /* \"contracts/Lock.sol\":8189:8901  if (... */\n      iszero\n      tag_214\n      jumpi\n        /* \"contracts/Lock.sol\":8406:8415  uint256 i */\n      0x00\n        /* \"contracts/Lock.sol\":8401:8740  for (uint256 i = 0; i < currentFolder.fileNames.length; i++) {... */\n    tag_215:\n        /* \"contracts/Lock.sol\":8425:8438  currentFolder */\n      dup3\n        /* \"contracts/Lock.sol\":8425:8448  currentFolder.fileNames */\n      0x03\n      add\n        /* \"contracts/Lock.sol\":8425:8455  currentFolder.fileNames.length */\n      dup1\n      sload\n      swap1\n      pop\n        /* \"contracts/Lock.sol\":8421:8422  i */\n      dup2\n        /* \"contracts/Lock.sol\":8421:8455  i < currentFolder.fileNames.length */\n      lt\n        /* \"contracts/Lock.sol\":8401:8740  for (uint256 i = 0; i < currentFolder.fileNames.length; i++) {... */\n      iszero\n      tag_216\n      jumpi\n        /* \"contracts/Lock.sol\":8589:8597  fileName */\n      dup8\n        /* \"contracts/Lock.sol\":8573:8599  keccak256(bytes(fileName)) */\n      dup1\n      mload\n      swap1\n      0x20\n      add\n      keccak256\n        /* \"contracts/Lock.sol\":8521:8534  currentFolder */\n      dup4\n        /* \"contracts/Lock.sol\":8521:8544  currentFolder.fileNames */\n      0x03\n      add\n        /* \"contracts/Lock.sol\":8545:8546  i */\n      dup3\n        /* \"contracts/Lock.sol\":8521:8547  currentFolder.fileNames[i] */\n      dup2\n      sload\n      dup2\n      lt\n      tag_218\n      jumpi\n      tag_219\n      tag_62\n      jump\t// in\n    tag_219:\n    tag_218:\n      swap1\n      0x00\n      mstore\n      keccak256(0x00, 0x20)\n      add\n        /* \"contracts/Lock.sol\":8505:8549  keccak256(bytes(currentFolder.fileNames[i])) */\n      mload(0x40)\n      tag_221\n      swap2\n      swap1\n      tag_141\n      jump\t// in\n    tag_221:\n      mload(0x40)\n      dup1\n      swap2\n      sub\n      swap1\n      keccak256\n        /* \"contracts/Lock.sol\":8505:8599  keccak256(bytes(currentFolder.fileNames[i])) ==... */\n      sub\n        /* \"contracts/Lock.sol\":8480:8726  if (... */\n      tag_222\n      jumpi\n        /* \"contracts/Lock.sol\":8669:8680  newFileName */\n      dup5\n        /* \"contracts/Lock.sol\":8640:8653  currentFolder */\n      dup4\n        /* \"contracts/Lock.sol\":8640:8663  currentFolder.fileNames */\n      0x03\n      add\n        /* \"contracts/Lock.sol\":8664:8665  i */\n      dup3\n        /* \"contracts/Lock.sol\":8640:8666  currentFolder.fileNames[i] */\n      dup2\n      sload\n      dup2\n      lt\n      tag_223\n      jumpi\n      tag_224\n      tag_62\n      jump\t// in\n    tag_224:\n    tag_223:\n      swap1\n      0x00\n      mstore\n      keccak256(0x00, 0x20)\n      add\n        /* \"contracts/Lock.sol\":8640:8680  currentFolder.fileNames[i] = newFileName */\n      swap1\n      dup2\n      tag_226\n      swap2\n      swap1\n      tag_182\n      jump\t// in\n    tag_226:\n      pop\n        /* \"contracts/Lock.sol\":8702:8707  break */\n      jump(tag_216)\n        /* \"contracts/Lock.sol\":8480:8726  if (... */\n    tag_222:\n        /* \"contracts/Lock.sol\":8457:8460  i++ */\n      dup1\n      dup1\n      0x01\n      add\n      swap2\n      pop\n      pop\n        /* \"contracts/Lock.sol\":8401:8740  for (uint256 i = 0; i < currentFolder.fileNames.length; i++) {... */\n      jump(tag_215)\n    tag_216:\n      pop\n        /* \"contracts/Lock.sol\":8828:8840  fileToUpdate */\n      dup1\n        /* \"contracts/Lock.sol\":8793:8806  currentFolder */\n      dup3\n        /* \"contracts/Lock.sol\":8793:8812  currentFolder.files */\n      0x04\n      add\n        /* \"contracts/Lock.sol\":8813:8824  newFileName */\n      dup6\n        /* \"contracts/Lock.sol\":8793:8825  currentFolder.files[newFileName] */\n      mload(0x40)\n      tag_227\n      swap2\n      swap1\n      tag_94\n      jump\t// in\n    tag_227:\n      swap1\n      dup2\n      mstore\n      0x20\n      add\n      mload(0x40)\n      dup1\n      swap2\n      sub\n      swap1\n      keccak256\n        /* \"contracts/Lock.sol\":8793:8840  currentFolder.files[newFileName] = fileToUpdate */\n      0x00\n      dup3\n      add\n      dup2\n      0x00\n      add\n      swap1\n      dup2\n      tag_228\n      swap2\n      swap1\n      tag_229\n      jump\t// in\n    tag_228:\n      pop\n      0x01\n      dup3\n      add\n      dup2\n      0x01\n      add\n      swap1\n      dup2\n      tag_230\n      swap2\n      swap1\n      tag_229\n      jump\t// in\n    tag_230:\n      pop\n      0x02\n      dup3\n      add\n      sload\n      dup2\n      0x02\n      add\n      sstore\n      0x03\n      dup3\n      add\n      dup2\n      0x03\n      add\n      swap1\n      dup2\n      tag_231\n      swap2\n      swap1\n      tag_229\n      jump\t// in\n    tag_231:\n      pop\n      0x04\n      dup3\n      add\n      0x00\n      swap1\n      sload\n      swap1\n      0x0100\n      exp\n      swap1\n      div\n      0xffffffffffffffffffffffffffffffffffffffff\n      and\n      dup2\n      0x04\n      add\n      exp(0x0100, 0x00)\n      dup2\n      sload\n      dup2\n      0xffffffffffffffffffffffffffffffffffffffff\n      mul\n      not\n      and\n      swap1\n      dup4\n      0xffffffffffffffffffffffffffffffffffffffff\n      and\n      mul\n      or\n      swap1\n      sstore\n      pop\n      0x05\n      dup3\n      add\n      sload\n      dup2\n      0x05\n      add\n      sstore\n      swap1\n      pop\n      pop\n        /* \"contracts/Lock.sol\":8861:8874  currentFolder */\n      dup2\n        /* \"contracts/Lock.sol\":8861:8880  currentFolder.files */\n      0x04\n      add\n        /* \"contracts/Lock.sol\":8881:8889  fileName */\n      dup8\n        /* \"contracts/Lock.sol\":8861:8890  currentFolder.files[fileName] */\n      mload(0x40)\n      tag_232\n      swap2\n      swap1\n      tag_94\n      jump\t// in\n    tag_232:\n      swap1\n      dup2\n      mstore\n      0x20\n      add\n      mload(0x40)\n      dup1\n      swap2\n      sub\n      swap1\n      keccak256\n      0x00\n        /* \"contracts/Lock.sol\":8854:8890  delete currentFolder.files[fileName] */\n      dup1\n      dup3\n      add\n      0x00\n      tag_233\n      swap2\n      swap1\n      tag_118\n      jump\t// in\n    tag_233:\n      0x01\n      dup3\n      add\n      0x00\n      tag_234\n      swap2\n      swap1\n      tag_118\n      jump\t// in\n    tag_234:\n      0x02\n      dup3\n      add\n      0x00\n      swap1\n      sstore\n      0x03\n      dup3\n      add\n      0x00\n      tag_235\n      swap2\n      swap1\n      tag_118\n      jump\t// in\n    tag_235:\n      0x04\n      dup3\n      add\n      exp(0x0100, 0x00)\n      dup2\n      sload\n      swap1\n      0xffffffffffffffffffffffffffffffffffffffff\n      mul\n      not\n      and\n      swap1\n      sstore\n      0x05\n      dup3\n      add\n      0x00\n      swap1\n      sstore\n      pop\n      pop\n        /* \"contracts/Lock.sol\":8189:8901  if (... */\n    tag_214:\n        /* \"contracts/Lock.sol\":6915:8907  {... */\n      pop\n      pop\n        /* \"contracts/Lock.sol\":6695:8907  function updateFile(... */\n      pop\n      pop\n      pop\n      pop\n      pop\n      pop\n      jump\t// out\n        /* \"contracts/Lock.sol\":10250:11174  function shareFileWithUser(... */\n    tag_44:\n        /* \"contracts/Lock.sol\":10389:10420  _initializeUserRoot(msg.sender) */\n      tag_237\n        /* \"contracts/Lock.sol\":10409:10419  msg.sender */\n      caller\n        /* \"contracts/Lock.sol\":10389:10408  _initializeUserRoot */\n      tag_106\n        /* \"contracts/Lock.sol\":10389:10420  _initializeUserRoot(msg.sender) */\n      jump\t// in\n    tag_237:\n        /* \"contracts/Lock.sol\":10430:10458  Folder storage currentFolder */\n      0x00\n        /* \"contracts/Lock.sol\":10461:10469  userRoot */\n      dup1\n        /* \"contracts/Lock.sol\":10461:10481  userRoot[msg.sender] */\n      0x00\n        /* \"contracts/Lock.sol\":10470:10480  msg.sender */\n      caller\n        /* \"contracts/Lock.sol\":10461:10481  userRoot[msg.sender] */\n      0xffffffffffffffffffffffffffffffffffffffff\n      and\n      0xffffffffffffffffffffffffffffffffffffffff\n      and\n      dup2\n      mstore\n      0x20\n      add\n      swap1\n      dup2\n      mstore\n      0x20\n      add\n      0x00\n      keccak256\n        /* \"contracts/Lock.sol\":10430:10481  Folder storage currentFolder = userRoot[msg.sender] */\n      swap1\n      pop\n        /* \"contracts/Lock.sol\":10553:10562  uint256 i */\n      0x00\n        /* \"contracts/Lock.sol\":10548:10661  for (uint256 i = 0; i < path.length; i++) {... */\n    tag_238:\n        /* \"contracts/Lock.sol\":10572:10576  path */\n      dup5\n        /* \"contracts/Lock.sol\":10572:10583  path.length */\n      mload\n        /* \"contracts/Lock.sol\":10568:10569  i */\n      dup2\n        /* \"contracts/Lock.sol\":10568:10583  i < path.length */\n      lt\n        /* \"contracts/Lock.sol\":10548:10661  for (uint256 i = 0; i < path.length; i++) {... */\n      iszero\n      tag_239\n      jumpi\n        /* \"contracts/Lock.sol\":10620:10633  currentFolder */\n      dup2\n        /* \"contracts/Lock.sol\":10620:10641  currentFolder.folders */\n      0x05\n      add\n        /* \"contracts/Lock.sol\":10642:10646  path */\n      dup6\n        /* \"contracts/Lock.sol\":10647:10648  i */\n      dup3\n        /* \"contracts/Lock.sol\":10642:10649  path[i] */\n      dup2\n      mload\n      dup2\n      lt\n      tag_241\n      jumpi\n      tag_242\n      tag_62\n      jump\t// in\n    tag_242:\n    tag_241:\n      0x20\n      mul\n      0x20\n      add\n      add\n      mload\n        /* \"contracts/Lock.sol\":10620:10650  currentFolder.folders[path[i]] */\n      mload(0x40)\n      tag_243\n      swap2\n      swap1\n      tag_94\n      jump\t// in\n    tag_243:\n      swap1\n      dup2\n      mstore\n      0x20\n      add\n      mload(0x40)\n      dup1\n      swap2\n      sub\n      swap1\n      keccak256\n        /* \"contracts/Lock.sol\":10604:10650  currentFolder = currentFolder.folders[path[i]] */\n      swap2\n      pop\n        /* \"contracts/Lock.sol\":10585:10588  i++ */\n      dup1\n      dup1\n      0x01\n      add\n      swap2\n      pop\n      pop\n        /* \"contracts/Lock.sol\":10548:10661  for (uint256 i = 0; i < path.length; i++) {... */\n      jump(tag_238)\n    tag_239:\n      pop\n        /* \"contracts/Lock.sol\":10780:10781  0 */\n      0x00\n        /* \"contracts/Lock.sol\":10734:10747  currentFolder */\n      dup2\n        /* \"contracts/Lock.sol\":10734:10753  currentFolder.files */\n      0x04\n      add\n        /* \"contracts/Lock.sol\":10754:10762  fileName */\n      dup5\n        /* \"contracts/Lock.sol\":10734:10763  currentFolder.files[fileName] */\n      mload(0x40)\n      tag_244\n      swap2\n      swap1\n      tag_94\n      jump\t// in\n    tag_244:\n      swap1\n      dup2\n      mstore\n      0x20\n      add\n      mload(0x40)\n      dup1\n      swap2\n      sub\n      swap1\n      keccak256\n        /* \"contracts/Lock.sol\":10734:10768  currentFolder.files[fileName].name */\n      0x00\n      add\n        /* \"contracts/Lock.sol\":10728:10776  bytes(currentFolder.files[fileName].name).length */\n      dup1\n      sload\n      tag_245\n      swap1\n      tag_65\n      jump\t// in\n    tag_245:\n      swap1\n      pop\n        /* \"contracts/Lock.sol\":10728:10781  bytes(currentFolder.files[fileName].name).length != 0 */\n      sub\n        /* \"contracts/Lock.sol\":10707:10826  require(... */\n      tag_246\n      jumpi\n      mload(0x40)\n      0x08c379a000000000000000000000000000000000000000000000000000000000\n      dup2\n      mstore\n      0x04\n      add\n      tag_247\n      swap1\n      tag_197\n      jump\t// in\n    tag_247:\n      mload(0x40)\n      dup1\n      swap2\n      sub\n      swap1\n      revert\n    tag_246:\n        /* \"contracts/Lock.sol\":10874:10898  File storage fileToShare */\n      0x00\n        /* \"contracts/Lock.sol\":10901:10914  currentFolder */\n      dup2\n        /* \"contracts/Lock.sol\":10901:10920  currentFolder.files */\n      0x04\n      add\n        /* \"contracts/Lock.sol\":10921:10929  fileName */\n      dup5\n        /* \"contracts/Lock.sol\":10901:10930  currentFolder.files[fileName] */\n      mload(0x40)\n      tag_248\n      swap2\n      swap1\n      tag_94\n      jump\t// in\n    tag_248:\n      swap1\n      dup2\n      mstore\n      0x20\n      add\n      mload(0x40)\n      dup1\n      swap2\n      sub\n      swap1\n      keccak256\n        /* \"contracts/Lock.sol\":10874:10930  File storage fileToShare = currentFolder.files[fileName] */\n      swap1\n      pop\n        /* \"contracts/Lock.sol\":11014:11044  _initializeUserRoot(recipient) */\n      tag_249\n        /* \"contracts/Lock.sol\":11034:11043  recipient */\n      dup4\n        /* \"contracts/Lock.sol\":11014:11033  _initializeUserRoot */\n      tag_106\n        /* \"contracts/Lock.sol\":11014:11044  _initializeUserRoot(recipient) */\n      jump\t// in\n    tag_249:\n        /* \"contracts/Lock.sol\":11117:11125  userRoot */\n      0x00\n        /* \"contracts/Lock.sol\":11117:11136  userRoot[recipient] */\n      dup1\n        /* \"contracts/Lock.sol\":11126:11135  recipient */\n      dup5\n        /* \"contracts/Lock.sol\":11117:11136  userRoot[recipient] */\n      0xffffffffffffffffffffffffffffffffffffffff\n      and\n      0xffffffffffffffffffffffffffffffffffffffff\n      and\n      dup2\n      mstore\n      0x20\n      add\n      swap1\n      dup2\n      mstore\n      0x20\n      add\n      0x00\n      keccak256\n        /* \"contracts/Lock.sol\":11117:11149  userRoot[recipient].sharedWithMe */\n      0x06\n      add\n        /* \"contracts/Lock.sol\":11155:11166  fileToShare */\n      dup2\n        /* \"contracts/Lock.sol\":11117:11167  userRoot[recipient].sharedWithMe.push(fileToShare) */\n      swap1\n      dup1\n      0x01\n      dup2\n      sload\n      add\n      dup1\n      dup3\n      sstore\n      dup1\n      swap2\n      pop\n      pop\n      0x01\n      swap1\n      sub\n      swap1\n      0x00\n      mstore\n      keccak256(0x00, 0x20)\n      swap1\n      0x06\n      mul\n      add\n      0x00\n      swap1\n      swap2\n      swap1\n      swap2\n      swap1\n      swap2\n      pop\n      0x00\n      dup3\n      add\n      dup2\n      0x00\n      add\n      swap1\n      dup2\n      tag_251\n      swap2\n      swap1\n      tag_229\n      jump\t// in\n    tag_251:\n      pop\n      0x01\n      dup3\n      add\n      dup2\n      0x01\n      add\n      swap1\n      dup2\n      tag_252\n      swap2\n      swap1\n      tag_229\n      jump\t// in\n    tag_252:\n      pop\n      0x02\n      dup3\n      add\n      sload\n      dup2\n      0x02\n      add\n      sstore\n      0x03\n      dup3\n      add\n      dup2\n      0x03\n      add\n      swap1\n      dup2\n      tag_253\n      swap2\n      swap1\n      tag_229\n      jump\t// in\n    tag_253:\n      pop\n      0x04\n      dup3\n      add\n      0x00\n      swap1\n      sload\n      swap1\n      0x0100\n      exp\n      swap1\n      div\n      0xffffffffffffffffffffffffffffffffffffffff\n      and\n      dup2\n      0x04\n      add\n      exp(0x0100, 0x00)\n      dup2\n      sload\n      dup2\n      0xffffffffffffffffffffffffffffffffffffffff\n      mul\n      not\n      and\n      swap1\n      dup4\n      0xffffffffffffffffffffffffffffffffffffffff\n      and\n      mul\n      or\n      swap1\n      sstore\n      pop\n      0x05\n      dup3\n      add\n      sload\n      dup2\n      0x05\n      add\n      sstore\n      pop\n      pop\n        /* \"contracts/Lock.sol\":10379:11174  {... */\n      pop\n      pop\n        /* \"contracts/Lock.sol\":10250:11174  function shareFileWithUser(... */\n      pop\n      pop\n      pop\n      jump\t// out\n        /* \"contracts/Lock.sol\":2669:3839  function uploadFile(... */\n    tag_48:\n        /* \"contracts/Lock.sol\":2855:2886  _initializeUserRoot(msg.sender) */\n      tag_255\n        /* \"contracts/Lock.sol\":2875:2885  msg.sender */\n      caller\n        /* \"contracts/Lock.sol\":2855:2874  _initializeUserRoot */\n      tag_106\n        /* \"contracts/Lock.sol\":2855:2886  _initializeUserRoot(msg.sender) */\n      jump\t// in\n    tag_255:\n        /* \"contracts/Lock.sol\":2896:2924  Folder storage currentFolder */\n      0x00\n        /* \"contracts/Lock.sol\":2927:2935  userRoot */\n      dup1\n        /* \"contracts/Lock.sol\":2927:2947  userRoot[msg.sender] */\n      0x00\n        /* \"contracts/Lock.sol\":2936:2946  msg.sender */\n      caller\n        /* \"contracts/Lock.sol\":2927:2947  userRoot[msg.sender] */\n      0xffffffffffffffffffffffffffffffffffffffff\n      and\n      0xffffffffffffffffffffffffffffffffffffffff\n      and\n      dup2\n      mstore\n      0x20\n      add\n      swap1\n      dup2\n      mstore\n      0x20\n      add\n      0x00\n      keccak256\n        /* \"contracts/Lock.sol\":2896:2947  Folder storage currentFolder = userRoot[msg.sender] */\n      swap1\n      pop\n        /* \"contracts/Lock.sol\":3019:3028  uint256 i */\n      0x00\n        /* \"contracts/Lock.sol\":3014:3127  for (uint256 i = 0; i < path.length; i++) {... */\n    tag_256:\n        /* \"contracts/Lock.sol\":3038:3042  path */\n      dup7\n        /* \"contracts/Lock.sol\":3038:3049  path.length */\n      mload\n        /* \"contracts/Lock.sol\":3034:3035  i */\n      dup2\n        /* \"contracts/Lock.sol\":3034:3049  i < path.length */\n      lt\n        /* \"contracts/Lock.sol\":3014:3127  for (uint256 i = 0; i < path.length; i++) {... */\n      iszero\n      tag_257\n      jumpi\n        /* \"contracts/Lock.sol\":3086:3099  currentFolder */\n      dup2\n        /* \"contracts/Lock.sol\":3086:3107  currentFolder.folders */\n      0x05\n      add\n        /* \"contracts/Lock.sol\":3108:3112  path */\n      dup8\n        /* \"contracts/Lock.sol\":3113:3114  i */\n      dup3\n        /* \"contracts/Lock.sol\":3108:3115  path[i] */\n      dup2\n      mload\n      dup2\n      lt\n      tag_259\n      jumpi\n      tag_260\n      tag_62\n      jump\t// in\n    tag_260:\n    tag_259:\n      0x20\n      mul\n      0x20\n      add\n      add\n      mload\n        /* \"contracts/Lock.sol\":3086:3116  currentFolder.folders[path[i]] */\n      mload(0x40)\n      tag_261\n      swap2\n      swap1\n      tag_94\n      jump\t// in\n    tag_261:\n      swap1\n      dup2\n      mstore\n      0x20\n      add\n      mload(0x40)\n      dup1\n      swap2\n      sub\n      swap1\n      keccak256\n        /* \"contracts/Lock.sol\":3070:3116  currentFolder = currentFolder.folders[path[i]] */\n      swap2\n      pop\n        /* \"contracts/Lock.sol\":3051:3054  i++ */\n      dup1\n      dup1\n      0x01\n      add\n      swap2\n      pop\n      pop\n        /* \"contracts/Lock.sol\":3014:3127  for (uint256 i = 0; i < path.length; i++) {... */\n      jump(tag_256)\n    tag_257:\n      pop\n        /* \"contracts/Lock.sol\":3283:3284  0 */\n      0x00\n        /* \"contracts/Lock.sol\":3237:3250  currentFolder */\n      dup2\n        /* \"contracts/Lock.sol\":3237:3256  currentFolder.files */\n      0x04\n      add\n        /* \"contracts/Lock.sol\":3257:3265  fileName */\n      dup7\n        /* \"contracts/Lock.sol\":3237:3266  currentFolder.files[fileName] */\n      mload(0x40)\n      tag_262\n      swap2\n      swap1\n      tag_94\n      jump\t// in\n    tag_262:\n      swap1\n      dup2\n      mstore\n      0x20\n      add\n      mload(0x40)\n      dup1\n      swap2\n      sub\n      swap1\n      keccak256\n        /* \"contracts/Lock.sol\":3237:3271  currentFolder.files[fileName].name */\n      0x00\n      add\n        /* \"contracts/Lock.sol\":3231:3279  bytes(currentFolder.files[fileName].name).length */\n      dup1\n      sload\n      tag_263\n      swap1\n      tag_65\n      jump\t// in\n    tag_263:\n      swap1\n      pop\n        /* \"contracts/Lock.sol\":3231:3284  bytes(currentFolder.files[fileName].name).length == 0 */\n      eq\n        /* \"contracts/Lock.sol\":3210:3329  require(... */\n      tag_264\n      jumpi\n      mload(0x40)\n      0x08c379a000000000000000000000000000000000000000000000000000000000\n      dup2\n      mstore\n      0x04\n      add\n      tag_265\n      swap1\n      tag_266\n      jump\t// in\n    tag_265:\n      mload(0x40)\n      dup1\n      swap2\n      sub\n      swap1\n      revert\n    tag_264:\n        /* \"contracts/Lock.sol\":3414:3415  0 */\n      0x00\n        /* \"contracts/Lock.sol\":3366:3379  currentFolder */\n      dup2\n        /* \"contracts/Lock.sol\":3366:3387  currentFolder.folders */\n      0x05\n      add\n        /* \"contracts/Lock.sol\":3388:3396  fileName */\n      dup7\n        /* \"contracts/Lock.sol\":3366:3397  currentFolder.folders[fileName] */\n      mload(0x40)\n      tag_267\n      swap2\n      swap1\n      tag_94\n      jump\t// in\n    tag_267:\n      swap1\n      dup2\n      mstore\n      0x20\n      add\n      mload(0x40)\n      dup1\n      swap2\n      sub\n      swap1\n      keccak256\n        /* \"contracts/Lock.sol\":3366:3402  currentFolder.folders[fileName].name */\n      0x00\n      add\n        /* \"contracts/Lock.sol\":3360:3410  bytes(currentFolder.folders[fileName].name).length */\n      dup1\n      sload\n      tag_268\n      swap1\n      tag_65\n      jump\t// in\n    tag_268:\n      swap1\n      pop\n        /* \"contracts/Lock.sol\":3360:3415  bytes(currentFolder.folders[fileName].name).length == 0 */\n      eq\n        /* \"contracts/Lock.sol\":3339:3483  require(... */\n      tag_269\n      jumpi\n      mload(0x40)\n      0x08c379a000000000000000000000000000000000000000000000000000000000\n      dup2\n      mstore\n      0x04\n      add\n      tag_270\n      swap1\n      tag_271\n      jump\t// in\n    tag_270:\n      mload(0x40)\n      dup1\n      swap2\n      sub\n      swap1\n      revert\n    tag_269:\n        /* \"contracts/Lock.sol\":3525:3545  File storage newFile */\n      0x00\n        /* \"contracts/Lock.sol\":3548:3561  currentFolder */\n      dup2\n        /* \"contracts/Lock.sol\":3548:3567  currentFolder.files */\n      0x04\n      add\n        /* \"contracts/Lock.sol\":3568:3576  fileName */\n      dup7\n        /* \"contracts/Lock.sol\":3548:3577  currentFolder.files[fileName] */\n      mload(0x40)\n      tag_272\n      swap2\n      swap1\n      tag_94\n      jump\t// in\n    tag_272:\n      swap1\n      dup2\n      mstore\n      0x20\n      add\n      mload(0x40)\n      dup1\n      swap2\n      sub\n      swap1\n      keccak256\n        /* \"contracts/Lock.sol\":3525:3577  File storage newFile = currentFolder.files[fileName] */\n      swap1\n      pop\n        /* \"contracts/Lock.sol\":3602:3610  fileName */\n      dup6\n        /* \"contracts/Lock.sol\":3587:3594  newFile */\n      dup2\n        /* \"contracts/Lock.sol\":3587:3599  newFile.name */\n      0x00\n      add\n        /* \"contracts/Lock.sol\":3587:3610  newFile.name = fileName */\n      swap1\n      dup2\n      tag_273\n      swap2\n      swap1\n      tag_182\n      jump\t// in\n    tag_273:\n      pop\n        /* \"contracts/Lock.sol\":3634:3637  cid */\n      dup5\n        /* \"contracts/Lock.sol\":3620:3627  newFile */\n      dup2\n        /* \"contracts/Lock.sol\":3620:3631  newFile.cid */\n      0x01\n      add\n        /* \"contracts/Lock.sol\":3620:3637  newFile.cid = cid */\n      swap1\n      dup2\n      tag_274\n      swap2\n      swap1\n      tag_182\n      jump\t// in\n    tag_274:\n      pop\n        /* \"contracts/Lock.sol\":3662:3666  size */\n      dup4\n        /* \"contracts/Lock.sol\":3647:3654  newFile */\n      dup2\n        /* \"contracts/Lock.sol\":3647:3659  newFile.size */\n      0x02\n      add\n        /* \"contracts/Lock.sol\":3647:3666  newFile.size = size */\n      dup2\n      swap1\n      sstore\n      pop\n        /* \"contracts/Lock.sol\":3695:3703  fileType */\n      dup3\n        /* \"contracts/Lock.sol\":3676:3683  newFile */\n      dup2\n        /* \"contracts/Lock.sol\":3676:3692  newFile.fileType */\n      0x03\n      add\n        /* \"contracts/Lock.sol\":3676:3703  newFile.fileType = fileType */\n      swap1\n      dup2\n      tag_275\n      swap2\n      swap1\n      tag_182\n      jump\t// in\n    tag_275:\n      pop\n        /* \"contracts/Lock.sol\":3729:3739  msg.sender */\n      caller\n        /* \"contracts/Lock.sol\":3713:3720  newFile */\n      dup2\n        /* \"contracts/Lock.sol\":3713:3726  newFile.owner */\n      0x04\n      add\n      0x00\n        /* \"contracts/Lock.sol\":3713:3739  newFile.owner = msg.sender */\n      0x0100\n      exp\n      dup2\n      sload\n      dup2\n      0xffffffffffffffffffffffffffffffffffffffff\n      mul\n      not\n      and\n      swap1\n      dup4\n      0xffffffffffffffffffffffffffffffffffffffff\n      and\n      mul\n      or\n      swap1\n      sstore\n      pop\n        /* \"contracts/Lock.sol\":3769:3784  block.timestamp */\n      timestamp\n        /* \"contracts/Lock.sol\":3749:3756  newFile */\n      dup2\n        /* \"contracts/Lock.sol\":3749:3766  newFile.createdAt */\n      0x05\n      add\n        /* \"contracts/Lock.sol\":3749:3784  newFile.createdAt = block.timestamp */\n      dup2\n      swap1\n      sstore\n      pop\n        /* \"contracts/Lock.sol\":3794:3807  currentFolder */\n      dup2\n        /* \"contracts/Lock.sol\":3794:3817  currentFolder.fileNames */\n      0x03\n      add\n        /* \"contracts/Lock.sol\":3823:3831  fileName */\n      dup7\n        /* \"contracts/Lock.sol\":3794:3832  currentFolder.fileNames.push(fileName) */\n      swap1\n      dup1\n      0x01\n      dup2\n      sload\n      add\n      dup1\n      dup3\n      sstore\n      dup1\n      swap2\n      pop\n      pop\n      0x01\n      swap1\n      sub\n      swap1\n      0x00\n      mstore\n      keccak256(0x00, 0x20)\n      add\n      0x00\n      swap1\n      swap2\n      swap1\n      swap2\n      swap1\n      swap2\n      pop\n      swap1\n      dup2\n      tag_277\n      swap2\n      swap1\n      tag_182\n      jump\t// in\n    tag_277:\n      pop\n        /* \"contracts/Lock.sol\":2845:3839  {... */\n      pop\n      pop\n        /* \"contracts/Lock.sol\":2669:3839  function uploadFile(... */\n      pop\n      pop\n      pop\n      pop\n      pop\n      jump\t// out\n        /* \"contracts/Lock.sol\":4738:6689  function _getFolderInfo(... */\n    tag_103:\n        /* \"contracts/Lock.sol\":4822:4839  FolderInfo memory */\n      tag_278\n      tag_86\n      jump\t// in\n    tag_278:\n        /* \"contracts/Lock.sol\":4851:4868  uint256 fileCount */\n      0x00\n        /* \"contracts/Lock.sol\":4882:4901  uint256 folderCount */\n      dup1\n        /* \"contracts/Lock.sol\":4956:4965  uint256 i */\n      0x00\n        /* \"contracts/Lock.sol\":4951:5235  for (uint256 i = 0; i < folder.fileNames.length; i++) {... */\n    tag_280:\n        /* \"contracts/Lock.sol\":4975:4981  folder */\n      dup5\n        /* \"contracts/Lock.sol\":4975:4991  folder.fileNames */\n      0x03\n      add\n        /* \"contracts/Lock.sol\":4975:4998  folder.fileNames.length */\n      dup1\n      sload\n      swap1\n      pop\n        /* \"contracts/Lock.sol\":4971:4972  i */\n      dup2\n        /* \"contracts/Lock.sol\":4971:4998  i < folder.fileNames.length */\n      lt\n        /* \"contracts/Lock.sol\":4951:5235  for (uint256 i = 0; i < folder.fileNames.length; i++) {... */\n      iszero\n      tag_281\n      jumpi\n        /* \"contracts/Lock.sol\":5019:5041  string memory fileName */\n      0x00\n        /* \"contracts/Lock.sol\":5044:5050  folder */\n      dup6\n        /* \"contracts/Lock.sol\":5044:5060  folder.fileNames */\n      0x03\n      add\n        /* \"contracts/Lock.sol\":5061:5062  i */\n      dup3\n        /* \"contracts/Lock.sol\":5044:5063  folder.fileNames[i] */\n      dup2\n      sload\n      dup2\n      lt\n      tag_283\n      jumpi\n      tag_284\n      tag_62\n      jump\t// in\n    tag_284:\n    tag_283:\n      swap1\n      0x00\n      mstore\n      keccak256(0x00, 0x20)\n      add\n        /* \"contracts/Lock.sol\":5019:5063  string memory fileName = folder.fileNames[i] */\n      dup1\n      sload\n      tag_286\n      swap1\n      tag_65\n      jump\t// in\n    tag_286:\n      dup1\n      0x1f\n      add\n      0x20\n      dup1\n      swap2\n      div\n      mul\n      0x20\n      add\n      mload(0x40)\n      swap1\n      dup2\n      add\n      0x40\n      mstore\n      dup1\n      swap3\n      swap2\n      swap1\n      dup2\n      dup2\n      mstore\n      0x20\n      add\n      dup3\n      dup1\n      sload\n      tag_287\n      swap1\n      tag_65\n      jump\t// in\n    tag_287:\n      dup1\n      iszero\n      tag_288\n      jumpi\n      dup1\n      0x1f\n      lt\n      tag_289\n      jumpi\n      0x0100\n      dup1\n      dup4\n      sload\n      div\n      mul\n      dup4\n      mstore\n      swap2\n      0x20\n      add\n      swap2\n      jump(tag_288)\n    tag_289:\n      dup3\n      add\n      swap2\n      swap1\n      0x00\n      mstore\n      keccak256(0x00, 0x20)\n      swap1\n    tag_290:\n      dup2\n      sload\n      dup2\n      mstore\n      swap1\n      0x01\n      add\n      swap1\n      0x20\n      add\n      dup1\n      dup4\n      gt\n      tag_290\n      jumpi\n      dup3\n      swap1\n      sub\n      0x1f\n      and\n      dup3\n      add\n      swap2\n    tag_288:\n      pop\n      pop\n      pop\n      pop\n      pop\n      swap1\n      pop\n        /* \"contracts/Lock.sol\":5126:5127  0 */\n      0x00\n        /* \"contracts/Lock.sol\":5087:5093  folder */\n      dup7\n        /* \"contracts/Lock.sol\":5087:5099  folder.files */\n      0x04\n      add\n        /* \"contracts/Lock.sol\":5100:5108  fileName */\n      dup3\n        /* \"contracts/Lock.sol\":5087:5109  folder.files[fileName] */\n      mload(0x40)\n      tag_291\n      swap2\n      swap1\n      tag_94\n      jump\t// in\n    tag_291:\n      swap1\n      dup2\n      mstore\n      0x20\n      add\n      mload(0x40)\n      dup1\n      swap2\n      sub\n      swap1\n      keccak256\n        /* \"contracts/Lock.sol\":5087:5114  folder.files[fileName].name */\n      0x00\n      add\n        /* \"contracts/Lock.sol\":5081:5122  bytes(folder.files[fileName].name).length */\n      dup1\n      sload\n      tag_292\n      swap1\n      tag_65\n      jump\t// in\n    tag_292:\n      swap1\n      pop\n        /* \"contracts/Lock.sol\":5081:5127  bytes(folder.files[fileName].name).length != 0 */\n      eq\n        /* \"contracts/Lock.sol\":5077:5225  if (bytes(folder.files[fileName].name).length != 0) {... */\n      tag_293\n      jumpi\n        /* \"contracts/Lock.sol\":5147:5158  fileCount++ */\n      dup4\n      dup1\n      tag_294\n      swap1\n      tag_295\n      jump\t// in\n    tag_294:\n      swap5\n      pop\n      pop\n        /* \"contracts/Lock.sol\":5077:5225  if (bytes(folder.files[fileName].name).length != 0) {... */\n      jump(tag_296)\n    tag_293:\n        /* \"contracts/Lock.sol\":5197:5210  folderCount++ */\n      dup3\n      dup1\n      tag_297\n      swap1\n      tag_295\n      jump\t// in\n    tag_297:\n      swap4\n      pop\n      pop\n        /* \"contracts/Lock.sol\":5077:5225  if (bytes(folder.files[fileName].name).length != 0) {... */\n    tag_296:\n        /* \"contracts/Lock.sol\":5005:5235  {... */\n      pop\n        /* \"contracts/Lock.sol\":5000:5003  i++ */\n      dup1\n      dup1\n      0x01\n      add\n      swap2\n      pop\n      pop\n        /* \"contracts/Lock.sol\":4951:5235  for (uint256 i = 0; i < folder.fileNames.length; i++) {... */\n      jump(tag_280)\n    tag_281:\n      pop\n        /* \"contracts/Lock.sol\":5245:5268  FileInfo[] memory files */\n      0x00\n        /* \"contracts/Lock.sol\":5286:5295  fileCount */\n      dup3\n        /* \"contracts/Lock.sol\":5271:5296  new FileInfo[](fileCount) */\n      0xffffffffffffffff\n      dup2\n      gt\n      iszero\n      tag_298\n      jumpi\n      tag_299\n      tag_52\n      jump\t// in\n    tag_299:\n    tag_298:\n      mload(0x40)\n      swap1\n      dup1\n      dup3\n      mstore\n      dup1\n      0x20\n      mul\n      0x20\n      add\n      dup3\n      add\n      0x40\n      mstore\n      dup1\n      iszero\n      tag_300\n      jumpi\n      dup2\n      0x20\n      add\n    tag_301:\n      tag_302\n      tag_56\n      jump\t// in\n    tag_302:\n      dup2\n      mstore\n      0x20\n      add\n      swap1\n      0x01\n      swap1\n      sub\n      swap1\n      dup2\n      tag_301\n      jumpi\n      swap1\n      pop\n    tag_300:\n      pop\n        /* \"contracts/Lock.sol\":5245:5296  FileInfo[] memory files = new FileInfo[](fileCount) */\n      swap1\n      pop\n        /* \"contracts/Lock.sol\":5306:5336  string[] memory subFolderNames */\n      0x00\n        /* \"contracts/Lock.sol\":5352:5363  folderCount */\n      dup3\n        /* \"contracts/Lock.sol\":5339:5364  new string[](folderCount) */\n      0xffffffffffffffff\n      dup2\n      gt\n      iszero\n      tag_303\n      jumpi\n      tag_304\n      tag_52\n      jump\t// in\n    tag_304:\n    tag_303:\n      mload(0x40)\n      swap1\n      dup1\n      dup3\n      mstore\n      dup1\n      0x20\n      mul\n      0x20\n      add\n      dup3\n      add\n      0x40\n      mstore\n      dup1\n      iszero\n      tag_305\n      jumpi\n      dup2\n      0x20\n      add\n    tag_306:\n      0x60\n      dup2\n      mstore\n      0x20\n      add\n      swap1\n      0x01\n      swap1\n      sub\n      swap1\n      dup2\n      tag_306\n      jumpi\n      swap1\n      pop\n    tag_305:\n      pop\n        /* \"contracts/Lock.sol\":5306:5364  string[] memory subFolderNames = new string[](folderCount) */\n      swap1\n      pop\n        /* \"contracts/Lock.sol\":5374:5403  FileInfo[] memory sharedFiles */\n      0x00\n        /* \"contracts/Lock.sol\":5434:5440  folder */\n      dup7\n        /* \"contracts/Lock.sol\":5434:5453  folder.sharedWithMe */\n      0x06\n      add\n        /* \"contracts/Lock.sol\":5434:5460  folder.sharedWithMe.length */\n      dup1\n      sload\n      swap1\n      pop\n        /* \"contracts/Lock.sol\":5406:5470  new FileInfo[](... */\n      0xffffffffffffffff\n      dup2\n      gt\n      iszero\n      tag_307\n      jumpi\n      tag_308\n      tag_52\n      jump\t// in\n    tag_308:\n    tag_307:\n      mload(0x40)\n      swap1\n      dup1\n      dup3\n      mstore\n      dup1\n      0x20\n      mul\n      0x20\n      add\n      dup3\n      add\n      0x40\n      mstore\n      dup1\n      iszero\n      tag_309\n      jumpi\n      dup2\n      0x20\n      add\n    tag_310:\n      tag_311\n      tag_56\n      jump\t// in\n    tag_311:\n      dup2\n      mstore\n      0x20\n      add\n      swap1\n      0x01\n      swap1\n      sub\n      swap1\n      dup2\n      tag_310\n      jumpi\n      swap1\n      pop\n    tag_309:\n      pop\n        /* \"contracts/Lock.sol\":5374:5470  FileInfo[] memory sharedFiles = new FileInfo[](... */\n      swap1\n      pop\n        /* \"contracts/Lock.sol\":5481:5498  uint256 fileIndex */\n      0x00\n        /* \"contracts/Lock.sol\":5512:5531  uint256 folderIndex */\n      dup1\n        /* \"contracts/Lock.sol\":5551:5560  uint256 i */\n      0x00\n        /* \"contracts/Lock.sol\":5546:6116  for (uint256 i = 0; i < folder.fileNames.length; i++) {... */\n    tag_312:\n        /* \"contracts/Lock.sol\":5570:5576  folder */\n      dup10\n        /* \"contracts/Lock.sol\":5570:5586  folder.fileNames */\n      0x03\n      add\n        /* \"contracts/Lock.sol\":5570:5593  folder.fileNames.length */\n      dup1\n      sload\n      swap1\n      pop\n        /* \"contracts/Lock.sol\":5566:5567  i */\n      dup2\n        /* \"contracts/Lock.sol\":5566:5593  i < folder.fileNames.length */\n      lt\n        /* \"contracts/Lock.sol\":5546:6116  for (uint256 i = 0; i < folder.fileNames.length; i++) {... */\n      iszero\n      tag_313\n      jumpi\n        /* \"contracts/Lock.sol\":5614:5636  string memory fileName */\n      0x00\n        /* \"contracts/Lock.sol\":5639:5645  folder */\n      dup11\n        /* \"contracts/Lock.sol\":5639:5655  folder.fileNames */\n      0x03\n      add\n        /* \"contracts/Lock.sol\":5656:5657  i */\n      dup3\n        /* \"contracts/Lock.sol\":5639:5658  folder.fileNames[i] */\n      dup2\n      sload\n      dup2\n      lt\n      tag_315\n      jumpi\n      tag_316\n      tag_62\n      jump\t// in\n    tag_316:\n    tag_315:\n      swap1\n      0x00\n      mstore\n      keccak256(0x00, 0x20)\n      add\n        /* \"contracts/Lock.sol\":5614:5658  string memory fileName = folder.fileNames[i] */\n      dup1\n      sload\n      tag_318\n      swap1\n      tag_65\n      jump\t// in\n    tag_318:\n      dup1\n      0x1f\n      add\n      0x20\n      dup1\n      swap2\n      div\n      mul\n      0x20\n      add\n      mload(0x40)\n      swap1\n      dup2\n      add\n      0x40\n      mstore\n      dup1\n      swap3\n      swap2\n      swap1\n      dup2\n      dup2\n      mstore\n      0x20\n      add\n      dup3\n      dup1\n      sload\n      tag_319\n      swap1\n      tag_65\n      jump\t// in\n    tag_319:\n      dup1\n      iszero\n      tag_320\n      jumpi\n      dup1\n      0x1f\n      lt\n      tag_321\n      jumpi\n      0x0100\n      dup1\n      dup4\n      sload\n      div\n      mul\n      dup4\n      mstore\n      swap2\n      0x20\n      add\n      swap2\n      jump(tag_320)\n    tag_321:\n      dup3\n      add\n      swap2\n      swap1\n      0x00\n      mstore\n      keccak256(0x00, 0x20)\n      swap1\n    tag_322:\n      dup2\n      sload\n      dup2\n      mstore\n      swap1\n      0x01\n      add\n      swap1\n      0x20\n      add\n      dup1\n      dup4\n      gt\n      tag_322\n      jumpi\n      dup3\n      swap1\n      sub\n      0x1f\n      and\n      dup3\n      add\n      swap2\n    tag_320:\n      pop\n      pop\n      pop\n      pop\n      pop\n      swap1\n      pop\n        /* \"contracts/Lock.sol\":5721:5722  0 */\n      0x00\n        /* \"contracts/Lock.sol\":5682:5688  folder */\n      dup12\n        /* \"contracts/Lock.sol\":5682:5694  folder.files */\n      0x04\n      add\n        /* \"contracts/Lock.sol\":5695:5703  fileName */\n      dup3\n        /* \"contracts/Lock.sol\":5682:5704  folder.files[fileName] */\n      mload(0x40)\n      tag_323\n      swap2\n      swap1\n      tag_94\n      jump\t// in\n    tag_323:\n      swap1\n      dup2\n      mstore\n      0x20\n      add\n      mload(0x40)\n      dup1\n      swap2\n      sub\n      swap1\n      keccak256\n        /* \"contracts/Lock.sol\":5682:5709  folder.files[fileName].name */\n      0x00\n      add\n        /* \"contracts/Lock.sol\":5676:5717  bytes(folder.files[fileName].name).length */\n      dup1\n      sload\n      tag_324\n      swap1\n      tag_65\n      jump\t// in\n    tag_324:\n      swap1\n      pop\n        /* \"contracts/Lock.sol\":5676:5722  bytes(folder.files[fileName].name).length != 0 */\n      eq\n        /* \"contracts/Lock.sol\":5672:6106  if (bytes(folder.files[fileName].name).length != 0) {... */\n      tag_325\n      jumpi\n        /* \"contracts/Lock.sol\":5742:5759  File storage file */\n      0x00\n        /* \"contracts/Lock.sol\":5762:5768  folder */\n      dup12\n        /* \"contracts/Lock.sol\":5762:5774  folder.files */\n      0x04\n      add\n        /* \"contracts/Lock.sol\":5775:5783  fileName */\n      dup3\n        /* \"contracts/Lock.sol\":5762:5784  folder.files[fileName] */\n      mload(0x40)\n      tag_326\n      swap2\n      swap1\n      tag_94\n      jump\t// in\n    tag_326:\n      swap1\n      dup2\n      mstore\n      0x20\n      add\n      mload(0x40)\n      dup1\n      swap2\n      sub\n      swap1\n      keccak256\n        /* \"contracts/Lock.sol\":5742:5784  File storage file = folder.files[fileName] */\n      swap1\n      pop\n        /* \"contracts/Lock.sol\":5823:6012  FileInfo(... */\n      mload(0x40)\n      dup1\n      0xa0\n      add\n      0x40\n      mstore\n      dup1\n        /* \"contracts/Lock.sol\":5853:5857  file */\n      dup3\n        /* \"contracts/Lock.sol\":5853:5862  file.name */\n      0x00\n      add\n        /* \"contracts/Lock.sol\":5823:6012  FileInfo(... */\n      dup1\n      sload\n      tag_327\n      swap1\n      tag_65\n      jump\t// in\n    tag_327:\n      dup1\n      0x1f\n      add\n      0x20\n      dup1\n      swap2\n      div\n      mul\n      0x20\n      add\n      mload(0x40)\n      swap1\n      dup2\n      add\n      0x40\n      mstore\n      dup1\n      swap3\n      swap2\n      swap1\n      dup2\n      dup2\n      mstore\n      0x20\n      add\n      dup3\n      dup1\n      sload\n      tag_328\n      swap1\n      tag_65\n      jump\t// in\n    tag_328:\n      dup1\n      iszero\n      tag_329\n      jumpi\n      dup1\n      0x1f\n      lt\n      tag_330\n      jumpi\n      0x0100\n      dup1\n      dup4\n      sload\n      div\n      mul\n      dup4\n      mstore\n      swap2\n      0x20\n      add\n      swap2\n      jump(tag_329)\n    tag_330:\n      dup3\n      add\n      swap2\n      swap1\n      0x00\n      mstore\n      keccak256(0x00, 0x20)\n      swap1\n    tag_331:\n      dup2\n      sload\n      dup2\n      mstore\n      swap1\n      0x01\n      add\n      swap1\n      0x20\n      add\n      dup1\n      dup4\n      gt\n      tag_331\n      jumpi\n      dup3\n      swap1\n      sub\n      0x1f\n      and\n      dup3\n      add\n      swap2\n    tag_329:\n      pop\n      pop\n      pop\n      pop\n      pop\n      dup2\n      mstore\n      0x20\n      add\n        /* \"contracts/Lock.sol\":5884:5888  file */\n      dup3\n        /* \"contracts/Lock.sol\":5884:5892  file.cid */\n      0x01\n      add\n        /* \"contracts/Lock.sol\":5823:6012  FileInfo(... */\n      dup1\n      sload\n      tag_332\n      swap1\n      tag_65\n      jump\t// in\n    tag_332:\n      dup1\n      0x1f\n      add\n      0x20\n      dup1\n      swap2\n      div\n      mul\n      0x20\n      add\n      mload(0x40)\n      swap1\n      dup2\n      add\n      0x40\n      mstore\n      dup1\n      swap3\n      swap2\n      swap1\n      dup2\n      dup2\n      mstore\n      0x20\n      add\n      dup3\n      dup1\n      sload\n      tag_333\n      swap1\n      tag_65\n      jump\t// in\n    tag_333:\n      dup1\n      iszero\n      tag_334\n      jumpi\n      dup1\n      0x1f\n      lt\n      tag_335\n      jumpi\n      0x0100\n      dup1\n      dup4\n      sload\n      div\n      mul\n      dup4\n      mstore\n      swap2\n      0x20\n      add\n      swap2\n      jump(tag_334)\n    tag_335:\n      dup3\n      add\n      swap2\n      swap1\n      0x00\n      mstore\n      keccak256(0x00, 0x20)\n      swap1\n    tag_336:\n      dup2\n      sload\n      dup2\n      mstore\n      swap1\n      0x01\n      add\n      swap1\n      0x20\n      add\n      dup1\n      dup4\n      gt\n      tag_336\n      jumpi\n      dup3\n      swap1\n      sub\n      0x1f\n      and\n      dup3\n      add\n      swap2\n    tag_334:\n      pop\n      pop\n      pop\n      pop\n      pop\n      dup2\n      mstore\n      0x20\n      add\n        /* \"contracts/Lock.sol\":5914:5918  file */\n      dup3\n        /* \"contracts/Lock.sol\":5914:5923  file.size */\n      0x02\n      add\n      sload\n        /* \"contracts/Lock.sol\":5823:6012  FileInfo(... */\n      dup2\n      mstore\n      0x20\n      add\n        /* \"contracts/Lock.sol\":5945:5949  file */\n      dup3\n        /* \"contracts/Lock.sol\":5945:5958  file.fileType */\n      0x03\n      add\n        /* \"contracts/Lock.sol\":5823:6012  FileInfo(... */\n      dup1\n      sload\n      tag_337\n      swap1\n      tag_65\n      jump\t// in\n    tag_337:\n      dup1\n      0x1f\n      add\n      0x20\n      dup1\n      swap2\n      div\n      mul\n      0x20\n      add\n      mload(0x40)\n      swap1\n      dup2\n      add\n      0x40\n      mstore\n      dup1\n      swap3\n      swap2\n      swap1\n      dup2\n      dup2\n      mstore\n      0x20\n      add\n      dup3\n      dup1\n      sload\n      tag_338\n      swap1\n      tag_65\n      jump\t// in\n    tag_338:\n      dup1\n      iszero\n      tag_339\n      jumpi\n      dup1\n      0x1f\n      lt\n      tag_340\n      jumpi\n      0x0100\n      dup1\n      dup4\n      sload\n      div\n      mul\n      dup4\n      mstore\n      swap2\n      0x20\n      add\n      swap2\n      jump(tag_339)\n    tag_340:\n      dup3\n      add\n      swap2\n      swap1\n      0x00\n      mstore\n      keccak256(0x00, 0x20)\n      swap1\n    tag_341:\n      dup2\n      sload\n      dup2\n      mstore\n      swap1\n      0x01\n      add\n      swap1\n      0x20\n      add\n      dup1\n      dup4\n      gt\n      tag_341\n      jumpi\n      dup3\n      swap1\n      sub\n      0x1f\n      and\n      dup3\n      add\n      swap2\n    tag_339:\n      pop\n      pop\n      pop\n      pop\n      pop\n      dup2\n      mstore\n      0x20\n      add\n        /* \"contracts/Lock.sol\":5980:5984  file */\n      dup3\n        /* \"contracts/Lock.sol\":5980:5994  file.createdAt */\n      0x05\n      add\n      sload\n        /* \"contracts/Lock.sol\":5823:6012  FileInfo(... */\n      dup2\n      mstore\n      pop\n        /* \"contracts/Lock.sol\":5802:5807  files */\n      dup9\n        /* \"contracts/Lock.sol\":5808:5819  fileIndex++ */\n      dup7\n      dup1\n      tag_342\n      swap1\n      tag_295\n      jump\t// in\n    tag_342:\n      swap8\n      pop\n        /* \"contracts/Lock.sol\":5802:5820  files[fileIndex++] */\n      dup2\n      mload\n      dup2\n      lt\n      tag_343\n      jumpi\n      tag_344\n      tag_62\n      jump\t// in\n    tag_344:\n    tag_343:\n      0x20\n      mul\n      0x20\n      add\n      add\n        /* \"contracts/Lock.sol\":5802:6012  files[fileIndex++] = FileInfo(... */\n      dup2\n      swap1\n      mstore\n      pop\n        /* \"contracts/Lock.sol\":5724:6027  {... */\n      pop\n        /* \"contracts/Lock.sol\":5672:6106  if (bytes(folder.files[fileName].name).length != 0) {... */\n      jump(tag_345)\n    tag_325:\n        /* \"contracts/Lock.sol\":6083:6091  fileName */\n      dup1\n        /* \"contracts/Lock.sol\":6051:6065  subFolderNames */\n      dup7\n        /* \"contracts/Lock.sol\":6066:6079  folderIndex++ */\n      dup5\n      dup1\n      tag_346\n      swap1\n      tag_295\n      jump\t// in\n    tag_346:\n      swap6\n      pop\n        /* \"contracts/Lock.sol\":6051:6080  subFolderNames[folderIndex++] */\n      dup2\n      mload\n      dup2\n      lt\n      tag_347\n      jumpi\n      tag_348\n      tag_62\n      jump\t// in\n    tag_348:\n    tag_347:\n      0x20\n      mul\n      0x20\n      add\n      add\n        /* \"contracts/Lock.sol\":6051:6091  subFolderNames[folderIndex++] = fileName */\n      dup2\n      swap1\n      mstore\n      pop\n        /* \"contracts/Lock.sol\":5672:6106  if (bytes(folder.files[fileName].name).length != 0) {... */\n    tag_345:\n        /* \"contracts/Lock.sol\":5600:6116  {... */\n      pop\n        /* \"contracts/Lock.sol\":5595:5598  i++ */\n      dup1\n      dup1\n      0x01\n      add\n      swap2\n      pop\n      pop\n        /* \"contracts/Lock.sol\":5546:6116  for (uint256 i = 0; i < folder.fileNames.length; i++) {... */\n      jump(tag_312)\n    tag_313:\n      pop\n        /* \"contracts/Lock.sol\":6131:6140  uint256 i */\n      0x00\n        /* \"contracts/Lock.sol\":6126:6482  for (uint256 i = 0; i < folder.sharedWithMe.length; i++) {... */\n    tag_349:\n        /* \"contracts/Lock.sol\":6150:6156  folder */\n      dup10\n        /* \"contracts/Lock.sol\":6150:6169  folder.sharedWithMe */\n      0x06\n      add\n        /* \"contracts/Lock.sol\":6150:6176  folder.sharedWithMe.length */\n      dup1\n      sload\n      swap1\n      pop\n        /* \"contracts/Lock.sol\":6146:6147  i */\n      dup2\n        /* \"contracts/Lock.sol\":6146:6176  i < folder.sharedWithMe.length */\n      lt\n        /* \"contracts/Lock.sol\":6126:6482  for (uint256 i = 0; i < folder.sharedWithMe.length; i++) {... */\n      iszero\n      tag_350\n      jumpi\n        /* \"contracts/Lock.sol\":6197:6220  File storage sharedFile */\n      0x00\n        /* \"contracts/Lock.sol\":6223:6229  folder */\n      dup11\n        /* \"contracts/Lock.sol\":6223:6242  folder.sharedWithMe */\n      0x06\n      add\n        /* \"contracts/Lock.sol\":6243:6244  i */\n      dup3\n        /* \"contracts/Lock.sol\":6223:6245  folder.sharedWithMe[i] */\n      dup2\n      sload\n      dup2\n      lt\n      tag_352\n      jumpi\n      tag_353\n      tag_62\n      jump\t// in\n    tag_353:\n    tag_352:\n      swap1\n      0x00\n      mstore\n      keccak256(0x00, 0x20)\n      swap1\n      0x06\n      mul\n      add\n        /* \"contracts/Lock.sol\":6197:6245  File storage sharedFile = folder.sharedWithMe[i] */\n      swap1\n      pop\n        /* \"contracts/Lock.sol\":6276:6471  FileInfo(... */\n      mload(0x40)\n      dup1\n      0xa0\n      add\n      0x40\n      mstore\n      dup1\n        /* \"contracts/Lock.sol\":6302:6312  sharedFile */\n      dup3\n        /* \"contracts/Lock.sol\":6302:6317  sharedFile.name */\n      0x00\n      add\n        /* \"contracts/Lock.sol\":6276:6471  FileInfo(... */\n      dup1\n      sload\n      tag_355\n      swap1\n      tag_65\n      jump\t// in\n    tag_355:\n      dup1\n      0x1f\n      add\n      0x20\n      dup1\n      swap2\n      div\n      mul\n      0x20\n      add\n      mload(0x40)\n      swap1\n      dup2\n      add\n      0x40\n      mstore\n      dup1\n      swap3\n      swap2\n      swap1\n      dup2\n      dup2\n      mstore\n      0x20\n      add\n      dup3\n      dup1\n      sload\n      tag_356\n      swap1\n      tag_65\n      jump\t// in\n    tag_356:\n      dup1\n      iszero\n      tag_357\n      jumpi\n      dup1\n      0x1f\n      lt\n      tag_358\n      jumpi\n      0x0100\n      dup1\n      dup4\n      sload\n      div\n      mul\n      dup4\n      mstore\n      swap2\n      0x20\n      add\n      swap2\n      jump(tag_357)\n    tag_358:\n      dup3\n      add\n      swap2\n      swap1\n      0x00\n      mstore\n      keccak256(0x00, 0x20)\n      swap1\n    tag_359:\n      dup2\n      sload\n      dup2\n      mstore\n      swap1\n      0x01\n      add\n      swap1\n      0x20\n      add\n      dup1\n      dup4\n      gt\n      tag_359\n      jumpi\n      dup3\n      swap1\n      sub\n      0x1f\n      and\n      dup3\n      add\n      swap2\n    tag_357:\n      pop\n      pop\n      pop\n      pop\n      pop\n      dup2\n      mstore\n      0x20\n      add\n        /* \"contracts/Lock.sol\":6335:6345  sharedFile */\n      dup3\n        /* \"contracts/Lock.sol\":6335:6349  sharedFile.cid */\n      0x01\n      add\n        /* \"contracts/Lock.sol\":6276:6471  FileInfo(... */\n      dup1\n      sload\n      tag_360\n      swap1\n      tag_65\n      jump\t// in\n    tag_360:\n      dup1\n      0x1f\n      add\n      0x20\n      dup1\n      swap2\n      div\n      mul\n      0x20\n      add\n      mload(0x40)\n      swap1\n      dup2\n      add\n      0x40\n      mstore\n      dup1\n      swap3\n      swap2\n      swap1\n      dup2\n      dup2\n      mstore\n      0x20\n      add\n      dup3\n      dup1\n      sload\n      tag_361\n      swap1\n      tag_65\n      jump\t// in\n    tag_361:\n      dup1\n      iszero\n      tag_362\n      jumpi\n      dup1\n      0x1f\n      lt\n      tag_363\n      jumpi\n      0x0100\n      dup1\n      dup4\n      sload\n      div\n      mul\n      dup4\n      mstore\n      swap2\n      0x20\n      add\n      swap2\n      jump(tag_362)\n    tag_363:\n      dup3\n      add\n      swap2\n      swap1\n      0x00\n      mstore\n      keccak256(0x00, 0x20)\n      swap1\n    tag_364:\n      dup2\n      sload\n      dup2\n      mstore\n      swap1\n      0x01\n      add\n      swap1\n      0x20\n      add\n      dup1\n      dup4\n      gt\n      tag_364\n      jumpi\n      dup3\n      swap1\n      sub\n      0x1f\n      and\n      dup3\n      add\n      swap2\n    tag_362:\n      pop\n      pop\n      pop\n      pop\n      pop\n      dup2\n      mstore\n      0x20\n      add\n        /* \"contracts/Lock.sol\":6367:6377  sharedFile */\n      dup3\n        /* \"contracts/Lock.sol\":6367:6382  sharedFile.size */\n      0x02\n      add\n      sload\n        /* \"contracts/Lock.sol\":6276:6471  FileInfo(... */\n      dup2\n      mstore\n      0x20\n      add\n        /* \"contracts/Lock.sol\":6400:6410  sharedFile */\n      dup3\n        /* \"contracts/Lock.sol\":6400:6419  sharedFile.fileType */\n      0x03\n      add\n        /* \"contracts/Lock.sol\":6276:6471  FileInfo(... */\n      dup1\n      sload\n      tag_365\n      swap1\n      tag_65\n      jump\t// in\n    tag_365:\n      dup1\n      0x1f\n      add\n      0x20\n      dup1\n      swap2\n      div\n      mul\n      0x20\n      add\n      mload(0x40)\n      swap1\n      dup2\n      add\n      0x40\n      mstore\n      dup1\n      swap3\n      swap2\n      swap1\n      dup2\n      dup2\n      mstore\n      0x20\n      add\n      dup3\n      dup1\n      sload\n      tag_366\n      swap1\n      tag_65\n      jump\t// in\n    tag_366:\n      dup1\n      iszero\n      tag_367\n      jumpi\n      dup1\n      0x1f\n      lt\n      tag_368\n      jumpi\n      0x0100\n      dup1\n      dup4\n      sload\n      div\n      mul\n      dup4\n      mstore\n      swap2\n      0x20\n      add\n      swap2\n      jump(tag_367)\n    tag_368:\n      dup3\n      add\n      swap2\n      swap1\n      0x00\n      mstore\n      keccak256(0x00, 0x20)\n      swap1\n    tag_369:\n      dup2\n      sload\n      dup2\n      mstore\n      swap1\n      0x01\n      add\n      swap1\n      0x20\n      add\n      dup1\n      dup4\n      gt\n      tag_369\n      jumpi\n      dup3\n      swap1\n      sub\n      0x1f\n      and\n      dup3\n      add\n      swap2\n    tag_367:\n      pop\n      pop\n      pop\n      pop\n      pop\n      dup2\n      mstore\n      0x20\n      add\n        /* \"contracts/Lock.sol\":6437:6447  sharedFile */\n      dup3\n        /* \"contracts/Lock.sol\":6437:6457  sharedFile.createdAt */\n      0x05\n      add\n      sload\n        /* \"contracts/Lock.sol\":6276:6471  FileInfo(... */\n      dup2\n      mstore\n      pop\n        /* \"contracts/Lock.sol\":6259:6270  sharedFiles */\n      dup6\n        /* \"contracts/Lock.sol\":6271:6272  i */\n      dup4\n        /* \"contracts/Lock.sol\":6259:6273  sharedFiles[i] */\n      dup2\n      mload\n      dup2\n      lt\n      tag_370\n      jumpi\n      tag_371\n      tag_62\n      jump\t// in\n    tag_371:\n    tag_370:\n      0x20\n      mul\n      0x20\n      add\n      add\n        /* \"contracts/Lock.sol\":6259:6471  sharedFiles[i] = FileInfo(... */\n      dup2\n      swap1\n      mstore\n      pop\n        /* \"contracts/Lock.sol\":6183:6482  {... */\n      pop\n        /* \"contracts/Lock.sol\":6178:6181  i++ */\n      dup1\n      dup1\n      0x01\n      add\n      swap2\n      pop\n      pop\n        /* \"contracts/Lock.sol\":6126:6482  for (uint256 i = 0; i < folder.sharedWithMe.length; i++) {... */\n      jump(tag_349)\n    tag_350:\n      pop\n        /* \"contracts/Lock.sol\":6511:6682  FolderInfo(... */\n      mload(0x40)\n      dup1\n      0xa0\n      add\n      0x40\n      mstore\n      dup1\n        /* \"contracts/Lock.sol\":6539:6545  folder */\n      dup11\n        /* \"contracts/Lock.sol\":6539:6550  folder.name */\n      0x00\n      add\n        /* \"contracts/Lock.sol\":6511:6682  FolderInfo(... */\n      dup1\n      sload\n      tag_372\n      swap1\n      tag_65\n      jump\t// in\n    tag_372:\n      dup1\n      0x1f\n      add\n      0x20\n      dup1\n      swap2\n      div\n      mul\n      0x20\n      add\n      mload(0x40)\n      swap1\n      dup2\n      add\n      0x40\n      mstore\n      dup1\n      swap3\n      swap2\n      swap1\n      dup2\n      dup2\n      mstore\n      0x20\n      add\n      dup3\n      dup1\n      sload\n      tag_373\n      swap1\n      tag_65\n      jump\t// in\n    tag_373:\n      dup1\n      iszero\n      tag_374\n      jumpi\n      dup1\n      0x1f\n      lt\n      tag_375\n      jumpi\n      0x0100\n      dup1\n      dup4\n      sload\n      div\n      mul\n      dup4\n      mstore\n      swap2\n      0x20\n      add\n      swap2\n      jump(tag_374)\n    tag_375:\n      dup3\n      add\n      swap2\n      swap1\n      0x00\n      mstore\n      keccak256(0x00, 0x20)\n      swap1\n    tag_376:\n      dup2\n      sload\n      dup2\n      mstore\n      swap1\n      0x01\n      add\n      swap1\n      0x20\n      add\n      dup1\n      dup4\n      gt\n      tag_376\n      jumpi\n      dup3\n      swap1\n      sub\n      0x1f\n      and\n      dup3\n      add\n      swap2\n    tag_374:\n      pop\n      pop\n      pop\n      pop\n      pop\n      dup2\n      mstore\n      0x20\n      add\n        /* \"contracts/Lock.sol\":6568:6574  folder */\n      dup11\n        /* \"contracts/Lock.sol\":6568:6584  folder.createdAt */\n      0x02\n      add\n      sload\n        /* \"contracts/Lock.sol\":6511:6682  FolderInfo(... */\n      dup2\n      mstore\n      0x20\n      add\n        /* \"contracts/Lock.sol\":6602:6607  files */\n      dup7\n        /* \"contracts/Lock.sol\":6511:6682  FolderInfo(... */\n      dup2\n      mstore\n      0x20\n      add\n        /* \"contracts/Lock.sol\":6625:6639  subFolderNames */\n      dup6\n        /* \"contracts/Lock.sol\":6511:6682  FolderInfo(... */\n      dup2\n      mstore\n      0x20\n      add\n        /* \"contracts/Lock.sol\":6657:6668  sharedFiles */\n      dup5\n        /* \"contracts/Lock.sol\":6511:6682  FolderInfo(... */\n      dup2\n      mstore\n      pop\n        /* \"contracts/Lock.sol\":6492:6682  return... */\n      swap8\n      pop\n      pop\n      pop\n      pop\n      pop\n      pop\n      pop\n      pop\n        /* \"contracts/Lock.sol\":4738:6689  function _getFolderInfo(... */\n      swap2\n      swap1\n      pop\n      jump\t// out\n        /* \"contracts/Lock.sol\":822:1132  function _initializeUserRoot(address user) internal {... */\n    tag_106:\n        /* \"contracts/Lock.sol\":925:926  0 */\n      0x00\n        /* \"contracts/Lock.sol\":894:902  userRoot */\n      dup1\n        /* \"contracts/Lock.sol\":894:908  userRoot[user] */\n      0x00\n        /* \"contracts/Lock.sol\":903:907  user */\n      dup4\n        /* \"contracts/Lock.sol\":894:908  userRoot[user] */\n      0xffffffffffffffffffffffffffffffffffffffff\n      and\n      0xffffffffffffffffffffffffffffffffffffffff\n      and\n      dup2\n      mstore\n      0x20\n      add\n      swap1\n      dup2\n      mstore\n      0x20\n      add\n      0x00\n      keccak256\n        /* \"contracts/Lock.sol\":894:913  userRoot[user].name */\n      0x00\n      add\n        /* \"contracts/Lock.sol\":888:921  bytes(userRoot[user].name).length */\n      dup1\n      sload\n      tag_378\n      swap1\n      tag_65\n      jump\t// in\n    tag_378:\n      swap1\n      pop\n        /* \"contracts/Lock.sol\":888:926  bytes(userRoot[user].name).length == 0 */\n      sub\n        /* \"contracts/Lock.sol\":884:1126  if (bytes(userRoot[user].name).length == 0) {... */\n      tag_379\n      jumpi\n        /* \"contracts/Lock.sol\":942:967  Folder storage rootFolder */\n      0x00\n        /* \"contracts/Lock.sol\":970:978  userRoot */\n      dup1\n        /* \"contracts/Lock.sol\":970:984  userRoot[user] */\n      0x00\n        /* \"contracts/Lock.sol\":979:983  user */\n      dup4\n        /* \"contracts/Lock.sol\":970:984  userRoot[user] */\n      0xffffffffffffffffffffffffffffffffffffffff\n      and\n      0xffffffffffffffffffffffffffffffffffffffff\n      and\n      dup2\n      mstore\n      0x20\n      add\n      swap1\n      dup2\n      mstore\n      0x20\n      add\n      0x00\n      keccak256\n        /* \"contracts/Lock.sol\":942:984  Folder storage rootFolder = userRoot[user] */\n      swap1\n      pop\n        /* \"contracts/Lock.sol\":998:1026  rootFolder.name = \"My Space\" */\n      mload(0x40)\n      dup1\n      0x40\n      add\n      0x40\n      mstore\n      dup1\n      0x08\n      dup2\n      mstore\n      0x20\n      add\n      0x4d79205370616365000000000000000000000000000000000000000000000000\n      dup2\n      mstore\n      pop\n        /* \"contracts/Lock.sol\":998:1008  rootFolder */\n      dup2\n        /* \"contracts/Lock.sol\":998:1013  rootFolder.name */\n      0x00\n      add\n        /* \"contracts/Lock.sol\":998:1026  rootFolder.name = \"My Space\" */\n      swap1\n      dup2\n      tag_380\n      swap2\n      swap1\n      tag_182\n      jump\t// in\n    tag_380:\n      pop\n        /* \"contracts/Lock.sol\":1059:1063  user */\n      dup2\n        /* \"contracts/Lock.sol\":1040:1050  rootFolder */\n      dup2\n        /* \"contracts/Lock.sol\":1040:1056  rootFolder.owner */\n      0x01\n      add\n      0x00\n        /* \"contracts/Lock.sol\":1040:1063  rootFolder.owner = user */\n      0x0100\n      exp\n      dup2\n      sload\n      dup2\n      0xffffffffffffffffffffffffffffffffffffffff\n      mul\n      not\n      and\n      swap1\n      dup4\n      0xffffffffffffffffffffffffffffffffffffffff\n      and\n      mul\n      or\n      swap1\n      sstore\n      pop\n        /* \"contracts/Lock.sol\":1100:1115  block.timestamp */\n      timestamp\n        /* \"contracts/Lock.sol\":1077:1087  rootFolder */\n      dup2\n        /* \"contracts/Lock.sol\":1077:1097  rootFolder.createdAt */\n      0x02\n      add\n        /* \"contracts/Lock.sol\":1077:1115  rootFolder.createdAt = block.timestamp */\n      dup2\n      swap1\n      sstore\n      pop\n        /* \"contracts/Lock.sol\":928:1126  {... */\n      pop\n        /* \"contracts/Lock.sol\":884:1126  if (bytes(userRoot[user].name).length == 0) {... */\n    tag_379:\n        /* \"contracts/Lock.sol\":822:1132  function _initializeUserRoot(address user) internal {... */\n      pop\n      jump\t// out\n    tag_56:\n      mload(0x40)\n      dup1\n      0xa0\n      add\n      0x40\n      mstore\n      dup1\n      0x60\n      dup2\n      mstore\n      0x20\n      add\n      0x60\n      dup2\n      mstore\n      0x20\n      add\n      0x00\n      dup2\n      mstore\n      0x20\n      add\n      0x60\n      dup2\n      mstore\n      0x20\n      add\n      0x00\n      dup2\n      mstore\n      pop\n      swap1\n      jump\t// out\n    tag_86:\n      mload(0x40)\n      dup1\n      0xa0\n      add\n      0x40\n      mstore\n      dup1\n      0x60\n      dup2\n      mstore\n      0x20\n      add\n      0x00\n      dup2\n      mstore\n      0x20\n      add\n      0x60\n      dup2\n      mstore\n      0x20\n      add\n      0x60\n      dup2\n      mstore\n      0x20\n      add\n      0x60\n      dup2\n      mstore\n      pop\n      swap1\n      jump\t// out\n    tag_118:\n      pop\n      dup1\n      sload\n      tag_381\n      swap1\n      tag_65\n      jump\t// in\n    tag_381:\n      0x00\n      dup3\n      sstore\n      dup1\n      0x1f\n      lt\n      tag_383\n      jumpi\n      pop\n      jump(tag_382)\n    tag_383:\n      0x1f\n      add\n      0x20\n      swap1\n      div\n      swap1\n      0x00\n      mstore\n      keccak256(0x00, 0x20)\n      swap1\n      dup2\n      add\n      swap1\n      tag_384\n      swap2\n      swap1\n      tag_385\n      jump\t// in\n    tag_384:\n    tag_382:\n      pop\n      jump\t// out\n    tag_128:\n      pop\n      dup1\n      sload\n      0x00\n      dup3\n      sstore\n      swap1\n      0x00\n      mstore\n      keccak256(0x00, 0x20)\n      swap1\n      dup2\n      add\n      swap1\n      tag_387\n      swap2\n      swap1\n      tag_388\n      jump\t// in\n    tag_387:\n      pop\n      jump\t// out\n    tag_130:\n      pop\n      dup1\n      sload\n      0x00\n      dup3\n      sstore\n      0x06\n      mul\n      swap1\n      0x00\n      mstore\n      keccak256(0x00, 0x20)\n      swap1\n      dup2\n      add\n      swap1\n      tag_390\n      swap2\n      swap1\n      tag_391\n      jump\t// in\n    tag_390:\n      pop\n      jump\t// out\n    tag_385:\n    tag_392:\n      dup1\n      dup3\n      gt\n      iszero\n      tag_393\n      jumpi\n      0x00\n      dup2\n      0x00\n      swap1\n      sstore\n      pop\n      0x01\n      add\n      jump(tag_392)\n    tag_393:\n      pop\n      swap1\n      jump\t// out\n    tag_388:\n    tag_394:\n      dup1\n      dup3\n      gt\n      iszero\n      tag_395\n      jumpi\n      0x00\n      dup2\n      dup2\n      tag_396\n      swap2\n      swap1\n      tag_118\n      jump\t// in\n    tag_396:\n      pop\n      0x01\n      add\n      jump(tag_394)\n    tag_395:\n      pop\n      swap1\n      jump\t// out\n    tag_391:\n    tag_397:\n      dup1\n      dup3\n      gt\n      iszero\n      tag_398\n      jumpi\n      0x00\n      dup1\n      dup3\n      add\n      0x00\n      tag_399\n      swap2\n      swap1\n      tag_118\n      jump\t// in\n    tag_399:\n      0x01\n      dup3\n      add\n      0x00\n      tag_400\n      swap2\n      swap1\n      tag_118\n      jump\t// in\n    tag_400:\n      0x02\n      dup3\n      add\n      0x00\n      swap1\n      sstore\n      0x03\n      dup3\n      add\n      0x00\n      tag_401\n      swap2\n      swap1\n      tag_118\n      jump\t// in\n    tag_401:\n      0x04\n      dup3\n      add\n      exp(0x0100, 0x00)\n      dup2\n      sload\n      swap1\n      0xffffffffffffffffffffffffffffffffffffffff\n      mul\n      not\n      and\n      swap1\n      sstore\n      0x05\n      dup3\n      add\n      0x00\n      swap1\n      sstore\n      pop\n      0x06\n      add\n      jump(tag_397)\n    tag_398:\n      pop\n      swap1\n      jump\t// out\n        /* \"#utility.yul\":7:146   */\n    tag_402:\n        /* \"#utility.yul\":99:105   */\n      0x00\n        /* \"#utility.yul\":133:138   */\n      dup2\n        /* \"#utility.yul\":127:139   */\n      mload\n        /* \"#utility.yul\":117:139   */\n      swap1\n      pop\n        /* \"#utility.yul\":7:146   */\n      swap2\n      swap1\n      pop\n      jump\t// out\n        /* \"#utility.yul\":152:361   */\n    tag_403:\n        /* \"#utility.yul\":276:287   */\n      0x00\n        /* \"#utility.yul\":310:316   */\n      dup3\n        /* \"#utility.yul\":305:308   */\n      dup3\n        /* \"#utility.yul\":298:317   */\n      mstore\n        /* \"#utility.yul\":350:354   */\n      0x20\n        /* \"#utility.yul\":345:348   */\n      dup3\n        /* \"#utility.yul\":341:355   */\n      add\n        /* \"#utility.yul\":326:355   */\n      swap1\n      pop\n        /* \"#utility.yul\":152:361   */\n      swap3\n      swap2\n      pop\n      pop\n      jump\t// out\n        /* \"#utility.yul\":367:524   */\n    tag_404:\n        /* \"#utility.yul\":459:463   */\n      0x00\n        /* \"#utility.yul\":482:485   */\n      dup2\n        /* \"#utility.yul\":474:485   */\n      swap1\n      pop\n        /* \"#utility.yul\":512:516   */\n      0x20\n        /* \"#utility.yul\":507:510   */\n      dup3\n        /* \"#utility.yul\":503:517   */\n      add\n        /* \"#utility.yul\":495:517   */\n      swap1\n      pop\n        /* \"#utility.yul\":367:524   */\n      swap2\n      swap1\n      pop\n      jump\t// out\n        /* \"#utility.yul\":530:629   */\n    tag_405:\n        /* \"#utility.yul\":582:588   */\n      0x00\n        /* \"#utility.yul\":616:621   */\n      dup2\n        /* \"#utility.yul\":610:622   */\n      mload\n        /* \"#utility.yul\":600:622   */\n      swap1\n      pop\n        /* \"#utility.yul\":530:629   */\n      swap2\n      swap1\n      pop\n      jump\t// out\n        /* \"#utility.yul\":635:794   */\n    tag_406:\n        /* \"#utility.yul\":709:720   */\n      0x00\n        /* \"#utility.yul\":743:749   */\n      dup3\n        /* \"#utility.yul\":738:741   */\n      dup3\n        /* \"#utility.yul\":731:750   */\n      mstore\n        /* \"#utility.yul\":783:787   */\n      0x20\n        /* \"#utility.yul\":778:781   */\n      dup3\n        /* \"#utility.yul\":774:788   */\n      add\n        /* \"#utility.yul\":759:788   */\n      swap1\n      pop\n        /* \"#utility.yul\":635:794   */\n      swap3\n      swap2\n      pop\n      pop\n      jump\t// out\n        /* \"#utility.yul\":800:939   */\n    tag_407:\n        /* \"#utility.yul\":889:895   */\n      dup3\n        /* \"#utility.yul\":884:887   */\n      dup2\n        /* \"#utility.yul\":879:882   */\n      dup4\n        /* \"#utility.yul\":873:896   */\n      mcopy\n        /* \"#utility.yul\":930:931   */\n      0x00\n        /* \"#utility.yul\":921:927   */\n      dup4\n        /* \"#utility.yul\":916:919   */\n      dup4\n        /* \"#utility.yul\":912:928   */\n      add\n        /* \"#utility.yul\":905:932   */\n      mstore\n        /* \"#utility.yul\":800:939   */\n      pop\n      pop\n      pop\n      jump\t// out\n        /* \"#utility.yul\":945:1047   */\n    tag_408:\n        /* \"#utility.yul\":986:992   */\n      0x00\n        /* \"#utility.yul\":1037:1039   */\n      0x1f\n        /* \"#utility.yul\":1033:1040   */\n      not\n        /* \"#utility.yul\":1028:1030   */\n      0x1f\n        /* \"#utility.yul\":1021:1026   */\n      dup4\n        /* \"#utility.yul\":1017:1031   */\n      add\n        /* \"#utility.yul\":1013:1041   */\n      and\n        /* \"#utility.yul\":1003:1041   */\n      swap1\n      pop\n        /* \"#utility.yul\":945:1047   */\n      swap2\n      swap1\n      pop\n      jump\t// out\n        /* \"#utility.yul\":1053:1410   */\n    tag_409:\n        /* \"#utility.yul\":1131:1134   */\n      0x00\n        /* \"#utility.yul\":1159:1198   */\n      tag_500\n        /* \"#utility.yul\":1192:1197   */\n      dup3\n        /* \"#utility.yul\":1159:1198   */\n      tag_405\n      jump\t// in\n    tag_500:\n        /* \"#utility.yul\":1214:1275   */\n      tag_501\n        /* \"#utility.yul\":1268:1274   */\n      dup2\n        /* \"#utility.yul\":1263:1266   */\n      dup6\n        /* \"#utility.yul\":1214:1275   */\n      tag_406\n      jump\t// in\n    tag_501:\n        /* \"#utility.yul\":1207:1275   */\n      swap4\n      pop\n        /* \"#utility.yul\":1284:1349   */\n      tag_502\n        /* \"#utility.yul\":1342:1348   */\n      dup2\n        /* \"#utility.yul\":1337:1340   */\n      dup6\n        /* \"#utility.yul\":1330:1334   */\n      0x20\n        /* \"#utility.yul\":1323:1328   */\n      dup7\n        /* \"#utility.yul\":1319:1335   */\n      add\n        /* \"#utility.yul\":1284:1349   */\n      tag_407\n      jump\t// in\n    tag_502:\n        /* \"#utility.yul\":1374:1403   */\n      tag_503\n        /* \"#utility.yul\":1396:1402   */\n      dup2\n        /* \"#utility.yul\":1374:1403   */\n      tag_408\n      jump\t// in\n    tag_503:\n        /* \"#utility.yul\":1369:1372   */\n      dup5\n        /* \"#utility.yul\":1365:1404   */\n      add\n        /* \"#utility.yul\":1358:1404   */\n      swap2\n      pop\n        /* \"#utility.yul\":1135:1410   */\n      pop\n        /* \"#utility.yul\":1053:1410   */\n      swap3\n      swap2\n      pop\n      pop\n      jump\t// out\n        /* \"#utility.yul\":1416:1493   */\n    tag_410:\n        /* \"#utility.yul\":1453:1460   */\n      0x00\n        /* \"#utility.yul\":1482:1487   */\n      dup2\n        /* \"#utility.yul\":1471:1487   */\n      swap1\n      pop\n        /* \"#utility.yul\":1416:1493   */\n      swap2\n      swap1\n      pop\n      jump\t// out\n        /* \"#utility.yul\":1499:1607   */\n    tag_411:\n        /* \"#utility.yul\":1576:1600   */\n      tag_506\n        /* \"#utility.yul\":1594:1599   */\n      dup2\n        /* \"#utility.yul\":1576:1600   */\n      tag_410\n      jump\t// in\n    tag_506:\n        /* \"#utility.yul\":1571:1574   */\n      dup3\n        /* \"#utility.yul\":1564:1601   */\n      mstore\n        /* \"#utility.yul\":1499:1607   */\n      pop\n      pop\n      jump\t// out\n        /* \"#utility.yul\":1665:2933   */\n    tag_412:\n        /* \"#utility.yul\":1774:1777   */\n      0x00\n        /* \"#utility.yul\":1810:1814   */\n      0xa0\n        /* \"#utility.yul\":1805:1808   */\n      dup4\n        /* \"#utility.yul\":1801:1815   */\n      add\n        /* \"#utility.yul\":1897:1901   */\n      0x00\n        /* \"#utility.yul\":1890:1895   */\n      dup4\n        /* \"#utility.yul\":1886:1902   */\n      add\n        /* \"#utility.yul\":1880:1903   */\n      mload\n        /* \"#utility.yul\":1950:1953   */\n      dup5\n        /* \"#utility.yul\":1944:1948   */\n      dup3\n        /* \"#utility.yul\":1940:1954   */\n      sub\n        /* \"#utility.yul\":1933:1937   */\n      0x00\n        /* \"#utility.yul\":1928:1931   */\n      dup7\n        /* \"#utility.yul\":1924:1938   */\n      add\n        /* \"#utility.yul\":1917:1955   */\n      mstore\n        /* \"#utility.yul\":1976:2049   */\n      tag_508\n        /* \"#utility.yul\":2044:2048   */\n      dup3\n        /* \"#utility.yul\":2030:2042   */\n      dup3\n        /* \"#utility.yul\":1976:2049   */\n      tag_409\n      jump\t// in\n    tag_508:\n        /* \"#utility.yul\":1968:2049   */\n      swap2\n      pop\n        /* \"#utility.yul\":1825:2060   */\n      pop\n        /* \"#utility.yul\":2141:2145   */\n      0x20\n        /* \"#utility.yul\":2134:2139   */\n      dup4\n        /* \"#utility.yul\":2130:2146   */\n      add\n        /* \"#utility.yul\":2124:2147   */\n      mload\n        /* \"#utility.yul\":2194:2197   */\n      dup5\n        /* \"#utility.yul\":2188:2192   */\n      dup3\n        /* \"#utility.yul\":2184:2198   */\n      sub\n        /* \"#utility.yul\":2177:2181   */\n      0x20\n        /* \"#utility.yul\":2172:2175   */\n      dup7\n        /* \"#utility.yul\":2168:2182   */\n      add\n        /* \"#utility.yul\":2161:2199   */\n      mstore\n        /* \"#utility.yul\":2220:2293   */\n      tag_509\n        /* \"#utility.yul\":2288:2292   */\n      dup3\n        /* \"#utility.yul\":2274:2286   */\n      dup3\n        /* \"#utility.yul\":2220:2293   */\n      tag_409\n      jump\t// in\n    tag_509:\n        /* \"#utility.yul\":2212:2293   */\n      swap2\n      pop\n        /* \"#utility.yul\":2070:2304   */\n      pop\n        /* \"#utility.yul\":2386:2390   */\n      0x40\n        /* \"#utility.yul\":2379:2384   */\n      dup4\n        /* \"#utility.yul\":2375:2391   */\n      add\n        /* \"#utility.yul\":2369:2392   */\n      mload\n        /* \"#utility.yul\":2405:2468   */\n      tag_510\n        /* \"#utility.yul\":2462:2466   */\n      0x40\n        /* \"#utility.yul\":2457:2460   */\n      dup7\n        /* \"#utility.yul\":2453:2467   */\n      add\n        /* \"#utility.yul\":2439:2451   */\n      dup3\n        /* \"#utility.yul\":2405:2468   */\n      tag_411\n      jump\t// in\n    tag_510:\n        /* \"#utility.yul\":2314:2478   */\n      pop\n        /* \"#utility.yul\":2564:2568   */\n      0x60\n        /* \"#utility.yul\":2557:2562   */\n      dup4\n        /* \"#utility.yul\":2553:2569   */\n      add\n        /* \"#utility.yul\":2547:2570   */\n      mload\n        /* \"#utility.yul\":2617:2620   */\n      dup5\n        /* \"#utility.yul\":2611:2615   */\n      dup3\n        /* \"#utility.yul\":2607:2621   */\n      sub\n        /* \"#utility.yul\":2600:2604   */\n      0x60\n        /* \"#utility.yul\":2595:2598   */\n      dup7\n        /* \"#utility.yul\":2591:2605   */\n      add\n        /* \"#utility.yul\":2584:2622   */\n      mstore\n        /* \"#utility.yul\":2643:2716   */\n      tag_511\n        /* \"#utility.yul\":2711:2715   */\n      dup3\n        /* \"#utility.yul\":2697:2709   */\n      dup3\n        /* \"#utility.yul\":2643:2716   */\n      tag_409\n      jump\t// in\n    tag_511:\n        /* \"#utility.yul\":2635:2716   */\n      swap2\n      pop\n        /* \"#utility.yul\":2488:2727   */\n      pop\n        /* \"#utility.yul\":2814:2818   */\n      0x80\n        /* \"#utility.yul\":2807:2812   */\n      dup4\n        /* \"#utility.yul\":2803:2819   */\n      add\n        /* \"#utility.yul\":2797:2820   */\n      mload\n        /* \"#utility.yul\":2833:2896   */\n      tag_512\n        /* \"#utility.yul\":2890:2894   */\n      0x80\n        /* \"#utility.yul\":2885:2888   */\n      dup7\n        /* \"#utility.yul\":2881:2895   */\n      add\n        /* \"#utility.yul\":2867:2879   */\n      dup3\n        /* \"#utility.yul\":2833:2896   */\n      tag_411\n      jump\t// in\n    tag_512:\n        /* \"#utility.yul\":2737:2906   */\n      pop\n        /* \"#utility.yul\":2923:2927   */\n      dup1\n        /* \"#utility.yul\":2916:2927   */\n      swap2\n      pop\n        /* \"#utility.yul\":1779:2933   */\n      pop\n        /* \"#utility.yul\":1665:2933   */\n      swap3\n      swap2\n      pop\n      pop\n      jump\t// out\n        /* \"#utility.yul\":2939:3195   */\n    tag_413:\n        /* \"#utility.yul\":3058:3068   */\n      0x00\n        /* \"#utility.yul\":3093:3189   */\n      tag_514\n        /* \"#utility.yul\":3185:3188   */\n      dup4\n        /* \"#utility.yul\":3177:3183   */\n      dup4\n        /* \"#utility.yul\":3093:3189   */\n      tag_412\n      jump\t// in\n    tag_514:\n        /* \"#utility.yul\":3079:3189   */\n      swap1\n      pop\n        /* \"#utility.yul\":2939:3195   */\n      swap3\n      swap2\n      pop\n      pop\n      jump\t// out\n        /* \"#utility.yul\":3201:3339   */\n    tag_414:\n        /* \"#utility.yul\":3296:3300   */\n      0x00\n        /* \"#utility.yul\":3328:3332   */\n      0x20\n        /* \"#utility.yul\":3323:3326   */\n      dup3\n        /* \"#utility.yul\":3319:3333   */\n      add\n        /* \"#utility.yul\":3311:3333   */\n      swap1\n      pop\n        /* \"#utility.yul\":3201:3339   */\n      swap2\n      swap1\n      pop\n      jump\t// out\n        /* \"#utility.yul\":3401:4512   */\n    tag_415:\n        /* \"#utility.yul\":3570:3573   */\n      0x00\n        /* \"#utility.yul\":3599:3678   */\n      tag_517\n        /* \"#utility.yul\":3672:3677   */\n      dup3\n        /* \"#utility.yul\":3599:3678   */\n      tag_402\n      jump\t// in\n    tag_517:\n        /* \"#utility.yul\":3694:3805   */\n      tag_518\n        /* \"#utility.yul\":3798:3804   */\n      dup2\n        /* \"#utility.yul\":3793:3796   */\n      dup6\n        /* \"#utility.yul\":3694:3805   */\n      tag_403\n      jump\t// in\n    tag_518:\n        /* \"#utility.yul\":3687:3805   */\n      swap4\n      pop\n        /* \"#utility.yul\":3831:3834   */\n      dup4\n        /* \"#utility.yul\":3876:3880   */\n      0x20\n        /* \"#utility.yul\":3868:3874   */\n      dup3\n        /* \"#utility.yul\":3864:3881   */\n      mul\n        /* \"#utility.yul\":3859:3862   */\n      dup6\n        /* \"#utility.yul\":3855:3882   */\n      add\n        /* \"#utility.yul\":3906:3987   */\n      tag_519\n        /* \"#utility.yul\":3981:3986   */\n      dup6\n        /* \"#utility.yul\":3906:3987   */\n      tag_404\n      jump\t// in\n    tag_519:\n        /* \"#utility.yul\":4010:4017   */\n      dup1\n        /* \"#utility.yul\":4041:4042   */\n      0x00\n        /* \"#utility.yul\":4026:4467   */\n    tag_520:\n        /* \"#utility.yul\":4051:4057   */\n      dup6\n        /* \"#utility.yul\":4048:4049   */\n      dup2\n        /* \"#utility.yul\":4045:4058   */\n      lt\n        /* \"#utility.yul\":4026:4467   */\n      iszero\n      tag_522\n      jumpi\n        /* \"#utility.yul\":4122:4131   */\n      dup5\n        /* \"#utility.yul\":4116:4120   */\n      dup5\n        /* \"#utility.yul\":4112:4132   */\n      sub\n        /* \"#utility.yul\":4107:4110   */\n      dup10\n        /* \"#utility.yul\":4100:4133   */\n      mstore\n        /* \"#utility.yul\":4173:4179   */\n      dup2\n        /* \"#utility.yul\":4167:4180   */\n      mload\n        /* \"#utility.yul\":4201:4315   */\n      tag_523\n        /* \"#utility.yul\":4310:4314   */\n      dup6\n        /* \"#utility.yul\":4295:4308   */\n      dup3\n        /* \"#utility.yul\":4201:4315   */\n      tag_413\n      jump\t// in\n    tag_523:\n        /* \"#utility.yul\":4193:4315   */\n      swap5\n      pop\n        /* \"#utility.yul\":4338:4423   */\n      tag_524\n        /* \"#utility.yul\":4416:4422   */\n      dup4\n        /* \"#utility.yul\":4338:4423   */\n      tag_414\n      jump\t// in\n    tag_524:\n        /* \"#utility.yul\":4328:4423   */\n      swap3\n      pop\n        /* \"#utility.yul\":4452:4456   */\n      0x20\n        /* \"#utility.yul\":4447:4450   */\n      dup11\n        /* \"#utility.yul\":4443:4457   */\n      add\n        /* \"#utility.yul\":4436:4457   */\n      swap10\n      pop\n        /* \"#utility.yul\":4086:4467   */\n      pop\n        /* \"#utility.yul\":4073:4074   */\n      0x01\n        /* \"#utility.yul\":4070:4071   */\n      dup2\n        /* \"#utility.yul\":4066:4075   */\n      add\n        /* \"#utility.yul\":4061:4075   */\n      swap1\n      pop\n        /* \"#utility.yul\":4026:4467   */\n      jump(tag_520)\n    tag_522:\n        /* \"#utility.yul\":4030:4044   */\n      pop\n        /* \"#utility.yul\":4483:4487   */\n      dup3\n        /* \"#utility.yul\":4476:4487   */\n      swap8\n      pop\n        /* \"#utility.yul\":4503:4506   */\n      dup8\n        /* \"#utility.yul\":4496:4506   */\n      swap6\n      pop\n        /* \"#utility.yul\":3575:4512   */\n      pop\n      pop\n      pop\n      pop\n      pop\n        /* \"#utility.yul\":3401:4512   */\n      swap3\n      swap2\n      pop\n      pop\n      jump\t// out\n        /* \"#utility.yul\":4518:4991   */\n    tag_16:\n        /* \"#utility.yul\":4711:4715   */\n      0x00\n        /* \"#utility.yul\":4749:4751   */\n      0x20\n        /* \"#utility.yul\":4738:4747   */\n      dup3\n        /* \"#utility.yul\":4734:4752   */\n      add\n        /* \"#utility.yul\":4726:4752   */\n      swap1\n      pop\n        /* \"#utility.yul\":4798:4807   */\n      dup2\n        /* \"#utility.yul\":4792:4796   */\n      dup2\n        /* \"#utility.yul\":4788:4808   */\n      sub\n        /* \"#utility.yul\":4784:4785   */\n      0x00\n        /* \"#utility.yul\":4773:4782   */\n      dup4\n        /* \"#utility.yul\":4769:4786   */\n      add\n        /* \"#utility.yul\":4762:4809   */\n      mstore\n        /* \"#utility.yul\":4826:4984   */\n      tag_526\n        /* \"#utility.yul\":4979:4983   */\n      dup2\n        /* \"#utility.yul\":4970:4976   */\n      dup5\n        /* \"#utility.yul\":4826:4984   */\n      tag_415\n      jump\t// in\n    tag_526:\n        /* \"#utility.yul\":4818:4984   */\n      swap1\n      pop\n        /* \"#utility.yul\":4518:4991   */\n      swap3\n      swap2\n      pop\n      pop\n      jump\t// out\n        /* \"#utility.yul\":4997:5166   */\n    tag_416:\n        /* \"#utility.yul\":5081:5092   */\n      0x00\n        /* \"#utility.yul\":5115:5121   */\n      dup3\n        /* \"#utility.yul\":5110:5113   */\n      dup3\n        /* \"#utility.yul\":5103:5122   */\n      mstore\n        /* \"#utility.yul\":5155:5159   */\n      0x20\n        /* \"#utility.yul\":5150:5153   */\n      dup3\n        /* \"#utility.yul\":5146:5160   */\n      add\n        /* \"#utility.yul\":5131:5160   */\n      swap1\n      pop\n        /* \"#utility.yul\":4997:5166   */\n      swap3\n      swap2\n      pop\n      pop\n      jump\t// out\n        /* \"#utility.yul\":5172:5549   */\n    tag_417:\n        /* \"#utility.yul\":5260:5263   */\n      0x00\n        /* \"#utility.yul\":5288:5327   */\n      tag_529\n        /* \"#utility.yul\":5321:5326   */\n      dup3\n        /* \"#utility.yul\":5288:5327   */\n      tag_405\n      jump\t// in\n    tag_529:\n        /* \"#utility.yul\":5343:5414   */\n      tag_530\n        /* \"#utility.yul\":5407:5413   */\n      dup2\n        /* \"#utility.yul\":5402:5405   */\n      dup6\n        /* \"#utility.yul\":5343:5414   */\n      tag_416\n      jump\t// in\n    tag_530:\n        /* \"#utility.yul\":5336:5414   */\n      swap4\n      pop\n        /* \"#utility.yul\":5423:5488   */\n      tag_531\n        /* \"#utility.yul\":5481:5487   */\n      dup2\n        /* \"#utility.yul\":5476:5479   */\n      dup6\n        /* \"#utility.yul\":5469:5473   */\n      0x20\n        /* \"#utility.yul\":5462:5467   */\n      dup7\n        /* \"#utility.yul\":5458:5474   */\n      add\n        /* \"#utility.yul\":5423:5488   */\n      tag_407\n      jump\t// in\n    tag_531:\n        /* \"#utility.yul\":5513:5542   */\n      tag_532\n        /* \"#utility.yul\":5535:5541   */\n      dup2\n        /* \"#utility.yul\":5513:5542   */\n      tag_408\n      jump\t// in\n    tag_532:\n        /* \"#utility.yul\":5508:5511   */\n      dup5\n        /* \"#utility.yul\":5504:5543   */\n      add\n        /* \"#utility.yul\":5497:5543   */\n      swap2\n      pop\n        /* \"#utility.yul\":5264:5549   */\n      pop\n        /* \"#utility.yul\":5172:5549   */\n      swap3\n      swap2\n      pop\n      pop\n      jump\t// out\n        /* \"#utility.yul\":5555:5868   */\n    tag_20:\n        /* \"#utility.yul\":5668:5672   */\n      0x00\n        /* \"#utility.yul\":5706:5708   */\n      0x20\n        /* \"#utility.yul\":5695:5704   */\n      dup3\n        /* \"#utility.yul\":5691:5709   */\n      add\n        /* \"#utility.yul\":5683:5709   */\n      swap1\n      pop\n        /* \"#utility.yul\":5755:5764   */\n      dup2\n        /* \"#utility.yul\":5749:5753   */\n      dup2\n        /* \"#utility.yul\":5745:5765   */\n      sub\n        /* \"#utility.yul\":5741:5742   */\n      0x00\n        /* \"#utility.yul\":5730:5739   */\n      dup4\n        /* \"#utility.yul\":5726:5743   */\n      add\n        /* \"#utility.yul\":5719:5766   */\n      mstore\n        /* \"#utility.yul\":5783:5861   */\n      tag_534\n        /* \"#utility.yul\":5856:5860   */\n      dup2\n        /* \"#utility.yul\":5847:5853   */\n      dup5\n        /* \"#utility.yul\":5783:5861   */\n      tag_417\n      jump\t// in\n    tag_534:\n        /* \"#utility.yul\":5775:5861   */\n      swap1\n      pop\n        /* \"#utility.yul\":5555:5868   */\n      swap3\n      swap2\n      pop\n      pop\n      jump\t// out\n        /* \"#utility.yul\":5874:5949   */\n    tag_418:\n        /* \"#utility.yul\":5907:5913   */\n      0x00\n        /* \"#utility.yul\":5940:5942   */\n      0x40\n        /* \"#utility.yul\":5934:5943   */\n      mload\n        /* \"#utility.yul\":5924:5943   */\n      swap1\n      pop\n        /* \"#utility.yul\":5874:5949   */\n      swap1\n      jump\t// out\n        /* \"#utility.yul\":5955:6072   */\n    tag_419:\n        /* \"#utility.yul\":6064:6065   */\n      0x00\n        /* \"#utility.yul\":6061:6062   */\n      dup1\n        /* \"#utility.yul\":6054:6066   */\n      revert\n        /* \"#utility.yul\":6078:6195   */\n    tag_420:\n        /* \"#utility.yul\":6187:6188   */\n      0x00\n        /* \"#utility.yul\":6184:6185   */\n      dup1\n        /* \"#utility.yul\":6177:6189   */\n      revert\n        /* \"#utility.yul\":6201:6318   */\n    tag_421:\n        /* \"#utility.yul\":6310:6311   */\n      0x00\n        /* \"#utility.yul\":6307:6308   */\n      dup1\n        /* \"#utility.yul\":6300:6312   */\n      revert\n        /* \"#utility.yul\":6324:6504   */\n    tag_52:\n        /* \"#utility.yul\":6372:6449   */\n      0x4e487b7100000000000000000000000000000000000000000000000000000000\n        /* \"#utility.yul\":6369:6370   */\n      0x00\n        /* \"#utility.yul\":6362:6450   */\n      mstore\n        /* \"#utility.yul\":6469:6473   */\n      0x41\n        /* \"#utility.yul\":6466:6467   */\n      0x04\n        /* \"#utility.yul\":6459:6474   */\n      mstore\n        /* \"#utility.yul\":6493:6497   */\n      0x24\n        /* \"#utility.yul\":6490:6491   */\n      0x00\n        /* \"#utility.yul\":6483:6498   */\n      revert\n        /* \"#utility.yul\":6510:6791   */\n    tag_422:\n        /* \"#utility.yul\":6593:6620   */\n      tag_541\n        /* \"#utility.yul\":6615:6619   */\n      dup3\n        /* \"#utility.yul\":6593:6620   */\n      tag_408\n      jump\t// in\n    tag_541:\n        /* \"#utility.yul\":6585:6591   */\n      dup2\n        /* \"#utility.yul\":6581:6621   */\n      add\n        /* \"#utility.yul\":6723:6729   */\n      dup2\n        /* \"#utility.yul\":6711:6721   */\n      dup2\n        /* \"#utility.yul\":6708:6730   */\n      lt\n        /* \"#utility.yul\":6687:6705   */\n      0xffffffffffffffff\n        /* \"#utility.yul\":6675:6685   */\n      dup3\n        /* \"#utility.yul\":6672:6706   */\n      gt\n        /* \"#utility.yul\":6669:6731   */\n      or\n        /* \"#utility.yul\":6666:6754   */\n      iszero\n      tag_542\n      jumpi\n        /* \"#utility.yul\":6734:6752   */\n      tag_543\n      tag_52\n      jump\t// in\n    tag_543:\n        /* \"#utility.yul\":6666:6754   */\n    tag_542:\n        /* \"#utility.yul\":6774:6784   */\n      dup1\n        /* \"#utility.yul\":6770:6772   */\n      0x40\n        /* \"#utility.yul\":6763:6785   */\n      mstore\n        /* \"#utility.yul\":6553:6791   */\n      pop\n        /* \"#utility.yul\":6510:6791   */\n      pop\n      pop\n      jump\t// out\n        /* \"#utility.yul\":6797:6926   */\n    tag_423:\n        /* \"#utility.yul\":6831:6837   */\n      0x00\n        /* \"#utility.yul\":6858:6878   */\n      tag_545\n      tag_418\n      jump\t// in\n    tag_545:\n        /* \"#utility.yul\":6848:6878   */\n      swap1\n      pop\n        /* \"#utility.yul\":6887:6920   */\n      tag_546\n        /* \"#utility.yul\":6915:6919   */\n      dup3\n        /* \"#utility.yul\":6907:6913   */\n      dup3\n        /* \"#utility.yul\":6887:6920   */\n      tag_422\n      jump\t// in\n    tag_546:\n        /* \"#utility.yul\":6797:6926   */\n      swap2\n      swap1\n      pop\n      jump\t// out\n        /* \"#utility.yul\":6932:7253   */\n    tag_424:\n        /* \"#utility.yul\":7019:7023   */\n      0x00\n        /* \"#utility.yul\":7109:7127   */\n      0xffffffffffffffff\n        /* \"#utility.yul\":7101:7107   */\n      dup3\n        /* \"#utility.yul\":7098:7128   */\n      gt\n        /* \"#utility.yul\":7095:7151   */\n      iszero\n      tag_548\n      jumpi\n        /* \"#utility.yul\":7131:7149   */\n      tag_549\n      tag_52\n      jump\t// in\n    tag_549:\n        /* \"#utility.yul\":7095:7151   */\n    tag_548:\n        /* \"#utility.yul\":7181:7185   */\n      0x20\n        /* \"#utility.yul\":7173:7179   */\n      dup3\n        /* \"#utility.yul\":7169:7186   */\n      mul\n        /* \"#utility.yul\":7161:7186   */\n      swap1\n      pop\n        /* \"#utility.yul\":7241:7245   */\n      0x20\n        /* \"#utility.yul\":7235:7239   */\n      dup2\n        /* \"#utility.yul\":7231:7246   */\n      add\n        /* \"#utility.yul\":7223:7246   */\n      swap1\n      pop\n        /* \"#utility.yul\":6932:7253   */\n      swap2\n      swap1\n      pop\n      jump\t// out\n        /* \"#utility.yul\":7259:7376   */\n    tag_425:\n        /* \"#utility.yul\":7368:7369   */\n      0x00\n        /* \"#utility.yul\":7365:7366   */\n      dup1\n        /* \"#utility.yul\":7358:7370   */\n      revert\n        /* \"#utility.yul\":7382:7499   */\n    tag_426:\n        /* \"#utility.yul\":7491:7492   */\n      0x00\n        /* \"#utility.yul\":7488:7489   */\n      dup1\n        /* \"#utility.yul\":7481:7493   */\n      revert\n        /* \"#utility.yul\":7505:7813   */\n    tag_427:\n        /* \"#utility.yul\":7567:7571   */\n      0x00\n        /* \"#utility.yul\":7657:7675   */\n      0xffffffffffffffff\n        /* \"#utility.yul\":7649:7655   */\n      dup3\n        /* \"#utility.yul\":7646:7676   */\n      gt\n        /* \"#utility.yul\":7643:7699   */\n      iszero\n      tag_553\n      jumpi\n        /* \"#utility.yul\":7679:7697   */\n      tag_554\n      tag_52\n      jump\t// in\n    tag_554:\n        /* \"#utility.yul\":7643:7699   */\n    tag_553:\n        /* \"#utility.yul\":7717:7746   */\n      tag_555\n        /* \"#utility.yul\":7739:7745   */\n      dup3\n        /* \"#utility.yul\":7717:7746   */\n      tag_408\n      jump\t// in\n    tag_555:\n        /* \"#utility.yul\":7709:7746   */\n      swap1\n      pop\n        /* \"#utility.yul\":7801:7805   */\n      0x20\n        /* \"#utility.yul\":7795:7799   */\n      dup2\n        /* \"#utility.yul\":7791:7806   */\n      add\n        /* \"#utility.yul\":7783:7806   */\n      swap1\n      pop\n        /* \"#utility.yul\":7505:7813   */\n      swap2\n      swap1\n      pop\n      jump\t// out\n        /* \"#utility.yul\":7819:7967   */\n    tag_428:\n        /* \"#utility.yul\":7917:7923   */\n      dup3\n        /* \"#utility.yul\":7912:7915   */\n      dup2\n        /* \"#utility.yul\":7907:7910   */\n      dup4\n        /* \"#utility.yul\":7894:7924   */\n      calldatacopy\n        /* \"#utility.yul\":7958:7959   */\n      0x00\n        /* \"#utility.yul\":7949:7955   */\n      dup4\n        /* \"#utility.yul\":7944:7947   */\n      dup4\n        /* \"#utility.yul\":7940:7956   */\n      add\n        /* \"#utility.yul\":7933:7960   */\n      mstore\n        /* \"#utility.yul\":7819:7967   */\n      pop\n      pop\n      pop\n      jump\t// out\n        /* \"#utility.yul\":7973:8398   */\n    tag_429:\n        /* \"#utility.yul\":8051:8056   */\n      0x00\n        /* \"#utility.yul\":8076:8142   */\n      tag_558\n        /* \"#utility.yul\":8092:8141   */\n      tag_559\n        /* \"#utility.yul\":8134:8140   */\n      dup5\n        /* \"#utility.yul\":8092:8141   */\n      tag_427\n      jump\t// in\n    tag_559:\n        /* \"#utility.yul\":8076:8142   */\n      tag_423\n      jump\t// in\n    tag_558:\n        /* \"#utility.yul\":8067:8142   */\n      swap1\n      pop\n        /* \"#utility.yul\":8165:8171   */\n      dup3\n        /* \"#utility.yul\":8158:8163   */\n      dup2\n        /* \"#utility.yul\":8151:8172   */\n      mstore\n        /* \"#utility.yul\":8203:8207   */\n      0x20\n        /* \"#utility.yul\":8196:8201   */\n      dup2\n        /* \"#utility.yul\":8192:8208   */\n      add\n        /* \"#utility.yul\":8241:8244   */\n      dup5\n        /* \"#utility.yul\":8232:8238   */\n      dup5\n        /* \"#utility.yul\":8227:8230   */\n      dup5\n        /* \"#utility.yul\":8223:8239   */\n      add\n        /* \"#utility.yul\":8220:8245   */\n      gt\n        /* \"#utility.yul\":8217:8329   */\n      iszero\n      tag_560\n      jumpi\n        /* \"#utility.yul\":8248:8327   */\n      tag_561\n      tag_426\n      jump\t// in\n    tag_561:\n        /* \"#utility.yul\":8217:8329   */\n    tag_560:\n        /* \"#utility.yul\":8338:8392   */\n      tag_562\n        /* \"#utility.yul\":8385:8391   */\n      dup5\n        /* \"#utility.yul\":8380:8383   */\n      dup3\n        /* \"#utility.yul\":8375:8378   */\n      dup6\n        /* \"#utility.yul\":8338:8392   */\n      tag_428\n      jump\t// in\n    tag_562:\n        /* \"#utility.yul\":8057:8398   */\n      pop\n        /* \"#utility.yul\":7973:8398   */\n      swap4\n      swap3\n      pop\n      pop\n      pop\n      jump\t// out\n        /* \"#utility.yul\":8418:8758   */\n    tag_430:\n        /* \"#utility.yul\":8474:8479   */\n      0x00\n        /* \"#utility.yul\":8523:8526   */\n      dup3\n        /* \"#utility.yul\":8516:8520   */\n      0x1f\n        /* \"#utility.yul\":8508:8514   */\n      dup4\n        /* \"#utility.yul\":8504:8521   */\n      add\n        /* \"#utility.yul\":8500:8527   */\n      slt\n        /* \"#utility.yul\":8490:8612   */\n      tag_564\n      jumpi\n        /* \"#utility.yul\":8531:8610   */\n      tag_565\n      tag_421\n      jump\t// in\n    tag_565:\n        /* \"#utility.yul\":8490:8612   */\n    tag_564:\n        /* \"#utility.yul\":8648:8654   */\n      dup2\n        /* \"#utility.yul\":8635:8655   */\n      calldataload\n        /* \"#utility.yul\":8673:8752   */\n      tag_566\n        /* \"#utility.yul\":8748:8751   */\n      dup5\n        /* \"#utility.yul\":8740:8746   */\n      dup3\n        /* \"#utility.yul\":8733:8737   */\n      0x20\n        /* \"#utility.yul\":8725:8731   */\n      dup7\n        /* \"#utility.yul\":8721:8738   */\n      add\n        /* \"#utility.yul\":8673:8752   */\n      tag_429\n      jump\t// in\n    tag_566:\n        /* \"#utility.yul\":8664:8752   */\n      swap2\n      pop\n        /* \"#utility.yul\":8480:8758   */\n      pop\n        /* \"#utility.yul\":8418:8758   */\n      swap3\n      swap2\n      pop\n      pop\n      jump\t// out\n        /* \"#utility.yul\":8780:9725   */\n    tag_431:\n        /* \"#utility.yul\":8886:8891   */\n      0x00\n        /* \"#utility.yul\":8911:9002   */\n      tag_568\n        /* \"#utility.yul\":8927:9001   */\n      tag_569\n        /* \"#utility.yul\":8994:9000   */\n      dup5\n        /* \"#utility.yul\":8927:9001   */\n      tag_424\n      jump\t// in\n    tag_569:\n        /* \"#utility.yul\":8911:9002   */\n      tag_423\n      jump\t// in\n    tag_568:\n        /* \"#utility.yul\":8902:9002   */\n      swap1\n      pop\n        /* \"#utility.yul\":9022:9027   */\n      dup1\n        /* \"#utility.yul\":9051:9057   */\n      dup4\n        /* \"#utility.yul\":9044:9049   */\n      dup3\n        /* \"#utility.yul\":9037:9058   */\n      mstore\n        /* \"#utility.yul\":9085:9089   */\n      0x20\n        /* \"#utility.yul\":9078:9083   */\n      dup3\n        /* \"#utility.yul\":9074:9090   */\n      add\n        /* \"#utility.yul\":9067:9090   */\n      swap1\n      pop\n        /* \"#utility.yul\":9138:9142   */\n      0x20\n        /* \"#utility.yul\":9130:9136   */\n      dup5\n        /* \"#utility.yul\":9126:9143   */\n      mul\n        /* \"#utility.yul\":9118:9124   */\n      dup4\n        /* \"#utility.yul\":9114:9144   */\n      add\n        /* \"#utility.yul\":9167:9170   */\n      dup6\n        /* \"#utility.yul\":9159:9165   */\n      dup2\n        /* \"#utility.yul\":9156:9171   */\n      gt\n        /* \"#utility.yul\":9153:9275   */\n      iszero\n      tag_570\n      jumpi\n        /* \"#utility.yul\":9186:9265   */\n      tag_571\n      tag_425\n      jump\t// in\n    tag_571:\n        /* \"#utility.yul\":9153:9275   */\n    tag_570:\n        /* \"#utility.yul\":9301:9307   */\n      dup4\n        /* \"#utility.yul\":9284:9719   */\n    tag_572:\n        /* \"#utility.yul\":9318:9324   */\n      dup2\n        /* \"#utility.yul\":9313:9316   */\n      dup2\n        /* \"#utility.yul\":9310:9325   */\n      lt\n        /* \"#utility.yul\":9284:9719   */\n      iszero\n      tag_574\n      jumpi\n        /* \"#utility.yul\":9407:9410   */\n      dup1\n        /* \"#utility.yul\":9394:9411   */\n      calldataload\n        /* \"#utility.yul\":9443:9461   */\n      0xffffffffffffffff\n        /* \"#utility.yul\":9430:9441   */\n      dup2\n        /* \"#utility.yul\":9427:9462   */\n      gt\n        /* \"#utility.yul\":9424:9546   */\n      iszero\n      tag_575\n      jumpi\n        /* \"#utility.yul\":9465:9544   */\n      tag_576\n      tag_421\n      jump\t// in\n    tag_576:\n        /* \"#utility.yul\":9424:9546   */\n    tag_575:\n        /* \"#utility.yul\":9589:9600   */\n      dup1\n        /* \"#utility.yul\":9581:9587   */\n      dup7\n        /* \"#utility.yul\":9577:9601   */\n      add\n        /* \"#utility.yul\":9627:9674   */\n      tag_577\n        /* \"#utility.yul\":9670:9673   */\n      dup10\n        /* \"#utility.yul\":9658:9668   */\n      dup3\n        /* \"#utility.yul\":9627:9674   */\n      tag_430\n      jump\t// in\n    tag_577:\n        /* \"#utility.yul\":9622:9625   */\n      dup6\n        /* \"#utility.yul\":9615:9675   */\n      mstore\n        /* \"#utility.yul\":9704:9708   */\n      0x20\n        /* \"#utility.yul\":9699:9702   */\n      dup6\n        /* \"#utility.yul\":9695:9709   */\n      add\n        /* \"#utility.yul\":9688:9709   */\n      swap5\n      pop\n        /* \"#utility.yul\":9360:9719   */\n      pop\n      pop\n        /* \"#utility.yul\":9344:9348   */\n      0x20\n        /* \"#utility.yul\":9339:9342   */\n      dup2\n        /* \"#utility.yul\":9335:9349   */\n      add\n        /* \"#utility.yul\":9328:9349   */\n      swap1\n      pop\n        /* \"#utility.yul\":9284:9719   */\n      jump(tag_572)\n    tag_574:\n        /* \"#utility.yul\":9288:9309   */\n      pop\n        /* \"#utility.yul\":8892:9725   */\n      pop\n      pop\n        /* \"#utility.yul\":8780:9725   */\n      swap4\n      swap3\n      pop\n      pop\n      pop\n      jump\t// out\n        /* \"#utility.yul\":9747:10137   */\n    tag_432:\n        /* \"#utility.yul\":9828:9833   */\n      0x00\n        /* \"#utility.yul\":9877:9880   */\n      dup3\n        /* \"#utility.yul\":9870:9874   */\n      0x1f\n        /* \"#utility.yul\":9862:9868   */\n      dup4\n        /* \"#utility.yul\":9858:9875   */\n      add\n        /* \"#utility.yul\":9854:9881   */\n      slt\n        /* \"#utility.yul\":9844:9966   */\n      tag_579\n      jumpi\n        /* \"#utility.yul\":9885:9964   */\n      tag_580\n      tag_421\n      jump\t// in\n    tag_580:\n        /* \"#utility.yul\":9844:9966   */\n    tag_579:\n        /* \"#utility.yul\":10002:10008   */\n      dup2\n        /* \"#utility.yul\":9989:10009   */\n      calldataload\n        /* \"#utility.yul\":10027:10131   */\n      tag_581\n        /* \"#utility.yul\":10127:10130   */\n      dup5\n        /* \"#utility.yul\":10119:10125   */\n      dup3\n        /* \"#utility.yul\":10112:10116   */\n      0x20\n        /* \"#utility.yul\":10104:10110   */\n      dup7\n        /* \"#utility.yul\":10100:10117   */\n      add\n        /* \"#utility.yul\":10027:10131   */\n      tag_431\n      jump\t// in\n    tag_581:\n        /* \"#utility.yul\":10018:10131   */\n      swap2\n      pop\n        /* \"#utility.yul\":9834:10137   */\n      pop\n        /* \"#utility.yul\":9747:10137   */\n      swap3\n      swap2\n      pop\n      pop\n      jump\t// out\n        /* \"#utility.yul\":10143:10702   */\n    tag_23:\n        /* \"#utility.yul\":10237:10243   */\n      0x00\n        /* \"#utility.yul\":10286:10288   */\n      0x20\n        /* \"#utility.yul\":10274:10283   */\n      dup3\n        /* \"#utility.yul\":10265:10272   */\n      dup5\n        /* \"#utility.yul\":10261:10284   */\n      sub\n        /* \"#utility.yul\":10257:10289   */\n      slt\n        /* \"#utility.yul\":10254:10373   */\n      iszero\n      tag_583\n      jumpi\n        /* \"#utility.yul\":10292:10371   */\n      tag_584\n      tag_419\n      jump\t// in\n    tag_584:\n        /* \"#utility.yul\":10254:10373   */\n    tag_583:\n        /* \"#utility.yul\":10440:10441   */\n      0x00\n        /* \"#utility.yul\":10429:10438   */\n      dup3\n        /* \"#utility.yul\":10425:10442   */\n      add\n        /* \"#utility.yul\":10412:10443   */\n      calldataload\n        /* \"#utility.yul\":10470:10488   */\n      0xffffffffffffffff\n        /* \"#utility.yul\":10462:10468   */\n      dup2\n        /* \"#utility.yul\":10459:10489   */\n      gt\n        /* \"#utility.yul\":10456:10573   */\n      iszero\n      tag_585\n      jumpi\n        /* \"#utility.yul\":10492:10571   */\n      tag_586\n      tag_420\n      jump\t// in\n    tag_586:\n        /* \"#utility.yul\":10456:10573   */\n    tag_585:\n        /* \"#utility.yul\":10597:10685   */\n      tag_587\n        /* \"#utility.yul\":10677:10684   */\n      dup5\n        /* \"#utility.yul\":10668:10674   */\n      dup3\n        /* \"#utility.yul\":10657:10666   */\n      dup6\n        /* \"#utility.yul\":10653:10675   */\n      add\n        /* \"#utility.yul\":10597:10685   */\n      tag_432\n      jump\t// in\n    tag_587:\n        /* \"#utility.yul\":10587:10685   */\n      swap2\n      pop\n        /* \"#utility.yul\":10383:10695   */\n      pop\n        /* \"#utility.yul\":10143:10702   */\n      swap3\n      swap2\n      pop\n      pop\n      jump\t// out\n        /* \"#utility.yul\":10708:10907   */\n    tag_433:\n        /* \"#utility.yul\":10822:10833   */\n      0x00\n        /* \"#utility.yul\":10856:10862   */\n      dup3\n        /* \"#utility.yul\":10851:10854   */\n      dup3\n        /* \"#utility.yul\":10844:10863   */\n      mstore\n        /* \"#utility.yul\":10896:10900   */\n      0x20\n        /* \"#utility.yul\":10891:10894   */\n      dup3\n        /* \"#utility.yul\":10887:10901   */\n      add\n        /* \"#utility.yul\":10872:10901   */\n      swap1\n      pop\n        /* \"#utility.yul\":10708:10907   */\n      swap3\n      swap2\n      pop\n      pop\n      jump\t// out\n        /* \"#utility.yul\":10969:12060   */\n    tag_434:\n        /* \"#utility.yul\":11128:11131   */\n      0x00\n        /* \"#utility.yul\":11157:11236   */\n      tag_590\n        /* \"#utility.yul\":11230:11235   */\n      dup3\n        /* \"#utility.yul\":11157:11236   */\n      tag_402\n      jump\t// in\n    tag_590:\n        /* \"#utility.yul\":11252:11353   */\n      tag_591\n        /* \"#utility.yul\":11346:11352   */\n      dup2\n        /* \"#utility.yul\":11341:11344   */\n      dup6\n        /* \"#utility.yul\":11252:11353   */\n      tag_433\n      jump\t// in\n    tag_591:\n        /* \"#utility.yul\":11245:11353   */\n      swap4\n      pop\n        /* \"#utility.yul\":11379:11382   */\n      dup4\n        /* \"#utility.yul\":11424:11428   */\n      0x20\n        /* \"#utility.yul\":11416:11422   */\n      dup3\n        /* \"#utility.yul\":11412:11429   */\n      mul\n        /* \"#utility.yul\":11407:11410   */\n      dup6\n        /* \"#utility.yul\":11403:11430   */\n      add\n        /* \"#utility.yul\":11454:11535   */\n      tag_592\n        /* \"#utility.yul\":11529:11534   */\n      dup6\n        /* \"#utility.yul\":11454:11535   */\n      tag_404\n      jump\t// in\n    tag_592:\n        /* \"#utility.yul\":11558:11565   */\n      dup1\n        /* \"#utility.yul\":11589:11590   */\n      0x00\n        /* \"#utility.yul\":11574:12015   */\n    tag_593:\n        /* \"#utility.yul\":11599:11605   */\n      dup6\n        /* \"#utility.yul\":11596:11597   */\n      dup2\n        /* \"#utility.yul\":11593:11606   */\n      lt\n        /* \"#utility.yul\":11574:12015   */\n      iszero\n      tag_595\n      jumpi\n        /* \"#utility.yul\":11670:11679   */\n      dup5\n        /* \"#utility.yul\":11664:11668   */\n      dup5\n        /* \"#utility.yul\":11660:11680   */\n      sub\n        /* \"#utility.yul\":11655:11658   */\n      dup10\n        /* \"#utility.yul\":11648:11681   */\n      mstore\n        /* \"#utility.yul\":11721:11727   */\n      dup2\n        /* \"#utility.yul\":11715:11728   */\n      mload\n        /* \"#utility.yul\":11749:11863   */\n      tag_596\n        /* \"#utility.yul\":11858:11862   */\n      dup6\n        /* \"#utility.yul\":11843:11856   */\n      dup3\n        /* \"#utility.yul\":11749:11863   */\n      tag_413\n      jump\t// in\n    tag_596:\n        /* \"#utility.yul\":11741:11863   */\n      swap5\n      pop\n        /* \"#utility.yul\":11886:11971   */\n      tag_597\n        /* \"#utility.yul\":11964:11970   */\n      dup4\n        /* \"#utility.yul\":11886:11971   */\n      tag_414\n      jump\t// in\n    tag_597:\n        /* \"#utility.yul\":11876:11971   */\n      swap3\n      pop\n        /* \"#utility.yul\":12000:12004   */\n      0x20\n        /* \"#utility.yul\":11995:11998   */\n      dup11\n        /* \"#utility.yul\":11991:12005   */\n      add\n        /* \"#utility.yul\":11984:12005   */\n      swap10\n      pop\n        /* \"#utility.yul\":11634:12015   */\n      pop\n        /* \"#utility.yul\":11621:11622   */\n      0x01\n        /* \"#utility.yul\":11618:11619   */\n      dup2\n        /* \"#utility.yul\":11614:11623   */\n      add\n        /* \"#utility.yul\":11609:11623   */\n      swap1\n      pop\n        /* \"#utility.yul\":11574:12015   */\n      jump(tag_593)\n    tag_595:\n        /* \"#utility.yul\":11578:11592   */\n      pop\n        /* \"#utility.yul\":12031:12035   */\n      dup3\n        /* \"#utility.yul\":12024:12035   */\n      swap8\n      pop\n        /* \"#utility.yul\":12051:12054   */\n      dup8\n        /* \"#utility.yul\":12044:12054   */\n      swap6\n      pop\n        /* \"#utility.yul\":11133:12060   */\n      pop\n      pop\n      pop\n      pop\n      pop\n        /* \"#utility.yul\":10969:12060   */\n      swap3\n      swap2\n      pop\n      pop\n      jump\t// out\n        /* \"#utility.yul\":12066:12190   */\n    tag_435:\n        /* \"#utility.yul\":12143:12149   */\n      0x00\n        /* \"#utility.yul\":12177:12182   */\n      dup2\n        /* \"#utility.yul\":12171:12183   */\n      mload\n        /* \"#utility.yul\":12161:12183   */\n      swap1\n      pop\n        /* \"#utility.yul\":12066:12190   */\n      swap2\n      swap1\n      pop\n      jump\t// out\n        /* \"#utility.yul\":12196:12380   */\n    tag_436:\n        /* \"#utility.yul\":12295:12306   */\n      0x00\n        /* \"#utility.yul\":12329:12335   */\n      dup3\n        /* \"#utility.yul\":12324:12327   */\n      dup3\n        /* \"#utility.yul\":12317:12336   */\n      mstore\n        /* \"#utility.yul\":12369:12373   */\n      0x20\n        /* \"#utility.yul\":12364:12367   */\n      dup3\n        /* \"#utility.yul\":12360:12374   */\n      add\n        /* \"#utility.yul\":12345:12374   */\n      swap1\n      pop\n        /* \"#utility.yul\":12196:12380   */\n      swap3\n      swap2\n      pop\n      pop\n      jump\t// out\n        /* \"#utility.yul\":12386:12528   */\n    tag_437:\n        /* \"#utility.yul\":12463:12467   */\n      0x00\n        /* \"#utility.yul\":12486:12489   */\n      dup2\n        /* \"#utility.yul\":12478:12489   */\n      swap1\n      pop\n        /* \"#utility.yul\":12516:12520   */\n      0x20\n        /* \"#utility.yul\":12511:12514   */\n      dup3\n        /* \"#utility.yul\":12507:12521   */\n      add\n        /* \"#utility.yul\":12499:12521   */\n      swap1\n      pop\n        /* \"#utility.yul\":12386:12528   */\n      swap2\n      swap1\n      pop\n      jump\t// out\n        /* \"#utility.yul\":12534:12730   */\n    tag_438:\n        /* \"#utility.yul\":12623:12633   */\n      0x00\n        /* \"#utility.yul\":12658:12724   */\n      tag_602\n        /* \"#utility.yul\":12720:12723   */\n      dup4\n        /* \"#utility.yul\":12712:12718   */\n      dup4\n        /* \"#utility.yul\":12658:12724   */\n      tag_409\n      jump\t// in\n    tag_602:\n        /* \"#utility.yul\":12644:12724   */\n      swap1\n      pop\n        /* \"#utility.yul\":12534:12730   */\n      swap3\n      swap2\n      pop\n      pop\n      jump\t// out\n        /* \"#utility.yul\":12736:12859   */\n    tag_439:\n        /* \"#utility.yul\":12816:12820   */\n      0x00\n        /* \"#utility.yul\":12848:12852   */\n      0x20\n        /* \"#utility.yul\":12843:12846   */\n      dup3\n        /* \"#utility.yul\":12839:12853   */\n      add\n        /* \"#utility.yul\":12831:12853   */\n      swap1\n      pop\n        /* \"#utility.yul\":12736:12859   */\n      swap2\n      swap1\n      pop\n      jump\t// out\n        /* \"#utility.yul\":12893:13864   */\n    tag_440:\n        /* \"#utility.yul\":13022:13025   */\n      0x00\n        /* \"#utility.yul\":13051:13115   */\n      tag_605\n        /* \"#utility.yul\":13109:13114   */\n      dup3\n        /* \"#utility.yul\":13051:13115   */\n      tag_435\n      jump\t// in\n    tag_605:\n        /* \"#utility.yul\":13131:13217   */\n      tag_606\n        /* \"#utility.yul\":13210:13216   */\n      dup2\n        /* \"#utility.yul\":13205:13208   */\n      dup6\n        /* \"#utility.yul\":13131:13217   */\n      tag_436\n      jump\t// in\n    tag_606:\n        /* \"#utility.yul\":13124:13217   */\n      swap4\n      pop\n        /* \"#utility.yul\":13243:13246   */\n      dup4\n        /* \"#utility.yul\":13288:13292   */\n      0x20\n        /* \"#utility.yul\":13280:13286   */\n      dup3\n        /* \"#utility.yul\":13276:13293   */\n      mul\n        /* \"#utility.yul\":13271:13274   */\n      dup6\n        /* \"#utility.yul\":13267:13294   */\n      add\n        /* \"#utility.yul\":13318:13384   */\n      tag_607\n        /* \"#utility.yul\":13378:13383   */\n      dup6\n        /* \"#utility.yul\":13318:13384   */\n      tag_437\n      jump\t// in\n    tag_607:\n        /* \"#utility.yul\":13407:13414   */\n      dup1\n        /* \"#utility.yul\":13438:13439   */\n      0x00\n        /* \"#utility.yul\":13423:13819   */\n    tag_608:\n        /* \"#utility.yul\":13448:13454   */\n      dup6\n        /* \"#utility.yul\":13445:13446   */\n      dup2\n        /* \"#utility.yul\":13442:13455   */\n      lt\n        /* \"#utility.yul\":13423:13819   */\n      iszero\n      tag_610\n      jumpi\n        /* \"#utility.yul\":13519:13528   */\n      dup5\n        /* \"#utility.yul\":13513:13517   */\n      dup5\n        /* \"#utility.yul\":13509:13529   */\n      sub\n        /* \"#utility.yul\":13504:13507   */\n      dup10\n        /* \"#utility.yul\":13497:13530   */\n      mstore\n        /* \"#utility.yul\":13570:13576   */\n      dup2\n        /* \"#utility.yul\":13564:13577   */\n      mload\n        /* \"#utility.yul\":13598:13682   */\n      tag_611\n        /* \"#utility.yul\":13677:13681   */\n      dup6\n        /* \"#utility.yul\":13662:13675   */\n      dup3\n        /* \"#utility.yul\":13598:13682   */\n      tag_438\n      jump\t// in\n    tag_611:\n        /* \"#utility.yul\":13590:13682   */\n      swap5\n      pop\n        /* \"#utility.yul\":13705:13775   */\n      tag_612\n        /* \"#utility.yul\":13768:13774   */\n      dup4\n        /* \"#utility.yul\":13705:13775   */\n      tag_439\n      jump\t// in\n    tag_612:\n        /* \"#utility.yul\":13695:13775   */\n      swap3\n      pop\n        /* \"#utility.yul\":13804:13808   */\n      0x20\n        /* \"#utility.yul\":13799:13802   */\n      dup11\n        /* \"#utility.yul\":13795:13809   */\n      add\n        /* \"#utility.yul\":13788:13809   */\n      swap10\n      pop\n        /* \"#utility.yul\":13483:13819   */\n      pop\n        /* \"#utility.yul\":13470:13471   */\n      0x01\n        /* \"#utility.yul\":13467:13468   */\n      dup2\n        /* \"#utility.yul\":13463:13472   */\n      add\n        /* \"#utility.yul\":13458:13472   */\n      swap1\n      pop\n        /* \"#utility.yul\":13423:13819   */\n      jump(tag_608)\n    tag_610:\n        /* \"#utility.yul\":13427:13441   */\n      pop\n        /* \"#utility.yul\":13835:13839   */\n      dup3\n        /* \"#utility.yul\":13828:13839   */\n      swap8\n      pop\n        /* \"#utility.yul\":13855:13858   */\n      dup8\n        /* \"#utility.yul\":13848:13858   */\n      swap6\n      pop\n        /* \"#utility.yul\":13027:13864   */\n      pop\n      pop\n      pop\n      pop\n      pop\n        /* \"#utility.yul\":12893:13864   */\n      swap3\n      swap2\n      pop\n      pop\n      jump\t// out\n        /* \"#utility.yul\":13926:15505   */\n    tag_441:\n        /* \"#utility.yul\":14049:14052   */\n      0x00\n        /* \"#utility.yul\":14085:14089   */\n      0xa0\n        /* \"#utility.yul\":14080:14083   */\n      dup4\n        /* \"#utility.yul\":14076:14090   */\n      add\n        /* \"#utility.yul\":14172:14176   */\n      0x00\n        /* \"#utility.yul\":14165:14170   */\n      dup4\n        /* \"#utility.yul\":14161:14177   */\n      add\n        /* \"#utility.yul\":14155:14178   */\n      mload\n        /* \"#utility.yul\":14225:14228   */\n      dup5\n        /* \"#utility.yul\":14219:14223   */\n      dup3\n        /* \"#utility.yul\":14215:14229   */\n      sub\n        /* \"#utility.yul\":14208:14212   */\n      0x00\n        /* \"#utility.yul\":14203:14206   */\n      dup7\n        /* \"#utility.yul\":14199:14213   */\n      add\n        /* \"#utility.yul\":14192:14230   */\n      mstore\n        /* \"#utility.yul\":14251:14324   */\n      tag_614\n        /* \"#utility.yul\":14319:14323   */\n      dup3\n        /* \"#utility.yul\":14305:14317   */\n      dup3\n        /* \"#utility.yul\":14251:14324   */\n      tag_409\n      jump\t// in\n    tag_614:\n        /* \"#utility.yul\":14243:14324   */\n      swap2\n      pop\n        /* \"#utility.yul\":14100:14335   */\n      pop\n        /* \"#utility.yul\":14422:14426   */\n      0x20\n        /* \"#utility.yul\":14415:14420   */\n      dup4\n        /* \"#utility.yul\":14411:14427   */\n      add\n        /* \"#utility.yul\":14405:14428   */\n      mload\n        /* \"#utility.yul\":14441:14504   */\n      tag_615\n        /* \"#utility.yul\":14498:14502   */\n      0x20\n        /* \"#utility.yul\":14493:14496   */\n      dup7\n        /* \"#utility.yul\":14489:14503   */\n      add\n        /* \"#utility.yul\":14475:14487   */\n      dup3\n        /* \"#utility.yul\":14441:14504   */\n      tag_411\n      jump\t// in\n    tag_615:\n        /* \"#utility.yul\":14345:14514   */\n      pop\n        /* \"#utility.yul\":14597:14601   */\n      0x40\n        /* \"#utility.yul\":14590:14595   */\n      dup4\n        /* \"#utility.yul\":14586:14602   */\n      add\n        /* \"#utility.yul\":14580:14603   */\n      mload\n        /* \"#utility.yul\":14650:14653   */\n      dup5\n        /* \"#utility.yul\":14644:14648   */\n      dup3\n        /* \"#utility.yul\":14640:14654   */\n      sub\n        /* \"#utility.yul\":14633:14637   */\n      0x40\n        /* \"#utility.yul\":14628:14631   */\n      dup7\n        /* \"#utility.yul\":14624:14638   */\n      add\n        /* \"#utility.yul\":14617:14655   */\n      mstore\n        /* \"#utility.yul\":14676:14829   */\n      tag_616\n        /* \"#utility.yul\":14824:14828   */\n      dup3\n        /* \"#utility.yul\":14810:14822   */\n      dup3\n        /* \"#utility.yul\":14676:14829   */\n      tag_434\n      jump\t// in\n    tag_616:\n        /* \"#utility.yul\":14668:14829   */\n      swap2\n      pop\n        /* \"#utility.yul\":14524:14840   */\n      pop\n        /* \"#utility.yul\":14932:14936   */\n      0x60\n        /* \"#utility.yul\":14925:14930   */\n      dup4\n        /* \"#utility.yul\":14921:14937   */\n      add\n        /* \"#utility.yul\":14915:14938   */\n      mload\n        /* \"#utility.yul\":14985:14988   */\n      dup5\n        /* \"#utility.yul\":14979:14983   */\n      dup3\n        /* \"#utility.yul\":14975:14989   */\n      sub\n        /* \"#utility.yul\":14968:14972   */\n      0x60\n        /* \"#utility.yul\":14963:14966   */\n      dup7\n        /* \"#utility.yul\":14959:14973   */\n      add\n        /* \"#utility.yul\":14952:14990   */\n      mstore\n        /* \"#utility.yul\":15011:15134   */\n      tag_617\n        /* \"#utility.yul\":15129:15133   */\n      dup3\n        /* \"#utility.yul\":15115:15127   */\n      dup3\n        /* \"#utility.yul\":15011:15134   */\n      tag_440\n      jump\t// in\n    tag_617:\n        /* \"#utility.yul\":15003:15134   */\n      swap2\n      pop\n        /* \"#utility.yul\":14850:15145   */\n      pop\n        /* \"#utility.yul\":15235:15239   */\n      0x80\n        /* \"#utility.yul\":15228:15233   */\n      dup4\n        /* \"#utility.yul\":15224:15240   */\n      add\n        /* \"#utility.yul\":15218:15241   */\n      mload\n        /* \"#utility.yul\":15288:15291   */\n      dup5\n        /* \"#utility.yul\":15282:15286   */\n      dup3\n        /* \"#utility.yul\":15278:15292   */\n      sub\n        /* \"#utility.yul\":15271:15275   */\n      0x80\n        /* \"#utility.yul\":15266:15269   */\n      dup7\n        /* \"#utility.yul\":15262:15276   */\n      add\n        /* \"#utility.yul\":15255:15293   */\n      mstore\n        /* \"#utility.yul\":15314:15467   */\n      tag_618\n        /* \"#utility.yul\":15462:15466   */\n      dup3\n        /* \"#utility.yul\":15448:15460   */\n      dup3\n        /* \"#utility.yul\":15314:15467   */\n      tag_434\n      jump\t// in\n    tag_618:\n        /* \"#utility.yul\":15306:15467   */\n      swap2\n      pop\n        /* \"#utility.yul\":15155:15478   */\n      pop\n        /* \"#utility.yul\":15495:15499   */\n      dup1\n        /* \"#utility.yul\":15488:15499   */\n      swap2\n      pop\n        /* \"#utility.yul\":14054:15505   */\n      pop\n        /* \"#utility.yul\":13926:15505   */\n      swap3\n      swap2\n      pop\n      pop\n      jump\t// out\n        /* \"#utility.yul\":15511:15892   */\n    tag_26:\n        /* \"#utility.yul\":15658:15662   */\n      0x00\n        /* \"#utility.yul\":15696:15698   */\n      0x20\n        /* \"#utility.yul\":15685:15694   */\n      dup3\n        /* \"#utility.yul\":15681:15699   */\n      add\n        /* \"#utility.yul\":15673:15699   */\n      swap1\n      pop\n        /* \"#utility.yul\":15745:15754   */\n      dup2\n        /* \"#utility.yul\":15739:15743   */\n      dup2\n        /* \"#utility.yul\":15735:15755   */\n      sub\n        /* \"#utility.yul\":15731:15732   */\n      0x00\n        /* \"#utility.yul\":15720:15729   */\n      dup4\n        /* \"#utility.yul\":15716:15733   */\n      add\n        /* \"#utility.yul\":15709:15756   */\n      mstore\n        /* \"#utility.yul\":15773:15885   */\n      tag_620\n        /* \"#utility.yul\":15880:15884   */\n      dup2\n        /* \"#utility.yul\":15871:15877   */\n      dup5\n        /* \"#utility.yul\":15773:15885   */\n      tag_441\n      jump\t// in\n    tag_620:\n        /* \"#utility.yul\":15765:15885   */\n      swap1\n      pop\n        /* \"#utility.yul\":15511:15892   */\n      swap3\n      swap2\n      pop\n      pop\n      jump\t// out\n        /* \"#utility.yul\":15898:16782   */\n    tag_29:\n        /* \"#utility.yul\":16011:16017   */\n      0x00\n        /* \"#utility.yul\":16019:16025   */\n      dup1\n        /* \"#utility.yul\":16068:16070   */\n      0x40\n        /* \"#utility.yul\":16056:16065   */\n      dup4\n        /* \"#utility.yul\":16047:16054   */\n      dup6\n        /* \"#utility.yul\":16043:16066   */\n      sub\n        /* \"#utility.yul\":16039:16071   */\n      slt\n        /* \"#utility.yul\":16036:16155   */\n      iszero\n      tag_622\n      jumpi\n        /* \"#utility.yul\":16074:16153   */\n      tag_623\n      tag_419\n      jump\t// in\n    tag_623:\n        /* \"#utility.yul\":16036:16155   */\n    tag_622:\n        /* \"#utility.yul\":16222:16223   */\n      0x00\n        /* \"#utility.yul\":16211:16220   */\n      dup4\n        /* \"#utility.yul\":16207:16224   */\n      add\n        /* \"#utility.yul\":16194:16225   */\n      calldataload\n        /* \"#utility.yul\":16252:16270   */\n      0xffffffffffffffff\n        /* \"#utility.yul\":16244:16250   */\n      dup2\n        /* \"#utility.yul\":16241:16271   */\n      gt\n        /* \"#utility.yul\":16238:16355   */\n      iszero\n      tag_624\n      jumpi\n        /* \"#utility.yul\":16274:16353   */\n      tag_625\n      tag_420\n      jump\t// in\n    tag_625:\n        /* \"#utility.yul\":16238:16355   */\n    tag_624:\n        /* \"#utility.yul\":16379:16467   */\n      tag_626\n        /* \"#utility.yul\":16459:16466   */\n      dup6\n        /* \"#utility.yul\":16450:16456   */\n      dup3\n        /* \"#utility.yul\":16439:16448   */\n      dup7\n        /* \"#utility.yul\":16435:16457   */\n      add\n        /* \"#utility.yul\":16379:16467   */\n      tag_432\n      jump\t// in\n    tag_626:\n        /* \"#utility.yul\":16369:16467   */\n      swap3\n      pop\n        /* \"#utility.yul\":16165:16477   */\n      pop\n        /* \"#utility.yul\":16544:16546   */\n      0x20\n        /* \"#utility.yul\":16533:16542   */\n      dup4\n        /* \"#utility.yul\":16529:16547   */\n      add\n        /* \"#utility.yul\":16516:16548   */\n      calldataload\n        /* \"#utility.yul\":16575:16593   */\n      0xffffffffffffffff\n        /* \"#utility.yul\":16567:16573   */\n      dup2\n        /* \"#utility.yul\":16564:16594   */\n      gt\n        /* \"#utility.yul\":16561:16678   */\n      iszero\n      tag_627\n      jumpi\n        /* \"#utility.yul\":16597:16676   */\n      tag_628\n      tag_420\n      jump\t// in\n    tag_628:\n        /* \"#utility.yul\":16561:16678   */\n    tag_627:\n        /* \"#utility.yul\":16702:16765   */\n      tag_629\n        /* \"#utility.yul\":16757:16764   */\n      dup6\n        /* \"#utility.yul\":16748:16754   */\n      dup3\n        /* \"#utility.yul\":16737:16746   */\n      dup7\n        /* \"#utility.yul\":16733:16755   */\n      add\n        /* \"#utility.yul\":16702:16765   */\n      tag_430\n      jump\t// in\n    tag_629:\n        /* \"#utility.yul\":16692:16765   */\n      swap2\n      pop\n        /* \"#utility.yul\":16487:16775   */\n      pop\n        /* \"#utility.yul\":15898:16782   */\n      swap3\n      pop\n      swap3\n      swap1\n      pop\n      jump\t// out\n        /* \"#utility.yul\":16788:16910   */\n    tag_442:\n        /* \"#utility.yul\":16861:16885   */\n      tag_631\n        /* \"#utility.yul\":16879:16884   */\n      dup2\n        /* \"#utility.yul\":16861:16885   */\n      tag_410\n      jump\t// in\n    tag_631:\n        /* \"#utility.yul\":16854:16859   */\n      dup2\n        /* \"#utility.yul\":16851:16886   */\n      eq\n        /* \"#utility.yul\":16841:16904   */\n      tag_632\n      jumpi\n        /* \"#utility.yul\":16900:16901   */\n      0x00\n        /* \"#utility.yul\":16897:16898   */\n      dup1\n        /* \"#utility.yul\":16890:16902   */\n      revert\n        /* \"#utility.yul\":16841:16904   */\n    tag_632:\n        /* \"#utility.yul\":16788:16910   */\n      pop\n      jump\t// out\n        /* \"#utility.yul\":16916:17055   */\n    tag_443:\n        /* \"#utility.yul\":16962:16967   */\n      0x00\n        /* \"#utility.yul\":17000:17006   */\n      dup2\n        /* \"#utility.yul\":16987:17007   */\n      calldataload\n        /* \"#utility.yul\":16978:17007   */\n      swap1\n      pop\n        /* \"#utility.yul\":17016:17049   */\n      tag_634\n        /* \"#utility.yul\":17043:17048   */\n      dup2\n        /* \"#utility.yul\":17016:17049   */\n      tag_442\n      jump\t// in\n    tag_634:\n        /* \"#utility.yul\":16916:17055   */\n      swap3\n      swap2\n      pop\n      pop\n      jump\t// out\n        /* \"#utility.yul\":17061:19068   */\n    tag_39:\n        /* \"#utility.yul\":17240:17246   */\n      0x00\n        /* \"#utility.yul\":17248:17254   */\n      dup1\n        /* \"#utility.yul\":17256:17262   */\n      0x00\n        /* \"#utility.yul\":17264:17270   */\n      dup1\n        /* \"#utility.yul\":17272:17278   */\n      0x00\n        /* \"#utility.yul\":17280:17286   */\n      dup1\n        /* \"#utility.yul\":17329:17332   */\n      0xc0\n        /* \"#utility.yul\":17317:17326   */\n      dup8\n        /* \"#utility.yul\":17308:17315   */\n      dup10\n        /* \"#utility.yul\":17304:17327   */\n      sub\n        /* \"#utility.yul\":17300:17333   */\n      slt\n        /* \"#utility.yul\":17297:17417   */\n      iszero\n      tag_636\n      jumpi\n        /* \"#utility.yul\":17336:17415   */\n      tag_637\n      tag_419\n      jump\t// in\n    tag_637:\n        /* \"#utility.yul\":17297:17417   */\n    tag_636:\n        /* \"#utility.yul\":17484:17485   */\n      0x00\n        /* \"#utility.yul\":17473:17482   */\n      dup8\n        /* \"#utility.yul\":17469:17486   */\n      add\n        /* \"#utility.yul\":17456:17487   */\n      calldataload\n        /* \"#utility.yul\":17514:17532   */\n      0xffffffffffffffff\n        /* \"#utility.yul\":17506:17512   */\n      dup2\n        /* \"#utility.yul\":17503:17533   */\n      gt\n        /* \"#utility.yul\":17500:17617   */\n      iszero\n      tag_638\n      jumpi\n        /* \"#utility.yul\":17536:17615   */\n      tag_639\n      tag_420\n      jump\t// in\n    tag_639:\n        /* \"#utility.yul\":17500:17617   */\n    tag_638:\n        /* \"#utility.yul\":17641:17729   */\n      tag_640\n        /* \"#utility.yul\":17721:17728   */\n      dup10\n        /* \"#utility.yul\":17712:17718   */\n      dup3\n        /* \"#utility.yul\":17701:17710   */\n      dup11\n        /* \"#utility.yul\":17697:17719   */\n      add\n        /* \"#utility.yul\":17641:17729   */\n      tag_432\n      jump\t// in\n    tag_640:\n        /* \"#utility.yul\":17631:17729   */\n      swap7\n      pop\n        /* \"#utility.yul\":17427:17739   */\n      pop\n        /* \"#utility.yul\":17806:17808   */\n      0x20\n        /* \"#utility.yul\":17795:17804   */\n      dup8\n        /* \"#utility.yul\":17791:17809   */\n      add\n        /* \"#utility.yul\":17778:17810   */\n      calldataload\n        /* \"#utility.yul\":17837:17855   */\n      0xffffffffffffffff\n        /* \"#utility.yul\":17829:17835   */\n      dup2\n        /* \"#utility.yul\":17826:17856   */\n      gt\n        /* \"#utility.yul\":17823:17940   */\n      iszero\n      tag_641\n      jumpi\n        /* \"#utility.yul\":17859:17938   */\n      tag_642\n      tag_420\n      jump\t// in\n    tag_642:\n        /* \"#utility.yul\":17823:17940   */\n    tag_641:\n        /* \"#utility.yul\":17964:18027   */\n      tag_643\n        /* \"#utility.yul\":18019:18026   */\n      dup10\n        /* \"#utility.yul\":18010:18016   */\n      dup3\n        /* \"#utility.yul\":17999:18008   */\n      dup11\n        /* \"#utility.yul\":17995:18017   */\n      add\n        /* \"#utility.yul\":17964:18027   */\n      tag_430\n      jump\t// in\n    tag_643:\n        /* \"#utility.yul\":17954:18027   */\n      swap6\n      pop\n        /* \"#utility.yul\":17749:18037   */\n      pop\n        /* \"#utility.yul\":18104:18106   */\n      0x40\n        /* \"#utility.yul\":18093:18102   */\n      dup8\n        /* \"#utility.yul\":18089:18107   */\n      add\n        /* \"#utility.yul\":18076:18108   */\n      calldataload\n        /* \"#utility.yul\":18135:18153   */\n      0xffffffffffffffff\n        /* \"#utility.yul\":18127:18133   */\n      dup2\n        /* \"#utility.yul\":18124:18154   */\n      gt\n        /* \"#utility.yul\":18121:18238   */\n      iszero\n      tag_644\n      jumpi\n        /* \"#utility.yul\":18157:18236   */\n      tag_645\n      tag_420\n      jump\t// in\n    tag_645:\n        /* \"#utility.yul\":18121:18238   */\n    tag_644:\n        /* \"#utility.yul\":18262:18325   */\n      tag_646\n        /* \"#utility.yul\":18317:18324   */\n      dup10\n        /* \"#utility.yul\":18308:18314   */\n      dup3\n        /* \"#utility.yul\":18297:18306   */\n      dup11\n        /* \"#utility.yul\":18293:18315   */\n      add\n        /* \"#utility.yul\":18262:18325   */\n      tag_430\n      jump\t// in\n    tag_646:\n        /* \"#utility.yul\":18252:18325   */\n      swap5\n      pop\n        /* \"#utility.yul\":18047:18335   */\n      pop\n        /* \"#utility.yul\":18374:18376   */\n      0x60\n        /* \"#utility.yul\":18400:18453   */\n      tag_647\n        /* \"#utility.yul\":18445:18452   */\n      dup10\n        /* \"#utility.yul\":18436:18442   */\n      dup3\n        /* \"#utility.yul\":18425:18434   */\n      dup11\n        /* \"#utility.yul\":18421:18443   */\n      add\n        /* \"#utility.yul\":18400:18453   */\n      tag_443\n      jump\t// in\n    tag_647:\n        /* \"#utility.yul\":18390:18453   */\n      swap4\n      pop\n        /* \"#utility.yul\":18345:18463   */\n      pop\n        /* \"#utility.yul\":18530:18533   */\n      0x80\n        /* \"#utility.yul\":18519:18528   */\n      dup8\n        /* \"#utility.yul\":18515:18534   */\n      add\n        /* \"#utility.yul\":18502:18535   */\n      calldataload\n        /* \"#utility.yul\":18562:18580   */\n      0xffffffffffffffff\n        /* \"#utility.yul\":18554:18560   */\n      dup2\n        /* \"#utility.yul\":18551:18581   */\n      gt\n        /* \"#utility.yul\":18548:18665   */\n      iszero\n      tag_648\n      jumpi\n        /* \"#utility.yul\":18584:18663   */\n      tag_649\n      tag_420\n      jump\t// in\n    tag_649:\n        /* \"#utility.yul\":18548:18665   */\n    tag_648:\n        /* \"#utility.yul\":18689:18752   */\n      tag_650\n        /* \"#utility.yul\":18744:18751   */\n      dup10\n        /* \"#utility.yul\":18735:18741   */\n      dup3\n        /* \"#utility.yul\":18724:18733   */\n      dup11\n        /* \"#utility.yul\":18720:18742   */\n      add\n        /* \"#utility.yul\":18689:18752   */\n      tag_430\n      jump\t// in\n    tag_650:\n        /* \"#utility.yul\":18679:18752   */\n      swap3\n      pop\n        /* \"#utility.yul\":18473:18762   */\n      pop\n        /* \"#utility.yul\":18829:18832   */\n      0xa0\n        /* \"#utility.yul\":18818:18827   */\n      dup8\n        /* \"#utility.yul\":18814:18833   */\n      add\n        /* \"#utility.yul\":18801:18834   */\n      calldataload\n        /* \"#utility.yul\":18861:18879   */\n      0xffffffffffffffff\n        /* \"#utility.yul\":18853:18859   */\n      dup2\n        /* \"#utility.yul\":18850:18880   */\n      gt\n        /* \"#utility.yul\":18847:18964   */\n      iszero\n      tag_651\n      jumpi\n        /* \"#utility.yul\":18883:18962   */\n      tag_652\n      tag_420\n      jump\t// in\n    tag_652:\n        /* \"#utility.yul\":18847:18964   */\n    tag_651:\n        /* \"#utility.yul\":18988:19051   */\n      tag_653\n        /* \"#utility.yul\":19043:19050   */\n      dup10\n        /* \"#utility.yul\":19034:19040   */\n      dup3\n        /* \"#utility.yul\":19023:19032   */\n      dup11\n        /* \"#utility.yul\":19019:19041   */\n      add\n        /* \"#utility.yul\":18988:19051   */\n      tag_430\n      jump\t// in\n    tag_653:\n        /* \"#utility.yul\":18978:19051   */\n      swap2\n      pop\n        /* \"#utility.yul\":18772:19061   */\n      pop\n        /* \"#utility.yul\":17061:19068   */\n      swap3\n      swap6\n      pop\n      swap3\n      swap6\n      pop\n      swap3\n      swap6\n      jump\t// out\n        /* \"#utility.yul\":19074:19200   */\n    tag_444:\n        /* \"#utility.yul\":19111:19118   */\n      0x00\n        /* \"#utility.yul\":19151:19193   */\n      0xffffffffffffffffffffffffffffffffffffffff\n        /* \"#utility.yul\":19144:19149   */\n      dup3\n        /* \"#utility.yul\":19140:19194   */\n      and\n        /* \"#utility.yul\":19129:19194   */\n      swap1\n      pop\n        /* \"#utility.yul\":19074:19200   */\n      swap2\n      swap1\n      pop\n      jump\t// out\n        /* \"#utility.yul\":19206:19302   */\n    tag_445:\n        /* \"#utility.yul\":19243:19250   */\n      0x00\n        /* \"#utility.yul\":19272:19296   */\n      tag_656\n        /* \"#utility.yul\":19290:19295   */\n      dup3\n        /* \"#utility.yul\":19272:19296   */\n      tag_444\n      jump\t// in\n    tag_656:\n        /* \"#utility.yul\":19261:19296   */\n      swap1\n      pop\n        /* \"#utility.yul\":19206:19302   */\n      swap2\n      swap1\n      pop\n      jump\t// out\n        /* \"#utility.yul\":19308:19430   */\n    tag_446:\n        /* \"#utility.yul\":19381:19405   */\n      tag_658\n        /* \"#utility.yul\":19399:19404   */\n      dup2\n        /* \"#utility.yul\":19381:19405   */\n      tag_445\n      jump\t// in\n    tag_658:\n        /* \"#utility.yul\":19374:19379   */\n      dup2\n        /* \"#utility.yul\":19371:19406   */\n      eq\n        /* \"#utility.yul\":19361:19424   */\n      tag_659\n      jumpi\n        /* \"#utility.yul\":19420:19421   */\n      0x00\n        /* \"#utility.yul\":19417:19418   */\n      dup1\n        /* \"#utility.yul\":19410:19422   */\n      revert\n        /* \"#utility.yul\":19361:19424   */\n    tag_659:\n        /* \"#utility.yul\":19308:19430   */\n      pop\n      jump\t// out\n        /* \"#utility.yul\":19436:19575   */\n    tag_447:\n        /* \"#utility.yul\":19482:19487   */\n      0x00\n        /* \"#utility.yul\":19520:19526   */\n      dup2\n        /* \"#utility.yul\":19507:19527   */\n      calldataload\n        /* \"#utility.yul\":19498:19527   */\n      swap1\n      pop\n        /* \"#utility.yul\":19536:19569   */\n      tag_661\n        /* \"#utility.yul\":19563:19568   */\n      dup2\n        /* \"#utility.yul\":19536:19569   */\n      tag_446\n      jump\t// in\n    tag_661:\n        /* \"#utility.yul\":19436:19575   */\n      swap3\n      swap2\n      pop\n      pop\n      jump\t// out\n        /* \"#utility.yul\":19581:20610   */\n    tag_43:\n        /* \"#utility.yul\":19703:19709   */\n      0x00\n        /* \"#utility.yul\":19711:19717   */\n      dup1\n        /* \"#utility.yul\":19719:19725   */\n      0x00\n        /* \"#utility.yul\":19768:19770   */\n      0x60\n        /* \"#utility.yul\":19756:19765   */\n      dup5\n        /* \"#utility.yul\":19747:19754   */\n      dup7\n        /* \"#utility.yul\":19743:19766   */\n      sub\n        /* \"#utility.yul\":19739:19771   */\n      slt\n        /* \"#utility.yul\":19736:19855   */\n      iszero\n      tag_663\n      jumpi\n        /* \"#utility.yul\":19774:19853   */\n      tag_664\n      tag_419\n      jump\t// in\n    tag_664:\n        /* \"#utility.yul\":19736:19855   */\n    tag_663:\n        /* \"#utility.yul\":19922:19923   */\n      0x00\n        /* \"#utility.yul\":19911:19920   */\n      dup5\n        /* \"#utility.yul\":19907:19924   */\n      add\n        /* \"#utility.yul\":19894:19925   */\n      calldataload\n        /* \"#utility.yul\":19952:19970   */\n      0xffffffffffffffff\n        /* \"#utility.yul\":19944:19950   */\n      dup2\n        /* \"#utility.yul\":19941:19971   */\n      gt\n        /* \"#utility.yul\":19938:20055   */\n      iszero\n      tag_665\n      jumpi\n        /* \"#utility.yul\":19974:20053   */\n      tag_666\n      tag_420\n      jump\t// in\n    tag_666:\n        /* \"#utility.yul\":19938:20055   */\n    tag_665:\n        /* \"#utility.yul\":20079:20167   */\n      tag_667\n        /* \"#utility.yul\":20159:20166   */\n      dup7\n        /* \"#utility.yul\":20150:20156   */\n      dup3\n        /* \"#utility.yul\":20139:20148   */\n      dup8\n        /* \"#utility.yul\":20135:20157   */\n      add\n        /* \"#utility.yul\":20079:20167   */\n      tag_432\n      jump\t// in\n    tag_667:\n        /* \"#utility.yul\":20069:20167   */\n      swap4\n      pop\n        /* \"#utility.yul\":19865:20177   */\n      pop\n        /* \"#utility.yul\":20244:20246   */\n      0x20\n        /* \"#utility.yul\":20233:20242   */\n      dup5\n        /* \"#utility.yul\":20229:20247   */\n      add\n        /* \"#utility.yul\":20216:20248   */\n      calldataload\n        /* \"#utility.yul\":20275:20293   */\n      0xffffffffffffffff\n        /* \"#utility.yul\":20267:20273   */\n      dup2\n        /* \"#utility.yul\":20264:20294   */\n      gt\n        /* \"#utility.yul\":20261:20378   */\n      iszero\n      tag_668\n      jumpi\n        /* \"#utility.yul\":20297:20376   */\n      tag_669\n      tag_420\n      jump\t// in\n    tag_669:\n        /* \"#utility.yul\":20261:20378   */\n    tag_668:\n        /* \"#utility.yul\":20402:20465   */\n      tag_670\n        /* \"#utility.yul\":20457:20464   */\n      dup7\n        /* \"#utility.yul\":20448:20454   */\n      dup3\n        /* \"#utility.yul\":20437:20446   */\n      dup8\n        /* \"#utility.yul\":20433:20455   */\n      add\n        /* \"#utility.yul\":20402:20465   */\n      tag_430\n      jump\t// in\n    tag_670:\n        /* \"#utility.yul\":20392:20465   */\n      swap3\n      pop\n        /* \"#utility.yul\":20187:20475   */\n      pop\n        /* \"#utility.yul\":20514:20516   */\n      0x40\n        /* \"#utility.yul\":20540:20593   */\n      tag_671\n        /* \"#utility.yul\":20585:20592   */\n      dup7\n        /* \"#utility.yul\":20576:20582   */\n      dup3\n        /* \"#utility.yul\":20565:20574   */\n      dup8\n        /* \"#utility.yul\":20561:20583   */\n      add\n        /* \"#utility.yul\":20540:20593   */\n      tag_447\n      jump\t// in\n    tag_671:\n        /* \"#utility.yul\":20530:20593   */\n      swap2\n      pop\n        /* \"#utility.yul\":20485:20603   */\n      pop\n        /* \"#utility.yul\":19581:20610   */\n      swap3\n      pop\n      swap3\n      pop\n      swap3\n      jump\t// out\n        /* \"#utility.yul\":20616:22297   */\n    tag_47:\n        /* \"#utility.yul\":20776:20782   */\n      0x00\n        /* \"#utility.yul\":20784:20790   */\n      dup1\n        /* \"#utility.yul\":20792:20798   */\n      0x00\n        /* \"#utility.yul\":20800:20806   */\n      dup1\n        /* \"#utility.yul\":20808:20814   */\n      0x00\n        /* \"#utility.yul\":20857:20860   */\n      0xa0\n        /* \"#utility.yul\":20845:20854   */\n      dup7\n        /* \"#utility.yul\":20836:20843   */\n      dup9\n        /* \"#utility.yul\":20832:20855   */\n      sub\n        /* \"#utility.yul\":20828:20861   */\n      slt\n        /* \"#utility.yul\":20825:20945   */\n      iszero\n      tag_673\n      jumpi\n        /* \"#utility.yul\":20864:20943   */\n      tag_674\n      tag_419\n      jump\t// in\n    tag_674:\n        /* \"#utility.yul\":20825:20945   */\n    tag_673:\n        /* \"#utility.yul\":21012:21013   */\n      0x00\n        /* \"#utility.yul\":21001:21010   */\n      dup7\n        /* \"#utility.yul\":20997:21014   */\n      add\n        /* \"#utility.yul\":20984:21015   */\n      calldataload\n        /* \"#utility.yul\":21042:21060   */\n      0xffffffffffffffff\n        /* \"#utility.yul\":21034:21040   */\n      dup2\n        /* \"#utility.yul\":21031:21061   */\n      gt\n        /* \"#utility.yul\":21028:21145   */\n      iszero\n      tag_675\n      jumpi\n        /* \"#utility.yul\":21064:21143   */\n      tag_676\n      tag_420\n      jump\t// in\n    tag_676:\n        /* \"#utility.yul\":21028:21145   */\n    tag_675:\n        /* \"#utility.yul\":21169:21257   */\n      tag_677\n        /* \"#utility.yul\":21249:21256   */\n      dup9\n        /* \"#utility.yul\":21240:21246   */\n      dup3\n        /* \"#utility.yul\":21229:21238   */\n      dup10\n        /* \"#utility.yul\":21225:21247   */\n      add\n        /* \"#utility.yul\":21169:21257   */\n      tag_432\n      jump\t// in\n    tag_677:\n        /* \"#utility.yul\":21159:21257   */\n      swap6\n      pop\n        /* \"#utility.yul\":20955:21267   */\n      pop\n        /* \"#utility.yul\":21334:21336   */\n      0x20\n        /* \"#utility.yul\":21323:21332   */\n      dup7\n        /* \"#utility.yul\":21319:21337   */\n      add\n        /* \"#utility.yul\":21306:21338   */\n      calldataload\n        /* \"#utility.yul\":21365:21383   */\n      0xffffffffffffffff\n        /* \"#utility.yul\":21357:21363   */\n      dup2\n        /* \"#utility.yul\":21354:21384   */\n      gt\n        /* \"#utility.yul\":21351:21468   */\n      iszero\n      tag_678\n      jumpi\n        /* \"#utility.yul\":21387:21466   */\n      tag_679\n      tag_420\n      jump\t// in\n    tag_679:\n        /* \"#utility.yul\":21351:21468   */\n    tag_678:\n        /* \"#utility.yul\":21492:21555   */\n      tag_680\n        /* \"#utility.yul\":21547:21554   */\n      dup9\n        /* \"#utility.yul\":21538:21544   */\n      dup3\n        /* \"#utility.yul\":21527:21536   */\n      dup10\n        /* \"#utility.yul\":21523:21545   */\n      add\n        /* \"#utility.yul\":21492:21555   */\n      tag_430\n      jump\t// in\n    tag_680:\n        /* \"#utility.yul\":21482:21555   */\n      swap5\n      pop\n        /* \"#utility.yul\":21277:21565   */\n      pop\n        /* \"#utility.yul\":21632:21634   */\n      0x40\n        /* \"#utility.yul\":21621:21630   */\n      dup7\n        /* \"#utility.yul\":21617:21635   */\n      add\n        /* \"#utility.yul\":21604:21636   */\n      calldataload\n        /* \"#utility.yul\":21663:21681   */\n      0xffffffffffffffff\n        /* \"#utility.yul\":21655:21661   */\n      dup2\n        /* \"#utility.yul\":21652:21682   */\n      gt\n        /* \"#utility.yul\":21649:21766   */\n      iszero\n      tag_681\n      jumpi\n        /* \"#utility.yul\":21685:21764   */\n      tag_682\n      tag_420\n      jump\t// in\n    tag_682:\n        /* \"#utility.yul\":21649:21766   */\n    tag_681:\n        /* \"#utility.yul\":21790:21853   */\n      tag_683\n        /* \"#utility.yul\":21845:21852   */\n      dup9\n        /* \"#utility.yul\":21836:21842   */\n      dup3\n        /* \"#utility.yul\":21825:21834   */\n      dup10\n        /* \"#utility.yul\":21821:21843   */\n      add\n        /* \"#utility.yul\":21790:21853   */\n      tag_430\n      jump\t// in\n    tag_683:\n        /* \"#utility.yul\":21780:21853   */\n      swap4\n      pop\n        /* \"#utility.yul\":21575:21863   */\n      pop\n        /* \"#utility.yul\":21902:21904   */\n      0x60\n        /* \"#utility.yul\":21928:21981   */\n      tag_684\n        /* \"#utility.yul\":21973:21980   */\n      dup9\n        /* \"#utility.yul\":21964:21970   */\n      dup3\n        /* \"#utility.yul\":21953:21962   */\n      dup10\n        /* \"#utility.yul\":21949:21971   */\n      add\n        /* \"#utility.yul\":21928:21981   */\n      tag_443\n      jump\t// in\n    tag_684:\n        /* \"#utility.yul\":21918:21981   */\n      swap3\n      pop\n        /* \"#utility.yul\":21873:21991   */\n      pop\n        /* \"#utility.yul\":22058:22061   */\n      0x80\n        /* \"#utility.yul\":22047:22056   */\n      dup7\n        /* \"#utility.yul\":22043:22062   */\n      add\n        /* \"#utility.yul\":22030:22063   */\n      calldataload\n        /* \"#utility.yul\":22090:22108   */\n      0xffffffffffffffff\n        /* \"#utility.yul\":22082:22088   */\n      dup2\n        /* \"#utility.yul\":22079:22109   */\n      gt\n        /* \"#utility.yul\":22076:22193   */\n      iszero\n      tag_685\n      jumpi\n        /* \"#utility.yul\":22112:22191   */\n      tag_686\n      tag_420\n      jump\t// in\n    tag_686:\n        /* \"#utility.yul\":22076:22193   */\n    tag_685:\n        /* \"#utility.yul\":22217:22280   */\n      tag_687\n        /* \"#utility.yul\":22272:22279   */\n      dup9\n        /* \"#utility.yul\":22263:22269   */\n      dup3\n        /* \"#utility.yul\":22252:22261   */\n      dup10\n        /* \"#utility.yul\":22248:22270   */\n      add\n        /* \"#utility.yul\":22217:22280   */\n      tag_430\n      jump\t// in\n    tag_687:\n        /* \"#utility.yul\":22207:22280   */\n      swap2\n      pop\n        /* \"#utility.yul\":22001:22290   */\n      pop\n        /* \"#utility.yul\":20616:22297   */\n      swap3\n      swap6\n      pop\n      swap3\n      swap6\n      swap1\n      swap4\n      pop\n      jump\t// out\n        /* \"#utility.yul\":22303:22483   */\n    tag_62:\n        /* \"#utility.yul\":22351:22428   */\n      0x4e487b7100000000000000000000000000000000000000000000000000000000\n        /* \"#utility.yul\":22348:22349   */\n      0x00\n        /* \"#utility.yul\":22341:22429   */\n      mstore\n        /* \"#utility.yul\":22448:22452   */\n      0x32\n        /* \"#utility.yul\":22445:22446   */\n      0x04\n        /* \"#utility.yul\":22438:22453   */\n      mstore\n        /* \"#utility.yul\":22472:22476   */\n      0x24\n        /* \"#utility.yul\":22469:22470   */\n      0x00\n        /* \"#utility.yul\":22462:22477   */\n      revert\n        /* \"#utility.yul\":22489:22669   */\n    tag_448:\n        /* \"#utility.yul\":22537:22614   */\n      0x4e487b7100000000000000000000000000000000000000000000000000000000\n        /* \"#utility.yul\":22534:22535   */\n      0x00\n        /* \"#utility.yul\":22527:22615   */\n      mstore\n        /* \"#utility.yul\":22634:22638   */\n      0x22\n        /* \"#utility.yul\":22631:22632   */\n      0x04\n        /* \"#utility.yul\":22624:22639   */\n      mstore\n        /* \"#utility.yul\":22658:22662   */\n      0x24\n        /* \"#utility.yul\":22655:22656   */\n      0x00\n        /* \"#utility.yul\":22648:22663   */\n      revert\n        /* \"#utility.yul\":22675:22995   */\n    tag_65:\n        /* \"#utility.yul\":22719:22725   */\n      0x00\n        /* \"#utility.yul\":22756:22757   */\n      0x02\n        /* \"#utility.yul\":22750:22754   */\n      dup3\n        /* \"#utility.yul\":22746:22758   */\n      div\n        /* \"#utility.yul\":22736:22758   */\n      swap1\n      pop\n        /* \"#utility.yul\":22803:22804   */\n      0x01\n        /* \"#utility.yul\":22797:22801   */\n      dup3\n        /* \"#utility.yul\":22793:22805   */\n      and\n        /* \"#utility.yul\":22824:22842   */\n      dup1\n        /* \"#utility.yul\":22814:22895   */\n      tag_691\n      jumpi\n        /* \"#utility.yul\":22880:22884   */\n      0x7f\n        /* \"#utility.yul\":22872:22878   */\n      dup3\n        /* \"#utility.yul\":22868:22885   */\n      and\n        /* \"#utility.yul\":22858:22885   */\n      swap2\n      pop\n        /* \"#utility.yul\":22814:22895   */\n    tag_691:\n        /* \"#utility.yul\":22942:22944   */\n      0x20\n        /* \"#utility.yul\":22934:22940   */\n      dup3\n        /* \"#utility.yul\":22931:22945   */\n      lt\n        /* \"#utility.yul\":22911:22929   */\n      dup2\n        /* \"#utility.yul\":22908:22946   */\n      sub\n        /* \"#utility.yul\":22905:22989   */\n      tag_692\n      jumpi\n        /* \"#utility.yul\":22961:22979   */\n      tag_693\n      tag_448\n      jump\t// in\n    tag_693:\n        /* \"#utility.yul\":22905:22989   */\n    tag_692:\n        /* \"#utility.yul\":22726:22995   */\n      pop\n        /* \"#utility.yul\":22675:22995   */\n      swap2\n      swap1\n      pop\n      jump\t// out\n        /* \"#utility.yul\":23001:23149   */\n    tag_449:\n        /* \"#utility.yul\":23103:23114   */\n      0x00\n        /* \"#utility.yul\":23140:23143   */\n      dup2\n        /* \"#utility.yul\":23125:23143   */\n      swap1\n      pop\n        /* \"#utility.yul\":23001:23149   */\n      swap3\n      swap2\n      pop\n      pop\n      jump\t// out\n        /* \"#utility.yul\":23155:23545   */\n    tag_450:\n        /* \"#utility.yul\":23261:23264   */\n      0x00\n        /* \"#utility.yul\":23289:23328   */\n      tag_696\n        /* \"#utility.yul\":23322:23327   */\n      dup3\n        /* \"#utility.yul\":23289:23328   */\n      tag_405\n      jump\t// in\n    tag_696:\n        /* \"#utility.yul\":23344:23433   */\n      tag_697\n        /* \"#utility.yul\":23426:23432   */\n      dup2\n        /* \"#utility.yul\":23421:23424   */\n      dup6\n        /* \"#utility.yul\":23344:23433   */\n      tag_449\n      jump\t// in\n    tag_697:\n        /* \"#utility.yul\":23337:23433   */\n      swap4\n      pop\n        /* \"#utility.yul\":23442:23507   */\n      tag_698\n        /* \"#utility.yul\":23500:23506   */\n      dup2\n        /* \"#utility.yul\":23495:23498   */\n      dup6\n        /* \"#utility.yul\":23488:23492   */\n      0x20\n        /* \"#utility.yul\":23481:23486   */\n      dup7\n        /* \"#utility.yul\":23477:23493   */\n      add\n        /* \"#utility.yul\":23442:23507   */\n      tag_407\n      jump\t// in\n    tag_698:\n        /* \"#utility.yul\":23532:23538   */\n      dup1\n        /* \"#utility.yul\":23527:23530   */\n      dup5\n        /* \"#utility.yul\":23523:23539   */\n      add\n        /* \"#utility.yul\":23516:23539   */\n      swap2\n      pop\n        /* \"#utility.yul\":23265:23545   */\n      pop\n        /* \"#utility.yul\":23155:23545   */\n      swap3\n      swap2\n      pop\n      pop\n      jump\t// out\n        /* \"#utility.yul\":23551:23826   */\n    tag_94:\n        /* \"#utility.yul\":23683:23686   */\n      0x00\n        /* \"#utility.yul\":23705:23800   */\n      tag_700\n        /* \"#utility.yul\":23796:23799   */\n      dup3\n        /* \"#utility.yul\":23787:23793   */\n      dup5\n        /* \"#utility.yul\":23705:23800   */\n      tag_450\n      jump\t// in\n    tag_700:\n        /* \"#utility.yul\":23698:23800   */\n      swap2\n      pop\n        /* \"#utility.yul\":23817:23820   */\n      dup2\n        /* \"#utility.yul\":23810:23820   */\n      swap1\n      pop\n        /* \"#utility.yul\":23551:23826   */\n      swap3\n      swap2\n      pop\n      pop\n      jump\t// out\n        /* \"#utility.yul\":23832:24003   */\n    tag_451:\n        /* \"#utility.yul\":23972:23995   */\n      0x466f6c64657220646f6573206e6f742065786973740000000000000000000000\n        /* \"#utility.yul\":23968:23969   */\n      0x00\n        /* \"#utility.yul\":23960:23966   */\n      dup3\n        /* \"#utility.yul\":23956:23970   */\n      add\n        /* \"#utility.yul\":23949:23996   */\n      mstore\n        /* \"#utility.yul\":23832:24003   */\n      pop\n      jump\t// out\n        /* \"#utility.yul\":24009:24375   */\n    tag_452:\n        /* \"#utility.yul\":24151:24154   */\n      0x00\n        /* \"#utility.yul\":24172:24239   */\n      tag_703\n        /* \"#utility.yul\":24236:24238   */\n      0x15\n        /* \"#utility.yul\":24231:24234   */\n      dup4\n        /* \"#utility.yul\":24172:24239   */\n      tag_416\n      jump\t// in\n    tag_703:\n        /* \"#utility.yul\":24165:24239   */\n      swap2\n      pop\n        /* \"#utility.yul\":24248:24341   */\n      tag_704\n        /* \"#utility.yul\":24337:24340   */\n      dup3\n        /* \"#utility.yul\":24248:24341   */\n      tag_451\n      jump\t// in\n    tag_704:\n        /* \"#utility.yul\":24366:24368   */\n      0x20\n        /* \"#utility.yul\":24361:24364   */\n      dup3\n        /* \"#utility.yul\":24357:24369   */\n      add\n        /* \"#utility.yul\":24350:24369   */\n      swap1\n      pop\n        /* \"#utility.yul\":24009:24375   */\n      swap2\n      swap1\n      pop\n      jump\t// out\n        /* \"#utility.yul\":24381:24800   */\n    tag_98:\n        /* \"#utility.yul\":24547:24551   */\n      0x00\n        /* \"#utility.yul\":24585:24587   */\n      0x20\n        /* \"#utility.yul\":24574:24583   */\n      dup3\n        /* \"#utility.yul\":24570:24588   */\n      add\n        /* \"#utility.yul\":24562:24588   */\n      swap1\n      pop\n        /* \"#utility.yul\":24634:24643   */\n      dup2\n        /* \"#utility.yul\":24628:24632   */\n      dup2\n        /* \"#utility.yul\":24624:24644   */\n      sub\n        /* \"#utility.yul\":24620:24621   */\n      0x00\n        /* \"#utility.yul\":24609:24618   */\n      dup4\n        /* \"#utility.yul\":24605:24622   */\n      add\n        /* \"#utility.yul\":24598:24645   */\n      mstore\n        /* \"#utility.yul\":24662:24793   */\n      tag_706\n        /* \"#utility.yul\":24788:24792   */\n      dup2\n        /* \"#utility.yul\":24662:24793   */\n      tag_452\n      jump\t// in\n    tag_706:\n        /* \"#utility.yul\":24654:24793   */\n      swap1\n      pop\n        /* \"#utility.yul\":24381:24800   */\n      swap2\n      swap1\n      pop\n      jump\t// out\n        /* \"#utility.yul\":24806:24975   */\n    tag_453:\n        /* \"#utility.yul\":24946:24967   */\n      0x4974656d20646f6573206e6f7420657869737400000000000000000000000000\n        /* \"#utility.yul\":24942:24943   */\n      0x00\n        /* \"#utility.yul\":24934:24940   */\n      dup3\n        /* \"#utility.yul\":24930:24944   */\n      add\n        /* \"#utility.yul\":24923:24968   */\n      mstore\n        /* \"#utility.yul\":24806:24975   */\n      pop\n      jump\t// out\n        /* \"#utility.yul\":24981:25347   */\n    tag_454:\n        /* \"#utility.yul\":25123:25126   */\n      0x00\n        /* \"#utility.yul\":25144:25211   */\n      tag_709\n        /* \"#utility.yul\":25208:25210   */\n      0x13\n        /* \"#utility.yul\":25203:25206   */\n      dup4\n        /* \"#utility.yul\":25144:25211   */\n      tag_416\n      jump\t// in\n    tag_709:\n        /* \"#utility.yul\":25137:25211   */\n      swap2\n      pop\n        /* \"#utility.yul\":25220:25313   */\n      tag_710\n        /* \"#utility.yul\":25309:25312   */\n      dup3\n        /* \"#utility.yul\":25220:25313   */\n      tag_453\n      jump\t// in\n    tag_710:\n        /* \"#utility.yul\":25338:25340   */\n      0x20\n        /* \"#utility.yul\":25333:25336   */\n      dup3\n        /* \"#utility.yul\":25329:25341   */\n      add\n        /* \"#utility.yul\":25322:25341   */\n      swap1\n      pop\n        /* \"#utility.yul\":24981:25347   */\n      swap2\n      swap1\n      pop\n      jump\t// out\n        /* \"#utility.yul\":25353:25772   */\n    tag_133:\n        /* \"#utility.yul\":25519:25523   */\n      0x00\n        /* \"#utility.yul\":25557:25559   */\n      0x20\n        /* \"#utility.yul\":25546:25555   */\n      dup3\n        /* \"#utility.yul\":25542:25560   */\n      add\n        /* \"#utility.yul\":25534:25560   */\n      swap1\n      pop\n        /* \"#utility.yul\":25606:25615   */\n      dup2\n        /* \"#utility.yul\":25600:25604   */\n      dup2\n        /* \"#utility.yul\":25596:25616   */\n      sub\n        /* \"#utility.yul\":25592:25593   */\n      0x00\n        /* \"#utility.yul\":25581:25590   */\n      dup4\n        /* \"#utility.yul\":25577:25594   */\n      add\n        /* \"#utility.yul\":25570:25617   */\n      mstore\n        /* \"#utility.yul\":25634:25765   */\n      tag_712\n        /* \"#utility.yul\":25760:25764   */\n      dup2\n        /* \"#utility.yul\":25634:25765   */\n      tag_454\n      jump\t// in\n    tag_712:\n        /* \"#utility.yul\":25626:25765   */\n      swap1\n      pop\n        /* \"#utility.yul\":25353:25772   */\n      swap2\n      swap1\n      pop\n      jump\t// out\n        /* \"#utility.yul\":25778:25925   */\n    tag_455:\n        /* \"#utility.yul\":25879:25890   */\n      0x00\n        /* \"#utility.yul\":25916:25919   */\n      dup2\n        /* \"#utility.yul\":25901:25919   */\n      swap1\n      pop\n        /* \"#utility.yul\":25778:25925   */\n      swap3\n      swap2\n      pop\n      pop\n      jump\t// out\n        /* \"#utility.yul\":25931:26075   */\n    tag_456:\n        /* \"#utility.yul\":25983:25987   */\n      0x00\n        /* \"#utility.yul\":26006:26009   */\n      dup2\n        /* \"#utility.yul\":25998:26009   */\n      swap1\n      pop\n        /* \"#utility.yul\":26029:26032   */\n      dup2\n        /* \"#utility.yul\":26026:26027   */\n      0x00\n        /* \"#utility.yul\":26019:26033   */\n      mstore\n        /* \"#utility.yul\":26063:26067   */\n      0x20\n        /* \"#utility.yul\":26060:26061   */\n      0x00\n        /* \"#utility.yul\":26050:26068   */\n      keccak256\n        /* \"#utility.yul\":26042:26068   */\n      swap1\n      pop\n        /* \"#utility.yul\":25931:26075   */\n      swap2\n      swap1\n      pop\n      jump\t// out\n        /* \"#utility.yul\":26103:26981   */\n    tag_457:\n        /* \"#utility.yul\":26208:26211   */\n      0x00\n        /* \"#utility.yul\":26245:26250   */\n      dup2\n        /* \"#utility.yul\":26239:26251   */\n      sload\n        /* \"#utility.yul\":26274:26310   */\n      tag_716\n        /* \"#utility.yul\":26300:26309   */\n      dup2\n        /* \"#utility.yul\":26274:26310   */\n      tag_65\n      jump\t// in\n    tag_716:\n        /* \"#utility.yul\":26326:26414   */\n      tag_717\n        /* \"#utility.yul\":26407:26413   */\n      dup2\n        /* \"#utility.yul\":26402:26405   */\n      dup7\n        /* \"#utility.yul\":26326:26414   */\n      tag_455\n      jump\t// in\n    tag_717:\n        /* \"#utility.yul\":26319:26414   */\n      swap5\n      pop\n        /* \"#utility.yul\":26445:26446   */\n      0x01\n        /* \"#utility.yul\":26434:26443   */\n      dup3\n        /* \"#utility.yul\":26430:26447   */\n      and\n        /* \"#utility.yul\":26461:26462   */\n      0x00\n        /* \"#utility.yul\":26456:26622   */\n      dup2\n      eq\n      tag_719\n      jumpi\n        /* \"#utility.yul\":26636:26637   */\n      0x01\n        /* \"#utility.yul\":26631:26975   */\n      dup2\n      eq\n      tag_720\n      jumpi\n        /* \"#utility.yul\":26423:26975   */\n      jump(tag_718)\n        /* \"#utility.yul\":26456:26622   */\n    tag_719:\n        /* \"#utility.yul\":26540:26544   */\n      0xff\n        /* \"#utility.yul\":26536:26545   */\n      not\n        /* \"#utility.yul\":26525:26534   */\n      dup4\n        /* \"#utility.yul\":26521:26546   */\n      and\n        /* \"#utility.yul\":26516:26519   */\n      dup7\n        /* \"#utility.yul\":26509:26547   */\n      mstore\n        /* \"#utility.yul\":26602:26608   */\n      dup2\n        /* \"#utility.yul\":26595:26609   */\n      iszero\n        /* \"#utility.yul\":26588:26610   */\n      iszero\n        /* \"#utility.yul\":26580:26586   */\n      dup3\n        /* \"#utility.yul\":26576:26611   */\n      mul\n        /* \"#utility.yul\":26571:26574   */\n      dup7\n        /* \"#utility.yul\":26567:26612   */\n      add\n        /* \"#utility.yul\":26560:26612   */\n      swap4\n      pop\n        /* \"#utility.yul\":26456:26622   */\n      jump(tag_718)\n        /* \"#utility.yul\":26631:26975   */\n    tag_720:\n        /* \"#utility.yul\":26698:26739   */\n      tag_721\n        /* \"#utility.yul\":26733:26738   */\n      dup6\n        /* \"#utility.yul\":26698:26739   */\n      tag_456\n      jump\t// in\n    tag_721:\n        /* \"#utility.yul\":26761:26762   */\n      0x00\n        /* \"#utility.yul\":26775:26929   */\n    tag_722:\n        /* \"#utility.yul\":26789:26795   */\n      dup4\n        /* \"#utility.yul\":26786:26787   */\n      dup2\n        /* \"#utility.yul\":26783:26796   */\n      lt\n        /* \"#utility.yul\":26775:26929   */\n      iszero\n      tag_724\n      jumpi\n        /* \"#utility.yul\":26863:26870   */\n      dup2\n        /* \"#utility.yul\":26857:26871   */\n      sload\n        /* \"#utility.yul\":26853:26854   */\n      dup2\n        /* \"#utility.yul\":26848:26851   */\n      dup10\n        /* \"#utility.yul\":26844:26855   */\n      add\n        /* \"#utility.yul\":26837:26872   */\n      mstore\n        /* \"#utility.yul\":26913:26914   */\n      0x01\n        /* \"#utility.yul\":26904:26911   */\n      dup3\n        /* \"#utility.yul\":26900:26915   */\n      add\n        /* \"#utility.yul\":26889:26915   */\n      swap2\n      pop\n        /* \"#utility.yul\":26811:26815   */\n      0x20\n        /* \"#utility.yul\":26808:26809   */\n      dup2\n        /* \"#utility.yul\":26804:26816   */\n      add\n        /* \"#utility.yul\":26799:26816   */\n      swap1\n      pop\n        /* \"#utility.yul\":26775:26929   */\n      jump(tag_722)\n    tag_724:\n        /* \"#utility.yul\":26958:26964   */\n      dup4\n        /* \"#utility.yul\":26953:26956   */\n      dup9\n        /* \"#utility.yul\":26949:26965   */\n      add\n        /* \"#utility.yul\":26942:26965   */\n      swap6\n      pop\n        /* \"#utility.yul\":26638:26975   */\n      pop\n      pop\n        /* \"#utility.yul\":26423:26975   */\n    tag_718:\n      pop\n        /* \"#utility.yul\":26212:26981   */\n      pop\n      pop\n        /* \"#utility.yul\":26103:26981   */\n      swap3\n      swap2\n      pop\n      pop\n      jump\t// out\n        /* \"#utility.yul\":26987:27260   */\n    tag_141:\n        /* \"#utility.yul\":27118:27121   */\n      0x00\n        /* \"#utility.yul\":27140:27234   */\n      tag_726\n        /* \"#utility.yul\":27230:27233   */\n      dup3\n        /* \"#utility.yul\":27221:27227   */\n      dup5\n        /* \"#utility.yul\":27140:27234   */\n      tag_457\n      jump\t// in\n    tag_726:\n        /* \"#utility.yul\":27133:27234   */\n      swap2\n      pop\n        /* \"#utility.yul\":27251:27254   */\n      dup2\n        /* \"#utility.yul\":27244:27254   */\n      swap1\n      pop\n        /* \"#utility.yul\":26987:27260   */\n      swap3\n      swap2\n      pop\n      pop\n      jump\t// out\n        /* \"#utility.yul\":27266:27446   */\n    tag_458:\n        /* \"#utility.yul\":27314:27391   */\n      0x4e487b7100000000000000000000000000000000000000000000000000000000\n        /* \"#utility.yul\":27311:27312   */\n      0x00\n        /* \"#utility.yul\":27304:27392   */\n      mstore\n        /* \"#utility.yul\":27411:27415   */\n      0x11\n        /* \"#utility.yul\":27408:27409   */\n      0x04\n        /* \"#utility.yul\":27401:27416   */\n      mstore\n        /* \"#utility.yul\":27435:27439   */\n      0x24\n        /* \"#utility.yul\":27432:27433   */\n      0x00\n        /* \"#utility.yul\":27425:27440   */\n      revert\n        /* \"#utility.yul\":27452:27646   */\n    tag_144:\n        /* \"#utility.yul\":27492:27496   */\n      0x00\n        /* \"#utility.yul\":27512:27532   */\n      tag_729\n        /* \"#utility.yul\":27530:27531   */\n      dup3\n        /* \"#utility.yul\":27512:27532   */\n      tag_410\n      jump\t// in\n    tag_729:\n        /* \"#utility.yul\":27507:27532   */\n      swap2\n      pop\n        /* \"#utility.yul\":27546:27566   */\n      tag_730\n        /* \"#utility.yul\":27564:27565   */\n      dup4\n        /* \"#utility.yul\":27546:27566   */\n      tag_410\n      jump\t// in\n    tag_730:\n        /* \"#utility.yul\":27541:27566   */\n      swap3\n      pop\n        /* \"#utility.yul\":27590:27591   */\n      dup3\n        /* \"#utility.yul\":27587:27588   */\n      dup3\n        /* \"#utility.yul\":27583:27592   */\n      sub\n        /* \"#utility.yul\":27575:27592   */\n      swap1\n      pop\n        /* \"#utility.yul\":27614:27615   */\n      dup2\n        /* \"#utility.yul\":27608:27612   */\n      dup2\n        /* \"#utility.yul\":27605:27616   */\n      gt\n        /* \"#utility.yul\":27602:27639   */\n      iszero\n      tag_731\n      jumpi\n        /* \"#utility.yul\":27619:27637   */\n      tag_732\n      tag_458\n      jump\t// in\n    tag_732:\n        /* \"#utility.yul\":27602:27639   */\n    tag_731:\n        /* \"#utility.yul\":27452:27646   */\n      swap3\n      swap2\n      pop\n      pop\n      jump\t// out\n        /* \"#utility.yul\":27652:27805   */\n    tag_459:\n        /* \"#utility.yul\":27705:27711   */\n      0x00\n        /* \"#utility.yul\":27739:27744   */\n      dup2\n        /* \"#utility.yul\":27733:27745   */\n      sload\n        /* \"#utility.yul\":27723:27745   */\n      swap1\n      pop\n        /* \"#utility.yul\":27765:27798   */\n      tag_734\n        /* \"#utility.yul\":27791:27797   */\n      dup2\n        /* \"#utility.yul\":27765:27798   */\n      tag_65\n      jump\t// in\n    tag_734:\n        /* \"#utility.yul\":27755:27798   */\n      swap1\n      pop\n        /* \"#utility.yul\":27652:27805   */\n      swap2\n      swap1\n      pop\n      jump\t// out\n        /* \"#utility.yul\":27811:27952   */\n    tag_460:\n        /* \"#utility.yul\":27860:27864   */\n      0x00\n        /* \"#utility.yul\":27883:27886   */\n      dup2\n        /* \"#utility.yul\":27875:27886   */\n      swap1\n      pop\n        /* \"#utility.yul\":27906:27909   */\n      dup2\n        /* \"#utility.yul\":27903:27904   */\n      0x00\n        /* \"#utility.yul\":27896:27910   */\n      mstore\n        /* \"#utility.yul\":27940:27944   */\n      0x20\n        /* \"#utility.yul\":27937:27938   */\n      0x00\n        /* \"#utility.yul\":27927:27945   */\n      keccak256\n        /* \"#utility.yul\":27919:27945   */\n      swap1\n      pop\n        /* \"#utility.yul\":27811:27952   */\n      swap2\n      swap1\n      pop\n      jump\t// out\n        /* \"#utility.yul\":27958:28103   */\n    tag_461:\n        /* \"#utility.yul\":28011:28015   */\n      0x00\n        /* \"#utility.yul\":28034:28037   */\n      dup2\n        /* \"#utility.yul\":28026:28037   */\n      swap1\n      pop\n        /* \"#utility.yul\":28057:28060   */\n      dup2\n        /* \"#utility.yul\":28054:28055   */\n      0x00\n        /* \"#utility.yul\":28047:28061   */\n      mstore\n        /* \"#utility.yul\":28091:28095   */\n      0x20\n        /* \"#utility.yul\":28088:28089   */\n      0x00\n        /* \"#utility.yul\":28078:28096   */\n      keccak256\n        /* \"#utility.yul\":28070:28096   */\n      swap1\n      pop\n        /* \"#utility.yul\":27958:28103   */\n      swap2\n      swap1\n      pop\n      jump\t// out\n        /* \"#utility.yul\":28109:28202   */\n    tag_462:\n        /* \"#utility.yul\":28146:28152   */\n      0x00\n        /* \"#utility.yul\":28193:28195   */\n      0x20\n        /* \"#utility.yul\":28188:28190   */\n      0x1f\n        /* \"#utility.yul\":28181:28186   */\n      dup4\n        /* \"#utility.yul\":28177:28191   */\n      add\n        /* \"#utility.yul\":28173:28196   */\n      div\n        /* \"#utility.yul\":28163:28196   */\n      swap1\n      pop\n        /* \"#utility.yul\":28109:28202   */\n      swap2\n      swap1\n      pop\n      jump\t// out\n        /* \"#utility.yul\":28208:28315   */\n    tag_463:\n        /* \"#utility.yul\":28252:28260   */\n      0x00\n        /* \"#utility.yul\":28302:28307   */\n      dup3\n        /* \"#utility.yul\":28296:28300   */\n      dup3\n        /* \"#utility.yul\":28292:28308   */\n      shl\n        /* \"#utility.yul\":28271:28308   */\n      swap1\n      pop\n        /* \"#utility.yul\":28208:28315   */\n      swap3\n      swap2\n      pop\n      pop\n      jump\t// out\n        /* \"#utility.yul\":28321:28714   */\n    tag_464:\n        /* \"#utility.yul\":28390:28396   */\n      0x00\n        /* \"#utility.yul\":28440:28441   */\n      0x08\n        /* \"#utility.yul\":28428:28438   */\n      dup4\n        /* \"#utility.yul\":28424:28442   */\n      mul\n        /* \"#utility.yul\":28463:28560   */\n      tag_740\n        /* \"#utility.yul\":28493:28559   */\n      0xffffffffffffffffffffffffffffffffffffffffffffffffffffffffffffffff\n        /* \"#utility.yul\":28482:28491   */\n      dup3\n        /* \"#utility.yul\":28463:28560   */\n      tag_463\n      jump\t// in\n    tag_740:\n        /* \"#utility.yul\":28581:28620   */\n      tag_741\n        /* \"#utility.yul\":28611:28619   */\n      dup7\n        /* \"#utility.yul\":28600:28609   */\n      dup4\n        /* \"#utility.yul\":28581:28620   */\n      tag_463\n      jump\t// in\n    tag_741:\n        /* \"#utility.yul\":28569:28620   */\n      swap6\n      pop\n        /* \"#utility.yul\":28653:28657   */\n      dup1\n        /* \"#utility.yul\":28649:28658   */\n      not\n        /* \"#utility.yul\":28642:28647   */\n      dup5\n        /* \"#utility.yul\":28638:28659   */\n      and\n        /* \"#utility.yul\":28629:28659   */\n      swap4\n      pop\n        /* \"#utility.yul\":28702:28706   */\n      dup1\n        /* \"#utility.yul\":28692:28700   */\n      dup7\n        /* \"#utility.yul\":28688:28707   */\n      and\n        /* \"#utility.yul\":28681:28686   */\n      dup5\n        /* \"#utility.yul\":28678:28708   */\n      or\n        /* \"#utility.yul\":28668:28708   */\n      swap3\n      pop\n        /* \"#utility.yul\":28397:28714   */\n      pop\n      pop\n        /* \"#utility.yul\":28321:28714   */\n      swap4\n      swap3\n      pop\n      pop\n      pop\n      jump\t// out\n        /* \"#utility.yul\":28720:28780   */\n    tag_465:\n        /* \"#utility.yul\":28748:28751   */\n      0x00\n        /* \"#utility.yul\":28769:28774   */\n      dup2\n        /* \"#utility.yul\":28762:28774   */\n      swap1\n      pop\n        /* \"#utility.yul\":28720:28780   */\n      swap2\n      swap1\n      pop\n      jump\t// out\n        /* \"#utility.yul\":28786:28928   */\n    tag_466:\n        /* \"#utility.yul\":28836:28845   */\n      0x00\n        /* \"#utility.yul\":28869:28922   */\n      tag_744\n        /* \"#utility.yul\":28887:28921   */\n      tag_745\n        /* \"#utility.yul\":28896:28920   */\n      tag_746\n        /* \"#utility.yul\":28914:28919   */\n      dup5\n        /* \"#utility.yul\":28896:28920   */\n      tag_410\n      jump\t// in\n    tag_746:\n        /* \"#utility.yul\":28887:28921   */\n      tag_465\n      jump\t// in\n    tag_745:\n        /* \"#utility.yul\":28869:28922   */\n      tag_410\n      jump\t// in\n    tag_744:\n        /* \"#utility.yul\":28856:28922   */\n      swap1\n      pop\n        /* \"#utility.yul\":28786:28928   */\n      swap2\n      swap1\n      pop\n      jump\t// out\n        /* \"#utility.yul\":28934:29009   */\n    tag_467:\n        /* \"#utility.yul\":28977:28980   */\n      0x00\n        /* \"#utility.yul\":28998:29003   */\n      dup2\n        /* \"#utility.yul\":28991:29003   */\n      swap1\n      pop\n        /* \"#utility.yul\":28934:29009   */\n      swap2\n      swap1\n      pop\n      jump\t// out\n        /* \"#utility.yul\":29015:29284   */\n    tag_468:\n        /* \"#utility.yul\":29125:29164   */\n      tag_749\n        /* \"#utility.yul\":29156:29163   */\n      dup4\n        /* \"#utility.yul\":29125:29164   */\n      tag_466\n      jump\t// in\n    tag_749:\n        /* \"#utility.yul\":29186:29277   */\n      tag_750\n        /* \"#utility.yul\":29235:29276   */\n      tag_751\n        /* \"#utility.yul\":29259:29275   */\n      dup3\n        /* \"#utility.yul\":29235:29276   */\n      tag_467\n      jump\t// in\n    tag_751:\n        /* \"#utility.yul\":29227:29233   */\n      dup5\n        /* \"#utility.yul\":29220:29224   */\n      dup5\n        /* \"#utility.yul\":29214:29225   */\n      sload\n        /* \"#utility.yul\":29186:29277   */\n      tag_464\n      jump\t// in\n    tag_750:\n        /* \"#utility.yul\":29180:29184   */\n      dup3\n        /* \"#utility.yul\":29173:29278   */\n      sstore\n        /* \"#utility.yul\":29091:29284   */\n      pop\n        /* \"#utility.yul\":29015:29284   */\n      pop\n      pop\n      pop\n      jump\t// out\n        /* \"#utility.yul\":29290:29363   */\n    tag_469:\n        /* \"#utility.yul\":29335:29338   */\n      0x00\n        /* \"#utility.yul\":29290:29363   */\n      swap1\n      jump\t// out\n        /* \"#utility.yul\":29369:29558   */\n    tag_470:\n        /* \"#utility.yul\":29446:29478   */\n      tag_754\n      tag_469\n      jump\t// in\n    tag_754:\n        /* \"#utility.yul\":29487:29552   */\n      tag_755\n        /* \"#utility.yul\":29545:29551   */\n      dup2\n        /* \"#utility.yul\":29537:29543   */\n      dup5\n        /* \"#utility.yul\":29531:29535   */\n      dup5\n        /* \"#utility.yul\":29487:29552   */\n      tag_468\n      jump\t// in\n    tag_755:\n        /* \"#utility.yul\":29422:29558   */\n      pop\n        /* \"#utility.yul\":29369:29558   */\n      pop\n      pop\n      jump\t// out\n        /* \"#utility.yul\":29564:29750   */\n    tag_471:\n        /* \"#utility.yul\":29624:29744   */\n    tag_757:\n        /* \"#utility.yul\":29641:29644   */\n      dup2\n        /* \"#utility.yul\":29634:29639   */\n      dup2\n        /* \"#utility.yul\":29631:29645   */\n      lt\n        /* \"#utility.yul\":29624:29744   */\n      iszero\n      tag_759\n      jumpi\n        /* \"#utility.yul\":29695:29734   */\n      tag_760\n        /* \"#utility.yul\":29732:29733   */\n      0x00\n        /* \"#utility.yul\":29725:29730   */\n      dup3\n        /* \"#utility.yul\":29695:29734   */\n      tag_470\n      jump\t// in\n    tag_760:\n        /* \"#utility.yul\":29668:29669   */\n      0x01\n        /* \"#utility.yul\":29661:29666   */\n      dup2\n        /* \"#utility.yul\":29657:29670   */\n      add\n        /* \"#utility.yul\":29648:29670   */\n      swap1\n      pop\n        /* \"#utility.yul\":29624:29744   */\n      jump(tag_757)\n    tag_759:\n        /* \"#utility.yul\":29564:29750   */\n      pop\n      pop\n      jump\t// out\n        /* \"#utility.yul\":29756:30299   */\n    tag_472:\n        /* \"#utility.yul\":29857:29859   */\n      0x1f\n        /* \"#utility.yul\":29852:29855   */\n      dup3\n        /* \"#utility.yul\":29849:29860   */\n      gt\n        /* \"#utility.yul\":29846:30292   */\n      iszero\n      tag_762\n      jumpi\n        /* \"#utility.yul\":29891:29929   */\n      tag_763\n        /* \"#utility.yul\":29923:29928   */\n      dup2\n        /* \"#utility.yul\":29891:29929   */\n      tag_460\n      jump\t// in\n    tag_763:\n        /* \"#utility.yul\":29975:30004   */\n      tag_764\n        /* \"#utility.yul\":29993:30003   */\n      dup5\n        /* \"#utility.yul\":29975:30004   */\n      tag_462\n      jump\t// in\n    tag_764:\n        /* \"#utility.yul\":29965:29973   */\n      dup2\n        /* \"#utility.yul\":29961:30005   */\n      add\n        /* \"#utility.yul\":30158:30160   */\n      0x20\n        /* \"#utility.yul\":30146:30156   */\n      dup6\n        /* \"#utility.yul\":30143:30161   */\n      lt\n        /* \"#utility.yul\":30140:30189   */\n      iszero\n      tag_765\n      jumpi\n        /* \"#utility.yul\":30179:30187   */\n      dup2\n        /* \"#utility.yul\":30164:30187   */\n      swap1\n      pop\n        /* \"#utility.yul\":30140:30189   */\n    tag_765:\n        /* \"#utility.yul\":30202:30282   */\n      tag_766\n        /* \"#utility.yul\":30258:30280   */\n      tag_767\n        /* \"#utility.yul\":30276:30279   */\n      dup6\n        /* \"#utility.yul\":30258:30280   */\n      tag_462\n      jump\t// in\n    tag_767:\n        /* \"#utility.yul\":30248:30256   */\n      dup4\n        /* \"#utility.yul\":30244:30281   */\n      add\n        /* \"#utility.yul\":30231:30242   */\n      dup3\n        /* \"#utility.yul\":30202:30282   */\n      tag_471\n      jump\t// in\n    tag_766:\n        /* \"#utility.yul\":29861:30292   */\n      pop\n      pop\n        /* \"#utility.yul\":29846:30292   */\n    tag_762:\n        /* \"#utility.yul\":29756:30299   */\n      pop\n      pop\n      pop\n      jump\t// out\n        /* \"#utility.yul\":30305:30422   */\n    tag_473:\n        /* \"#utility.yul\":30359:30367   */\n      0x00\n        /* \"#utility.yul\":30409:30414   */\n      dup3\n        /* \"#utility.yul\":30403:30407   */\n      dup3\n        /* \"#utility.yul\":30399:30415   */\n      shr\n        /* \"#utility.yul\":30378:30415   */\n      swap1\n      pop\n        /* \"#utility.yul\":30305:30422   */\n      swap3\n      swap2\n      pop\n      pop\n      jump\t// out\n        /* \"#utility.yul\":30428:30597   */\n    tag_474:\n        /* \"#utility.yul\":30472:30478   */\n      0x00\n        /* \"#utility.yul\":30505:30556   */\n      tag_770\n        /* \"#utility.yul\":30553:30554   */\n      0x00\n        /* \"#utility.yul\":30549:30555   */\n      not\n        /* \"#utility.yul\":30541:30546   */\n      dup5\n        /* \"#utility.yul\":30538:30539   */\n      0x08\n        /* \"#utility.yul\":30534:30547   */\n      mul\n        /* \"#utility.yul\":30505:30556   */\n      tag_473\n      jump\t// in\n    tag_770:\n        /* \"#utility.yul\":30501:30557   */\n      not\n        /* \"#utility.yul\":30586:30590   */\n      dup1\n        /* \"#utility.yul\":30580:30584   */\n      dup4\n        /* \"#utility.yul\":30576:30591   */\n      and\n        /* \"#utility.yul\":30566:30591   */\n      swap2\n      pop\n        /* \"#utility.yul\":30479:30597   */\n      pop\n        /* \"#utility.yul\":30428:30597   */\n      swap3\n      swap2\n      pop\n      pop\n      jump\t// out\n        /* \"#utility.yul\":30602:30897   */\n    tag_475:\n        /* \"#utility.yul\":30678:30682   */\n      0x00\n        /* \"#utility.yul\":30824:30853   */\n      tag_772\n        /* \"#utility.yul\":30849:30852   */\n      dup4\n        /* \"#utility.yul\":30843:30847   */\n      dup4\n        /* \"#utility.yul\":30824:30853   */\n      tag_474\n      jump\t// in\n    tag_772:\n        /* \"#utility.yul\":30816:30853   */\n      swap2\n      pop\n        /* \"#utility.yul\":30886:30889   */\n      dup3\n        /* \"#utility.yul\":30883:30884   */\n      0x02\n        /* \"#utility.yul\":30879:30890   */\n      mul\n        /* \"#utility.yul\":30873:30877   */\n      dup3\n        /* \"#utility.yul\":30870:30891   */\n      or\n        /* \"#utility.yul\":30862:30891   */\n      swap1\n      pop\n        /* \"#utility.yul\":30602:30897   */\n      swap3\n      swap2\n      pop\n      pop\n      jump\t// out\n        /* \"#utility.yul\":30902:32365   */\n    tag_152:\n        /* \"#utility.yul\":31017:31020   */\n      dup2\n        /* \"#utility.yul\":31011:31015   */\n      dup2\n        /* \"#utility.yul\":31008:31021   */\n      sub\n        /* \"#utility.yul\":31005:31031   */\n      tag_774\n      jumpi\n        /* \"#utility.yul\":31024:31029   */\n      pop\n      pop\n      jump(tag_773)\n        /* \"#utility.yul\":31005:31031   */\n    tag_774:\n        /* \"#utility.yul\":31055:31093   */\n      tag_775\n        /* \"#utility.yul\":31089:31092   */\n      dup3\n        /* \"#utility.yul\":31055:31093   */\n      tag_459\n      jump\t// in\n    tag_775:\n        /* \"#utility.yul\":31158:31176   */\n      0xffffffffffffffff\n        /* \"#utility.yul\":31150:31156   */\n      dup2\n        /* \"#utility.yul\":31147:31177   */\n      gt\n        /* \"#utility.yul\":31144:31200   */\n      iszero\n      tag_776\n      jumpi\n        /* \"#utility.yul\":31180:31198   */\n      tag_777\n      tag_52\n      jump\t// in\n    tag_777:\n        /* \"#utility.yul\":31144:31200   */\n    tag_776:\n        /* \"#utility.yul\":31224:31262   */\n      tag_778\n        /* \"#utility.yul\":31256:31260   */\n      dup3\n        /* \"#utility.yul\":31250:31261   */\n      sload\n        /* \"#utility.yul\":31224:31262   */\n      tag_65\n      jump\t// in\n    tag_778:\n        /* \"#utility.yul\":31309:31376   */\n      tag_779\n        /* \"#utility.yul\":31369:31375   */\n      dup3\n        /* \"#utility.yul\":31361:31367   */\n      dup3\n        /* \"#utility.yul\":31355:31359   */\n      dup6\n        /* \"#utility.yul\":31309:31376   */\n      tag_472\n      jump\t// in\n    tag_779:\n        /* \"#utility.yul\":31403:31404   */\n      0x00\n        /* \"#utility.yul\":31432:31434   */\n      0x1f\n        /* \"#utility.yul\":31424:31430   */\n      dup4\n        /* \"#utility.yul\":31421:31435   */\n      gt\n        /* \"#utility.yul\":31449:31450   */\n      0x01\n        /* \"#utility.yul\":31444:32120   */\n      dup2\n      eq\n      tag_781\n      jumpi\n        /* \"#utility.yul\":32164:32165   */\n      0x00\n        /* \"#utility.yul\":32181:32187   */\n      dup5\n        /* \"#utility.yul\":32178:32255   */\n      iszero\n      tag_782\n      jumpi\n        /* \"#utility.yul\":32230:32239   */\n      dup3\n        /* \"#utility.yul\":32225:32228   */\n      dup8\n        /* \"#utility.yul\":32221:32240   */\n      add\n        /* \"#utility.yul\":32215:32241   */\n      sload\n        /* \"#utility.yul\":32206:32241   */\n      swap1\n      pop\n        /* \"#utility.yul\":32178:32255   */\n    tag_782:\n        /* \"#utility.yul\":32281:32348   */\n      tag_783\n        /* \"#utility.yul\":32341:32347   */\n      dup6\n        /* \"#utility.yul\":32334:32339   */\n      dup3\n        /* \"#utility.yul\":32281:32348   */\n      tag_475\n      jump\t// in\n    tag_783:\n        /* \"#utility.yul\":32275:32279   */\n      dup7\n        /* \"#utility.yul\":32268:32349   */\n      sstore\n        /* \"#utility.yul\":32137:32359   */\n      pop\n        /* \"#utility.yul\":31414:32359   */\n      jump(tag_780)\n        /* \"#utility.yul\":31444:32120   */\n    tag_781:\n        /* \"#utility.yul\":31496:31500   */\n      0x1f\n        /* \"#utility.yul\":31492:31501   */\n      not\n        /* \"#utility.yul\":31484:31490   */\n      dup5\n        /* \"#utility.yul\":31480:31502   */\n      and\n        /* \"#utility.yul\":31522:31562   */\n      tag_784\n        /* \"#utility.yul\":31558:31561   */\n      dup8\n        /* \"#utility.yul\":31522:31562   */\n      tag_461\n      jump\t// in\n    tag_784:\n        /* \"#utility.yul\":31515:31562   */\n      swap7\n      pop\n        /* \"#utility.yul\":31589:31626   */\n      tag_785\n        /* \"#utility.yul\":31621:31625   */\n      dup7\n        /* \"#utility.yul\":31589:31626   */\n      tag_460\n      jump\t// in\n    tag_785:\n        /* \"#utility.yul\":31648:31649   */\n      0x00\n        /* \"#utility.yul\":31662:31869   */\n    tag_786:\n        /* \"#utility.yul\":31676:31683   */\n      dup3\n        /* \"#utility.yul\":31673:31674   */\n      dup2\n        /* \"#utility.yul\":31670:31684   */\n      lt\n        /* \"#utility.yul\":31662:31869   */\n      iszero\n      tag_788\n      jumpi\n        /* \"#utility.yul\":31755:31764   */\n      dup5\n        /* \"#utility.yul\":31750:31753   */\n      dup10\n        /* \"#utility.yul\":31746:31765   */\n      add\n        /* \"#utility.yul\":31740:31766   */\n      sload\n        /* \"#utility.yul\":31732:31738   */\n      dup3\n        /* \"#utility.yul\":31725:31767   */\n      sstore\n        /* \"#utility.yul\":31806:31807   */\n      0x01\n        /* \"#utility.yul\":31798:31804   */\n      dup3\n        /* \"#utility.yul\":31794:31808   */\n      add\n        /* \"#utility.yul\":31784:31808   */\n      swap2\n      pop\n        /* \"#utility.yul\":31853:31854   */\n      0x01\n        /* \"#utility.yul\":31842:31851   */\n      dup6\n        /* \"#utility.yul\":31838:31855   */\n      add\n        /* \"#utility.yul\":31825:31855   */\n      swap5\n      pop\n        /* \"#utility.yul\":31699:31703   */\n      0x20\n        /* \"#utility.yul\":31696:31697   */\n      dup2\n        /* \"#utility.yul\":31692:31704   */\n      add\n        /* \"#utility.yul\":31687:31704   */\n      swap1\n      pop\n        /* \"#utility.yul\":31662:31869   */\n      jump(tag_786)\n    tag_788:\n        /* \"#utility.yul\":31897:31903   */\n      dup7\n        /* \"#utility.yul\":31888:31895   */\n      dup4\n        /* \"#utility.yul\":31885:31904   */\n      lt\n        /* \"#utility.yul\":31882:32061   */\n      iszero\n      tag_789\n      jumpi\n        /* \"#utility.yul\":31955:31964   */\n      dup5\n        /* \"#utility.yul\":31950:31953   */\n      dup10\n        /* \"#utility.yul\":31946:31965   */\n      add\n        /* \"#utility.yul\":31940:31966   */\n      sload\n        /* \"#utility.yul\":31998:32046   */\n      tag_790\n        /* \"#utility.yul\":32040:32044   */\n      0x1f\n        /* \"#utility.yul\":32032:32038   */\n      dup10\n        /* \"#utility.yul\":32028:32045   */\n      and\n        /* \"#utility.yul\":32017:32026   */\n      dup3\n        /* \"#utility.yul\":31998:32046   */\n      tag_474\n      jump\t// in\n    tag_790:\n        /* \"#utility.yul\":31990:31996   */\n      dup4\n        /* \"#utility.yul\":31983:32047   */\n      sstore\n        /* \"#utility.yul\":31905:32061   */\n      pop\n        /* \"#utility.yul\":31882:32061   */\n    tag_789:\n        /* \"#utility.yul\":32107:32108   */\n      0x01\n        /* \"#utility.yul\":32103:32104   */\n      0x02\n        /* \"#utility.yul\":32095:32101   */\n      dup9\n        /* \"#utility.yul\":32091:32105   */\n      mul\n        /* \"#utility.yul\":32087:32109   */\n      add\n        /* \"#utility.yul\":32081:32085   */\n      dup9\n        /* \"#utility.yul\":32074:32110   */\n      sstore\n        /* \"#utility.yul\":31451:32120   */\n      pop\n      pop\n      pop\n        /* \"#utility.yul\":31414:32359   */\n    tag_780:\n      pop\n        /* \"#utility.yul\":30995:32365   */\n      pop\n      pop\n      pop\n        /* \"#utility.yul\":30902:32365   */\n      pop\n      pop\n    tag_773:\n      jump\t// out\n        /* \"#utility.yul\":32371:32551   */\n    tag_155:\n        /* \"#utility.yul\":32419:32496   */\n      0x4e487b7100000000000000000000000000000000000000000000000000000000\n        /* \"#utility.yul\":32416:32417   */\n      0x00\n        /* \"#utility.yul\":32409:32497   */\n      mstore\n        /* \"#utility.yul\":32516:32520   */\n      0x31\n        /* \"#utility.yul\":32513:32514   */\n      0x04\n        /* \"#utility.yul\":32506:32521   */\n      mstore\n        /* \"#utility.yul\":32540:32544   */\n      0x24\n        /* \"#utility.yul\":32537:32538   */\n      0x00\n        /* \"#utility.yul\":32530:32545   */\n      revert\n        /* \"#utility.yul\":32557:32728   */\n    tag_476:\n        /* \"#utility.yul\":32697:32720   */\n      0x466f6c64657220616c7265616479206578697374730000000000000000000000\n        /* \"#utility.yul\":32693:32694   */\n      0x00\n        /* \"#utility.yul\":32685:32691   */\n      dup3\n        /* \"#utility.yul\":32681:32695   */\n      add\n        /* \"#utility.yul\":32674:32721   */\n      mstore\n        /* \"#utility.yul\":32557:32728   */\n      pop\n      jump\t// out\n        /* \"#utility.yul\":32734:33100   */\n    tag_477:\n        /* \"#utility.yul\":32876:32879   */\n      0x00\n        /* \"#utility.yul\":32897:32964   */\n      tag_794\n        /* \"#utility.yul\":32961:32963   */\n      0x15\n        /* \"#utility.yul\":32956:32959   */\n      dup4\n        /* \"#utility.yul\":32897:32964   */\n      tag_416\n      jump\t// in\n    tag_794:\n        /* \"#utility.yul\":32890:32964   */\n      swap2\n      pop\n        /* \"#utility.yul\":32973:33066   */\n      tag_795\n        /* \"#utility.yul\":33062:33065   */\n      dup3\n        /* \"#utility.yul\":32973:33066   */\n      tag_476\n      jump\t// in\n    tag_795:\n        /* \"#utility.yul\":33091:33093   */\n      0x20\n        /* \"#utility.yul\":33086:33089   */\n      dup3\n        /* \"#utility.yul\":33082:33094   */\n      add\n        /* \"#utility.yul\":33075:33094   */\n      swap1\n      pop\n        /* \"#utility.yul\":32734:33100   */\n      swap2\n      swap1\n      pop\n      jump\t// out\n        /* \"#utility.yul\":33106:33525   */\n    tag_174:\n        /* \"#utility.yul\":33272:33276   */\n      0x00\n        /* \"#utility.yul\":33310:33312   */\n      0x20\n        /* \"#utility.yul\":33299:33308   */\n      dup3\n        /* \"#utility.yul\":33295:33313   */\n      add\n        /* \"#utility.yul\":33287:33313   */\n      swap1\n      pop\n        /* \"#utility.yul\":33359:33368   */\n      dup2\n        /* \"#utility.yul\":33353:33357   */\n      dup2\n        /* \"#utility.yul\":33349:33369   */\n      sub\n        /* \"#utility.yul\":33345:33346   */\n      0x00\n        /* \"#utility.yul\":33334:33343   */\n      dup4\n        /* \"#utility.yul\":33330:33347   */\n      add\n        /* \"#utility.yul\":33323:33370   */\n      mstore\n        /* \"#utility.yul\":33387:33518   */\n      tag_797\n        /* \"#utility.yul\":33513:33517   */\n      dup2\n        /* \"#utility.yul\":33387:33518   */\n      tag_477\n      jump\t// in\n    tag_797:\n        /* \"#utility.yul\":33379:33518   */\n      swap1\n      pop\n        /* \"#utility.yul\":33106:33525   */\n      swap2\n      swap1\n      pop\n      jump\t// out\n        /* \"#utility.yul\":33531:33758   */\n    tag_478:\n        /* \"#utility.yul\":33671:33705   */\n      0x412066696c652077697468207468652073616d65206e616d6520616c72656164\n        /* \"#utility.yul\":33667:33668   */\n      0x00\n        /* \"#utility.yul\":33659:33665   */\n      dup3\n        /* \"#utility.yul\":33655:33669   */\n      add\n        /* \"#utility.yul\":33648:33706   */\n      mstore\n        /* \"#utility.yul\":33740:33750   */\n      0x7920657869737473000000000000000000000000000000000000000000000000\n        /* \"#utility.yul\":33735:33737   */\n      0x20\n        /* \"#utility.yul\":33727:33733   */\n      dup3\n        /* \"#utility.yul\":33723:33738   */\n      add\n        /* \"#utility.yul\":33716:33751   */\n      mstore\n        /* \"#utility.yul\":33531:33758   */\n      pop\n      jump\t// out\n        /* \"#utility.yul\":33764:34130   */\n    tag_479:\n        /* \"#utility.yul\":33906:33909   */\n      0x00\n        /* \"#utility.yul\":33927:33994   */\n      tag_800\n        /* \"#utility.yul\":33991:33993   */\n      0x28\n        /* \"#utility.yul\":33986:33989   */\n      dup4\n        /* \"#utility.yul\":33927:33994   */\n      tag_416\n      jump\t// in\n    tag_800:\n        /* \"#utility.yul\":33920:33994   */\n      swap2\n      pop\n        /* \"#utility.yul\":34003:34096   */\n      tag_801\n        /* \"#utility.yul\":34092:34095   */\n      dup3\n        /* \"#utility.yul\":34003:34096   */\n      tag_478\n      jump\t// in\n    tag_801:\n        /* \"#utility.yul\":34121:34123   */\n      0x40\n        /* \"#utility.yul\":34116:34119   */\n      dup3\n        /* \"#utility.yul\":34112:34124   */\n      add\n        /* \"#utility.yul\":34105:34124   */\n      swap1\n      pop\n        /* \"#utility.yul\":33764:34130   */\n      swap2\n      swap1\n      pop\n      jump\t// out\n        /* \"#utility.yul\":34136:34555   */\n    tag_179:\n        /* \"#utility.yul\":34302:34306   */\n      0x00\n        /* \"#utility.yul\":34340:34342   */\n      0x20\n        /* \"#utility.yul\":34329:34338   */\n      dup3\n        /* \"#utility.yul\":34325:34343   */\n      add\n        /* \"#utility.yul\":34317:34343   */\n      swap1\n      pop\n        /* \"#utility.yul\":34389:34398   */\n      dup2\n        /* \"#utility.yul\":34383:34387   */\n      dup2\n        /* \"#utility.yul\":34379:34399   */\n      sub\n        /* \"#utility.yul\":34375:34376   */\n      0x00\n        /* \"#utility.yul\":34364:34373   */\n      dup4\n        /* \"#utility.yul\":34360:34377   */\n      add\n        /* \"#utility.yul\":34353:34400   */\n      mstore\n        /* \"#utility.yul\":34417:34548   */\n      tag_803\n        /* \"#utility.yul\":34543:34547   */\n      dup2\n        /* \"#utility.yul\":34417:34548   */\n      tag_479\n      jump\t// in\n    tag_803:\n        /* \"#utility.yul\":34409:34548   */\n      swap1\n      pop\n        /* \"#utility.yul\":34136:34555   */\n      swap2\n      swap1\n      pop\n      jump\t// out\n        /* \"#utility.yul\":34561:35956   */\n    tag_182:\n        /* \"#utility.yul\":34678:34715   */\n      tag_805\n        /* \"#utility.yul\":34711:34714   */\n      dup3\n        /* \"#utility.yul\":34678:34715   */\n      tag_405\n      jump\t// in\n    tag_805:\n        /* \"#utility.yul\":34780:34798   */\n      0xffffffffffffffff\n        /* \"#utility.yul\":34772:34778   */\n      dup2\n        /* \"#utility.yul\":34769:34799   */\n      gt\n        /* \"#utility.yul\":34766:34822   */\n      iszero\n      tag_806\n      jumpi\n        /* \"#utility.yul\":34802:34820   */\n      tag_807\n      tag_52\n      jump\t// in\n    tag_807:\n        /* \"#utility.yul\":34766:34822   */\n    tag_806:\n        /* \"#utility.yul\":34846:34884   */\n      tag_808\n        /* \"#utility.yul\":34878:34882   */\n      dup3\n        /* \"#utility.yul\":34872:34883   */\n      sload\n        /* \"#utility.yul\":34846:34884   */\n      tag_65\n      jump\t// in\n    tag_808:\n        /* \"#utility.yul\":34931:34998   */\n      tag_809\n        /* \"#utility.yul\":34991:34997   */\n      dup3\n        /* \"#utility.yul\":34983:34989   */\n      dup3\n        /* \"#utility.yul\":34977:34981   */\n      dup6\n        /* \"#utility.yul\":34931:34998   */\n      tag_472\n      jump\t// in\n    tag_809:\n        /* \"#utility.yul\":35025:35026   */\n      0x00\n        /* \"#utility.yul\":35049:35053   */\n      0x20\n        /* \"#utility.yul\":35036:35053   */\n      swap1\n      pop\n        /* \"#utility.yul\":35081:35083   */\n      0x1f\n        /* \"#utility.yul\":35073:35079   */\n      dup4\n        /* \"#utility.yul\":35070:35084   */\n      gt\n        /* \"#utility.yul\":35098:35099   */\n      0x01\n        /* \"#utility.yul\":35093:35711   */\n      dup2\n      eq\n      tag_811\n      jumpi\n        /* \"#utility.yul\":35755:35756   */\n      0x00\n        /* \"#utility.yul\":35772:35778   */\n      dup5\n        /* \"#utility.yul\":35769:35846   */\n      iszero\n      tag_812\n      jumpi\n        /* \"#utility.yul\":35821:35830   */\n      dup3\n        /* \"#utility.yul\":35816:35819   */\n      dup8\n        /* \"#utility.yul\":35812:35831   */\n      add\n        /* \"#utility.yul\":35806:35832   */\n      mload\n        /* \"#utility.yul\":35797:35832   */\n      swap1\n      pop\n        /* \"#utility.yul\":35769:35846   */\n    tag_812:\n        /* \"#utility.yul\":35872:35939   */\n      tag_813\n        /* \"#utility.yul\":35932:35938   */\n      dup6\n        /* \"#utility.yul\":35925:35930   */\n      dup3\n        /* \"#utility.yul\":35872:35939   */\n      tag_475\n      jump\t// in\n    tag_813:\n        /* \"#utility.yul\":35866:35870   */\n      dup7\n        /* \"#utility.yul\":35859:35940   */\n      sstore\n        /* \"#utility.yul\":35728:35950   */\n      pop\n        /* \"#utility.yul\":35063:35950   */\n      jump(tag_810)\n        /* \"#utility.yul\":35093:35711   */\n    tag_811:\n        /* \"#utility.yul\":35145:35149   */\n      0x1f\n        /* \"#utility.yul\":35141:35150   */\n      not\n        /* \"#utility.yul\":35133:35139   */\n      dup5\n        /* \"#utility.yul\":35129:35151   */\n      and\n        /* \"#utility.yul\":35179:35216   */\n      tag_814\n        /* \"#utility.yul\":35211:35215   */\n      dup7\n        /* \"#utility.yul\":35179:35216   */\n      tag_460\n      jump\t// in\n    tag_814:\n        /* \"#utility.yul\":35238:35239   */\n      0x00\n        /* \"#utility.yul\":35252:35460   */\n    tag_815:\n        /* \"#utility.yul\":35266:35273   */\n      dup3\n        /* \"#utility.yul\":35263:35264   */\n      dup2\n        /* \"#utility.yul\":35260:35274   */\n      lt\n        /* \"#utility.yul\":35252:35460   */\n      iszero\n      tag_817\n      jumpi\n        /* \"#utility.yul\":35345:35354   */\n      dup5\n        /* \"#utility.yul\":35340:35343   */\n      dup10\n        /* \"#utility.yul\":35336:35355   */\n      add\n        /* \"#utility.yul\":35330:35356   */\n      mload\n        /* \"#utility.yul\":35322:35328   */\n      dup3\n        /* \"#utility.yul\":35315:35357   */\n      sstore\n        /* \"#utility.yul\":35396:35397   */\n      0x01\n        /* \"#utility.yul\":35388:35394   */\n      dup3\n        /* \"#utility.yul\":35384:35398   */\n      add\n        /* \"#utility.yul\":35374:35398   */\n      swap2\n      pop\n        /* \"#utility.yul\":35443:35445   */\n      0x20\n        /* \"#utility.yul\":35432:35441   */\n      dup6\n        /* \"#utility.yul\":35428:35446   */\n      add\n        /* \"#utility.yul\":35415:35446   */\n      swap5\n      pop\n        /* \"#utility.yul\":35289:35293   */\n      0x20\n        /* \"#utility.yul\":35286:35287   */\n      dup2\n        /* \"#utility.yul\":35282:35294   */\n      add\n        /* \"#utility.yul\":35277:35294   */\n      swap1\n      pop\n        /* \"#utility.yul\":35252:35460   */\n      jump(tag_815)\n    tag_817:\n        /* \"#utility.yul\":35488:35494   */\n      dup7\n        /* \"#utility.yul\":35479:35486   */\n      dup4\n        /* \"#utility.yul\":35476:35495   */\n      lt\n        /* \"#utility.yul\":35473:35652   */\n      iszero\n      tag_818\n      jumpi\n        /* \"#utility.yul\":35546:35555   */\n      dup5\n        /* \"#utility.yul\":35541:35544   */\n      dup10\n        /* \"#utility.yul\":35537:35556   */\n      add\n        /* \"#utility.yul\":35531:35557   */\n      mload\n        /* \"#utility.yul\":35589:35637   */\n      tag_819\n        /* \"#utility.yul\":35631:35635   */\n      0x1f\n        /* \"#utility.yul\":35623:35629   */\n      dup10\n        /* \"#utility.yul\":35619:35636   */\n      and\n        /* \"#utility.yul\":35608:35617   */\n      dup3\n        /* \"#utility.yul\":35589:35637   */\n      tag_474\n      jump\t// in\n    tag_819:\n        /* \"#utility.yul\":35581:35587   */\n      dup4\n        /* \"#utility.yul\":35574:35638   */\n      sstore\n        /* \"#utility.yul\":35496:35652   */\n      pop\n        /* \"#utility.yul\":35473:35652   */\n    tag_818:\n        /* \"#utility.yul\":35698:35699   */\n      0x01\n        /* \"#utility.yul\":35694:35695   */\n      0x02\n        /* \"#utility.yul\":35686:35692   */\n      dup9\n        /* \"#utility.yul\":35682:35696   */\n      mul\n        /* \"#utility.yul\":35678:35700   */\n      add\n        /* \"#utility.yul\":35672:35676   */\n      dup9\n        /* \"#utility.yul\":35665:35701   */\n      sstore\n        /* \"#utility.yul\":35100:35711   */\n      pop\n      pop\n      pop\n        /* \"#utility.yul\":35063:35950   */\n    tag_810:\n      pop\n        /* \"#utility.yul\":34653:35956   */\n      pop\n      pop\n      pop\n        /* \"#utility.yul\":34561:35956   */\n      pop\n      pop\n      jump\t// out\n        /* \"#utility.yul\":35962:36131   */\n    tag_480:\n        /* \"#utility.yul\":36102:36123   */\n      0x46696c6520646f6573206e6f7420657869737400000000000000000000000000\n        /* \"#utility.yul\":36098:36099   */\n      0x00\n        /* \"#utility.yul\":36090:36096   */\n      dup3\n        /* \"#utility.yul\":36086:36100   */\n      add\n        /* \"#utility.yul\":36079:36124   */\n      mstore\n        /* \"#utility.yul\":35962:36131   */\n      pop\n      jump\t// out\n        /* \"#utility.yul\":36137:36503   */\n    tag_481:\n        /* \"#utility.yul\":36279:36282   */\n      0x00\n        /* \"#utility.yul\":36300:36367   */\n      tag_822\n        /* \"#utility.yul\":36364:36366   */\n      0x13\n        /* \"#utility.yul\":36359:36362   */\n      dup4\n        /* \"#utility.yul\":36300:36367   */\n      tag_416\n      jump\t// in\n    tag_822:\n        /* \"#utility.yul\":36293:36367   */\n      swap2\n      pop\n        /* \"#utility.yul\":36376:36469   */\n      tag_823\n        /* \"#utility.yul\":36465:36468   */\n      dup3\n        /* \"#utility.yul\":36376:36469   */\n      tag_480\n      jump\t// in\n    tag_823:\n        /* \"#utility.yul\":36494:36496   */\n      0x20\n        /* \"#utility.yul\":36489:36492   */\n      dup3\n        /* \"#utility.yul\":36485:36497   */\n      add\n        /* \"#utility.yul\":36478:36497   */\n      swap1\n      pop\n        /* \"#utility.yul\":36137:36503   */\n      swap2\n      swap1\n      pop\n      jump\t// out\n        /* \"#utility.yul\":36509:36928   */\n    tag_197:\n        /* \"#utility.yul\":36675:36679   */\n      0x00\n        /* \"#utility.yul\":36713:36715   */\n      0x20\n        /* \"#utility.yul\":36702:36711   */\n      dup3\n        /* \"#utility.yul\":36698:36716   */\n      add\n        /* \"#utility.yul\":36690:36716   */\n      swap1\n      pop\n        /* \"#utility.yul\":36762:36771   */\n      dup2\n        /* \"#utility.yul\":36756:36760   */\n      dup2\n        /* \"#utility.yul\":36752:36772   */\n      sub\n        /* \"#utility.yul\":36748:36749   */\n      0x00\n        /* \"#utility.yul\":36737:36746   */\n      dup4\n        /* \"#utility.yul\":36733:36750   */\n      add\n        /* \"#utility.yul\":36726:36773   */\n      mstore\n        /* \"#utility.yul\":36790:36921   */\n      tag_825\n        /* \"#utility.yul\":36916:36920   */\n      dup2\n        /* \"#utility.yul\":36790:36921   */\n      tag_481\n      jump\t// in\n    tag_825:\n        /* \"#utility.yul\":36782:36921   */\n      swap1\n      pop\n        /* \"#utility.yul\":36509:36928   */\n      swap2\n      swap1\n      pop\n      jump\t// out\n        /* \"#utility.yul\":36934:37112   */\n    tag_482:\n        /* \"#utility.yul\":37074:37104   */\n      0x4e65772066696c65206e616d6520616c72656164792065786973747300000000\n        /* \"#utility.yul\":37070:37071   */\n      0x00\n        /* \"#utility.yul\":37062:37068   */\n      dup3\n        /* \"#utility.yul\":37058:37072   */\n      add\n        /* \"#utility.yul\":37051:37105   */\n      mstore\n        /* \"#utility.yul\":36934:37112   */\n      pop\n      jump\t// out\n        /* \"#utility.yul\":37118:37484   */\n    tag_483:\n        /* \"#utility.yul\":37260:37263   */\n      0x00\n        /* \"#utility.yul\":37281:37348   */\n      tag_828\n        /* \"#utility.yul\":37345:37347   */\n      0x1c\n        /* \"#utility.yul\":37340:37343   */\n      dup4\n        /* \"#utility.yul\":37281:37348   */\n      tag_416\n      jump\t// in\n    tag_828:\n        /* \"#utility.yul\":37274:37348   */\n      swap2\n      pop\n        /* \"#utility.yul\":37357:37450   */\n      tag_829\n        /* \"#utility.yul\":37446:37449   */\n      dup3\n        /* \"#utility.yul\":37357:37450   */\n      tag_482\n      jump\t// in\n    tag_829:\n        /* \"#utility.yul\":37475:37477   */\n      0x20\n        /* \"#utility.yul\":37470:37473   */\n      dup3\n        /* \"#utility.yul\":37466:37478   */\n      add\n        /* \"#utility.yul\":37459:37478   */\n      swap1\n      pop\n        /* \"#utility.yul\":37118:37484   */\n      swap2\n      swap1\n      pop\n      jump\t// out\n        /* \"#utility.yul\":37490:37909   */\n    tag_204:\n        /* \"#utility.yul\":37656:37660   */\n      0x00\n        /* \"#utility.yul\":37694:37696   */\n      0x20\n        /* \"#utility.yul\":37683:37692   */\n      dup3\n        /* \"#utility.yul\":37679:37697   */\n      add\n        /* \"#utility.yul\":37671:37697   */\n      swap1\n      pop\n        /* \"#utility.yul\":37743:37752   */\n      dup2\n        /* \"#utility.yul\":37737:37741   */\n      dup2\n        /* \"#utility.yul\":37733:37753   */\n      sub\n        /* \"#utility.yul\":37729:37730   */\n      0x00\n        /* \"#utility.yul\":37718:37727   */\n      dup4\n        /* \"#utility.yul\":37714:37731   */\n      add\n        /* \"#utility.yul\":37707:37754   */\n      mstore\n        /* \"#utility.yul\":37771:37902   */\n      tag_831\n        /* \"#utility.yul\":37897:37901   */\n      dup2\n        /* \"#utility.yul\":37771:37902   */\n      tag_483\n      jump\t// in\n    tag_831:\n        /* \"#utility.yul\":37763:37902   */\n      swap1\n      pop\n        /* \"#utility.yul\":37490:37909   */\n      swap2\n      swap1\n      pop\n      jump\t// out\n        /* \"#utility.yul\":37915:38148   */\n    tag_484:\n        /* \"#utility.yul\":38055:38089   */\n      0x4120666f6c646572207769746820746865206e65772066696c65206e616d6520\n        /* \"#utility.yul\":38051:38052   */\n      0x00\n        /* \"#utility.yul\":38043:38049   */\n      dup3\n        /* \"#utility.yul\":38039:38053   */\n      add\n        /* \"#utility.yul\":38032:38090   */\n      mstore\n        /* \"#utility.yul\":38124:38140   */\n      0x616c726561647920657869737473000000000000000000000000000000000000\n        /* \"#utility.yul\":38119:38121   */\n      0x20\n        /* \"#utility.yul\":38111:38117   */\n      dup3\n        /* \"#utility.yul\":38107:38122   */\n      add\n        /* \"#utility.yul\":38100:38141   */\n      mstore\n        /* \"#utility.yul\":37915:38148   */\n      pop\n      jump\t// out\n        /* \"#utility.yul\":38154:38520   */\n    tag_485:\n        /* \"#utility.yul\":38296:38299   */\n      0x00\n        /* \"#utility.yul\":38317:38384   */\n      tag_834\n        /* \"#utility.yul\":38381:38383   */\n      0x2e\n        /* \"#utility.yul\":38376:38379   */\n      dup4\n        /* \"#utility.yul\":38317:38384   */\n      tag_416\n      jump\t// in\n    tag_834:\n        /* \"#utility.yul\":38310:38384   */\n      swap2\n      pop\n        /* \"#utility.yul\":38393:38486   */\n      tag_835\n        /* \"#utility.yul\":38482:38485   */\n      dup3\n        /* \"#utility.yul\":38393:38486   */\n      tag_484\n      jump\t// in\n    tag_835:\n        /* \"#utility.yul\":38511:38513   */\n      0x40\n        /* \"#utility.yul\":38506:38509   */\n      dup3\n        /* \"#utility.yul\":38502:38514   */\n      add\n        /* \"#utility.yul\":38495:38514   */\n      swap1\n      pop\n        /* \"#utility.yul\":38154:38520   */\n      swap2\n      swap1\n      pop\n      jump\t// out\n        /* \"#utility.yul\":38526:38945   */\n    tag_209:\n        /* \"#utility.yul\":38692:38696   */\n      0x00\n        /* \"#utility.yul\":38730:38732   */\n      0x20\n        /* \"#utility.yul\":38719:38728   */\n      dup3\n        /* \"#utility.yul\":38715:38733   */\n      add\n        /* \"#utility.yul\":38707:38733   */\n      swap1\n      pop\n        /* \"#utility.yul\":38779:38788   */\n      dup2\n        /* \"#utility.yul\":38773:38777   */\n      dup2\n        /* \"#utility.yul\":38769:38789   */\n      sub\n        /* \"#utility.yul\":38765:38766   */\n      0x00\n        /* \"#utility.yul\":38754:38763   */\n      dup4\n        /* \"#utility.yul\":38750:38767   */\n      add\n        /* \"#utility.yul\":38743:38790   */\n      mstore\n        /* \"#utility.yul\":38807:38938   */\n      tag_837\n        /* \"#utility.yul\":38933:38937   */\n      dup2\n        /* \"#utility.yul\":38807:38938   */\n      tag_485\n      jump\t// in\n    tag_837:\n        /* \"#utility.yul\":38799:38938   */\n      swap1\n      pop\n        /* \"#utility.yul\":38526:38945   */\n      swap2\n      swap1\n      pop\n      jump\t// out\n        /* \"#utility.yul\":38951:39100   */\n    tag_486:\n        /* \"#utility.yul\":39000:39006   */\n      0x00\n        /* \"#utility.yul\":39034:39039   */\n      dup2\n        /* \"#utility.yul\":39028:39040   */\n      sload\n        /* \"#utility.yul\":39018:39040   */\n      swap1\n      pop\n        /* \"#utility.yul\":39060:39093   */\n      tag_839\n        /* \"#utility.yul\":39086:39092   */\n      dup2\n        /* \"#utility.yul\":39060:39093   */\n      tag_65\n      jump\t// in\n    tag_839:\n        /* \"#utility.yul\":39050:39093   */\n      swap1\n      pop\n        /* \"#utility.yul\":38951:39100   */\n      swap2\n      swap1\n      pop\n      jump\t// out\n        /* \"#utility.yul\":39106:40557   */\n    tag_229:\n        /* \"#utility.yul\":39217:39220   */\n      dup2\n        /* \"#utility.yul\":39211:39215   */\n      dup2\n        /* \"#utility.yul\":39208:39221   */\n      sub\n        /* \"#utility.yul\":39205:39231   */\n      tag_841\n      jumpi\n        /* \"#utility.yul\":39224:39229   */\n      pop\n      pop\n      jump(tag_840)\n        /* \"#utility.yul\":39205:39231   */\n    tag_841:\n        /* \"#utility.yul\":39255:39289   */\n      tag_842\n        /* \"#utility.yul\":39285:39288   */\n      dup3\n        /* \"#utility.yul\":39255:39289   */\n      tag_486\n      jump\t// in\n    tag_842:\n        /* \"#utility.yul\":39354:39372   */\n      0xffffffffffffffff\n        /* \"#utility.yul\":39346:39352   */\n      dup2\n        /* \"#utility.yul\":39343:39373   */\n      gt\n        /* \"#utility.yul\":39340:39396   */\n      iszero\n      tag_843\n      jumpi\n        /* \"#utility.yul\":39376:39394   */\n      tag_844\n      tag_52\n      jump\t// in\n    tag_844:\n        /* \"#utility.yul\":39340:39396   */\n    tag_843:\n        /* \"#utility.yul\":39420:39458   */\n      tag_845\n        /* \"#utility.yul\":39452:39456   */\n      dup3\n        /* \"#utility.yul\":39446:39457   */\n      sload\n        /* \"#utility.yul\":39420:39458   */\n      tag_65\n      jump\t// in\n    tag_845:\n        /* \"#utility.yul\":39505:39572   */\n      tag_846\n        /* \"#utility.yul\":39565:39571   */\n      dup3\n        /* \"#utility.yul\":39557:39563   */\n      dup3\n        /* \"#utility.yul\":39551:39555   */\n      dup6\n        /* \"#utility.yul\":39505:39572   */\n      tag_472\n      jump\t// in\n    tag_846:\n        /* \"#utility.yul\":39599:39600   */\n      0x00\n        /* \"#utility.yul\":39628:39630   */\n      0x1f\n        /* \"#utility.yul\":39620:39626   */\n      dup4\n        /* \"#utility.yul\":39617:39631   */\n      gt\n        /* \"#utility.yul\":39645:39646   */\n      0x01\n        /* \"#utility.yul\":39640:40312   */\n      dup2\n      eq\n      tag_848\n      jumpi\n        /* \"#utility.yul\":40356:40357   */\n      0x00\n        /* \"#utility.yul\":40373:40379   */\n      dup5\n        /* \"#utility.yul\":40370:40447   */\n      iszero\n      tag_849\n      jumpi\n        /* \"#utility.yul\":40422:40431   */\n      dup3\n        /* \"#utility.yul\":40417:40420   */\n      dup8\n        /* \"#utility.yul\":40413:40432   */\n      add\n        /* \"#utility.yul\":40407:40433   */\n      sload\n        /* \"#utility.yul\":40398:40433   */\n      swap1\n      pop\n        /* \"#utility.yul\":40370:40447   */\n    tag_849:\n        /* \"#utility.yul\":40473:40540   */\n      tag_850\n        /* \"#utility.yul\":40533:40539   */\n      dup6\n        /* \"#utility.yul\":40526:40531   */\n      dup3\n        /* \"#utility.yul\":40473:40540   */\n      tag_475\n      jump\t// in\n    tag_850:\n        /* \"#utility.yul\":40467:40471   */\n      dup7\n        /* \"#utility.yul\":40460:40541   */\n      sstore\n        /* \"#utility.yul\":40329:40551   */\n      pop\n        /* \"#utility.yul\":39610:40551   */\n      jump(tag_847)\n        /* \"#utility.yul\":39640:40312   */\n    tag_848:\n        /* \"#utility.yul\":39692:39696   */\n      0x1f\n        /* \"#utility.yul\":39688:39697   */\n      not\n        /* \"#utility.yul\":39680:39686   */\n      dup5\n        /* \"#utility.yul\":39676:39698   */\n      and\n        /* \"#utility.yul\":39718:39754   */\n      tag_851\n        /* \"#utility.yul\":39750:39753   */\n      dup8\n        /* \"#utility.yul\":39718:39754   */\n      tag_460\n      jump\t// in\n    tag_851:\n        /* \"#utility.yul\":39711:39754   */\n      swap7\n      pop\n        /* \"#utility.yul\":39781:39818   */\n      tag_852\n        /* \"#utility.yul\":39813:39817   */\n      dup7\n        /* \"#utility.yul\":39781:39818   */\n      tag_460\n      jump\t// in\n    tag_852:\n        /* \"#utility.yul\":39840:39841   */\n      0x00\n        /* \"#utility.yul\":39854:40061   */\n    tag_853:\n        /* \"#utility.yul\":39868:39875   */\n      dup3\n        /* \"#utility.yul\":39865:39866   */\n      dup2\n        /* \"#utility.yul\":39862:39876   */\n      lt\n        /* \"#utility.yul\":39854:40061   */\n      iszero\n      tag_855\n      jumpi\n        /* \"#utility.yul\":39947:39956   */\n      dup5\n        /* \"#utility.yul\":39942:39945   */\n      dup10\n        /* \"#utility.yul\":39938:39957   */\n      add\n        /* \"#utility.yul\":39932:39958   */\n      sload\n        /* \"#utility.yul\":39924:39930   */\n      dup3\n        /* \"#utility.yul\":39917:39959   */\n      sstore\n        /* \"#utility.yul\":39998:39999   */\n      0x01\n        /* \"#utility.yul\":39990:39996   */\n      dup3\n        /* \"#utility.yul\":39986:40000   */\n      add\n        /* \"#utility.yul\":39976:40000   */\n      swap2\n      pop\n        /* \"#utility.yul\":40045:40046   */\n      0x01\n        /* \"#utility.yul\":40034:40043   */\n      dup6\n        /* \"#utility.yul\":40030:40047   */\n      add\n        /* \"#utility.yul\":40017:40047   */\n      swap5\n      pop\n        /* \"#utility.yul\":39891:39895   */\n      0x20\n        /* \"#utility.yul\":39888:39889   */\n      dup2\n        /* \"#utility.yul\":39884:39896   */\n      add\n        /* \"#utility.yul\":39879:39896   */\n      swap1\n      pop\n        /* \"#utility.yul\":39854:40061   */\n      jump(tag_853)\n    tag_855:\n        /* \"#utility.yul\":40089:40095   */\n      dup7\n        /* \"#utility.yul\":40080:40087   */\n      dup4\n        /* \"#utility.yul\":40077:40096   */\n      lt\n        /* \"#utility.yul\":40074:40253   */\n      iszero\n      tag_856\n      jumpi\n        /* \"#utility.yul\":40147:40156   */\n      dup5\n        /* \"#utility.yul\":40142:40145   */\n      dup10\n        /* \"#utility.yul\":40138:40157   */\n      add\n        /* \"#utility.yul\":40132:40158   */\n      sload\n        /* \"#utility.yul\":40190:40238   */\n      tag_857\n        /* \"#utility.yul\":40232:40236   */\n      0x1f\n        /* \"#utility.yul\":40224:40230   */\n      dup10\n        /* \"#utility.yul\":40220:40237   */\n      and\n        /* \"#utility.yul\":40209:40218   */\n      dup3\n        /* \"#utility.yul\":40190:40238   */\n      tag_474\n      jump\t// in\n    tag_857:\n        /* \"#utility.yul\":40182:40188   */\n      dup4\n        /* \"#utility.yul\":40175:40239   */\n      sstore\n        /* \"#utility.yul\":40097:40253   */\n      pop\n        /* \"#utility.yul\":40074:40253   */\n    tag_856:\n        /* \"#utility.yul\":40299:40300   */\n      0x01\n        /* \"#utility.yul\":40295:40296   */\n      0x02\n        /* \"#utility.yul\":40287:40293   */\n      dup9\n        /* \"#utility.yul\":40283:40297   */\n      mul\n        /* \"#utility.yul\":40279:40301   */\n      add\n        /* \"#utility.yul\":40273:40277   */\n      dup9\n        /* \"#utility.yul\":40266:40302   */\n      sstore\n        /* \"#utility.yul\":39647:40312   */\n      pop\n      pop\n      pop\n        /* \"#utility.yul\":39610:40551   */\n    tag_847:\n      pop\n        /* \"#utility.yul\":39195:40557   */\n      pop\n      pop\n      pop\n        /* \"#utility.yul\":39106:40557   */\n      pop\n      pop\n    tag_840:\n      jump\t// out\n        /* \"#utility.yul\":40563:40732   */\n    tag_487:\n        /* \"#utility.yul\":40703:40724   */\n      0x46696c6520616c72656164792065786973747300000000000000000000000000\n        /* \"#utility.yul\":40699:40700   */\n      0x00\n        /* \"#utility.yul\":40691:40697   */\n      dup3\n        /* \"#utility.yul\":40687:40701   */\n      add\n        /* \"#utility.yul\":40680:40725   */\n      mstore\n        /* \"#utility.yul\":40563:40732   */\n      pop\n      jump\t// out\n        /* \"#utility.yul\":40738:41104   */\n    tag_488:\n        /* \"#utility.yul\":40880:40883   */\n      0x00\n        /* \"#utility.yul\":40901:40968   */\n      tag_860\n        /* \"#utility.yul\":40965:40967   */\n      0x13\n        /* \"#utility.yul\":40960:40963   */\n      dup4\n        /* \"#utility.yul\":40901:40968   */\n      tag_416\n      jump\t// in\n    tag_860:\n        /* \"#utility.yul\":40894:40968   */\n      swap2\n      pop\n        /* \"#utility.yul\":40977:41070   */\n      tag_861\n        /* \"#utility.yul\":41066:41069   */\n      dup3\n        /* \"#utility.yul\":40977:41070   */\n      tag_487\n      jump\t// in\n    tag_861:\n        /* \"#utility.yul\":41095:41097   */\n      0x20\n        /* \"#utility.yul\":41090:41093   */\n      dup3\n        /* \"#utility.yul\":41086:41098   */\n      add\n        /* \"#utility.yul\":41079:41098   */\n      swap1\n      pop\n        /* \"#utility.yul\":40738:41104   */\n      swap2\n      swap1\n      pop\n      jump\t// out\n        /* \"#utility.yul\":41110:41529   */\n    tag_266:\n        /* \"#utility.yul\":41276:41280   */\n      0x00\n        /* \"#utility.yul\":41314:41316   */\n      0x20\n        /* \"#utility.yul\":41303:41312   */\n      dup3\n        /* \"#utility.yul\":41299:41317   */\n      add\n        /* \"#utility.yul\":41291:41317   */\n      swap1\n      pop\n        /* \"#utility.yul\":41363:41372   */\n      dup2\n        /* \"#utility.yul\":41357:41361   */\n      dup2\n        /* \"#utility.yul\":41353:41373   */\n      sub\n        /* \"#utility.yul\":41349:41350   */\n      0x00\n        /* \"#utility.yul\":41338:41347   */\n      dup4\n        /* \"#utility.yul\":41334:41351   */\n      add\n        /* \"#utility.yul\":41327:41374   */\n      mstore\n        /* \"#utility.yul\":41391:41522   */\n      tag_863\n        /* \"#utility.yul\":41517:41521   */\n      dup2\n        /* \"#utility.yul\":41391:41522   */\n      tag_488\n      jump\t// in\n    tag_863:\n        /* \"#utility.yul\":41383:41522   */\n      swap1\n      pop\n        /* \"#utility.yul\":41110:41529   */\n      swap2\n      swap1\n      pop\n      jump\t// out\n        /* \"#utility.yul\":41535:41764   */\n    tag_489:\n        /* \"#utility.yul\":41675:41709   */\n      0x4120666f6c6465722077697468207468652073616d65206e616d6520616c7265\n        /* \"#utility.yul\":41671:41672   */\n      0x00\n        /* \"#utility.yul\":41663:41669   */\n      dup3\n        /* \"#utility.yul\":41659:41673   */\n      add\n        /* \"#utility.yul\":41652:41710   */\n      mstore\n        /* \"#utility.yul\":41744:41756   */\n      0x6164792065786973747300000000000000000000000000000000000000000000\n        /* \"#utility.yul\":41739:41741   */\n      0x20\n        /* \"#utility.yul\":41731:41737   */\n      dup3\n        /* \"#utility.yul\":41727:41742   */\n      add\n        /* \"#utility.yul\":41720:41757   */\n      mstore\n        /* \"#utility.yul\":41535:41764   */\n      pop\n      jump\t// out\n        /* \"#utility.yul\":41770:42136   */\n    tag_490:\n        /* \"#utility.yul\":41912:41915   */\n      0x00\n        /* \"#utility.yul\":41933:42000   */\n      tag_866\n        /* \"#utility.yul\":41997:41999   */\n      0x2a\n        /* \"#utility.yul\":41992:41995   */\n      dup4\n        /* \"#utility.yul\":41933:42000   */\n      tag_416\n      jump\t// in\n    tag_866:\n        /* \"#utility.yul\":41926:42000   */\n      swap2\n      pop\n        /* \"#utility.yul\":42009:42102   */\n      tag_867\n        /* \"#utility.yul\":42098:42101   */\n      dup3\n        /* \"#utility.yul\":42009:42102   */\n      tag_489\n      jump\t// in\n    tag_867:\n        /* \"#utility.yul\":42127:42129   */\n      0x40\n        /* \"#utility.yul\":42122:42125   */\n      dup3\n        /* \"#utility.yul\":42118:42130   */\n      add\n        /* \"#utility.yul\":42111:42130   */\n      swap1\n      pop\n        /* \"#utility.yul\":41770:42136   */\n      swap2\n      swap1\n      pop\n      jump\t// out\n        /* \"#utility.yul\":42142:42561   */\n    tag_271:\n        /* \"#utility.yul\":42308:42312   */\n      0x00\n        /* \"#utility.yul\":42346:42348   */\n      0x20\n        /* \"#utility.yul\":42335:42344   */\n      dup3\n        /* \"#utility.yul\":42331:42349   */\n      add\n        /* \"#utility.yul\":42323:42349   */\n      swap1\n      pop\n        /* \"#utility.yul\":42395:42404   */\n      dup2\n        /* \"#utility.yul\":42389:42393   */\n      dup2\n        /* \"#utility.yul\":42385:42405   */\n      sub\n        /* \"#utility.yul\":42381:42382   */\n      0x00\n        /* \"#utility.yul\":42370:42379   */\n      dup4\n        /* \"#utility.yul\":42366:42383   */\n      add\n        /* \"#utility.yul\":42359:42406   */\n      mstore\n        /* \"#utility.yul\":42423:42554   */\n      tag_869\n        /* \"#utility.yul\":42549:42553   */\n      dup2\n        /* \"#utility.yul\":42423:42554   */\n      tag_490\n      jump\t// in\n    tag_869:\n        /* \"#utility.yul\":42415:42554   */\n      swap1\n      pop\n        /* \"#utility.yul\":42142:42561   */\n      swap2\n      swap1\n      pop\n      jump\t// out\n        /* \"#utility.yul\":42567:42800   */\n    tag_295:\n        /* \"#utility.yul\":42606:42609   */\n      0x00\n        /* \"#utility.yul\":42629:42653   */\n      tag_871\n        /* \"#utility.yul\":42647:42652   */\n      dup3\n        /* \"#utility.yul\":42629:42653   */\n      tag_410\n      jump\t// in\n    tag_871:\n        /* \"#utility.yul\":42620:42653   */\n      swap2\n      pop\n        /* \"#utility.yul\":42675:42741   */\n      0xffffffffffffffffffffffffffffffffffffffffffffffffffffffffffffffff\n        /* \"#utility.yul\":42668:42673   */\n      dup3\n        /* \"#utility.yul\":42665:42742   */\n      sub\n        /* \"#utility.yul\":42662:42765   */\n      tag_872\n      jumpi\n        /* \"#utility.yul\":42745:42763   */\n      tag_873\n      tag_458\n      jump\t// in\n    tag_873:\n        /* \"#utility.yul\":42662:42765   */\n    tag_872:\n        /* \"#utility.yul\":42792:42793   */\n      0x01\n        /* \"#utility.yul\":42785:42790   */\n      dup3\n        /* \"#utility.yul\":42781:42794   */\n      add\n        /* \"#utility.yul\":42774:42794   */\n      swap1\n      pop\n        /* \"#utility.yul\":42567:42800   */\n      swap2\n      swap1\n      pop\n      jump\t// out\n\n    auxdata: 0xa26469706673582212207e3370cf1236eefd8d686154535b7d11325d53f00804309eac73797fff59c1bb64736f6c634300081a0033\n}\n",
				"bytecode": {
					"linkReferences": {},
					"object": "608060405234801561000f575f80fd5b5061001f3361002460201b60201c565b610453565b5f805f8373ffffffffffffffffffffffffffffffffffffffff1673ffffffffffffffffffffffffffffffffffffffff1681526020019081526020015f205f01805461006e90610177565b905003610147575f805f8373ffffffffffffffffffffffffffffffffffffffff1673ffffffffffffffffffffffffffffffffffffffff1681526020019081526020015f2090506040518060400160405280600881526020017f4d79205370616365000000000000000000000000000000000000000000000000815250815f0190816100f99190610384565b5081816001015f6101000a81548173ffffffffffffffffffffffffffffffffffffffff021916908373ffffffffffffffffffffffffffffffffffffffff160217905550428160020181905550505b50565b7f4e487b71000000000000000000000000000000000000000000000000000000005f52602260045260245ffd5b5f600282049050600182168061018e57607f821691505b6020821081036101a1576101a061014a565b5b50919050565b5f81519050919050565b7f4e487b71000000000000000000000000000000000000000000000000000000005f52604160045260245ffd5b5f819050815f5260205f209050919050565b5f6020601f8301049050919050565b5f82821b905092915050565b5f6008830261023a7fffffffffffffffffffffffffffffffffffffffffffffffffffffffffffffffff826101ff565b61024486836101ff565b95508019841693508086168417925050509392505050565b5f819050919050565b5f819050919050565b5f61028861028361027e8461025c565b610265565b61025c565b9050919050565b5f819050919050565b6102a18361026e565b6102b56102ad8261028f565b84845461020b565b825550505050565b5f90565b6102c96102bd565b6102d4818484610298565b505050565b5b818110156102f7576102ec5f826102c1565b6001810190506102da565b5050565b601f82111561033c5761030d816101de565b610316846101f0565b81016020851015610325578190505b610339610331856101f0565b8301826102d9565b50505b505050565b5f82821c905092915050565b5f61035c5f1984600802610341565b1980831691505092915050565b5f610374838361034d565b9150826002028217905092915050565b61038d826101a7565b67ffffffffffffffff8111156103a6576103a56101b1565b5b6103b08254610177565b6103bb8282856102fb565b5f60209050601f8311600181146103ec575f84156103da578287015190505b6103e48582610369565b86555061044b565b601f1984166103fa866101de565b5f5b82811015610421578489015182556001820191506020850194506020810190506103fc565b8683101561043e578489015161043a601f89168261034d565b8355505b6001600288020188555050505b505050505050565b613665806104605f395ff3fe608060405234801561000f575f80fd5b5060043610610091575f3560e01c8063e01adc0511610064578063e01adc051461011d578063e75c50511461013b578063eff9f64f14610157578063f5ded10b14610173578063f7da18c81461018f57610091565b8063243a658d1461009557806337db6c1a146100b3578063c905819b146100d1578063d3780e1014610101575b5f80fd5b61009d6101ab565b6040516100aa91906122f1565b60405180910390f35b6100bb610481565b6040516100c89190612359565b60405180910390f35b6100eb60048036038101906100e69190612598565b61054d565b6040516100f891906127a5565b60405180910390f35b61011b600480360381019061011691906127c5565b610684565b005b6101256109c4565b6040516101329190612359565b60405180910390f35b610155600480360381019061015091906127c5565b610a99565b005b610171600480360381019061016c9190612865565b610ccf565b005b61018d600480360381019061018891906129d4565b61114d565b005b6101a960048036038101906101a49190612a5c565b6113ab565b005b60605f805f3373ffffffffffffffffffffffffffffffffffffffff1673ffffffffffffffffffffffffffffffffffffffff1681526020019081526020015f2090505f816006018054905067ffffffffffffffff81111561020e5761020d61238e565b5b60405190808252806020026020018201604052801561024757816020015b610234611fa1565b81526020019060019003908161022c5790505b5090505f5b8260060180549050811015610478575f83600601828154811061027257610271612b43565b5b905f5260205f20906006020190506040518060a00160405280825f01805461029990612b9d565b80601f01602080910402602001604051908101604052809291908181526020018280546102c590612b9d565b80156103105780601f106102e757610100808354040283529160200191610310565b820191905f5260205f20905b8154815290600101906020018083116102f357829003601f168201915b5050505050815260200182600101805461032990612b9d565b80601f016020809104026020016040519081016040528092919081815260200182805461035590612b9d565b80156103a05780601f10610377576101008083540402835291602001916103a0565b820191905f5260205f20905b81548152906001019060200180831161038357829003601f168201915b50505050508152602001826002015481526020018260030180546103c390612b9d565b80601f01602080910402602001604051908101604052809291908181526020018280546103ef90612b9d565b801561043a5780601f106104115761010080835404028352916020019161043a565b820191905f5260205f20905b81548152906001019060200180831161041d57829003601f168201915b50505050508152602001826005015481525083838151811061045f5761045e612b43565b5b602002602001018190525050808060010191505061024c565b50809250505090565b60605f805f3373ffffffffffffffffffffffffffffffffffffffff1673ffffffffffffffffffffffffffffffffffffffff1681526020019081526020015f205f0180546104cd90612b9d565b905003610511576040518060400160405280601381526020017f4261736520646f6573206e6f7420657869737400000000000000000000000000815250905061054a565b6040518060400160405280601381526020017f4261736520616c7265616479206578697374730000000000000000000000000081525090505b90565b610555611fce565b5f805f3373ffffffffffffffffffffffffffffffffffffffff1673ffffffffffffffffffffffffffffffffffffffff1681526020019081526020015f2090505f5b8351811015610672575f826005018583815181106105b7576105b6612b43565b5b60200260200101516040516105cc9190612c07565b90815260200160405180910390205f0180546105e790612b9d565b905003610629576040517f08c379a000000000000000000000000000000000000000000000000000000000815260040161062090612c67565b60405180910390fd5b816005018482815181106106405761063f612b43565b5b60200260200101516040516106559190612c07565b908152602001604051809103902091508080600101915050610596565b5061067c81611611565b915050919050565b61068d33611e7b565b5f805f3373ffffffffffffffffffffffffffffffffffffffff1673ffffffffffffffffffffffffffffffffffffffff1681526020019081526020015f2090505f5b835181101561072057816005018482815181106106ee576106ed612b43565b5b60200260200101516040516107039190612c07565b9081526020016040518091039020915080806001019150506106ce565b505f81600401836040516107349190612c07565b90815260200160405180910390205f01805461074f90612b9d565b9050146107de5780600401826040516107689190612c07565b90815260200160405180910390205f8082015f6107859190611ffc565b600182015f6107949190611ffc565b600282015f9055600382015f6107aa9190611ffc565b600482015f6101000a81549073ffffffffffffffffffffffffffffffffffffffff0219169055600582015f905550506108d0565b5f81600501836040516107f19190612c07565b90815260200160405180910390205f01805461080c90612b9d565b9050146108945780600501826040516108259190612c07565b90815260200160405180910390205f8082015f6108429190611ffc565b600182015f6101000a81549073ffffffffffffffffffffffffffffffffffffffff0219169055600282015f9055600382015f61087e9190612039565b600682015f61088d9190612057565b50506108cf565b6040517f08c379a00000000000000000000000000000000000000000000000000000000081526004016108c690612ccf565b60405180910390fd5b5b5f5b81600301805490508110156109be5782805190602001208260030182815481106108ff576108fe612b43565b5b905f5260205f20016040516109149190612d89565b6040518091039020036109b15781600301600183600301805490506109399190612dcc565b8154811061094a57610949612b43565b5b905f5260205f200182600301828154811061096857610967612b43565b5b905f5260205f2001908161097c9190612fc3565b5081600301805480610991576109906130a8565b5b600190038181905f5260205f20015f6109aa9190611ffc565b90556109be565b80806001019150506108d2565b50505050565b60605f805f3373ffffffffffffffffffffffffffffffffffffffff1673ffffffffffffffffffffffffffffffffffffffff1681526020019081526020015f205f018054610a1090612b9d565b905003610a5d57610a2033611e7b565b6040518060400160405280601081526020017f4261736520696e697469616c697a6564000000000000000000000000000000008152509050610a96565b6040518060400160405280601881526020017f4261736520616c726561647920696e697469616c697a6564000000000000000081525090505b90565b610aa233611e7b565b5f805f3373ffffffffffffffffffffffffffffffffffffffff1673ffffffffffffffffffffffffffffffffffffffff1681526020019081526020015f2090505f5b8351811015610b355781600501848281518110610b0357610b02612b43565b5b6020026020010151604051610b189190612c07565b908152602001604051809103902091508080600101915050610ae3565b505f8160050183604051610b499190612c07565b90815260200160405180910390205f018054610b6490612b9d565b905014610ba6576040517f08c379a0000000000000000000000000000000000000000000000000000000008152600401610b9d9061311f565b60405180910390fd5b5f8160040183604051610bb99190612c07565b90815260200160405180910390205f018054610bd490612b9d565b905014610c16576040517f08c379a0000000000000000000000000000000000000000000000000000000008152600401610c0d906131ad565b60405180910390fd5b5f8160050183604051610c299190612c07565b9081526020016040518091039020905082815f019081610c4991906131cb565b5033816001015f6101000a81548173ffffffffffffffffffffffffffffffffffffffff021916908373ffffffffffffffffffffffffffffffffffffffff1602179055504281600201819055508160030183908060018154018082558091505060019003905f5260205f20015f909190919091509081610cc891906131cb565b5050505050565b610cd833611e7b565b5f805f3373ffffffffffffffffffffffffffffffffffffffff1673ffffffffffffffffffffffffffffffffffffffff1681526020019081526020015f2090505f5b8751811015610d6b5781600501888281518110610d3957610d38612b43565b5b6020026020010151604051610d4e9190612c07565b908152602001604051809103902091508080600101915050610d19565b505f8160040187604051610d7f9190612c07565b90815260200160405180910390205f018054610d9a90612b9d565b905003610ddc576040517f08c379a0000000000000000000000000000000000000000000000000000000008152600401610dd3906132e4565b60405180910390fd5b5f835114158015610dfb57508580519060200120838051906020012014155b15610ee1575f8160040184604051610e139190612c07565b90815260200160405180910390205f018054610e2e90612b9d565b905014610e70576040517f08c379a0000000000000000000000000000000000000000000000000000000008152600401610e679061334c565b60405180910390fd5b5f8160050184604051610e839190612c07565b90815260200160405180910390205f018054610e9e90612b9d565b905014610ee0576040517f08c379a0000000000000000000000000000000000000000000000000000000008152600401610ed7906133da565b60405180910390fd5b5b5f8160040187604051610ef49190612c07565b9081526020016040518091039020905085816001019081610f1591906131cb565b5084816002018190555082816003019081610f3091906131cb565b505f845114158015610f5057508680519060200120848051906020012014155b15611143575f5b8260030180549050811015610fe4578780519060200120836003018281548110610f8457610f83612b43565b5b905f5260205f2001604051610f999190612d89565b604051809103902003610fd75784836003018281548110610fbd57610fbc612b43565b5b905f5260205f20019081610fd191906131cb565b50610fe4565b8080600101915050610f57565b50808260040185604051610ff89190612c07565b90815260200160405180910390205f8201815f019081611018919061340d565b506001820181600101908161102d919061340d565b50600282015481600201556003820181600301908161104c919061340d565b50600482015f9054906101000a900473ffffffffffffffffffffffffffffffffffffffff16816004015f6101000a81548173ffffffffffffffffffffffffffffffffffffffff021916908373ffffffffffffffffffffffffffffffffffffffff1602179055506005820154816005015590505081600401876040516110d19190612c07565b90815260200160405180910390205f8082015f6110ee9190611ffc565b600182015f6110fd9190611ffc565b600282015f9055600382015f6111139190611ffc565b600482015f6101000a81549073ffffffffffffffffffffffffffffffffffffffff0219169055600582015f905550505b5050505050505050565b61115633611e7b565b5f805f3373ffffffffffffffffffffffffffffffffffffffff1673ffffffffffffffffffffffffffffffffffffffff1681526020019081526020015f2090505f5b84518110156111e957816005018582815181106111b7576111b6612b43565b5b60200260200101516040516111cc9190612c07565b908152602001604051809103902091508080600101915050611197565b505f81600401846040516111fd9190612c07565b90815260200160405180910390205f01805461121890612b9d565b90500361125a576040517f08c379a0000000000000000000000000000000000000000000000000000000008152600401611251906132e4565b60405180910390fd5b5f816004018460405161126d9190612c07565b9081526020016040518091039020905061128683611e7b565b5f808473ffffffffffffffffffffffffffffffffffffffff1673ffffffffffffffffffffffffffffffffffffffff1681526020019081526020015f2060060181908060018154018082558091505060019003905f5260205f2090600602015f909190919091505f8201815f0190816112fe919061340d565b5060018201816001019081611313919061340d565b506002820154816002015560038201816003019081611332919061340d565b50600482015f9054906101000a900473ffffffffffffffffffffffffffffffffffffffff16816004015f6101000a81548173ffffffffffffffffffffffffffffffffffffffff021916908373ffffffffffffffffffffffffffffffffffffffff1602179055506005820154816005015550505050505050565b6113b433611e7b565b5f805f3373ffffffffffffffffffffffffffffffffffffffff1673ffffffffffffffffffffffffffffffffffffffff1681526020019081526020015f2090505f5b8651811015611447578160050187828151811061141557611414612b43565b5b602002602001015160405161142a9190612c07565b9081526020016040518091039020915080806001019150506113f5565b505f816004018660405161145b9190612c07565b90815260200160405180910390205f01805461147690612b9d565b9050146114b8576040517f08c379a00000000000000000000000000000000000000000000000000000000081526004016114af9061353c565b60405180910390fd5b5f81600501866040516114cb9190612c07565b90815260200160405180910390205f0180546114e690612b9d565b905014611528576040517f08c379a000000000000000000000000000000000000000000000000000000000815260040161151f906135ca565b60405180910390fd5b5f816004018660405161153b9190612c07565b9081526020016040518091039020905085815f01908161155b91906131cb565b508481600101908161156d91906131cb565b508381600201819055508281600301908161158891906131cb565b5033816004015f6101000a81548173ffffffffffffffffffffffffffffffffffffffff021916908373ffffffffffffffffffffffffffffffffffffffff1602179055504281600501819055508160030186908060018154018082558091505060019003905f5260205f20015f90919091909150908161160791906131cb565b5050505050505050565b611619611fce565b5f805f5b8460030180549050811015611739575f85600301828154811061164357611642612b43565b5b905f5260205f2001805461165690612b9d565b80601f016020809104026020016040519081016040528092919081815260200182805461168290612b9d565b80156116cd5780601f106116a4576101008083540402835291602001916116cd565b820191905f5260205f20905b8154815290600101906020018083116116b057829003601f168201915b505050505090505f86600401826040516116e79190612c07565b90815260200160405180910390205f01805461170290612b9d565b90501461171c578380611714906135e8565b94505061172b565b8280611727906135e8565b9350505b50808060010191505061161d565b505f8267ffffffffffffffff8111156117555761175461238e565b5b60405190808252806020026020018201604052801561178e57816020015b61177b611fa1565b8152602001906001900390816117735790505b5090505f8267ffffffffffffffff8111156117ac576117ab61238e565b5b6040519080825280602002602001820160405280156117df57816020015b60608152602001906001900390816117ca5790505b5090505f866006018054905067ffffffffffffffff8111156118045761180361238e565b5b60405190808252806020026020018201604052801561183d57816020015b61182a611fa1565b8152602001906001900390816118225790505b5090505f805f5b8960030180549050811015611b89575f8a600301828154811061186a57611869612b43565b5b905f5260205f2001805461187d90612b9d565b80601f01602080910402602001604051908101604052809291908181526020018280546118a990612b9d565b80156118f45780601f106118cb576101008083540402835291602001916118f4565b820191905f5260205f20905b8154815290600101906020018083116118d757829003601f168201915b505050505090505f8b6004018260405161190e9190612c07565b90815260200160405180910390205f01805461192990612b9d565b905014611b4f575f8b600401826040516119439190612c07565b908152602001604051809103902090506040518060a00160405280825f01805461196c90612b9d565b80601f016020809104026020016040519081016040528092919081815260200182805461199890612b9d565b80156119e35780601f106119ba576101008083540402835291602001916119e3565b820191905f5260205f20905b8154815290600101906020018083116119c657829003601f168201915b505050505081526020018260010180546119fc90612b9d565b80601f0160208091040260200160405190810160405280929190818152602001828054611a2890612b9d565b8015611a735780601f10611a4a57610100808354040283529160200191611a73565b820191905f5260205f20905b815481529060010190602001808311611a5657829003601f168201915b5050505050815260200182600201548152602001826003018054611a9690612b9d565b80601f0160208091040260200160405190810160405280929190818152602001828054611ac290612b9d565b8015611b0d5780601f10611ae457610100808354040283529160200191611b0d565b820191905f5260205f20905b815481529060010190602001808311611af057829003601f168201915b505050505081526020018260050154815250888680611b2b906135e8565b975081518110611b3e57611b3d612b43565b5b602002602001018190525050611b7b565b80868480611b5c906135e8565b955081518110611b6f57611b6e612b43565b5b60200260200101819052505b508080600101915050611844565b505f5b8960060180549050811015611db8575f8a6006018281548110611bb257611bb1612b43565b5b905f5260205f20906006020190506040518060a00160405280825f018054611bd990612b9d565b80601f0160208091040260200160405190810160405280929190818152602001828054611c0590612b9d565b8015611c505780601f10611c2757610100808354040283529160200191611c50565b820191905f5260205f20905b815481529060010190602001808311611c3357829003601f168201915b50505050508152602001826001018054611c6990612b9d565b80601f0160208091040260200160405190810160405280929190818152602001828054611c9590612b9d565b8015611ce05780601f10611cb757610100808354040283529160200191611ce0565b820191905f5260205f20905b815481529060010190602001808311611cc357829003601f168201915b5050505050815260200182600201548152602001826003018054611d0390612b9d565b80601f0160208091040260200160405190810160405280929190818152602001828054611d2f90612b9d565b8015611d7a5780601f10611d5157610100808354040283529160200191611d7a565b820191905f5260205f20905b815481529060010190602001808311611d5d57829003601f168201915b505050505081526020018260050154815250858381518110611d9f57611d9e612b43565b5b6020026020010181905250508080600101915050611b8c565b506040518060a001604052808a5f018054611dd290612b9d565b80601f0160208091040260200160405190810160405280929190818152602001828054611dfe90612b9d565b8015611e495780601f10611e2057610100808354040283529160200191611e49565b820191905f5260205f20905b815481529060010190602001808311611e2c57829003601f168201915b505050505081526020018a60020154815260200186815260200185815260200184815250975050505050505050919050565b5f805f8373ffffffffffffffffffffffffffffffffffffffff1673ffffffffffffffffffffffffffffffffffffffff1681526020019081526020015f205f018054611ec590612b9d565b905003611f9e575f805f8373ffffffffffffffffffffffffffffffffffffffff1673ffffffffffffffffffffffffffffffffffffffff1681526020019081526020015f2090506040518060400160405280600881526020017f4d79205370616365000000000000000000000000000000000000000000000000815250815f019081611f5091906131cb565b5081816001015f6101000a81548173ffffffffffffffffffffffffffffffffffffffff021916908373ffffffffffffffffffffffffffffffffffffffff160217905550428160020181905550505b50565b6040518060a0016040528060608152602001606081526020015f8152602001606081526020015f81525090565b6040518060a00160405280606081526020015f81526020016060815260200160608152602001606081525090565b50805461200890612b9d565b5f825580601f106120195750612036565b601f0160209004905f5260205f20908101906120359190612078565b5b50565b5080545f8255905f5260205f20908101906120549190612093565b50565b5080545f8255600602905f5260205f209081019061207591906120b6565b50565b5b8082111561208f575f815f905550600101612079565b5090565b5b808211156120b2575f81816120a99190611ffc565b50600101612094565b5090565b5b80821115612129575f8082015f6120ce9190611ffc565b600182015f6120dd9190611ffc565b600282015f9055600382015f6120f39190611ffc565b600482015f6101000a81549073ffffffffffffffffffffffffffffffffffffffff0219169055600582015f9055506006016120b7565b5090565b5f81519050919050565b5f82825260208201905092915050565b5f819050602082019050919050565b5f81519050919050565b5f82825260208201905092915050565b8281835e5f83830152505050565b5f601f19601f8301169050919050565b5f61219882612156565b6121a28185612160565b93506121b2818560208601612170565b6121bb8161217e565b840191505092915050565b5f819050919050565b6121d8816121c6565b82525050565b5f60a083015f8301518482035f8601526121f8828261218e565b91505060208301518482036020860152612212828261218e565b915050604083015161222760408601826121cf565b506060830151848203606086015261223f828261218e565b915050608083015161225460808601826121cf565b508091505092915050565b5f61226a83836121de565b905092915050565b5f602082019050919050565b5f6122888261212d565b6122928185612137565b9350836020820285016122a485612147565b805f5b858110156122df57848403895281516122c0858261225f565b94506122cb83612272565b925060208a019950506001810190506122a7565b50829750879550505050505092915050565b5f6020820190508181035f830152612309818461227e565b905092915050565b5f82825260208201905092915050565b5f61232b82612156565b6123358185612311565b9350612345818560208601612170565b61234e8161217e565b840191505092915050565b5f6020820190508181035f8301526123718184612321565b905092915050565b5f604051905090565b5f80fd5b5f80fd5b5f80fd5b7f4e487b71000000000000000000000000000000000000000000000000000000005f52604160045260245ffd5b6123c48261217e565b810181811067ffffffffffffffff821117156123e3576123e261238e565b5b80604052505050565b5f6123f5612379565b905061240182826123bb565b919050565b5f67ffffffffffffffff8211156124205761241f61238e565b5b602082029050602081019050919050565b5f80fd5b5f80fd5b5f67ffffffffffffffff8211156124535761245261238e565b5b61245c8261217e565b9050602081019050919050565b828183375f83830152505050565b5f61248961248484612439565b6123ec565b9050828152602081018484840111156124a5576124a4612435565b5b6124b0848285612469565b509392505050565b5f82601f8301126124cc576124cb61238a565b5b81356124dc848260208601612477565b91505092915050565b5f6124f76124f284612406565b6123ec565b9050808382526020820190506020840283018581111561251a57612519612431565b5b835b8181101561256157803567ffffffffffffffff81111561253f5761253e61238a565b5b80860161254c89826124b8565b8552602085019450505060208101905061251c565b5050509392505050565b5f82601f83011261257f5761257e61238a565b5b813561258f8482602086016124e5565b91505092915050565b5f602082840312156125ad576125ac612382565b5b5f82013567ffffffffffffffff8111156125ca576125c9612386565b5b6125d68482850161256b565b91505092915050565b5f82825260208201905092915050565b5f6125f98261212d565b61260381856125df565b93508360208202850161261585612147565b805f5b858110156126505784840389528151612631858261225f565b945061263c83612272565b925060208a01995050600181019050612618565b50829750879550505050505092915050565b5f81519050919050565b5f82825260208201905092915050565b5f819050602082019050919050565b5f612696838361218e565b905092915050565b5f602082019050919050565b5f6126b482612662565b6126be818561266c565b9350836020820285016126d08561267c565b805f5b8581101561270b57848403895281516126ec858261268b565b94506126f78361269e565b925060208a019950506001810190506126d3565b50829750879550505050505092915050565b5f60a083015f8301518482035f860152612737828261218e565b915050602083015161274c60208601826121cf565b506040830151848203604086015261276482826125ef565b9150506060830151848203606086015261277e82826126aa565b9150506080830151848203608086015261279882826125ef565b9150508091505092915050565b5f6020820190508181035f8301526127bd818461271d565b905092915050565b5f80604083850312156127db576127da612382565b5b5f83013567ffffffffffffffff8111156127f8576127f7612386565b5b6128048582860161256b565b925050602083013567ffffffffffffffff81111561282557612824612386565b5b612831858286016124b8565b9150509250929050565b612844816121c6565b811461284e575f80fd5b50565b5f8135905061285f8161283b565b92915050565b5f805f805f8060c0878903121561287f5761287e612382565b5b5f87013567ffffffffffffffff81111561289c5761289b612386565b5b6128a889828a0161256b565b965050602087013567ffffffffffffffff8111156128c9576128c8612386565b5b6128d589828a016124b8565b955050604087013567ffffffffffffffff8111156128f6576128f5612386565b5b61290289828a016124b8565b945050606061291389828a01612851565b935050608087013567ffffffffffffffff81111561293457612933612386565b5b61294089828a016124b8565b92505060a087013567ffffffffffffffff81111561296157612960612386565b5b61296d89828a016124b8565b9150509295509295509295565b5f73ffffffffffffffffffffffffffffffffffffffff82169050919050565b5f6129a38261297a565b9050919050565b6129b381612999565b81146129bd575f80fd5b50565b5f813590506129ce816129aa565b92915050565b5f805f606084860312156129eb576129ea612382565b5b5f84013567ffffffffffffffff811115612a0857612a07612386565b5b612a148682870161256b565b935050602084013567ffffffffffffffff811115612a3557612a34612386565b5b612a41868287016124b8565b9250506040612a52868287016129c0565b9150509250925092565b5f805f805f60a08688031215612a7557612a74612382565b5b5f86013567ffffffffffffffff811115612a9257612a91612386565b5b612a9e8882890161256b565b955050602086013567ffffffffffffffff811115612abf57612abe612386565b5b612acb888289016124b8565b945050604086013567ffffffffffffffff811115612aec57612aeb612386565b5b612af8888289016124b8565b9350506060612b0988828901612851565b925050608086013567ffffffffffffffff811115612b2a57612b29612386565b5b612b36888289016124b8565b9150509295509295909350565b7f4e487b71000000000000000000000000000000000000000000000000000000005f52603260045260245ffd5b7f4e487b71000000000000000000000000000000000000000000000000000000005f52602260045260245ffd5b5f6002820490506001821680612bb457607f821691505b602082108103612bc757612bc6612b70565b5b50919050565b5f81905092915050565b5f612be182612156565b612beb8185612bcd565b9350612bfb818560208601612170565b80840191505092915050565b5f612c128284612bd7565b915081905092915050565b7f466f6c64657220646f6573206e6f7420657869737400000000000000000000005f82015250565b5f612c51601583612311565b9150612c5c82612c1d565b602082019050919050565b5f6020820190508181035f830152612c7e81612c45565b9050919050565b7f4974656d20646f6573206e6f74206578697374000000000000000000000000005f82015250565b5f612cb9601383612311565b9150612cc482612c85565b602082019050919050565b5f6020820190508181035f830152612ce681612cad565b9050919050565b5f81905092915050565b5f819050815f5260205f209050919050565b5f8154612d1581612b9d565b612d1f8186612ced565b9450600182165f8114612d395760018114612d4e57612d80565b60ff1983168652811515820286019350612d80565b612d5785612cf7565b5f5b83811015612d7857815481890152600182019150602081019050612d59565b838801955050505b50505092915050565b5f612d948284612d09565b915081905092915050565b7f4e487b71000000000000000000000000000000000000000000000000000000005f52601160045260245ffd5b5f612dd6826121c6565b9150612de1836121c6565b9250828203905081811115612df957612df8612d9f565b5b92915050565b5f81549050612e0d81612b9d565b9050919050565b5f819050815f5260205f209050919050565b5f819050815f5260205f209050919050565b5f6020601f8301049050919050565b5f82821b905092915050565b5f60088302612e827fffffffffffffffffffffffffffffffffffffffffffffffffffffffffffffffff82612e47565b612e8c8683612e47565b95508019841693508086168417925050509392505050565b5f819050919050565b5f612ec7612ec2612ebd846121c6565b612ea4565b6121c6565b9050919050565b5f819050919050565b612ee083612ead565b612ef4612eec82612ece565b848454612e53565b825550505050565b5f90565b612f08612efc565b612f13818484612ed7565b505050565b5b81811015612f3657612f2b5f82612f00565b600181019050612f19565b5050565b601f821115612f7b57612f4c81612e14565b612f5584612e38565b81016020851015612f64578190505b612f78612f7085612e38565b830182612f18565b50505b505050565b5f82821c905092915050565b5f612f9b5f1984600802612f80565b1980831691505092915050565b5f612fb38383612f8c565b9150826002028217905092915050565b818103612fd15750506130a6565b612fda82612dff565b67ffffffffffffffff811115612ff357612ff261238e565b5b612ffd8254612b9d565b613008828285612f3a565b5f601f831160018114613035575f8415613023578287015490505b61302d8582612fa8565b86555061309f565b601f19841661304387612e26565b965061304e86612e14565b5f5b8281101561307557848901548255600182019150600185019450602081019050613050565b86831015613092578489015461308e601f891682612f8c565b8355505b6001600288020188555050505b5050505050505b565b7f4e487b71000000000000000000000000000000000000000000000000000000005f52603160045260245ffd5b7f466f6c64657220616c72656164792065786973747300000000000000000000005f82015250565b5f613109601583612311565b9150613114826130d5565b602082019050919050565b5f6020820190508181035f830152613136816130fd565b9050919050565b7f412066696c652077697468207468652073616d65206e616d6520616c726561645f8201527f7920657869737473000000000000000000000000000000000000000000000000602082015250565b5f613197602883612311565b91506131a28261313d565b604082019050919050565b5f6020820190508181035f8301526131c48161318b565b9050919050565b6131d482612156565b67ffffffffffffffff8111156131ed576131ec61238e565b5b6131f78254612b9d565b613202828285612f3a565b5f60209050601f831160018114613233575f8415613221578287015190505b61322b8582612fa8565b865550613292565b601f19841661324186612e14565b5f5b8281101561326857848901518255600182019150602085019450602081019050613243565b868310156132855784890151613281601f891682612f8c565b8355505b6001600288020188555050505b505050505050565b7f46696c6520646f6573206e6f74206578697374000000000000000000000000005f82015250565b5f6132ce601383612311565b91506132d98261329a565b602082019050919050565b5f6020820190508181035f8301526132fb816132c2565b9050919050565b7f4e65772066696c65206e616d6520616c726561647920657869737473000000005f82015250565b5f613336601c83612311565b915061334182613302565b602082019050919050565b5f6020820190508181035f8301526133638161332a565b9050919050565b7f4120666f6c646572207769746820746865206e65772066696c65206e616d65205f8201527f616c726561647920657869737473000000000000000000000000000000000000602082015250565b5f6133c4602e83612311565b91506133cf8261336a565b604082019050919050565b5f6020820190508181035f8301526133f1816133b8565b9050919050565b5f8154905061340681612b9d565b9050919050565b81810361341b5750506134f0565b613424826133f8565b67ffffffffffffffff81111561343d5761343c61238e565b5b6134478254612b9d565b613452828285612f3a565b5f601f83116001811461347f575f841561346d578287015490505b6134778582612fa8565b8655506134e9565b601f19841661348d87612e14565b965061349886612e14565b5f5b828110156134bf5784890154825560018201915060018501945060208101905061349a565b868310156134dc57848901546134d8601f891682612f8c565b8355505b6001600288020188555050505b5050505050505b565b7f46696c6520616c726561647920657869737473000000000000000000000000005f82015250565b5f613526601383612311565b9150613531826134f2565b602082019050919050565b5f6020820190508181035f8301526135538161351a565b9050919050565b7f4120666f6c6465722077697468207468652073616d65206e616d6520616c72655f8201527f6164792065786973747300000000000000000000000000000000000000000000602082015250565b5f6135b4602a83612311565b91506135bf8261355a565b604082019050919050565b5f6020820190508181035f8301526135e1816135a8565b9050919050565b5f6135f2826121c6565b91507fffffffffffffffffffffffffffffffffffffffffffffffffffffffffffffffff820361362457613623612d9f565b5b60018201905091905056fea26469706673582212207e3370cf1236eefd8d686154535b7d11325d53f00804309eac73797fff59c1bb64736f6c634300081a0033",
					"opcodes": "PUSH1 0x80 PUSH1 0x40 MSTORE CALLVALUE DUP1 ISZERO PUSH2 0xF JUMPI PUSH0 DUP1 REVERT JUMPDEST POP PUSH2 0x1F CALLER PUSH2 0x24 PUSH1 0x20 SHL PUSH1 0x20 SHR JUMP JUMPDEST PUSH2 0x453 JUMP JUMPDEST PUSH0 DUP1 PUSH0 DUP4 PUSH20 0xFFFFFFFFFFFFFFFFFFFFFFFFFFFFFFFFFFFFFFFF AND PUSH20 0xFFFFFFFFFFFFFFFFFFFFFFFFFFFFFFFFFFFFFFFF AND DUP2 MSTORE PUSH1 0x20 ADD SWAP1 DUP2 MSTORE PUSH1 0x20 ADD PUSH0 KECCAK256 PUSH0 ADD DUP1 SLOAD PUSH2 0x6E SWAP1 PUSH2 0x177 JUMP JUMPDEST SWAP1 POP SUB PUSH2 0x147 JUMPI PUSH0 DUP1 PUSH0 DUP4 PUSH20 0xFFFFFFFFFFFFFFFFFFFFFFFFFFFFFFFFFFFFFFFF AND PUSH20 0xFFFFFFFFFFFFFFFFFFFFFFFFFFFFFFFFFFFFFFFF AND DUP2 MSTORE PUSH1 0x20 ADD SWAP1 DUP2 MSTORE PUSH1 0x20 ADD PUSH0 KECCAK256 SWAP1 POP PUSH1 0x40 MLOAD DUP1 PUSH1 0x40 ADD PUSH1 0x40 MSTORE DUP1 PUSH1 0x8 DUP2 MSTORE PUSH1 0x20 ADD PUSH32 0x4D79205370616365000000000000000000000000000000000000000000000000 DUP2 MSTORE POP DUP2 PUSH0 ADD SWAP1 DUP2 PUSH2 0xF9 SWAP2 SWAP1 PUSH2 0x384 JUMP JUMPDEST POP DUP2 DUP2 PUSH1 0x1 ADD PUSH0 PUSH2 0x100 EXP DUP2 SLOAD DUP2 PUSH20 0xFFFFFFFFFFFFFFFFFFFFFFFFFFFFFFFFFFFFFFFF MUL NOT AND SWAP1 DUP4 PUSH20 0xFFFFFFFFFFFFFFFFFFFFFFFFFFFFFFFFFFFFFFFF AND MUL OR SWAP1 SSTORE POP TIMESTAMP DUP2 PUSH1 0x2 ADD DUP2 SWAP1 SSTORE POP POP JUMPDEST POP JUMP JUMPDEST PUSH32 0x4E487B7100000000000000000000000000000000000000000000000000000000 PUSH0 MSTORE PUSH1 0x22 PUSH1 0x4 MSTORE PUSH1 0x24 PUSH0 REVERT JUMPDEST PUSH0 PUSH1 0x2 DUP3 DIV SWAP1 POP PUSH1 0x1 DUP3 AND DUP1 PUSH2 0x18E JUMPI PUSH1 0x7F DUP3 AND SWAP2 POP JUMPDEST PUSH1 0x20 DUP3 LT DUP2 SUB PUSH2 0x1A1 JUMPI PUSH2 0x1A0 PUSH2 0x14A JUMP JUMPDEST JUMPDEST POP SWAP2 SWAP1 POP JUMP JUMPDEST PUSH0 DUP2 MLOAD SWAP1 POP SWAP2 SWAP1 POP JUMP JUMPDEST PUSH32 0x4E487B7100000000000000000000000000000000000000000000000000000000 PUSH0 MSTORE PUSH1 0x41 PUSH1 0x4 MSTORE PUSH1 0x24 PUSH0 REVERT JUMPDEST PUSH0 DUP2 SWAP1 POP DUP2 PUSH0 MSTORE PUSH1 0x20 PUSH0 KECCAK256 SWAP1 POP SWAP2 SWAP1 POP JUMP JUMPDEST PUSH0 PUSH1 0x20 PUSH1 0x1F DUP4 ADD DIV SWAP1 POP SWAP2 SWAP1 POP JUMP JUMPDEST PUSH0 DUP3 DUP3 SHL SWAP1 POP SWAP3 SWAP2 POP POP JUMP JUMPDEST PUSH0 PUSH1 0x8 DUP4 MUL PUSH2 0x23A PUSH32 0xFFFFFFFFFFFFFFFFFFFFFFFFFFFFFFFFFFFFFFFFFFFFFFFFFFFFFFFFFFFFFFFF DUP3 PUSH2 0x1FF JUMP JUMPDEST PUSH2 0x244 DUP7 DUP4 PUSH2 0x1FF JUMP JUMPDEST SWAP6 POP DUP1 NOT DUP5 AND SWAP4 POP DUP1 DUP7 AND DUP5 OR SWAP3 POP POP POP SWAP4 SWAP3 POP POP POP JUMP JUMPDEST PUSH0 DUP2 SWAP1 POP SWAP2 SWAP1 POP JUMP JUMPDEST PUSH0 DUP2 SWAP1 POP SWAP2 SWAP1 POP JUMP JUMPDEST PUSH0 PUSH2 0x288 PUSH2 0x283 PUSH2 0x27E DUP5 PUSH2 0x25C JUMP JUMPDEST PUSH2 0x265 JUMP JUMPDEST PUSH2 0x25C JUMP JUMPDEST SWAP1 POP SWAP2 SWAP1 POP JUMP JUMPDEST PUSH0 DUP2 SWAP1 POP SWAP2 SWAP1 POP JUMP JUMPDEST PUSH2 0x2A1 DUP4 PUSH2 0x26E JUMP JUMPDEST PUSH2 0x2B5 PUSH2 0x2AD DUP3 PUSH2 0x28F JUMP JUMPDEST DUP5 DUP5 SLOAD PUSH2 0x20B JUMP JUMPDEST DUP3 SSTORE POP POP POP POP JUMP JUMPDEST PUSH0 SWAP1 JUMP JUMPDEST PUSH2 0x2C9 PUSH2 0x2BD JUMP JUMPDEST PUSH2 0x2D4 DUP2 DUP5 DUP5 PUSH2 0x298 JUMP JUMPDEST POP POP POP JUMP JUMPDEST JUMPDEST DUP2 DUP2 LT ISZERO PUSH2 0x2F7 JUMPI PUSH2 0x2EC PUSH0 DUP3 PUSH2 0x2C1 JUMP JUMPDEST PUSH1 0x1 DUP2 ADD SWAP1 POP PUSH2 0x2DA JUMP JUMPDEST POP POP JUMP JUMPDEST PUSH1 0x1F DUP3 GT ISZERO PUSH2 0x33C JUMPI PUSH2 0x30D DUP2 PUSH2 0x1DE JUMP JUMPDEST PUSH2 0x316 DUP5 PUSH2 0x1F0 JUMP JUMPDEST DUP2 ADD PUSH1 0x20 DUP6 LT ISZERO PUSH2 0x325 JUMPI DUP2 SWAP1 POP JUMPDEST PUSH2 0x339 PUSH2 0x331 DUP6 PUSH2 0x1F0 JUMP JUMPDEST DUP4 ADD DUP3 PUSH2 0x2D9 JUMP JUMPDEST POP POP JUMPDEST POP POP POP JUMP JUMPDEST PUSH0 DUP3 DUP3 SHR SWAP1 POP SWAP3 SWAP2 POP POP JUMP JUMPDEST PUSH0 PUSH2 0x35C PUSH0 NOT DUP5 PUSH1 0x8 MUL PUSH2 0x341 JUMP JUMPDEST NOT DUP1 DUP4 AND SWAP2 POP POP SWAP3 SWAP2 POP POP JUMP JUMPDEST PUSH0 PUSH2 0x374 DUP4 DUP4 PUSH2 0x34D JUMP JUMPDEST SWAP2 POP DUP3 PUSH1 0x2 MUL DUP3 OR SWAP1 POP SWAP3 SWAP2 POP POP JUMP JUMPDEST PUSH2 0x38D DUP3 PUSH2 0x1A7 JUMP JUMPDEST PUSH8 0xFFFFFFFFFFFFFFFF DUP2 GT ISZERO PUSH2 0x3A6 JUMPI PUSH2 0x3A5 PUSH2 0x1B1 JUMP JUMPDEST JUMPDEST PUSH2 0x3B0 DUP3 SLOAD PUSH2 0x177 JUMP JUMPDEST PUSH2 0x3BB DUP3 DUP3 DUP6 PUSH2 0x2FB JUMP JUMPDEST PUSH0 PUSH1 0x20 SWAP1 POP PUSH1 0x1F DUP4 GT PUSH1 0x1 DUP2 EQ PUSH2 0x3EC JUMPI PUSH0 DUP5 ISZERO PUSH2 0x3DA JUMPI DUP3 DUP8 ADD MLOAD SWAP1 POP JUMPDEST PUSH2 0x3E4 DUP6 DUP3 PUSH2 0x369 JUMP JUMPDEST DUP7 SSTORE POP PUSH2 0x44B JUMP JUMPDEST PUSH1 0x1F NOT DUP5 AND PUSH2 0x3FA DUP7 PUSH2 0x1DE JUMP JUMPDEST PUSH0 JUMPDEST DUP3 DUP2 LT ISZERO PUSH2 0x421 JUMPI DUP5 DUP10 ADD MLOAD DUP3 SSTORE PUSH1 0x1 DUP3 ADD SWAP2 POP PUSH1 0x20 DUP6 ADD SWAP5 POP PUSH1 0x20 DUP2 ADD SWAP1 POP PUSH2 0x3FC JUMP JUMPDEST DUP7 DUP4 LT ISZERO PUSH2 0x43E JUMPI DUP5 DUP10 ADD MLOAD PUSH2 0x43A PUSH1 0x1F DUP10 AND DUP3 PUSH2 0x34D JUMP JUMPDEST DUP4 SSTORE POP JUMPDEST PUSH1 0x1 PUSH1 0x2 DUP9 MUL ADD DUP9 SSTORE POP POP POP JUMPDEST POP POP POP POP POP POP JUMP JUMPDEST PUSH2 0x3665 DUP1 PUSH2 0x460 PUSH0 CODECOPY PUSH0 RETURN INVALID PUSH1 0x80 PUSH1 0x40 MSTORE CALLVALUE DUP1 ISZERO PUSH2 0xF JUMPI PUSH0 DUP1 REVERT JUMPDEST POP PUSH1 0x4 CALLDATASIZE LT PUSH2 0x91 JUMPI PUSH0 CALLDATALOAD PUSH1 0xE0 SHR DUP1 PUSH4 0xE01ADC05 GT PUSH2 0x64 JUMPI DUP1 PUSH4 0xE01ADC05 EQ PUSH2 0x11D JUMPI DUP1 PUSH4 0xE75C5051 EQ PUSH2 0x13B JUMPI DUP1 PUSH4 0xEFF9F64F EQ PUSH2 0x157 JUMPI DUP1 PUSH4 0xF5DED10B EQ PUSH2 0x173 JUMPI DUP1 PUSH4 0xF7DA18C8 EQ PUSH2 0x18F JUMPI PUSH2 0x91 JUMP JUMPDEST DUP1 PUSH4 0x243A658D EQ PUSH2 0x95 JUMPI DUP1 PUSH4 0x37DB6C1A EQ PUSH2 0xB3 JUMPI DUP1 PUSH4 0xC905819B EQ PUSH2 0xD1 JUMPI DUP1 PUSH4 0xD3780E10 EQ PUSH2 0x101 JUMPI JUMPDEST PUSH0 DUP1 REVERT JUMPDEST PUSH2 0x9D PUSH2 0x1AB JUMP JUMPDEST PUSH1 0x40 MLOAD PUSH2 0xAA SWAP2 SWAP1 PUSH2 0x22F1 JUMP JUMPDEST PUSH1 0x40 MLOAD DUP1 SWAP2 SUB SWAP1 RETURN JUMPDEST PUSH2 0xBB PUSH2 0x481 JUMP JUMPDEST PUSH1 0x40 MLOAD PUSH2 0xC8 SWAP2 SWAP1 PUSH2 0x2359 JUMP JUMPDEST PUSH1 0x40 MLOAD DUP1 SWAP2 SUB SWAP1 RETURN JUMPDEST PUSH2 0xEB PUSH1 0x4 DUP1 CALLDATASIZE SUB DUP2 ADD SWAP1 PUSH2 0xE6 SWAP2 SWAP1 PUSH2 0x2598 JUMP JUMPDEST PUSH2 0x54D JUMP JUMPDEST PUSH1 0x40 MLOAD PUSH2 0xF8 SWAP2 SWAP1 PUSH2 0x27A5 JUMP JUMPDEST PUSH1 0x40 MLOAD DUP1 SWAP2 SUB SWAP1 RETURN JUMPDEST PUSH2 0x11B PUSH1 0x4 DUP1 CALLDATASIZE SUB DUP2 ADD SWAP1 PUSH2 0x116 SWAP2 SWAP1 PUSH2 0x27C5 JUMP JUMPDEST PUSH2 0x684 JUMP JUMPDEST STOP JUMPDEST PUSH2 0x125 PUSH2 0x9C4 JUMP JUMPDEST PUSH1 0x40 MLOAD PUSH2 0x132 SWAP2 SWAP1 PUSH2 0x2359 JUMP JUMPDEST PUSH1 0x40 MLOAD DUP1 SWAP2 SUB SWAP1 RETURN JUMPDEST PUSH2 0x155 PUSH1 0x4 DUP1 CALLDATASIZE SUB DUP2 ADD SWAP1 PUSH2 0x150 SWAP2 SWAP1 PUSH2 0x27C5 JUMP JUMPDEST PUSH2 0xA99 JUMP JUMPDEST STOP JUMPDEST PUSH2 0x171 PUSH1 0x4 DUP1 CALLDATASIZE SUB DUP2 ADD SWAP1 PUSH2 0x16C SWAP2 SWAP1 PUSH2 0x2865 JUMP JUMPDEST PUSH2 0xCCF JUMP JUMPDEST STOP JUMPDEST PUSH2 0x18D PUSH1 0x4 DUP1 CALLDATASIZE SUB DUP2 ADD SWAP1 PUSH2 0x188 SWAP2 SWAP1 PUSH2 0x29D4 JUMP JUMPDEST PUSH2 0x114D JUMP JUMPDEST STOP JUMPDEST PUSH2 0x1A9 PUSH1 0x4 DUP1 CALLDATASIZE SUB DUP2 ADD SWAP1 PUSH2 0x1A4 SWAP2 SWAP1 PUSH2 0x2A5C JUMP JUMPDEST PUSH2 0x13AB JUMP JUMPDEST STOP JUMPDEST PUSH1 0x60 PUSH0 DUP1 PUSH0 CALLER PUSH20 0xFFFFFFFFFFFFFFFFFFFFFFFFFFFFFFFFFFFFFFFF AND PUSH20 0xFFFFFFFFFFFFFFFFFFFFFFFFFFFFFFFFFFFFFFFF AND DUP2 MSTORE PUSH1 0x20 ADD SWAP1 DUP2 MSTORE PUSH1 0x20 ADD PUSH0 KECCAK256 SWAP1 POP PUSH0 DUP2 PUSH1 0x6 ADD DUP1 SLOAD SWAP1 POP PUSH8 0xFFFFFFFFFFFFFFFF DUP2 GT ISZERO PUSH2 0x20E JUMPI PUSH2 0x20D PUSH2 0x238E JUMP JUMPDEST JUMPDEST PUSH1 0x40 MLOAD SWAP1 DUP1 DUP3 MSTORE DUP1 PUSH1 0x20 MUL PUSH1 0x20 ADD DUP3 ADD PUSH1 0x40 MSTORE DUP1 ISZERO PUSH2 0x247 JUMPI DUP2 PUSH1 0x20 ADD JUMPDEST PUSH2 0x234 PUSH2 0x1FA1 JUMP JUMPDEST DUP2 MSTORE PUSH1 0x20 ADD SWAP1 PUSH1 0x1 SWAP1 SUB SWAP1 DUP2 PUSH2 0x22C JUMPI SWAP1 POP JUMPDEST POP SWAP1 POP PUSH0 JUMPDEST DUP3 PUSH1 0x6 ADD DUP1 SLOAD SWAP1 POP DUP2 LT ISZERO PUSH2 0x478 JUMPI PUSH0 DUP4 PUSH1 0x6 ADD DUP3 DUP2 SLOAD DUP2 LT PUSH2 0x272 JUMPI PUSH2 0x271 PUSH2 0x2B43 JUMP JUMPDEST JUMPDEST SWAP1 PUSH0 MSTORE PUSH1 0x20 PUSH0 KECCAK256 SWAP1 PUSH1 0x6 MUL ADD SWAP1 POP PUSH1 0x40 MLOAD DUP1 PUSH1 0xA0 ADD PUSH1 0x40 MSTORE DUP1 DUP3 PUSH0 ADD DUP1 SLOAD PUSH2 0x299 SWAP1 PUSH2 0x2B9D JUMP JUMPDEST DUP1 PUSH1 0x1F ADD PUSH1 0x20 DUP1 SWAP2 DIV MUL PUSH1 0x20 ADD PUSH1 0x40 MLOAD SWAP1 DUP2 ADD PUSH1 0x40 MSTORE DUP1 SWAP3 SWAP2 SWAP1 DUP2 DUP2 MSTORE PUSH1 0x20 ADD DUP3 DUP1 SLOAD PUSH2 0x2C5 SWAP1 PUSH2 0x2B9D JUMP JUMPDEST DUP1 ISZERO PUSH2 0x310 JUMPI DUP1 PUSH1 0x1F LT PUSH2 0x2E7 JUMPI PUSH2 0x100 DUP1 DUP4 SLOAD DIV MUL DUP4 MSTORE SWAP2 PUSH1 0x20 ADD SWAP2 PUSH2 0x310 JUMP JUMPDEST DUP3 ADD SWAP2 SWAP1 PUSH0 MSTORE PUSH1 0x20 PUSH0 KECCAK256 SWAP1 JUMPDEST DUP2 SLOAD DUP2 MSTORE SWAP1 PUSH1 0x1 ADD SWAP1 PUSH1 0x20 ADD DUP1 DUP4 GT PUSH2 0x2F3 JUMPI DUP3 SWAP1 SUB PUSH1 0x1F AND DUP3 ADD SWAP2 JUMPDEST POP POP POP POP POP DUP2 MSTORE PUSH1 0x20 ADD DUP3 PUSH1 0x1 ADD DUP1 SLOAD PUSH2 0x329 SWAP1 PUSH2 0x2B9D JUMP JUMPDEST DUP1 PUSH1 0x1F ADD PUSH1 0x20 DUP1 SWAP2 DIV MUL PUSH1 0x20 ADD PUSH1 0x40 MLOAD SWAP1 DUP2 ADD PUSH1 0x40 MSTORE DUP1 SWAP3 SWAP2 SWAP1 DUP2 DUP2 MSTORE PUSH1 0x20 ADD DUP3 DUP1 SLOAD PUSH2 0x355 SWAP1 PUSH2 0x2B9D JUMP JUMPDEST DUP1 ISZERO PUSH2 0x3A0 JUMPI DUP1 PUSH1 0x1F LT PUSH2 0x377 JUMPI PUSH2 0x100 DUP1 DUP4 SLOAD DIV MUL DUP4 MSTORE SWAP2 PUSH1 0x20 ADD SWAP2 PUSH2 0x3A0 JUMP JUMPDEST DUP3 ADD SWAP2 SWAP1 PUSH0 MSTORE PUSH1 0x20 PUSH0 KECCAK256 SWAP1 JUMPDEST DUP2 SLOAD DUP2 MSTORE SWAP1 PUSH1 0x1 ADD SWAP1 PUSH1 0x20 ADD DUP1 DUP4 GT PUSH2 0x383 JUMPI DUP3 SWAP1 SUB PUSH1 0x1F AND DUP3 ADD SWAP2 JUMPDEST POP POP POP POP POP DUP2 MSTORE PUSH1 0x20 ADD DUP3 PUSH1 0x2 ADD SLOAD DUP2 MSTORE PUSH1 0x20 ADD DUP3 PUSH1 0x3 ADD DUP1 SLOAD PUSH2 0x3C3 SWAP1 PUSH2 0x2B9D JUMP JUMPDEST DUP1 PUSH1 0x1F ADD PUSH1 0x20 DUP1 SWAP2 DIV MUL PUSH1 0x20 ADD PUSH1 0x40 MLOAD SWAP1 DUP2 ADD PUSH1 0x40 MSTORE DUP1 SWAP3 SWAP2 SWAP1 DUP2 DUP2 MSTORE PUSH1 0x20 ADD DUP3 DUP1 SLOAD PUSH2 0x3EF SWAP1 PUSH2 0x2B9D JUMP JUMPDEST DUP1 ISZERO PUSH2 0x43A JUMPI DUP1 PUSH1 0x1F LT PUSH2 0x411 JUMPI PUSH2 0x100 DUP1 DUP4 SLOAD DIV MUL DUP4 MSTORE SWAP2 PUSH1 0x20 ADD SWAP2 PUSH2 0x43A JUMP JUMPDEST DUP3 ADD SWAP2 SWAP1 PUSH0 MSTORE PUSH1 0x20 PUSH0 KECCAK256 SWAP1 JUMPDEST DUP2 SLOAD DUP2 MSTORE SWAP1 PUSH1 0x1 ADD SWAP1 PUSH1 0x20 ADD DUP1 DUP4 GT PUSH2 0x41D JUMPI DUP3 SWAP1 SUB PUSH1 0x1F AND DUP3 ADD SWAP2 JUMPDEST POP POP POP POP POP DUP2 MSTORE PUSH1 0x20 ADD DUP3 PUSH1 0x5 ADD SLOAD DUP2 MSTORE POP DUP4 DUP4 DUP2 MLOAD DUP2 LT PUSH2 0x45F JUMPI PUSH2 0x45E PUSH2 0x2B43 JUMP JUMPDEST JUMPDEST PUSH1 0x20 MUL PUSH1 0x20 ADD ADD DUP2 SWAP1 MSTORE POP POP DUP1 DUP1 PUSH1 0x1 ADD SWAP2 POP POP PUSH2 0x24C JUMP JUMPDEST POP DUP1 SWAP3 POP POP POP SWAP1 JUMP JUMPDEST PUSH1 0x60 PUSH0 DUP1 PUSH0 CALLER PUSH20 0xFFFFFFFFFFFFFFFFFFFFFFFFFFFFFFFFFFFFFFFF AND PUSH20 0xFFFFFFFFFFFFFFFFFFFFFFFFFFFFFFFFFFFFFFFF AND DUP2 MSTORE PUSH1 0x20 ADD SWAP1 DUP2 MSTORE PUSH1 0x20 ADD PUSH0 KECCAK256 PUSH0 ADD DUP1 SLOAD PUSH2 0x4CD SWAP1 PUSH2 0x2B9D JUMP JUMPDEST SWAP1 POP SUB PUSH2 0x511 JUMPI PUSH1 0x40 MLOAD DUP1 PUSH1 0x40 ADD PUSH1 0x40 MSTORE DUP1 PUSH1 0x13 DUP2 MSTORE PUSH1 0x20 ADD PUSH32 0x4261736520646F6573206E6F7420657869737400000000000000000000000000 DUP2 MSTORE POP SWAP1 POP PUSH2 0x54A JUMP JUMPDEST PUSH1 0x40 MLOAD DUP1 PUSH1 0x40 ADD PUSH1 0x40 MSTORE DUP1 PUSH1 0x13 DUP2 MSTORE PUSH1 0x20 ADD PUSH32 0x4261736520616C72656164792065786973747300000000000000000000000000 DUP2 MSTORE POP SWAP1 POP JUMPDEST SWAP1 JUMP JUMPDEST PUSH2 0x555 PUSH2 0x1FCE JUMP JUMPDEST PUSH0 DUP1 PUSH0 CALLER PUSH20 0xFFFFFFFFFFFFFFFFFFFFFFFFFFFFFFFFFFFFFFFF AND PUSH20 0xFFFFFFFFFFFFFFFFFFFFFFFFFFFFFFFFFFFFFFFF AND DUP2 MSTORE PUSH1 0x20 ADD SWAP1 DUP2 MSTORE PUSH1 0x20 ADD PUSH0 KECCAK256 SWAP1 POP PUSH0 JUMPDEST DUP4 MLOAD DUP2 LT ISZERO PUSH2 0x672 JUMPI PUSH0 DUP3 PUSH1 0x5 ADD DUP6 DUP4 DUP2 MLOAD DUP2 LT PUSH2 0x5B7 JUMPI PUSH2 0x5B6 PUSH2 0x2B43 JUMP JUMPDEST JUMPDEST PUSH1 0x20 MUL PUSH1 0x20 ADD ADD MLOAD PUSH1 0x40 MLOAD PUSH2 0x5CC SWAP2 SWAP1 PUSH2 0x2C07 JUMP JUMPDEST SWAP1 DUP2 MSTORE PUSH1 0x20 ADD PUSH1 0x40 MLOAD DUP1 SWAP2 SUB SWAP1 KECCAK256 PUSH0 ADD DUP1 SLOAD PUSH2 0x5E7 SWAP1 PUSH2 0x2B9D JUMP JUMPDEST SWAP1 POP SUB PUSH2 0x629 JUMPI PUSH1 0x40 MLOAD PUSH32 0x8C379A000000000000000000000000000000000000000000000000000000000 DUP2 MSTORE PUSH1 0x4 ADD PUSH2 0x620 SWAP1 PUSH2 0x2C67 JUMP JUMPDEST PUSH1 0x40 MLOAD DUP1 SWAP2 SUB SWAP1 REVERT JUMPDEST DUP2 PUSH1 0x5 ADD DUP5 DUP3 DUP2 MLOAD DUP2 LT PUSH2 0x640 JUMPI PUSH2 0x63F PUSH2 0x2B43 JUMP JUMPDEST JUMPDEST PUSH1 0x20 MUL PUSH1 0x20 ADD ADD MLOAD PUSH1 0x40 MLOAD PUSH2 0x655 SWAP2 SWAP1 PUSH2 0x2C07 JUMP JUMPDEST SWAP1 DUP2 MSTORE PUSH1 0x20 ADD PUSH1 0x40 MLOAD DUP1 SWAP2 SUB SWAP1 KECCAK256 SWAP2 POP DUP1 DUP1 PUSH1 0x1 ADD SWAP2 POP POP PUSH2 0x596 JUMP JUMPDEST POP PUSH2 0x67C DUP2 PUSH2 0x1611 JUMP JUMPDEST SWAP2 POP POP SWAP2 SWAP1 POP JUMP JUMPDEST PUSH2 0x68D CALLER PUSH2 0x1E7B JUMP JUMPDEST PUSH0 DUP1 PUSH0 CALLER PUSH20 0xFFFFFFFFFFFFFFFFFFFFFFFFFFFFFFFFFFFFFFFF AND PUSH20 0xFFFFFFFFFFFFFFFFFFFFFFFFFFFFFFFFFFFFFFFF AND DUP2 MSTORE PUSH1 0x20 ADD SWAP1 DUP2 MSTORE PUSH1 0x20 ADD PUSH0 KECCAK256 SWAP1 POP PUSH0 JUMPDEST DUP4 MLOAD DUP2 LT ISZERO PUSH2 0x720 JUMPI DUP2 PUSH1 0x5 ADD DUP5 DUP3 DUP2 MLOAD DUP2 LT PUSH2 0x6EE JUMPI PUSH2 0x6ED PUSH2 0x2B43 JUMP JUMPDEST JUMPDEST PUSH1 0x20 MUL PUSH1 0x20 ADD ADD MLOAD PUSH1 0x40 MLOAD PUSH2 0x703 SWAP2 SWAP1 PUSH2 0x2C07 JUMP JUMPDEST SWAP1 DUP2 MSTORE PUSH1 0x20 ADD PUSH1 0x40 MLOAD DUP1 SWAP2 SUB SWAP1 KECCAK256 SWAP2 POP DUP1 DUP1 PUSH1 0x1 ADD SWAP2 POP POP PUSH2 0x6CE JUMP JUMPDEST POP PUSH0 DUP2 PUSH1 0x4 ADD DUP4 PUSH1 0x40 MLOAD PUSH2 0x734 SWAP2 SWAP1 PUSH2 0x2C07 JUMP JUMPDEST SWAP1 DUP2 MSTORE PUSH1 0x20 ADD PUSH1 0x40 MLOAD DUP1 SWAP2 SUB SWAP1 KECCAK256 PUSH0 ADD DUP1 SLOAD PUSH2 0x74F SWAP1 PUSH2 0x2B9D JUMP JUMPDEST SWAP1 POP EQ PUSH2 0x7DE JUMPI DUP1 PUSH1 0x4 ADD DUP3 PUSH1 0x40 MLOAD PUSH2 0x768 SWAP2 SWAP1 PUSH2 0x2C07 JUMP JUMPDEST SWAP1 DUP2 MSTORE PUSH1 0x20 ADD PUSH1 0x40 MLOAD DUP1 SWAP2 SUB SWAP1 KECCAK256 PUSH0 DUP1 DUP3 ADD PUSH0 PUSH2 0x785 SWAP2 SWAP1 PUSH2 0x1FFC JUMP JUMPDEST PUSH1 0x1 DUP3 ADD PUSH0 PUSH2 0x794 SWAP2 SWAP1 PUSH2 0x1FFC JUMP JUMPDEST PUSH1 0x2 DUP3 ADD PUSH0 SWAP1 SSTORE PUSH1 0x3 DUP3 ADD PUSH0 PUSH2 0x7AA SWAP2 SWAP1 PUSH2 0x1FFC JUMP JUMPDEST PUSH1 0x4 DUP3 ADD PUSH0 PUSH2 0x100 EXP DUP2 SLOAD SWAP1 PUSH20 0xFFFFFFFFFFFFFFFFFFFFFFFFFFFFFFFFFFFFFFFF MUL NOT AND SWAP1 SSTORE PUSH1 0x5 DUP3 ADD PUSH0 SWAP1 SSTORE POP POP PUSH2 0x8D0 JUMP JUMPDEST PUSH0 DUP2 PUSH1 0x5 ADD DUP4 PUSH1 0x40 MLOAD PUSH2 0x7F1 SWAP2 SWAP1 PUSH2 0x2C07 JUMP JUMPDEST SWAP1 DUP2 MSTORE PUSH1 0x20 ADD PUSH1 0x40 MLOAD DUP1 SWAP2 SUB SWAP1 KECCAK256 PUSH0 ADD DUP1 SLOAD PUSH2 0x80C SWAP1 PUSH2 0x2B9D JUMP JUMPDEST SWAP1 POP EQ PUSH2 0x894 JUMPI DUP1 PUSH1 0x5 ADD DUP3 PUSH1 0x40 MLOAD PUSH2 0x825 SWAP2 SWAP1 PUSH2 0x2C07 JUMP JUMPDEST SWAP1 DUP2 MSTORE PUSH1 0x20 ADD PUSH1 0x40 MLOAD DUP1 SWAP2 SUB SWAP1 KECCAK256 PUSH0 DUP1 DUP3 ADD PUSH0 PUSH2 0x842 SWAP2 SWAP1 PUSH2 0x1FFC JUMP JUMPDEST PUSH1 0x1 DUP3 ADD PUSH0 PUSH2 0x100 EXP DUP2 SLOAD SWAP1 PUSH20 0xFFFFFFFFFFFFFFFFFFFFFFFFFFFFFFFFFFFFFFFF MUL NOT AND SWAP1 SSTORE PUSH1 0x2 DUP3 ADD PUSH0 SWAP1 SSTORE PUSH1 0x3 DUP3 ADD PUSH0 PUSH2 0x87E SWAP2 SWAP1 PUSH2 0x2039 JUMP JUMPDEST PUSH1 0x6 DUP3 ADD PUSH0 PUSH2 0x88D SWAP2 SWAP1 PUSH2 0x2057 JUMP JUMPDEST POP POP PUSH2 0x8CF JUMP JUMPDEST PUSH1 0x40 MLOAD PUSH32 0x8C379A000000000000000000000000000000000000000000000000000000000 DUP2 MSTORE PUSH1 0x4 ADD PUSH2 0x8C6 SWAP1 PUSH2 0x2CCF JUMP JUMPDEST PUSH1 0x40 MLOAD DUP1 SWAP2 SUB SWAP1 REVERT JUMPDEST JUMPDEST PUSH0 JUMPDEST DUP2 PUSH1 0x3 ADD DUP1 SLOAD SWAP1 POP DUP2 LT ISZERO PUSH2 0x9BE JUMPI DUP3 DUP1 MLOAD SWAP1 PUSH1 0x20 ADD KECCAK256 DUP3 PUSH1 0x3 ADD DUP3 DUP2 SLOAD DUP2 LT PUSH2 0x8FF JUMPI PUSH2 0x8FE PUSH2 0x2B43 JUMP JUMPDEST JUMPDEST SWAP1 PUSH0 MSTORE PUSH1 0x20 PUSH0 KECCAK256 ADD PUSH1 0x40 MLOAD PUSH2 0x914 SWAP2 SWAP1 PUSH2 0x2D89 JUMP JUMPDEST PUSH1 0x40 MLOAD DUP1 SWAP2 SUB SWAP1 KECCAK256 SUB PUSH2 0x9B1 JUMPI DUP2 PUSH1 0x3 ADD PUSH1 0x1 DUP4 PUSH1 0x3 ADD DUP1 SLOAD SWAP1 POP PUSH2 0x939 SWAP2 SWAP1 PUSH2 0x2DCC JUMP JUMPDEST DUP2 SLOAD DUP2 LT PUSH2 0x94A JUMPI PUSH2 0x949 PUSH2 0x2B43 JUMP JUMPDEST JUMPDEST SWAP1 PUSH0 MSTORE PUSH1 0x20 PUSH0 KECCAK256 ADD DUP3 PUSH1 0x3 ADD DUP3 DUP2 SLOAD DUP2 LT PUSH2 0x968 JUMPI PUSH2 0x967 PUSH2 0x2B43 JUMP JUMPDEST JUMPDEST SWAP1 PUSH0 MSTORE PUSH1 0x20 PUSH0 KECCAK256 ADD SWAP1 DUP2 PUSH2 0x97C SWAP2 SWAP1 PUSH2 0x2FC3 JUMP JUMPDEST POP DUP2 PUSH1 0x3 ADD DUP1 SLOAD DUP1 PUSH2 0x991 JUMPI PUSH2 0x990 PUSH2 0x30A8 JUMP JUMPDEST JUMPDEST PUSH1 0x1 SWAP1 SUB DUP2 DUP2 SWAP1 PUSH0 MSTORE PUSH1 0x20 PUSH0 KECCAK256 ADD PUSH0 PUSH2 0x9AA SWAP2 SWAP1 PUSH2 0x1FFC JUMP JUMPDEST SWAP1 SSTORE PUSH2 0x9BE JUMP JUMPDEST DUP1 DUP1 PUSH1 0x1 ADD SWAP2 POP POP PUSH2 0x8D2 JUMP JUMPDEST POP POP POP POP JUMP JUMPDEST PUSH1 0x60 PUSH0 DUP1 PUSH0 CALLER PUSH20 0xFFFFFFFFFFFFFFFFFFFFFFFFFFFFFFFFFFFFFFFF AND PUSH20 0xFFFFFFFFFFFFFFFFFFFFFFFFFFFFFFFFFFFFFFFF AND DUP2 MSTORE PUSH1 0x20 ADD SWAP1 DUP2 MSTORE PUSH1 0x20 ADD PUSH0 KECCAK256 PUSH0 ADD DUP1 SLOAD PUSH2 0xA10 SWAP1 PUSH2 0x2B9D JUMP JUMPDEST SWAP1 POP SUB PUSH2 0xA5D JUMPI PUSH2 0xA20 CALLER PUSH2 0x1E7B JUMP JUMPDEST PUSH1 0x40 MLOAD DUP1 PUSH1 0x40 ADD PUSH1 0x40 MSTORE DUP1 PUSH1 0x10 DUP2 MSTORE PUSH1 0x20 ADD PUSH32 0x4261736520696E697469616C697A656400000000000000000000000000000000 DUP2 MSTORE POP SWAP1 POP PUSH2 0xA96 JUMP JUMPDEST PUSH1 0x40 MLOAD DUP1 PUSH1 0x40 ADD PUSH1 0x40 MSTORE DUP1 PUSH1 0x18 DUP2 MSTORE PUSH1 0x20 ADD PUSH32 0x4261736520616C726561647920696E697469616C697A65640000000000000000 DUP2 MSTORE POP SWAP1 POP JUMPDEST SWAP1 JUMP JUMPDEST PUSH2 0xAA2 CALLER PUSH2 0x1E7B JUMP JUMPDEST PUSH0 DUP1 PUSH0 CALLER PUSH20 0xFFFFFFFFFFFFFFFFFFFFFFFFFFFFFFFFFFFFFFFF AND PUSH20 0xFFFFFFFFFFFFFFFFFFFFFFFFFFFFFFFFFFFFFFFF AND DUP2 MSTORE PUSH1 0x20 ADD SWAP1 DUP2 MSTORE PUSH1 0x20 ADD PUSH0 KECCAK256 SWAP1 POP PUSH0 JUMPDEST DUP4 MLOAD DUP2 LT ISZERO PUSH2 0xB35 JUMPI DUP2 PUSH1 0x5 ADD DUP5 DUP3 DUP2 MLOAD DUP2 LT PUSH2 0xB03 JUMPI PUSH2 0xB02 PUSH2 0x2B43 JUMP JUMPDEST JUMPDEST PUSH1 0x20 MUL PUSH1 0x20 ADD ADD MLOAD PUSH1 0x40 MLOAD PUSH2 0xB18 SWAP2 SWAP1 PUSH2 0x2C07 JUMP JUMPDEST SWAP1 DUP2 MSTORE PUSH1 0x20 ADD PUSH1 0x40 MLOAD DUP1 SWAP2 SUB SWAP1 KECCAK256 SWAP2 POP DUP1 DUP1 PUSH1 0x1 ADD SWAP2 POP POP PUSH2 0xAE3 JUMP JUMPDEST POP PUSH0 DUP2 PUSH1 0x5 ADD DUP4 PUSH1 0x40 MLOAD PUSH2 0xB49 SWAP2 SWAP1 PUSH2 0x2C07 JUMP JUMPDEST SWAP1 DUP2 MSTORE PUSH1 0x20 ADD PUSH1 0x40 MLOAD DUP1 SWAP2 SUB SWAP1 KECCAK256 PUSH0 ADD DUP1 SLOAD PUSH2 0xB64 SWAP1 PUSH2 0x2B9D JUMP JUMPDEST SWAP1 POP EQ PUSH2 0xBA6 JUMPI PUSH1 0x40 MLOAD PUSH32 0x8C379A000000000000000000000000000000000000000000000000000000000 DUP2 MSTORE PUSH1 0x4 ADD PUSH2 0xB9D SWAP1 PUSH2 0x311F JUMP JUMPDEST PUSH1 0x40 MLOAD DUP1 SWAP2 SUB SWAP1 REVERT JUMPDEST PUSH0 DUP2 PUSH1 0x4 ADD DUP4 PUSH1 0x40 MLOAD PUSH2 0xBB9 SWAP2 SWAP1 PUSH2 0x2C07 JUMP JUMPDEST SWAP1 DUP2 MSTORE PUSH1 0x20 ADD PUSH1 0x40 MLOAD DUP1 SWAP2 SUB SWAP1 KECCAK256 PUSH0 ADD DUP1 SLOAD PUSH2 0xBD4 SWAP1 PUSH2 0x2B9D JUMP JUMPDEST SWAP1 POP EQ PUSH2 0xC16 JUMPI PUSH1 0x40 MLOAD PUSH32 0x8C379A000000000000000000000000000000000000000000000000000000000 DUP2 MSTORE PUSH1 0x4 ADD PUSH2 0xC0D SWAP1 PUSH2 0x31AD JUMP JUMPDEST PUSH1 0x40 MLOAD DUP1 SWAP2 SUB SWAP1 REVERT JUMPDEST PUSH0 DUP2 PUSH1 0x5 ADD DUP4 PUSH1 0x40 MLOAD PUSH2 0xC29 SWAP2 SWAP1 PUSH2 0x2C07 JUMP JUMPDEST SWAP1 DUP2 MSTORE PUSH1 0x20 ADD PUSH1 0x40 MLOAD DUP1 SWAP2 SUB SWAP1 KECCAK256 SWAP1 POP DUP3 DUP2 PUSH0 ADD SWAP1 DUP2 PUSH2 0xC49 SWAP2 SWAP1 PUSH2 0x31CB JUMP JUMPDEST POP CALLER DUP2 PUSH1 0x1 ADD PUSH0 PUSH2 0x100 EXP DUP2 SLOAD DUP2 PUSH20 0xFFFFFFFFFFFFFFFFFFFFFFFFFFFFFFFFFFFFFFFF MUL NOT AND SWAP1 DUP4 PUSH20 0xFFFFFFFFFFFFFFFFFFFFFFFFFFFFFFFFFFFFFFFF AND MUL OR SWAP1 SSTORE POP TIMESTAMP DUP2 PUSH1 0x2 ADD DUP2 SWAP1 SSTORE POP DUP2 PUSH1 0x3 ADD DUP4 SWAP1 DUP1 PUSH1 0x1 DUP2 SLOAD ADD DUP1 DUP3 SSTORE DUP1 SWAP2 POP POP PUSH1 0x1 SWAP1 SUB SWAP1 PUSH0 MSTORE PUSH1 0x20 PUSH0 KECCAK256 ADD PUSH0 SWAP1 SWAP2 SWAP1 SWAP2 SWAP1 SWAP2 POP SWAP1 DUP2 PUSH2 0xCC8 SWAP2 SWAP1 PUSH2 0x31CB JUMP JUMPDEST POP POP POP POP POP JUMP JUMPDEST PUSH2 0xCD8 CALLER PUSH2 0x1E7B JUMP JUMPDEST PUSH0 DUP1 PUSH0 CALLER PUSH20 0xFFFFFFFFFFFFFFFFFFFFFFFFFFFFFFFFFFFFFFFF AND PUSH20 0xFFFFFFFFFFFFFFFFFFFFFFFFFFFFFFFFFFFFFFFF AND DUP2 MSTORE PUSH1 0x20 ADD SWAP1 DUP2 MSTORE PUSH1 0x20 ADD PUSH0 KECCAK256 SWAP1 POP PUSH0 JUMPDEST DUP8 MLOAD DUP2 LT ISZERO PUSH2 0xD6B JUMPI DUP2 PUSH1 0x5 ADD DUP9 DUP3 DUP2 MLOAD DUP2 LT PUSH2 0xD39 JUMPI PUSH2 0xD38 PUSH2 0x2B43 JUMP JUMPDEST JUMPDEST PUSH1 0x20 MUL PUSH1 0x20 ADD ADD MLOAD PUSH1 0x40 MLOAD PUSH2 0xD4E SWAP2 SWAP1 PUSH2 0x2C07 JUMP JUMPDEST SWAP1 DUP2 MSTORE PUSH1 0x20 ADD PUSH1 0x40 MLOAD DUP1 SWAP2 SUB SWAP1 KECCAK256 SWAP2 POP DUP1 DUP1 PUSH1 0x1 ADD SWAP2 POP POP PUSH2 0xD19 JUMP JUMPDEST POP PUSH0 DUP2 PUSH1 0x4 ADD DUP8 PUSH1 0x40 MLOAD PUSH2 0xD7F SWAP2 SWAP1 PUSH2 0x2C07 JUMP JUMPDEST SWAP1 DUP2 MSTORE PUSH1 0x20 ADD PUSH1 0x40 MLOAD DUP1 SWAP2 SUB SWAP1 KECCAK256 PUSH0 ADD DUP1 SLOAD PUSH2 0xD9A SWAP1 PUSH2 0x2B9D JUMP JUMPDEST SWAP1 POP SUB PUSH2 0xDDC JUMPI PUSH1 0x40 MLOAD PUSH32 0x8C379A000000000000000000000000000000000000000000000000000000000 DUP2 MSTORE PUSH1 0x4 ADD PUSH2 0xDD3 SWAP1 PUSH2 0x32E4 JUMP JUMPDEST PUSH1 0x40 MLOAD DUP1 SWAP2 SUB SWAP1 REVERT JUMPDEST PUSH0 DUP4 MLOAD EQ ISZERO DUP1 ISZERO PUSH2 0xDFB JUMPI POP DUP6 DUP1 MLOAD SWAP1 PUSH1 0x20 ADD KECCAK256 DUP4 DUP1 MLOAD SWAP1 PUSH1 0x20 ADD KECCAK256 EQ ISZERO JUMPDEST ISZERO PUSH2 0xEE1 JUMPI PUSH0 DUP2 PUSH1 0x4 ADD DUP5 PUSH1 0x40 MLOAD PUSH2 0xE13 SWAP2 SWAP1 PUSH2 0x2C07 JUMP JUMPDEST SWAP1 DUP2 MSTORE PUSH1 0x20 ADD PUSH1 0x40 MLOAD DUP1 SWAP2 SUB SWAP1 KECCAK256 PUSH0 ADD DUP1 SLOAD PUSH2 0xE2E SWAP1 PUSH2 0x2B9D JUMP JUMPDEST SWAP1 POP EQ PUSH2 0xE70 JUMPI PUSH1 0x40 MLOAD PUSH32 0x8C379A000000000000000000000000000000000000000000000000000000000 DUP2 MSTORE PUSH1 0x4 ADD PUSH2 0xE67 SWAP1 PUSH2 0x334C JUMP JUMPDEST PUSH1 0x40 MLOAD DUP1 SWAP2 SUB SWAP1 REVERT JUMPDEST PUSH0 DUP2 PUSH1 0x5 ADD DUP5 PUSH1 0x40 MLOAD PUSH2 0xE83 SWAP2 SWAP1 PUSH2 0x2C07 JUMP JUMPDEST SWAP1 DUP2 MSTORE PUSH1 0x20 ADD PUSH1 0x40 MLOAD DUP1 SWAP2 SUB SWAP1 KECCAK256 PUSH0 ADD DUP1 SLOAD PUSH2 0xE9E SWAP1 PUSH2 0x2B9D JUMP JUMPDEST SWAP1 POP EQ PUSH2 0xEE0 JUMPI PUSH1 0x40 MLOAD PUSH32 0x8C379A000000000000000000000000000000000000000000000000000000000 DUP2 MSTORE PUSH1 0x4 ADD PUSH2 0xED7 SWAP1 PUSH2 0x33DA JUMP JUMPDEST PUSH1 0x40 MLOAD DUP1 SWAP2 SUB SWAP1 REVERT JUMPDEST JUMPDEST PUSH0 DUP2 PUSH1 0x4 ADD DUP8 PUSH1 0x40 MLOAD PUSH2 0xEF4 SWAP2 SWAP1 PUSH2 0x2C07 JUMP JUMPDEST SWAP1 DUP2 MSTORE PUSH1 0x20 ADD PUSH1 0x40 MLOAD DUP1 SWAP2 SUB SWAP1 KECCAK256 SWAP1 POP DUP6 DUP2 PUSH1 0x1 ADD SWAP1 DUP2 PUSH2 0xF15 SWAP2 SWAP1 PUSH2 0x31CB JUMP JUMPDEST POP DUP5 DUP2 PUSH1 0x2 ADD DUP2 SWAP1 SSTORE POP DUP3 DUP2 PUSH1 0x3 ADD SWAP1 DUP2 PUSH2 0xF30 SWAP2 SWAP1 PUSH2 0x31CB JUMP JUMPDEST POP PUSH0 DUP5 MLOAD EQ ISZERO DUP1 ISZERO PUSH2 0xF50 JUMPI POP DUP7 DUP1 MLOAD SWAP1 PUSH1 0x20 ADD KECCAK256 DUP5 DUP1 MLOAD SWAP1 PUSH1 0x20 ADD KECCAK256 EQ ISZERO JUMPDEST ISZERO PUSH2 0x1143 JUMPI PUSH0 JUMPDEST DUP3 PUSH1 0x3 ADD DUP1 SLOAD SWAP1 POP DUP2 LT ISZERO PUSH2 0xFE4 JUMPI DUP8 DUP1 MLOAD SWAP1 PUSH1 0x20 ADD KECCAK256 DUP4 PUSH1 0x3 ADD DUP3 DUP2 SLOAD DUP2 LT PUSH2 0xF84 JUMPI PUSH2 0xF83 PUSH2 0x2B43 JUMP JUMPDEST JUMPDEST SWAP1 PUSH0 MSTORE PUSH1 0x20 PUSH0 KECCAK256 ADD PUSH1 0x40 MLOAD PUSH2 0xF99 SWAP2 SWAP1 PUSH2 0x2D89 JUMP JUMPDEST PUSH1 0x40 MLOAD DUP1 SWAP2 SUB SWAP1 KECCAK256 SUB PUSH2 0xFD7 JUMPI DUP5 DUP4 PUSH1 0x3 ADD DUP3 DUP2 SLOAD DUP2 LT PUSH2 0xFBD JUMPI PUSH2 0xFBC PUSH2 0x2B43 JUMP JUMPDEST JUMPDEST SWAP1 PUSH0 MSTORE PUSH1 0x20 PUSH0 KECCAK256 ADD SWAP1 DUP2 PUSH2 0xFD1 SWAP2 SWAP1 PUSH2 0x31CB JUMP JUMPDEST POP PUSH2 0xFE4 JUMP JUMPDEST DUP1 DUP1 PUSH1 0x1 ADD SWAP2 POP POP PUSH2 0xF57 JUMP JUMPDEST POP DUP1 DUP3 PUSH1 0x4 ADD DUP6 PUSH1 0x40 MLOAD PUSH2 0xFF8 SWAP2 SWAP1 PUSH2 0x2C07 JUMP JUMPDEST SWAP1 DUP2 MSTORE PUSH1 0x20 ADD PUSH1 0x40 MLOAD DUP1 SWAP2 SUB SWAP1 KECCAK256 PUSH0 DUP3 ADD DUP2 PUSH0 ADD SWAP1 DUP2 PUSH2 0x1018 SWAP2 SWAP1 PUSH2 0x340D JUMP JUMPDEST POP PUSH1 0x1 DUP3 ADD DUP2 PUSH1 0x1 ADD SWAP1 DUP2 PUSH2 0x102D SWAP2 SWAP1 PUSH2 0x340D JUMP JUMPDEST POP PUSH1 0x2 DUP3 ADD SLOAD DUP2 PUSH1 0x2 ADD SSTORE PUSH1 0x3 DUP3 ADD DUP2 PUSH1 0x3 ADD SWAP1 DUP2 PUSH2 0x104C SWAP2 SWAP1 PUSH2 0x340D JUMP JUMPDEST POP PUSH1 0x4 DUP3 ADD PUSH0 SWAP1 SLOAD SWAP1 PUSH2 0x100 EXP SWAP1 DIV PUSH20 0xFFFFFFFFFFFFFFFFFFFFFFFFFFFFFFFFFFFFFFFF AND DUP2 PUSH1 0x4 ADD PUSH0 PUSH2 0x100 EXP DUP2 SLOAD DUP2 PUSH20 0xFFFFFFFFFFFFFFFFFFFFFFFFFFFFFFFFFFFFFFFF MUL NOT AND SWAP1 DUP4 PUSH20 0xFFFFFFFFFFFFFFFFFFFFFFFFFFFFFFFFFFFFFFFF AND MUL OR SWAP1 SSTORE POP PUSH1 0x5 DUP3 ADD SLOAD DUP2 PUSH1 0x5 ADD SSTORE SWAP1 POP POP DUP2 PUSH1 0x4 ADD DUP8 PUSH1 0x40 MLOAD PUSH2 0x10D1 SWAP2 SWAP1 PUSH2 0x2C07 JUMP JUMPDEST SWAP1 DUP2 MSTORE PUSH1 0x20 ADD PUSH1 0x40 MLOAD DUP1 SWAP2 SUB SWAP1 KECCAK256 PUSH0 DUP1 DUP3 ADD PUSH0 PUSH2 0x10EE SWAP2 SWAP1 PUSH2 0x1FFC JUMP JUMPDEST PUSH1 0x1 DUP3 ADD PUSH0 PUSH2 0x10FD SWAP2 SWAP1 PUSH2 0x1FFC JUMP JUMPDEST PUSH1 0x2 DUP3 ADD PUSH0 SWAP1 SSTORE PUSH1 0x3 DUP3 ADD PUSH0 PUSH2 0x1113 SWAP2 SWAP1 PUSH2 0x1FFC JUMP JUMPDEST PUSH1 0x4 DUP3 ADD PUSH0 PUSH2 0x100 EXP DUP2 SLOAD SWAP1 PUSH20 0xFFFFFFFFFFFFFFFFFFFFFFFFFFFFFFFFFFFFFFFF MUL NOT AND SWAP1 SSTORE PUSH1 0x5 DUP3 ADD PUSH0 SWAP1 SSTORE POP POP JUMPDEST POP POP POP POP POP POP POP POP JUMP JUMPDEST PUSH2 0x1156 CALLER PUSH2 0x1E7B JUMP JUMPDEST PUSH0 DUP1 PUSH0 CALLER PUSH20 0xFFFFFFFFFFFFFFFFFFFFFFFFFFFFFFFFFFFFFFFF AND PUSH20 0xFFFFFFFFFFFFFFFFFFFFFFFFFFFFFFFFFFFFFFFF AND DUP2 MSTORE PUSH1 0x20 ADD SWAP1 DUP2 MSTORE PUSH1 0x20 ADD PUSH0 KECCAK256 SWAP1 POP PUSH0 JUMPDEST DUP5 MLOAD DUP2 LT ISZERO PUSH2 0x11E9 JUMPI DUP2 PUSH1 0x5 ADD DUP6 DUP3 DUP2 MLOAD DUP2 LT PUSH2 0x11B7 JUMPI PUSH2 0x11B6 PUSH2 0x2B43 JUMP JUMPDEST JUMPDEST PUSH1 0x20 MUL PUSH1 0x20 ADD ADD MLOAD PUSH1 0x40 MLOAD PUSH2 0x11CC SWAP2 SWAP1 PUSH2 0x2C07 JUMP JUMPDEST SWAP1 DUP2 MSTORE PUSH1 0x20 ADD PUSH1 0x40 MLOAD DUP1 SWAP2 SUB SWAP1 KECCAK256 SWAP2 POP DUP1 DUP1 PUSH1 0x1 ADD SWAP2 POP POP PUSH2 0x1197 JUMP JUMPDEST POP PUSH0 DUP2 PUSH1 0x4 ADD DUP5 PUSH1 0x40 MLOAD PUSH2 0x11FD SWAP2 SWAP1 PUSH2 0x2C07 JUMP JUMPDEST SWAP1 DUP2 MSTORE PUSH1 0x20 ADD PUSH1 0x40 MLOAD DUP1 SWAP2 SUB SWAP1 KECCAK256 PUSH0 ADD DUP1 SLOAD PUSH2 0x1218 SWAP1 PUSH2 0x2B9D JUMP JUMPDEST SWAP1 POP SUB PUSH2 0x125A JUMPI PUSH1 0x40 MLOAD PUSH32 0x8C379A000000000000000000000000000000000000000000000000000000000 DUP2 MSTORE PUSH1 0x4 ADD PUSH2 0x1251 SWAP1 PUSH2 0x32E4 JUMP JUMPDEST PUSH1 0x40 MLOAD DUP1 SWAP2 SUB SWAP1 REVERT JUMPDEST PUSH0 DUP2 PUSH1 0x4 ADD DUP5 PUSH1 0x40 MLOAD PUSH2 0x126D SWAP2 SWAP1 PUSH2 0x2C07 JUMP JUMPDEST SWAP1 DUP2 MSTORE PUSH1 0x20 ADD PUSH1 0x40 MLOAD DUP1 SWAP2 SUB SWAP1 KECCAK256 SWAP1 POP PUSH2 0x1286 DUP4 PUSH2 0x1E7B JUMP JUMPDEST PUSH0 DUP1 DUP5 PUSH20 0xFFFFFFFFFFFFFFFFFFFFFFFFFFFFFFFFFFFFFFFF AND PUSH20 0xFFFFFFFFFFFFFFFFFFFFFFFFFFFFFFFFFFFFFFFF AND DUP2 MSTORE PUSH1 0x20 ADD SWAP1 DUP2 MSTORE PUSH1 0x20 ADD PUSH0 KECCAK256 PUSH1 0x6 ADD DUP2 SWAP1 DUP1 PUSH1 0x1 DUP2 SLOAD ADD DUP1 DUP3 SSTORE DUP1 SWAP2 POP POP PUSH1 0x1 SWAP1 SUB SWAP1 PUSH0 MSTORE PUSH1 0x20 PUSH0 KECCAK256 SWAP1 PUSH1 0x6 MUL ADD PUSH0 SWAP1 SWAP2 SWAP1 SWAP2 SWAP1 SWAP2 POP PUSH0 DUP3 ADD DUP2 PUSH0 ADD SWAP1 DUP2 PUSH2 0x12FE SWAP2 SWAP1 PUSH2 0x340D JUMP JUMPDEST POP PUSH1 0x1 DUP3 ADD DUP2 PUSH1 0x1 ADD SWAP1 DUP2 PUSH2 0x1313 SWAP2 SWAP1 PUSH2 0x340D JUMP JUMPDEST POP PUSH1 0x2 DUP3 ADD SLOAD DUP2 PUSH1 0x2 ADD SSTORE PUSH1 0x3 DUP3 ADD DUP2 PUSH1 0x3 ADD SWAP1 DUP2 PUSH2 0x1332 SWAP2 SWAP1 PUSH2 0x340D JUMP JUMPDEST POP PUSH1 0x4 DUP3 ADD PUSH0 SWAP1 SLOAD SWAP1 PUSH2 0x100 EXP SWAP1 DIV PUSH20 0xFFFFFFFFFFFFFFFFFFFFFFFFFFFFFFFFFFFFFFFF AND DUP2 PUSH1 0x4 ADD PUSH0 PUSH2 0x100 EXP DUP2 SLOAD DUP2 PUSH20 0xFFFFFFFFFFFFFFFFFFFFFFFFFFFFFFFFFFFFFFFF MUL NOT AND SWAP1 DUP4 PUSH20 0xFFFFFFFFFFFFFFFFFFFFFFFFFFFFFFFFFFFFFFFF AND MUL OR SWAP1 SSTORE POP PUSH1 0x5 DUP3 ADD SLOAD DUP2 PUSH1 0x5 ADD SSTORE POP POP POP POP POP POP POP JUMP JUMPDEST PUSH2 0x13B4 CALLER PUSH2 0x1E7B JUMP JUMPDEST PUSH0 DUP1 PUSH0 CALLER PUSH20 0xFFFFFFFFFFFFFFFFFFFFFFFFFFFFFFFFFFFFFFFF AND PUSH20 0xFFFFFFFFFFFFFFFFFFFFFFFFFFFFFFFFFFFFFFFF AND DUP2 MSTORE PUSH1 0x20 ADD SWAP1 DUP2 MSTORE PUSH1 0x20 ADD PUSH0 KECCAK256 SWAP1 POP PUSH0 JUMPDEST DUP7 MLOAD DUP2 LT ISZERO PUSH2 0x1447 JUMPI DUP2 PUSH1 0x5 ADD DUP8 DUP3 DUP2 MLOAD DUP2 LT PUSH2 0x1415 JUMPI PUSH2 0x1414 PUSH2 0x2B43 JUMP JUMPDEST JUMPDEST PUSH1 0x20 MUL PUSH1 0x20 ADD ADD MLOAD PUSH1 0x40 MLOAD PUSH2 0x142A SWAP2 SWAP1 PUSH2 0x2C07 JUMP JUMPDEST SWAP1 DUP2 MSTORE PUSH1 0x20 ADD PUSH1 0x40 MLOAD DUP1 SWAP2 SUB SWAP1 KECCAK256 SWAP2 POP DUP1 DUP1 PUSH1 0x1 ADD SWAP2 POP POP PUSH2 0x13F5 JUMP JUMPDEST POP PUSH0 DUP2 PUSH1 0x4 ADD DUP7 PUSH1 0x40 MLOAD PUSH2 0x145B SWAP2 SWAP1 PUSH2 0x2C07 JUMP JUMPDEST SWAP1 DUP2 MSTORE PUSH1 0x20 ADD PUSH1 0x40 MLOAD DUP1 SWAP2 SUB SWAP1 KECCAK256 PUSH0 ADD DUP1 SLOAD PUSH2 0x1476 SWAP1 PUSH2 0x2B9D JUMP JUMPDEST SWAP1 POP EQ PUSH2 0x14B8 JUMPI PUSH1 0x40 MLOAD PUSH32 0x8C379A000000000000000000000000000000000000000000000000000000000 DUP2 MSTORE PUSH1 0x4 ADD PUSH2 0x14AF SWAP1 PUSH2 0x353C JUMP JUMPDEST PUSH1 0x40 MLOAD DUP1 SWAP2 SUB SWAP1 REVERT JUMPDEST PUSH0 DUP2 PUSH1 0x5 ADD DUP7 PUSH1 0x40 MLOAD PUSH2 0x14CB SWAP2 SWAP1 PUSH2 0x2C07 JUMP JUMPDEST SWAP1 DUP2 MSTORE PUSH1 0x20 ADD PUSH1 0x40 MLOAD DUP1 SWAP2 SUB SWAP1 KECCAK256 PUSH0 ADD DUP1 SLOAD PUSH2 0x14E6 SWAP1 PUSH2 0x2B9D JUMP JUMPDEST SWAP1 POP EQ PUSH2 0x1528 JUMPI PUSH1 0x40 MLOAD PUSH32 0x8C379A000000000000000000000000000000000000000000000000000000000 DUP2 MSTORE PUSH1 0x4 ADD PUSH2 0x151F SWAP1 PUSH2 0x35CA JUMP JUMPDEST PUSH1 0x40 MLOAD DUP1 SWAP2 SUB SWAP1 REVERT JUMPDEST PUSH0 DUP2 PUSH1 0x4 ADD DUP7 PUSH1 0x40 MLOAD PUSH2 0x153B SWAP2 SWAP1 PUSH2 0x2C07 JUMP JUMPDEST SWAP1 DUP2 MSTORE PUSH1 0x20 ADD PUSH1 0x40 MLOAD DUP1 SWAP2 SUB SWAP1 KECCAK256 SWAP1 POP DUP6 DUP2 PUSH0 ADD SWAP1 DUP2 PUSH2 0x155B SWAP2 SWAP1 PUSH2 0x31CB JUMP JUMPDEST POP DUP5 DUP2 PUSH1 0x1 ADD SWAP1 DUP2 PUSH2 0x156D SWAP2 SWAP1 PUSH2 0x31CB JUMP JUMPDEST POP DUP4 DUP2 PUSH1 0x2 ADD DUP2 SWAP1 SSTORE POP DUP3 DUP2 PUSH1 0x3 ADD SWAP1 DUP2 PUSH2 0x1588 SWAP2 SWAP1 PUSH2 0x31CB JUMP JUMPDEST POP CALLER DUP2 PUSH1 0x4 ADD PUSH0 PUSH2 0x100 EXP DUP2 SLOAD DUP2 PUSH20 0xFFFFFFFFFFFFFFFFFFFFFFFFFFFFFFFFFFFFFFFF MUL NOT AND SWAP1 DUP4 PUSH20 0xFFFFFFFFFFFFFFFFFFFFFFFFFFFFFFFFFFFFFFFF AND MUL OR SWAP1 SSTORE POP TIMESTAMP DUP2 PUSH1 0x5 ADD DUP2 SWAP1 SSTORE POP DUP2 PUSH1 0x3 ADD DUP7 SWAP1 DUP1 PUSH1 0x1 DUP2 SLOAD ADD DUP1 DUP3 SSTORE DUP1 SWAP2 POP POP PUSH1 0x1 SWAP1 SUB SWAP1 PUSH0 MSTORE PUSH1 0x20 PUSH0 KECCAK256 ADD PUSH0 SWAP1 SWAP2 SWAP1 SWAP2 SWAP1 SWAP2 POP SWAP1 DUP2 PUSH2 0x1607 SWAP2 SWAP1 PUSH2 0x31CB JUMP JUMPDEST POP POP POP POP POP POP POP POP JUMP JUMPDEST PUSH2 0x1619 PUSH2 0x1FCE JUMP JUMPDEST PUSH0 DUP1 PUSH0 JUMPDEST DUP5 PUSH1 0x3 ADD DUP1 SLOAD SWAP1 POP DUP2 LT ISZERO PUSH2 0x1739 JUMPI PUSH0 DUP6 PUSH1 0x3 ADD DUP3 DUP2 SLOAD DUP2 LT PUSH2 0x1643 JUMPI PUSH2 0x1642 PUSH2 0x2B43 JUMP JUMPDEST JUMPDEST SWAP1 PUSH0 MSTORE PUSH1 0x20 PUSH0 KECCAK256 ADD DUP1 SLOAD PUSH2 0x1656 SWAP1 PUSH2 0x2B9D JUMP JUMPDEST DUP1 PUSH1 0x1F ADD PUSH1 0x20 DUP1 SWAP2 DIV MUL PUSH1 0x20 ADD PUSH1 0x40 MLOAD SWAP1 DUP2 ADD PUSH1 0x40 MSTORE DUP1 SWAP3 SWAP2 SWAP1 DUP2 DUP2 MSTORE PUSH1 0x20 ADD DUP3 DUP1 SLOAD PUSH2 0x1682 SWAP1 PUSH2 0x2B9D JUMP JUMPDEST DUP1 ISZERO PUSH2 0x16CD JUMPI DUP1 PUSH1 0x1F LT PUSH2 0x16A4 JUMPI PUSH2 0x100 DUP1 DUP4 SLOAD DIV MUL DUP4 MSTORE SWAP2 PUSH1 0x20 ADD SWAP2 PUSH2 0x16CD JUMP JUMPDEST DUP3 ADD SWAP2 SWAP1 PUSH0 MSTORE PUSH1 0x20 PUSH0 KECCAK256 SWAP1 JUMPDEST DUP2 SLOAD DUP2 MSTORE SWAP1 PUSH1 0x1 ADD SWAP1 PUSH1 0x20 ADD DUP1 DUP4 GT PUSH2 0x16B0 JUMPI DUP3 SWAP1 SUB PUSH1 0x1F AND DUP3 ADD SWAP2 JUMPDEST POP POP POP POP POP SWAP1 POP PUSH0 DUP7 PUSH1 0x4 ADD DUP3 PUSH1 0x40 MLOAD PUSH2 0x16E7 SWAP2 SWAP1 PUSH2 0x2C07 JUMP JUMPDEST SWAP1 DUP2 MSTORE PUSH1 0x20 ADD PUSH1 0x40 MLOAD DUP1 SWAP2 SUB SWAP1 KECCAK256 PUSH0 ADD DUP1 SLOAD PUSH2 0x1702 SWAP1 PUSH2 0x2B9D JUMP JUMPDEST SWAP1 POP EQ PUSH2 0x171C JUMPI DUP4 DUP1 PUSH2 0x1714 SWAP1 PUSH2 0x35E8 JUMP JUMPDEST SWAP5 POP POP PUSH2 0x172B JUMP JUMPDEST DUP3 DUP1 PUSH2 0x1727 SWAP1 PUSH2 0x35E8 JUMP JUMPDEST SWAP4 POP POP JUMPDEST POP DUP1 DUP1 PUSH1 0x1 ADD SWAP2 POP POP PUSH2 0x161D JUMP JUMPDEST POP PUSH0 DUP3 PUSH8 0xFFFFFFFFFFFFFFFF DUP2 GT ISZERO PUSH2 0x1755 JUMPI PUSH2 0x1754 PUSH2 0x238E JUMP JUMPDEST JUMPDEST PUSH1 0x40 MLOAD SWAP1 DUP1 DUP3 MSTORE DUP1 PUSH1 0x20 MUL PUSH1 0x20 ADD DUP3 ADD PUSH1 0x40 MSTORE DUP1 ISZERO PUSH2 0x178E JUMPI DUP2 PUSH1 0x20 ADD JUMPDEST PUSH2 0x177B PUSH2 0x1FA1 JUMP JUMPDEST DUP2 MSTORE PUSH1 0x20 ADD SWAP1 PUSH1 0x1 SWAP1 SUB SWAP1 DUP2 PUSH2 0x1773 JUMPI SWAP1 POP JUMPDEST POP SWAP1 POP PUSH0 DUP3 PUSH8 0xFFFFFFFFFFFFFFFF DUP2 GT ISZERO PUSH2 0x17AC JUMPI PUSH2 0x17AB PUSH2 0x238E JUMP JUMPDEST JUMPDEST PUSH1 0x40 MLOAD SWAP1 DUP1 DUP3 MSTORE DUP1 PUSH1 0x20 MUL PUSH1 0x20 ADD DUP3 ADD PUSH1 0x40 MSTORE DUP1 ISZERO PUSH2 0x17DF JUMPI DUP2 PUSH1 0x20 ADD JUMPDEST PUSH1 0x60 DUP2 MSTORE PUSH1 0x20 ADD SWAP1 PUSH1 0x1 SWAP1 SUB SWAP1 DUP2 PUSH2 0x17CA JUMPI SWAP1 POP JUMPDEST POP SWAP1 POP PUSH0 DUP7 PUSH1 0x6 ADD DUP1 SLOAD SWAP1 POP PUSH8 0xFFFFFFFFFFFFFFFF DUP2 GT ISZERO PUSH2 0x1804 JUMPI PUSH2 0x1803 PUSH2 0x238E JUMP JUMPDEST JUMPDEST PUSH1 0x40 MLOAD SWAP1 DUP1 DUP3 MSTORE DUP1 PUSH1 0x20 MUL PUSH1 0x20 ADD DUP3 ADD PUSH1 0x40 MSTORE DUP1 ISZERO PUSH2 0x183D JUMPI DUP2 PUSH1 0x20 ADD JUMPDEST PUSH2 0x182A PUSH2 0x1FA1 JUMP JUMPDEST DUP2 MSTORE PUSH1 0x20 ADD SWAP1 PUSH1 0x1 SWAP1 SUB SWAP1 DUP2 PUSH2 0x1822 JUMPI SWAP1 POP JUMPDEST POP SWAP1 POP PUSH0 DUP1 PUSH0 JUMPDEST DUP10 PUSH1 0x3 ADD DUP1 SLOAD SWAP1 POP DUP2 LT ISZERO PUSH2 0x1B89 JUMPI PUSH0 DUP11 PUSH1 0x3 ADD DUP3 DUP2 SLOAD DUP2 LT PUSH2 0x186A JUMPI PUSH2 0x1869 PUSH2 0x2B43 JUMP JUMPDEST JUMPDEST SWAP1 PUSH0 MSTORE PUSH1 0x20 PUSH0 KECCAK256 ADD DUP1 SLOAD PUSH2 0x187D SWAP1 PUSH2 0x2B9D JUMP JUMPDEST DUP1 PUSH1 0x1F ADD PUSH1 0x20 DUP1 SWAP2 DIV MUL PUSH1 0x20 ADD PUSH1 0x40 MLOAD SWAP1 DUP2 ADD PUSH1 0x40 MSTORE DUP1 SWAP3 SWAP2 SWAP1 DUP2 DUP2 MSTORE PUSH1 0x20 ADD DUP3 DUP1 SLOAD PUSH2 0x18A9 SWAP1 PUSH2 0x2B9D JUMP JUMPDEST DUP1 ISZERO PUSH2 0x18F4 JUMPI DUP1 PUSH1 0x1F LT PUSH2 0x18CB JUMPI PUSH2 0x100 DUP1 DUP4 SLOAD DIV MUL DUP4 MSTORE SWAP2 PUSH1 0x20 ADD SWAP2 PUSH2 0x18F4 JUMP JUMPDEST DUP3 ADD SWAP2 SWAP1 PUSH0 MSTORE PUSH1 0x20 PUSH0 KECCAK256 SWAP1 JUMPDEST DUP2 SLOAD DUP2 MSTORE SWAP1 PUSH1 0x1 ADD SWAP1 PUSH1 0x20 ADD DUP1 DUP4 GT PUSH2 0x18D7 JUMPI DUP3 SWAP1 SUB PUSH1 0x1F AND DUP3 ADD SWAP2 JUMPDEST POP POP POP POP POP SWAP1 POP PUSH0 DUP12 PUSH1 0x4 ADD DUP3 PUSH1 0x40 MLOAD PUSH2 0x190E SWAP2 SWAP1 PUSH2 0x2C07 JUMP JUMPDEST SWAP1 DUP2 MSTORE PUSH1 0x20 ADD PUSH1 0x40 MLOAD DUP1 SWAP2 SUB SWAP1 KECCAK256 PUSH0 ADD DUP1 SLOAD PUSH2 0x1929 SWAP1 PUSH2 0x2B9D JUMP JUMPDEST SWAP1 POP EQ PUSH2 0x1B4F JUMPI PUSH0 DUP12 PUSH1 0x4 ADD DUP3 PUSH1 0x40 MLOAD PUSH2 0x1943 SWAP2 SWAP1 PUSH2 0x2C07 JUMP JUMPDEST SWAP1 DUP2 MSTORE PUSH1 0x20 ADD PUSH1 0x40 MLOAD DUP1 SWAP2 SUB SWAP1 KECCAK256 SWAP1 POP PUSH1 0x40 MLOAD DUP1 PUSH1 0xA0 ADD PUSH1 0x40 MSTORE DUP1 DUP3 PUSH0 ADD DUP1 SLOAD PUSH2 0x196C SWAP1 PUSH2 0x2B9D JUMP JUMPDEST DUP1 PUSH1 0x1F ADD PUSH1 0x20 DUP1 SWAP2 DIV MUL PUSH1 0x20 ADD PUSH1 0x40 MLOAD SWAP1 DUP2 ADD PUSH1 0x40 MSTORE DUP1 SWAP3 SWAP2 SWAP1 DUP2 DUP2 MSTORE PUSH1 0x20 ADD DUP3 DUP1 SLOAD PUSH2 0x1998 SWAP1 PUSH2 0x2B9D JUMP JUMPDEST DUP1 ISZERO PUSH2 0x19E3 JUMPI DUP1 PUSH1 0x1F LT PUSH2 0x19BA JUMPI PUSH2 0x100 DUP1 DUP4 SLOAD DIV MUL DUP4 MSTORE SWAP2 PUSH1 0x20 ADD SWAP2 PUSH2 0x19E3 JUMP JUMPDEST DUP3 ADD SWAP2 SWAP1 PUSH0 MSTORE PUSH1 0x20 PUSH0 KECCAK256 SWAP1 JUMPDEST DUP2 SLOAD DUP2 MSTORE SWAP1 PUSH1 0x1 ADD SWAP1 PUSH1 0x20 ADD DUP1 DUP4 GT PUSH2 0x19C6 JUMPI DUP3 SWAP1 SUB PUSH1 0x1F AND DUP3 ADD SWAP2 JUMPDEST POP POP POP POP POP DUP2 MSTORE PUSH1 0x20 ADD DUP3 PUSH1 0x1 ADD DUP1 SLOAD PUSH2 0x19FC SWAP1 PUSH2 0x2B9D JUMP JUMPDEST DUP1 PUSH1 0x1F ADD PUSH1 0x20 DUP1 SWAP2 DIV MUL PUSH1 0x20 ADD PUSH1 0x40 MLOAD SWAP1 DUP2 ADD PUSH1 0x40 MSTORE DUP1 SWAP3 SWAP2 SWAP1 DUP2 DUP2 MSTORE PUSH1 0x20 ADD DUP3 DUP1 SLOAD PUSH2 0x1A28 SWAP1 PUSH2 0x2B9D JUMP JUMPDEST DUP1 ISZERO PUSH2 0x1A73 JUMPI DUP1 PUSH1 0x1F LT PUSH2 0x1A4A JUMPI PUSH2 0x100 DUP1 DUP4 SLOAD DIV MUL DUP4 MSTORE SWAP2 PUSH1 0x20 ADD SWAP2 PUSH2 0x1A73 JUMP JUMPDEST DUP3 ADD SWAP2 SWAP1 PUSH0 MSTORE PUSH1 0x20 PUSH0 KECCAK256 SWAP1 JUMPDEST DUP2 SLOAD DUP2 MSTORE SWAP1 PUSH1 0x1 ADD SWAP1 PUSH1 0x20 ADD DUP1 DUP4 GT PUSH2 0x1A56 JUMPI DUP3 SWAP1 SUB PUSH1 0x1F AND DUP3 ADD SWAP2 JUMPDEST POP POP POP POP POP DUP2 MSTORE PUSH1 0x20 ADD DUP3 PUSH1 0x2 ADD SLOAD DUP2 MSTORE PUSH1 0x20 ADD DUP3 PUSH1 0x3 ADD DUP1 SLOAD PUSH2 0x1A96 SWAP1 PUSH2 0x2B9D JUMP JUMPDEST DUP1 PUSH1 0x1F ADD PUSH1 0x20 DUP1 SWAP2 DIV MUL PUSH1 0x20 ADD PUSH1 0x40 MLOAD SWAP1 DUP2 ADD PUSH1 0x40 MSTORE DUP1 SWAP3 SWAP2 SWAP1 DUP2 DUP2 MSTORE PUSH1 0x20 ADD DUP3 DUP1 SLOAD PUSH2 0x1AC2 SWAP1 PUSH2 0x2B9D JUMP JUMPDEST DUP1 ISZERO PUSH2 0x1B0D JUMPI DUP1 PUSH1 0x1F LT PUSH2 0x1AE4 JUMPI PUSH2 0x100 DUP1 DUP4 SLOAD DIV MUL DUP4 MSTORE SWAP2 PUSH1 0x20 ADD SWAP2 PUSH2 0x1B0D JUMP JUMPDEST DUP3 ADD SWAP2 SWAP1 PUSH0 MSTORE PUSH1 0x20 PUSH0 KECCAK256 SWAP1 JUMPDEST DUP2 SLOAD DUP2 MSTORE SWAP1 PUSH1 0x1 ADD SWAP1 PUSH1 0x20 ADD DUP1 DUP4 GT PUSH2 0x1AF0 JUMPI DUP3 SWAP1 SUB PUSH1 0x1F AND DUP3 ADD SWAP2 JUMPDEST POP POP POP POP POP DUP2 MSTORE PUSH1 0x20 ADD DUP3 PUSH1 0x5 ADD SLOAD DUP2 MSTORE POP DUP9 DUP7 DUP1 PUSH2 0x1B2B SWAP1 PUSH2 0x35E8 JUMP JUMPDEST SWAP8 POP DUP2 MLOAD DUP2 LT PUSH2 0x1B3E JUMPI PUSH2 0x1B3D PUSH2 0x2B43 JUMP JUMPDEST JUMPDEST PUSH1 0x20 MUL PUSH1 0x20 ADD ADD DUP2 SWAP1 MSTORE POP POP PUSH2 0x1B7B JUMP JUMPDEST DUP1 DUP7 DUP5 DUP1 PUSH2 0x1B5C SWAP1 PUSH2 0x35E8 JUMP JUMPDEST SWAP6 POP DUP2 MLOAD DUP2 LT PUSH2 0x1B6F JUMPI PUSH2 0x1B6E PUSH2 0x2B43 JUMP JUMPDEST JUMPDEST PUSH1 0x20 MUL PUSH1 0x20 ADD ADD DUP2 SWAP1 MSTORE POP JUMPDEST POP DUP1 DUP1 PUSH1 0x1 ADD SWAP2 POP POP PUSH2 0x1844 JUMP JUMPDEST POP PUSH0 JUMPDEST DUP10 PUSH1 0x6 ADD DUP1 SLOAD SWAP1 POP DUP2 LT ISZERO PUSH2 0x1DB8 JUMPI PUSH0 DUP11 PUSH1 0x6 ADD DUP3 DUP2 SLOAD DUP2 LT PUSH2 0x1BB2 JUMPI PUSH2 0x1BB1 PUSH2 0x2B43 JUMP JUMPDEST JUMPDEST SWAP1 PUSH0 MSTORE PUSH1 0x20 PUSH0 KECCAK256 SWAP1 PUSH1 0x6 MUL ADD SWAP1 POP PUSH1 0x40 MLOAD DUP1 PUSH1 0xA0 ADD PUSH1 0x40 MSTORE DUP1 DUP3 PUSH0 ADD DUP1 SLOAD PUSH2 0x1BD9 SWAP1 PUSH2 0x2B9D JUMP JUMPDEST DUP1 PUSH1 0x1F ADD PUSH1 0x20 DUP1 SWAP2 DIV MUL PUSH1 0x20 ADD PUSH1 0x40 MLOAD SWAP1 DUP2 ADD PUSH1 0x40 MSTORE DUP1 SWAP3 SWAP2 SWAP1 DUP2 DUP2 MSTORE PUSH1 0x20 ADD DUP3 DUP1 SLOAD PUSH2 0x1C05 SWAP1 PUSH2 0x2B9D JUMP JUMPDEST DUP1 ISZERO PUSH2 0x1C50 JUMPI DUP1 PUSH1 0x1F LT PUSH2 0x1C27 JUMPI PUSH2 0x100 DUP1 DUP4 SLOAD DIV MUL DUP4 MSTORE SWAP2 PUSH1 0x20 ADD SWAP2 PUSH2 0x1C50 JUMP JUMPDEST DUP3 ADD SWAP2 SWAP1 PUSH0 MSTORE PUSH1 0x20 PUSH0 KECCAK256 SWAP1 JUMPDEST DUP2 SLOAD DUP2 MSTORE SWAP1 PUSH1 0x1 ADD SWAP1 PUSH1 0x20 ADD DUP1 DUP4 GT PUSH2 0x1C33 JUMPI DUP3 SWAP1 SUB PUSH1 0x1F AND DUP3 ADD SWAP2 JUMPDEST POP POP POP POP POP DUP2 MSTORE PUSH1 0x20 ADD DUP3 PUSH1 0x1 ADD DUP1 SLOAD PUSH2 0x1C69 SWAP1 PUSH2 0x2B9D JUMP JUMPDEST DUP1 PUSH1 0x1F ADD PUSH1 0x20 DUP1 SWAP2 DIV MUL PUSH1 0x20 ADD PUSH1 0x40 MLOAD SWAP1 DUP2 ADD PUSH1 0x40 MSTORE DUP1 SWAP3 SWAP2 SWAP1 DUP2 DUP2 MSTORE PUSH1 0x20 ADD DUP3 DUP1 SLOAD PUSH2 0x1C95 SWAP1 PUSH2 0x2B9D JUMP JUMPDEST DUP1 ISZERO PUSH2 0x1CE0 JUMPI DUP1 PUSH1 0x1F LT PUSH2 0x1CB7 JUMPI PUSH2 0x100 DUP1 DUP4 SLOAD DIV MUL DUP4 MSTORE SWAP2 PUSH1 0x20 ADD SWAP2 PUSH2 0x1CE0 JUMP JUMPDEST DUP3 ADD SWAP2 SWAP1 PUSH0 MSTORE PUSH1 0x20 PUSH0 KECCAK256 SWAP1 JUMPDEST DUP2 SLOAD DUP2 MSTORE SWAP1 PUSH1 0x1 ADD SWAP1 PUSH1 0x20 ADD DUP1 DUP4 GT PUSH2 0x1CC3 JUMPI DUP3 SWAP1 SUB PUSH1 0x1F AND DUP3 ADD SWAP2 JUMPDEST POP POP POP POP POP DUP2 MSTORE PUSH1 0x20 ADD DUP3 PUSH1 0x2 ADD SLOAD DUP2 MSTORE PUSH1 0x20 ADD DUP3 PUSH1 0x3 ADD DUP1 SLOAD PUSH2 0x1D03 SWAP1 PUSH2 0x2B9D JUMP JUMPDEST DUP1 PUSH1 0x1F ADD PUSH1 0x20 DUP1 SWAP2 DIV MUL PUSH1 0x20 ADD PUSH1 0x40 MLOAD SWAP1 DUP2 ADD PUSH1 0x40 MSTORE DUP1 SWAP3 SWAP2 SWAP1 DUP2 DUP2 MSTORE PUSH1 0x20 ADD DUP3 DUP1 SLOAD PUSH2 0x1D2F SWAP1 PUSH2 0x2B9D JUMP JUMPDEST DUP1 ISZERO PUSH2 0x1D7A JUMPI DUP1 PUSH1 0x1F LT PUSH2 0x1D51 JUMPI PUSH2 0x100 DUP1 DUP4 SLOAD DIV MUL DUP4 MSTORE SWAP2 PUSH1 0x20 ADD SWAP2 PUSH2 0x1D7A JUMP JUMPDEST DUP3 ADD SWAP2 SWAP1 PUSH0 MSTORE PUSH1 0x20 PUSH0 KECCAK256 SWAP1 JUMPDEST DUP2 SLOAD DUP2 MSTORE SWAP1 PUSH1 0x1 ADD SWAP1 PUSH1 0x20 ADD DUP1 DUP4 GT PUSH2 0x1D5D JUMPI DUP3 SWAP1 SUB PUSH1 0x1F AND DUP3 ADD SWAP2 JUMPDEST POP POP POP POP POP DUP2 MSTORE PUSH1 0x20 ADD DUP3 PUSH1 0x5 ADD SLOAD DUP2 MSTORE POP DUP6 DUP4 DUP2 MLOAD DUP2 LT PUSH2 0x1D9F JUMPI PUSH2 0x1D9E PUSH2 0x2B43 JUMP JUMPDEST JUMPDEST PUSH1 0x20 MUL PUSH1 0x20 ADD ADD DUP2 SWAP1 MSTORE POP POP DUP1 DUP1 PUSH1 0x1 ADD SWAP2 POP POP PUSH2 0x1B8C JUMP JUMPDEST POP PUSH1 0x40 MLOAD DUP1 PUSH1 0xA0 ADD PUSH1 0x40 MSTORE DUP1 DUP11 PUSH0 ADD DUP1 SLOAD PUSH2 0x1DD2 SWAP1 PUSH2 0x2B9D JUMP JUMPDEST DUP1 PUSH1 0x1F ADD PUSH1 0x20 DUP1 SWAP2 DIV MUL PUSH1 0x20 ADD PUSH1 0x40 MLOAD SWAP1 DUP2 ADD PUSH1 0x40 MSTORE DUP1 SWAP3 SWAP2 SWAP1 DUP2 DUP2 MSTORE PUSH1 0x20 ADD DUP3 DUP1 SLOAD PUSH2 0x1DFE SWAP1 PUSH2 0x2B9D JUMP JUMPDEST DUP1 ISZERO PUSH2 0x1E49 JUMPI DUP1 PUSH1 0x1F LT PUSH2 0x1E20 JUMPI PUSH2 0x100 DUP1 DUP4 SLOAD DIV MUL DUP4 MSTORE SWAP2 PUSH1 0x20 ADD SWAP2 PUSH2 0x1E49 JUMP JUMPDEST DUP3 ADD SWAP2 SWAP1 PUSH0 MSTORE PUSH1 0x20 PUSH0 KECCAK256 SWAP1 JUMPDEST DUP2 SLOAD DUP2 MSTORE SWAP1 PUSH1 0x1 ADD SWAP1 PUSH1 0x20 ADD DUP1 DUP4 GT PUSH2 0x1E2C JUMPI DUP3 SWAP1 SUB PUSH1 0x1F AND DUP3 ADD SWAP2 JUMPDEST POP POP POP POP POP DUP2 MSTORE PUSH1 0x20 ADD DUP11 PUSH1 0x2 ADD SLOAD DUP2 MSTORE PUSH1 0x20 ADD DUP7 DUP2 MSTORE PUSH1 0x20 ADD DUP6 DUP2 MSTORE PUSH1 0x20 ADD DUP5 DUP2 MSTORE POP SWAP8 POP POP POP POP POP POP POP POP SWAP2 SWAP1 POP JUMP JUMPDEST PUSH0 DUP1 PUSH0 DUP4 PUSH20 0xFFFFFFFFFFFFFFFFFFFFFFFFFFFFFFFFFFFFFFFF AND PUSH20 0xFFFFFFFFFFFFFFFFFFFFFFFFFFFFFFFFFFFFFFFF AND DUP2 MSTORE PUSH1 0x20 ADD SWAP1 DUP2 MSTORE PUSH1 0x20 ADD PUSH0 KECCAK256 PUSH0 ADD DUP1 SLOAD PUSH2 0x1EC5 SWAP1 PUSH2 0x2B9D JUMP JUMPDEST SWAP1 POP SUB PUSH2 0x1F9E JUMPI PUSH0 DUP1 PUSH0 DUP4 PUSH20 0xFFFFFFFFFFFFFFFFFFFFFFFFFFFFFFFFFFFFFFFF AND PUSH20 0xFFFFFFFFFFFFFFFFFFFFFFFFFFFFFFFFFFFFFFFF AND DUP2 MSTORE PUSH1 0x20 ADD SWAP1 DUP2 MSTORE PUSH1 0x20 ADD PUSH0 KECCAK256 SWAP1 POP PUSH1 0x40 MLOAD DUP1 PUSH1 0x40 ADD PUSH1 0x40 MSTORE DUP1 PUSH1 0x8 DUP2 MSTORE PUSH1 0x20 ADD PUSH32 0x4D79205370616365000000000000000000000000000000000000000000000000 DUP2 MSTORE POP DUP2 PUSH0 ADD SWAP1 DUP2 PUSH2 0x1F50 SWAP2 SWAP1 PUSH2 0x31CB JUMP JUMPDEST POP DUP2 DUP2 PUSH1 0x1 ADD PUSH0 PUSH2 0x100 EXP DUP2 SLOAD DUP2 PUSH20 0xFFFFFFFFFFFFFFFFFFFFFFFFFFFFFFFFFFFFFFFF MUL NOT AND SWAP1 DUP4 PUSH20 0xFFFFFFFFFFFFFFFFFFFFFFFFFFFFFFFFFFFFFFFF AND MUL OR SWAP1 SSTORE POP TIMESTAMP DUP2 PUSH1 0x2 ADD DUP2 SWAP1 SSTORE POP POP JUMPDEST POP JUMP JUMPDEST PUSH1 0x40 MLOAD DUP1 PUSH1 0xA0 ADD PUSH1 0x40 MSTORE DUP1 PUSH1 0x60 DUP2 MSTORE PUSH1 0x20 ADD PUSH1 0x60 DUP2 MSTORE PUSH1 0x20 ADD PUSH0 DUP2 MSTORE PUSH1 0x20 ADD PUSH1 0x60 DUP2 MSTORE PUSH1 0x20 ADD PUSH0 DUP2 MSTORE POP SWAP1 JUMP JUMPDEST PUSH1 0x40 MLOAD DUP1 PUSH1 0xA0 ADD PUSH1 0x40 MSTORE DUP1 PUSH1 0x60 DUP2 MSTORE PUSH1 0x20 ADD PUSH0 DUP2 MSTORE PUSH1 0x20 ADD PUSH1 0x60 DUP2 MSTORE PUSH1 0x20 ADD PUSH1 0x60 DUP2 MSTORE PUSH1 0x20 ADD PUSH1 0x60 DUP2 MSTORE POP SWAP1 JUMP JUMPDEST POP DUP1 SLOAD PUSH2 0x2008 SWAP1 PUSH2 0x2B9D JUMP JUMPDEST PUSH0 DUP3 SSTORE DUP1 PUSH1 0x1F LT PUSH2 0x2019 JUMPI POP PUSH2 0x2036 JUMP JUMPDEST PUSH1 0x1F ADD PUSH1 0x20 SWAP1 DIV SWAP1 PUSH0 MSTORE PUSH1 0x20 PUSH0 KECCAK256 SWAP1 DUP2 ADD SWAP1 PUSH2 0x2035 SWAP2 SWAP1 PUSH2 0x2078 JUMP JUMPDEST JUMPDEST POP JUMP JUMPDEST POP DUP1 SLOAD PUSH0 DUP3 SSTORE SWAP1 PUSH0 MSTORE PUSH1 0x20 PUSH0 KECCAK256 SWAP1 DUP2 ADD SWAP1 PUSH2 0x2054 SWAP2 SWAP1 PUSH2 0x2093 JUMP JUMPDEST POP JUMP JUMPDEST POP DUP1 SLOAD PUSH0 DUP3 SSTORE PUSH1 0x6 MUL SWAP1 PUSH0 MSTORE PUSH1 0x20 PUSH0 KECCAK256 SWAP1 DUP2 ADD SWAP1 PUSH2 0x2075 SWAP2 SWAP1 PUSH2 0x20B6 JUMP JUMPDEST POP JUMP JUMPDEST JUMPDEST DUP1 DUP3 GT ISZERO PUSH2 0x208F JUMPI PUSH0 DUP2 PUSH0 SWAP1 SSTORE POP PUSH1 0x1 ADD PUSH2 0x2079 JUMP JUMPDEST POP SWAP1 JUMP JUMPDEST JUMPDEST DUP1 DUP3 GT ISZERO PUSH2 0x20B2 JUMPI PUSH0 DUP2 DUP2 PUSH2 0x20A9 SWAP2 SWAP1 PUSH2 0x1FFC JUMP JUMPDEST POP PUSH1 0x1 ADD PUSH2 0x2094 JUMP JUMPDEST POP SWAP1 JUMP JUMPDEST JUMPDEST DUP1 DUP3 GT ISZERO PUSH2 0x2129 JUMPI PUSH0 DUP1 DUP3 ADD PUSH0 PUSH2 0x20CE SWAP2 SWAP1 PUSH2 0x1FFC JUMP JUMPDEST PUSH1 0x1 DUP3 ADD PUSH0 PUSH2 0x20DD SWAP2 SWAP1 PUSH2 0x1FFC JUMP JUMPDEST PUSH1 0x2 DUP3 ADD PUSH0 SWAP1 SSTORE PUSH1 0x3 DUP3 ADD PUSH0 PUSH2 0x20F3 SWAP2 SWAP1 PUSH2 0x1FFC JUMP JUMPDEST PUSH1 0x4 DUP3 ADD PUSH0 PUSH2 0x100 EXP DUP2 SLOAD SWAP1 PUSH20 0xFFFFFFFFFFFFFFFFFFFFFFFFFFFFFFFFFFFFFFFF MUL NOT AND SWAP1 SSTORE PUSH1 0x5 DUP3 ADD PUSH0 SWAP1 SSTORE POP PUSH1 0x6 ADD PUSH2 0x20B7 JUMP JUMPDEST POP SWAP1 JUMP JUMPDEST PUSH0 DUP2 MLOAD SWAP1 POP SWAP2 SWAP1 POP JUMP JUMPDEST PUSH0 DUP3 DUP3 MSTORE PUSH1 0x20 DUP3 ADD SWAP1 POP SWAP3 SWAP2 POP POP JUMP JUMPDEST PUSH0 DUP2 SWAP1 POP PUSH1 0x20 DUP3 ADD SWAP1 POP SWAP2 SWAP1 POP JUMP JUMPDEST PUSH0 DUP2 MLOAD SWAP1 POP SWAP2 SWAP1 POP JUMP JUMPDEST PUSH0 DUP3 DUP3 MSTORE PUSH1 0x20 DUP3 ADD SWAP1 POP SWAP3 SWAP2 POP POP JUMP JUMPDEST DUP3 DUP2 DUP4 MCOPY PUSH0 DUP4 DUP4 ADD MSTORE POP POP POP JUMP JUMPDEST PUSH0 PUSH1 0x1F NOT PUSH1 0x1F DUP4 ADD AND SWAP1 POP SWAP2 SWAP1 POP JUMP JUMPDEST PUSH0 PUSH2 0x2198 DUP3 PUSH2 0x2156 JUMP JUMPDEST PUSH2 0x21A2 DUP2 DUP6 PUSH2 0x2160 JUMP JUMPDEST SWAP4 POP PUSH2 0x21B2 DUP2 DUP6 PUSH1 0x20 DUP7 ADD PUSH2 0x2170 JUMP JUMPDEST PUSH2 0x21BB DUP2 PUSH2 0x217E JUMP JUMPDEST DUP5 ADD SWAP2 POP POP SWAP3 SWAP2 POP POP JUMP JUMPDEST PUSH0 DUP2 SWAP1 POP SWAP2 SWAP1 POP JUMP JUMPDEST PUSH2 0x21D8 DUP2 PUSH2 0x21C6 JUMP JUMPDEST DUP3 MSTORE POP POP JUMP JUMPDEST PUSH0 PUSH1 0xA0 DUP4 ADD PUSH0 DUP4 ADD MLOAD DUP5 DUP3 SUB PUSH0 DUP7 ADD MSTORE PUSH2 0x21F8 DUP3 DUP3 PUSH2 0x218E JUMP JUMPDEST SWAP2 POP POP PUSH1 0x20 DUP4 ADD MLOAD DUP5 DUP3 SUB PUSH1 0x20 DUP7 ADD MSTORE PUSH2 0x2212 DUP3 DUP3 PUSH2 0x218E JUMP JUMPDEST SWAP2 POP POP PUSH1 0x40 DUP4 ADD MLOAD PUSH2 0x2227 PUSH1 0x40 DUP7 ADD DUP3 PUSH2 0x21CF JUMP JUMPDEST POP PUSH1 0x60 DUP4 ADD MLOAD DUP5 DUP3 SUB PUSH1 0x60 DUP7 ADD MSTORE PUSH2 0x223F DUP3 DUP3 PUSH2 0x218E JUMP JUMPDEST SWAP2 POP POP PUSH1 0x80 DUP4 ADD MLOAD PUSH2 0x2254 PUSH1 0x80 DUP7 ADD DUP3 PUSH2 0x21CF JUMP JUMPDEST POP DUP1 SWAP2 POP POP SWAP3 SWAP2 POP POP JUMP JUMPDEST PUSH0 PUSH2 0x226A DUP4 DUP4 PUSH2 0x21DE JUMP JUMPDEST SWAP1 POP SWAP3 SWAP2 POP POP JUMP JUMPDEST PUSH0 PUSH1 0x20 DUP3 ADD SWAP1 POP SWAP2 SWAP1 POP JUMP JUMPDEST PUSH0 PUSH2 0x2288 DUP3 PUSH2 0x212D JUMP JUMPDEST PUSH2 0x2292 DUP2 DUP6 PUSH2 0x2137 JUMP JUMPDEST SWAP4 POP DUP4 PUSH1 0x20 DUP3 MUL DUP6 ADD PUSH2 0x22A4 DUP6 PUSH2 0x2147 JUMP JUMPDEST DUP1 PUSH0 JUMPDEST DUP6 DUP2 LT ISZERO PUSH2 0x22DF JUMPI DUP5 DUP5 SUB DUP10 MSTORE DUP2 MLOAD PUSH2 0x22C0 DUP6 DUP3 PUSH2 0x225F JUMP JUMPDEST SWAP5 POP PUSH2 0x22CB DUP4 PUSH2 0x2272 JUMP JUMPDEST SWAP3 POP PUSH1 0x20 DUP11 ADD SWAP10 POP POP PUSH1 0x1 DUP2 ADD SWAP1 POP PUSH2 0x22A7 JUMP JUMPDEST POP DUP3 SWAP8 POP DUP8 SWAP6 POP POP POP POP POP POP SWAP3 SWAP2 POP POP JUMP JUMPDEST PUSH0 PUSH1 0x20 DUP3 ADD SWAP1 POP DUP2 DUP2 SUB PUSH0 DUP4 ADD MSTORE PUSH2 0x2309 DUP2 DUP5 PUSH2 0x227E JUMP JUMPDEST SWAP1 POP SWAP3 SWAP2 POP POP JUMP JUMPDEST PUSH0 DUP3 DUP3 MSTORE PUSH1 0x20 DUP3 ADD SWAP1 POP SWAP3 SWAP2 POP POP JUMP JUMPDEST PUSH0 PUSH2 0x232B DUP3 PUSH2 0x2156 JUMP JUMPDEST PUSH2 0x2335 DUP2 DUP6 PUSH2 0x2311 JUMP JUMPDEST SWAP4 POP PUSH2 0x2345 DUP2 DUP6 PUSH1 0x20 DUP7 ADD PUSH2 0x2170 JUMP JUMPDEST PUSH2 0x234E DUP2 PUSH2 0x217E JUMP JUMPDEST DUP5 ADD SWAP2 POP POP SWAP3 SWAP2 POP POP JUMP JUMPDEST PUSH0 PUSH1 0x20 DUP3 ADD SWAP1 POP DUP2 DUP2 SUB PUSH0 DUP4 ADD MSTORE PUSH2 0x2371 DUP2 DUP5 PUSH2 0x2321 JUMP JUMPDEST SWAP1 POP SWAP3 SWAP2 POP POP JUMP JUMPDEST PUSH0 PUSH1 0x40 MLOAD SWAP1 POP SWAP1 JUMP JUMPDEST PUSH0 DUP1 REVERT JUMPDEST PUSH0 DUP1 REVERT JUMPDEST PUSH0 DUP1 REVERT JUMPDEST PUSH32 0x4E487B7100000000000000000000000000000000000000000000000000000000 PUSH0 MSTORE PUSH1 0x41 PUSH1 0x4 MSTORE PUSH1 0x24 PUSH0 REVERT JUMPDEST PUSH2 0x23C4 DUP3 PUSH2 0x217E JUMP JUMPDEST DUP2 ADD DUP2 DUP2 LT PUSH8 0xFFFFFFFFFFFFFFFF DUP3 GT OR ISZERO PUSH2 0x23E3 JUMPI PUSH2 0x23E2 PUSH2 0x238E JUMP JUMPDEST JUMPDEST DUP1 PUSH1 0x40 MSTORE POP POP POP JUMP JUMPDEST PUSH0 PUSH2 0x23F5 PUSH2 0x2379 JUMP JUMPDEST SWAP1 POP PUSH2 0x2401 DUP3 DUP3 PUSH2 0x23BB JUMP JUMPDEST SWAP2 SWAP1 POP JUMP JUMPDEST PUSH0 PUSH8 0xFFFFFFFFFFFFFFFF DUP3 GT ISZERO PUSH2 0x2420 JUMPI PUSH2 0x241F PUSH2 0x238E JUMP JUMPDEST JUMPDEST PUSH1 0x20 DUP3 MUL SWAP1 POP PUSH1 0x20 DUP2 ADD SWAP1 POP SWAP2 SWAP1 POP JUMP JUMPDEST PUSH0 DUP1 REVERT JUMPDEST PUSH0 DUP1 REVERT JUMPDEST PUSH0 PUSH8 0xFFFFFFFFFFFFFFFF DUP3 GT ISZERO PUSH2 0x2453 JUMPI PUSH2 0x2452 PUSH2 0x238E JUMP JUMPDEST JUMPDEST PUSH2 0x245C DUP3 PUSH2 0x217E JUMP JUMPDEST SWAP1 POP PUSH1 0x20 DUP2 ADD SWAP1 POP SWAP2 SWAP1 POP JUMP JUMPDEST DUP3 DUP2 DUP4 CALLDATACOPY PUSH0 DUP4 DUP4 ADD MSTORE POP POP POP JUMP JUMPDEST PUSH0 PUSH2 0x2489 PUSH2 0x2484 DUP5 PUSH2 0x2439 JUMP JUMPDEST PUSH2 0x23EC JUMP JUMPDEST SWAP1 POP DUP3 DUP2 MSTORE PUSH1 0x20 DUP2 ADD DUP5 DUP5 DUP5 ADD GT ISZERO PUSH2 0x24A5 JUMPI PUSH2 0x24A4 PUSH2 0x2435 JUMP JUMPDEST JUMPDEST PUSH2 0x24B0 DUP5 DUP3 DUP6 PUSH2 0x2469 JUMP JUMPDEST POP SWAP4 SWAP3 POP POP POP JUMP JUMPDEST PUSH0 DUP3 PUSH1 0x1F DUP4 ADD SLT PUSH2 0x24CC JUMPI PUSH2 0x24CB PUSH2 0x238A JUMP JUMPDEST JUMPDEST DUP2 CALLDATALOAD PUSH2 0x24DC DUP5 DUP3 PUSH1 0x20 DUP7 ADD PUSH2 0x2477 JUMP JUMPDEST SWAP2 POP POP SWAP3 SWAP2 POP POP JUMP JUMPDEST PUSH0 PUSH2 0x24F7 PUSH2 0x24F2 DUP5 PUSH2 0x2406 JUMP JUMPDEST PUSH2 0x23EC JUMP JUMPDEST SWAP1 POP DUP1 DUP4 DUP3 MSTORE PUSH1 0x20 DUP3 ADD SWAP1 POP PUSH1 0x20 DUP5 MUL DUP4 ADD DUP6 DUP2 GT ISZERO PUSH2 0x251A JUMPI PUSH2 0x2519 PUSH2 0x2431 JUMP JUMPDEST JUMPDEST DUP4 JUMPDEST DUP2 DUP2 LT ISZERO PUSH2 0x2561 JUMPI DUP1 CALLDATALOAD PUSH8 0xFFFFFFFFFFFFFFFF DUP2 GT ISZERO PUSH2 0x253F JUMPI PUSH2 0x253E PUSH2 0x238A JUMP JUMPDEST JUMPDEST DUP1 DUP7 ADD PUSH2 0x254C DUP10 DUP3 PUSH2 0x24B8 JUMP JUMPDEST DUP6 MSTORE PUSH1 0x20 DUP6 ADD SWAP5 POP POP POP PUSH1 0x20 DUP2 ADD SWAP1 POP PUSH2 0x251C JUMP JUMPDEST POP POP POP SWAP4 SWAP3 POP POP POP JUMP JUMPDEST PUSH0 DUP3 PUSH1 0x1F DUP4 ADD SLT PUSH2 0x257F JUMPI PUSH2 0x257E PUSH2 0x238A JUMP JUMPDEST JUMPDEST DUP2 CALLDATALOAD PUSH2 0x258F DUP5 DUP3 PUSH1 0x20 DUP7 ADD PUSH2 0x24E5 JUMP JUMPDEST SWAP2 POP POP SWAP3 SWAP2 POP POP JUMP JUMPDEST PUSH0 PUSH1 0x20 DUP3 DUP5 SUB SLT ISZERO PUSH2 0x25AD JUMPI PUSH2 0x25AC PUSH2 0x2382 JUMP JUMPDEST JUMPDEST PUSH0 DUP3 ADD CALLDATALOAD PUSH8 0xFFFFFFFFFFFFFFFF DUP2 GT ISZERO PUSH2 0x25CA JUMPI PUSH2 0x25C9 PUSH2 0x2386 JUMP JUMPDEST JUMPDEST PUSH2 0x25D6 DUP5 DUP3 DUP6 ADD PUSH2 0x256B JUMP JUMPDEST SWAP2 POP POP SWAP3 SWAP2 POP POP JUMP JUMPDEST PUSH0 DUP3 DUP3 MSTORE PUSH1 0x20 DUP3 ADD SWAP1 POP SWAP3 SWAP2 POP POP JUMP JUMPDEST PUSH0 PUSH2 0x25F9 DUP3 PUSH2 0x212D JUMP JUMPDEST PUSH2 0x2603 DUP2 DUP6 PUSH2 0x25DF JUMP JUMPDEST SWAP4 POP DUP4 PUSH1 0x20 DUP3 MUL DUP6 ADD PUSH2 0x2615 DUP6 PUSH2 0x2147 JUMP JUMPDEST DUP1 PUSH0 JUMPDEST DUP6 DUP2 LT ISZERO PUSH2 0x2650 JUMPI DUP5 DUP5 SUB DUP10 MSTORE DUP2 MLOAD PUSH2 0x2631 DUP6 DUP3 PUSH2 0x225F JUMP JUMPDEST SWAP5 POP PUSH2 0x263C DUP4 PUSH2 0x2272 JUMP JUMPDEST SWAP3 POP PUSH1 0x20 DUP11 ADD SWAP10 POP POP PUSH1 0x1 DUP2 ADD SWAP1 POP PUSH2 0x2618 JUMP JUMPDEST POP DUP3 SWAP8 POP DUP8 SWAP6 POP POP POP POP POP POP SWAP3 SWAP2 POP POP JUMP JUMPDEST PUSH0 DUP2 MLOAD SWAP1 POP SWAP2 SWAP1 POP JUMP JUMPDEST PUSH0 DUP3 DUP3 MSTORE PUSH1 0x20 DUP3 ADD SWAP1 POP SWAP3 SWAP2 POP POP JUMP JUMPDEST PUSH0 DUP2 SWAP1 POP PUSH1 0x20 DUP3 ADD SWAP1 POP SWAP2 SWAP1 POP JUMP JUMPDEST PUSH0 PUSH2 0x2696 DUP4 DUP4 PUSH2 0x218E JUMP JUMPDEST SWAP1 POP SWAP3 SWAP2 POP POP JUMP JUMPDEST PUSH0 PUSH1 0x20 DUP3 ADD SWAP1 POP SWAP2 SWAP1 POP JUMP JUMPDEST PUSH0 PUSH2 0x26B4 DUP3 PUSH2 0x2662 JUMP JUMPDEST PUSH2 0x26BE DUP2 DUP6 PUSH2 0x266C JUMP JUMPDEST SWAP4 POP DUP4 PUSH1 0x20 DUP3 MUL DUP6 ADD PUSH2 0x26D0 DUP6 PUSH2 0x267C JUMP JUMPDEST DUP1 PUSH0 JUMPDEST DUP6 DUP2 LT ISZERO PUSH2 0x270B JUMPI DUP5 DUP5 SUB DUP10 MSTORE DUP2 MLOAD PUSH2 0x26EC DUP6 DUP3 PUSH2 0x268B JUMP JUMPDEST SWAP5 POP PUSH2 0x26F7 DUP4 PUSH2 0x269E JUMP JUMPDEST SWAP3 POP PUSH1 0x20 DUP11 ADD SWAP10 POP POP PUSH1 0x1 DUP2 ADD SWAP1 POP PUSH2 0x26D3 JUMP JUMPDEST POP DUP3 SWAP8 POP DUP8 SWAP6 POP POP POP POP POP POP SWAP3 SWAP2 POP POP JUMP JUMPDEST PUSH0 PUSH1 0xA0 DUP4 ADD PUSH0 DUP4 ADD MLOAD DUP5 DUP3 SUB PUSH0 DUP7 ADD MSTORE PUSH2 0x2737 DUP3 DUP3 PUSH2 0x218E JUMP JUMPDEST SWAP2 POP POP PUSH1 0x20 DUP4 ADD MLOAD PUSH2 0x274C PUSH1 0x20 DUP7 ADD DUP3 PUSH2 0x21CF JUMP JUMPDEST POP PUSH1 0x40 DUP4 ADD MLOAD DUP5 DUP3 SUB PUSH1 0x40 DUP7 ADD MSTORE PUSH2 0x2764 DUP3 DUP3 PUSH2 0x25EF JUMP JUMPDEST SWAP2 POP POP PUSH1 0x60 DUP4 ADD MLOAD DUP5 DUP3 SUB PUSH1 0x60 DUP7 ADD MSTORE PUSH2 0x277E DUP3 DUP3 PUSH2 0x26AA JUMP JUMPDEST SWAP2 POP POP PUSH1 0x80 DUP4 ADD MLOAD DUP5 DUP3 SUB PUSH1 0x80 DUP7 ADD MSTORE PUSH2 0x2798 DUP3 DUP3 PUSH2 0x25EF JUMP JUMPDEST SWAP2 POP POP DUP1 SWAP2 POP POP SWAP3 SWAP2 POP POP JUMP JUMPDEST PUSH0 PUSH1 0x20 DUP3 ADD SWAP1 POP DUP2 DUP2 SUB PUSH0 DUP4 ADD MSTORE PUSH2 0x27BD DUP2 DUP5 PUSH2 0x271D JUMP JUMPDEST SWAP1 POP SWAP3 SWAP2 POP POP JUMP JUMPDEST PUSH0 DUP1 PUSH1 0x40 DUP4 DUP6 SUB SLT ISZERO PUSH2 0x27DB JUMPI PUSH2 0x27DA PUSH2 0x2382 JUMP JUMPDEST JUMPDEST PUSH0 DUP4 ADD CALLDATALOAD PUSH8 0xFFFFFFFFFFFFFFFF DUP2 GT ISZERO PUSH2 0x27F8 JUMPI PUSH2 0x27F7 PUSH2 0x2386 JUMP JUMPDEST JUMPDEST PUSH2 0x2804 DUP6 DUP3 DUP7 ADD PUSH2 0x256B JUMP JUMPDEST SWAP3 POP POP PUSH1 0x20 DUP4 ADD CALLDATALOAD PUSH8 0xFFFFFFFFFFFFFFFF DUP2 GT ISZERO PUSH2 0x2825 JUMPI PUSH2 0x2824 PUSH2 0x2386 JUMP JUMPDEST JUMPDEST PUSH2 0x2831 DUP6 DUP3 DUP7 ADD PUSH2 0x24B8 JUMP JUMPDEST SWAP2 POP POP SWAP3 POP SWAP3 SWAP1 POP JUMP JUMPDEST PUSH2 0x2844 DUP2 PUSH2 0x21C6 JUMP JUMPDEST DUP2 EQ PUSH2 0x284E JUMPI PUSH0 DUP1 REVERT JUMPDEST POP JUMP JUMPDEST PUSH0 DUP2 CALLDATALOAD SWAP1 POP PUSH2 0x285F DUP2 PUSH2 0x283B JUMP JUMPDEST SWAP3 SWAP2 POP POP JUMP JUMPDEST PUSH0 DUP1 PUSH0 DUP1 PUSH0 DUP1 PUSH1 0xC0 DUP8 DUP10 SUB SLT ISZERO PUSH2 0x287F JUMPI PUSH2 0x287E PUSH2 0x2382 JUMP JUMPDEST JUMPDEST PUSH0 DUP8 ADD CALLDATALOAD PUSH8 0xFFFFFFFFFFFFFFFF DUP2 GT ISZERO PUSH2 0x289C JUMPI PUSH2 0x289B PUSH2 0x2386 JUMP JUMPDEST JUMPDEST PUSH2 0x28A8 DUP10 DUP3 DUP11 ADD PUSH2 0x256B JUMP JUMPDEST SWAP7 POP POP PUSH1 0x20 DUP8 ADD CALLDATALOAD PUSH8 0xFFFFFFFFFFFFFFFF DUP2 GT ISZERO PUSH2 0x28C9 JUMPI PUSH2 0x28C8 PUSH2 0x2386 JUMP JUMPDEST JUMPDEST PUSH2 0x28D5 DUP10 DUP3 DUP11 ADD PUSH2 0x24B8 JUMP JUMPDEST SWAP6 POP POP PUSH1 0x40 DUP8 ADD CALLDATALOAD PUSH8 0xFFFFFFFFFFFFFFFF DUP2 GT ISZERO PUSH2 0x28F6 JUMPI PUSH2 0x28F5 PUSH2 0x2386 JUMP JUMPDEST JUMPDEST PUSH2 0x2902 DUP10 DUP3 DUP11 ADD PUSH2 0x24B8 JUMP JUMPDEST SWAP5 POP POP PUSH1 0x60 PUSH2 0x2913 DUP10 DUP3 DUP11 ADD PUSH2 0x2851 JUMP JUMPDEST SWAP4 POP POP PUSH1 0x80 DUP8 ADD CALLDATALOAD PUSH8 0xFFFFFFFFFFFFFFFF DUP2 GT ISZERO PUSH2 0x2934 JUMPI PUSH2 0x2933 PUSH2 0x2386 JUMP JUMPDEST JUMPDEST PUSH2 0x2940 DUP10 DUP3 DUP11 ADD PUSH2 0x24B8 JUMP JUMPDEST SWAP3 POP POP PUSH1 0xA0 DUP8 ADD CALLDATALOAD PUSH8 0xFFFFFFFFFFFFFFFF DUP2 GT ISZERO PUSH2 0x2961 JUMPI PUSH2 0x2960 PUSH2 0x2386 JUMP JUMPDEST JUMPDEST PUSH2 0x296D DUP10 DUP3 DUP11 ADD PUSH2 0x24B8 JUMP JUMPDEST SWAP2 POP POP SWAP3 SWAP6 POP SWAP3 SWAP6 POP SWAP3 SWAP6 JUMP JUMPDEST PUSH0 PUSH20 0xFFFFFFFFFFFFFFFFFFFFFFFFFFFFFFFFFFFFFFFF DUP3 AND SWAP1 POP SWAP2 SWAP1 POP JUMP JUMPDEST PUSH0 PUSH2 0x29A3 DUP3 PUSH2 0x297A JUMP JUMPDEST SWAP1 POP SWAP2 SWAP1 POP JUMP JUMPDEST PUSH2 0x29B3 DUP2 PUSH2 0x2999 JUMP JUMPDEST DUP2 EQ PUSH2 0x29BD JUMPI PUSH0 DUP1 REVERT JUMPDEST POP JUMP JUMPDEST PUSH0 DUP2 CALLDATALOAD SWAP1 POP PUSH2 0x29CE DUP2 PUSH2 0x29AA JUMP JUMPDEST SWAP3 SWAP2 POP POP JUMP JUMPDEST PUSH0 DUP1 PUSH0 PUSH1 0x60 DUP5 DUP7 SUB SLT ISZERO PUSH2 0x29EB JUMPI PUSH2 0x29EA PUSH2 0x2382 JUMP JUMPDEST JUMPDEST PUSH0 DUP5 ADD CALLDATALOAD PUSH8 0xFFFFFFFFFFFFFFFF DUP2 GT ISZERO PUSH2 0x2A08 JUMPI PUSH2 0x2A07 PUSH2 0x2386 JUMP JUMPDEST JUMPDEST PUSH2 0x2A14 DUP7 DUP3 DUP8 ADD PUSH2 0x256B JUMP JUMPDEST SWAP4 POP POP PUSH1 0x20 DUP5 ADD CALLDATALOAD PUSH8 0xFFFFFFFFFFFFFFFF DUP2 GT ISZERO PUSH2 0x2A35 JUMPI PUSH2 0x2A34 PUSH2 0x2386 JUMP JUMPDEST JUMPDEST PUSH2 0x2A41 DUP7 DUP3 DUP8 ADD PUSH2 0x24B8 JUMP JUMPDEST SWAP3 POP POP PUSH1 0x40 PUSH2 0x2A52 DUP7 DUP3 DUP8 ADD PUSH2 0x29C0 JUMP JUMPDEST SWAP2 POP POP SWAP3 POP SWAP3 POP SWAP3 JUMP JUMPDEST PUSH0 DUP1 PUSH0 DUP1 PUSH0 PUSH1 0xA0 DUP7 DUP9 SUB SLT ISZERO PUSH2 0x2A75 JUMPI PUSH2 0x2A74 PUSH2 0x2382 JUMP JUMPDEST JUMPDEST PUSH0 DUP7 ADD CALLDATALOAD PUSH8 0xFFFFFFFFFFFFFFFF DUP2 GT ISZERO PUSH2 0x2A92 JUMPI PUSH2 0x2A91 PUSH2 0x2386 JUMP JUMPDEST JUMPDEST PUSH2 0x2A9E DUP9 DUP3 DUP10 ADD PUSH2 0x256B JUMP JUMPDEST SWAP6 POP POP PUSH1 0x20 DUP7 ADD CALLDATALOAD PUSH8 0xFFFFFFFFFFFFFFFF DUP2 GT ISZERO PUSH2 0x2ABF JUMPI PUSH2 0x2ABE PUSH2 0x2386 JUMP JUMPDEST JUMPDEST PUSH2 0x2ACB DUP9 DUP3 DUP10 ADD PUSH2 0x24B8 JUMP JUMPDEST SWAP5 POP POP PUSH1 0x40 DUP7 ADD CALLDATALOAD PUSH8 0xFFFFFFFFFFFFFFFF DUP2 GT ISZERO PUSH2 0x2AEC JUMPI PUSH2 0x2AEB PUSH2 0x2386 JUMP JUMPDEST JUMPDEST PUSH2 0x2AF8 DUP9 DUP3 DUP10 ADD PUSH2 0x24B8 JUMP JUMPDEST SWAP4 POP POP PUSH1 0x60 PUSH2 0x2B09 DUP9 DUP3 DUP10 ADD PUSH2 0x2851 JUMP JUMPDEST SWAP3 POP POP PUSH1 0x80 DUP7 ADD CALLDATALOAD PUSH8 0xFFFFFFFFFFFFFFFF DUP2 GT ISZERO PUSH2 0x2B2A JUMPI PUSH2 0x2B29 PUSH2 0x2386 JUMP JUMPDEST JUMPDEST PUSH2 0x2B36 DUP9 DUP3 DUP10 ADD PUSH2 0x24B8 JUMP JUMPDEST SWAP2 POP POP SWAP3 SWAP6 POP SWAP3 SWAP6 SWAP1 SWAP4 POP JUMP JUMPDEST PUSH32 0x4E487B7100000000000000000000000000000000000000000000000000000000 PUSH0 MSTORE PUSH1 0x32 PUSH1 0x4 MSTORE PUSH1 0x24 PUSH0 REVERT JUMPDEST PUSH32 0x4E487B7100000000000000000000000000000000000000000000000000000000 PUSH0 MSTORE PUSH1 0x22 PUSH1 0x4 MSTORE PUSH1 0x24 PUSH0 REVERT JUMPDEST PUSH0 PUSH1 0x2 DUP3 DIV SWAP1 POP PUSH1 0x1 DUP3 AND DUP1 PUSH2 0x2BB4 JUMPI PUSH1 0x7F DUP3 AND SWAP2 POP JUMPDEST PUSH1 0x20 DUP3 LT DUP2 SUB PUSH2 0x2BC7 JUMPI PUSH2 0x2BC6 PUSH2 0x2B70 JUMP JUMPDEST JUMPDEST POP SWAP2 SWAP1 POP JUMP JUMPDEST PUSH0 DUP2 SWAP1 POP SWAP3 SWAP2 POP POP JUMP JUMPDEST PUSH0 PUSH2 0x2BE1 DUP3 PUSH2 0x2156 JUMP JUMPDEST PUSH2 0x2BEB DUP2 DUP6 PUSH2 0x2BCD JUMP JUMPDEST SWAP4 POP PUSH2 0x2BFB DUP2 DUP6 PUSH1 0x20 DUP7 ADD PUSH2 0x2170 JUMP JUMPDEST DUP1 DUP5 ADD SWAP2 POP POP SWAP3 SWAP2 POP POP JUMP JUMPDEST PUSH0 PUSH2 0x2C12 DUP3 DUP5 PUSH2 0x2BD7 JUMP JUMPDEST SWAP2 POP DUP2 SWAP1 POP SWAP3 SWAP2 POP POP JUMP JUMPDEST PUSH32 0x466F6C64657220646F6573206E6F742065786973740000000000000000000000 PUSH0 DUP3 ADD MSTORE POP JUMP JUMPDEST PUSH0 PUSH2 0x2C51 PUSH1 0x15 DUP4 PUSH2 0x2311 JUMP JUMPDEST SWAP2 POP PUSH2 0x2C5C DUP3 PUSH2 0x2C1D JUMP JUMPDEST PUSH1 0x20 DUP3 ADD SWAP1 POP SWAP2 SWAP1 POP JUMP JUMPDEST PUSH0 PUSH1 0x20 DUP3 ADD SWAP1 POP DUP2 DUP2 SUB PUSH0 DUP4 ADD MSTORE PUSH2 0x2C7E DUP2 PUSH2 0x2C45 JUMP JUMPDEST SWAP1 POP SWAP2 SWAP1 POP JUMP JUMPDEST PUSH32 0x4974656D20646F6573206E6F7420657869737400000000000000000000000000 PUSH0 DUP3 ADD MSTORE POP JUMP JUMPDEST PUSH0 PUSH2 0x2CB9 PUSH1 0x13 DUP4 PUSH2 0x2311 JUMP JUMPDEST SWAP2 POP PUSH2 0x2CC4 DUP3 PUSH2 0x2C85 JUMP JUMPDEST PUSH1 0x20 DUP3 ADD SWAP1 POP SWAP2 SWAP1 POP JUMP JUMPDEST PUSH0 PUSH1 0x20 DUP3 ADD SWAP1 POP DUP2 DUP2 SUB PUSH0 DUP4 ADD MSTORE PUSH2 0x2CE6 DUP2 PUSH2 0x2CAD JUMP JUMPDEST SWAP1 POP SWAP2 SWAP1 POP JUMP JUMPDEST PUSH0 DUP2 SWAP1 POP SWAP3 SWAP2 POP POP JUMP JUMPDEST PUSH0 DUP2 SWAP1 POP DUP2 PUSH0 MSTORE PUSH1 0x20 PUSH0 KECCAK256 SWAP1 POP SWAP2 SWAP1 POP JUMP JUMPDEST PUSH0 DUP2 SLOAD PUSH2 0x2D15 DUP2 PUSH2 0x2B9D JUMP JUMPDEST PUSH2 0x2D1F DUP2 DUP7 PUSH2 0x2CED JUMP JUMPDEST SWAP5 POP PUSH1 0x1 DUP3 AND PUSH0 DUP2 EQ PUSH2 0x2D39 JUMPI PUSH1 0x1 DUP2 EQ PUSH2 0x2D4E JUMPI PUSH2 0x2D80 JUMP JUMPDEST PUSH1 0xFF NOT DUP4 AND DUP7 MSTORE DUP2 ISZERO ISZERO DUP3 MUL DUP7 ADD SWAP4 POP PUSH2 0x2D80 JUMP JUMPDEST PUSH2 0x2D57 DUP6 PUSH2 0x2CF7 JUMP JUMPDEST PUSH0 JUMPDEST DUP4 DUP2 LT ISZERO PUSH2 0x2D78 JUMPI DUP2 SLOAD DUP2 DUP10 ADD MSTORE PUSH1 0x1 DUP3 ADD SWAP2 POP PUSH1 0x20 DUP2 ADD SWAP1 POP PUSH2 0x2D59 JUMP JUMPDEST DUP4 DUP9 ADD SWAP6 POP POP POP JUMPDEST POP POP POP SWAP3 SWAP2 POP POP JUMP JUMPDEST PUSH0 PUSH2 0x2D94 DUP3 DUP5 PUSH2 0x2D09 JUMP JUMPDEST SWAP2 POP DUP2 SWAP1 POP SWAP3 SWAP2 POP POP JUMP JUMPDEST PUSH32 0x4E487B7100000000000000000000000000000000000000000000000000000000 PUSH0 MSTORE PUSH1 0x11 PUSH1 0x4 MSTORE PUSH1 0x24 PUSH0 REVERT JUMPDEST PUSH0 PUSH2 0x2DD6 DUP3 PUSH2 0x21C6 JUMP JUMPDEST SWAP2 POP PUSH2 0x2DE1 DUP4 PUSH2 0x21C6 JUMP JUMPDEST SWAP3 POP DUP3 DUP3 SUB SWAP1 POP DUP2 DUP2 GT ISZERO PUSH2 0x2DF9 JUMPI PUSH2 0x2DF8 PUSH2 0x2D9F JUMP JUMPDEST JUMPDEST SWAP3 SWAP2 POP POP JUMP JUMPDEST PUSH0 DUP2 SLOAD SWAP1 POP PUSH2 0x2E0D DUP2 PUSH2 0x2B9D JUMP JUMPDEST SWAP1 POP SWAP2 SWAP1 POP JUMP JUMPDEST PUSH0 DUP2 SWAP1 POP DUP2 PUSH0 MSTORE PUSH1 0x20 PUSH0 KECCAK256 SWAP1 POP SWAP2 SWAP1 POP JUMP JUMPDEST PUSH0 DUP2 SWAP1 POP DUP2 PUSH0 MSTORE PUSH1 0x20 PUSH0 KECCAK256 SWAP1 POP SWAP2 SWAP1 POP JUMP JUMPDEST PUSH0 PUSH1 0x20 PUSH1 0x1F DUP4 ADD DIV SWAP1 POP SWAP2 SWAP1 POP JUMP JUMPDEST PUSH0 DUP3 DUP3 SHL SWAP1 POP SWAP3 SWAP2 POP POP JUMP JUMPDEST PUSH0 PUSH1 0x8 DUP4 MUL PUSH2 0x2E82 PUSH32 0xFFFFFFFFFFFFFFFFFFFFFFFFFFFFFFFFFFFFFFFFFFFFFFFFFFFFFFFFFFFFFFFF DUP3 PUSH2 0x2E47 JUMP JUMPDEST PUSH2 0x2E8C DUP7 DUP4 PUSH2 0x2E47 JUMP JUMPDEST SWAP6 POP DUP1 NOT DUP5 AND SWAP4 POP DUP1 DUP7 AND DUP5 OR SWAP3 POP POP POP SWAP4 SWAP3 POP POP POP JUMP JUMPDEST PUSH0 DUP2 SWAP1 POP SWAP2 SWAP1 POP JUMP JUMPDEST PUSH0 PUSH2 0x2EC7 PUSH2 0x2EC2 PUSH2 0x2EBD DUP5 PUSH2 0x21C6 JUMP JUMPDEST PUSH2 0x2EA4 JUMP JUMPDEST PUSH2 0x21C6 JUMP JUMPDEST SWAP1 POP SWAP2 SWAP1 POP JUMP JUMPDEST PUSH0 DUP2 SWAP1 POP SWAP2 SWAP1 POP JUMP JUMPDEST PUSH2 0x2EE0 DUP4 PUSH2 0x2EAD JUMP JUMPDEST PUSH2 0x2EF4 PUSH2 0x2EEC DUP3 PUSH2 0x2ECE JUMP JUMPDEST DUP5 DUP5 SLOAD PUSH2 0x2E53 JUMP JUMPDEST DUP3 SSTORE POP POP POP POP JUMP JUMPDEST PUSH0 SWAP1 JUMP JUMPDEST PUSH2 0x2F08 PUSH2 0x2EFC JUMP JUMPDEST PUSH2 0x2F13 DUP2 DUP5 DUP5 PUSH2 0x2ED7 JUMP JUMPDEST POP POP POP JUMP JUMPDEST JUMPDEST DUP2 DUP2 LT ISZERO PUSH2 0x2F36 JUMPI PUSH2 0x2F2B PUSH0 DUP3 PUSH2 0x2F00 JUMP JUMPDEST PUSH1 0x1 DUP2 ADD SWAP1 POP PUSH2 0x2F19 JUMP JUMPDEST POP POP JUMP JUMPDEST PUSH1 0x1F DUP3 GT ISZERO PUSH2 0x2F7B JUMPI PUSH2 0x2F4C DUP2 PUSH2 0x2E14 JUMP JUMPDEST PUSH2 0x2F55 DUP5 PUSH2 0x2E38 JUMP JUMPDEST DUP2 ADD PUSH1 0x20 DUP6 LT ISZERO PUSH2 0x2F64 JUMPI DUP2 SWAP1 POP JUMPDEST PUSH2 0x2F78 PUSH2 0x2F70 DUP6 PUSH2 0x2E38 JUMP JUMPDEST DUP4 ADD DUP3 PUSH2 0x2F18 JUMP JUMPDEST POP POP JUMPDEST POP POP POP JUMP JUMPDEST PUSH0 DUP3 DUP3 SHR SWAP1 POP SWAP3 SWAP2 POP POP JUMP JUMPDEST PUSH0 PUSH2 0x2F9B PUSH0 NOT DUP5 PUSH1 0x8 MUL PUSH2 0x2F80 JUMP JUMPDEST NOT DUP1 DUP4 AND SWAP2 POP POP SWAP3 SWAP2 POP POP JUMP JUMPDEST PUSH0 PUSH2 0x2FB3 DUP4 DUP4 PUSH2 0x2F8C JUMP JUMPDEST SWAP2 POP DUP3 PUSH1 0x2 MUL DUP3 OR SWAP1 POP SWAP3 SWAP2 POP POP JUMP JUMPDEST DUP2 DUP2 SUB PUSH2 0x2FD1 JUMPI POP POP PUSH2 0x30A6 JUMP JUMPDEST PUSH2 0x2FDA DUP3 PUSH2 0x2DFF JUMP JUMPDEST PUSH8 0xFFFFFFFFFFFFFFFF DUP2 GT ISZERO PUSH2 0x2FF3 JUMPI PUSH2 0x2FF2 PUSH2 0x238E JUMP JUMPDEST JUMPDEST PUSH2 0x2FFD DUP3 SLOAD PUSH2 0x2B9D JUMP JUMPDEST PUSH2 0x3008 DUP3 DUP3 DUP6 PUSH2 0x2F3A JUMP JUMPDEST PUSH0 PUSH1 0x1F DUP4 GT PUSH1 0x1 DUP2 EQ PUSH2 0x3035 JUMPI PUSH0 DUP5 ISZERO PUSH2 0x3023 JUMPI DUP3 DUP8 ADD SLOAD SWAP1 POP JUMPDEST PUSH2 0x302D DUP6 DUP3 PUSH2 0x2FA8 JUMP JUMPDEST DUP7 SSTORE POP PUSH2 0x309F JUMP JUMPDEST PUSH1 0x1F NOT DUP5 AND PUSH2 0x3043 DUP8 PUSH2 0x2E26 JUMP JUMPDEST SWAP7 POP PUSH2 0x304E DUP7 PUSH2 0x2E14 JUMP JUMPDEST PUSH0 JUMPDEST DUP3 DUP2 LT ISZERO PUSH2 0x3075 JUMPI DUP5 DUP10 ADD SLOAD DUP3 SSTORE PUSH1 0x1 DUP3 ADD SWAP2 POP PUSH1 0x1 DUP6 ADD SWAP5 POP PUSH1 0x20 DUP2 ADD SWAP1 POP PUSH2 0x3050 JUMP JUMPDEST DUP7 DUP4 LT ISZERO PUSH2 0x3092 JUMPI DUP5 DUP10 ADD SLOAD PUSH2 0x308E PUSH1 0x1F DUP10 AND DUP3 PUSH2 0x2F8C JUMP JUMPDEST DUP4 SSTORE POP JUMPDEST PUSH1 0x1 PUSH1 0x2 DUP9 MUL ADD DUP9 SSTORE POP POP POP JUMPDEST POP POP POP POP POP POP JUMPDEST JUMP JUMPDEST PUSH32 0x4E487B7100000000000000000000000000000000000000000000000000000000 PUSH0 MSTORE PUSH1 0x31 PUSH1 0x4 MSTORE PUSH1 0x24 PUSH0 REVERT JUMPDEST PUSH32 0x466F6C64657220616C7265616479206578697374730000000000000000000000 PUSH0 DUP3 ADD MSTORE POP JUMP JUMPDEST PUSH0 PUSH2 0x3109 PUSH1 0x15 DUP4 PUSH2 0x2311 JUMP JUMPDEST SWAP2 POP PUSH2 0x3114 DUP3 PUSH2 0x30D5 JUMP JUMPDEST PUSH1 0x20 DUP3 ADD SWAP1 POP SWAP2 SWAP1 POP JUMP JUMPDEST PUSH0 PUSH1 0x20 DUP3 ADD SWAP1 POP DUP2 DUP2 SUB PUSH0 DUP4 ADD MSTORE PUSH2 0x3136 DUP2 PUSH2 0x30FD JUMP JUMPDEST SWAP1 POP SWAP2 SWAP1 POP JUMP JUMPDEST PUSH32 0x412066696C652077697468207468652073616D65206E616D6520616C72656164 PUSH0 DUP3 ADD MSTORE PUSH32 0x7920657869737473000000000000000000000000000000000000000000000000 PUSH1 0x20 DUP3 ADD MSTORE POP JUMP JUMPDEST PUSH0 PUSH2 0x3197 PUSH1 0x28 DUP4 PUSH2 0x2311 JUMP JUMPDEST SWAP2 POP PUSH2 0x31A2 DUP3 PUSH2 0x313D JUMP JUMPDEST PUSH1 0x40 DUP3 ADD SWAP1 POP SWAP2 SWAP1 POP JUMP JUMPDEST PUSH0 PUSH1 0x20 DUP3 ADD SWAP1 POP DUP2 DUP2 SUB PUSH0 DUP4 ADD MSTORE PUSH2 0x31C4 DUP2 PUSH2 0x318B JUMP JUMPDEST SWAP1 POP SWAP2 SWAP1 POP JUMP JUMPDEST PUSH2 0x31D4 DUP3 PUSH2 0x2156 JUMP JUMPDEST PUSH8 0xFFFFFFFFFFFFFFFF DUP2 GT ISZERO PUSH2 0x31ED JUMPI PUSH2 0x31EC PUSH2 0x238E JUMP JUMPDEST JUMPDEST PUSH2 0x31F7 DUP3 SLOAD PUSH2 0x2B9D JUMP JUMPDEST PUSH2 0x3202 DUP3 DUP3 DUP6 PUSH2 0x2F3A JUMP JUMPDEST PUSH0 PUSH1 0x20 SWAP1 POP PUSH1 0x1F DUP4 GT PUSH1 0x1 DUP2 EQ PUSH2 0x3233 JUMPI PUSH0 DUP5 ISZERO PUSH2 0x3221 JUMPI DUP3 DUP8 ADD MLOAD SWAP1 POP JUMPDEST PUSH2 0x322B DUP6 DUP3 PUSH2 0x2FA8 JUMP JUMPDEST DUP7 SSTORE POP PUSH2 0x3292 JUMP JUMPDEST PUSH1 0x1F NOT DUP5 AND PUSH2 0x3241 DUP7 PUSH2 0x2E14 JUMP JUMPDEST PUSH0 JUMPDEST DUP3 DUP2 LT ISZERO PUSH2 0x3268 JUMPI DUP5 DUP10 ADD MLOAD DUP3 SSTORE PUSH1 0x1 DUP3 ADD SWAP2 POP PUSH1 0x20 DUP6 ADD SWAP5 POP PUSH1 0x20 DUP2 ADD SWAP1 POP PUSH2 0x3243 JUMP JUMPDEST DUP7 DUP4 LT ISZERO PUSH2 0x3285 JUMPI DUP5 DUP10 ADD MLOAD PUSH2 0x3281 PUSH1 0x1F DUP10 AND DUP3 PUSH2 0x2F8C JUMP JUMPDEST DUP4 SSTORE POP JUMPDEST PUSH1 0x1 PUSH1 0x2 DUP9 MUL ADD DUP9 SSTORE POP POP POP JUMPDEST POP POP POP POP POP POP JUMP JUMPDEST PUSH32 0x46696C6520646F6573206E6F7420657869737400000000000000000000000000 PUSH0 DUP3 ADD MSTORE POP JUMP JUMPDEST PUSH0 PUSH2 0x32CE PUSH1 0x13 DUP4 PUSH2 0x2311 JUMP JUMPDEST SWAP2 POP PUSH2 0x32D9 DUP3 PUSH2 0x329A JUMP JUMPDEST PUSH1 0x20 DUP3 ADD SWAP1 POP SWAP2 SWAP1 POP JUMP JUMPDEST PUSH0 PUSH1 0x20 DUP3 ADD SWAP1 POP DUP2 DUP2 SUB PUSH0 DUP4 ADD MSTORE PUSH2 0x32FB DUP2 PUSH2 0x32C2 JUMP JUMPDEST SWAP1 POP SWAP2 SWAP1 POP JUMP JUMPDEST PUSH32 0x4E65772066696C65206E616D6520616C72656164792065786973747300000000 PUSH0 DUP3 ADD MSTORE POP JUMP JUMPDEST PUSH0 PUSH2 0x3336 PUSH1 0x1C DUP4 PUSH2 0x2311 JUMP JUMPDEST SWAP2 POP PUSH2 0x3341 DUP3 PUSH2 0x3302 JUMP JUMPDEST PUSH1 0x20 DUP3 ADD SWAP1 POP SWAP2 SWAP1 POP JUMP JUMPDEST PUSH0 PUSH1 0x20 DUP3 ADD SWAP1 POP DUP2 DUP2 SUB PUSH0 DUP4 ADD MSTORE PUSH2 0x3363 DUP2 PUSH2 0x332A JUMP JUMPDEST SWAP1 POP SWAP2 SWAP1 POP JUMP JUMPDEST PUSH32 0x4120666F6C646572207769746820746865206E65772066696C65206E616D6520 PUSH0 DUP3 ADD MSTORE PUSH32 0x616C726561647920657869737473000000000000000000000000000000000000 PUSH1 0x20 DUP3 ADD MSTORE POP JUMP JUMPDEST PUSH0 PUSH2 0x33C4 PUSH1 0x2E DUP4 PUSH2 0x2311 JUMP JUMPDEST SWAP2 POP PUSH2 0x33CF DUP3 PUSH2 0x336A JUMP JUMPDEST PUSH1 0x40 DUP3 ADD SWAP1 POP SWAP2 SWAP1 POP JUMP JUMPDEST PUSH0 PUSH1 0x20 DUP3 ADD SWAP1 POP DUP2 DUP2 SUB PUSH0 DUP4 ADD MSTORE PUSH2 0x33F1 DUP2 PUSH2 0x33B8 JUMP JUMPDEST SWAP1 POP SWAP2 SWAP1 POP JUMP JUMPDEST PUSH0 DUP2 SLOAD SWAP1 POP PUSH2 0x3406 DUP2 PUSH2 0x2B9D JUMP JUMPDEST SWAP1 POP SWAP2 SWAP1 POP JUMP JUMPDEST DUP2 DUP2 SUB PUSH2 0x341B JUMPI POP POP PUSH2 0x34F0 JUMP JUMPDEST PUSH2 0x3424 DUP3 PUSH2 0x33F8 JUMP JUMPDEST PUSH8 0xFFFFFFFFFFFFFFFF DUP2 GT ISZERO PUSH2 0x343D JUMPI PUSH2 0x343C PUSH2 0x238E JUMP JUMPDEST JUMPDEST PUSH2 0x3447 DUP3 SLOAD PUSH2 0x2B9D JUMP JUMPDEST PUSH2 0x3452 DUP3 DUP3 DUP6 PUSH2 0x2F3A JUMP JUMPDEST PUSH0 PUSH1 0x1F DUP4 GT PUSH1 0x1 DUP2 EQ PUSH2 0x347F JUMPI PUSH0 DUP5 ISZERO PUSH2 0x346D JUMPI DUP3 DUP8 ADD SLOAD SWAP1 POP JUMPDEST PUSH2 0x3477 DUP6 DUP3 PUSH2 0x2FA8 JUMP JUMPDEST DUP7 SSTORE POP PUSH2 0x34E9 JUMP JUMPDEST PUSH1 0x1F NOT DUP5 AND PUSH2 0x348D DUP8 PUSH2 0x2E14 JUMP JUMPDEST SWAP7 POP PUSH2 0x3498 DUP7 PUSH2 0x2E14 JUMP JUMPDEST PUSH0 JUMPDEST DUP3 DUP2 LT ISZERO PUSH2 0x34BF JUMPI DUP5 DUP10 ADD SLOAD DUP3 SSTORE PUSH1 0x1 DUP3 ADD SWAP2 POP PUSH1 0x1 DUP6 ADD SWAP5 POP PUSH1 0x20 DUP2 ADD SWAP1 POP PUSH2 0x349A JUMP JUMPDEST DUP7 DUP4 LT ISZERO PUSH2 0x34DC JUMPI DUP5 DUP10 ADD SLOAD PUSH2 0x34D8 PUSH1 0x1F DUP10 AND DUP3 PUSH2 0x2F8C JUMP JUMPDEST DUP4 SSTORE POP JUMPDEST PUSH1 0x1 PUSH1 0x2 DUP9 MUL ADD DUP9 SSTORE POP POP POP JUMPDEST POP POP POP POP POP POP JUMPDEST JUMP JUMPDEST PUSH32 0x46696C6520616C72656164792065786973747300000000000000000000000000 PUSH0 DUP3 ADD MSTORE POP JUMP JUMPDEST PUSH0 PUSH2 0x3526 PUSH1 0x13 DUP4 PUSH2 0x2311 JUMP JUMPDEST SWAP2 POP PUSH2 0x3531 DUP3 PUSH2 0x34F2 JUMP JUMPDEST PUSH1 0x20 DUP3 ADD SWAP1 POP SWAP2 SWAP1 POP JUMP JUMPDEST PUSH0 PUSH1 0x20 DUP3 ADD SWAP1 POP DUP2 DUP2 SUB PUSH0 DUP4 ADD MSTORE PUSH2 0x3553 DUP2 PUSH2 0x351A JUMP JUMPDEST SWAP1 POP SWAP2 SWAP1 POP JUMP JUMPDEST PUSH32 0x4120666F6C6465722077697468207468652073616D65206E616D6520616C7265 PUSH0 DUP3 ADD MSTORE PUSH32 0x6164792065786973747300000000000000000000000000000000000000000000 PUSH1 0x20 DUP3 ADD MSTORE POP JUMP JUMPDEST PUSH0 PUSH2 0x35B4 PUSH1 0x2A DUP4 PUSH2 0x2311 JUMP JUMPDEST SWAP2 POP PUSH2 0x35BF DUP3 PUSH2 0x355A JUMP JUMPDEST PUSH1 0x40 DUP3 ADD SWAP1 POP SWAP2 SWAP1 POP JUMP JUMPDEST PUSH0 PUSH1 0x20 DUP3 ADD SWAP1 POP DUP2 DUP2 SUB PUSH0 DUP4 ADD MSTORE PUSH2 0x35E1 DUP2 PUSH2 0x35A8 JUMP JUMPDEST SWAP1 POP SWAP2 SWAP1 POP JUMP JUMPDEST PUSH0 PUSH2 0x35F2 DUP3 PUSH2 0x21C6 JUMP JUMPDEST SWAP2 POP PUSH32 0xFFFFFFFFFFFFFFFFFFFFFFFFFFFFFFFFFFFFFFFFFFFFFFFFFFFFFFFFFFFFFFFF DUP3 SUB PUSH2 0x3624 JUMPI PUSH2 0x3623 PUSH2 0x2D9F JUMP JUMPDEST JUMPDEST PUSH1 0x1 DUP3 ADD SWAP1 POP SWAP2 SWAP1 POP JUMP INVALID LOG2 PUSH5 0x6970667358 0x22 SLT KECCAK256 PUSH31 0x3370CF1236EEFD8D686154535B7D11325D53F00804309EAC73797FFF59C1BB PUSH5 0x736F6C6343 STOP ADDMOD BYTE STOP CALLER "
				},
				"gasEstimates": {
					"creation": {
						"codeDepositCost": "2785000",
						"executionCost": "infinite",
						"totalCost": "infinite"
					},
					"external": {
						"checkUserRootExists()": "infinite",
						"createFolder(string[],string)": "infinite",
						"deleteItem(string[],string)": "infinite",
						"getFolderData(string[])": "infinite",
						"getSharedWithMeFiles()": "infinite",
						"initializeUserRoot()": "infinite",
						"shareFileWithUser(string[],string,address)": "infinite",
						"updateFile(string[],string,string,uint256,string,string)": "infinite",
						"uploadFile(string[],string,string,uint256,string)": "infinite"
					},
					"internal": {
						"_getFolderInfo(struct Lock.Folder storage pointer)": "infinite",
						"_initializeUserRoot(address)": "infinite"
					}
				},
				"methodIdentifiers": {
					"checkUserRootExists()": "37db6c1a",
					"createFolder(string[],string)": "e75c5051",
					"deleteItem(string[],string)": "d3780e10",
					"getFolderData(string[])": "c905819b",
					"getSharedWithMeFiles()": "243a658d",
					"initializeUserRoot()": "e01adc05",
					"shareFileWithUser(string[],string,address)": "f5ded10b",
					"updateFile(string[],string,string,uint256,string,string)": "eff9f64f",
					"uploadFile(string[],string,string,uint256,string)": "f7da18c8"
				}
			},
			"storageLayout": {
				"storage": [
					{
						"astId": 43,
						"contract": "contracts/Lock.sol:Lock",
						"label": "userRoot",
						"offset": 0,
						"slot": "0",
						"type": "t_mapping(t_address,t_struct(Folder)38_storage)"
					}
				],
				"types": {
					"t_address": {
						"encoding": "inplace",
						"label": "address",
						"numberOfBytes": "20"
					},
					"t_array(t_string_storage)dyn_storage": {
						"base": "t_string_storage",
						"encoding": "dynamic_array",
						"label": "string[]",
						"numberOfBytes": "32"
					},
					"t_array(t_struct(File)14_storage)dyn_storage": {
						"base": "t_struct(File)14_storage",
						"encoding": "dynamic_array",
						"label": "struct Lock.File[]",
						"numberOfBytes": "32"
					},
					"t_mapping(t_address,t_struct(Folder)38_storage)": {
						"encoding": "mapping",
						"key": "t_address",
						"label": "mapping(address => struct Lock.Folder)",
						"numberOfBytes": "32",
						"value": "t_struct(Folder)38_storage"
					},
					"t_mapping(t_string_memory_ptr,t_struct(File)14_storage)": {
						"encoding": "mapping",
						"key": "t_string_memory_ptr",
						"label": "mapping(string => struct Lock.File)",
						"numberOfBytes": "32",
						"value": "t_struct(File)14_storage"
					},
					"t_mapping(t_string_memory_ptr,t_struct(Folder)38_storage)": {
						"encoding": "mapping",
						"key": "t_string_memory_ptr",
						"label": "mapping(string => struct Lock.Folder)",
						"numberOfBytes": "32",
						"value": "t_struct(Folder)38_storage"
					},
					"t_string_memory_ptr": {
						"encoding": "bytes",
						"label": "string",
						"numberOfBytes": "32"
					},
					"t_string_storage": {
						"encoding": "bytes",
						"label": "string",
						"numberOfBytes": "32"
					},
					"t_struct(File)14_storage": {
						"encoding": "inplace",
						"label": "struct Lock.File",
						"members": [
							{
								"astId": 3,
								"contract": "contracts/Lock.sol:Lock",
								"label": "name",
								"offset": 0,
								"slot": "0",
								"type": "t_string_storage"
							},
							{
								"astId": 5,
								"contract": "contracts/Lock.sol:Lock",
								"label": "cid",
								"offset": 0,
								"slot": "1",
								"type": "t_string_storage"
							},
							{
								"astId": 7,
								"contract": "contracts/Lock.sol:Lock",
								"label": "size",
								"offset": 0,
								"slot": "2",
								"type": "t_uint256"
							},
							{
								"astId": 9,
								"contract": "contracts/Lock.sol:Lock",
								"label": "fileType",
								"offset": 0,
								"slot": "3",
								"type": "t_string_storage"
							},
							{
								"astId": 11,
								"contract": "contracts/Lock.sol:Lock",
								"label": "owner",
								"offset": 0,
								"slot": "4",
								"type": "t_address"
							},
							{
								"astId": 13,
								"contract": "contracts/Lock.sol:Lock",
								"label": "createdAt",
								"offset": 0,
								"slot": "5",
								"type": "t_uint256"
							}
						],
						"numberOfBytes": "192"
					},
					"t_struct(Folder)38_storage": {
						"encoding": "inplace",
						"label": "struct Lock.Folder",
						"members": [
							{
								"astId": 16,
								"contract": "contracts/Lock.sol:Lock",
								"label": "name",
								"offset": 0,
								"slot": "0",
								"type": "t_string_storage"
							},
							{
								"astId": 18,
								"contract": "contracts/Lock.sol:Lock",
								"label": "owner",
								"offset": 0,
								"slot": "1",
								"type": "t_address"
							},
							{
								"astId": 20,
								"contract": "contracts/Lock.sol:Lock",
								"label": "createdAt",
								"offset": 0,
								"slot": "2",
								"type": "t_uint256"
							},
							{
								"astId": 23,
								"contract": "contracts/Lock.sol:Lock",
								"label": "fileNames",
								"offset": 0,
								"slot": "3",
								"type": "t_array(t_string_storage)dyn_storage"
							},
							{
								"astId": 28,
								"contract": "contracts/Lock.sol:Lock",
								"label": "files",
								"offset": 0,
								"slot": "4",
								"type": "t_mapping(t_string_memory_ptr,t_struct(File)14_storage)"
							},
							{
								"astId": 33,
								"contract": "contracts/Lock.sol:Lock",
								"label": "folders",
								"offset": 0,
								"slot": "5",
								"type": "t_mapping(t_string_memory_ptr,t_struct(Folder)38_storage)"
							},
							{
								"astId": 37,
								"contract": "contracts/Lock.sol:Lock",
								"label": "sharedWithMe",
								"offset": 0,
								"slot": "6",
								"type": "t_array(t_struct(File)14_storage)dyn_storage"
							}
						],
						"numberOfBytes": "224"
					},
					"t_uint256": {
						"encoding": "inplace",
						"label": "uint256",
						"numberOfBytes": "32"
					}
				}
			},
			"userdoc": {
				"kind": "user",
				"methods": {},
				"version": 1
			}
		}
	}
}