{
  "contracts/smooth.sol": {
    "Smooth": {
      "abi": [
        {
          "inputs": [
            {
              "internalType": "address",
              "name": "_user",
              "type": "address"
            }
          ],
          "name": "checkUserRoot",
          "outputs": [
            {
              "internalType": "bool",
              "name": "",
              "type": "bool"
            }
          ],
          "stateMutability": "view",
          "type": "function"
        },
        {
          "inputs": [
            {
              "internalType": "string[]",
              "name": "_path",
              "type": "string[]"
            },
            {
              "components": [
                {
                  "internalType": "string",
                  "name": "name",
                  "type": "string"
                },
                {
                  "internalType": "string",
                  "name": "cid",
                  "type": "string"
                },
                {
                  "internalType": "uint256",
                  "name": "size",
                  "type": "uint256"
                },
                {
                  "internalType": "string",
                  "name": "fileType",
                  "type": "string"
                }
              ],
              "internalType": "struct Smooth.FileData[]",
              "name": "_files",
              "type": "tuple[]"
            },
            {
              "internalType": "address",
              "name": "_user",
              "type": "address"
            }
          ],
          "name": "createFiles",
          "outputs": [],
          "stateMutability": "nonpayable",
          "type": "function"
        },
        {
          "inputs": [
            {
              "internalType": "string[]",
              "name": "_path",
              "type": "string[]"
            },
            {
              "internalType": "string",
              "name": "_folderName",
              "type": "string"
            },
            {
              "internalType": "address",
              "name": "_user",
              "type": "address"
            }
          ],
          "name": "createFolder",
          "outputs": [],
          "stateMutability": "nonpayable",
          "type": "function"
        },
        {
          "inputs": [
            {
              "internalType": "string[]",
              "name": "_path",
              "type": "string[]"
            },
            {
              "internalType": "string",
              "name": "_fileName",
              "type": "string"
            },
            {
              "internalType": "address",
              "name": "_user",
              "type": "address"
            }
          ],
          "name": "deleteFile",
          "outputs": [],
          "stateMutability": "nonpayable",
          "type": "function"
        },
        {
          "inputs": [
            {
              "internalType": "string[]",
              "name": "_path",
              "type": "string[]"
            },
            {
              "internalType": "address",
              "name": "_user",
              "type": "address"
            }
          ],
          "name": "getFolderData",
          "outputs": [
            {
              "internalType": "string",
              "name": "",
              "type": "string"
            }
          ],
          "stateMutability": "view",
          "type": "function"
        },
        {
          "inputs": [
            {
              "internalType": "address",
              "name": "_user",
              "type": "address"
            }
          ],
          "name": "initUserRoot",
          "outputs": [
            {
              "internalType": "bool",
              "name": "",
              "type": "bool"
            }
          ],
          "stateMutability": "nonpayable",
          "type": "function"
        },
        {
          "inputs": [
            {
              "internalType": "string[]",
              "name": "_path",
              "type": "string[]"
            },
            {
              "internalType": "string",
              "name": "_fileName",
              "type": "string"
            },
            {
              "internalType": "string",
              "name": "newName",
              "type": "string"
            },
            {
              "internalType": "string",
              "name": "newCid",
              "type": "string"
            },
            {
              "internalType": "uint256",
              "name": "newSize",
              "type": "uint256"
            },
            {
              "internalType": "uint256",
              "name": "newCreatedAt",
              "type": "uint256"
            },
            {
              "internalType": "address",
              "name": "newOwner",
              "type": "address"
            },
            {
              "internalType": "string",
              "name": "newFileType",
              "type": "string"
            },
            {
              "internalType": "address",
              "name": "_user",
              "type": "address"
            }
          ],
          "name": "updateFile",
          "outputs": [],
          "stateMutability": "nonpayable",
          "type": "function"
        },
        {
          "inputs": [
            {
              "internalType": "string[]",
              "name": "_path",
              "type": "string[]"
            },
            {
              "internalType": "string",
              "name": "_folderName",
              "type": "string"
            },
            {
              "internalType": "string",
              "name": "newName",
              "type": "string"
            },
            {
              "internalType": "address",
              "name": "newOwner",
              "type": "address"
            },
            {
              "internalType": "uint256",
              "name": "newCreatedAt",
              "type": "uint256"
            },
            {
              "internalType": "address",
              "name": "_user",
              "type": "address"
            }
          ],
          "name": "updateFolder",
          "outputs": [],
          "stateMutability": "nonpayable",
          "type": "function"
        }
      ],
      "evm": {
        "bytecode": {
          "linkReferences": {},
          "object": "608060405234801561001057600080fd5b50613d17806100206000396000f3fe608060405234801561001057600080fd5b50600436106100885760003560e01c8063b74083a31161005b578063b74083a314610125578063cc6cd16f14610141578063d9ec27191461015d578063e7465d7b1461018d57610088565b806301496b841461008d578063140af0e2146100bd5780634ee37c28146100ed578063958566be14610109575b600080fd5b6100a760048036038101906100a29190612447565b6101a9565b6040516100b4919061248f565b60405180910390f35b6100d760048036038101906100d291906126d6565b610529565b6040516100e491906127b1565b60405180910390f35b610107600480360381019061010291906129c0565b610b65565b005b610123600480360381019061011e9190612a4b565b610f06565b005b61013f600480360381019061013a9190612ba1565b61134d565b005b61015b60048036038101906101569190612c82565b6116fb565b005b61017760048036038101906101729190612447565b61198a565b604051610184919061248f565b60405180910390f35b6101a760048036038101906101a29190612c82565b611a33565b005b60006040516020016101ba90612d64565b604051602081830303815290604052805190602001206000808473ffffffffffffffffffffffffffffffffffffffff1673ffffffffffffffffffffffffffffffffffffffff1681526020019081526020016000206000016000016040516020016102249190612e71565b604051602081830303815290604052805190602001200361027a576040517f08c379a000000000000000000000000000000000000000000000000000000000815260040161027190612ed4565b60405180910390fd5b6040518060400160405280600481526020017f726f6f74000000000000000000000000000000000000000000000000000000008152506000808473ffffffffffffffffffffffffffffffffffffffff1673ffffffffffffffffffffffffffffffffffffffff1681526020019081526020016000206000016000019081610300919061308b565b50816000808473ffffffffffffffffffffffffffffffffffffffff1673ffffffffffffffffffffffffffffffffffffffff16815260200190815260200160002060000160010160006101000a81548173ffffffffffffffffffffffffffffffffffffffff021916908373ffffffffffffffffffffffffffffffffffffffff160217905550426000808473ffffffffffffffffffffffffffffffffffffffff1673ffffffffffffffffffffffffffffffffffffffff168152602001908152602001600020600001600201819055506040518060400160405280600b81526020017f73686172656453706163650000000000000000000000000000000000000000008152506000808473ffffffffffffffffffffffffffffffffffffffff1673ffffffffffffffffffffffffffffffffffffffff1681526020019081526020016000206005016000019081610453919061308b565b50816000808473ffffffffffffffffffffffffffffffffffffffff1673ffffffffffffffffffffffffffffffffffffffff16815260200190815260200160002060050160010160006101000a81548173ffffffffffffffffffffffffffffffffffffffff021916908373ffffffffffffffffffffffffffffffffffffffff160217905550426000808473ffffffffffffffffffffffffffffffffffffffff1673ffffffffffffffffffffffffffffffffffffffff1681526020019081526020016000206005016002018190555060019050919050565b60606105348261198a565b610573576040517f08c379a000000000000000000000000000000000000000000000000000000000815260040161056a906131a9565b60405180910390fd5b60008060008473ffffffffffffffffffffffffffffffffffffffff1673ffffffffffffffffffffffffffffffffffffffff1681526020019081526020016000206000019050600184511115610705576000600190505b8451811015610703576000805b83600401805490508110156106b4578683815181106105f8576105f76131c9565b5b60200260200101516040516020016106109190613229565b6040516020818303038152906040528051906020012084600401828154811061063c5761063b6131c9565b5b906000526020600020906005020160000160405160200161065d9190612e71565b60405160208183030381529060405280519060200120036106a75783600401818154811061068e5761068d6131c9565b5b90600052602060002090600502019350600191506106b4565b80806001019150506105d6565b50806106f5576040517f08c379a00000000000000000000000000000000000000000000000000000000081526004016106ec9061328c565b60405180910390fd5b5080806001019150506105c9565b505b6000816000016107388360010160009054906101000a900473ffffffffffffffffffffffffffffffffffffffff16611eeb565b61074584600201546121f0565b604051602001610757939291906133dc565b604051602081830303815290604052905060008260030180549050111561097257806040516020016107899190613485565b604051602081830303815290604052905060005b826003018054905081101561094e5760008360030182815481106107c4576107c36131c9565b5b9060005260206000209060060201905060008160000180546107e590612da8565b90501180156108045750600081600101805461080090612da8565b9050115b8015610814575060008160020154115b8015610824575060008160030154115b80156108815750600073ffffffffffffffffffffffffffffffffffffffff168160040160009054906101000a900473ffffffffffffffffffffffffffffffffffffffff1673ffffffffffffffffffffffffffffffffffffffff1614155b156109405782816000018260010161089c84600201546121f0565b6108a985600301546121f0565b6108d68660040160009054906101000a900473ffffffffffffffffffffffffffffffffffffffff16611eeb565b866005016040516020016108f097969594939291906135d7565b60405160208183030381529060405292506001846003018054905061091591906136b8565b82101561093f578260405160200161092d9190613738565b60405160208183030381529060405292505b5b50808060010191505061079d565b508060405160200161096091906137a6565b60405160208183030381529060405290505b600082600401805490501115610b3857806040516020016109939190613814565b604051602081830303815290604052905060005b8260040180549050811015610b145760008360040182815481106109ce576109cd6131c9565b5b9060005260206000209060050201905060008160000180546109ef90612da8565b9050118015610a4f5750600073ffffffffffffffffffffffffffffffffffffffff168160010160009054906101000a900473ffffffffffffffffffffffffffffffffffffffff1673ffffffffffffffffffffffffffffffffffffffff1614155b8015610a5f575060008160020154115b15610b06578281600001610a968360010160009054906101000a900473ffffffffffffffffffffffffffffffffffffffff16611eeb565b610aa384600201546121f0565b604051602001610ab69493929190613836565b604051602081830303815290604052925060018460040180549050610adb91906136b8565b821015610b055782604051602001610af39190613738565b60405160208183030381529060405292505b5b5080806001019150506109a7565b5080604051602001610b2691906137a6565b60405160208183030381529060405290505b80604051602001610b4991906138ec565b6040516020818303038152906040529050809250505092915050565b610b6e8161198a565b610bad576040517f08c379a0000000000000000000000000000000000000000000000000000000008152600401610ba4906131a9565b60405180910390fd5b60008060008373ffffffffffffffffffffffffffffffffffffffff1673ffffffffffffffffffffffffffffffffffffffff16815260200190815260200160002060000190506000600190505b8451811015610d5e576000805b8360040180549050811015610ce457868381518110610c2857610c276131c9565b5b6020026020010151604051602001610c409190613229565b60405160208183030381529060405280519060200120846004018281548110610c6c57610c6b6131c9565b5b9060005260206000209060050201600001604051602001610c8d9190612e71565b6040516020818303038152906040528051906020012003610cd757836004018181548110610cbe57610cbd6131c9565b5b9060005260206000209060050201935060019150610ce4565b8080600101915050610c06565b5080610cef836121f0565b604051602001610cff919061395a565b60405160208183030381529060405290610d4f576040517f08c379a0000000000000000000000000000000000000000000000000000000008152600401610d4691906127b1565b60405180910390fd5b50508080600101915050610bf9565b5060005b8351811015610eff57816003016040518060c00160405280868481518110610d8d57610d8c6131c9565b5b6020026020010151600001518152602001868481518110610db157610db06131c9565b5b6020026020010151602001518152602001868481518110610dd557610dd46131c9565b5b60200260200101516040015181526020014281526020018573ffffffffffffffffffffffffffffffffffffffff168152602001868481518110610e1b57610e1a6131c9565b5b60200260200101516060015181525090806001815401808255809150506001900390600052602060002090600602016000909190919091506000820151816000019081610e68919061308b565b506020820151816001019081610e7e919061308b565b50604082015181600201556060820151816003015560808201518160040160006101000a81548173ffffffffffffffffffffffffffffffffffffffff021916908373ffffffffffffffffffffffffffffffffffffffff16021790555060a0820151816005019081610eef919061308b565b5050508080600101915050610d62565b5050505050565b610f0f8161198a565b610f4e576040517f08c379a0000000000000000000000000000000000000000000000000000000008152600401610f45906131a9565b60405180910390fd5b60008060008373ffffffffffffffffffffffffffffffffffffffff1673ffffffffffffffffffffffffffffffffffffffff16815260200190815260200160002060000190506000600190505b8a518110156110ff576000805b8360040180549050811015611085578c8381518110610fc957610fc86131c9565b5b6020026020010151604051602001610fe19190613229565b6040516020818303038152906040528051906020012084600401828154811061100d5761100c6131c9565b5b906000526020600020906005020160000160405160200161102e9190612e71565b60405160208183030381529060405280519060200120036110785783600401818154811061105f5761105e6131c9565b5b9060005260206000209060050201935060019150611085565b8080600101915050610fa7565b5080611090836121f0565b6040516020016110a0919061395a565b604051602081830303815290604052906110f0576040517f08c379a00000000000000000000000000000000000000000000000000000000081526004016110e791906127b1565b60405180910390fd5b50508080600101915050610f9a565b506000805b82600301805490508110156112ff578a6040516020016111249190613229565b604051602081830303815290604052805190602001208360030182815481106111505761114f6131c9565b5b90600052602060002090600602016000016040516020016111719190612e71565b60405160208183030381529060405280519060200120036112f25760019150898360030182815481106111a7576111a66131c9565b5b906000526020600020906006020160000190816111c4919061308b565b50888360030182815481106111dc576111db6131c9565b5b906000526020600020906006020160010190816111f9919061308b565b5087836003018281548110611211576112106131c9565b5b9060005260206000209060060201600201819055508683600301828154811061123d5761123c6131c9565b5b90600052602060002090600602016003018190555085836003018281548110611269576112686131c9565b5b906000526020600020906006020160040160006101000a81548173ffffffffffffffffffffffffffffffffffffffff021916908373ffffffffffffffffffffffffffffffffffffffff160217905550848360030182815481106112cf576112ce6131c9565b5b906000526020600020906006020160050190816112ec919061308b565b506112ff565b8080600101915050611104565b5080611340576040517f08c379a0000000000000000000000000000000000000000000000000000000008152600401611337906139c8565b60405180910390fd5b5050505050505050505050565b6113568161198a565b611395576040517f08c379a000000000000000000000000000000000000000000000000000000000815260040161138c906131a9565b60405180910390fd5b60008060008373ffffffffffffffffffffffffffffffffffffffff1673ffffffffffffffffffffffffffffffffffffffff16815260200190815260200160002060000190506000600190505b8751811015611546576000805b83600401805490508110156114cc578983815181106114105761140f6131c9565b5b60200260200101516040516020016114289190613229565b60405160208183030381529060405280519060200120846004018281548110611454576114536131c9565b5b90600052602060002090600502016000016040516020016114759190612e71565b60405160208183030381529060405280519060200120036114bf578360040181815481106114a6576114a56131c9565b5b90600052602060002090600502019350600191506114cc565b80806001019150506113ee565b50806114d7836121f0565b6040516020016114e7919061395a565b60405160208183030381529060405290611537576040517f08c379a000000000000000000000000000000000000000000000000000000000815260040161152e91906127b1565b60405180910390fd5b505080806001019150506113e1565b506000805b82600401805490508110156116b0578760405160200161156b9190613229565b60405160208183030381529060405280519060200120836004018281548110611597576115966131c9565b5b90600052602060002090600502016000016040516020016115b89190612e71565b60405160208183030381529060405280519060200120036116a35760019150868360040182815481106115ee576115ed6131c9565b5b9060005260206000209060050201600001908161160b919061308b565b5085836004018281548110611623576116226131c9565b5b906000526020600020906005020160010160006101000a81548173ffffffffffffffffffffffffffffffffffffffff021916908373ffffffffffffffffffffffffffffffffffffffff16021790555084836004018281548110611689576116886131c9565b5b9060005260206000209060050201600201819055506116b0565b808060010191505061154b565b50806116f1576040517f08c379a00000000000000000000000000000000000000000000000000000000081526004016116e890613a34565b60405180910390fd5b5050505050505050565b6117048161198a565b611743576040517f08c379a000000000000000000000000000000000000000000000000000000000815260040161173a906131a9565b60405180910390fd5b60008060008373ffffffffffffffffffffffffffffffffffffffff1673ffffffffffffffffffffffffffffffffffffffff16815260200190815260200160002060000190506000600190505b84518110156118c9576000805b836004018054905081101561187a578683815181106117be576117bd6131c9565b5b60200260200101516040516020016117d69190613229565b60405160208183030381529060405280519060200120846004018281548110611802576118016131c9565b5b90600052602060002090600502016000016040516020016118239190612e71565b604051602081830303815290604052805190602001200361186d57836004018181548110611854576118536131c9565b5b906000526020600020906005020193506001915061187a565b808060010191505061179c565b50806118bb576040517f08c379a00000000000000000000000000000000000000000000000000000000081526004016118b29061328c565b60405180910390fd5b50808060010191505061178f565b5080600401600181600181540180825580915050039060005260206000209050506000816004016001836004018054905061190491906136b8565b81548110611915576119146131c9565b5b9060005260206000209060050201905083816000019081611936919061308b565b50828160010160006101000a81548173ffffffffffffffffffffffffffffffffffffffff021916908373ffffffffffffffffffffffffffffffffffffffff1602179055504281600201819055505050505050565b600060405160200161199b90612d64565b604051602081830303815290604052805190602001206000808473ffffffffffffffffffffffffffffffffffffffff1673ffffffffffffffffffffffffffffffffffffffff168152602001908152602001600020600001600001604051602001611a059190612e71565b6040516020818303038152906040528051906020012014611a295760009050611a2e565b600190505b919050565b611a3c8161198a565b611a7b576040517f08c379a0000000000000000000000000000000000000000000000000000000008152600401611a72906131a9565b60405180910390fd5b60008060008373ffffffffffffffffffffffffffffffffffffffff1673ffffffffffffffffffffffffffffffffffffffff16815260200190815260200160002060000190506000600190505b8451811015611c2c576000805b8360040180549050811015611bb257868381518110611af657611af56131c9565b5b6020026020010151604051602001611b0e9190613229565b60405160208183030381529060405280519060200120846004018281548110611b3a57611b396131c9565b5b9060005260206000209060050201600001604051602001611b5b9190612e71565b6040516020818303038152906040528051906020012003611ba557836004018181548110611b8c57611b8b6131c9565b5b9060005260206000209060050201935060019150611bb2565b8080600101915050611ad4565b5080611bbd836121f0565b604051602001611bcd919061395a565b60405160208183030381529060405290611c1d576040517f08c379a0000000000000000000000000000000000000000000000000000000008152600401611c1491906127b1565b60405180910390fd5b50508080600101915050611ac7565b506000805b8260030180549050811015611ea35784604051602001611c519190613229565b60405160208183030381529060405280519060200120836003018281548110611c7d57611c7c6131c9565b5b9060005260206000209060060201600001604051602001611c9e9190612e71565b6040516020818303038152906040528051906020012003611e96576001915060008190505b60018460030180549050611cd791906136b8565b811015611dfc5783600301600182611cef9190613a54565b81548110611d0057611cff6131c9565b5b9060005260206000209060060201846003018281548110611d2457611d236131c9565b5b906000526020600020906006020160008201816000019081611d469190613a9e565b5060018201816001019081611d5b9190613a9e565b5060028201548160020155600382015481600301556004820160009054906101000a900473ffffffffffffffffffffffffffffffffffffffff168160040160006101000a81548173ffffffffffffffffffffffffffffffffffffffff021916908373ffffffffffffffffffffffffffffffffffffffff16021790555060058201816005019081611deb9190613a9e565b509050508080600101915050611cc3565b5082600301805480611e1157611e10613b86565b5b600190038181906000526020600020906006020160008082016000611e369190612378565b600182016000611e469190612378565b600282016000905560038201600090556004820160006101000a81549073ffffffffffffffffffffffffffffffffffffffff0219169055600582016000611e8d9190612378565b50509055611ea3565b8080600101915050611c31565b5080611ee4576040517f08c379a0000000000000000000000000000000000000000000000000000000008152600401611edb906139c8565b60405180910390fd5b5050505050565b606060008273ffffffffffffffffffffffffffffffffffffffff1660001b905060006040518060400160405280601081526020017f303132333435363738396162636465660000000000000000000000000000000081525090506000602a67ffffffffffffffff811115611f6257611f616124c0565b5b6040519080825280601f01601f191660200182016040528015611f945781602001600182028036833780820191505090505b5090507f300000000000000000000000000000000000000000000000000000000000000081600081518110611fcc57611fcb6131c9565b5b60200101907effffffffffffffffffffffffffffffffffffffffffffffffffffffffffffff1916908160001a9053507f7800000000000000000000000000000000000000000000000000000000000000816001815181106120305761202f6131c9565b5b60200101907effffffffffffffffffffffffffffffffffffffffffffffffffffffffffffff1916908160001a90535060005b60148110156121e45782600485600c8461207c9190613a54565b6020811061208d5761208c6131c9565b5b1a60f81b7effffffffffffffffffffffffffffffffffffffffffffffffffffffffffffff1916901c60f81c60ff16815181106120cc576120cb6131c9565b5b602001015160f81c60f81b826002836120e59190613bb5565b60026120f19190613a54565b81518110612102576121016131c9565b5b60200101907effffffffffffffffffffffffffffffffffffffffffffffffffffffffffffff1916908160001a90535082600f60f81b85600c846121459190613a54565b60208110612156576121556131c9565b5b1a60f81b1660f81c60ff1681518110612172576121716131c9565b5b602001015160f81c60f81b8260028361218b9190613bb5565b60036121979190613a54565b815181106121a8576121a76131c9565b5b60200101907effffffffffffffffffffffffffffffffffffffffffffffffffffffffffffff1916908160001a9053508080600101915050612062565b50809350505050919050565b606060008203612237576040518060400160405280600181526020017f30000000000000000000000000000000000000000000000000000000000000008152509050612373565b600082905060005b6000821461226957808061225290613bf7565b915050600a826122629190613c6e565b915061223f565b60008167ffffffffffffffff811115612285576122846124c0565b5b6040519080825280601f01601f1916602001820160405280156122b75781602001600182028036833780820191505090505b50905060008290505b6000861461236b576001816122d591906136b8565b90506000600a80886122e79190613c6e565b6122f19190613bb5565b876122fc91906136b8565b60306123089190613cac565b905060008160f81b905080848481518110612326576123256131c9565b5b60200101907effffffffffffffffffffffffffffffffffffffffffffffffffffffffffffff1916908160001a905350600a886123629190613c6e565b975050506122c0565b819450505050505b919050565b50805461238490612da8565b6000825580601f1061239657506123b5565b601f0160209004906000526020600020908101906123b491906123b8565b5b50565b5b808211156123d15760008160009055506001016123b9565b5090565b6000604051905090565b600080fd5b600080fd5b600073ffffffffffffffffffffffffffffffffffffffff82169050919050565b6000612414826123e9565b9050919050565b61242481612409565b811461242f57600080fd5b50565b6000813590506124418161241b565b92915050565b60006020828403121561245d5761245c6123df565b5b600061246b84828501612432565b91505092915050565b60008115159050919050565b61248981612474565b82525050565b60006020820190506124a46000830184612480565b92915050565b600080fd5b6000601f19601f8301169050919050565b7f4e487b7100000000000000000000000000000000000000000000000000000000600052604160045260246000fd5b6124f8826124af565b810181811067ffffffffffffffff82111715612517576125166124c0565b5b80604052505050565b600061252a6123d5565b905061253682826124ef565b919050565b600067ffffffffffffffff821115612556576125556124c0565b5b602082029050602081019050919050565b600080fd5b600080fd5b600067ffffffffffffffff82111561258c5761258b6124c0565b5b612595826124af565b9050602081019050919050565b82818337600083830152505050565b60006125c46125bf84612571565b612520565b9050828152602081018484840111156125e0576125df61256c565b5b6125eb8482856125a2565b509392505050565b600082601f830112612608576126076124aa565b5b81356126188482602086016125b1565b91505092915050565b600061263461262f8461253b565b612520565b9050808382526020820190506020840283018581111561265757612656612567565b5b835b8181101561269e57803567ffffffffffffffff81111561267c5761267b6124aa565b5b80860161268989826125f3565b85526020850194505050602081019050612659565b5050509392505050565b600082601f8301126126bd576126bc6124aa565b5b81356126cd848260208601612621565b91505092915050565b600080604083850312156126ed576126ec6123df565b5b600083013567ffffffffffffffff81111561270b5761270a6123e4565b5b612717858286016126a8565b925050602061272885828601612432565b9150509250929050565b600081519050919050565b600082825260208201905092915050565b60005b8381101561276c578082015181840152602081019050612751565b60008484015250505050565b600061278382612732565b61278d818561273d565b935061279d81856020860161274e565b6127a6816124af565b840191505092915050565b600060208201905081810360008301526127cb8184612778565b905092915050565b600067ffffffffffffffff8211156127ee576127ed6124c0565b5b602082029050602081019050919050565b600080fd5b600080fd5b6000819050919050565b61281c81612809565b811461282757600080fd5b50565b60008135905061283981612813565b92915050565b600060808284031215612855576128546127ff565b5b61285f6080612520565b9050600082013567ffffffffffffffff81111561287f5761287e612804565b5b61288b848285016125f3565b600083015250602082013567ffffffffffffffff8111156128af576128ae612804565b5b6128bb848285016125f3565b60208301525060406128cf8482850161282a565b604083015250606082013567ffffffffffffffff8111156128f3576128f2612804565b5b6128ff848285016125f3565b60608301525092915050565b600061291e612919846127d3565b612520565b9050808382526020820190506020840283018581111561294157612940612567565b5b835b8181101561298857803567ffffffffffffffff811115612966576129656124aa565b5b808601612973898261283f565b85526020850194505050602081019050612943565b5050509392505050565b600082601f8301126129a7576129a66124aa565b5b81356129b784826020860161290b565b91505092915050565b6000806000606084860312156129d9576129d86123df565b5b600084013567ffffffffffffffff8111156129f7576129f66123e4565b5b612a03868287016126a8565b935050602084013567ffffffffffffffff811115612a2457612a236123e4565b5b612a3086828701612992565b9250506040612a4186828701612432565b9150509250925092565b60008060008060008060008060006101208a8c031215612a6e57612a6d6123df565b5b60008a013567ffffffffffffffff811115612a8c57612a8b6123e4565b5b612a988c828d016126a8565b99505060208a013567ffffffffffffffff811115612ab957612ab86123e4565b5b612ac58c828d016125f3565b98505060408a013567ffffffffffffffff811115612ae657612ae56123e4565b5b612af28c828d016125f3565b97505060608a013567ffffffffffffffff811115612b1357612b126123e4565b5b612b1f8c828d016125f3565b9650506080612b308c828d0161282a565b95505060a0612b418c828d0161282a565b94505060c0612b528c828d01612432565b93505060e08a013567ffffffffffffffff811115612b7357612b726123e4565b5b612b7f8c828d016125f3565b925050610100612b918c828d01612432565b9150509295985092959850929598565b60008060008060008060c08789031215612bbe57612bbd6123df565b5b600087013567ffffffffffffffff811115612bdc57612bdb6123e4565b5b612be889828a016126a8565b965050602087013567ffffffffffffffff811115612c0957612c086123e4565b5b612c1589828a016125f3565b955050604087013567ffffffffffffffff811115612c3657612c356123e4565b5b612c4289828a016125f3565b9450506060612c5389828a01612432565b9350506080612c6489828a0161282a565b92505060a0612c7589828a01612432565b9150509295509295509295565b600080600060608486031215612c9b57612c9a6123df565b5b600084013567ffffffffffffffff811115612cb957612cb86123e4565b5b612cc5868287016126a8565b935050602084013567ffffffffffffffff811115612ce657612ce56123e4565b5b612cf2868287016125f3565b9250506040612d0386828701612432565b9150509250925092565b600081905092915050565b7f726f6f7400000000000000000000000000000000000000000000000000000000600082015250565b6000612d4e600483612d0d565b9150612d5982612d18565b600482019050919050565b6000612d6f82612d41565b9150819050919050565b7f4e487b7100000000000000000000000000000000000000000000000000000000600052602260045260246000fd5b60006002820490506001821680612dc057607f821691505b602082108103612dd357612dd2612d79565b5b50919050565b60008190508160005260206000209050919050565b60008154612dfb81612da8565b612e058186612d0d565b94506001821660008114612e205760018114612e3557612e68565b60ff1983168652811515820286019350612e68565b612e3e85612dd9565b60005b83811015612e6057815481890152600182019150602081019050612e41565b838801955050505b50505092915050565b6000612e7d8284612dee565b915081905092915050565b7f5573657220616c726561647920696e697469616c697a65640000000000000000600082015250565b6000612ebe60188361273d565b9150612ec982612e88565b602082019050919050565b60006020820190508181036000830152612eed81612eb1565b9050919050565b60006020601f8301049050919050565b600082821b905092915050565b600060088302612f417fffffffffffffffffffffffffffffffffffffffffffffffffffffffffffffffff82612f04565b612f4b8683612f04565b95508019841693508086168417925050509392505050565b6000819050919050565b6000612f88612f83612f7e84612809565b612f63565b612809565b9050919050565b6000819050919050565b612fa283612f6d565b612fb6612fae82612f8f565b848454612f11565b825550505050565b600090565b612fcb612fbe565b612fd6818484612f99565b505050565b5b81811015612ffa57612fef600082612fc3565b600181019050612fdc565b5050565b601f82111561303f5761301081612dd9565b61301984612ef4565b81016020851015613028578190505b61303c61303485612ef4565b830182612fdb565b50505b505050565b600082821c905092915050565b600061306260001984600802613044565b1980831691505092915050565b600061307b8383613051565b9150826002028217905092915050565b61309482612732565b67ffffffffffffffff8111156130ad576130ac6124c0565b5b6130b78254612da8565b6130c2828285612ffe565b600060209050601f8311600181146130f557600084156130e3578287015190505b6130ed858261306f565b865550613155565b601f19841661310386612dd9565b60005b8281101561312b57848901518255600182019150602085019450602081019050613106565b868310156131485784890151613144601f891682613051565b8355505b6001600288020188555050505b505050505050565b7f5573657220726f6f74206e6f7420696e697469616c697a656400000000000000600082015250565b600061319360198361273d565b915061319e8261315d565b602082019050919050565b600060208201905081810360008301526131c281613186565b9050919050565b7f4e487b7100000000000000000000000000000000000000000000000000000000600052603260045260246000fd5b600061320382612732565b61320d8185612d0d565b935061321d81856020860161274e565b80840191505092915050565b600061323582846131f8565b915081905092915050565b7f5061746820646f6573206e6f7420657869737400000000000000000000000000600082015250565b600061327660138361273d565b915061328182613240565b602082019050919050565b600060208201905081810360008301526132a581613269565b9050919050565b7f7b226e616d65223a220000000000000000000000000000000000000000000000600082015250565b60006132e2600983612d0d565b91506132ed826132ac565b600982019050919050565b7f222c226f776e6572223a22000000000000000000000000000000000000000000600082015250565b600061332e600b83612d0d565b9150613339826132f8565b600b82019050919050565b7f222c22637265617465644174223a220000000000000000000000000000000000600082015250565b600061337a600f83612d0d565b915061338582613344565b600f82019050919050565b7f2200000000000000000000000000000000000000000000000000000000000000600082015250565b60006133c6600183612d0d565b91506133d182613390565b600182019050919050565b60006133e7826132d5565b91506133f38286612dee565b91506133fe82613321565b915061340a82856131f8565b91506134158261336d565b915061342182846131f8565b915061342c826133b9565b9150819050949350505050565b7f2c2266696c6573223a5b00000000000000000000000000000000000000000000600082015250565b600061346f600a83612d0d565b915061347a82613439565b600a82019050919050565b600061349182846131f8565b915061349c82613462565b915081905092915050565b7f222c22636964223a220000000000000000000000000000000000000000000000600082015250565b60006134dd600983612d0d565b91506134e8826134a7565b600982019050919050565b7f222c2273697a65223a2200000000000000000000000000000000000000000000600082015250565b6000613529600a83612d0d565b9150613534826134f3565b600a82019050919050565b7f222c2266696c6554797065223a22000000000000000000000000000000000000600082015250565b6000613575600e83612d0d565b91506135808261353f565b600e82019050919050565b7f227d000000000000000000000000000000000000000000000000000000000000600082015250565b60006135c1600283612d0d565b91506135cc8261358b565b600282019050919050565b60006135e3828a6131f8565b91506135ee826132d5565b91506135fa8289612dee565b9150613605826134d0565b91506136118288612dee565b915061361c8261351c565b915061362882876131f8565b91506136338261336d565b915061363f82866131f8565b915061364a82613321565b915061365682856131f8565b915061366182613568565b915061366d8284612dee565b9150613678826135b4565b915081905098975050505050505050565b7f4e487b7100000000000000000000000000000000000000000000000000000000600052601160045260246000fd5b60006136c382612809565b91506136ce83612809565b92508282039050818111156136e6576136e5613689565b5b92915050565b7f2c00000000000000000000000000000000000000000000000000000000000000600082015250565b6000613722600183612d0d565b915061372d826136ec565b600182019050919050565b600061374482846131f8565b915061374f82613715565b915081905092915050565b7f5d00000000000000000000000000000000000000000000000000000000000000600082015250565b6000613790600183612d0d565b915061379b8261375a565b600182019050919050565b60006137b282846131f8565b91506137bd82613783565b915081905092915050565b7f2c22666f6c64657273223a5b0000000000000000000000000000000000000000600082015250565b60006137fe600c83612d0d565b9150613809826137c8565b600c82019050919050565b600061382082846131f8565b915061382b826137f1565b915081905092915050565b600061384282876131f8565b915061384d826132d5565b91506138598286612dee565b915061386482613321565b915061387082856131f8565b915061387b8261336d565b915061388782846131f8565b9150613892826135b4565b915081905095945050505050565b7f7d00000000000000000000000000000000000000000000000000000000000000600082015250565b60006138d6600183612d0d565b91506138e1826138a0565b600182019050919050565b60006138f882846131f8565b9150613903826138c9565b915081905092915050565b7f5061746820646f6573206e6f7420657869737420617420696e64657820000000600082015250565b6000613944601d83612d0d565b915061394f8261390e565b601d82019050919050565b600061396582613937565b915061397182846131f8565b915081905092915050565b7f46696c6520646f6573206e6f7420657869737400000000000000000000000000600082015250565b60006139b260138361273d565b91506139bd8261397c565b602082019050919050565b600060208201905081810360008301526139e1816139a5565b9050919050565b7f466f6c64657220646f6573206e6f742065786973740000000000000000000000600082015250565b6000613a1e60158361273d565b9150613a29826139e8565b602082019050919050565b60006020820190508181036000830152613a4d81613a11565b9050919050565b6000613a5f82612809565b9150613a6a83612809565b9250828201905080821115613a8257613a81613689565b5b92915050565b600081549050613a9781612da8565b9050919050565b818103613aac575050613b84565b613ab582613a88565b67ffffffffffffffff811115613ace57613acd6124c0565b5b613ad88254612da8565b613ae3828285612ffe565b6000601f831160018114613b125760008415613b00578287015490505b613b0a858261306f565b865550613b7d565b601f198416613b2087612dd9565b9650613b2b86612dd9565b60005b82811015613b5357848901548255600182019150600185019450602081019050613b2e565b86831015613b705784890154613b6c601f891682613051565b8355505b6001600288020188555050505b5050505050505b565b7f4e487b7100000000000000000000000000000000000000000000000000000000600052603160045260246000fd5b6000613bc082612809565b9150613bcb83612809565b9250828202613bd981612809565b91508282048414831517613bf057613bef613689565b5b5092915050565b6000613c0282612809565b91507fffffffffffffffffffffffffffffffffffffffffffffffffffffffffffffffff8203613c3457613c33613689565b5b600182019050919050565b7f4e487b7100000000000000000000000000000000000000000000000000000000600052601260045260246000fd5b6000613c7982612809565b9150613c8483612809565b925082613c9457613c93613c3f565b5b828204905092915050565b600060ff82169050919050565b6000613cb782613c9f565b9150613cc283613c9f565b9250828201905060ff811115613cdb57613cda613689565b5b9291505056fea2646970667358221220dda7753e265a411ae192af57f0b63b7cdaffb6016cdebcde313e6d71da22055d64736f6c63430008180033",
          "opcodes": "PUSH1 0x80 PUSH1 0x40 MSTORE CALLVALUE DUP1 ISZERO PUSH2 0x10 JUMPI PUSH1 0x0 DUP1 REVERT JUMPDEST POP PUSH2 0x3D17 DUP1 PUSH2 0x20 PUSH1 0x0 CODECOPY PUSH1 0x0 RETURN INVALID PUSH1 0x80 PUSH1 0x40 MSTORE CALLVALUE DUP1 ISZERO PUSH2 0x10 JUMPI PUSH1 0x0 DUP1 REVERT JUMPDEST POP PUSH1 0x4 CALLDATASIZE LT PUSH2 0x88 JUMPI PUSH1 0x0 CALLDATALOAD PUSH1 0xE0 SHR DUP1 PUSH4 0xB74083A3 GT PUSH2 0x5B JUMPI DUP1 PUSH4 0xB74083A3 EQ PUSH2 0x125 JUMPI DUP1 PUSH4 0xCC6CD16F EQ PUSH2 0x141 JUMPI DUP1 PUSH4 0xD9EC2719 EQ PUSH2 0x15D JUMPI DUP1 PUSH4 0xE7465D7B EQ PUSH2 0x18D JUMPI PUSH2 0x88 JUMP JUMPDEST DUP1 PUSH4 0x1496B84 EQ PUSH2 0x8D JUMPI DUP1 PUSH4 0x140AF0E2 EQ PUSH2 0xBD JUMPI DUP1 PUSH4 0x4EE37C28 EQ PUSH2 0xED JUMPI DUP1 PUSH4 0x958566BE EQ PUSH2 0x109 JUMPI JUMPDEST PUSH1 0x0 DUP1 REVERT JUMPDEST PUSH2 0xA7 PUSH1 0x4 DUP1 CALLDATASIZE SUB DUP2 ADD SWAP1 PUSH2 0xA2 SWAP2 SWAP1 PUSH2 0x2447 JUMP JUMPDEST PUSH2 0x1A9 JUMP JUMPDEST PUSH1 0x40 MLOAD PUSH2 0xB4 SWAP2 SWAP1 PUSH2 0x248F JUMP JUMPDEST PUSH1 0x40 MLOAD DUP1 SWAP2 SUB SWAP1 RETURN JUMPDEST PUSH2 0xD7 PUSH1 0x4 DUP1 CALLDATASIZE SUB DUP2 ADD SWAP1 PUSH2 0xD2 SWAP2 SWAP1 PUSH2 0x26D6 JUMP JUMPDEST PUSH2 0x529 JUMP JUMPDEST PUSH1 0x40 MLOAD PUSH2 0xE4 SWAP2 SWAP1 PUSH2 0x27B1 JUMP JUMPDEST PUSH1 0x40 MLOAD DUP1 SWAP2 SUB SWAP1 RETURN JUMPDEST PUSH2 0x107 PUSH1 0x4 DUP1 CALLDATASIZE SUB DUP2 ADD SWAP1 PUSH2 0x102 SWAP2 SWAP1 PUSH2 0x29C0 JUMP JUMPDEST PUSH2 0xB65 JUMP JUMPDEST STOP JUMPDEST PUSH2 0x123 PUSH1 0x4 DUP1 CALLDATASIZE SUB DUP2 ADD SWAP1 PUSH2 0x11E SWAP2 SWAP1 PUSH2 0x2A4B JUMP JUMPDEST PUSH2 0xF06 JUMP JUMPDEST STOP JUMPDEST PUSH2 0x13F PUSH1 0x4 DUP1 CALLDATASIZE SUB DUP2 ADD SWAP1 PUSH2 0x13A SWAP2 SWAP1 PUSH2 0x2BA1 JUMP JUMPDEST PUSH2 0x134D JUMP JUMPDEST STOP JUMPDEST PUSH2 0x15B PUSH1 0x4 DUP1 CALLDATASIZE SUB DUP2 ADD SWAP1 PUSH2 0x156 SWAP2 SWAP1 PUSH2 0x2C82 JUMP JUMPDEST PUSH2 0x16FB JUMP JUMPDEST STOP JUMPDEST PUSH2 0x177 PUSH1 0x4 DUP1 CALLDATASIZE SUB DUP2 ADD SWAP1 PUSH2 0x172 SWAP2 SWAP1 PUSH2 0x2447 JUMP JUMPDEST PUSH2 0x198A JUMP JUMPDEST PUSH1 0x40 MLOAD PUSH2 0x184 SWAP2 SWAP1 PUSH2 0x248F JUMP JUMPDEST PUSH1 0x40 MLOAD DUP1 SWAP2 SUB SWAP1 RETURN JUMPDEST PUSH2 0x1A7 PUSH1 0x4 DUP1 CALLDATASIZE SUB DUP2 ADD SWAP1 PUSH2 0x1A2 SWAP2 SWAP1 PUSH2 0x2C82 JUMP JUMPDEST PUSH2 0x1A33 JUMP JUMPDEST STOP JUMPDEST PUSH1 0x0 PUSH1 0x40 MLOAD PUSH1 0x20 ADD PUSH2 0x1BA SWAP1 PUSH2 0x2D64 JUMP JUMPDEST PUSH1 0x40 MLOAD PUSH1 0x20 DUP2 DUP4 SUB SUB DUP2 MSTORE SWAP1 PUSH1 0x40 MSTORE DUP1 MLOAD SWAP1 PUSH1 0x20 ADD KECCAK256 PUSH1 0x0 DUP1 DUP5 PUSH20 0xFFFFFFFFFFFFFFFFFFFFFFFFFFFFFFFFFFFFFFFF AND PUSH20 0xFFFFFFFFFFFFFFFFFFFFFFFFFFFFFFFFFFFFFFFF AND DUP2 MSTORE PUSH1 0x20 ADD SWAP1 DUP2 MSTORE PUSH1 0x20 ADD PUSH1 0x0 KECCAK256 PUSH1 0x0 ADD PUSH1 0x0 ADD PUSH1 0x40 MLOAD PUSH1 0x20 ADD PUSH2 0x224 SWAP2 SWAP1 PUSH2 0x2E71 JUMP JUMPDEST PUSH1 0x40 MLOAD PUSH1 0x20 DUP2 DUP4 SUB SUB DUP2 MSTORE SWAP1 PUSH1 0x40 MSTORE DUP1 MLOAD SWAP1 PUSH1 0x20 ADD KECCAK256 SUB PUSH2 0x27A JUMPI PUSH1 0x40 MLOAD PUSH32 0x8C379A000000000000000000000000000000000000000000000000000000000 DUP2 MSTORE PUSH1 0x4 ADD PUSH2 0x271 SWAP1 PUSH2 0x2ED4 JUMP JUMPDEST PUSH1 0x40 MLOAD DUP1 SWAP2 SUB SWAP1 REVERT JUMPDEST PUSH1 0x40 MLOAD DUP1 PUSH1 0x40 ADD PUSH1 0x40 MSTORE DUP1 PUSH1 0x4 DUP2 MSTORE PUSH1 0x20 ADD PUSH32 0x726F6F7400000000000000000000000000000000000000000000000000000000 DUP2 MSTORE POP PUSH1 0x0 DUP1 DUP5 PUSH20 0xFFFFFFFFFFFFFFFFFFFFFFFFFFFFFFFFFFFFFFFF AND PUSH20 0xFFFFFFFFFFFFFFFFFFFFFFFFFFFFFFFFFFFFFFFF AND DUP2 MSTORE PUSH1 0x20 ADD SWAP1 DUP2 MSTORE PUSH1 0x20 ADD PUSH1 0x0 KECCAK256 PUSH1 0x0 ADD PUSH1 0x0 ADD SWAP1 DUP2 PUSH2 0x300 SWAP2 SWAP1 PUSH2 0x308B JUMP JUMPDEST POP DUP2 PUSH1 0x0 DUP1 DUP5 PUSH20 0xFFFFFFFFFFFFFFFFFFFFFFFFFFFFFFFFFFFFFFFF AND PUSH20 0xFFFFFFFFFFFFFFFFFFFFFFFFFFFFFFFFFFFFFFFF AND DUP2 MSTORE PUSH1 0x20 ADD SWAP1 DUP2 MSTORE PUSH1 0x20 ADD PUSH1 0x0 KECCAK256 PUSH1 0x0 ADD PUSH1 0x1 ADD PUSH1 0x0 PUSH2 0x100 EXP DUP2 SLOAD DUP2 PUSH20 0xFFFFFFFFFFFFFFFFFFFFFFFFFFFFFFFFFFFFFFFF MUL NOT AND SWAP1 DUP4 PUSH20 0xFFFFFFFFFFFFFFFFFFFFFFFFFFFFFFFFFFFFFFFF AND MUL OR SWAP1 SSTORE POP TIMESTAMP PUSH1 0x0 DUP1 DUP5 PUSH20 0xFFFFFFFFFFFFFFFFFFFFFFFFFFFFFFFFFFFFFFFF AND PUSH20 0xFFFFFFFFFFFFFFFFFFFFFFFFFFFFFFFFFFFFFFFF AND DUP2 MSTORE PUSH1 0x20 ADD SWAP1 DUP2 MSTORE PUSH1 0x20 ADD PUSH1 0x0 KECCAK256 PUSH1 0x0 ADD PUSH1 0x2 ADD DUP2 SWAP1 SSTORE POP PUSH1 0x40 MLOAD DUP1 PUSH1 0x40 ADD PUSH1 0x40 MSTORE DUP1 PUSH1 0xB DUP2 MSTORE PUSH1 0x20 ADD PUSH32 0x7368617265645370616365000000000000000000000000000000000000000000 DUP2 MSTORE POP PUSH1 0x0 DUP1 DUP5 PUSH20 0xFFFFFFFFFFFFFFFFFFFFFFFFFFFFFFFFFFFFFFFF AND PUSH20 0xFFFFFFFFFFFFFFFFFFFFFFFFFFFFFFFFFFFFFFFF AND DUP2 MSTORE PUSH1 0x20 ADD SWAP1 DUP2 MSTORE PUSH1 0x20 ADD PUSH1 0x0 KECCAK256 PUSH1 0x5 ADD PUSH1 0x0 ADD SWAP1 DUP2 PUSH2 0x453 SWAP2 SWAP1 PUSH2 0x308B JUMP JUMPDEST POP DUP2 PUSH1 0x0 DUP1 DUP5 PUSH20 0xFFFFFFFFFFFFFFFFFFFFFFFFFFFFFFFFFFFFFFFF AND PUSH20 0xFFFFFFFFFFFFFFFFFFFFFFFFFFFFFFFFFFFFFFFF AND DUP2 MSTORE PUSH1 0x20 ADD SWAP1 DUP2 MSTORE PUSH1 0x20 ADD PUSH1 0x0 KECCAK256 PUSH1 0x5 ADD PUSH1 0x1 ADD PUSH1 0x0 PUSH2 0x100 EXP DUP2 SLOAD DUP2 PUSH20 0xFFFFFFFFFFFFFFFFFFFFFFFFFFFFFFFFFFFFFFFF MUL NOT AND SWAP1 DUP4 PUSH20 0xFFFFFFFFFFFFFFFFFFFFFFFFFFFFFFFFFFFFFFFF AND MUL OR SWAP1 SSTORE POP TIMESTAMP PUSH1 0x0 DUP1 DUP5 PUSH20 0xFFFFFFFFFFFFFFFFFFFFFFFFFFFFFFFFFFFFFFFF AND PUSH20 0xFFFFFFFFFFFFFFFFFFFFFFFFFFFFFFFFFFFFFFFF AND DUP2 MSTORE PUSH1 0x20 ADD SWAP1 DUP2 MSTORE PUSH1 0x20 ADD PUSH1 0x0 KECCAK256 PUSH1 0x5 ADD PUSH1 0x2 ADD DUP2 SWAP1 SSTORE POP PUSH1 0x1 SWAP1 POP SWAP2 SWAP1 POP JUMP JUMPDEST PUSH1 0x60 PUSH2 0x534 DUP3 PUSH2 0x198A JUMP JUMPDEST PUSH2 0x573 JUMPI PUSH1 0x40 MLOAD PUSH32 0x8C379A000000000000000000000000000000000000000000000000000000000 DUP2 MSTORE PUSH1 0x4 ADD PUSH2 0x56A SWAP1 PUSH2 0x31A9 JUMP JUMPDEST PUSH1 0x40 MLOAD DUP1 SWAP2 SUB SWAP1 REVERT JUMPDEST PUSH1 0x0 DUP1 PUSH1 0x0 DUP5 PUSH20 0xFFFFFFFFFFFFFFFFFFFFFFFFFFFFFFFFFFFFFFFF AND PUSH20 0xFFFFFFFFFFFFFFFFFFFFFFFFFFFFFFFFFFFFFFFF AND DUP2 MSTORE PUSH1 0x20 ADD SWAP1 DUP2 MSTORE PUSH1 0x20 ADD PUSH1 0x0 KECCAK256 PUSH1 0x0 ADD SWAP1 POP PUSH1 0x1 DUP5 MLOAD GT ISZERO PUSH2 0x705 JUMPI PUSH1 0x0 PUSH1 0x1 SWAP1 POP JUMPDEST DUP5 MLOAD DUP2 LT ISZERO PUSH2 0x703 JUMPI PUSH1 0x0 DUP1 JUMPDEST DUP4 PUSH1 0x4 ADD DUP1 SLOAD SWAP1 POP DUP2 LT ISZERO PUSH2 0x6B4 JUMPI DUP7 DUP4 DUP2 MLOAD DUP2 LT PUSH2 0x5F8 JUMPI PUSH2 0x5F7 PUSH2 0x31C9 JUMP JUMPDEST JUMPDEST PUSH1 0x20 MUL PUSH1 0x20 ADD ADD MLOAD PUSH1 0x40 MLOAD PUSH1 0x20 ADD PUSH2 0x610 SWAP2 SWAP1 PUSH2 0x3229 JUMP JUMPDEST PUSH1 0x40 MLOAD PUSH1 0x20 DUP2 DUP4 SUB SUB DUP2 MSTORE SWAP1 PUSH1 0x40 MSTORE DUP1 MLOAD SWAP1 PUSH1 0x20 ADD KECCAK256 DUP5 PUSH1 0x4 ADD DUP3 DUP2 SLOAD DUP2 LT PUSH2 0x63C JUMPI PUSH2 0x63B PUSH2 0x31C9 JUMP JUMPDEST JUMPDEST SWAP1 PUSH1 0x0 MSTORE PUSH1 0x20 PUSH1 0x0 KECCAK256 SWAP1 PUSH1 0x5 MUL ADD PUSH1 0x0 ADD PUSH1 0x40 MLOAD PUSH1 0x20 ADD PUSH2 0x65D SWAP2 SWAP1 PUSH2 0x2E71 JUMP JUMPDEST PUSH1 0x40 MLOAD PUSH1 0x20 DUP2 DUP4 SUB SUB DUP2 MSTORE SWAP1 PUSH1 0x40 MSTORE DUP1 MLOAD SWAP1 PUSH1 0x20 ADD KECCAK256 SUB PUSH2 0x6A7 JUMPI DUP4 PUSH1 0x4 ADD DUP2 DUP2 SLOAD DUP2 LT PUSH2 0x68E JUMPI PUSH2 0x68D PUSH2 0x31C9 JUMP JUMPDEST JUMPDEST SWAP1 PUSH1 0x0 MSTORE PUSH1 0x20 PUSH1 0x0 KECCAK256 SWAP1 PUSH1 0x5 MUL ADD SWAP4 POP PUSH1 0x1 SWAP2 POP PUSH2 0x6B4 JUMP JUMPDEST DUP1 DUP1 PUSH1 0x1 ADD SWAP2 POP POP PUSH2 0x5D6 JUMP JUMPDEST POP DUP1 PUSH2 0x6F5 JUMPI PUSH1 0x40 MLOAD PUSH32 0x8C379A000000000000000000000000000000000000000000000000000000000 DUP2 MSTORE PUSH1 0x4 ADD PUSH2 0x6EC SWAP1 PUSH2 0x328C JUMP JUMPDEST PUSH1 0x40 MLOAD DUP1 SWAP2 SUB SWAP1 REVERT JUMPDEST POP DUP1 DUP1 PUSH1 0x1 ADD SWAP2 POP POP PUSH2 0x5C9 JUMP JUMPDEST POP JUMPDEST PUSH1 0x0 DUP2 PUSH1 0x0 ADD PUSH2 0x738 DUP4 PUSH1 0x1 ADD PUSH1 0x0 SWAP1 SLOAD SWAP1 PUSH2 0x100 EXP SWAP1 DIV PUSH20 0xFFFFFFFFFFFFFFFFFFFFFFFFFFFFFFFFFFFFFFFF AND PUSH2 0x1EEB JUMP JUMPDEST PUSH2 0x745 DUP5 PUSH1 0x2 ADD SLOAD PUSH2 0x21F0 JUMP JUMPDEST PUSH1 0x40 MLOAD PUSH1 0x20 ADD PUSH2 0x757 SWAP4 SWAP3 SWAP2 SWAP1 PUSH2 0x33DC JUMP JUMPDEST PUSH1 0x40 MLOAD PUSH1 0x20 DUP2 DUP4 SUB SUB DUP2 MSTORE SWAP1 PUSH1 0x40 MSTORE SWAP1 POP PUSH1 0x0 DUP3 PUSH1 0x3 ADD DUP1 SLOAD SWAP1 POP GT ISZERO PUSH2 0x972 JUMPI DUP1 PUSH1 0x40 MLOAD PUSH1 0x20 ADD PUSH2 0x789 SWAP2 SWAP1 PUSH2 0x3485 JUMP JUMPDEST PUSH1 0x40 MLOAD PUSH1 0x20 DUP2 DUP4 SUB SUB DUP2 MSTORE SWAP1 PUSH1 0x40 MSTORE SWAP1 POP PUSH1 0x0 JUMPDEST DUP3 PUSH1 0x3 ADD DUP1 SLOAD SWAP1 POP DUP2 LT ISZERO PUSH2 0x94E JUMPI PUSH1 0x0 DUP4 PUSH1 0x3 ADD DUP3 DUP2 SLOAD DUP2 LT PUSH2 0x7C4 JUMPI PUSH2 0x7C3 PUSH2 0x31C9 JUMP JUMPDEST JUMPDEST SWAP1 PUSH1 0x0 MSTORE PUSH1 0x20 PUSH1 0x0 KECCAK256 SWAP1 PUSH1 0x6 MUL ADD SWAP1 POP PUSH1 0x0 DUP2 PUSH1 0x0 ADD DUP1 SLOAD PUSH2 0x7E5 SWAP1 PUSH2 0x2DA8 JUMP JUMPDEST SWAP1 POP GT DUP1 ISZERO PUSH2 0x804 JUMPI POP PUSH1 0x0 DUP2 PUSH1 0x1 ADD DUP1 SLOAD PUSH2 0x800 SWAP1 PUSH2 0x2DA8 JUMP JUMPDEST SWAP1 POP GT JUMPDEST DUP1 ISZERO PUSH2 0x814 JUMPI POP PUSH1 0x0 DUP2 PUSH1 0x2 ADD SLOAD GT JUMPDEST DUP1 ISZERO PUSH2 0x824 JUMPI POP PUSH1 0x0 DUP2 PUSH1 0x3 ADD SLOAD GT JUMPDEST DUP1 ISZERO PUSH2 0x881 JUMPI POP PUSH1 0x0 PUSH20 0xFFFFFFFFFFFFFFFFFFFFFFFFFFFFFFFFFFFFFFFF AND DUP2 PUSH1 0x4 ADD PUSH1 0x0 SWAP1 SLOAD SWAP1 PUSH2 0x100 EXP SWAP1 DIV PUSH20 0xFFFFFFFFFFFFFFFFFFFFFFFFFFFFFFFFFFFFFFFF AND PUSH20 0xFFFFFFFFFFFFFFFFFFFFFFFFFFFFFFFFFFFFFFFF AND EQ ISZERO JUMPDEST ISZERO PUSH2 0x940 JUMPI DUP3 DUP2 PUSH1 0x0 ADD DUP3 PUSH1 0x1 ADD PUSH2 0x89C DUP5 PUSH1 0x2 ADD SLOAD PUSH2 0x21F0 JUMP JUMPDEST PUSH2 0x8A9 DUP6 PUSH1 0x3 ADD SLOAD PUSH2 0x21F0 JUMP JUMPDEST PUSH2 0x8D6 DUP7 PUSH1 0x4 ADD PUSH1 0x0 SWAP1 SLOAD SWAP1 PUSH2 0x100 EXP SWAP1 DIV PUSH20 0xFFFFFFFFFFFFFFFFFFFFFFFFFFFFFFFFFFFFFFFF AND PUSH2 0x1EEB JUMP JUMPDEST DUP7 PUSH1 0x5 ADD PUSH1 0x40 MLOAD PUSH1 0x20 ADD PUSH2 0x8F0 SWAP8 SWAP7 SWAP6 SWAP5 SWAP4 SWAP3 SWAP2 SWAP1 PUSH2 0x35D7 JUMP JUMPDEST PUSH1 0x40 MLOAD PUSH1 0x20 DUP2 DUP4 SUB SUB DUP2 MSTORE SWAP1 PUSH1 0x40 MSTORE SWAP3 POP PUSH1 0x1 DUP5 PUSH1 0x3 ADD DUP1 SLOAD SWAP1 POP PUSH2 0x915 SWAP2 SWAP1 PUSH2 0x36B8 JUMP JUMPDEST DUP3 LT ISZERO PUSH2 0x93F JUMPI DUP3 PUSH1 0x40 MLOAD PUSH1 0x20 ADD PUSH2 0x92D SWAP2 SWAP1 PUSH2 0x3738 JUMP JUMPDEST PUSH1 0x40 MLOAD PUSH1 0x20 DUP2 DUP4 SUB SUB DUP2 MSTORE SWAP1 PUSH1 0x40 MSTORE SWAP3 POP JUMPDEST JUMPDEST POP DUP1 DUP1 PUSH1 0x1 ADD SWAP2 POP POP PUSH2 0x79D JUMP JUMPDEST POP DUP1 PUSH1 0x40 MLOAD PUSH1 0x20 ADD PUSH2 0x960 SWAP2 SWAP1 PUSH2 0x37A6 JUMP JUMPDEST PUSH1 0x40 MLOAD PUSH1 0x20 DUP2 DUP4 SUB SUB DUP2 MSTORE SWAP1 PUSH1 0x40 MSTORE SWAP1 POP JUMPDEST PUSH1 0x0 DUP3 PUSH1 0x4 ADD DUP1 SLOAD SWAP1 POP GT ISZERO PUSH2 0xB38 JUMPI DUP1 PUSH1 0x40 MLOAD PUSH1 0x20 ADD PUSH2 0x993 SWAP2 SWAP1 PUSH2 0x3814 JUMP JUMPDEST PUSH1 0x40 MLOAD PUSH1 0x20 DUP2 DUP4 SUB SUB DUP2 MSTORE SWAP1 PUSH1 0x40 MSTORE SWAP1 POP PUSH1 0x0 JUMPDEST DUP3 PUSH1 0x4 ADD DUP1 SLOAD SWAP1 POP DUP2 LT ISZERO PUSH2 0xB14 JUMPI PUSH1 0x0 DUP4 PUSH1 0x4 ADD DUP3 DUP2 SLOAD DUP2 LT PUSH2 0x9CE JUMPI PUSH2 0x9CD PUSH2 0x31C9 JUMP JUMPDEST JUMPDEST SWAP1 PUSH1 0x0 MSTORE PUSH1 0x20 PUSH1 0x0 KECCAK256 SWAP1 PUSH1 0x5 MUL ADD SWAP1 POP PUSH1 0x0 DUP2 PUSH1 0x0 ADD DUP1 SLOAD PUSH2 0x9EF SWAP1 PUSH2 0x2DA8 JUMP JUMPDEST SWAP1 POP GT DUP1 ISZERO PUSH2 0xA4F JUMPI POP PUSH1 0x0 PUSH20 0xFFFFFFFFFFFFFFFFFFFFFFFFFFFFFFFFFFFFFFFF AND DUP2 PUSH1 0x1 ADD PUSH1 0x0 SWAP1 SLOAD SWAP1 PUSH2 0x100 EXP SWAP1 DIV PUSH20 0xFFFFFFFFFFFFFFFFFFFFFFFFFFFFFFFFFFFFFFFF AND PUSH20 0xFFFFFFFFFFFFFFFFFFFFFFFFFFFFFFFFFFFFFFFF AND EQ ISZERO JUMPDEST DUP1 ISZERO PUSH2 0xA5F JUMPI POP PUSH1 0x0 DUP2 PUSH1 0x2 ADD SLOAD GT JUMPDEST ISZERO PUSH2 0xB06 JUMPI DUP3 DUP2 PUSH1 0x0 ADD PUSH2 0xA96 DUP4 PUSH1 0x1 ADD PUSH1 0x0 SWAP1 SLOAD SWAP1 PUSH2 0x100 EXP SWAP1 DIV PUSH20 0xFFFFFFFFFFFFFFFFFFFFFFFFFFFFFFFFFFFFFFFF AND PUSH2 0x1EEB JUMP JUMPDEST PUSH2 0xAA3 DUP5 PUSH1 0x2 ADD SLOAD PUSH2 0x21F0 JUMP JUMPDEST PUSH1 0x40 MLOAD PUSH1 0x20 ADD PUSH2 0xAB6 SWAP5 SWAP4 SWAP3 SWAP2 SWAP1 PUSH2 0x3836 JUMP JUMPDEST PUSH1 0x40 MLOAD PUSH1 0x20 DUP2 DUP4 SUB SUB DUP2 MSTORE SWAP1 PUSH1 0x40 MSTORE SWAP3 POP PUSH1 0x1 DUP5 PUSH1 0x4 ADD DUP1 SLOAD SWAP1 POP PUSH2 0xADB SWAP2 SWAP1 PUSH2 0x36B8 JUMP JUMPDEST DUP3 LT ISZERO PUSH2 0xB05 JUMPI DUP3 PUSH1 0x40 MLOAD PUSH1 0x20 ADD PUSH2 0xAF3 SWAP2 SWAP1 PUSH2 0x3738 JUMP JUMPDEST PUSH1 0x40 MLOAD PUSH1 0x20 DUP2 DUP4 SUB SUB DUP2 MSTORE SWAP1 PUSH1 0x40 MSTORE SWAP3 POP JUMPDEST JUMPDEST POP DUP1 DUP1 PUSH1 0x1 ADD SWAP2 POP POP PUSH2 0x9A7 JUMP JUMPDEST POP DUP1 PUSH1 0x40 MLOAD PUSH1 0x20 ADD PUSH2 0xB26 SWAP2 SWAP1 PUSH2 0x37A6 JUMP JUMPDEST PUSH1 0x40 MLOAD PUSH1 0x20 DUP2 DUP4 SUB SUB DUP2 MSTORE SWAP1 PUSH1 0x40 MSTORE SWAP1 POP JUMPDEST DUP1 PUSH1 0x40 MLOAD PUSH1 0x20 ADD PUSH2 0xB49 SWAP2 SWAP1 PUSH2 0x38EC JUMP JUMPDEST PUSH1 0x40 MLOAD PUSH1 0x20 DUP2 DUP4 SUB SUB DUP2 MSTORE SWAP1 PUSH1 0x40 MSTORE SWAP1 POP DUP1 SWAP3 POP POP POP SWAP3 SWAP2 POP POP JUMP JUMPDEST PUSH2 0xB6E DUP2 PUSH2 0x198A JUMP JUMPDEST PUSH2 0xBAD JUMPI PUSH1 0x40 MLOAD PUSH32 0x8C379A000000000000000000000000000000000000000000000000000000000 DUP2 MSTORE PUSH1 0x4 ADD PUSH2 0xBA4 SWAP1 PUSH2 0x31A9 JUMP JUMPDEST PUSH1 0x40 MLOAD DUP1 SWAP2 SUB SWAP1 REVERT JUMPDEST PUSH1 0x0 DUP1 PUSH1 0x0 DUP4 PUSH20 0xFFFFFFFFFFFFFFFFFFFFFFFFFFFFFFFFFFFFFFFF AND PUSH20 0xFFFFFFFFFFFFFFFFFFFFFFFFFFFFFFFFFFFFFFFF AND DUP2 MSTORE PUSH1 0x20 ADD SWAP1 DUP2 MSTORE PUSH1 0x20 ADD PUSH1 0x0 KECCAK256 PUSH1 0x0 ADD SWAP1 POP PUSH1 0x0 PUSH1 0x1 SWAP1 POP JUMPDEST DUP5 MLOAD DUP2 LT ISZERO PUSH2 0xD5E JUMPI PUSH1 0x0 DUP1 JUMPDEST DUP4 PUSH1 0x4 ADD DUP1 SLOAD SWAP1 POP DUP2 LT ISZERO PUSH2 0xCE4 JUMPI DUP7 DUP4 DUP2 MLOAD DUP2 LT PUSH2 0xC28 JUMPI PUSH2 0xC27 PUSH2 0x31C9 JUMP JUMPDEST JUMPDEST PUSH1 0x20 MUL PUSH1 0x20 ADD ADD MLOAD PUSH1 0x40 MLOAD PUSH1 0x20 ADD PUSH2 0xC40 SWAP2 SWAP1 PUSH2 0x3229 JUMP JUMPDEST PUSH1 0x40 MLOAD PUSH1 0x20 DUP2 DUP4 SUB SUB DUP2 MSTORE SWAP1 PUSH1 0x40 MSTORE DUP1 MLOAD SWAP1 PUSH1 0x20 ADD KECCAK256 DUP5 PUSH1 0x4 ADD DUP3 DUP2 SLOAD DUP2 LT PUSH2 0xC6C JUMPI PUSH2 0xC6B PUSH2 0x31C9 JUMP JUMPDEST JUMPDEST SWAP1 PUSH1 0x0 MSTORE PUSH1 0x20 PUSH1 0x0 KECCAK256 SWAP1 PUSH1 0x5 MUL ADD PUSH1 0x0 ADD PUSH1 0x40 MLOAD PUSH1 0x20 ADD PUSH2 0xC8D SWAP2 SWAP1 PUSH2 0x2E71 JUMP JUMPDEST PUSH1 0x40 MLOAD PUSH1 0x20 DUP2 DUP4 SUB SUB DUP2 MSTORE SWAP1 PUSH1 0x40 MSTORE DUP1 MLOAD SWAP1 PUSH1 0x20 ADD KECCAK256 SUB PUSH2 0xCD7 JUMPI DUP4 PUSH1 0x4 ADD DUP2 DUP2 SLOAD DUP2 LT PUSH2 0xCBE JUMPI PUSH2 0xCBD PUSH2 0x31C9 JUMP JUMPDEST JUMPDEST SWAP1 PUSH1 0x0 MSTORE PUSH1 0x20 PUSH1 0x0 KECCAK256 SWAP1 PUSH1 0x5 MUL ADD SWAP4 POP PUSH1 0x1 SWAP2 POP PUSH2 0xCE4 JUMP JUMPDEST DUP1 DUP1 PUSH1 0x1 ADD SWAP2 POP POP PUSH2 0xC06 JUMP JUMPDEST POP DUP1 PUSH2 0xCEF DUP4 PUSH2 0x21F0 JUMP JUMPDEST PUSH1 0x40 MLOAD PUSH1 0x20 ADD PUSH2 0xCFF SWAP2 SWAP1 PUSH2 0x395A JUMP JUMPDEST PUSH1 0x40 MLOAD PUSH1 0x20 DUP2 DUP4 SUB SUB DUP2 MSTORE SWAP1 PUSH1 0x40 MSTORE SWAP1 PUSH2 0xD4F JUMPI PUSH1 0x40 MLOAD PUSH32 0x8C379A000000000000000000000000000000000000000000000000000000000 DUP2 MSTORE PUSH1 0x4 ADD PUSH2 0xD46 SWAP2 SWAP1 PUSH2 0x27B1 JUMP JUMPDEST PUSH1 0x40 MLOAD DUP1 SWAP2 SUB SWAP1 REVERT JUMPDEST POP POP DUP1 DUP1 PUSH1 0x1 ADD SWAP2 POP POP PUSH2 0xBF9 JUMP JUMPDEST POP PUSH1 0x0 JUMPDEST DUP4 MLOAD DUP2 LT ISZERO PUSH2 0xEFF JUMPI DUP2 PUSH1 0x3 ADD PUSH1 0x40 MLOAD DUP1 PUSH1 0xC0 ADD PUSH1 0x40 MSTORE DUP1 DUP7 DUP5 DUP2 MLOAD DUP2 LT PUSH2 0xD8D JUMPI PUSH2 0xD8C PUSH2 0x31C9 JUMP JUMPDEST JUMPDEST PUSH1 0x20 MUL PUSH1 0x20 ADD ADD MLOAD PUSH1 0x0 ADD MLOAD DUP2 MSTORE PUSH1 0x20 ADD DUP7 DUP5 DUP2 MLOAD DUP2 LT PUSH2 0xDB1 JUMPI PUSH2 0xDB0 PUSH2 0x31C9 JUMP JUMPDEST JUMPDEST PUSH1 0x20 MUL PUSH1 0x20 ADD ADD MLOAD PUSH1 0x20 ADD MLOAD DUP2 MSTORE PUSH1 0x20 ADD DUP7 DUP5 DUP2 MLOAD DUP2 LT PUSH2 0xDD5 JUMPI PUSH2 0xDD4 PUSH2 0x31C9 JUMP JUMPDEST JUMPDEST PUSH1 0x20 MUL PUSH1 0x20 ADD ADD MLOAD PUSH1 0x40 ADD MLOAD DUP2 MSTORE PUSH1 0x20 ADD TIMESTAMP DUP2 MSTORE PUSH1 0x20 ADD DUP6 PUSH20 0xFFFFFFFFFFFFFFFFFFFFFFFFFFFFFFFFFFFFFFFF AND DUP2 MSTORE PUSH1 0x20 ADD DUP7 DUP5 DUP2 MLOAD DUP2 LT PUSH2 0xE1B JUMPI PUSH2 0xE1A PUSH2 0x31C9 JUMP JUMPDEST JUMPDEST PUSH1 0x20 MUL PUSH1 0x20 ADD ADD MLOAD PUSH1 0x60 ADD MLOAD DUP2 MSTORE POP SWAP1 DUP1 PUSH1 0x1 DUP2 SLOAD ADD DUP1 DUP3 SSTORE DUP1 SWAP2 POP POP PUSH1 0x1 SWAP1 SUB SWAP1 PUSH1 0x0 MSTORE PUSH1 0x20 PUSH1 0x0 KECCAK256 SWAP1 PUSH1 0x6 MUL ADD PUSH1 0x0 SWAP1 SWAP2 SWAP1 SWAP2 SWAP1 SWAP2 POP PUSH1 0x0 DUP3 ADD MLOAD DUP2 PUSH1 0x0 ADD SWAP1 DUP2 PUSH2 0xE68 SWAP2 SWAP1 PUSH2 0x308B JUMP JUMPDEST POP PUSH1 0x20 DUP3 ADD MLOAD DUP2 PUSH1 0x1 ADD SWAP1 DUP2 PUSH2 0xE7E SWAP2 SWAP1 PUSH2 0x308B JUMP JUMPDEST POP PUSH1 0x40 DUP3 ADD MLOAD DUP2 PUSH1 0x2 ADD SSTORE PUSH1 0x60 DUP3 ADD MLOAD DUP2 PUSH1 0x3 ADD SSTORE PUSH1 0x80 DUP3 ADD MLOAD DUP2 PUSH1 0x4 ADD PUSH1 0x0 PUSH2 0x100 EXP DUP2 SLOAD DUP2 PUSH20 0xFFFFFFFFFFFFFFFFFFFFFFFFFFFFFFFFFFFFFFFF MUL NOT AND SWAP1 DUP4 PUSH20 0xFFFFFFFFFFFFFFFFFFFFFFFFFFFFFFFFFFFFFFFF AND MUL OR SWAP1 SSTORE POP PUSH1 0xA0 DUP3 ADD MLOAD DUP2 PUSH1 0x5 ADD SWAP1 DUP2 PUSH2 0xEEF SWAP2 SWAP1 PUSH2 0x308B JUMP JUMPDEST POP POP POP DUP1 DUP1 PUSH1 0x1 ADD SWAP2 POP POP PUSH2 0xD62 JUMP JUMPDEST POP POP POP POP POP JUMP JUMPDEST PUSH2 0xF0F DUP2 PUSH2 0x198A JUMP JUMPDEST PUSH2 0xF4E JUMPI PUSH1 0x40 MLOAD PUSH32 0x8C379A000000000000000000000000000000000000000000000000000000000 DUP2 MSTORE PUSH1 0x4 ADD PUSH2 0xF45 SWAP1 PUSH2 0x31A9 JUMP JUMPDEST PUSH1 0x40 MLOAD DUP1 SWAP2 SUB SWAP1 REVERT JUMPDEST PUSH1 0x0 DUP1 PUSH1 0x0 DUP4 PUSH20 0xFFFFFFFFFFFFFFFFFFFFFFFFFFFFFFFFFFFFFFFF AND PUSH20 0xFFFFFFFFFFFFFFFFFFFFFFFFFFFFFFFFFFFFFFFF AND DUP2 MSTORE PUSH1 0x20 ADD SWAP1 DUP2 MSTORE PUSH1 0x20 ADD PUSH1 0x0 KECCAK256 PUSH1 0x0 ADD SWAP1 POP PUSH1 0x0 PUSH1 0x1 SWAP1 POP JUMPDEST DUP11 MLOAD DUP2 LT ISZERO PUSH2 0x10FF JUMPI PUSH1 0x0 DUP1 JUMPDEST DUP4 PUSH1 0x4 ADD DUP1 SLOAD SWAP1 POP DUP2 LT ISZERO PUSH2 0x1085 JUMPI DUP13 DUP4 DUP2 MLOAD DUP2 LT PUSH2 0xFC9 JUMPI PUSH2 0xFC8 PUSH2 0x31C9 JUMP JUMPDEST JUMPDEST PUSH1 0x20 MUL PUSH1 0x20 ADD ADD MLOAD PUSH1 0x40 MLOAD PUSH1 0x20 ADD PUSH2 0xFE1 SWAP2 SWAP1 PUSH2 0x3229 JUMP JUMPDEST PUSH1 0x40 MLOAD PUSH1 0x20 DUP2 DUP4 SUB SUB DUP2 MSTORE SWAP1 PUSH1 0x40 MSTORE DUP1 MLOAD SWAP1 PUSH1 0x20 ADD KECCAK256 DUP5 PUSH1 0x4 ADD DUP3 DUP2 SLOAD DUP2 LT PUSH2 0x100D JUMPI PUSH2 0x100C PUSH2 0x31C9 JUMP JUMPDEST JUMPDEST SWAP1 PUSH1 0x0 MSTORE PUSH1 0x20 PUSH1 0x0 KECCAK256 SWAP1 PUSH1 0x5 MUL ADD PUSH1 0x0 ADD PUSH1 0x40 MLOAD PUSH1 0x20 ADD PUSH2 0x102E SWAP2 SWAP1 PUSH2 0x2E71 JUMP JUMPDEST PUSH1 0x40 MLOAD PUSH1 0x20 DUP2 DUP4 SUB SUB DUP2 MSTORE SWAP1 PUSH1 0x40 MSTORE DUP1 MLOAD SWAP1 PUSH1 0x20 ADD KECCAK256 SUB PUSH2 0x1078 JUMPI DUP4 PUSH1 0x4 ADD DUP2 DUP2 SLOAD DUP2 LT PUSH2 0x105F JUMPI PUSH2 0x105E PUSH2 0x31C9 JUMP JUMPDEST JUMPDEST SWAP1 PUSH1 0x0 MSTORE PUSH1 0x20 PUSH1 0x0 KECCAK256 SWAP1 PUSH1 0x5 MUL ADD SWAP4 POP PUSH1 0x1 SWAP2 POP PUSH2 0x1085 JUMP JUMPDEST DUP1 DUP1 PUSH1 0x1 ADD SWAP2 POP POP PUSH2 0xFA7 JUMP JUMPDEST POP DUP1 PUSH2 0x1090 DUP4 PUSH2 0x21F0 JUMP JUMPDEST PUSH1 0x40 MLOAD PUSH1 0x20 ADD PUSH2 0x10A0 SWAP2 SWAP1 PUSH2 0x395A JUMP JUMPDEST PUSH1 0x40 MLOAD PUSH1 0x20 DUP2 DUP4 SUB SUB DUP2 MSTORE SWAP1 PUSH1 0x40 MSTORE SWAP1 PUSH2 0x10F0 JUMPI PUSH1 0x40 MLOAD PUSH32 0x8C379A000000000000000000000000000000000000000000000000000000000 DUP2 MSTORE PUSH1 0x4 ADD PUSH2 0x10E7 SWAP2 SWAP1 PUSH2 0x27B1 JUMP JUMPDEST PUSH1 0x40 MLOAD DUP1 SWAP2 SUB SWAP1 REVERT JUMPDEST POP POP DUP1 DUP1 PUSH1 0x1 ADD SWAP2 POP POP PUSH2 0xF9A JUMP JUMPDEST POP PUSH1 0x0 DUP1 JUMPDEST DUP3 PUSH1 0x3 ADD DUP1 SLOAD SWAP1 POP DUP2 LT ISZERO PUSH2 0x12FF JUMPI DUP11 PUSH1 0x40 MLOAD PUSH1 0x20 ADD PUSH2 0x1124 SWAP2 SWAP1 PUSH2 0x3229 JUMP JUMPDEST PUSH1 0x40 MLOAD PUSH1 0x20 DUP2 DUP4 SUB SUB DUP2 MSTORE SWAP1 PUSH1 0x40 MSTORE DUP1 MLOAD SWAP1 PUSH1 0x20 ADD KECCAK256 DUP4 PUSH1 0x3 ADD DUP3 DUP2 SLOAD DUP2 LT PUSH2 0x1150 JUMPI PUSH2 0x114F PUSH2 0x31C9 JUMP JUMPDEST JUMPDEST SWAP1 PUSH1 0x0 MSTORE PUSH1 0x20 PUSH1 0x0 KECCAK256 SWAP1 PUSH1 0x6 MUL ADD PUSH1 0x0 ADD PUSH1 0x40 MLOAD PUSH1 0x20 ADD PUSH2 0x1171 SWAP2 SWAP1 PUSH2 0x2E71 JUMP JUMPDEST PUSH1 0x40 MLOAD PUSH1 0x20 DUP2 DUP4 SUB SUB DUP2 MSTORE SWAP1 PUSH1 0x40 MSTORE DUP1 MLOAD SWAP1 PUSH1 0x20 ADD KECCAK256 SUB PUSH2 0x12F2 JUMPI PUSH1 0x1 SWAP2 POP DUP10 DUP4 PUSH1 0x3 ADD DUP3 DUP2 SLOAD DUP2 LT PUSH2 0x11A7 JUMPI PUSH2 0x11A6 PUSH2 0x31C9 JUMP JUMPDEST JUMPDEST SWAP1 PUSH1 0x0 MSTORE PUSH1 0x20 PUSH1 0x0 KECCAK256 SWAP1 PUSH1 0x6 MUL ADD PUSH1 0x0 ADD SWAP1 DUP2 PUSH2 0x11C4 SWAP2 SWAP1 PUSH2 0x308B JUMP JUMPDEST POP DUP9 DUP4 PUSH1 0x3 ADD DUP3 DUP2 SLOAD DUP2 LT PUSH2 0x11DC JUMPI PUSH2 0x11DB PUSH2 0x31C9 JUMP JUMPDEST JUMPDEST SWAP1 PUSH1 0x0 MSTORE PUSH1 0x20 PUSH1 0x0 KECCAK256 SWAP1 PUSH1 0x6 MUL ADD PUSH1 0x1 ADD SWAP1 DUP2 PUSH2 0x11F9 SWAP2 SWAP1 PUSH2 0x308B JUMP JUMPDEST POP DUP8 DUP4 PUSH1 0x3 ADD DUP3 DUP2 SLOAD DUP2 LT PUSH2 0x1211 JUMPI PUSH2 0x1210 PUSH2 0x31C9 JUMP JUMPDEST JUMPDEST SWAP1 PUSH1 0x0 MSTORE PUSH1 0x20 PUSH1 0x0 KECCAK256 SWAP1 PUSH1 0x6 MUL ADD PUSH1 0x2 ADD DUP2 SWAP1 SSTORE POP DUP7 DUP4 PUSH1 0x3 ADD DUP3 DUP2 SLOAD DUP2 LT PUSH2 0x123D JUMPI PUSH2 0x123C PUSH2 0x31C9 JUMP JUMPDEST JUMPDEST SWAP1 PUSH1 0x0 MSTORE PUSH1 0x20 PUSH1 0x0 KECCAK256 SWAP1 PUSH1 0x6 MUL ADD PUSH1 0x3 ADD DUP2 SWAP1 SSTORE POP DUP6 DUP4 PUSH1 0x3 ADD DUP3 DUP2 SLOAD DUP2 LT PUSH2 0x1269 JUMPI PUSH2 0x1268 PUSH2 0x31C9 JUMP JUMPDEST JUMPDEST SWAP1 PUSH1 0x0 MSTORE PUSH1 0x20 PUSH1 0x0 KECCAK256 SWAP1 PUSH1 0x6 MUL ADD PUSH1 0x4 ADD PUSH1 0x0 PUSH2 0x100 EXP DUP2 SLOAD DUP2 PUSH20 0xFFFFFFFFFFFFFFFFFFFFFFFFFFFFFFFFFFFFFFFF MUL NOT AND SWAP1 DUP4 PUSH20 0xFFFFFFFFFFFFFFFFFFFFFFFFFFFFFFFFFFFFFFFF AND MUL OR SWAP1 SSTORE POP DUP5 DUP4 PUSH1 0x3 ADD DUP3 DUP2 SLOAD DUP2 LT PUSH2 0x12CF JUMPI PUSH2 0x12CE PUSH2 0x31C9 JUMP JUMPDEST JUMPDEST SWAP1 PUSH1 0x0 MSTORE PUSH1 0x20 PUSH1 0x0 KECCAK256 SWAP1 PUSH1 0x6 MUL ADD PUSH1 0x5 ADD SWAP1 DUP2 PUSH2 0x12EC SWAP2 SWAP1 PUSH2 0x308B JUMP JUMPDEST POP PUSH2 0x12FF JUMP JUMPDEST DUP1 DUP1 PUSH1 0x1 ADD SWAP2 POP POP PUSH2 0x1104 JUMP JUMPDEST POP DUP1 PUSH2 0x1340 JUMPI PUSH1 0x40 MLOAD PUSH32 0x8C379A000000000000000000000000000000000000000000000000000000000 DUP2 MSTORE PUSH1 0x4 ADD PUSH2 0x1337 SWAP1 PUSH2 0x39C8 JUMP JUMPDEST PUSH1 0x40 MLOAD DUP1 SWAP2 SUB SWAP1 REVERT JUMPDEST POP POP POP POP POP POP POP POP POP POP POP JUMP JUMPDEST PUSH2 0x1356 DUP2 PUSH2 0x198A JUMP JUMPDEST PUSH2 0x1395 JUMPI PUSH1 0x40 MLOAD PUSH32 0x8C379A000000000000000000000000000000000000000000000000000000000 DUP2 MSTORE PUSH1 0x4 ADD PUSH2 0x138C SWAP1 PUSH2 0x31A9 JUMP JUMPDEST PUSH1 0x40 MLOAD DUP1 SWAP2 SUB SWAP1 REVERT JUMPDEST PUSH1 0x0 DUP1 PUSH1 0x0 DUP4 PUSH20 0xFFFFFFFFFFFFFFFFFFFFFFFFFFFFFFFFFFFFFFFF AND PUSH20 0xFFFFFFFFFFFFFFFFFFFFFFFFFFFFFFFFFFFFFFFF AND DUP2 MSTORE PUSH1 0x20 ADD SWAP1 DUP2 MSTORE PUSH1 0x20 ADD PUSH1 0x0 KECCAK256 PUSH1 0x0 ADD SWAP1 POP PUSH1 0x0 PUSH1 0x1 SWAP1 POP JUMPDEST DUP8 MLOAD DUP2 LT ISZERO PUSH2 0x1546 JUMPI PUSH1 0x0 DUP1 JUMPDEST DUP4 PUSH1 0x4 ADD DUP1 SLOAD SWAP1 POP DUP2 LT ISZERO PUSH2 0x14CC JUMPI DUP10 DUP4 DUP2 MLOAD DUP2 LT PUSH2 0x1410 JUMPI PUSH2 0x140F PUSH2 0x31C9 JUMP JUMPDEST JUMPDEST PUSH1 0x20 MUL PUSH1 0x20 ADD ADD MLOAD PUSH1 0x40 MLOAD PUSH1 0x20 ADD PUSH2 0x1428 SWAP2 SWAP1 PUSH2 0x3229 JUMP JUMPDEST PUSH1 0x40 MLOAD PUSH1 0x20 DUP2 DUP4 SUB SUB DUP2 MSTORE SWAP1 PUSH1 0x40 MSTORE DUP1 MLOAD SWAP1 PUSH1 0x20 ADD KECCAK256 DUP5 PUSH1 0x4 ADD DUP3 DUP2 SLOAD DUP2 LT PUSH2 0x1454 JUMPI PUSH2 0x1453 PUSH2 0x31C9 JUMP JUMPDEST JUMPDEST SWAP1 PUSH1 0x0 MSTORE PUSH1 0x20 PUSH1 0x0 KECCAK256 SWAP1 PUSH1 0x5 MUL ADD PUSH1 0x0 ADD PUSH1 0x40 MLOAD PUSH1 0x20 ADD PUSH2 0x1475 SWAP2 SWAP1 PUSH2 0x2E71 JUMP JUMPDEST PUSH1 0x40 MLOAD PUSH1 0x20 DUP2 DUP4 SUB SUB DUP2 MSTORE SWAP1 PUSH1 0x40 MSTORE DUP1 MLOAD SWAP1 PUSH1 0x20 ADD KECCAK256 SUB PUSH2 0x14BF JUMPI DUP4 PUSH1 0x4 ADD DUP2 DUP2 SLOAD DUP2 LT PUSH2 0x14A6 JUMPI PUSH2 0x14A5 PUSH2 0x31C9 JUMP JUMPDEST JUMPDEST SWAP1 PUSH1 0x0 MSTORE PUSH1 0x20 PUSH1 0x0 KECCAK256 SWAP1 PUSH1 0x5 MUL ADD SWAP4 POP PUSH1 0x1 SWAP2 POP PUSH2 0x14CC JUMP JUMPDEST DUP1 DUP1 PUSH1 0x1 ADD SWAP2 POP POP PUSH2 0x13EE JUMP JUMPDEST POP DUP1 PUSH2 0x14D7 DUP4 PUSH2 0x21F0 JUMP JUMPDEST PUSH1 0x40 MLOAD PUSH1 0x20 ADD PUSH2 0x14E7 SWAP2 SWAP1 PUSH2 0x395A JUMP JUMPDEST PUSH1 0x40 MLOAD PUSH1 0x20 DUP2 DUP4 SUB SUB DUP2 MSTORE SWAP1 PUSH1 0x40 MSTORE SWAP1 PUSH2 0x1537 JUMPI PUSH1 0x40 MLOAD PUSH32 0x8C379A000000000000000000000000000000000000000000000000000000000 DUP2 MSTORE PUSH1 0x4 ADD PUSH2 0x152E SWAP2 SWAP1 PUSH2 0x27B1 JUMP JUMPDEST PUSH1 0x40 MLOAD DUP1 SWAP2 SUB SWAP1 REVERT JUMPDEST POP POP DUP1 DUP1 PUSH1 0x1 ADD SWAP2 POP POP PUSH2 0x13E1 JUMP JUMPDEST POP PUSH1 0x0 DUP1 JUMPDEST DUP3 PUSH1 0x4 ADD DUP1 SLOAD SWAP1 POP DUP2 LT ISZERO PUSH2 0x16B0 JUMPI DUP8 PUSH1 0x40 MLOAD PUSH1 0x20 ADD PUSH2 0x156B SWAP2 SWAP1 PUSH2 0x3229 JUMP JUMPDEST PUSH1 0x40 MLOAD PUSH1 0x20 DUP2 DUP4 SUB SUB DUP2 MSTORE SWAP1 PUSH1 0x40 MSTORE DUP1 MLOAD SWAP1 PUSH1 0x20 ADD KECCAK256 DUP4 PUSH1 0x4 ADD DUP3 DUP2 SLOAD DUP2 LT PUSH2 0x1597 JUMPI PUSH2 0x1596 PUSH2 0x31C9 JUMP JUMPDEST JUMPDEST SWAP1 PUSH1 0x0 MSTORE PUSH1 0x20 PUSH1 0x0 KECCAK256 SWAP1 PUSH1 0x5 MUL ADD PUSH1 0x0 ADD PUSH1 0x40 MLOAD PUSH1 0x20 ADD PUSH2 0x15B8 SWAP2 SWAP1 PUSH2 0x2E71 JUMP JUMPDEST PUSH1 0x40 MLOAD PUSH1 0x20 DUP2 DUP4 SUB SUB DUP2 MSTORE SWAP1 PUSH1 0x40 MSTORE DUP1 MLOAD SWAP1 PUSH1 0x20 ADD KECCAK256 SUB PUSH2 0x16A3 JUMPI PUSH1 0x1 SWAP2 POP DUP7 DUP4 PUSH1 0x4 ADD DUP3 DUP2 SLOAD DUP2 LT PUSH2 0x15EE JUMPI PUSH2 0x15ED PUSH2 0x31C9 JUMP JUMPDEST JUMPDEST SWAP1 PUSH1 0x0 MSTORE PUSH1 0x20 PUSH1 0x0 KECCAK256 SWAP1 PUSH1 0x5 MUL ADD PUSH1 0x0 ADD SWAP1 DUP2 PUSH2 0x160B SWAP2 SWAP1 PUSH2 0x308B JUMP JUMPDEST POP DUP6 DUP4 PUSH1 0x4 ADD DUP3 DUP2 SLOAD DUP2 LT PUSH2 0x1623 JUMPI PUSH2 0x1622 PUSH2 0x31C9 JUMP JUMPDEST JUMPDEST SWAP1 PUSH1 0x0 MSTORE PUSH1 0x20 PUSH1 0x0 KECCAK256 SWAP1 PUSH1 0x5 MUL ADD PUSH1 0x1 ADD PUSH1 0x0 PUSH2 0x100 EXP DUP2 SLOAD DUP2 PUSH20 0xFFFFFFFFFFFFFFFFFFFFFFFFFFFFFFFFFFFFFFFF MUL NOT AND SWAP1 DUP4 PUSH20 0xFFFFFFFFFFFFFFFFFFFFFFFFFFFFFFFFFFFFFFFF AND MUL OR SWAP1 SSTORE POP DUP5 DUP4 PUSH1 0x4 ADD DUP3 DUP2 SLOAD DUP2 LT PUSH2 0x1689 JUMPI PUSH2 0x1688 PUSH2 0x31C9 JUMP JUMPDEST JUMPDEST SWAP1 PUSH1 0x0 MSTORE PUSH1 0x20 PUSH1 0x0 KECCAK256 SWAP1 PUSH1 0x5 MUL ADD PUSH1 0x2 ADD DUP2 SWAP1 SSTORE POP PUSH2 0x16B0 JUMP JUMPDEST DUP1 DUP1 PUSH1 0x1 ADD SWAP2 POP POP PUSH2 0x154B JUMP JUMPDEST POP DUP1 PUSH2 0x16F1 JUMPI PUSH1 0x40 MLOAD PUSH32 0x8C379A000000000000000000000000000000000000000000000000000000000 DUP2 MSTORE PUSH1 0x4 ADD PUSH2 0x16E8 SWAP1 PUSH2 0x3A34 JUMP JUMPDEST PUSH1 0x40 MLOAD DUP1 SWAP2 SUB SWAP1 REVERT JUMPDEST POP POP POP POP POP POP POP POP JUMP JUMPDEST PUSH2 0x1704 DUP2 PUSH2 0x198A JUMP JUMPDEST PUSH2 0x1743 JUMPI PUSH1 0x40 MLOAD PUSH32 0x8C379A000000000000000000000000000000000000000000000000000000000 DUP2 MSTORE PUSH1 0x4 ADD PUSH2 0x173A SWAP1 PUSH2 0x31A9 JUMP JUMPDEST PUSH1 0x40 MLOAD DUP1 SWAP2 SUB SWAP1 REVERT JUMPDEST PUSH1 0x0 DUP1 PUSH1 0x0 DUP4 PUSH20 0xFFFFFFFFFFFFFFFFFFFFFFFFFFFFFFFFFFFFFFFF AND PUSH20 0xFFFFFFFFFFFFFFFFFFFFFFFFFFFFFFFFFFFFFFFF AND DUP2 MSTORE PUSH1 0x20 ADD SWAP1 DUP2 MSTORE PUSH1 0x20 ADD PUSH1 0x0 KECCAK256 PUSH1 0x0 ADD SWAP1 POP PUSH1 0x0 PUSH1 0x1 SWAP1 POP JUMPDEST DUP5 MLOAD DUP2 LT ISZERO PUSH2 0x18C9 JUMPI PUSH1 0x0 DUP1 JUMPDEST DUP4 PUSH1 0x4 ADD DUP1 SLOAD SWAP1 POP DUP2 LT ISZERO PUSH2 0x187A JUMPI DUP7 DUP4 DUP2 MLOAD DUP2 LT PUSH2 0x17BE JUMPI PUSH2 0x17BD PUSH2 0x31C9 JUMP JUMPDEST JUMPDEST PUSH1 0x20 MUL PUSH1 0x20 ADD ADD MLOAD PUSH1 0x40 MLOAD PUSH1 0x20 ADD PUSH2 0x17D6 SWAP2 SWAP1 PUSH2 0x3229 JUMP JUMPDEST PUSH1 0x40 MLOAD PUSH1 0x20 DUP2 DUP4 SUB SUB DUP2 MSTORE SWAP1 PUSH1 0x40 MSTORE DUP1 MLOAD SWAP1 PUSH1 0x20 ADD KECCAK256 DUP5 PUSH1 0x4 ADD DUP3 DUP2 SLOAD DUP2 LT PUSH2 0x1802 JUMPI PUSH2 0x1801 PUSH2 0x31C9 JUMP JUMPDEST JUMPDEST SWAP1 PUSH1 0x0 MSTORE PUSH1 0x20 PUSH1 0x0 KECCAK256 SWAP1 PUSH1 0x5 MUL ADD PUSH1 0x0 ADD PUSH1 0x40 MLOAD PUSH1 0x20 ADD PUSH2 0x1823 SWAP2 SWAP1 PUSH2 0x2E71 JUMP JUMPDEST PUSH1 0x40 MLOAD PUSH1 0x20 DUP2 DUP4 SUB SUB DUP2 MSTORE SWAP1 PUSH1 0x40 MSTORE DUP1 MLOAD SWAP1 PUSH1 0x20 ADD KECCAK256 SUB PUSH2 0x186D JUMPI DUP4 PUSH1 0x4 ADD DUP2 DUP2 SLOAD DUP2 LT PUSH2 0x1854 JUMPI PUSH2 0x1853 PUSH2 0x31C9 JUMP JUMPDEST JUMPDEST SWAP1 PUSH1 0x0 MSTORE PUSH1 0x20 PUSH1 0x0 KECCAK256 SWAP1 PUSH1 0x5 MUL ADD SWAP4 POP PUSH1 0x1 SWAP2 POP PUSH2 0x187A JUMP JUMPDEST DUP1 DUP1 PUSH1 0x1 ADD SWAP2 POP POP PUSH2 0x179C JUMP JUMPDEST POP DUP1 PUSH2 0x18BB JUMPI PUSH1 0x40 MLOAD PUSH32 0x8C379A000000000000000000000000000000000000000000000000000000000 DUP2 MSTORE PUSH1 0x4 ADD PUSH2 0x18B2 SWAP1 PUSH2 0x328C JUMP JUMPDEST PUSH1 0x40 MLOAD DUP1 SWAP2 SUB SWAP1 REVERT JUMPDEST POP DUP1 DUP1 PUSH1 0x1 ADD SWAP2 POP POP PUSH2 0x178F JUMP JUMPDEST POP DUP1 PUSH1 0x4 ADD PUSH1 0x1 DUP2 PUSH1 0x1 DUP2 SLOAD ADD DUP1 DUP3 SSTORE DUP1 SWAP2 POP POP SUB SWAP1 PUSH1 0x0 MSTORE PUSH1 0x20 PUSH1 0x0 KECCAK256 SWAP1 POP POP PUSH1 0x0 DUP2 PUSH1 0x4 ADD PUSH1 0x1 DUP4 PUSH1 0x4 ADD DUP1 SLOAD SWAP1 POP PUSH2 0x1904 SWAP2 SWAP1 PUSH2 0x36B8 JUMP JUMPDEST DUP2 SLOAD DUP2 LT PUSH2 0x1915 JUMPI PUSH2 0x1914 PUSH2 0x31C9 JUMP JUMPDEST JUMPDEST SWAP1 PUSH1 0x0 MSTORE PUSH1 0x20 PUSH1 0x0 KECCAK256 SWAP1 PUSH1 0x5 MUL ADD SWAP1 POP DUP4 DUP2 PUSH1 0x0 ADD SWAP1 DUP2 PUSH2 0x1936 SWAP2 SWAP1 PUSH2 0x308B JUMP JUMPDEST POP DUP3 DUP2 PUSH1 0x1 ADD PUSH1 0x0 PUSH2 0x100 EXP DUP2 SLOAD DUP2 PUSH20 0xFFFFFFFFFFFFFFFFFFFFFFFFFFFFFFFFFFFFFFFF MUL NOT AND SWAP1 DUP4 PUSH20 0xFFFFFFFFFFFFFFFFFFFFFFFFFFFFFFFFFFFFFFFF AND MUL OR SWAP1 SSTORE POP TIMESTAMP DUP2 PUSH1 0x2 ADD DUP2 SWAP1 SSTORE POP POP POP POP POP POP JUMP JUMPDEST PUSH1 0x0 PUSH1 0x40 MLOAD PUSH1 0x20 ADD PUSH2 0x199B SWAP1 PUSH2 0x2D64 JUMP JUMPDEST PUSH1 0x40 MLOAD PUSH1 0x20 DUP2 DUP4 SUB SUB DUP2 MSTORE SWAP1 PUSH1 0x40 MSTORE DUP1 MLOAD SWAP1 PUSH1 0x20 ADD KECCAK256 PUSH1 0x0 DUP1 DUP5 PUSH20 0xFFFFFFFFFFFFFFFFFFFFFFFFFFFFFFFFFFFFFFFF AND PUSH20 0xFFFFFFFFFFFFFFFFFFFFFFFFFFFFFFFFFFFFFFFF AND DUP2 MSTORE PUSH1 0x20 ADD SWAP1 DUP2 MSTORE PUSH1 0x20 ADD PUSH1 0x0 KECCAK256 PUSH1 0x0 ADD PUSH1 0x0 ADD PUSH1 0x40 MLOAD PUSH1 0x20 ADD PUSH2 0x1A05 SWAP2 SWAP1 PUSH2 0x2E71 JUMP JUMPDEST PUSH1 0x40 MLOAD PUSH1 0x20 DUP2 DUP4 SUB SUB DUP2 MSTORE SWAP1 PUSH1 0x40 MSTORE DUP1 MLOAD SWAP1 PUSH1 0x20 ADD KECCAK256 EQ PUSH2 0x1A29 JUMPI PUSH1 0x0 SWAP1 POP PUSH2 0x1A2E JUMP JUMPDEST PUSH1 0x1 SWAP1 POP JUMPDEST SWAP2 SWAP1 POP JUMP JUMPDEST PUSH2 0x1A3C DUP2 PUSH2 0x198A JUMP JUMPDEST PUSH2 0x1A7B JUMPI PUSH1 0x40 MLOAD PUSH32 0x8C379A000000000000000000000000000000000000000000000000000000000 DUP2 MSTORE PUSH1 0x4 ADD PUSH2 0x1A72 SWAP1 PUSH2 0x31A9 JUMP JUMPDEST PUSH1 0x40 MLOAD DUP1 SWAP2 SUB SWAP1 REVERT JUMPDEST PUSH1 0x0 DUP1 PUSH1 0x0 DUP4 PUSH20 0xFFFFFFFFFFFFFFFFFFFFFFFFFFFFFFFFFFFFFFFF AND PUSH20 0xFFFFFFFFFFFFFFFFFFFFFFFFFFFFFFFFFFFFFFFF AND DUP2 MSTORE PUSH1 0x20 ADD SWAP1 DUP2 MSTORE PUSH1 0x20 ADD PUSH1 0x0 KECCAK256 PUSH1 0x0 ADD SWAP1 POP PUSH1 0x0 PUSH1 0x1 SWAP1 POP JUMPDEST DUP5 MLOAD DUP2 LT ISZERO PUSH2 0x1C2C JUMPI PUSH1 0x0 DUP1 JUMPDEST DUP4 PUSH1 0x4 ADD DUP1 SLOAD SWAP1 POP DUP2 LT ISZERO PUSH2 0x1BB2 JUMPI DUP7 DUP4 DUP2 MLOAD DUP2 LT PUSH2 0x1AF6 JUMPI PUSH2 0x1AF5 PUSH2 0x31C9 JUMP JUMPDEST JUMPDEST PUSH1 0x20 MUL PUSH1 0x20 ADD ADD MLOAD PUSH1 0x40 MLOAD PUSH1 0x20 ADD PUSH2 0x1B0E SWAP2 SWAP1 PUSH2 0x3229 JUMP JUMPDEST PUSH1 0x40 MLOAD PUSH1 0x20 DUP2 DUP4 SUB SUB DUP2 MSTORE SWAP1 PUSH1 0x40 MSTORE DUP1 MLOAD SWAP1 PUSH1 0x20 ADD KECCAK256 DUP5 PUSH1 0x4 ADD DUP3 DUP2 SLOAD DUP2 LT PUSH2 0x1B3A JUMPI PUSH2 0x1B39 PUSH2 0x31C9 JUMP JUMPDEST JUMPDEST SWAP1 PUSH1 0x0 MSTORE PUSH1 0x20 PUSH1 0x0 KECCAK256 SWAP1 PUSH1 0x5 MUL ADD PUSH1 0x0 ADD PUSH1 0x40 MLOAD PUSH1 0x20 ADD PUSH2 0x1B5B SWAP2 SWAP1 PUSH2 0x2E71 JUMP JUMPDEST PUSH1 0x40 MLOAD PUSH1 0x20 DUP2 DUP4 SUB SUB DUP2 MSTORE SWAP1 PUSH1 0x40 MSTORE DUP1 MLOAD SWAP1 PUSH1 0x20 ADD KECCAK256 SUB PUSH2 0x1BA5 JUMPI DUP4 PUSH1 0x4 ADD DUP2 DUP2 SLOAD DUP2 LT PUSH2 0x1B8C JUMPI PUSH2 0x1B8B PUSH2 0x31C9 JUMP JUMPDEST JUMPDEST SWAP1 PUSH1 0x0 MSTORE PUSH1 0x20 PUSH1 0x0 KECCAK256 SWAP1 PUSH1 0x5 MUL ADD SWAP4 POP PUSH1 0x1 SWAP2 POP PUSH2 0x1BB2 JUMP JUMPDEST DUP1 DUP1 PUSH1 0x1 ADD SWAP2 POP POP PUSH2 0x1AD4 JUMP JUMPDEST POP DUP1 PUSH2 0x1BBD DUP4 PUSH2 0x21F0 JUMP JUMPDEST PUSH1 0x40 MLOAD PUSH1 0x20 ADD PUSH2 0x1BCD SWAP2 SWAP1 PUSH2 0x395A JUMP JUMPDEST PUSH1 0x40 MLOAD PUSH1 0x20 DUP2 DUP4 SUB SUB DUP2 MSTORE SWAP1 PUSH1 0x40 MSTORE SWAP1 PUSH2 0x1C1D JUMPI PUSH1 0x40 MLOAD PUSH32 0x8C379A000000000000000000000000000000000000000000000000000000000 DUP2 MSTORE PUSH1 0x4 ADD PUSH2 0x1C14 SWAP2 SWAP1 PUSH2 0x27B1 JUMP JUMPDEST PUSH1 0x40 MLOAD DUP1 SWAP2 SUB SWAP1 REVERT JUMPDEST POP POP DUP1 DUP1 PUSH1 0x1 ADD SWAP2 POP POP PUSH2 0x1AC7 JUMP JUMPDEST POP PUSH1 0x0 DUP1 JUMPDEST DUP3 PUSH1 0x3 ADD DUP1 SLOAD SWAP1 POP DUP2 LT ISZERO PUSH2 0x1EA3 JUMPI DUP5 PUSH1 0x40 MLOAD PUSH1 0x20 ADD PUSH2 0x1C51 SWAP2 SWAP1 PUSH2 0x3229 JUMP JUMPDEST PUSH1 0x40 MLOAD PUSH1 0x20 DUP2 DUP4 SUB SUB DUP2 MSTORE SWAP1 PUSH1 0x40 MSTORE DUP1 MLOAD SWAP1 PUSH1 0x20 ADD KECCAK256 DUP4 PUSH1 0x3 ADD DUP3 DUP2 SLOAD DUP2 LT PUSH2 0x1C7D JUMPI PUSH2 0x1C7C PUSH2 0x31C9 JUMP JUMPDEST JUMPDEST SWAP1 PUSH1 0x0 MSTORE PUSH1 0x20 PUSH1 0x0 KECCAK256 SWAP1 PUSH1 0x6 MUL ADD PUSH1 0x0 ADD PUSH1 0x40 MLOAD PUSH1 0x20 ADD PUSH2 0x1C9E SWAP2 SWAP1 PUSH2 0x2E71 JUMP JUMPDEST PUSH1 0x40 MLOAD PUSH1 0x20 DUP2 DUP4 SUB SUB DUP2 MSTORE SWAP1 PUSH1 0x40 MSTORE DUP1 MLOAD SWAP1 PUSH1 0x20 ADD KECCAK256 SUB PUSH2 0x1E96 JUMPI PUSH1 0x1 SWAP2 POP PUSH1 0x0 DUP2 SWAP1 POP JUMPDEST PUSH1 0x1 DUP5 PUSH1 0x3 ADD DUP1 SLOAD SWAP1 POP PUSH2 0x1CD7 SWAP2 SWAP1 PUSH2 0x36B8 JUMP JUMPDEST DUP2 LT ISZERO PUSH2 0x1DFC JUMPI DUP4 PUSH1 0x3 ADD PUSH1 0x1 DUP3 PUSH2 0x1CEF SWAP2 SWAP1 PUSH2 0x3A54 JUMP JUMPDEST DUP2 SLOAD DUP2 LT PUSH2 0x1D00 JUMPI PUSH2 0x1CFF PUSH2 0x31C9 JUMP JUMPDEST JUMPDEST SWAP1 PUSH1 0x0 MSTORE PUSH1 0x20 PUSH1 0x0 KECCAK256 SWAP1 PUSH1 0x6 MUL ADD DUP5 PUSH1 0x3 ADD DUP3 DUP2 SLOAD DUP2 LT PUSH2 0x1D24 JUMPI PUSH2 0x1D23 PUSH2 0x31C9 JUMP JUMPDEST JUMPDEST SWAP1 PUSH1 0x0 MSTORE PUSH1 0x20 PUSH1 0x0 KECCAK256 SWAP1 PUSH1 0x6 MUL ADD PUSH1 0x0 DUP3 ADD DUP2 PUSH1 0x0 ADD SWAP1 DUP2 PUSH2 0x1D46 SWAP2 SWAP1 PUSH2 0x3A9E JUMP JUMPDEST POP PUSH1 0x1 DUP3 ADD DUP2 PUSH1 0x1 ADD SWAP1 DUP2 PUSH2 0x1D5B SWAP2 SWAP1 PUSH2 0x3A9E JUMP JUMPDEST POP PUSH1 0x2 DUP3 ADD SLOAD DUP2 PUSH1 0x2 ADD SSTORE PUSH1 0x3 DUP3 ADD SLOAD DUP2 PUSH1 0x3 ADD SSTORE PUSH1 0x4 DUP3 ADD PUSH1 0x0 SWAP1 SLOAD SWAP1 PUSH2 0x100 EXP SWAP1 DIV PUSH20 0xFFFFFFFFFFFFFFFFFFFFFFFFFFFFFFFFFFFFFFFF AND DUP2 PUSH1 0x4 ADD PUSH1 0x0 PUSH2 0x100 EXP DUP2 SLOAD DUP2 PUSH20 0xFFFFFFFFFFFFFFFFFFFFFFFFFFFFFFFFFFFFFFFF MUL NOT AND SWAP1 DUP4 PUSH20 0xFFFFFFFFFFFFFFFFFFFFFFFFFFFFFFFFFFFFFFFF AND MUL OR SWAP1 SSTORE POP PUSH1 0x5 DUP3 ADD DUP2 PUSH1 0x5 ADD SWAP1 DUP2 PUSH2 0x1DEB SWAP2 SWAP1 PUSH2 0x3A9E JUMP JUMPDEST POP SWAP1 POP POP DUP1 DUP1 PUSH1 0x1 ADD SWAP2 POP POP PUSH2 0x1CC3 JUMP JUMPDEST POP DUP3 PUSH1 0x3 ADD DUP1 SLOAD DUP1 PUSH2 0x1E11 JUMPI PUSH2 0x1E10 PUSH2 0x3B86 JUMP JUMPDEST JUMPDEST PUSH1 0x1 SWAP1 SUB DUP2 DUP2 SWAP1 PUSH1 0x0 MSTORE PUSH1 0x20 PUSH1 0x0 KECCAK256 SWAP1 PUSH1 0x6 MUL ADD PUSH1 0x0 DUP1 DUP3 ADD PUSH1 0x0 PUSH2 0x1E36 SWAP2 SWAP1 PUSH2 0x2378 JUMP JUMPDEST PUSH1 0x1 DUP3 ADD PUSH1 0x0 PUSH2 0x1E46 SWAP2 SWAP1 PUSH2 0x2378 JUMP JUMPDEST PUSH1 0x2 DUP3 ADD PUSH1 0x0 SWAP1 SSTORE PUSH1 0x3 DUP3 ADD PUSH1 0x0 SWAP1 SSTORE PUSH1 0x4 DUP3 ADD PUSH1 0x0 PUSH2 0x100 EXP DUP2 SLOAD SWAP1 PUSH20 0xFFFFFFFFFFFFFFFFFFFFFFFFFFFFFFFFFFFFFFFF MUL NOT AND SWAP1 SSTORE PUSH1 0x5 DUP3 ADD PUSH1 0x0 PUSH2 0x1E8D SWAP2 SWAP1 PUSH2 0x2378 JUMP JUMPDEST POP POP SWAP1 SSTORE PUSH2 0x1EA3 JUMP JUMPDEST DUP1 DUP1 PUSH1 0x1 ADD SWAP2 POP POP PUSH2 0x1C31 JUMP JUMPDEST POP DUP1 PUSH2 0x1EE4 JUMPI PUSH1 0x40 MLOAD PUSH32 0x8C379A000000000000000000000000000000000000000000000000000000000 DUP2 MSTORE PUSH1 0x4 ADD PUSH2 0x1EDB SWAP1 PUSH2 0x39C8 JUMP JUMPDEST PUSH1 0x40 MLOAD DUP1 SWAP2 SUB SWAP1 REVERT JUMPDEST POP POP POP POP POP JUMP JUMPDEST PUSH1 0x60 PUSH1 0x0 DUP3 PUSH20 0xFFFFFFFFFFFFFFFFFFFFFFFFFFFFFFFFFFFFFFFF AND PUSH1 0x0 SHL SWAP1 POP PUSH1 0x0 PUSH1 0x40 MLOAD DUP1 PUSH1 0x40 ADD PUSH1 0x40 MSTORE DUP1 PUSH1 0x10 DUP2 MSTORE PUSH1 0x20 ADD PUSH32 0x3031323334353637383961626364656600000000000000000000000000000000 DUP2 MSTORE POP SWAP1 POP PUSH1 0x0 PUSH1 0x2A PUSH8 0xFFFFFFFFFFFFFFFF DUP2 GT ISZERO PUSH2 0x1F62 JUMPI PUSH2 0x1F61 PUSH2 0x24C0 JUMP JUMPDEST JUMPDEST PUSH1 0x40 MLOAD SWAP1 DUP1 DUP3 MSTORE DUP1 PUSH1 0x1F ADD PUSH1 0x1F NOT AND PUSH1 0x20 ADD DUP3 ADD PUSH1 0x40 MSTORE DUP1 ISZERO PUSH2 0x1F94 JUMPI DUP2 PUSH1 0x20 ADD PUSH1 0x1 DUP3 MUL DUP1 CALLDATASIZE DUP4 CALLDATACOPY DUP1 DUP3 ADD SWAP2 POP POP SWAP1 POP JUMPDEST POP SWAP1 POP PUSH32 0x3000000000000000000000000000000000000000000000000000000000000000 DUP2 PUSH1 0x0 DUP2 MLOAD DUP2 LT PUSH2 0x1FCC JUMPI PUSH2 0x1FCB PUSH2 0x31C9 JUMP JUMPDEST JUMPDEST PUSH1 0x20 ADD ADD SWAP1 PUSH31 0xFFFFFFFFFFFFFFFFFFFFFFFFFFFFFFFFFFFFFFFFFFFFFFFFFFFFFFFFFFFFFF NOT AND SWAP1 DUP2 PUSH1 0x0 BYTE SWAP1 MSTORE8 POP PUSH32 0x7800000000000000000000000000000000000000000000000000000000000000 DUP2 PUSH1 0x1 DUP2 MLOAD DUP2 LT PUSH2 0x2030 JUMPI PUSH2 0x202F PUSH2 0x31C9 JUMP JUMPDEST JUMPDEST PUSH1 0x20 ADD ADD SWAP1 PUSH31 0xFFFFFFFFFFFFFFFFFFFFFFFFFFFFFFFFFFFFFFFFFFFFFFFFFFFFFFFFFFFFFF NOT AND SWAP1 DUP2 PUSH1 0x0 BYTE SWAP1 MSTORE8 POP PUSH1 0x0 JUMPDEST PUSH1 0x14 DUP2 LT ISZERO PUSH2 0x21E4 JUMPI DUP3 PUSH1 0x4 DUP6 PUSH1 0xC DUP5 PUSH2 0x207C SWAP2 SWAP1 PUSH2 0x3A54 JUMP JUMPDEST PUSH1 0x20 DUP2 LT PUSH2 0x208D JUMPI PUSH2 0x208C PUSH2 0x31C9 JUMP JUMPDEST JUMPDEST BYTE PUSH1 0xF8 SHL PUSH31 0xFFFFFFFFFFFFFFFFFFFFFFFFFFFFFFFFFFFFFFFFFFFFFFFFFFFFFFFFFFFFFF NOT AND SWAP1 SHR PUSH1 0xF8 SHR PUSH1 0xFF AND DUP2 MLOAD DUP2 LT PUSH2 0x20CC JUMPI PUSH2 0x20CB PUSH2 0x31C9 JUMP JUMPDEST JUMPDEST PUSH1 0x20 ADD ADD MLOAD PUSH1 0xF8 SHR PUSH1 0xF8 SHL DUP3 PUSH1 0x2 DUP4 PUSH2 0x20E5 SWAP2 SWAP1 PUSH2 0x3BB5 JUMP JUMPDEST PUSH1 0x2 PUSH2 0x20F1 SWAP2 SWAP1 PUSH2 0x3A54 JUMP JUMPDEST DUP2 MLOAD DUP2 LT PUSH2 0x2102 JUMPI PUSH2 0x2101 PUSH2 0x31C9 JUMP JUMPDEST JUMPDEST PUSH1 0x20 ADD ADD SWAP1 PUSH31 0xFFFFFFFFFFFFFFFFFFFFFFFFFFFFFFFFFFFFFFFFFFFFFFFFFFFFFFFFFFFFFF NOT AND SWAP1 DUP2 PUSH1 0x0 BYTE SWAP1 MSTORE8 POP DUP3 PUSH1 0xF PUSH1 0xF8 SHL DUP6 PUSH1 0xC DUP5 PUSH2 0x2145 SWAP2 SWAP1 PUSH2 0x3A54 JUMP JUMPDEST PUSH1 0x20 DUP2 LT PUSH2 0x2156 JUMPI PUSH2 0x2155 PUSH2 0x31C9 JUMP JUMPDEST JUMPDEST BYTE PUSH1 0xF8 SHL AND PUSH1 0xF8 SHR PUSH1 0xFF AND DUP2 MLOAD DUP2 LT PUSH2 0x2172 JUMPI PUSH2 0x2171 PUSH2 0x31C9 JUMP JUMPDEST JUMPDEST PUSH1 0x20 ADD ADD MLOAD PUSH1 0xF8 SHR PUSH1 0xF8 SHL DUP3 PUSH1 0x2 DUP4 PUSH2 0x218B SWAP2 SWAP1 PUSH2 0x3BB5 JUMP JUMPDEST PUSH1 0x3 PUSH2 0x2197 SWAP2 SWAP1 PUSH2 0x3A54 JUMP JUMPDEST DUP2 MLOAD DUP2 LT PUSH2 0x21A8 JUMPI PUSH2 0x21A7 PUSH2 0x31C9 JUMP JUMPDEST JUMPDEST PUSH1 0x20 ADD ADD SWAP1 PUSH31 0xFFFFFFFFFFFFFFFFFFFFFFFFFFFFFFFFFFFFFFFFFFFFFFFFFFFFFFFFFFFFFF NOT AND SWAP1 DUP2 PUSH1 0x0 BYTE SWAP1 MSTORE8 POP DUP1 DUP1 PUSH1 0x1 ADD SWAP2 POP POP PUSH2 0x2062 JUMP JUMPDEST POP DUP1 SWAP4 POP POP POP POP SWAP2 SWAP1 POP JUMP JUMPDEST PUSH1 0x60 PUSH1 0x0 DUP3 SUB PUSH2 0x2237 JUMPI PUSH1 0x40 MLOAD DUP1 PUSH1 0x40 ADD PUSH1 0x40 MSTORE DUP1 PUSH1 0x1 DUP2 MSTORE PUSH1 0x20 ADD PUSH32 0x3000000000000000000000000000000000000000000000000000000000000000 DUP2 MSTORE POP SWAP1 POP PUSH2 0x2373 JUMP JUMPDEST PUSH1 0x0 DUP3 SWAP1 POP PUSH1 0x0 JUMPDEST PUSH1 0x0 DUP3 EQ PUSH2 0x2269 JUMPI DUP1 DUP1 PUSH2 0x2252 SWAP1 PUSH2 0x3BF7 JUMP JUMPDEST SWAP2 POP POP PUSH1 0xA DUP3 PUSH2 0x2262 SWAP2 SWAP1 PUSH2 0x3C6E JUMP JUMPDEST SWAP2 POP PUSH2 0x223F JUMP JUMPDEST PUSH1 0x0 DUP2 PUSH8 0xFFFFFFFFFFFFFFFF DUP2 GT ISZERO PUSH2 0x2285 JUMPI PUSH2 0x2284 PUSH2 0x24C0 JUMP JUMPDEST JUMPDEST PUSH1 0x40 MLOAD SWAP1 DUP1 DUP3 MSTORE DUP1 PUSH1 0x1F ADD PUSH1 0x1F NOT AND PUSH1 0x20 ADD DUP3 ADD PUSH1 0x40 MSTORE DUP1 ISZERO PUSH2 0x22B7 JUMPI DUP2 PUSH1 0x20 ADD PUSH1 0x1 DUP3 MUL DUP1 CALLDATASIZE DUP4 CALLDATACOPY DUP1 DUP3 ADD SWAP2 POP POP SWAP1 POP JUMPDEST POP SWAP1 POP PUSH1 0x0 DUP3 SWAP1 POP JUMPDEST PUSH1 0x0 DUP7 EQ PUSH2 0x236B JUMPI PUSH1 0x1 DUP2 PUSH2 0x22D5 SWAP2 SWAP1 PUSH2 0x36B8 JUMP JUMPDEST SWAP1 POP PUSH1 0x0 PUSH1 0xA DUP1 DUP9 PUSH2 0x22E7 SWAP2 SWAP1 PUSH2 0x3C6E JUMP JUMPDEST PUSH2 0x22F1 SWAP2 SWAP1 PUSH2 0x3BB5 JUMP JUMPDEST DUP8 PUSH2 0x22FC SWAP2 SWAP1 PUSH2 0x36B8 JUMP JUMPDEST PUSH1 0x30 PUSH2 0x2308 SWAP2 SWAP1 PUSH2 0x3CAC JUMP JUMPDEST SWAP1 POP PUSH1 0x0 DUP2 PUSH1 0xF8 SHL SWAP1 POP DUP1 DUP5 DUP5 DUP2 MLOAD DUP2 LT PUSH2 0x2326 JUMPI PUSH2 0x2325 PUSH2 0x31C9 JUMP JUMPDEST JUMPDEST PUSH1 0x20 ADD ADD SWAP1 PUSH31 0xFFFFFFFFFFFFFFFFFFFFFFFFFFFFFFFFFFFFFFFFFFFFFFFFFFFFFFFFFFFFFF NOT AND SWAP1 DUP2 PUSH1 0x0 BYTE SWAP1 MSTORE8 POP PUSH1 0xA DUP9 PUSH2 0x2362 SWAP2 SWAP1 PUSH2 0x3C6E JUMP JUMPDEST SWAP8 POP POP POP PUSH2 0x22C0 JUMP JUMPDEST DUP2 SWAP5 POP POP POP POP POP JUMPDEST SWAP2 SWAP1 POP JUMP JUMPDEST POP DUP1 SLOAD PUSH2 0x2384 SWAP1 PUSH2 0x2DA8 JUMP JUMPDEST PUSH1 0x0 DUP3 SSTORE DUP1 PUSH1 0x1F LT PUSH2 0x2396 JUMPI POP PUSH2 0x23B5 JUMP JUMPDEST PUSH1 0x1F ADD PUSH1 0x20 SWAP1 DIV SWAP1 PUSH1 0x0 MSTORE PUSH1 0x20 PUSH1 0x0 KECCAK256 SWAP1 DUP2 ADD SWAP1 PUSH2 0x23B4 SWAP2 SWAP1 PUSH2 0x23B8 JUMP JUMPDEST JUMPDEST POP JUMP JUMPDEST JUMPDEST DUP1 DUP3 GT ISZERO PUSH2 0x23D1 JUMPI PUSH1 0x0 DUP2 PUSH1 0x0 SWAP1 SSTORE POP PUSH1 0x1 ADD PUSH2 0x23B9 JUMP JUMPDEST POP SWAP1 JUMP JUMPDEST PUSH1 0x0 PUSH1 0x40 MLOAD SWAP1 POP SWAP1 JUMP JUMPDEST PUSH1 0x0 DUP1 REVERT JUMPDEST PUSH1 0x0 DUP1 REVERT JUMPDEST PUSH1 0x0 PUSH20 0xFFFFFFFFFFFFFFFFFFFFFFFFFFFFFFFFFFFFFFFF DUP3 AND SWAP1 POP SWAP2 SWAP1 POP JUMP JUMPDEST PUSH1 0x0 PUSH2 0x2414 DUP3 PUSH2 0x23E9 JUMP JUMPDEST SWAP1 POP SWAP2 SWAP1 POP JUMP JUMPDEST PUSH2 0x2424 DUP2 PUSH2 0x2409 JUMP JUMPDEST DUP2 EQ PUSH2 0x242F JUMPI PUSH1 0x0 DUP1 REVERT JUMPDEST POP JUMP JUMPDEST PUSH1 0x0 DUP2 CALLDATALOAD SWAP1 POP PUSH2 0x2441 DUP2 PUSH2 0x241B JUMP JUMPDEST SWAP3 SWAP2 POP POP JUMP JUMPDEST PUSH1 0x0 PUSH1 0x20 DUP3 DUP5 SUB SLT ISZERO PUSH2 0x245D JUMPI PUSH2 0x245C PUSH2 0x23DF JUMP JUMPDEST JUMPDEST PUSH1 0x0 PUSH2 0x246B DUP5 DUP3 DUP6 ADD PUSH2 0x2432 JUMP JUMPDEST SWAP2 POP POP SWAP3 SWAP2 POP POP JUMP JUMPDEST PUSH1 0x0 DUP2 ISZERO ISZERO SWAP1 POP SWAP2 SWAP1 POP JUMP JUMPDEST PUSH2 0x2489 DUP2 PUSH2 0x2474 JUMP JUMPDEST DUP3 MSTORE POP POP JUMP JUMPDEST PUSH1 0x0 PUSH1 0x20 DUP3 ADD SWAP1 POP PUSH2 0x24A4 PUSH1 0x0 DUP4 ADD DUP5 PUSH2 0x2480 JUMP JUMPDEST SWAP3 SWAP2 POP POP JUMP JUMPDEST PUSH1 0x0 DUP1 REVERT JUMPDEST PUSH1 0x0 PUSH1 0x1F NOT PUSH1 0x1F DUP4 ADD AND SWAP1 POP SWAP2 SWAP1 POP JUMP JUMPDEST PUSH32 0x4E487B7100000000000000000000000000000000000000000000000000000000 PUSH1 0x0 MSTORE PUSH1 0x41 PUSH1 0x4 MSTORE PUSH1 0x24 PUSH1 0x0 REVERT JUMPDEST PUSH2 0x24F8 DUP3 PUSH2 0x24AF JUMP JUMPDEST DUP2 ADD DUP2 DUP2 LT PUSH8 0xFFFFFFFFFFFFFFFF DUP3 GT OR ISZERO PUSH2 0x2517 JUMPI PUSH2 0x2516 PUSH2 0x24C0 JUMP JUMPDEST JUMPDEST DUP1 PUSH1 0x40 MSTORE POP POP POP JUMP JUMPDEST PUSH1 0x0 PUSH2 0x252A PUSH2 0x23D5 JUMP JUMPDEST SWAP1 POP PUSH2 0x2536 DUP3 DUP3 PUSH2 0x24EF JUMP JUMPDEST SWAP2 SWAP1 POP JUMP JUMPDEST PUSH1 0x0 PUSH8 0xFFFFFFFFFFFFFFFF DUP3 GT ISZERO PUSH2 0x2556 JUMPI PUSH2 0x2555 PUSH2 0x24C0 JUMP JUMPDEST JUMPDEST PUSH1 0x20 DUP3 MUL SWAP1 POP PUSH1 0x20 DUP2 ADD SWAP1 POP SWAP2 SWAP1 POP JUMP JUMPDEST PUSH1 0x0 DUP1 REVERT JUMPDEST PUSH1 0x0 DUP1 REVERT JUMPDEST PUSH1 0x0 PUSH8 0xFFFFFFFFFFFFFFFF DUP3 GT ISZERO PUSH2 0x258C JUMPI PUSH2 0x258B PUSH2 0x24C0 JUMP JUMPDEST JUMPDEST PUSH2 0x2595 DUP3 PUSH2 0x24AF JUMP JUMPDEST SWAP1 POP PUSH1 0x20 DUP2 ADD SWAP1 POP SWAP2 SWAP1 POP JUMP JUMPDEST DUP3 DUP2 DUP4 CALLDATACOPY PUSH1 0x0 DUP4 DUP4 ADD MSTORE POP POP POP JUMP JUMPDEST PUSH1 0x0 PUSH2 0x25C4 PUSH2 0x25BF DUP5 PUSH2 0x2571 JUMP JUMPDEST PUSH2 0x2520 JUMP JUMPDEST SWAP1 POP DUP3 DUP2 MSTORE PUSH1 0x20 DUP2 ADD DUP5 DUP5 DUP5 ADD GT ISZERO PUSH2 0x25E0 JUMPI PUSH2 0x25DF PUSH2 0x256C JUMP JUMPDEST JUMPDEST PUSH2 0x25EB DUP5 DUP3 DUP6 PUSH2 0x25A2 JUMP JUMPDEST POP SWAP4 SWAP3 POP POP POP JUMP JUMPDEST PUSH1 0x0 DUP3 PUSH1 0x1F DUP4 ADD SLT PUSH2 0x2608 JUMPI PUSH2 0x2607 PUSH2 0x24AA JUMP JUMPDEST JUMPDEST DUP2 CALLDATALOAD PUSH2 0x2618 DUP5 DUP3 PUSH1 0x20 DUP7 ADD PUSH2 0x25B1 JUMP JUMPDEST SWAP2 POP POP SWAP3 SWAP2 POP POP JUMP JUMPDEST PUSH1 0x0 PUSH2 0x2634 PUSH2 0x262F DUP5 PUSH2 0x253B JUMP JUMPDEST PUSH2 0x2520 JUMP JUMPDEST SWAP1 POP DUP1 DUP4 DUP3 MSTORE PUSH1 0x20 DUP3 ADD SWAP1 POP PUSH1 0x20 DUP5 MUL DUP4 ADD DUP6 DUP2 GT ISZERO PUSH2 0x2657 JUMPI PUSH2 0x2656 PUSH2 0x2567 JUMP JUMPDEST JUMPDEST DUP4 JUMPDEST DUP2 DUP2 LT ISZERO PUSH2 0x269E JUMPI DUP1 CALLDATALOAD PUSH8 0xFFFFFFFFFFFFFFFF DUP2 GT ISZERO PUSH2 0x267C JUMPI PUSH2 0x267B PUSH2 0x24AA JUMP JUMPDEST JUMPDEST DUP1 DUP7 ADD PUSH2 0x2689 DUP10 DUP3 PUSH2 0x25F3 JUMP JUMPDEST DUP6 MSTORE PUSH1 0x20 DUP6 ADD SWAP5 POP POP POP PUSH1 0x20 DUP2 ADD SWAP1 POP PUSH2 0x2659 JUMP JUMPDEST POP POP POP SWAP4 SWAP3 POP POP POP JUMP JUMPDEST PUSH1 0x0 DUP3 PUSH1 0x1F DUP4 ADD SLT PUSH2 0x26BD JUMPI PUSH2 0x26BC PUSH2 0x24AA JUMP JUMPDEST JUMPDEST DUP2 CALLDATALOAD PUSH2 0x26CD DUP5 DUP3 PUSH1 0x20 DUP7 ADD PUSH2 0x2621 JUMP JUMPDEST SWAP2 POP POP SWAP3 SWAP2 POP POP JUMP JUMPDEST PUSH1 0x0 DUP1 PUSH1 0x40 DUP4 DUP6 SUB SLT ISZERO PUSH2 0x26ED JUMPI PUSH2 0x26EC PUSH2 0x23DF JUMP JUMPDEST JUMPDEST PUSH1 0x0 DUP4 ADD CALLDATALOAD PUSH8 0xFFFFFFFFFFFFFFFF DUP2 GT ISZERO PUSH2 0x270B JUMPI PUSH2 0x270A PUSH2 0x23E4 JUMP JUMPDEST JUMPDEST PUSH2 0x2717 DUP6 DUP3 DUP7 ADD PUSH2 0x26A8 JUMP JUMPDEST SWAP3 POP POP PUSH1 0x20 PUSH2 0x2728 DUP6 DUP3 DUP7 ADD PUSH2 0x2432 JUMP JUMPDEST SWAP2 POP POP SWAP3 POP SWAP3 SWAP1 POP JUMP JUMPDEST PUSH1 0x0 DUP2 MLOAD SWAP1 POP SWAP2 SWAP1 POP JUMP JUMPDEST PUSH1 0x0 DUP3 DUP3 MSTORE PUSH1 0x20 DUP3 ADD SWAP1 POP SWAP3 SWAP2 POP POP JUMP JUMPDEST PUSH1 0x0 JUMPDEST DUP4 DUP2 LT ISZERO PUSH2 0x276C JUMPI DUP1 DUP3 ADD MLOAD DUP2 DUP5 ADD MSTORE PUSH1 0x20 DUP2 ADD SWAP1 POP PUSH2 0x2751 JUMP JUMPDEST PUSH1 0x0 DUP5 DUP5 ADD MSTORE POP POP POP POP JUMP JUMPDEST PUSH1 0x0 PUSH2 0x2783 DUP3 PUSH2 0x2732 JUMP JUMPDEST PUSH2 0x278D DUP2 DUP6 PUSH2 0x273D JUMP JUMPDEST SWAP4 POP PUSH2 0x279D DUP2 DUP6 PUSH1 0x20 DUP7 ADD PUSH2 0x274E JUMP JUMPDEST PUSH2 0x27A6 DUP2 PUSH2 0x24AF JUMP JUMPDEST DUP5 ADD SWAP2 POP POP SWAP3 SWAP2 POP POP JUMP JUMPDEST PUSH1 0x0 PUSH1 0x20 DUP3 ADD SWAP1 POP DUP2 DUP2 SUB PUSH1 0x0 DUP4 ADD MSTORE PUSH2 0x27CB DUP2 DUP5 PUSH2 0x2778 JUMP JUMPDEST SWAP1 POP SWAP3 SWAP2 POP POP JUMP JUMPDEST PUSH1 0x0 PUSH8 0xFFFFFFFFFFFFFFFF DUP3 GT ISZERO PUSH2 0x27EE JUMPI PUSH2 0x27ED PUSH2 0x24C0 JUMP JUMPDEST JUMPDEST PUSH1 0x20 DUP3 MUL SWAP1 POP PUSH1 0x20 DUP2 ADD SWAP1 POP SWAP2 SWAP1 POP JUMP JUMPDEST PUSH1 0x0 DUP1 REVERT JUMPDEST PUSH1 0x0 DUP1 REVERT JUMPDEST PUSH1 0x0 DUP2 SWAP1 POP SWAP2 SWAP1 POP JUMP JUMPDEST PUSH2 0x281C DUP2 PUSH2 0x2809 JUMP JUMPDEST DUP2 EQ PUSH2 0x2827 JUMPI PUSH1 0x0 DUP1 REVERT JUMPDEST POP JUMP JUMPDEST PUSH1 0x0 DUP2 CALLDATALOAD SWAP1 POP PUSH2 0x2839 DUP2 PUSH2 0x2813 JUMP JUMPDEST SWAP3 SWAP2 POP POP JUMP JUMPDEST PUSH1 0x0 PUSH1 0x80 DUP3 DUP5 SUB SLT ISZERO PUSH2 0x2855 JUMPI PUSH2 0x2854 PUSH2 0x27FF JUMP JUMPDEST JUMPDEST PUSH2 0x285F PUSH1 0x80 PUSH2 0x2520 JUMP JUMPDEST SWAP1 POP PUSH1 0x0 DUP3 ADD CALLDATALOAD PUSH8 0xFFFFFFFFFFFFFFFF DUP2 GT ISZERO PUSH2 0x287F JUMPI PUSH2 0x287E PUSH2 0x2804 JUMP JUMPDEST JUMPDEST PUSH2 0x288B DUP5 DUP3 DUP6 ADD PUSH2 0x25F3 JUMP JUMPDEST PUSH1 0x0 DUP4 ADD MSTORE POP PUSH1 0x20 DUP3 ADD CALLDATALOAD PUSH8 0xFFFFFFFFFFFFFFFF DUP2 GT ISZERO PUSH2 0x28AF JUMPI PUSH2 0x28AE PUSH2 0x2804 JUMP JUMPDEST JUMPDEST PUSH2 0x28BB DUP5 DUP3 DUP6 ADD PUSH2 0x25F3 JUMP JUMPDEST PUSH1 0x20 DUP4 ADD MSTORE POP PUSH1 0x40 PUSH2 0x28CF DUP5 DUP3 DUP6 ADD PUSH2 0x282A JUMP JUMPDEST PUSH1 0x40 DUP4 ADD MSTORE POP PUSH1 0x60 DUP3 ADD CALLDATALOAD PUSH8 0xFFFFFFFFFFFFFFFF DUP2 GT ISZERO PUSH2 0x28F3 JUMPI PUSH2 0x28F2 PUSH2 0x2804 JUMP JUMPDEST JUMPDEST PUSH2 0x28FF DUP5 DUP3 DUP6 ADD PUSH2 0x25F3 JUMP JUMPDEST PUSH1 0x60 DUP4 ADD MSTORE POP SWAP3 SWAP2 POP POP JUMP JUMPDEST PUSH1 0x0 PUSH2 0x291E PUSH2 0x2919 DUP5 PUSH2 0x27D3 JUMP JUMPDEST PUSH2 0x2520 JUMP JUMPDEST SWAP1 POP DUP1 DUP4 DUP3 MSTORE PUSH1 0x20 DUP3 ADD SWAP1 POP PUSH1 0x20 DUP5 MUL DUP4 ADD DUP6 DUP2 GT ISZERO PUSH2 0x2941 JUMPI PUSH2 0x2940 PUSH2 0x2567 JUMP JUMPDEST JUMPDEST DUP4 JUMPDEST DUP2 DUP2 LT ISZERO PUSH2 0x2988 JUMPI DUP1 CALLDATALOAD PUSH8 0xFFFFFFFFFFFFFFFF DUP2 GT ISZERO PUSH2 0x2966 JUMPI PUSH2 0x2965 PUSH2 0x24AA JUMP JUMPDEST JUMPDEST DUP1 DUP7 ADD PUSH2 0x2973 DUP10 DUP3 PUSH2 0x283F JUMP JUMPDEST DUP6 MSTORE PUSH1 0x20 DUP6 ADD SWAP5 POP POP POP PUSH1 0x20 DUP2 ADD SWAP1 POP PUSH2 0x2943 JUMP JUMPDEST POP POP POP SWAP4 SWAP3 POP POP POP JUMP JUMPDEST PUSH1 0x0 DUP3 PUSH1 0x1F DUP4 ADD SLT PUSH2 0x29A7 JUMPI PUSH2 0x29A6 PUSH2 0x24AA JUMP JUMPDEST JUMPDEST DUP2 CALLDATALOAD PUSH2 0x29B7 DUP5 DUP3 PUSH1 0x20 DUP7 ADD PUSH2 0x290B JUMP JUMPDEST SWAP2 POP POP SWAP3 SWAP2 POP POP JUMP JUMPDEST PUSH1 0x0 DUP1 PUSH1 0x0 PUSH1 0x60 DUP5 DUP7 SUB SLT ISZERO PUSH2 0x29D9 JUMPI PUSH2 0x29D8 PUSH2 0x23DF JUMP JUMPDEST JUMPDEST PUSH1 0x0 DUP5 ADD CALLDATALOAD PUSH8 0xFFFFFFFFFFFFFFFF DUP2 GT ISZERO PUSH2 0x29F7 JUMPI PUSH2 0x29F6 PUSH2 0x23E4 JUMP JUMPDEST JUMPDEST PUSH2 0x2A03 DUP7 DUP3 DUP8 ADD PUSH2 0x26A8 JUMP JUMPDEST SWAP4 POP POP PUSH1 0x20 DUP5 ADD CALLDATALOAD PUSH8 0xFFFFFFFFFFFFFFFF DUP2 GT ISZERO PUSH2 0x2A24 JUMPI PUSH2 0x2A23 PUSH2 0x23E4 JUMP JUMPDEST JUMPDEST PUSH2 0x2A30 DUP7 DUP3 DUP8 ADD PUSH2 0x2992 JUMP JUMPDEST SWAP3 POP POP PUSH1 0x40 PUSH2 0x2A41 DUP7 DUP3 DUP8 ADD PUSH2 0x2432 JUMP JUMPDEST SWAP2 POP POP SWAP3 POP SWAP3 POP SWAP3 JUMP JUMPDEST PUSH1 0x0 DUP1 PUSH1 0x0 DUP1 PUSH1 0x0 DUP1 PUSH1 0x0 DUP1 PUSH1 0x0 PUSH2 0x120 DUP11 DUP13 SUB SLT ISZERO PUSH2 0x2A6E JUMPI PUSH2 0x2A6D PUSH2 0x23DF JUMP JUMPDEST JUMPDEST PUSH1 0x0 DUP11 ADD CALLDATALOAD PUSH8 0xFFFFFFFFFFFFFFFF DUP2 GT ISZERO PUSH2 0x2A8C JUMPI PUSH2 0x2A8B PUSH2 0x23E4 JUMP JUMPDEST JUMPDEST PUSH2 0x2A98 DUP13 DUP3 DUP14 ADD PUSH2 0x26A8 JUMP JUMPDEST SWAP10 POP POP PUSH1 0x20 DUP11 ADD CALLDATALOAD PUSH8 0xFFFFFFFFFFFFFFFF DUP2 GT ISZERO PUSH2 0x2AB9 JUMPI PUSH2 0x2AB8 PUSH2 0x23E4 JUMP JUMPDEST JUMPDEST PUSH2 0x2AC5 DUP13 DUP3 DUP14 ADD PUSH2 0x25F3 JUMP JUMPDEST SWAP9 POP POP PUSH1 0x40 DUP11 ADD CALLDATALOAD PUSH8 0xFFFFFFFFFFFFFFFF DUP2 GT ISZERO PUSH2 0x2AE6 JUMPI PUSH2 0x2AE5 PUSH2 0x23E4 JUMP JUMPDEST JUMPDEST PUSH2 0x2AF2 DUP13 DUP3 DUP14 ADD PUSH2 0x25F3 JUMP JUMPDEST SWAP8 POP POP PUSH1 0x60 DUP11 ADD CALLDATALOAD PUSH8 0xFFFFFFFFFFFFFFFF DUP2 GT ISZERO PUSH2 0x2B13 JUMPI PUSH2 0x2B12 PUSH2 0x23E4 JUMP JUMPDEST JUMPDEST PUSH2 0x2B1F DUP13 DUP3 DUP14 ADD PUSH2 0x25F3 JUMP JUMPDEST SWAP7 POP POP PUSH1 0x80 PUSH2 0x2B30 DUP13 DUP3 DUP14 ADD PUSH2 0x282A JUMP JUMPDEST SWAP6 POP POP PUSH1 0xA0 PUSH2 0x2B41 DUP13 DUP3 DUP14 ADD PUSH2 0x282A JUMP JUMPDEST SWAP5 POP POP PUSH1 0xC0 PUSH2 0x2B52 DUP13 DUP3 DUP14 ADD PUSH2 0x2432 JUMP JUMPDEST SWAP4 POP POP PUSH1 0xE0 DUP11 ADD CALLDATALOAD PUSH8 0xFFFFFFFFFFFFFFFF DUP2 GT ISZERO PUSH2 0x2B73 JUMPI PUSH2 0x2B72 PUSH2 0x23E4 JUMP JUMPDEST JUMPDEST PUSH2 0x2B7F DUP13 DUP3 DUP14 ADD PUSH2 0x25F3 JUMP JUMPDEST SWAP3 POP POP PUSH2 0x100 PUSH2 0x2B91 DUP13 DUP3 DUP14 ADD PUSH2 0x2432 JUMP JUMPDEST SWAP2 POP POP SWAP3 SWAP6 SWAP9 POP SWAP3 SWAP6 SWAP9 POP SWAP3 SWAP6 SWAP9 JUMP JUMPDEST PUSH1 0x0 DUP1 PUSH1 0x0 DUP1 PUSH1 0x0 DUP1 PUSH1 0xC0 DUP8 DUP10 SUB SLT ISZERO PUSH2 0x2BBE JUMPI PUSH2 0x2BBD PUSH2 0x23DF JUMP JUMPDEST JUMPDEST PUSH1 0x0 DUP8 ADD CALLDATALOAD PUSH8 0xFFFFFFFFFFFFFFFF DUP2 GT ISZERO PUSH2 0x2BDC JUMPI PUSH2 0x2BDB PUSH2 0x23E4 JUMP JUMPDEST JUMPDEST PUSH2 0x2BE8 DUP10 DUP3 DUP11 ADD PUSH2 0x26A8 JUMP JUMPDEST SWAP7 POP POP PUSH1 0x20 DUP8 ADD CALLDATALOAD PUSH8 0xFFFFFFFFFFFFFFFF DUP2 GT ISZERO PUSH2 0x2C09 JUMPI PUSH2 0x2C08 PUSH2 0x23E4 JUMP JUMPDEST JUMPDEST PUSH2 0x2C15 DUP10 DUP3 DUP11 ADD PUSH2 0x25F3 JUMP JUMPDEST SWAP6 POP POP PUSH1 0x40 DUP8 ADD CALLDATALOAD PUSH8 0xFFFFFFFFFFFFFFFF DUP2 GT ISZERO PUSH2 0x2C36 JUMPI PUSH2 0x2C35 PUSH2 0x23E4 JUMP JUMPDEST JUMPDEST PUSH2 0x2C42 DUP10 DUP3 DUP11 ADD PUSH2 0x25F3 JUMP JUMPDEST SWAP5 POP POP PUSH1 0x60 PUSH2 0x2C53 DUP10 DUP3 DUP11 ADD PUSH2 0x2432 JUMP JUMPDEST SWAP4 POP POP PUSH1 0x80 PUSH2 0x2C64 DUP10 DUP3 DUP11 ADD PUSH2 0x282A JUMP JUMPDEST SWAP3 POP POP PUSH1 0xA0 PUSH2 0x2C75 DUP10 DUP3 DUP11 ADD PUSH2 0x2432 JUMP JUMPDEST SWAP2 POP POP SWAP3 SWAP6 POP SWAP3 SWAP6 POP SWAP3 SWAP6 JUMP JUMPDEST PUSH1 0x0 DUP1 PUSH1 0x0 PUSH1 0x60 DUP5 DUP7 SUB SLT ISZERO PUSH2 0x2C9B JUMPI PUSH2 0x2C9A PUSH2 0x23DF JUMP JUMPDEST JUMPDEST PUSH1 0x0 DUP5 ADD CALLDATALOAD PUSH8 0xFFFFFFFFFFFFFFFF DUP2 GT ISZERO PUSH2 0x2CB9 JUMPI PUSH2 0x2CB8 PUSH2 0x23E4 JUMP JUMPDEST JUMPDEST PUSH2 0x2CC5 DUP7 DUP3 DUP8 ADD PUSH2 0x26A8 JUMP JUMPDEST SWAP4 POP POP PUSH1 0x20 DUP5 ADD CALLDATALOAD PUSH8 0xFFFFFFFFFFFFFFFF DUP2 GT ISZERO PUSH2 0x2CE6 JUMPI PUSH2 0x2CE5 PUSH2 0x23E4 JUMP JUMPDEST JUMPDEST PUSH2 0x2CF2 DUP7 DUP3 DUP8 ADD PUSH2 0x25F3 JUMP JUMPDEST SWAP3 POP POP PUSH1 0x40 PUSH2 0x2D03 DUP7 DUP3 DUP8 ADD PUSH2 0x2432 JUMP JUMPDEST SWAP2 POP POP SWAP3 POP SWAP3 POP SWAP3 JUMP JUMPDEST PUSH1 0x0 DUP2 SWAP1 POP SWAP3 SWAP2 POP POP JUMP JUMPDEST PUSH32 0x726F6F7400000000000000000000000000000000000000000000000000000000 PUSH1 0x0 DUP3 ADD MSTORE POP JUMP JUMPDEST PUSH1 0x0 PUSH2 0x2D4E PUSH1 0x4 DUP4 PUSH2 0x2D0D JUMP JUMPDEST SWAP2 POP PUSH2 0x2D59 DUP3 PUSH2 0x2D18 JUMP JUMPDEST PUSH1 0x4 DUP3 ADD SWAP1 POP SWAP2 SWAP1 POP JUMP JUMPDEST PUSH1 0x0 PUSH2 0x2D6F DUP3 PUSH2 0x2D41 JUMP JUMPDEST SWAP2 POP DUP2 SWAP1 POP SWAP2 SWAP1 POP JUMP JUMPDEST PUSH32 0x4E487B7100000000000000000000000000000000000000000000000000000000 PUSH1 0x0 MSTORE PUSH1 0x22 PUSH1 0x4 MSTORE PUSH1 0x24 PUSH1 0x0 REVERT JUMPDEST PUSH1 0x0 PUSH1 0x2 DUP3 DIV SWAP1 POP PUSH1 0x1 DUP3 AND DUP1 PUSH2 0x2DC0 JUMPI PUSH1 0x7F DUP3 AND SWAP2 POP JUMPDEST PUSH1 0x20 DUP3 LT DUP2 SUB PUSH2 0x2DD3 JUMPI PUSH2 0x2DD2 PUSH2 0x2D79 JUMP JUMPDEST JUMPDEST POP SWAP2 SWAP1 POP JUMP JUMPDEST PUSH1 0x0 DUP2 SWAP1 POP DUP2 PUSH1 0x0 MSTORE PUSH1 0x20 PUSH1 0x0 KECCAK256 SWAP1 POP SWAP2 SWAP1 POP JUMP JUMPDEST PUSH1 0x0 DUP2 SLOAD PUSH2 0x2DFB DUP2 PUSH2 0x2DA8 JUMP JUMPDEST PUSH2 0x2E05 DUP2 DUP7 PUSH2 0x2D0D JUMP JUMPDEST SWAP5 POP PUSH1 0x1 DUP3 AND PUSH1 0x0 DUP2 EQ PUSH2 0x2E20 JUMPI PUSH1 0x1 DUP2 EQ PUSH2 0x2E35 JUMPI PUSH2 0x2E68 JUMP JUMPDEST PUSH1 0xFF NOT DUP4 AND DUP7 MSTORE DUP2 ISZERO ISZERO DUP3 MUL DUP7 ADD SWAP4 POP PUSH2 0x2E68 JUMP JUMPDEST PUSH2 0x2E3E DUP6 PUSH2 0x2DD9 JUMP JUMPDEST PUSH1 0x0 JUMPDEST DUP4 DUP2 LT ISZERO PUSH2 0x2E60 JUMPI DUP2 SLOAD DUP2 DUP10 ADD MSTORE PUSH1 0x1 DUP3 ADD SWAP2 POP PUSH1 0x20 DUP2 ADD SWAP1 POP PUSH2 0x2E41 JUMP JUMPDEST DUP4 DUP9 ADD SWAP6 POP POP POP JUMPDEST POP POP POP SWAP3 SWAP2 POP POP JUMP JUMPDEST PUSH1 0x0 PUSH2 0x2E7D DUP3 DUP5 PUSH2 0x2DEE JUMP JUMPDEST SWAP2 POP DUP2 SWAP1 POP SWAP3 SWAP2 POP POP JUMP JUMPDEST PUSH32 0x5573657220616C726561647920696E697469616C697A65640000000000000000 PUSH1 0x0 DUP3 ADD MSTORE POP JUMP JUMPDEST PUSH1 0x0 PUSH2 0x2EBE PUSH1 0x18 DUP4 PUSH2 0x273D JUMP JUMPDEST SWAP2 POP PUSH2 0x2EC9 DUP3 PUSH2 0x2E88 JUMP JUMPDEST PUSH1 0x20 DUP3 ADD SWAP1 POP SWAP2 SWAP1 POP JUMP JUMPDEST PUSH1 0x0 PUSH1 0x20 DUP3 ADD SWAP1 POP DUP2 DUP2 SUB PUSH1 0x0 DUP4 ADD MSTORE PUSH2 0x2EED DUP2 PUSH2 0x2EB1 JUMP JUMPDEST SWAP1 POP SWAP2 SWAP1 POP JUMP JUMPDEST PUSH1 0x0 PUSH1 0x20 PUSH1 0x1F DUP4 ADD DIV SWAP1 POP SWAP2 SWAP1 POP JUMP JUMPDEST PUSH1 0x0 DUP3 DUP3 SHL SWAP1 POP SWAP3 SWAP2 POP POP JUMP JUMPDEST PUSH1 0x0 PUSH1 0x8 DUP4 MUL PUSH2 0x2F41 PUSH32 0xFFFFFFFFFFFFFFFFFFFFFFFFFFFFFFFFFFFFFFFFFFFFFFFFFFFFFFFFFFFFFFFF DUP3 PUSH2 0x2F04 JUMP JUMPDEST PUSH2 0x2F4B DUP7 DUP4 PUSH2 0x2F04 JUMP JUMPDEST SWAP6 POP DUP1 NOT DUP5 AND SWAP4 POP DUP1 DUP7 AND DUP5 OR SWAP3 POP POP POP SWAP4 SWAP3 POP POP POP JUMP JUMPDEST PUSH1 0x0 DUP2 SWAP1 POP SWAP2 SWAP1 POP JUMP JUMPDEST PUSH1 0x0 PUSH2 0x2F88 PUSH2 0x2F83 PUSH2 0x2F7E DUP5 PUSH2 0x2809 JUMP JUMPDEST PUSH2 0x2F63 JUMP JUMPDEST PUSH2 0x2809 JUMP JUMPDEST SWAP1 POP SWAP2 SWAP1 POP JUMP JUMPDEST PUSH1 0x0 DUP2 SWAP1 POP SWAP2 SWAP1 POP JUMP JUMPDEST PUSH2 0x2FA2 DUP4 PUSH2 0x2F6D JUMP JUMPDEST PUSH2 0x2FB6 PUSH2 0x2FAE DUP3 PUSH2 0x2F8F JUMP JUMPDEST DUP5 DUP5 SLOAD PUSH2 0x2F11 JUMP JUMPDEST DUP3 SSTORE POP POP POP POP JUMP JUMPDEST PUSH1 0x0 SWAP1 JUMP JUMPDEST PUSH2 0x2FCB PUSH2 0x2FBE JUMP JUMPDEST PUSH2 0x2FD6 DUP2 DUP5 DUP5 PUSH2 0x2F99 JUMP JUMPDEST POP POP POP JUMP JUMPDEST JUMPDEST DUP2 DUP2 LT ISZERO PUSH2 0x2FFA JUMPI PUSH2 0x2FEF PUSH1 0x0 DUP3 PUSH2 0x2FC3 JUMP JUMPDEST PUSH1 0x1 DUP2 ADD SWAP1 POP PUSH2 0x2FDC JUMP JUMPDEST POP POP JUMP JUMPDEST PUSH1 0x1F DUP3 GT ISZERO PUSH2 0x303F JUMPI PUSH2 0x3010 DUP2 PUSH2 0x2DD9 JUMP JUMPDEST PUSH2 0x3019 DUP5 PUSH2 0x2EF4 JUMP JUMPDEST DUP2 ADD PUSH1 0x20 DUP6 LT ISZERO PUSH2 0x3028 JUMPI DUP2 SWAP1 POP JUMPDEST PUSH2 0x303C PUSH2 0x3034 DUP6 PUSH2 0x2EF4 JUMP JUMPDEST DUP4 ADD DUP3 PUSH2 0x2FDB JUMP JUMPDEST POP POP JUMPDEST POP POP POP JUMP JUMPDEST PUSH1 0x0 DUP3 DUP3 SHR SWAP1 POP SWAP3 SWAP2 POP POP JUMP JUMPDEST PUSH1 0x0 PUSH2 0x3062 PUSH1 0x0 NOT DUP5 PUSH1 0x8 MUL PUSH2 0x3044 JUMP JUMPDEST NOT DUP1 DUP4 AND SWAP2 POP POP SWAP3 SWAP2 POP POP JUMP JUMPDEST PUSH1 0x0 PUSH2 0x307B DUP4 DUP4 PUSH2 0x3051 JUMP JUMPDEST SWAP2 POP DUP3 PUSH1 0x2 MUL DUP3 OR SWAP1 POP SWAP3 SWAP2 POP POP JUMP JUMPDEST PUSH2 0x3094 DUP3 PUSH2 0x2732 JUMP JUMPDEST PUSH8 0xFFFFFFFFFFFFFFFF DUP2 GT ISZERO PUSH2 0x30AD JUMPI PUSH2 0x30AC PUSH2 0x24C0 JUMP JUMPDEST JUMPDEST PUSH2 0x30B7 DUP3 SLOAD PUSH2 0x2DA8 JUMP JUMPDEST PUSH2 0x30C2 DUP3 DUP3 DUP6 PUSH2 0x2FFE JUMP JUMPDEST PUSH1 0x0 PUSH1 0x20 SWAP1 POP PUSH1 0x1F DUP4 GT PUSH1 0x1 DUP2 EQ PUSH2 0x30F5 JUMPI PUSH1 0x0 DUP5 ISZERO PUSH2 0x30E3 JUMPI DUP3 DUP8 ADD MLOAD SWAP1 POP JUMPDEST PUSH2 0x30ED DUP6 DUP3 PUSH2 0x306F JUMP JUMPDEST DUP7 SSTORE POP PUSH2 0x3155 JUMP JUMPDEST PUSH1 0x1F NOT DUP5 AND PUSH2 0x3103 DUP7 PUSH2 0x2DD9 JUMP JUMPDEST PUSH1 0x0 JUMPDEST DUP3 DUP2 LT ISZERO PUSH2 0x312B JUMPI DUP5 DUP10 ADD MLOAD DUP3 SSTORE PUSH1 0x1 DUP3 ADD SWAP2 POP PUSH1 0x20 DUP6 ADD SWAP5 POP PUSH1 0x20 DUP2 ADD SWAP1 POP PUSH2 0x3106 JUMP JUMPDEST DUP7 DUP4 LT ISZERO PUSH2 0x3148 JUMPI DUP5 DUP10 ADD MLOAD PUSH2 0x3144 PUSH1 0x1F DUP10 AND DUP3 PUSH2 0x3051 JUMP JUMPDEST DUP4 SSTORE POP JUMPDEST PUSH1 0x1 PUSH1 0x2 DUP9 MUL ADD DUP9 SSTORE POP POP POP JUMPDEST POP POP POP POP POP POP JUMP JUMPDEST PUSH32 0x5573657220726F6F74206E6F7420696E697469616C697A656400000000000000 PUSH1 0x0 DUP3 ADD MSTORE POP JUMP JUMPDEST PUSH1 0x0 PUSH2 0x3193 PUSH1 0x19 DUP4 PUSH2 0x273D JUMP JUMPDEST SWAP2 POP PUSH2 0x319E DUP3 PUSH2 0x315D JUMP JUMPDEST PUSH1 0x20 DUP3 ADD SWAP1 POP SWAP2 SWAP1 POP JUMP JUMPDEST PUSH1 0x0 PUSH1 0x20 DUP3 ADD SWAP1 POP DUP2 DUP2 SUB PUSH1 0x0 DUP4 ADD MSTORE PUSH2 0x31C2 DUP2 PUSH2 0x3186 JUMP JUMPDEST SWAP1 POP SWAP2 SWAP1 POP JUMP JUMPDEST PUSH32 0x4E487B7100000000000000000000000000000000000000000000000000000000 PUSH1 0x0 MSTORE PUSH1 0x32 PUSH1 0x4 MSTORE PUSH1 0x24 PUSH1 0x0 REVERT JUMPDEST PUSH1 0x0 PUSH2 0x3203 DUP3 PUSH2 0x2732 JUMP JUMPDEST PUSH2 0x320D DUP2 DUP6 PUSH2 0x2D0D JUMP JUMPDEST SWAP4 POP PUSH2 0x321D DUP2 DUP6 PUSH1 0x20 DUP7 ADD PUSH2 0x274E JUMP JUMPDEST DUP1 DUP5 ADD SWAP2 POP POP SWAP3 SWAP2 POP POP JUMP JUMPDEST PUSH1 0x0 PUSH2 0x3235 DUP3 DUP5 PUSH2 0x31F8 JUMP JUMPDEST SWAP2 POP DUP2 SWAP1 POP SWAP3 SWAP2 POP POP JUMP JUMPDEST PUSH32 0x5061746820646F6573206E6F7420657869737400000000000000000000000000 PUSH1 0x0 DUP3 ADD MSTORE POP JUMP JUMPDEST PUSH1 0x0 PUSH2 0x3276 PUSH1 0x13 DUP4 PUSH2 0x273D JUMP JUMPDEST SWAP2 POP PUSH2 0x3281 DUP3 PUSH2 0x3240 JUMP JUMPDEST PUSH1 0x20 DUP3 ADD SWAP1 POP SWAP2 SWAP1 POP JUMP JUMPDEST PUSH1 0x0 PUSH1 0x20 DUP3 ADD SWAP1 POP DUP2 DUP2 SUB PUSH1 0x0 DUP4 ADD MSTORE PUSH2 0x32A5 DUP2 PUSH2 0x3269 JUMP JUMPDEST SWAP1 POP SWAP2 SWAP1 POP JUMP JUMPDEST PUSH32 0x7B226E616D65223A220000000000000000000000000000000000000000000000 PUSH1 0x0 DUP3 ADD MSTORE POP JUMP JUMPDEST PUSH1 0x0 PUSH2 0x32E2 PUSH1 0x9 DUP4 PUSH2 0x2D0D JUMP JUMPDEST SWAP2 POP PUSH2 0x32ED DUP3 PUSH2 0x32AC JUMP JUMPDEST PUSH1 0x9 DUP3 ADD SWAP1 POP SWAP2 SWAP1 POP JUMP JUMPDEST PUSH32 0x222C226F776E6572223A22000000000000000000000000000000000000000000 PUSH1 0x0 DUP3 ADD MSTORE POP JUMP JUMPDEST PUSH1 0x0 PUSH2 0x332E PUSH1 0xB DUP4 PUSH2 0x2D0D JUMP JUMPDEST SWAP2 POP PUSH2 0x3339 DUP3 PUSH2 0x32F8 JUMP JUMPDEST PUSH1 0xB DUP3 ADD SWAP1 POP SWAP2 SWAP1 POP JUMP JUMPDEST PUSH32 0x222C22637265617465644174223A220000000000000000000000000000000000 PUSH1 0x0 DUP3 ADD MSTORE POP JUMP JUMPDEST PUSH1 0x0 PUSH2 0x337A PUSH1 0xF DUP4 PUSH2 0x2D0D JUMP JUMPDEST SWAP2 POP PUSH2 0x3385 DUP3 PUSH2 0x3344 JUMP JUMPDEST PUSH1 0xF DUP3 ADD SWAP1 POP SWAP2 SWAP1 POP JUMP JUMPDEST PUSH32 0x2200000000000000000000000000000000000000000000000000000000000000 PUSH1 0x0 DUP3 ADD MSTORE POP JUMP JUMPDEST PUSH1 0x0 PUSH2 0x33C6 PUSH1 0x1 DUP4 PUSH2 0x2D0D JUMP JUMPDEST SWAP2 POP PUSH2 0x33D1 DUP3 PUSH2 0x3390 JUMP JUMPDEST PUSH1 0x1 DUP3 ADD SWAP1 POP SWAP2 SWAP1 POP JUMP JUMPDEST PUSH1 0x0 PUSH2 0x33E7 DUP3 PUSH2 0x32D5 JUMP JUMPDEST SWAP2 POP PUSH2 0x33F3 DUP3 DUP7 PUSH2 0x2DEE JUMP JUMPDEST SWAP2 POP PUSH2 0x33FE DUP3 PUSH2 0x3321 JUMP JUMPDEST SWAP2 POP PUSH2 0x340A DUP3 DUP6 PUSH2 0x31F8 JUMP JUMPDEST SWAP2 POP PUSH2 0x3415 DUP3 PUSH2 0x336D JUMP JUMPDEST SWAP2 POP PUSH2 0x3421 DUP3 DUP5 PUSH2 0x31F8 JUMP JUMPDEST SWAP2 POP PUSH2 0x342C DUP3 PUSH2 0x33B9 JUMP JUMPDEST SWAP2 POP DUP2 SWAP1 POP SWAP5 SWAP4 POP POP POP POP JUMP JUMPDEST PUSH32 0x2C2266696C6573223A5B00000000000000000000000000000000000000000000 PUSH1 0x0 DUP3 ADD MSTORE POP JUMP JUMPDEST PUSH1 0x0 PUSH2 0x346F PUSH1 0xA DUP4 PUSH2 0x2D0D JUMP JUMPDEST SWAP2 POP PUSH2 0x347A DUP3 PUSH2 0x3439 JUMP JUMPDEST PUSH1 0xA DUP3 ADD SWAP1 POP SWAP2 SWAP1 POP JUMP JUMPDEST PUSH1 0x0 PUSH2 0x3491 DUP3 DUP5 PUSH2 0x31F8 JUMP JUMPDEST SWAP2 POP PUSH2 0x349C DUP3 PUSH2 0x3462 JUMP JUMPDEST SWAP2 POP DUP2 SWAP1 POP SWAP3 SWAP2 POP POP JUMP JUMPDEST PUSH32 0x222C22636964223A220000000000000000000000000000000000000000000000 PUSH1 0x0 DUP3 ADD MSTORE POP JUMP JUMPDEST PUSH1 0x0 PUSH2 0x34DD PUSH1 0x9 DUP4 PUSH2 0x2D0D JUMP JUMPDEST SWAP2 POP PUSH2 0x34E8 DUP3 PUSH2 0x34A7 JUMP JUMPDEST PUSH1 0x9 DUP3 ADD SWAP1 POP SWAP2 SWAP1 POP JUMP JUMPDEST PUSH32 0x222C2273697A65223A2200000000000000000000000000000000000000000000 PUSH1 0x0 DUP3 ADD MSTORE POP JUMP JUMPDEST PUSH1 0x0 PUSH2 0x3529 PUSH1 0xA DUP4 PUSH2 0x2D0D JUMP JUMPDEST SWAP2 POP PUSH2 0x3534 DUP3 PUSH2 0x34F3 JUMP JUMPDEST PUSH1 0xA DUP3 ADD SWAP1 POP SWAP2 SWAP1 POP JUMP JUMPDEST PUSH32 0x222C2266696C6554797065223A22000000000000000000000000000000000000 PUSH1 0x0 DUP3 ADD MSTORE POP JUMP JUMPDEST PUSH1 0x0 PUSH2 0x3575 PUSH1 0xE DUP4 PUSH2 0x2D0D JUMP JUMPDEST SWAP2 POP PUSH2 0x3580 DUP3 PUSH2 0x353F JUMP JUMPDEST PUSH1 0xE DUP3 ADD SWAP1 POP SWAP2 SWAP1 POP JUMP JUMPDEST PUSH32 0x227D000000000000000000000000000000000000000000000000000000000000 PUSH1 0x0 DUP3 ADD MSTORE POP JUMP JUMPDEST PUSH1 0x0 PUSH2 0x35C1 PUSH1 0x2 DUP4 PUSH2 0x2D0D JUMP JUMPDEST SWAP2 POP PUSH2 0x35CC DUP3 PUSH2 0x358B JUMP JUMPDEST PUSH1 0x2 DUP3 ADD SWAP1 POP SWAP2 SWAP1 POP JUMP JUMPDEST PUSH1 0x0 PUSH2 0x35E3 DUP3 DUP11 PUSH2 0x31F8 JUMP JUMPDEST SWAP2 POP PUSH2 0x35EE DUP3 PUSH2 0x32D5 JUMP JUMPDEST SWAP2 POP PUSH2 0x35FA DUP3 DUP10 PUSH2 0x2DEE JUMP JUMPDEST SWAP2 POP PUSH2 0x3605 DUP3 PUSH2 0x34D0 JUMP JUMPDEST SWAP2 POP PUSH2 0x3611 DUP3 DUP9 PUSH2 0x2DEE JUMP JUMPDEST SWAP2 POP PUSH2 0x361C DUP3 PUSH2 0x351C JUMP JUMPDEST SWAP2 POP PUSH2 0x3628 DUP3 DUP8 PUSH2 0x31F8 JUMP JUMPDEST SWAP2 POP PUSH2 0x3633 DUP3 PUSH2 0x336D JUMP JUMPDEST SWAP2 POP PUSH2 0x363F DUP3 DUP7 PUSH2 0x31F8 JUMP JUMPDEST SWAP2 POP PUSH2 0x364A DUP3 PUSH2 0x3321 JUMP JUMPDEST SWAP2 POP PUSH2 0x3656 DUP3 DUP6 PUSH2 0x31F8 JUMP JUMPDEST SWAP2 POP PUSH2 0x3661 DUP3 PUSH2 0x3568 JUMP JUMPDEST SWAP2 POP PUSH2 0x366D DUP3 DUP5 PUSH2 0x2DEE JUMP JUMPDEST SWAP2 POP PUSH2 0x3678 DUP3 PUSH2 0x35B4 JUMP JUMPDEST SWAP2 POP DUP2 SWAP1 POP SWAP9 SWAP8 POP POP POP POP POP POP POP POP JUMP JUMPDEST PUSH32 0x4E487B7100000000000000000000000000000000000000000000000000000000 PUSH1 0x0 MSTORE PUSH1 0x11 PUSH1 0x4 MSTORE PUSH1 0x24 PUSH1 0x0 REVERT JUMPDEST PUSH1 0x0 PUSH2 0x36C3 DUP3 PUSH2 0x2809 JUMP JUMPDEST SWAP2 POP PUSH2 0x36CE DUP4 PUSH2 0x2809 JUMP JUMPDEST SWAP3 POP DUP3 DUP3 SUB SWAP1 POP DUP2 DUP2 GT ISZERO PUSH2 0x36E6 JUMPI PUSH2 0x36E5 PUSH2 0x3689 JUMP JUMPDEST JUMPDEST SWAP3 SWAP2 POP POP JUMP JUMPDEST PUSH32 0x2C00000000000000000000000000000000000000000000000000000000000000 PUSH1 0x0 DUP3 ADD MSTORE POP JUMP JUMPDEST PUSH1 0x0 PUSH2 0x3722 PUSH1 0x1 DUP4 PUSH2 0x2D0D JUMP JUMPDEST SWAP2 POP PUSH2 0x372D DUP3 PUSH2 0x36EC JUMP JUMPDEST PUSH1 0x1 DUP3 ADD SWAP1 POP SWAP2 SWAP1 POP JUMP JUMPDEST PUSH1 0x0 PUSH2 0x3744 DUP3 DUP5 PUSH2 0x31F8 JUMP JUMPDEST SWAP2 POP PUSH2 0x374F DUP3 PUSH2 0x3715 JUMP JUMPDEST SWAP2 POP DUP2 SWAP1 POP SWAP3 SWAP2 POP POP JUMP JUMPDEST PUSH32 0x5D00000000000000000000000000000000000000000000000000000000000000 PUSH1 0x0 DUP3 ADD MSTORE POP JUMP JUMPDEST PUSH1 0x0 PUSH2 0x3790 PUSH1 0x1 DUP4 PUSH2 0x2D0D JUMP JUMPDEST SWAP2 POP PUSH2 0x379B DUP3 PUSH2 0x375A JUMP JUMPDEST PUSH1 0x1 DUP3 ADD SWAP1 POP SWAP2 SWAP1 POP JUMP JUMPDEST PUSH1 0x0 PUSH2 0x37B2 DUP3 DUP5 PUSH2 0x31F8 JUMP JUMPDEST SWAP2 POP PUSH2 0x37BD DUP3 PUSH2 0x3783 JUMP JUMPDEST SWAP2 POP DUP2 SWAP1 POP SWAP3 SWAP2 POP POP JUMP JUMPDEST PUSH32 0x2C22666F6C64657273223A5B0000000000000000000000000000000000000000 PUSH1 0x0 DUP3 ADD MSTORE POP JUMP JUMPDEST PUSH1 0x0 PUSH2 0x37FE PUSH1 0xC DUP4 PUSH2 0x2D0D JUMP JUMPDEST SWAP2 POP PUSH2 0x3809 DUP3 PUSH2 0x37C8 JUMP JUMPDEST PUSH1 0xC DUP3 ADD SWAP1 POP SWAP2 SWAP1 POP JUMP JUMPDEST PUSH1 0x0 PUSH2 0x3820 DUP3 DUP5 PUSH2 0x31F8 JUMP JUMPDEST SWAP2 POP PUSH2 0x382B DUP3 PUSH2 0x37F1 JUMP JUMPDEST SWAP2 POP DUP2 SWAP1 POP SWAP3 SWAP2 POP POP JUMP JUMPDEST PUSH1 0x0 PUSH2 0x3842 DUP3 DUP8 PUSH2 0x31F8 JUMP JUMPDEST SWAP2 POP PUSH2 0x384D DUP3 PUSH2 0x32D5 JUMP JUMPDEST SWAP2 POP PUSH2 0x3859 DUP3 DUP7 PUSH2 0x2DEE JUMP JUMPDEST SWAP2 POP PUSH2 0x3864 DUP3 PUSH2 0x3321 JUMP JUMPDEST SWAP2 POP PUSH2 0x3870 DUP3 DUP6 PUSH2 0x31F8 JUMP JUMPDEST SWAP2 POP PUSH2 0x387B DUP3 PUSH2 0x336D JUMP JUMPDEST SWAP2 POP PUSH2 0x3887 DUP3 DUP5 PUSH2 0x31F8 JUMP JUMPDEST SWAP2 POP PUSH2 0x3892 DUP3 PUSH2 0x35B4 JUMP JUMPDEST SWAP2 POP DUP2 SWAP1 POP SWAP6 SWAP5 POP POP POP POP POP JUMP JUMPDEST PUSH32 0x7D00000000000000000000000000000000000000000000000000000000000000 PUSH1 0x0 DUP3 ADD MSTORE POP JUMP JUMPDEST PUSH1 0x0 PUSH2 0x38D6 PUSH1 0x1 DUP4 PUSH2 0x2D0D JUMP JUMPDEST SWAP2 POP PUSH2 0x38E1 DUP3 PUSH2 0x38A0 JUMP JUMPDEST PUSH1 0x1 DUP3 ADD SWAP1 POP SWAP2 SWAP1 POP JUMP JUMPDEST PUSH1 0x0 PUSH2 0x38F8 DUP3 DUP5 PUSH2 0x31F8 JUMP JUMPDEST SWAP2 POP PUSH2 0x3903 DUP3 PUSH2 0x38C9 JUMP JUMPDEST SWAP2 POP DUP2 SWAP1 POP SWAP3 SWAP2 POP POP JUMP JUMPDEST PUSH32 0x5061746820646F6573206E6F7420657869737420617420696E64657820000000 PUSH1 0x0 DUP3 ADD MSTORE POP JUMP JUMPDEST PUSH1 0x0 PUSH2 0x3944 PUSH1 0x1D DUP4 PUSH2 0x2D0D JUMP JUMPDEST SWAP2 POP PUSH2 0x394F DUP3 PUSH2 0x390E JUMP JUMPDEST PUSH1 0x1D DUP3 ADD SWAP1 POP SWAP2 SWAP1 POP JUMP JUMPDEST PUSH1 0x0 PUSH2 0x3965 DUP3 PUSH2 0x3937 JUMP JUMPDEST SWAP2 POP PUSH2 0x3971 DUP3 DUP5 PUSH2 0x31F8 JUMP JUMPDEST SWAP2 POP DUP2 SWAP1 POP SWAP3 SWAP2 POP POP JUMP JUMPDEST PUSH32 0x46696C6520646F6573206E6F7420657869737400000000000000000000000000 PUSH1 0x0 DUP3 ADD MSTORE POP JUMP JUMPDEST PUSH1 0x0 PUSH2 0x39B2 PUSH1 0x13 DUP4 PUSH2 0x273D JUMP JUMPDEST SWAP2 POP PUSH2 0x39BD DUP3 PUSH2 0x397C JUMP JUMPDEST PUSH1 0x20 DUP3 ADD SWAP1 POP SWAP2 SWAP1 POP JUMP JUMPDEST PUSH1 0x0 PUSH1 0x20 DUP3 ADD SWAP1 POP DUP2 DUP2 SUB PUSH1 0x0 DUP4 ADD MSTORE PUSH2 0x39E1 DUP2 PUSH2 0x39A5 JUMP JUMPDEST SWAP1 POP SWAP2 SWAP1 POP JUMP JUMPDEST PUSH32 0x466F6C64657220646F6573206E6F742065786973740000000000000000000000 PUSH1 0x0 DUP3 ADD MSTORE POP JUMP JUMPDEST PUSH1 0x0 PUSH2 0x3A1E PUSH1 0x15 DUP4 PUSH2 0x273D JUMP JUMPDEST SWAP2 POP PUSH2 0x3A29 DUP3 PUSH2 0x39E8 JUMP JUMPDEST PUSH1 0x20 DUP3 ADD SWAP1 POP SWAP2 SWAP1 POP JUMP JUMPDEST PUSH1 0x0 PUSH1 0x20 DUP3 ADD SWAP1 POP DUP2 DUP2 SUB PUSH1 0x0 DUP4 ADD MSTORE PUSH2 0x3A4D DUP2 PUSH2 0x3A11 JUMP JUMPDEST SWAP1 POP SWAP2 SWAP1 POP JUMP JUMPDEST PUSH1 0x0 PUSH2 0x3A5F DUP3 PUSH2 0x2809 JUMP JUMPDEST SWAP2 POP PUSH2 0x3A6A DUP4 PUSH2 0x2809 JUMP JUMPDEST SWAP3 POP DUP3 DUP3 ADD SWAP1 POP DUP1 DUP3 GT ISZERO PUSH2 0x3A82 JUMPI PUSH2 0x3A81 PUSH2 0x3689 JUMP JUMPDEST JUMPDEST SWAP3 SWAP2 POP POP JUMP JUMPDEST PUSH1 0x0 DUP2 SLOAD SWAP1 POP PUSH2 0x3A97 DUP2 PUSH2 0x2DA8 JUMP JUMPDEST SWAP1 POP SWAP2 SWAP1 POP JUMP JUMPDEST DUP2 DUP2 SUB PUSH2 0x3AAC JUMPI POP POP PUSH2 0x3B84 JUMP JUMPDEST PUSH2 0x3AB5 DUP3 PUSH2 0x3A88 JUMP JUMPDEST PUSH8 0xFFFFFFFFFFFFFFFF DUP2 GT ISZERO PUSH2 0x3ACE JUMPI PUSH2 0x3ACD PUSH2 0x24C0 JUMP JUMPDEST JUMPDEST PUSH2 0x3AD8 DUP3 SLOAD PUSH2 0x2DA8 JUMP JUMPDEST PUSH2 0x3AE3 DUP3 DUP3 DUP6 PUSH2 0x2FFE JUMP JUMPDEST PUSH1 0x0 PUSH1 0x1F DUP4 GT PUSH1 0x1 DUP2 EQ PUSH2 0x3B12 JUMPI PUSH1 0x0 DUP5 ISZERO PUSH2 0x3B00 JUMPI DUP3 DUP8 ADD SLOAD SWAP1 POP JUMPDEST PUSH2 0x3B0A DUP6 DUP3 PUSH2 0x306F JUMP JUMPDEST DUP7 SSTORE POP PUSH2 0x3B7D JUMP JUMPDEST PUSH1 0x1F NOT DUP5 AND PUSH2 0x3B20 DUP8 PUSH2 0x2DD9 JUMP JUMPDEST SWAP7 POP PUSH2 0x3B2B DUP7 PUSH2 0x2DD9 JUMP JUMPDEST PUSH1 0x0 JUMPDEST DUP3 DUP2 LT ISZERO PUSH2 0x3B53 JUMPI DUP5 DUP10 ADD SLOAD DUP3 SSTORE PUSH1 0x1 DUP3 ADD SWAP2 POP PUSH1 0x1 DUP6 ADD SWAP5 POP PUSH1 0x20 DUP2 ADD SWAP1 POP PUSH2 0x3B2E JUMP JUMPDEST DUP7 DUP4 LT ISZERO PUSH2 0x3B70 JUMPI DUP5 DUP10 ADD SLOAD PUSH2 0x3B6C PUSH1 0x1F DUP10 AND DUP3 PUSH2 0x3051 JUMP JUMPDEST DUP4 SSTORE POP JUMPDEST PUSH1 0x1 PUSH1 0x2 DUP9 MUL ADD DUP9 SSTORE POP POP POP JUMPDEST POP POP POP POP POP POP JUMPDEST JUMP JUMPDEST PUSH32 0x4E487B7100000000000000000000000000000000000000000000000000000000 PUSH1 0x0 MSTORE PUSH1 0x31 PUSH1 0x4 MSTORE PUSH1 0x24 PUSH1 0x0 REVERT JUMPDEST PUSH1 0x0 PUSH2 0x3BC0 DUP3 PUSH2 0x2809 JUMP JUMPDEST SWAP2 POP PUSH2 0x3BCB DUP4 PUSH2 0x2809 JUMP JUMPDEST SWAP3 POP DUP3 DUP3 MUL PUSH2 0x3BD9 DUP2 PUSH2 0x2809 JUMP JUMPDEST SWAP2 POP DUP3 DUP3 DIV DUP5 EQ DUP4 ISZERO OR PUSH2 0x3BF0 JUMPI PUSH2 0x3BEF PUSH2 0x3689 JUMP JUMPDEST JUMPDEST POP SWAP3 SWAP2 POP POP JUMP JUMPDEST PUSH1 0x0 PUSH2 0x3C02 DUP3 PUSH2 0x2809 JUMP JUMPDEST SWAP2 POP PUSH32 0xFFFFFFFFFFFFFFFFFFFFFFFFFFFFFFFFFFFFFFFFFFFFFFFFFFFFFFFFFFFFFFFF DUP3 SUB PUSH2 0x3C34 JUMPI PUSH2 0x3C33 PUSH2 0x3689 JUMP JUMPDEST JUMPDEST PUSH1 0x1 DUP3 ADD SWAP1 POP SWAP2 SWAP1 POP JUMP JUMPDEST PUSH32 0x4E487B7100000000000000000000000000000000000000000000000000000000 PUSH1 0x0 MSTORE PUSH1 0x12 PUSH1 0x4 MSTORE PUSH1 0x24 PUSH1 0x0 REVERT JUMPDEST PUSH1 0x0 PUSH2 0x3C79 DUP3 PUSH2 0x2809 JUMP JUMPDEST SWAP2 POP PUSH2 0x3C84 DUP4 PUSH2 0x2809 JUMP JUMPDEST SWAP3 POP DUP3 PUSH2 0x3C94 JUMPI PUSH2 0x3C93 PUSH2 0x3C3F JUMP JUMPDEST JUMPDEST DUP3 DUP3 DIV SWAP1 POP SWAP3 SWAP2 POP POP JUMP JUMPDEST PUSH1 0x0 PUSH1 0xFF DUP3 AND SWAP1 POP SWAP2 SWAP1 POP JUMP JUMPDEST PUSH1 0x0 PUSH2 0x3CB7 DUP3 PUSH2 0x3C9F JUMP JUMPDEST SWAP2 POP PUSH2 0x3CC2 DUP4 PUSH2 0x3C9F JUMP JUMPDEST SWAP3 POP DUP3 DUP3 ADD SWAP1 POP PUSH1 0xFF DUP2 GT ISZERO PUSH2 0x3CDB JUMPI PUSH2 0x3CDA PUSH2 0x3689 JUMP JUMPDEST JUMPDEST SWAP3 SWAP2 POP POP JUMP INVALID LOG2 PUSH5 0x6970667358 0x22 SLT KECCAK256 0xDD 0xA7 PUSH22 0x3E265A411AE192AF57F0B63B7CDAFFB6016CDEBCDE31 RETURNDATACOPY PUSH14 0x71DA22055D64736F6C6343000818 STOP CALLER "
        },
        "methodIdentifiers": {
          "checkUserRoot(address)": "d9ec2719",
          "createFiles(string[],(string,string,uint256,string)[],address)": "4ee37c28",
          "createFolder(string[],string,address)": "cc6cd16f",
          "deleteFile(string[],string,address)": "e7465d7b",
          "getFolderData(string[],address)": "140af0e2",
          "initUserRoot(address)": "01496b84",
          "updateFile(string[],string,string,string,uint256,uint256,address,string,address)": "958566be",
          "updateFolder(string[],string,string,address,uint256,address)": "b74083a3"
        }
      }
    }
  }
}