{
  "contracts/smooth.sol": {
    "Smooth": {
      "abi": [
        {
          "inputs": [
            {
              "internalType": "address",
              "name": "_user",
              "type": "address"
            }
          ],
          "name": "checkUserRoot",
          "outputs": [
            {
              "internalType": "bool",
              "name": "",
              "type": "bool"
            }
          ],
          "stateMutability": "view",
          "type": "function"
        },
        {
          "inputs": [
            {
              "internalType": "string[]",
              "name": "_path",
              "type": "string[]"
            },
            {
              "components": [
                {
                  "internalType": "string",
                  "name": "name",
                  "type": "string"
                },
                {
                  "internalType": "string",
                  "name": "cid",
                  "type": "string"
                },
                {
                  "internalType": "uint256",
                  "name": "size",
                  "type": "uint256"
                },
                {
                  "internalType": "string",
                  "name": "fileType",
                  "type": "string"
                }
              ],
              "internalType": "struct Smooth.FileData[]",
              "name": "_files",
              "type": "tuple[]"
            },
            {
              "internalType": "address",
              "name": "_user",
              "type": "address"
            }
          ],
          "name": "createFiles",
          "outputs": [],
          "stateMutability": "nonpayable",
          "type": "function"
        },
        {
          "inputs": [
            {
              "internalType": "string[]",
              "name": "_path",
              "type": "string[]"
            },
            {
              "internalType": "string",
              "name": "_folderName",
              "type": "string"
            },
            {
              "internalType": "address",
              "name": "_user",
              "type": "address"
            }
          ],
          "name": "createFolder",
          "outputs": [],
          "stateMutability": "nonpayable",
          "type": "function"
        },
        {
          "inputs": [
            {
              "internalType": "string[]",
              "name": "_path",
              "type": "string[]"
            },
            {
              "internalType": "string",
              "name": "_fileName",
              "type": "string"
            },
            {
              "internalType": "address",
              "name": "_user",
              "type": "address"
            }
          ],
          "name": "deleteFile",
          "outputs": [],
          "stateMutability": "nonpayable",
          "type": "function"
        },
        {
          "inputs": [
            {
              "internalType": "string[]",
              "name": "_path",
              "type": "string[]"
            },
            {
              "internalType": "string",
              "name": "_folderName",
              "type": "string"
            },
            {
              "internalType": "address",
              "name": "_user",
              "type": "address"
            }
          ],
          "name": "deleteFolder",
          "outputs": [],
          "stateMutability": "nonpayable",
          "type": "function"
        },
        {
          "inputs": [
            {
              "internalType": "string[]",
              "name": "_path",
              "type": "string[]"
            },
            {
              "internalType": "address",
              "name": "_user",
              "type": "address"
            }
          ],
          "name": "getFolderData",
          "outputs": [
            {
              "internalType": "string",
              "name": "",
              "type": "string"
            }
          ],
          "stateMutability": "view",
          "type": "function"
        },
        {
          "inputs": [
            {
              "internalType": "address",
              "name": "_user",
              "type": "address"
            }
          ],
          "name": "getSharedData",
          "outputs": [
            {
              "internalType": "string",
              "name": "",
              "type": "string"
            }
          ],
          "stateMutability": "view",
          "type": "function"
        },
        {
          "inputs": [
            {
              "internalType": "address",
              "name": "owner",
              "type": "address"
            },
            {
              "internalType": "address",
              "name": "to",
              "type": "address"
            },
            {
              "internalType": "string",
              "name": "name",
              "type": "string"
            },
            {
              "internalType": "string",
              "name": "cid",
              "type": "string"
            },
            {
              "internalType": "uint256",
              "name": "size",
              "type": "uint256"
            },
            {
              "internalType": "uint256",
              "name": "createdAt",
              "type": "uint256"
            },
            {
              "internalType": "string",
              "name": "fileType",
              "type": "string"
            }
          ],
          "name": "giveFileAccess",
          "outputs": [],
          "stateMutability": "nonpayable",
          "type": "function"
        },
        {
          "inputs": [
            {
              "internalType": "address",
              "name": "_user",
              "type": "address"
            }
          ],
          "name": "initUserRoot",
          "outputs": [
            {
              "internalType": "bool",
              "name": "",
              "type": "bool"
            }
          ],
          "stateMutability": "nonpayable",
          "type": "function"
        }
      ],
      "evm": {
        "bytecode": {
          "linkReferences": {},
          "object": "608060405234801561001057600080fd5b50614412806100206000396000f3fe608060405234801561001057600080fd5b50600436106100935760003560e01c806362bfa0141161006657806362bfa01414610130578063cbcba28c14610160578063cc6cd16f1461017c578063d9ec271914610198578063e7465d7b146101c857610093565b806301496b8414610098578063140af0e2146100c857806339cf4df2146100f85780634ee37c2814610114575b600080fd5b6100b260048036038101906100ad9190612a91565b6101e4565b6040516100bf9190612ad9565b60405180910390f35b6100e260048036038101906100dd9190612d20565b610411565b6040516100ef9190612dfb565b60405180910390f35b610112600480360381019061010d9190612e1d565b610a4d565b005b61012e60048036038101906101299190613095565b610f00565b005b61014a60048036038101906101459190612a91565b6112a1565b6040516101579190612dfb565b60405180910390f35b61017a60048036038101906101759190613120565b6116dc565b005b61019660048036038101906101919190612e1d565b6119eb565b005b6101b260048036038101906101ad9190612a91565b611c7a565b6040516101bf9190612ad9565b60405180910390f35b6101e260048036038101906101dd9190612e1d565b611d23565b005b60006040516020016101f59061326d565b604051602081830303815290604052805190602001206000808473ffffffffffffffffffffffffffffffffffffffff1673ffffffffffffffffffffffffffffffffffffffff16815260200190815260200160002060000160000160405160200161025f919061337a565b60405160208183030381529060405280519060200120036102b5576040517f08c379a00000000000000000000000000000000000000000000000000000000081526004016102ac906133dd565b60405180910390fd5b6040518060400160405280600481526020017f726f6f74000000000000000000000000000000000000000000000000000000008152506000808473ffffffffffffffffffffffffffffffffffffffff1673ffffffffffffffffffffffffffffffffffffffff168152602001908152602001600020600001600001908161033b9190613594565b50816000808473ffffffffffffffffffffffffffffffffffffffff1673ffffffffffffffffffffffffffffffffffffffff16815260200190815260200160002060000160010160006101000a81548173ffffffffffffffffffffffffffffffffffffffff021916908373ffffffffffffffffffffffffffffffffffffffff160217905550426000808473ffffffffffffffffffffffffffffffffffffffff1673ffffffffffffffffffffffffffffffffffffffff1681526020019081526020016000206000016002018190555060019050919050565b606061041c82611c7a565b61045b576040517f08c379a0000000000000000000000000000000000000000000000000000000008152600401610452906136b2565b60405180910390fd5b60008060008473ffffffffffffffffffffffffffffffffffffffff1673ffffffffffffffffffffffffffffffffffffffff16815260200190815260200160002060000190506001845111156105ed576000600190505b84518110156105eb576000805b836004018054905081101561059c578683815181106104e0576104df6136d2565b5b60200260200101516040516020016104f89190613732565b60405160208183030381529060405280519060200120846004018281548110610524576105236136d2565b5b9060005260206000209060050201600001604051602001610545919061337a565b604051602081830303815290604052805190602001200361058f57836004018181548110610576576105756136d2565b5b906000526020600020906005020193506001915061059c565b80806001019150506104be565b50806105dd576040517f08c379a00000000000000000000000000000000000000000000000000000000081526004016105d490613795565b60405180910390fd5b5080806001019150506104b1565b505b6000816000016106208360010160009054906101000a900473ffffffffffffffffffffffffffffffffffffffff166121db565b61062d84600201546124e0565b60405160200161063f939291906138e5565b604051602081830303815290604052905060008260030180549050111561085a5780604051602001610671919061398e565b604051602081830303815290604052905060005b82600301805490508110156108365760008360030182815481106106ac576106ab6136d2565b5b9060005260206000209060060201905060008160000180546106cd906132b1565b90501180156106ec575060008160010180546106e8906132b1565b9050115b80156106fc575060008160020154115b801561070c575060008160030154115b80156107695750600073ffffffffffffffffffffffffffffffffffffffff168160040160009054906101000a900473ffffffffffffffffffffffffffffffffffffffff1673ffffffffffffffffffffffffffffffffffffffff1614155b156108285782816000018260010161078484600201546124e0565b61079185600301546124e0565b6107be8660040160009054906101000a900473ffffffffffffffffffffffffffffffffffffffff166121db565b866005016040516020016107d89796959493929190613ae0565b6040516020818303038152906040529250600184600301805490506107fd9190613bc1565b82101561082757826040516020016108159190613c41565b60405160208183030381529060405292505b5b508080600101915050610685565b50806040516020016108489190613caf565b60405160208183030381529060405290505b600082600401805490501115610a20578060405160200161087b9190613d1d565b604051602081830303815290604052905060005b82600401805490508110156109fc5760008360040182815481106108b6576108b56136d2565b5b9060005260206000209060050201905060008160000180546108d7906132b1565b90501180156109375750600073ffffffffffffffffffffffffffffffffffffffff168160010160009054906101000a900473ffffffffffffffffffffffffffffffffffffffff1673ffffffffffffffffffffffffffffffffffffffff1614155b8015610947575060008160020154115b156109ee57828160000161097e8360010160009054906101000a900473ffffffffffffffffffffffffffffffffffffffff166121db565b61098b84600201546124e0565b60405160200161099e9493929190613d3f565b6040516020818303038152906040529250600184600401805490506109c39190613bc1565b8210156109ed57826040516020016109db9190613c41565b60405160208183030381529060405292505b5b50808060010191505061088f565b5080604051602001610a0e9190613caf565b60405160208183030381529060405290505b80604051602001610a319190613df5565b6040516020818303038152906040529050809250505092915050565b610a5681611c7a565b610a95576040517f08c379a0000000000000000000000000000000000000000000000000000000008152600401610a8c906136b2565b60405180910390fd5b60008060008373ffffffffffffffffffffffffffffffffffffffff1673ffffffffffffffffffffffffffffffffffffffff168152602001908152602001600020600001905060008190506000600190505b8551811015610c4e576000805b8460040180549050811015610bd457878381518110610b1557610b146136d2565b5b6020026020010151604051602001610b2d9190613732565b60405160208183030381529060405280519060200120856004018281548110610b5957610b586136d2565b5b9060005260206000209060050201600001604051602001610b7a919061337a565b6040516020818303038152906040528051906020012003610bc757849350846004018181548110610bae57610bad6136d2565b5b9060005260206000209060050201945060019150610bd4565b8080600101915050610af3565b5080610bdf836124e0565b604051602001610bef9190613e63565b60405160208183030381529060405290610c3f576040517f08c379a0000000000000000000000000000000000000000000000000000000008152600401610c369190612dfb565b60405180910390fd5b50508080600101915050610ae6565b506000805b8260040180549050811015610eb75785604051602001610c739190613732565b60405160208183030381529060405280519060200120836004018281548110610c9f57610c9e6136d2565b5b9060005260206000209060050201600001604051602001610cc0919061337a565b6040516020818303038152906040528051906020012003610eaa576001915060008190505b60018460040180549050610cf99190613bc1565b811015610e185783600401600182610d119190613e85565b81548110610d2257610d216136d2565b5b9060005260206000209060050201846004018281548110610d4657610d456136d2565b5b906000526020600020906005020160008201816000019081610d689190613ecf565b506001820160009054906101000a900473ffffffffffffffffffffffffffffffffffffffff168160010160006101000a81548173ffffffffffffffffffffffffffffffffffffffff021916908373ffffffffffffffffffffffffffffffffffffffff160217905550600282015481600201556003820181600301908054610df0929190612668565b506004820181600401908054610e0792919061277a565b509050508080600101915050610ce5565b5082600401805480610e2d57610e2c613fb7565b5b600190038181906000526020600020906005020160008082016000610e529190612886565b6001820160006101000a81549073ffffffffffffffffffffffffffffffffffffffff02191690556002820160009055600382016000610e9191906128c6565b600482016000610ea191906128ea565b50509055610eb7565b8080600101915050610c53565b5080610ef8576040517f08c379a0000000000000000000000000000000000000000000000000000000008152600401610eef90614032565b60405180910390fd5b505050505050565b610f0981611c7a565b610f48576040517f08c379a0000000000000000000000000000000000000000000000000000000008152600401610f3f906136b2565b60405180910390fd5b60008060008373ffffffffffffffffffffffffffffffffffffffff1673ffffffffffffffffffffffffffffffffffffffff16815260200190815260200160002060000190506000600190505b84518110156110f9576000805b836004018054905081101561107f57868381518110610fc357610fc26136d2565b5b6020026020010151604051602001610fdb9190613732565b60405160208183030381529060405280519060200120846004018281548110611007576110066136d2565b5b9060005260206000209060050201600001604051602001611028919061337a565b604051602081830303815290604052805190602001200361107257836004018181548110611059576110586136d2565b5b906000526020600020906005020193506001915061107f565b8080600101915050610fa1565b508061108a836124e0565b60405160200161109a9190613e63565b604051602081830303815290604052906110ea576040517f08c379a00000000000000000000000000000000000000000000000000000000081526004016110e19190612dfb565b60405180910390fd5b50508080600101915050610f94565b5060005b835181101561129a57816003016040518060c00160405280868481518110611128576111276136d2565b5b602002602001015160000151815260200186848151811061114c5761114b6136d2565b5b60200260200101516020015181526020018684815181106111705761116f6136d2565b5b60200260200101516040015181526020014281526020018573ffffffffffffffffffffffffffffffffffffffff1681526020018684815181106111b6576111b56136d2565b5b602002602001015160600151815250908060018154018082558091505060019003906000526020600020906006020160009091909190915060008201518160000190816112039190613594565b5060208201518160010190816112199190613594565b50604082015181600201556060820151816003015560808201518160040160006101000a81548173ffffffffffffffffffffffffffffffffffffffff021916908373ffffffffffffffffffffffffffffffffffffffff16021790555060a082015181600501908161128a9190613594565b50505080806001019150506110fd565b5050505050565b60606112ac82611c7a565b6112eb576040517f08c379a00000000000000000000000000000000000000000000000000000000081526004016112e2906136b2565b60405180910390fd5b60008060008473ffffffffffffffffffffffffffffffffffffffff1673ffffffffffffffffffffffffffffffffffffffff168152602001908152602001600020600601905060008060008573ffffffffffffffffffffffffffffffffffffffff1673ffffffffffffffffffffffffffffffffffffffff168152602001908152602001600020600501905060006040518060400160405280600181526020017f5b00000000000000000000000000000000000000000000000000000000000000815250905060005b83805490508110156114ec5760008482815481106113d3576113d26136d2565b5b906000526020600020906007020190506000816000016114168360040160009054906101000a900473ffffffffffffffffffffffffffffffffffffffff166121db565b61142384600301546124e0565b6114508560050160009054906101000a900473ffffffffffffffffffffffffffffffffffffffff166121db565b856001018660060160405160200161146d9695949392919061409e565b60405160208183030381529060405290508381604051602001611491929190614143565b6040516020818303038152906040529350600186805490506114b39190613bc1565b8310156114dd57836040516020016114cb9190613c41565b60405160208183030381529060405293505b505080806001019150506113b2565b50806040516020016114fe9190613caf565b604051602081830303815290604052905060006040518060400160405280600181526020017f5b00000000000000000000000000000000000000000000000000000000000000815250905060005b838054905081101561168657600084828154811061156d5761156c6136d2565b5b906000526020600020906007020190506000816000016115b08360040160009054906101000a900473ffffffffffffffffffffffffffffffffffffffff166121db565b6115bd84600301546124e0565b6115ea8560050160009054906101000a900473ffffffffffffffffffffffffffffffffffffffff166121db565b85600101866006016040516020016116079695949392919061409e565b6040516020818303038152906040529050838160405160200161162b929190614143565b60405160208183030381529060405293506001868054905061164d9190613bc1565b83101561167757836040516020016116659190613c41565b60405160208183030381529060405293505b5050808060010191505061154c565b50806040516020016116989190613caf565b6040516020818303038152906040529050600082826040516020016116be9291906141ff565b60405160208183030381529060405290508095505050505050919050565b60006040518060e001604052808781526020018681526020018581526020018481526020018973ffffffffffffffffffffffffffffffffffffffff1681526020018873ffffffffffffffffffffffffffffffffffffffff1681526020018381525090506000808973ffffffffffffffffffffffffffffffffffffffff1673ffffffffffffffffffffffffffffffffffffffff16815260200190815260200160002060060181908060018154018082558091505060019003906000526020600020906007020160009091909190915060008201518160000190816117bf9190613594565b5060208201518160010190816117d59190613594565b50604082015181600201556060820151816003015560808201518160040160006101000a81548173ffffffffffffffffffffffffffffffffffffffff021916908373ffffffffffffffffffffffffffffffffffffffff16021790555060a08201518160050160006101000a81548173ffffffffffffffffffffffffffffffffffffffff021916908373ffffffffffffffffffffffffffffffffffffffff16021790555060c082015181600601908161188d9190613594565b5050506000808873ffffffffffffffffffffffffffffffffffffffff1673ffffffffffffffffffffffffffffffffffffffff16815260200190815260200160002060050181908060018154018082558091505060019003906000526020600020906007020160009091909190915060008201518160000190816119109190613594565b5060208201518160010190816119269190613594565b50604082015181600201556060820151816003015560808201518160040160006101000a81548173ffffffffffffffffffffffffffffffffffffffff021916908373ffffffffffffffffffffffffffffffffffffffff16021790555060a08201518160050160006101000a81548173ffffffffffffffffffffffffffffffffffffffff021916908373ffffffffffffffffffffffffffffffffffffffff16021790555060c08201518160060190816119de9190613594565b5050505050505050505050565b6119f481611c7a565b611a33576040517f08c379a0000000000000000000000000000000000000000000000000000000008152600401611a2a906136b2565b60405180910390fd5b60008060008373ffffffffffffffffffffffffffffffffffffffff1673ffffffffffffffffffffffffffffffffffffffff16815260200190815260200160002060000190506000600190505b8451811015611bb9576000805b8360040180549050811015611b6a57868381518110611aae57611aad6136d2565b5b6020026020010151604051602001611ac69190613732565b60405160208183030381529060405280519060200120846004018281548110611af257611af16136d2565b5b9060005260206000209060050201600001604051602001611b13919061337a565b6040516020818303038152906040528051906020012003611b5d57836004018181548110611b4457611b436136d2565b5b9060005260206000209060050201935060019150611b6a565b8080600101915050611a8c565b5080611bab576040517f08c379a0000000000000000000000000000000000000000000000000000000008152600401611ba290613795565b60405180910390fd5b508080600101915050611a7f565b50806004016001816001815401808255809150500390600052602060002090505060008160040160018360040180549050611bf49190613bc1565b81548110611c0557611c046136d2565b5b9060005260206000209060050201905083816000019081611c269190613594565b50828160010160006101000a81548173ffffffffffffffffffffffffffffffffffffffff021916908373ffffffffffffffffffffffffffffffffffffffff1602179055504281600201819055505050505050565b6000604051602001611c8b9061326d565b604051602081830303815290604052805190602001206000808473ffffffffffffffffffffffffffffffffffffffff1673ffffffffffffffffffffffffffffffffffffffff168152602001908152602001600020600001600001604051602001611cf5919061337a565b6040516020818303038152906040528051906020012014611d195760009050611d1e565b600190505b919050565b611d2c81611c7a565b611d6b576040517f08c379a0000000000000000000000000000000000000000000000000000000008152600401611d62906136b2565b60405180910390fd5b60008060008373ffffffffffffffffffffffffffffffffffffffff1673ffffffffffffffffffffffffffffffffffffffff16815260200190815260200160002060000190506000600190505b8451811015611f1c576000805b8360040180549050811015611ea257868381518110611de657611de56136d2565b5b6020026020010151604051602001611dfe9190613732565b60405160208183030381529060405280519060200120846004018281548110611e2a57611e296136d2565b5b9060005260206000209060050201600001604051602001611e4b919061337a565b6040516020818303038152906040528051906020012003611e9557836004018181548110611e7c57611e7b6136d2565b5b9060005260206000209060050201935060019150611ea2565b8080600101915050611dc4565b5080611ead836124e0565b604051602001611ebd9190613e63565b60405160208183030381529060405290611f0d576040517f08c379a0000000000000000000000000000000000000000000000000000000008152600401611f049190612dfb565b60405180910390fd5b50508080600101915050611db7565b506000805b82600301805490508110156121935784604051602001611f419190613732565b60405160208183030381529060405280519060200120836003018281548110611f6d57611f6c6136d2565b5b9060005260206000209060060201600001604051602001611f8e919061337a565b6040516020818303038152906040528051906020012003612186576001915060008190505b60018460030180549050611fc79190613bc1565b8110156120ec5783600301600182611fdf9190613e85565b81548110611ff057611fef6136d2565b5b9060005260206000209060060201846003018281548110612014576120136136d2565b5b9060005260206000209060060201600082018160000190816120369190613ecf565b506001820181600101908161204b9190613ecf565b5060028201548160020155600382015481600301556004820160009054906101000a900473ffffffffffffffffffffffffffffffffffffffff168160040160006101000a81548173ffffffffffffffffffffffffffffffffffffffff021916908373ffffffffffffffffffffffffffffffffffffffff160217905550600582018160050190816120db9190613ecf565b509050508080600101915050611fb3565b508260030180548061210157612100613fb7565b5b6001900381819060005260206000209060060201600080820160006121269190612886565b6001820160006121369190612886565b600282016000905560038201600090556004820160006101000a81549073ffffffffffffffffffffffffffffffffffffffff021916905560058201600061217d9190612886565b50509055612193565b8080600101915050611f21565b50806121d4576040517f08c379a00000000000000000000000000000000000000000000000000000000081526004016121cb90614290565b60405180910390fd5b5050505050565b606060008273ffffffffffffffffffffffffffffffffffffffff1660001b905060006040518060400160405280601081526020017f303132333435363738396162636465660000000000000000000000000000000081525090506000602a67ffffffffffffffff81111561225257612251612b0a565b5b6040519080825280601f01601f1916602001820160405280156122845781602001600182028036833780820191505090505b5090507f3000000000000000000000000000000000000000000000000000000000000000816000815181106122bc576122bb6136d2565b5b60200101907effffffffffffffffffffffffffffffffffffffffffffffffffffffffffffff1916908160001a9053507f7800000000000000000000000000000000000000000000000000000000000000816001815181106123205761231f6136d2565b5b60200101907effffffffffffffffffffffffffffffffffffffffffffffffffffffffffffff1916908160001a90535060005b60148110156124d45782600485600c8461236c9190613e85565b6020811061237d5761237c6136d2565b5b1a60f81b7effffffffffffffffffffffffffffffffffffffffffffffffffffffffffffff1916901c60f81c60ff16815181106123bc576123bb6136d2565b5b602001015160f81c60f81b826002836123d591906142b0565b60026123e19190613e85565b815181106123f2576123f16136d2565b5b60200101907effffffffffffffffffffffffffffffffffffffffffffffffffffffffffffff1916908160001a90535082600f60f81b85600c846124359190613e85565b60208110612446576124456136d2565b5b1a60f81b1660f81c60ff1681518110612462576124616136d2565b5b602001015160f81c60f81b8260028361247b91906142b0565b60036124879190613e85565b81518110612498576124976136d2565b5b60200101907effffffffffffffffffffffffffffffffffffffffffffffffffffffffffffff1916908160001a9053508080600101915050612352565b50809350505050919050565b606060008203612527576040518060400160405280600181526020017f30000000000000000000000000000000000000000000000000000000000000008152509050612663565b600082905060005b60008214612559578080612542906142f2565b915050600a826125529190614369565b915061252f565b60008167ffffffffffffffff81111561257557612574612b0a565b5b6040519080825280601f01601f1916602001820160405280156125a75781602001600182028036833780820191505090505b50905060008290505b6000861461265b576001816125c59190613bc1565b90506000600a80886125d79190614369565b6125e191906142b0565b876125ec9190613bc1565b60306125f891906143a7565b905060008160f81b905080848481518110612616576126156136d2565b5b60200101907effffffffffffffffffffffffffffffffffffffffffffffffffffffffffffff1916908160001a905350600a886126529190614369565b975050506125b0565b819450505050505b919050565b8280548282559060005260206000209060060281019282156127695760005260206000209160060282015b82811115612768578282600082018160000190816126b19190613ecf565b50600182018160010190816126c69190613ecf565b5060028201548160020155600382015481600301556004820160009054906101000a900473ffffffffffffffffffffffffffffffffffffffff168160040160006101000a81548173ffffffffffffffffffffffffffffffffffffffff021916908373ffffffffffffffffffffffffffffffffffffffff160217905550600582018160050190816127569190613ecf565b50505091600601919060060190612693565b5b509050612776919061290e565b5090565b8280548282559060005260206000209060050281019282156128755760005260206000209160050282015b82811115612874578282600082018160000190816127c39190613ecf565b506001820160009054906101000a900473ffffffffffffffffffffffffffffffffffffffff168160010160006101000a81548173ffffffffffffffffffffffffffffffffffffffff021916908373ffffffffffffffffffffffffffffffffffffffff16021790555060028201548160020155600382018160030190805461284b929190612668565b50600482018160040190805461286292919061277a565b505050916005019190600501906127a5565b5b509050612882919061298c565b5090565b508054612892906132b1565b6000825580601f106128a457506128c3565b601f0160209004906000526020600020908101906128c29190612a02565b5b50565b50805460008255600602906000526020600020908101906128e7919061290e565b50565b508054600082556005029060005260206000209081019061290b919061298c565b50565b5b8082111561298857600080820160006129289190612886565b6001820160006129389190612886565b600282016000905560038201600090556004820160006101000a81549073ffffffffffffffffffffffffffffffffffffffff021916905560058201600061297f9190612886565b5060060161290f565b5090565b5b808211156129fe57600080820160006129a69190612886565b6001820160006101000a81549073ffffffffffffffffffffffffffffffffffffffff021916905560028201600090556003820160006129e591906128c6565b6004820160006129f591906128ea565b5060050161298d565b5090565b5b80821115612a1b576000816000905550600101612a03565b5090565b6000604051905090565b600080fd5b600080fd5b600073ffffffffffffffffffffffffffffffffffffffff82169050919050565b6000612a5e82612a33565b9050919050565b612a6e81612a53565b8114612a7957600080fd5b50565b600081359050612a8b81612a65565b92915050565b600060208284031215612aa757612aa6612a29565b5b6000612ab584828501612a7c565b91505092915050565b60008115159050919050565b612ad381612abe565b82525050565b6000602082019050612aee6000830184612aca565b92915050565b600080fd5b6000601f19601f8301169050919050565b7f4e487b7100000000000000000000000000000000000000000000000000000000600052604160045260246000fd5b612b4282612af9565b810181811067ffffffffffffffff82111715612b6157612b60612b0a565b5b80604052505050565b6000612b74612a1f565b9050612b808282612b39565b919050565b600067ffffffffffffffff821115612ba057612b9f612b0a565b5b602082029050602081019050919050565b600080fd5b600080fd5b600067ffffffffffffffff821115612bd657612bd5612b0a565b5b612bdf82612af9565b9050602081019050919050565b82818337600083830152505050565b6000612c0e612c0984612bbb565b612b6a565b905082815260208101848484011115612c2a57612c29612bb6565b5b612c35848285612bec565b509392505050565b600082601f830112612c5257612c51612af4565b5b8135612c62848260208601612bfb565b91505092915050565b6000612c7e612c7984612b85565b612b6a565b90508083825260208201905060208402830185811115612ca157612ca0612bb1565b5b835b81811015612ce857803567ffffffffffffffff811115612cc657612cc5612af4565b5b808601612cd38982612c3d565b85526020850194505050602081019050612ca3565b5050509392505050565b600082601f830112612d0757612d06612af4565b5b8135612d17848260208601612c6b565b91505092915050565b60008060408385031215612d3757612d36612a29565b5b600083013567ffffffffffffffff811115612d5557612d54612a2e565b5b612d6185828601612cf2565b9250506020612d7285828601612a7c565b9150509250929050565b600081519050919050565b600082825260208201905092915050565b60005b83811015612db6578082015181840152602081019050612d9b565b60008484015250505050565b6000612dcd82612d7c565b612dd78185612d87565b9350612de7818560208601612d98565b612df081612af9565b840191505092915050565b60006020820190508181036000830152612e158184612dc2565b905092915050565b600080600060608486031215612e3657612e35612a29565b5b600084013567ffffffffffffffff811115612e5457612e53612a2e565b5b612e6086828701612cf2565b935050602084013567ffffffffffffffff811115612e8157612e80612a2e565b5b612e8d86828701612c3d565b9250506040612e9e86828701612a7c565b9150509250925092565b600067ffffffffffffffff821115612ec357612ec2612b0a565b5b602082029050602081019050919050565b600080fd5b600080fd5b6000819050919050565b612ef181612ede565b8114612efc57600080fd5b50565b600081359050612f0e81612ee8565b92915050565b600060808284031215612f2a57612f29612ed4565b5b612f346080612b6a565b9050600082013567ffffffffffffffff811115612f5457612f53612ed9565b5b612f6084828501612c3d565b600083015250602082013567ffffffffffffffff811115612f8457612f83612ed9565b5b612f9084828501612c3d565b6020830152506040612fa484828501612eff565b604083015250606082013567ffffffffffffffff811115612fc857612fc7612ed9565b5b612fd484828501612c3d565b60608301525092915050565b6000612ff3612fee84612ea8565b612b6a565b9050808382526020820190506020840283018581111561301657613015612bb1565b5b835b8181101561305d57803567ffffffffffffffff81111561303b5761303a612af4565b5b8086016130488982612f14565b85526020850194505050602081019050613018565b5050509392505050565b600082601f83011261307c5761307b612af4565b5b813561308c848260208601612fe0565b91505092915050565b6000806000606084860312156130ae576130ad612a29565b5b600084013567ffffffffffffffff8111156130cc576130cb612a2e565b5b6130d886828701612cf2565b935050602084013567ffffffffffffffff8111156130f9576130f8612a2e565b5b61310586828701613067565b925050604061311686828701612a7c565b9150509250925092565b600080600080600080600060e0888a03121561313f5761313e612a29565b5b600061314d8a828b01612a7c565b975050602061315e8a828b01612a7c565b965050604088013567ffffffffffffffff81111561317f5761317e612a2e565b5b61318b8a828b01612c3d565b955050606088013567ffffffffffffffff8111156131ac576131ab612a2e565b5b6131b88a828b01612c3d565b94505060806131c98a828b01612eff565b93505060a06131da8a828b01612eff565b92505060c088013567ffffffffffffffff8111156131fb576131fa612a2e565b5b6132078a828b01612c3d565b91505092959891949750929550565b600081905092915050565b7f726f6f7400000000000000000000000000000000000000000000000000000000600082015250565b6000613257600483613216565b915061326282613221565b600482019050919050565b60006132788261324a565b9150819050919050565b7f4e487b7100000000000000000000000000000000000000000000000000000000600052602260045260246000fd5b600060028204905060018216806132c957607f821691505b6020821081036132dc576132db613282565b5b50919050565b60008190508160005260206000209050919050565b60008154613304816132b1565b61330e8186613216565b94506001821660008114613329576001811461333e57613371565b60ff1983168652811515820286019350613371565b613347856132e2565b60005b838110156133695781548189015260018201915060208101905061334a565b838801955050505b50505092915050565b600061338682846132f7565b915081905092915050565b7f5573657220616c726561647920696e697469616c697a65640000000000000000600082015250565b60006133c7601883612d87565b91506133d282613391565b602082019050919050565b600060208201905081810360008301526133f6816133ba565b9050919050565b60006020601f8301049050919050565b600082821b905092915050565b60006008830261344a7fffffffffffffffffffffffffffffffffffffffffffffffffffffffffffffffff8261340d565b613454868361340d565b95508019841693508086168417925050509392505050565b6000819050919050565b600061349161348c61348784612ede565b61346c565b612ede565b9050919050565b6000819050919050565b6134ab83613476565b6134bf6134b782613498565b84845461341a565b825550505050565b600090565b6134d46134c7565b6134df8184846134a2565b505050565b5b81811015613503576134f86000826134cc565b6001810190506134e5565b5050565b601f82111561354857613519816132e2565b613522846133fd565b81016020851015613531578190505b61354561353d856133fd565b8301826134e4565b50505b505050565b600082821c905092915050565b600061356b6000198460080261354d565b1980831691505092915050565b6000613584838361355a565b9150826002028217905092915050565b61359d82612d7c565b67ffffffffffffffff8111156135b6576135b5612b0a565b5b6135c082546132b1565b6135cb828285613507565b600060209050601f8311600181146135fe57600084156135ec578287015190505b6135f68582613578565b86555061365e565b601f19841661360c866132e2565b60005b828110156136345784890151825560018201915060208501945060208101905061360f565b86831015613651578489015161364d601f89168261355a565b8355505b6001600288020188555050505b505050505050565b7f5573657220726f6f74206e6f7420696e697469616c697a656400000000000000600082015250565b600061369c601983612d87565b91506136a782613666565b602082019050919050565b600060208201905081810360008301526136cb8161368f565b9050919050565b7f4e487b7100000000000000000000000000000000000000000000000000000000600052603260045260246000fd5b600061370c82612d7c565b6137168185613216565b9350613726818560208601612d98565b80840191505092915050565b600061373e8284613701565b915081905092915050565b7f5061746820646f6573206e6f7420657869737400000000000000000000000000600082015250565b600061377f601383612d87565b915061378a82613749565b602082019050919050565b600060208201905081810360008301526137ae81613772565b9050919050565b7f7b226e616d65223a220000000000000000000000000000000000000000000000600082015250565b60006137eb600983613216565b91506137f6826137b5565b600982019050919050565b7f222c226f776e6572223a22000000000000000000000000000000000000000000600082015250565b6000613837600b83613216565b915061384282613801565b600b82019050919050565b7f222c22637265617465644174223a220000000000000000000000000000000000600082015250565b6000613883600f83613216565b915061388e8261384d565b600f82019050919050565b7f2200000000000000000000000000000000000000000000000000000000000000600082015250565b60006138cf600183613216565b91506138da82613899565b600182019050919050565b60006138f0826137de565b91506138fc82866132f7565b91506139078261382a565b91506139138285613701565b915061391e82613876565b915061392a8284613701565b9150613935826138c2565b9150819050949350505050565b7f2c2266696c6573223a5b00000000000000000000000000000000000000000000600082015250565b6000613978600a83613216565b915061398382613942565b600a82019050919050565b600061399a8284613701565b91506139a58261396b565b915081905092915050565b7f222c22636964223a220000000000000000000000000000000000000000000000600082015250565b60006139e6600983613216565b91506139f1826139b0565b600982019050919050565b7f222c2273697a65223a2200000000000000000000000000000000000000000000600082015250565b6000613a32600a83613216565b9150613a3d826139fc565b600a82019050919050565b7f222c2266696c6554797065223a22000000000000000000000000000000000000600082015250565b6000613a7e600e83613216565b9150613a8982613a48565b600e82019050919050565b7f227d000000000000000000000000000000000000000000000000000000000000600082015250565b6000613aca600283613216565b9150613ad582613a94565b600282019050919050565b6000613aec828a613701565b9150613af7826137de565b9150613b0382896132f7565b9150613b0e826139d9565b9150613b1a82886132f7565b9150613b2582613a25565b9150613b318287613701565b9150613b3c82613876565b9150613b488286613701565b9150613b538261382a565b9150613b5f8285613701565b9150613b6a82613a71565b9150613b7682846132f7565b9150613b8182613abd565b915081905098975050505050505050565b7f4e487b7100000000000000000000000000000000000000000000000000000000600052601160045260246000fd5b6000613bcc82612ede565b9150613bd783612ede565b9250828203905081811115613bef57613bee613b92565b5b92915050565b7f2c00000000000000000000000000000000000000000000000000000000000000600082015250565b6000613c2b600183613216565b9150613c3682613bf5565b600182019050919050565b6000613c4d8284613701565b9150613c5882613c1e565b915081905092915050565b7f5d00000000000000000000000000000000000000000000000000000000000000600082015250565b6000613c99600183613216565b9150613ca482613c63565b600182019050919050565b6000613cbb8284613701565b9150613cc682613c8c565b915081905092915050565b7f2c22666f6c64657273223a5b0000000000000000000000000000000000000000600082015250565b6000613d07600c83613216565b9150613d1282613cd1565b600c82019050919050565b6000613d298284613701565b9150613d3482613cfa565b915081905092915050565b6000613d4b8287613701565b9150613d56826137de565b9150613d6282866132f7565b9150613d6d8261382a565b9150613d798285613701565b9150613d8482613876565b9150613d908284613701565b9150613d9b82613abd565b915081905095945050505050565b7f7d00000000000000000000000000000000000000000000000000000000000000600082015250565b6000613ddf600183613216565b9150613dea82613da9565b600182019050919050565b6000613e018284613701565b9150613e0c82613dd2565b915081905092915050565b7f5061746820646f6573206e6f7420657869737420617420696e64657820000000600082015250565b6000613e4d601d83613216565b9150613e5882613e17565b601d82019050919050565b6000613e6e82613e40565b9150613e7a8284613701565b915081905092915050565b6000613e9082612ede565b9150613e9b83612ede565b9250828201905080821115613eb357613eb2613b92565b5b92915050565b600081549050613ec8816132b1565b9050919050565b818103613edd575050613fb5565b613ee682613eb9565b67ffffffffffffffff811115613eff57613efe612b0a565b5b613f0982546132b1565b613f14828285613507565b6000601f831160018114613f435760008415613f31578287015490505b613f3b8582613578565b865550613fae565b601f198416613f51876132e2565b9650613f5c866132e2565b60005b82811015613f8457848901548255600182019150600185019450602081019050613f5f565b86831015613fa15784890154613f9d601f89168261355a565b8355505b6001600288020188555050505b5050505050505b565b7f4e487b7100000000000000000000000000000000000000000000000000000000600052603160045260246000fd5b7f466f6c64657220646f6573206e6f742065786973740000000000000000000000600082015250565b600061401c601583612d87565b915061402782613fe6565b602082019050919050565b6000602082019050818103600083015261404b8161400f565b9050919050565b7f222c22746f223a22000000000000000000000000000000000000000000000000600082015250565b6000614088600883613216565b915061409382614052565b600882019050919050565b60006140a9826137de565b91506140b582896132f7565b91506140c08261382a565b91506140cc8288613701565b91506140d782613876565b91506140e38287613701565b91506140ee8261407b565b91506140fa8286613701565b9150614105826139d9565b915061411182856132f7565b915061411c82613a71565b915061412882846132f7565b915061413382613abd565b9150819050979650505050505050565b600061414f8285613701565b915061415b8284613701565b91508190509392505050565b7f7b22736861726564546f50656f706c65223a0000000000000000000000000000600082015250565b600061419d601283613216565b91506141a882614167565b601282019050919050565b7f2c22736861726564576974684d65223a00000000000000000000000000000000600082015250565b60006141e9601083613216565b91506141f4826141b3565b601082019050919050565b600061420a82614190565b91506142168285613701565b9150614221826141dc565b915061422d8284613701565b915061423882613dd2565b91508190509392505050565b7f46696c6520646f6573206e6f7420657869737400000000000000000000000000600082015250565b600061427a601383612d87565b915061428582614244565b602082019050919050565b600060208201905081810360008301526142a98161426d565b9050919050565b60006142bb82612ede565b91506142c683612ede565b92508282026142d481612ede565b915082820484148315176142eb576142ea613b92565b5b5092915050565b60006142fd82612ede565b91507fffffffffffffffffffffffffffffffffffffffffffffffffffffffffffffffff820361432f5761432e613b92565b5b600182019050919050565b7f4e487b7100000000000000000000000000000000000000000000000000000000600052601260045260246000fd5b600061437482612ede565b915061437f83612ede565b92508261438f5761438e61433a565b5b828204905092915050565b600060ff82169050919050565b60006143b28261439a565b91506143bd8361439a565b9250828201905060ff8111156143d6576143d5613b92565b5b9291505056fea2646970667358221220e9e3af33a362910d5a6b3de3d4dd528e349587b6c355c6d43eb498156c52b26c64736f6c63430008180033",
          "opcodes": "PUSH1 0x80 PUSH1 0x40 MSTORE CALLVALUE DUP1 ISZERO PUSH2 0x10 JUMPI PUSH1 0x0 DUP1 REVERT JUMPDEST POP PUSH2 0x4412 DUP1 PUSH2 0x20 PUSH1 0x0 CODECOPY PUSH1 0x0 RETURN INVALID PUSH1 0x80 PUSH1 0x40 MSTORE CALLVALUE DUP1 ISZERO PUSH2 0x10 JUMPI PUSH1 0x0 DUP1 REVERT JUMPDEST POP PUSH1 0x4 CALLDATASIZE LT PUSH2 0x93 JUMPI PUSH1 0x0 CALLDATALOAD PUSH1 0xE0 SHR DUP1 PUSH4 0x62BFA014 GT PUSH2 0x66 JUMPI DUP1 PUSH4 0x62BFA014 EQ PUSH2 0x130 JUMPI DUP1 PUSH4 0xCBCBA28C EQ PUSH2 0x160 JUMPI DUP1 PUSH4 0xCC6CD16F EQ PUSH2 0x17C JUMPI DUP1 PUSH4 0xD9EC2719 EQ PUSH2 0x198 JUMPI DUP1 PUSH4 0xE7465D7B EQ PUSH2 0x1C8 JUMPI PUSH2 0x93 JUMP JUMPDEST DUP1 PUSH4 0x1496B84 EQ PUSH2 0x98 JUMPI DUP1 PUSH4 0x140AF0E2 EQ PUSH2 0xC8 JUMPI DUP1 PUSH4 0x39CF4DF2 EQ PUSH2 0xF8 JUMPI DUP1 PUSH4 0x4EE37C28 EQ PUSH2 0x114 JUMPI JUMPDEST PUSH1 0x0 DUP1 REVERT JUMPDEST PUSH2 0xB2 PUSH1 0x4 DUP1 CALLDATASIZE SUB DUP2 ADD SWAP1 PUSH2 0xAD SWAP2 SWAP1 PUSH2 0x2A91 JUMP JUMPDEST PUSH2 0x1E4 JUMP JUMPDEST PUSH1 0x40 MLOAD PUSH2 0xBF SWAP2 SWAP1 PUSH2 0x2AD9 JUMP JUMPDEST PUSH1 0x40 MLOAD DUP1 SWAP2 SUB SWAP1 RETURN JUMPDEST PUSH2 0xE2 PUSH1 0x4 DUP1 CALLDATASIZE SUB DUP2 ADD SWAP1 PUSH2 0xDD SWAP2 SWAP1 PUSH2 0x2D20 JUMP JUMPDEST PUSH2 0x411 JUMP JUMPDEST PUSH1 0x40 MLOAD PUSH2 0xEF SWAP2 SWAP1 PUSH2 0x2DFB JUMP JUMPDEST PUSH1 0x40 MLOAD DUP1 SWAP2 SUB SWAP1 RETURN JUMPDEST PUSH2 0x112 PUSH1 0x4 DUP1 CALLDATASIZE SUB DUP2 ADD SWAP1 PUSH2 0x10D SWAP2 SWAP1 PUSH2 0x2E1D JUMP JUMPDEST PUSH2 0xA4D JUMP JUMPDEST STOP JUMPDEST PUSH2 0x12E PUSH1 0x4 DUP1 CALLDATASIZE SUB DUP2 ADD SWAP1 PUSH2 0x129 SWAP2 SWAP1 PUSH2 0x3095 JUMP JUMPDEST PUSH2 0xF00 JUMP JUMPDEST STOP JUMPDEST PUSH2 0x14A PUSH1 0x4 DUP1 CALLDATASIZE SUB DUP2 ADD SWAP1 PUSH2 0x145 SWAP2 SWAP1 PUSH2 0x2A91 JUMP JUMPDEST PUSH2 0x12A1 JUMP JUMPDEST PUSH1 0x40 MLOAD PUSH2 0x157 SWAP2 SWAP1 PUSH2 0x2DFB JUMP JUMPDEST PUSH1 0x40 MLOAD DUP1 SWAP2 SUB SWAP1 RETURN JUMPDEST PUSH2 0x17A PUSH1 0x4 DUP1 CALLDATASIZE SUB DUP2 ADD SWAP1 PUSH2 0x175 SWAP2 SWAP1 PUSH2 0x3120 JUMP JUMPDEST PUSH2 0x16DC JUMP JUMPDEST STOP JUMPDEST PUSH2 0x196 PUSH1 0x4 DUP1 CALLDATASIZE SUB DUP2 ADD SWAP1 PUSH2 0x191 SWAP2 SWAP1 PUSH2 0x2E1D JUMP JUMPDEST PUSH2 0x19EB JUMP JUMPDEST STOP JUMPDEST PUSH2 0x1B2 PUSH1 0x4 DUP1 CALLDATASIZE SUB DUP2 ADD SWAP1 PUSH2 0x1AD SWAP2 SWAP1 PUSH2 0x2A91 JUMP JUMPDEST PUSH2 0x1C7A JUMP JUMPDEST PUSH1 0x40 MLOAD PUSH2 0x1BF SWAP2 SWAP1 PUSH2 0x2AD9 JUMP JUMPDEST PUSH1 0x40 MLOAD DUP1 SWAP2 SUB SWAP1 RETURN JUMPDEST PUSH2 0x1E2 PUSH1 0x4 DUP1 CALLDATASIZE SUB DUP2 ADD SWAP1 PUSH2 0x1DD SWAP2 SWAP1 PUSH2 0x2E1D JUMP JUMPDEST PUSH2 0x1D23 JUMP JUMPDEST STOP JUMPDEST PUSH1 0x0 PUSH1 0x40 MLOAD PUSH1 0x20 ADD PUSH2 0x1F5 SWAP1 PUSH2 0x326D JUMP JUMPDEST PUSH1 0x40 MLOAD PUSH1 0x20 DUP2 DUP4 SUB SUB DUP2 MSTORE SWAP1 PUSH1 0x40 MSTORE DUP1 MLOAD SWAP1 PUSH1 0x20 ADD KECCAK256 PUSH1 0x0 DUP1 DUP5 PUSH20 0xFFFFFFFFFFFFFFFFFFFFFFFFFFFFFFFFFFFFFFFF AND PUSH20 0xFFFFFFFFFFFFFFFFFFFFFFFFFFFFFFFFFFFFFFFF AND DUP2 MSTORE PUSH1 0x20 ADD SWAP1 DUP2 MSTORE PUSH1 0x20 ADD PUSH1 0x0 KECCAK256 PUSH1 0x0 ADD PUSH1 0x0 ADD PUSH1 0x40 MLOAD PUSH1 0x20 ADD PUSH2 0x25F SWAP2 SWAP1 PUSH2 0x337A JUMP JUMPDEST PUSH1 0x40 MLOAD PUSH1 0x20 DUP2 DUP4 SUB SUB DUP2 MSTORE SWAP1 PUSH1 0x40 MSTORE DUP1 MLOAD SWAP1 PUSH1 0x20 ADD KECCAK256 SUB PUSH2 0x2B5 JUMPI PUSH1 0x40 MLOAD PUSH32 0x8C379A000000000000000000000000000000000000000000000000000000000 DUP2 MSTORE PUSH1 0x4 ADD PUSH2 0x2AC SWAP1 PUSH2 0x33DD JUMP JUMPDEST PUSH1 0x40 MLOAD DUP1 SWAP2 SUB SWAP1 REVERT JUMPDEST PUSH1 0x40 MLOAD DUP1 PUSH1 0x40 ADD PUSH1 0x40 MSTORE DUP1 PUSH1 0x4 DUP2 MSTORE PUSH1 0x20 ADD PUSH32 0x726F6F7400000000000000000000000000000000000000000000000000000000 DUP2 MSTORE POP PUSH1 0x0 DUP1 DUP5 PUSH20 0xFFFFFFFFFFFFFFFFFFFFFFFFFFFFFFFFFFFFFFFF AND PUSH20 0xFFFFFFFFFFFFFFFFFFFFFFFFFFFFFFFFFFFFFFFF AND DUP2 MSTORE PUSH1 0x20 ADD SWAP1 DUP2 MSTORE PUSH1 0x20 ADD PUSH1 0x0 KECCAK256 PUSH1 0x0 ADD PUSH1 0x0 ADD SWAP1 DUP2 PUSH2 0x33B SWAP2 SWAP1 PUSH2 0x3594 JUMP JUMPDEST POP DUP2 PUSH1 0x0 DUP1 DUP5 PUSH20 0xFFFFFFFFFFFFFFFFFFFFFFFFFFFFFFFFFFFFFFFF AND PUSH20 0xFFFFFFFFFFFFFFFFFFFFFFFFFFFFFFFFFFFFFFFF AND DUP2 MSTORE PUSH1 0x20 ADD SWAP1 DUP2 MSTORE PUSH1 0x20 ADD PUSH1 0x0 KECCAK256 PUSH1 0x0 ADD PUSH1 0x1 ADD PUSH1 0x0 PUSH2 0x100 EXP DUP2 SLOAD DUP2 PUSH20 0xFFFFFFFFFFFFFFFFFFFFFFFFFFFFFFFFFFFFFFFF MUL NOT AND SWAP1 DUP4 PUSH20 0xFFFFFFFFFFFFFFFFFFFFFFFFFFFFFFFFFFFFFFFF AND MUL OR SWAP1 SSTORE POP TIMESTAMP PUSH1 0x0 DUP1 DUP5 PUSH20 0xFFFFFFFFFFFFFFFFFFFFFFFFFFFFFFFFFFFFFFFF AND PUSH20 0xFFFFFFFFFFFFFFFFFFFFFFFFFFFFFFFFFFFFFFFF AND DUP2 MSTORE PUSH1 0x20 ADD SWAP1 DUP2 MSTORE PUSH1 0x20 ADD PUSH1 0x0 KECCAK256 PUSH1 0x0 ADD PUSH1 0x2 ADD DUP2 SWAP1 SSTORE POP PUSH1 0x1 SWAP1 POP SWAP2 SWAP1 POP JUMP JUMPDEST PUSH1 0x60 PUSH2 0x41C DUP3 PUSH2 0x1C7A JUMP JUMPDEST PUSH2 0x45B JUMPI PUSH1 0x40 MLOAD PUSH32 0x8C379A000000000000000000000000000000000000000000000000000000000 DUP2 MSTORE PUSH1 0x4 ADD PUSH2 0x452 SWAP1 PUSH2 0x36B2 JUMP JUMPDEST PUSH1 0x40 MLOAD DUP1 SWAP2 SUB SWAP1 REVERT JUMPDEST PUSH1 0x0 DUP1 PUSH1 0x0 DUP5 PUSH20 0xFFFFFFFFFFFFFFFFFFFFFFFFFFFFFFFFFFFFFFFF AND PUSH20 0xFFFFFFFFFFFFFFFFFFFFFFFFFFFFFFFFFFFFFFFF AND DUP2 MSTORE PUSH1 0x20 ADD SWAP1 DUP2 MSTORE PUSH1 0x20 ADD PUSH1 0x0 KECCAK256 PUSH1 0x0 ADD SWAP1 POP PUSH1 0x1 DUP5 MLOAD GT ISZERO PUSH2 0x5ED JUMPI PUSH1 0x0 PUSH1 0x1 SWAP1 POP JUMPDEST DUP5 MLOAD DUP2 LT ISZERO PUSH2 0x5EB JUMPI PUSH1 0x0 DUP1 JUMPDEST DUP4 PUSH1 0x4 ADD DUP1 SLOAD SWAP1 POP DUP2 LT ISZERO PUSH2 0x59C JUMPI DUP7 DUP4 DUP2 MLOAD DUP2 LT PUSH2 0x4E0 JUMPI PUSH2 0x4DF PUSH2 0x36D2 JUMP JUMPDEST JUMPDEST PUSH1 0x20 MUL PUSH1 0x20 ADD ADD MLOAD PUSH1 0x40 MLOAD PUSH1 0x20 ADD PUSH2 0x4F8 SWAP2 SWAP1 PUSH2 0x3732 JUMP JUMPDEST PUSH1 0x40 MLOAD PUSH1 0x20 DUP2 DUP4 SUB SUB DUP2 MSTORE SWAP1 PUSH1 0x40 MSTORE DUP1 MLOAD SWAP1 PUSH1 0x20 ADD KECCAK256 DUP5 PUSH1 0x4 ADD DUP3 DUP2 SLOAD DUP2 LT PUSH2 0x524 JUMPI PUSH2 0x523 PUSH2 0x36D2 JUMP JUMPDEST JUMPDEST SWAP1 PUSH1 0x0 MSTORE PUSH1 0x20 PUSH1 0x0 KECCAK256 SWAP1 PUSH1 0x5 MUL ADD PUSH1 0x0 ADD PUSH1 0x40 MLOAD PUSH1 0x20 ADD PUSH2 0x545 SWAP2 SWAP1 PUSH2 0x337A JUMP JUMPDEST PUSH1 0x40 MLOAD PUSH1 0x20 DUP2 DUP4 SUB SUB DUP2 MSTORE SWAP1 PUSH1 0x40 MSTORE DUP1 MLOAD SWAP1 PUSH1 0x20 ADD KECCAK256 SUB PUSH2 0x58F JUMPI DUP4 PUSH1 0x4 ADD DUP2 DUP2 SLOAD DUP2 LT PUSH2 0x576 JUMPI PUSH2 0x575 PUSH2 0x36D2 JUMP JUMPDEST JUMPDEST SWAP1 PUSH1 0x0 MSTORE PUSH1 0x20 PUSH1 0x0 KECCAK256 SWAP1 PUSH1 0x5 MUL ADD SWAP4 POP PUSH1 0x1 SWAP2 POP PUSH2 0x59C JUMP JUMPDEST DUP1 DUP1 PUSH1 0x1 ADD SWAP2 POP POP PUSH2 0x4BE JUMP JUMPDEST POP DUP1 PUSH2 0x5DD JUMPI PUSH1 0x40 MLOAD PUSH32 0x8C379A000000000000000000000000000000000000000000000000000000000 DUP2 MSTORE PUSH1 0x4 ADD PUSH2 0x5D4 SWAP1 PUSH2 0x3795 JUMP JUMPDEST PUSH1 0x40 MLOAD DUP1 SWAP2 SUB SWAP1 REVERT JUMPDEST POP DUP1 DUP1 PUSH1 0x1 ADD SWAP2 POP POP PUSH2 0x4B1 JUMP JUMPDEST POP JUMPDEST PUSH1 0x0 DUP2 PUSH1 0x0 ADD PUSH2 0x620 DUP4 PUSH1 0x1 ADD PUSH1 0x0 SWAP1 SLOAD SWAP1 PUSH2 0x100 EXP SWAP1 DIV PUSH20 0xFFFFFFFFFFFFFFFFFFFFFFFFFFFFFFFFFFFFFFFF AND PUSH2 0x21DB JUMP JUMPDEST PUSH2 0x62D DUP5 PUSH1 0x2 ADD SLOAD PUSH2 0x24E0 JUMP JUMPDEST PUSH1 0x40 MLOAD PUSH1 0x20 ADD PUSH2 0x63F SWAP4 SWAP3 SWAP2 SWAP1 PUSH2 0x38E5 JUMP JUMPDEST PUSH1 0x40 MLOAD PUSH1 0x20 DUP2 DUP4 SUB SUB DUP2 MSTORE SWAP1 PUSH1 0x40 MSTORE SWAP1 POP PUSH1 0x0 DUP3 PUSH1 0x3 ADD DUP1 SLOAD SWAP1 POP GT ISZERO PUSH2 0x85A JUMPI DUP1 PUSH1 0x40 MLOAD PUSH1 0x20 ADD PUSH2 0x671 SWAP2 SWAP1 PUSH2 0x398E JUMP JUMPDEST PUSH1 0x40 MLOAD PUSH1 0x20 DUP2 DUP4 SUB SUB DUP2 MSTORE SWAP1 PUSH1 0x40 MSTORE SWAP1 POP PUSH1 0x0 JUMPDEST DUP3 PUSH1 0x3 ADD DUP1 SLOAD SWAP1 POP DUP2 LT ISZERO PUSH2 0x836 JUMPI PUSH1 0x0 DUP4 PUSH1 0x3 ADD DUP3 DUP2 SLOAD DUP2 LT PUSH2 0x6AC JUMPI PUSH2 0x6AB PUSH2 0x36D2 JUMP JUMPDEST JUMPDEST SWAP1 PUSH1 0x0 MSTORE PUSH1 0x20 PUSH1 0x0 KECCAK256 SWAP1 PUSH1 0x6 MUL ADD SWAP1 POP PUSH1 0x0 DUP2 PUSH1 0x0 ADD DUP1 SLOAD PUSH2 0x6CD SWAP1 PUSH2 0x32B1 JUMP JUMPDEST SWAP1 POP GT DUP1 ISZERO PUSH2 0x6EC JUMPI POP PUSH1 0x0 DUP2 PUSH1 0x1 ADD DUP1 SLOAD PUSH2 0x6E8 SWAP1 PUSH2 0x32B1 JUMP JUMPDEST SWAP1 POP GT JUMPDEST DUP1 ISZERO PUSH2 0x6FC JUMPI POP PUSH1 0x0 DUP2 PUSH1 0x2 ADD SLOAD GT JUMPDEST DUP1 ISZERO PUSH2 0x70C JUMPI POP PUSH1 0x0 DUP2 PUSH1 0x3 ADD SLOAD GT JUMPDEST DUP1 ISZERO PUSH2 0x769 JUMPI POP PUSH1 0x0 PUSH20 0xFFFFFFFFFFFFFFFFFFFFFFFFFFFFFFFFFFFFFFFF AND DUP2 PUSH1 0x4 ADD PUSH1 0x0 SWAP1 SLOAD SWAP1 PUSH2 0x100 EXP SWAP1 DIV PUSH20 0xFFFFFFFFFFFFFFFFFFFFFFFFFFFFFFFFFFFFFFFF AND PUSH20 0xFFFFFFFFFFFFFFFFFFFFFFFFFFFFFFFFFFFFFFFF AND EQ ISZERO JUMPDEST ISZERO PUSH2 0x828 JUMPI DUP3 DUP2 PUSH1 0x0 ADD DUP3 PUSH1 0x1 ADD PUSH2 0x784 DUP5 PUSH1 0x2 ADD SLOAD PUSH2 0x24E0 JUMP JUMPDEST PUSH2 0x791 DUP6 PUSH1 0x3 ADD SLOAD PUSH2 0x24E0 JUMP JUMPDEST PUSH2 0x7BE DUP7 PUSH1 0x4 ADD PUSH1 0x0 SWAP1 SLOAD SWAP1 PUSH2 0x100 EXP SWAP1 DIV PUSH20 0xFFFFFFFFFFFFFFFFFFFFFFFFFFFFFFFFFFFFFFFF AND PUSH2 0x21DB JUMP JUMPDEST DUP7 PUSH1 0x5 ADD PUSH1 0x40 MLOAD PUSH1 0x20 ADD PUSH2 0x7D8 SWAP8 SWAP7 SWAP6 SWAP5 SWAP4 SWAP3 SWAP2 SWAP1 PUSH2 0x3AE0 JUMP JUMPDEST PUSH1 0x40 MLOAD PUSH1 0x20 DUP2 DUP4 SUB SUB DUP2 MSTORE SWAP1 PUSH1 0x40 MSTORE SWAP3 POP PUSH1 0x1 DUP5 PUSH1 0x3 ADD DUP1 SLOAD SWAP1 POP PUSH2 0x7FD SWAP2 SWAP1 PUSH2 0x3BC1 JUMP JUMPDEST DUP3 LT ISZERO PUSH2 0x827 JUMPI DUP3 PUSH1 0x40 MLOAD PUSH1 0x20 ADD PUSH2 0x815 SWAP2 SWAP1 PUSH2 0x3C41 JUMP JUMPDEST PUSH1 0x40 MLOAD PUSH1 0x20 DUP2 DUP4 SUB SUB DUP2 MSTORE SWAP1 PUSH1 0x40 MSTORE SWAP3 POP JUMPDEST JUMPDEST POP DUP1 DUP1 PUSH1 0x1 ADD SWAP2 POP POP PUSH2 0x685 JUMP JUMPDEST POP DUP1 PUSH1 0x40 MLOAD PUSH1 0x20 ADD PUSH2 0x848 SWAP2 SWAP1 PUSH2 0x3CAF JUMP JUMPDEST PUSH1 0x40 MLOAD PUSH1 0x20 DUP2 DUP4 SUB SUB DUP2 MSTORE SWAP1 PUSH1 0x40 MSTORE SWAP1 POP JUMPDEST PUSH1 0x0 DUP3 PUSH1 0x4 ADD DUP1 SLOAD SWAP1 POP GT ISZERO PUSH2 0xA20 JUMPI DUP1 PUSH1 0x40 MLOAD PUSH1 0x20 ADD PUSH2 0x87B SWAP2 SWAP1 PUSH2 0x3D1D JUMP JUMPDEST PUSH1 0x40 MLOAD PUSH1 0x20 DUP2 DUP4 SUB SUB DUP2 MSTORE SWAP1 PUSH1 0x40 MSTORE SWAP1 POP PUSH1 0x0 JUMPDEST DUP3 PUSH1 0x4 ADD DUP1 SLOAD SWAP1 POP DUP2 LT ISZERO PUSH2 0x9FC JUMPI PUSH1 0x0 DUP4 PUSH1 0x4 ADD DUP3 DUP2 SLOAD DUP2 LT PUSH2 0x8B6 JUMPI PUSH2 0x8B5 PUSH2 0x36D2 JUMP JUMPDEST JUMPDEST SWAP1 PUSH1 0x0 MSTORE PUSH1 0x20 PUSH1 0x0 KECCAK256 SWAP1 PUSH1 0x5 MUL ADD SWAP1 POP PUSH1 0x0 DUP2 PUSH1 0x0 ADD DUP1 SLOAD PUSH2 0x8D7 SWAP1 PUSH2 0x32B1 JUMP JUMPDEST SWAP1 POP GT DUP1 ISZERO PUSH2 0x937 JUMPI POP PUSH1 0x0 PUSH20 0xFFFFFFFFFFFFFFFFFFFFFFFFFFFFFFFFFFFFFFFF AND DUP2 PUSH1 0x1 ADD PUSH1 0x0 SWAP1 SLOAD SWAP1 PUSH2 0x100 EXP SWAP1 DIV PUSH20 0xFFFFFFFFFFFFFFFFFFFFFFFFFFFFFFFFFFFFFFFF AND PUSH20 0xFFFFFFFFFFFFFFFFFFFFFFFFFFFFFFFFFFFFFFFF AND EQ ISZERO JUMPDEST DUP1 ISZERO PUSH2 0x947 JUMPI POP PUSH1 0x0 DUP2 PUSH1 0x2 ADD SLOAD GT JUMPDEST ISZERO PUSH2 0x9EE JUMPI DUP3 DUP2 PUSH1 0x0 ADD PUSH2 0x97E DUP4 PUSH1 0x1 ADD PUSH1 0x0 SWAP1 SLOAD SWAP1 PUSH2 0x100 EXP SWAP1 DIV PUSH20 0xFFFFFFFFFFFFFFFFFFFFFFFFFFFFFFFFFFFFFFFF AND PUSH2 0x21DB JUMP JUMPDEST PUSH2 0x98B DUP5 PUSH1 0x2 ADD SLOAD PUSH2 0x24E0 JUMP JUMPDEST PUSH1 0x40 MLOAD PUSH1 0x20 ADD PUSH2 0x99E SWAP5 SWAP4 SWAP3 SWAP2 SWAP1 PUSH2 0x3D3F JUMP JUMPDEST PUSH1 0x40 MLOAD PUSH1 0x20 DUP2 DUP4 SUB SUB DUP2 MSTORE SWAP1 PUSH1 0x40 MSTORE SWAP3 POP PUSH1 0x1 DUP5 PUSH1 0x4 ADD DUP1 SLOAD SWAP1 POP PUSH2 0x9C3 SWAP2 SWAP1 PUSH2 0x3BC1 JUMP JUMPDEST DUP3 LT ISZERO PUSH2 0x9ED JUMPI DUP3 PUSH1 0x40 MLOAD PUSH1 0x20 ADD PUSH2 0x9DB SWAP2 SWAP1 PUSH2 0x3C41 JUMP JUMPDEST PUSH1 0x40 MLOAD PUSH1 0x20 DUP2 DUP4 SUB SUB DUP2 MSTORE SWAP1 PUSH1 0x40 MSTORE SWAP3 POP JUMPDEST JUMPDEST POP DUP1 DUP1 PUSH1 0x1 ADD SWAP2 POP POP PUSH2 0x88F JUMP JUMPDEST POP DUP1 PUSH1 0x40 MLOAD PUSH1 0x20 ADD PUSH2 0xA0E SWAP2 SWAP1 PUSH2 0x3CAF JUMP JUMPDEST PUSH1 0x40 MLOAD PUSH1 0x20 DUP2 DUP4 SUB SUB DUP2 MSTORE SWAP1 PUSH1 0x40 MSTORE SWAP1 POP JUMPDEST DUP1 PUSH1 0x40 MLOAD PUSH1 0x20 ADD PUSH2 0xA31 SWAP2 SWAP1 PUSH2 0x3DF5 JUMP JUMPDEST PUSH1 0x40 MLOAD PUSH1 0x20 DUP2 DUP4 SUB SUB DUP2 MSTORE SWAP1 PUSH1 0x40 MSTORE SWAP1 POP DUP1 SWAP3 POP POP POP SWAP3 SWAP2 POP POP JUMP JUMPDEST PUSH2 0xA56 DUP2 PUSH2 0x1C7A JUMP JUMPDEST PUSH2 0xA95 JUMPI PUSH1 0x40 MLOAD PUSH32 0x8C379A000000000000000000000000000000000000000000000000000000000 DUP2 MSTORE PUSH1 0x4 ADD PUSH2 0xA8C SWAP1 PUSH2 0x36B2 JUMP JUMPDEST PUSH1 0x40 MLOAD DUP1 SWAP2 SUB SWAP1 REVERT JUMPDEST PUSH1 0x0 DUP1 PUSH1 0x0 DUP4 PUSH20 0xFFFFFFFFFFFFFFFFFFFFFFFFFFFFFFFFFFFFFFFF AND PUSH20 0xFFFFFFFFFFFFFFFFFFFFFFFFFFFFFFFFFFFFFFFF AND DUP2 MSTORE PUSH1 0x20 ADD SWAP1 DUP2 MSTORE PUSH1 0x20 ADD PUSH1 0x0 KECCAK256 PUSH1 0x0 ADD SWAP1 POP PUSH1 0x0 DUP2 SWAP1 POP PUSH1 0x0 PUSH1 0x1 SWAP1 POP JUMPDEST DUP6 MLOAD DUP2 LT ISZERO PUSH2 0xC4E JUMPI PUSH1 0x0 DUP1 JUMPDEST DUP5 PUSH1 0x4 ADD DUP1 SLOAD SWAP1 POP DUP2 LT ISZERO PUSH2 0xBD4 JUMPI DUP8 DUP4 DUP2 MLOAD DUP2 LT PUSH2 0xB15 JUMPI PUSH2 0xB14 PUSH2 0x36D2 JUMP JUMPDEST JUMPDEST PUSH1 0x20 MUL PUSH1 0x20 ADD ADD MLOAD PUSH1 0x40 MLOAD PUSH1 0x20 ADD PUSH2 0xB2D SWAP2 SWAP1 PUSH2 0x3732 JUMP JUMPDEST PUSH1 0x40 MLOAD PUSH1 0x20 DUP2 DUP4 SUB SUB DUP2 MSTORE SWAP1 PUSH1 0x40 MSTORE DUP1 MLOAD SWAP1 PUSH1 0x20 ADD KECCAK256 DUP6 PUSH1 0x4 ADD DUP3 DUP2 SLOAD DUP2 LT PUSH2 0xB59 JUMPI PUSH2 0xB58 PUSH2 0x36D2 JUMP JUMPDEST JUMPDEST SWAP1 PUSH1 0x0 MSTORE PUSH1 0x20 PUSH1 0x0 KECCAK256 SWAP1 PUSH1 0x5 MUL ADD PUSH1 0x0 ADD PUSH1 0x40 MLOAD PUSH1 0x20 ADD PUSH2 0xB7A SWAP2 SWAP1 PUSH2 0x337A JUMP JUMPDEST PUSH1 0x40 MLOAD PUSH1 0x20 DUP2 DUP4 SUB SUB DUP2 MSTORE SWAP1 PUSH1 0x40 MSTORE DUP1 MLOAD SWAP1 PUSH1 0x20 ADD KECCAK256 SUB PUSH2 0xBC7 JUMPI DUP5 SWAP4 POP DUP5 PUSH1 0x4 ADD DUP2 DUP2 SLOAD DUP2 LT PUSH2 0xBAE JUMPI PUSH2 0xBAD PUSH2 0x36D2 JUMP JUMPDEST JUMPDEST SWAP1 PUSH1 0x0 MSTORE PUSH1 0x20 PUSH1 0x0 KECCAK256 SWAP1 PUSH1 0x5 MUL ADD SWAP5 POP PUSH1 0x1 SWAP2 POP PUSH2 0xBD4 JUMP JUMPDEST DUP1 DUP1 PUSH1 0x1 ADD SWAP2 POP POP PUSH2 0xAF3 JUMP JUMPDEST POP DUP1 PUSH2 0xBDF DUP4 PUSH2 0x24E0 JUMP JUMPDEST PUSH1 0x40 MLOAD PUSH1 0x20 ADD PUSH2 0xBEF SWAP2 SWAP1 PUSH2 0x3E63 JUMP JUMPDEST PUSH1 0x40 MLOAD PUSH1 0x20 DUP2 DUP4 SUB SUB DUP2 MSTORE SWAP1 PUSH1 0x40 MSTORE SWAP1 PUSH2 0xC3F JUMPI PUSH1 0x40 MLOAD PUSH32 0x8C379A000000000000000000000000000000000000000000000000000000000 DUP2 MSTORE PUSH1 0x4 ADD PUSH2 0xC36 SWAP2 SWAP1 PUSH2 0x2DFB JUMP JUMPDEST PUSH1 0x40 MLOAD DUP1 SWAP2 SUB SWAP1 REVERT JUMPDEST POP POP DUP1 DUP1 PUSH1 0x1 ADD SWAP2 POP POP PUSH2 0xAE6 JUMP JUMPDEST POP PUSH1 0x0 DUP1 JUMPDEST DUP3 PUSH1 0x4 ADD DUP1 SLOAD SWAP1 POP DUP2 LT ISZERO PUSH2 0xEB7 JUMPI DUP6 PUSH1 0x40 MLOAD PUSH1 0x20 ADD PUSH2 0xC73 SWAP2 SWAP1 PUSH2 0x3732 JUMP JUMPDEST PUSH1 0x40 MLOAD PUSH1 0x20 DUP2 DUP4 SUB SUB DUP2 MSTORE SWAP1 PUSH1 0x40 MSTORE DUP1 MLOAD SWAP1 PUSH1 0x20 ADD KECCAK256 DUP4 PUSH1 0x4 ADD DUP3 DUP2 SLOAD DUP2 LT PUSH2 0xC9F JUMPI PUSH2 0xC9E PUSH2 0x36D2 JUMP JUMPDEST JUMPDEST SWAP1 PUSH1 0x0 MSTORE PUSH1 0x20 PUSH1 0x0 KECCAK256 SWAP1 PUSH1 0x5 MUL ADD PUSH1 0x0 ADD PUSH1 0x40 MLOAD PUSH1 0x20 ADD PUSH2 0xCC0 SWAP2 SWAP1 PUSH2 0x337A JUMP JUMPDEST PUSH1 0x40 MLOAD PUSH1 0x20 DUP2 DUP4 SUB SUB DUP2 MSTORE SWAP1 PUSH1 0x40 MSTORE DUP1 MLOAD SWAP1 PUSH1 0x20 ADD KECCAK256 SUB PUSH2 0xEAA JUMPI PUSH1 0x1 SWAP2 POP PUSH1 0x0 DUP2 SWAP1 POP JUMPDEST PUSH1 0x1 DUP5 PUSH1 0x4 ADD DUP1 SLOAD SWAP1 POP PUSH2 0xCF9 SWAP2 SWAP1 PUSH2 0x3BC1 JUMP JUMPDEST DUP2 LT ISZERO PUSH2 0xE18 JUMPI DUP4 PUSH1 0x4 ADD PUSH1 0x1 DUP3 PUSH2 0xD11 SWAP2 SWAP1 PUSH2 0x3E85 JUMP JUMPDEST DUP2 SLOAD DUP2 LT PUSH2 0xD22 JUMPI PUSH2 0xD21 PUSH2 0x36D2 JUMP JUMPDEST JUMPDEST SWAP1 PUSH1 0x0 MSTORE PUSH1 0x20 PUSH1 0x0 KECCAK256 SWAP1 PUSH1 0x5 MUL ADD DUP5 PUSH1 0x4 ADD DUP3 DUP2 SLOAD DUP2 LT PUSH2 0xD46 JUMPI PUSH2 0xD45 PUSH2 0x36D2 JUMP JUMPDEST JUMPDEST SWAP1 PUSH1 0x0 MSTORE PUSH1 0x20 PUSH1 0x0 KECCAK256 SWAP1 PUSH1 0x5 MUL ADD PUSH1 0x0 DUP3 ADD DUP2 PUSH1 0x0 ADD SWAP1 DUP2 PUSH2 0xD68 SWAP2 SWAP1 PUSH2 0x3ECF JUMP JUMPDEST POP PUSH1 0x1 DUP3 ADD PUSH1 0x0 SWAP1 SLOAD SWAP1 PUSH2 0x100 EXP SWAP1 DIV PUSH20 0xFFFFFFFFFFFFFFFFFFFFFFFFFFFFFFFFFFFFFFFF AND DUP2 PUSH1 0x1 ADD PUSH1 0x0 PUSH2 0x100 EXP DUP2 SLOAD DUP2 PUSH20 0xFFFFFFFFFFFFFFFFFFFFFFFFFFFFFFFFFFFFFFFF MUL NOT AND SWAP1 DUP4 PUSH20 0xFFFFFFFFFFFFFFFFFFFFFFFFFFFFFFFFFFFFFFFF AND MUL OR SWAP1 SSTORE POP PUSH1 0x2 DUP3 ADD SLOAD DUP2 PUSH1 0x2 ADD SSTORE PUSH1 0x3 DUP3 ADD DUP2 PUSH1 0x3 ADD SWAP1 DUP1 SLOAD PUSH2 0xDF0 SWAP3 SWAP2 SWAP1 PUSH2 0x2668 JUMP JUMPDEST POP PUSH1 0x4 DUP3 ADD DUP2 PUSH1 0x4 ADD SWAP1 DUP1 SLOAD PUSH2 0xE07 SWAP3 SWAP2 SWAP1 PUSH2 0x277A JUMP JUMPDEST POP SWAP1 POP POP DUP1 DUP1 PUSH1 0x1 ADD SWAP2 POP POP PUSH2 0xCE5 JUMP JUMPDEST POP DUP3 PUSH1 0x4 ADD DUP1 SLOAD DUP1 PUSH2 0xE2D JUMPI PUSH2 0xE2C PUSH2 0x3FB7 JUMP JUMPDEST JUMPDEST PUSH1 0x1 SWAP1 SUB DUP2 DUP2 SWAP1 PUSH1 0x0 MSTORE PUSH1 0x20 PUSH1 0x0 KECCAK256 SWAP1 PUSH1 0x5 MUL ADD PUSH1 0x0 DUP1 DUP3 ADD PUSH1 0x0 PUSH2 0xE52 SWAP2 SWAP1 PUSH2 0x2886 JUMP JUMPDEST PUSH1 0x1 DUP3 ADD PUSH1 0x0 PUSH2 0x100 EXP DUP2 SLOAD SWAP1 PUSH20 0xFFFFFFFFFFFFFFFFFFFFFFFFFFFFFFFFFFFFFFFF MUL NOT AND SWAP1 SSTORE PUSH1 0x2 DUP3 ADD PUSH1 0x0 SWAP1 SSTORE PUSH1 0x3 DUP3 ADD PUSH1 0x0 PUSH2 0xE91 SWAP2 SWAP1 PUSH2 0x28C6 JUMP JUMPDEST PUSH1 0x4 DUP3 ADD PUSH1 0x0 PUSH2 0xEA1 SWAP2 SWAP1 PUSH2 0x28EA JUMP JUMPDEST POP POP SWAP1 SSTORE PUSH2 0xEB7 JUMP JUMPDEST DUP1 DUP1 PUSH1 0x1 ADD SWAP2 POP POP PUSH2 0xC53 JUMP JUMPDEST POP DUP1 PUSH2 0xEF8 JUMPI PUSH1 0x40 MLOAD PUSH32 0x8C379A000000000000000000000000000000000000000000000000000000000 DUP2 MSTORE PUSH1 0x4 ADD PUSH2 0xEEF SWAP1 PUSH2 0x4032 JUMP JUMPDEST PUSH1 0x40 MLOAD DUP1 SWAP2 SUB SWAP1 REVERT JUMPDEST POP POP POP POP POP POP JUMP JUMPDEST PUSH2 0xF09 DUP2 PUSH2 0x1C7A JUMP JUMPDEST PUSH2 0xF48 JUMPI PUSH1 0x40 MLOAD PUSH32 0x8C379A000000000000000000000000000000000000000000000000000000000 DUP2 MSTORE PUSH1 0x4 ADD PUSH2 0xF3F SWAP1 PUSH2 0x36B2 JUMP JUMPDEST PUSH1 0x40 MLOAD DUP1 SWAP2 SUB SWAP1 REVERT JUMPDEST PUSH1 0x0 DUP1 PUSH1 0x0 DUP4 PUSH20 0xFFFFFFFFFFFFFFFFFFFFFFFFFFFFFFFFFFFFFFFF AND PUSH20 0xFFFFFFFFFFFFFFFFFFFFFFFFFFFFFFFFFFFFFFFF AND DUP2 MSTORE PUSH1 0x20 ADD SWAP1 DUP2 MSTORE PUSH1 0x20 ADD PUSH1 0x0 KECCAK256 PUSH1 0x0 ADD SWAP1 POP PUSH1 0x0 PUSH1 0x1 SWAP1 POP JUMPDEST DUP5 MLOAD DUP2 LT ISZERO PUSH2 0x10F9 JUMPI PUSH1 0x0 DUP1 JUMPDEST DUP4 PUSH1 0x4 ADD DUP1 SLOAD SWAP1 POP DUP2 LT ISZERO PUSH2 0x107F JUMPI DUP7 DUP4 DUP2 MLOAD DUP2 LT PUSH2 0xFC3 JUMPI PUSH2 0xFC2 PUSH2 0x36D2 JUMP JUMPDEST JUMPDEST PUSH1 0x20 MUL PUSH1 0x20 ADD ADD MLOAD PUSH1 0x40 MLOAD PUSH1 0x20 ADD PUSH2 0xFDB SWAP2 SWAP1 PUSH2 0x3732 JUMP JUMPDEST PUSH1 0x40 MLOAD PUSH1 0x20 DUP2 DUP4 SUB SUB DUP2 MSTORE SWAP1 PUSH1 0x40 MSTORE DUP1 MLOAD SWAP1 PUSH1 0x20 ADD KECCAK256 DUP5 PUSH1 0x4 ADD DUP3 DUP2 SLOAD DUP2 LT PUSH2 0x1007 JUMPI PUSH2 0x1006 PUSH2 0x36D2 JUMP JUMPDEST JUMPDEST SWAP1 PUSH1 0x0 MSTORE PUSH1 0x20 PUSH1 0x0 KECCAK256 SWAP1 PUSH1 0x5 MUL ADD PUSH1 0x0 ADD PUSH1 0x40 MLOAD PUSH1 0x20 ADD PUSH2 0x1028 SWAP2 SWAP1 PUSH2 0x337A JUMP JUMPDEST PUSH1 0x40 MLOAD PUSH1 0x20 DUP2 DUP4 SUB SUB DUP2 MSTORE SWAP1 PUSH1 0x40 MSTORE DUP1 MLOAD SWAP1 PUSH1 0x20 ADD KECCAK256 SUB PUSH2 0x1072 JUMPI DUP4 PUSH1 0x4 ADD DUP2 DUP2 SLOAD DUP2 LT PUSH2 0x1059 JUMPI PUSH2 0x1058 PUSH2 0x36D2 JUMP JUMPDEST JUMPDEST SWAP1 PUSH1 0x0 MSTORE PUSH1 0x20 PUSH1 0x0 KECCAK256 SWAP1 PUSH1 0x5 MUL ADD SWAP4 POP PUSH1 0x1 SWAP2 POP PUSH2 0x107F JUMP JUMPDEST DUP1 DUP1 PUSH1 0x1 ADD SWAP2 POP POP PUSH2 0xFA1 JUMP JUMPDEST POP DUP1 PUSH2 0x108A DUP4 PUSH2 0x24E0 JUMP JUMPDEST PUSH1 0x40 MLOAD PUSH1 0x20 ADD PUSH2 0x109A SWAP2 SWAP1 PUSH2 0x3E63 JUMP JUMPDEST PUSH1 0x40 MLOAD PUSH1 0x20 DUP2 DUP4 SUB SUB DUP2 MSTORE SWAP1 PUSH1 0x40 MSTORE SWAP1 PUSH2 0x10EA JUMPI PUSH1 0x40 MLOAD PUSH32 0x8C379A000000000000000000000000000000000000000000000000000000000 DUP2 MSTORE PUSH1 0x4 ADD PUSH2 0x10E1 SWAP2 SWAP1 PUSH2 0x2DFB JUMP JUMPDEST PUSH1 0x40 MLOAD DUP1 SWAP2 SUB SWAP1 REVERT JUMPDEST POP POP DUP1 DUP1 PUSH1 0x1 ADD SWAP2 POP POP PUSH2 0xF94 JUMP JUMPDEST POP PUSH1 0x0 JUMPDEST DUP4 MLOAD DUP2 LT ISZERO PUSH2 0x129A JUMPI DUP2 PUSH1 0x3 ADD PUSH1 0x40 MLOAD DUP1 PUSH1 0xC0 ADD PUSH1 0x40 MSTORE DUP1 DUP7 DUP5 DUP2 MLOAD DUP2 LT PUSH2 0x1128 JUMPI PUSH2 0x1127 PUSH2 0x36D2 JUMP JUMPDEST JUMPDEST PUSH1 0x20 MUL PUSH1 0x20 ADD ADD MLOAD PUSH1 0x0 ADD MLOAD DUP2 MSTORE PUSH1 0x20 ADD DUP7 DUP5 DUP2 MLOAD DUP2 LT PUSH2 0x114C JUMPI PUSH2 0x114B PUSH2 0x36D2 JUMP JUMPDEST JUMPDEST PUSH1 0x20 MUL PUSH1 0x20 ADD ADD MLOAD PUSH1 0x20 ADD MLOAD DUP2 MSTORE PUSH1 0x20 ADD DUP7 DUP5 DUP2 MLOAD DUP2 LT PUSH2 0x1170 JUMPI PUSH2 0x116F PUSH2 0x36D2 JUMP JUMPDEST JUMPDEST PUSH1 0x20 MUL PUSH1 0x20 ADD ADD MLOAD PUSH1 0x40 ADD MLOAD DUP2 MSTORE PUSH1 0x20 ADD TIMESTAMP DUP2 MSTORE PUSH1 0x20 ADD DUP6 PUSH20 0xFFFFFFFFFFFFFFFFFFFFFFFFFFFFFFFFFFFFFFFF AND DUP2 MSTORE PUSH1 0x20 ADD DUP7 DUP5 DUP2 MLOAD DUP2 LT PUSH2 0x11B6 JUMPI PUSH2 0x11B5 PUSH2 0x36D2 JUMP JUMPDEST JUMPDEST PUSH1 0x20 MUL PUSH1 0x20 ADD ADD MLOAD PUSH1 0x60 ADD MLOAD DUP2 MSTORE POP SWAP1 DUP1 PUSH1 0x1 DUP2 SLOAD ADD DUP1 DUP3 SSTORE DUP1 SWAP2 POP POP PUSH1 0x1 SWAP1 SUB SWAP1 PUSH1 0x0 MSTORE PUSH1 0x20 PUSH1 0x0 KECCAK256 SWAP1 PUSH1 0x6 MUL ADD PUSH1 0x0 SWAP1 SWAP2 SWAP1 SWAP2 SWAP1 SWAP2 POP PUSH1 0x0 DUP3 ADD MLOAD DUP2 PUSH1 0x0 ADD SWAP1 DUP2 PUSH2 0x1203 SWAP2 SWAP1 PUSH2 0x3594 JUMP JUMPDEST POP PUSH1 0x20 DUP3 ADD MLOAD DUP2 PUSH1 0x1 ADD SWAP1 DUP2 PUSH2 0x1219 SWAP2 SWAP1 PUSH2 0x3594 JUMP JUMPDEST POP PUSH1 0x40 DUP3 ADD MLOAD DUP2 PUSH1 0x2 ADD SSTORE PUSH1 0x60 DUP3 ADD MLOAD DUP2 PUSH1 0x3 ADD SSTORE PUSH1 0x80 DUP3 ADD MLOAD DUP2 PUSH1 0x4 ADD PUSH1 0x0 PUSH2 0x100 EXP DUP2 SLOAD DUP2 PUSH20 0xFFFFFFFFFFFFFFFFFFFFFFFFFFFFFFFFFFFFFFFF MUL NOT AND SWAP1 DUP4 PUSH20 0xFFFFFFFFFFFFFFFFFFFFFFFFFFFFFFFFFFFFFFFF AND MUL OR SWAP1 SSTORE POP PUSH1 0xA0 DUP3 ADD MLOAD DUP2 PUSH1 0x5 ADD SWAP1 DUP2 PUSH2 0x128A SWAP2 SWAP1 PUSH2 0x3594 JUMP JUMPDEST POP POP POP DUP1 DUP1 PUSH1 0x1 ADD SWAP2 POP POP PUSH2 0x10FD JUMP JUMPDEST POP POP POP POP POP JUMP JUMPDEST PUSH1 0x60 PUSH2 0x12AC DUP3 PUSH2 0x1C7A JUMP JUMPDEST PUSH2 0x12EB JUMPI PUSH1 0x40 MLOAD PUSH32 0x8C379A000000000000000000000000000000000000000000000000000000000 DUP2 MSTORE PUSH1 0x4 ADD PUSH2 0x12E2 SWAP1 PUSH2 0x36B2 JUMP JUMPDEST PUSH1 0x40 MLOAD DUP1 SWAP2 SUB SWAP1 REVERT JUMPDEST PUSH1 0x0 DUP1 PUSH1 0x0 DUP5 PUSH20 0xFFFFFFFFFFFFFFFFFFFFFFFFFFFFFFFFFFFFFFFF AND PUSH20 0xFFFFFFFFFFFFFFFFFFFFFFFFFFFFFFFFFFFFFFFF AND DUP2 MSTORE PUSH1 0x20 ADD SWAP1 DUP2 MSTORE PUSH1 0x20 ADD PUSH1 0x0 KECCAK256 PUSH1 0x6 ADD SWAP1 POP PUSH1 0x0 DUP1 PUSH1 0x0 DUP6 PUSH20 0xFFFFFFFFFFFFFFFFFFFFFFFFFFFFFFFFFFFFFFFF AND PUSH20 0xFFFFFFFFFFFFFFFFFFFFFFFFFFFFFFFFFFFFFFFF AND DUP2 MSTORE PUSH1 0x20 ADD SWAP1 DUP2 MSTORE PUSH1 0x20 ADD PUSH1 0x0 KECCAK256 PUSH1 0x5 ADD SWAP1 POP PUSH1 0x0 PUSH1 0x40 MLOAD DUP1 PUSH1 0x40 ADD PUSH1 0x40 MSTORE DUP1 PUSH1 0x1 DUP2 MSTORE PUSH1 0x20 ADD PUSH32 0x5B00000000000000000000000000000000000000000000000000000000000000 DUP2 MSTORE POP SWAP1 POP PUSH1 0x0 JUMPDEST DUP4 DUP1 SLOAD SWAP1 POP DUP2 LT ISZERO PUSH2 0x14EC JUMPI PUSH1 0x0 DUP5 DUP3 DUP2 SLOAD DUP2 LT PUSH2 0x13D3 JUMPI PUSH2 0x13D2 PUSH2 0x36D2 JUMP JUMPDEST JUMPDEST SWAP1 PUSH1 0x0 MSTORE PUSH1 0x20 PUSH1 0x0 KECCAK256 SWAP1 PUSH1 0x7 MUL ADD SWAP1 POP PUSH1 0x0 DUP2 PUSH1 0x0 ADD PUSH2 0x1416 DUP4 PUSH1 0x4 ADD PUSH1 0x0 SWAP1 SLOAD SWAP1 PUSH2 0x100 EXP SWAP1 DIV PUSH20 0xFFFFFFFFFFFFFFFFFFFFFFFFFFFFFFFFFFFFFFFF AND PUSH2 0x21DB JUMP JUMPDEST PUSH2 0x1423 DUP5 PUSH1 0x3 ADD SLOAD PUSH2 0x24E0 JUMP JUMPDEST PUSH2 0x1450 DUP6 PUSH1 0x5 ADD PUSH1 0x0 SWAP1 SLOAD SWAP1 PUSH2 0x100 EXP SWAP1 DIV PUSH20 0xFFFFFFFFFFFFFFFFFFFFFFFFFFFFFFFFFFFFFFFF AND PUSH2 0x21DB JUMP JUMPDEST DUP6 PUSH1 0x1 ADD DUP7 PUSH1 0x6 ADD PUSH1 0x40 MLOAD PUSH1 0x20 ADD PUSH2 0x146D SWAP7 SWAP6 SWAP5 SWAP4 SWAP3 SWAP2 SWAP1 PUSH2 0x409E JUMP JUMPDEST PUSH1 0x40 MLOAD PUSH1 0x20 DUP2 DUP4 SUB SUB DUP2 MSTORE SWAP1 PUSH1 0x40 MSTORE SWAP1 POP DUP4 DUP2 PUSH1 0x40 MLOAD PUSH1 0x20 ADD PUSH2 0x1491 SWAP3 SWAP2 SWAP1 PUSH2 0x4143 JUMP JUMPDEST PUSH1 0x40 MLOAD PUSH1 0x20 DUP2 DUP4 SUB SUB DUP2 MSTORE SWAP1 PUSH1 0x40 MSTORE SWAP4 POP PUSH1 0x1 DUP7 DUP1 SLOAD SWAP1 POP PUSH2 0x14B3 SWAP2 SWAP1 PUSH2 0x3BC1 JUMP JUMPDEST DUP4 LT ISZERO PUSH2 0x14DD JUMPI DUP4 PUSH1 0x40 MLOAD PUSH1 0x20 ADD PUSH2 0x14CB SWAP2 SWAP1 PUSH2 0x3C41 JUMP JUMPDEST PUSH1 0x40 MLOAD PUSH1 0x20 DUP2 DUP4 SUB SUB DUP2 MSTORE SWAP1 PUSH1 0x40 MSTORE SWAP4 POP JUMPDEST POP POP DUP1 DUP1 PUSH1 0x1 ADD SWAP2 POP POP PUSH2 0x13B2 JUMP JUMPDEST POP DUP1 PUSH1 0x40 MLOAD PUSH1 0x20 ADD PUSH2 0x14FE SWAP2 SWAP1 PUSH2 0x3CAF JUMP JUMPDEST PUSH1 0x40 MLOAD PUSH1 0x20 DUP2 DUP4 SUB SUB DUP2 MSTORE SWAP1 PUSH1 0x40 MSTORE SWAP1 POP PUSH1 0x0 PUSH1 0x40 MLOAD DUP1 PUSH1 0x40 ADD PUSH1 0x40 MSTORE DUP1 PUSH1 0x1 DUP2 MSTORE PUSH1 0x20 ADD PUSH32 0x5B00000000000000000000000000000000000000000000000000000000000000 DUP2 MSTORE POP SWAP1 POP PUSH1 0x0 JUMPDEST DUP4 DUP1 SLOAD SWAP1 POP DUP2 LT ISZERO PUSH2 0x1686 JUMPI PUSH1 0x0 DUP5 DUP3 DUP2 SLOAD DUP2 LT PUSH2 0x156D JUMPI PUSH2 0x156C PUSH2 0x36D2 JUMP JUMPDEST JUMPDEST SWAP1 PUSH1 0x0 MSTORE PUSH1 0x20 PUSH1 0x0 KECCAK256 SWAP1 PUSH1 0x7 MUL ADD SWAP1 POP PUSH1 0x0 DUP2 PUSH1 0x0 ADD PUSH2 0x15B0 DUP4 PUSH1 0x4 ADD PUSH1 0x0 SWAP1 SLOAD SWAP1 PUSH2 0x100 EXP SWAP1 DIV PUSH20 0xFFFFFFFFFFFFFFFFFFFFFFFFFFFFFFFFFFFFFFFF AND PUSH2 0x21DB JUMP JUMPDEST PUSH2 0x15BD DUP5 PUSH1 0x3 ADD SLOAD PUSH2 0x24E0 JUMP JUMPDEST PUSH2 0x15EA DUP6 PUSH1 0x5 ADD PUSH1 0x0 SWAP1 SLOAD SWAP1 PUSH2 0x100 EXP SWAP1 DIV PUSH20 0xFFFFFFFFFFFFFFFFFFFFFFFFFFFFFFFFFFFFFFFF AND PUSH2 0x21DB JUMP JUMPDEST DUP6 PUSH1 0x1 ADD DUP7 PUSH1 0x6 ADD PUSH1 0x40 MLOAD PUSH1 0x20 ADD PUSH2 0x1607 SWAP7 SWAP6 SWAP5 SWAP4 SWAP3 SWAP2 SWAP1 PUSH2 0x409E JUMP JUMPDEST PUSH1 0x40 MLOAD PUSH1 0x20 DUP2 DUP4 SUB SUB DUP2 MSTORE SWAP1 PUSH1 0x40 MSTORE SWAP1 POP DUP4 DUP2 PUSH1 0x40 MLOAD PUSH1 0x20 ADD PUSH2 0x162B SWAP3 SWAP2 SWAP1 PUSH2 0x4143 JUMP JUMPDEST PUSH1 0x40 MLOAD PUSH1 0x20 DUP2 DUP4 SUB SUB DUP2 MSTORE SWAP1 PUSH1 0x40 MSTORE SWAP4 POP PUSH1 0x1 DUP7 DUP1 SLOAD SWAP1 POP PUSH2 0x164D SWAP2 SWAP1 PUSH2 0x3BC1 JUMP JUMPDEST DUP4 LT ISZERO PUSH2 0x1677 JUMPI DUP4 PUSH1 0x40 MLOAD PUSH1 0x20 ADD PUSH2 0x1665 SWAP2 SWAP1 PUSH2 0x3C41 JUMP JUMPDEST PUSH1 0x40 MLOAD PUSH1 0x20 DUP2 DUP4 SUB SUB DUP2 MSTORE SWAP1 PUSH1 0x40 MSTORE SWAP4 POP JUMPDEST POP POP DUP1 DUP1 PUSH1 0x1 ADD SWAP2 POP POP PUSH2 0x154C JUMP JUMPDEST POP DUP1 PUSH1 0x40 MLOAD PUSH1 0x20 ADD PUSH2 0x1698 SWAP2 SWAP1 PUSH2 0x3CAF JUMP JUMPDEST PUSH1 0x40 MLOAD PUSH1 0x20 DUP2 DUP4 SUB SUB DUP2 MSTORE SWAP1 PUSH1 0x40 MSTORE SWAP1 POP PUSH1 0x0 DUP3 DUP3 PUSH1 0x40 MLOAD PUSH1 0x20 ADD PUSH2 0x16BE SWAP3 SWAP2 SWAP1 PUSH2 0x41FF JUMP JUMPDEST PUSH1 0x40 MLOAD PUSH1 0x20 DUP2 DUP4 SUB SUB DUP2 MSTORE SWAP1 PUSH1 0x40 MSTORE SWAP1 POP DUP1 SWAP6 POP POP POP POP POP POP SWAP2 SWAP1 POP JUMP JUMPDEST PUSH1 0x0 PUSH1 0x40 MLOAD DUP1 PUSH1 0xE0 ADD PUSH1 0x40 MSTORE DUP1 DUP8 DUP2 MSTORE PUSH1 0x20 ADD DUP7 DUP2 MSTORE PUSH1 0x20 ADD DUP6 DUP2 MSTORE PUSH1 0x20 ADD DUP5 DUP2 MSTORE PUSH1 0x20 ADD DUP10 PUSH20 0xFFFFFFFFFFFFFFFFFFFFFFFFFFFFFFFFFFFFFFFF AND DUP2 MSTORE PUSH1 0x20 ADD DUP9 PUSH20 0xFFFFFFFFFFFFFFFFFFFFFFFFFFFFFFFFFFFFFFFF AND DUP2 MSTORE PUSH1 0x20 ADD DUP4 DUP2 MSTORE POP SWAP1 POP PUSH1 0x0 DUP1 DUP10 PUSH20 0xFFFFFFFFFFFFFFFFFFFFFFFFFFFFFFFFFFFFFFFF AND PUSH20 0xFFFFFFFFFFFFFFFFFFFFFFFFFFFFFFFFFFFFFFFF AND DUP2 MSTORE PUSH1 0x20 ADD SWAP1 DUP2 MSTORE PUSH1 0x20 ADD PUSH1 0x0 KECCAK256 PUSH1 0x6 ADD DUP2 SWAP1 DUP1 PUSH1 0x1 DUP2 SLOAD ADD DUP1 DUP3 SSTORE DUP1 SWAP2 POP POP PUSH1 0x1 SWAP1 SUB SWAP1 PUSH1 0x0 MSTORE PUSH1 0x20 PUSH1 0x0 KECCAK256 SWAP1 PUSH1 0x7 MUL ADD PUSH1 0x0 SWAP1 SWAP2 SWAP1 SWAP2 SWAP1 SWAP2 POP PUSH1 0x0 DUP3 ADD MLOAD DUP2 PUSH1 0x0 ADD SWAP1 DUP2 PUSH2 0x17BF SWAP2 SWAP1 PUSH2 0x3594 JUMP JUMPDEST POP PUSH1 0x20 DUP3 ADD MLOAD DUP2 PUSH1 0x1 ADD SWAP1 DUP2 PUSH2 0x17D5 SWAP2 SWAP1 PUSH2 0x3594 JUMP JUMPDEST POP PUSH1 0x40 DUP3 ADD MLOAD DUP2 PUSH1 0x2 ADD SSTORE PUSH1 0x60 DUP3 ADD MLOAD DUP2 PUSH1 0x3 ADD SSTORE PUSH1 0x80 DUP3 ADD MLOAD DUP2 PUSH1 0x4 ADD PUSH1 0x0 PUSH2 0x100 EXP DUP2 SLOAD DUP2 PUSH20 0xFFFFFFFFFFFFFFFFFFFFFFFFFFFFFFFFFFFFFFFF MUL NOT AND SWAP1 DUP4 PUSH20 0xFFFFFFFFFFFFFFFFFFFFFFFFFFFFFFFFFFFFFFFF AND MUL OR SWAP1 SSTORE POP PUSH1 0xA0 DUP3 ADD MLOAD DUP2 PUSH1 0x5 ADD PUSH1 0x0 PUSH2 0x100 EXP DUP2 SLOAD DUP2 PUSH20 0xFFFFFFFFFFFFFFFFFFFFFFFFFFFFFFFFFFFFFFFF MUL NOT AND SWAP1 DUP4 PUSH20 0xFFFFFFFFFFFFFFFFFFFFFFFFFFFFFFFFFFFFFFFF AND MUL OR SWAP1 SSTORE POP PUSH1 0xC0 DUP3 ADD MLOAD DUP2 PUSH1 0x6 ADD SWAP1 DUP2 PUSH2 0x188D SWAP2 SWAP1 PUSH2 0x3594 JUMP JUMPDEST POP POP POP PUSH1 0x0 DUP1 DUP9 PUSH20 0xFFFFFFFFFFFFFFFFFFFFFFFFFFFFFFFFFFFFFFFF AND PUSH20 0xFFFFFFFFFFFFFFFFFFFFFFFFFFFFFFFFFFFFFFFF AND DUP2 MSTORE PUSH1 0x20 ADD SWAP1 DUP2 MSTORE PUSH1 0x20 ADD PUSH1 0x0 KECCAK256 PUSH1 0x5 ADD DUP2 SWAP1 DUP1 PUSH1 0x1 DUP2 SLOAD ADD DUP1 DUP3 SSTORE DUP1 SWAP2 POP POP PUSH1 0x1 SWAP1 SUB SWAP1 PUSH1 0x0 MSTORE PUSH1 0x20 PUSH1 0x0 KECCAK256 SWAP1 PUSH1 0x7 MUL ADD PUSH1 0x0 SWAP1 SWAP2 SWAP1 SWAP2 SWAP1 SWAP2 POP PUSH1 0x0 DUP3 ADD MLOAD DUP2 PUSH1 0x0 ADD SWAP1 DUP2 PUSH2 0x1910 SWAP2 SWAP1 PUSH2 0x3594 JUMP JUMPDEST POP PUSH1 0x20 DUP3 ADD MLOAD DUP2 PUSH1 0x1 ADD SWAP1 DUP2 PUSH2 0x1926 SWAP2 SWAP1 PUSH2 0x3594 JUMP JUMPDEST POP PUSH1 0x40 DUP3 ADD MLOAD DUP2 PUSH1 0x2 ADD SSTORE PUSH1 0x60 DUP3 ADD MLOAD DUP2 PUSH1 0x3 ADD SSTORE PUSH1 0x80 DUP3 ADD MLOAD DUP2 PUSH1 0x4 ADD PUSH1 0x0 PUSH2 0x100 EXP DUP2 SLOAD DUP2 PUSH20 0xFFFFFFFFFFFFFFFFFFFFFFFFFFFFFFFFFFFFFFFF MUL NOT AND SWAP1 DUP4 PUSH20 0xFFFFFFFFFFFFFFFFFFFFFFFFFFFFFFFFFFFFFFFF AND MUL OR SWAP1 SSTORE POP PUSH1 0xA0 DUP3 ADD MLOAD DUP2 PUSH1 0x5 ADD PUSH1 0x0 PUSH2 0x100 EXP DUP2 SLOAD DUP2 PUSH20 0xFFFFFFFFFFFFFFFFFFFFFFFFFFFFFFFFFFFFFFFF MUL NOT AND SWAP1 DUP4 PUSH20 0xFFFFFFFFFFFFFFFFFFFFFFFFFFFFFFFFFFFFFFFF AND MUL OR SWAP1 SSTORE POP PUSH1 0xC0 DUP3 ADD MLOAD DUP2 PUSH1 0x6 ADD SWAP1 DUP2 PUSH2 0x19DE SWAP2 SWAP1 PUSH2 0x3594 JUMP JUMPDEST POP POP POP POP POP POP POP POP POP POP POP JUMP JUMPDEST PUSH2 0x19F4 DUP2 PUSH2 0x1C7A JUMP JUMPDEST PUSH2 0x1A33 JUMPI PUSH1 0x40 MLOAD PUSH32 0x8C379A000000000000000000000000000000000000000000000000000000000 DUP2 MSTORE PUSH1 0x4 ADD PUSH2 0x1A2A SWAP1 PUSH2 0x36B2 JUMP JUMPDEST PUSH1 0x40 MLOAD DUP1 SWAP2 SUB SWAP1 REVERT JUMPDEST PUSH1 0x0 DUP1 PUSH1 0x0 DUP4 PUSH20 0xFFFFFFFFFFFFFFFFFFFFFFFFFFFFFFFFFFFFFFFF AND PUSH20 0xFFFFFFFFFFFFFFFFFFFFFFFFFFFFFFFFFFFFFFFF AND DUP2 MSTORE PUSH1 0x20 ADD SWAP1 DUP2 MSTORE PUSH1 0x20 ADD PUSH1 0x0 KECCAK256 PUSH1 0x0 ADD SWAP1 POP PUSH1 0x0 PUSH1 0x1 SWAP1 POP JUMPDEST DUP5 MLOAD DUP2 LT ISZERO PUSH2 0x1BB9 JUMPI PUSH1 0x0 DUP1 JUMPDEST DUP4 PUSH1 0x4 ADD DUP1 SLOAD SWAP1 POP DUP2 LT ISZERO PUSH2 0x1B6A JUMPI DUP7 DUP4 DUP2 MLOAD DUP2 LT PUSH2 0x1AAE JUMPI PUSH2 0x1AAD PUSH2 0x36D2 JUMP JUMPDEST JUMPDEST PUSH1 0x20 MUL PUSH1 0x20 ADD ADD MLOAD PUSH1 0x40 MLOAD PUSH1 0x20 ADD PUSH2 0x1AC6 SWAP2 SWAP1 PUSH2 0x3732 JUMP JUMPDEST PUSH1 0x40 MLOAD PUSH1 0x20 DUP2 DUP4 SUB SUB DUP2 MSTORE SWAP1 PUSH1 0x40 MSTORE DUP1 MLOAD SWAP1 PUSH1 0x20 ADD KECCAK256 DUP5 PUSH1 0x4 ADD DUP3 DUP2 SLOAD DUP2 LT PUSH2 0x1AF2 JUMPI PUSH2 0x1AF1 PUSH2 0x36D2 JUMP JUMPDEST JUMPDEST SWAP1 PUSH1 0x0 MSTORE PUSH1 0x20 PUSH1 0x0 KECCAK256 SWAP1 PUSH1 0x5 MUL ADD PUSH1 0x0 ADD PUSH1 0x40 MLOAD PUSH1 0x20 ADD PUSH2 0x1B13 SWAP2 SWAP1 PUSH2 0x337A JUMP JUMPDEST PUSH1 0x40 MLOAD PUSH1 0x20 DUP2 DUP4 SUB SUB DUP2 MSTORE SWAP1 PUSH1 0x40 MSTORE DUP1 MLOAD SWAP1 PUSH1 0x20 ADD KECCAK256 SUB PUSH2 0x1B5D JUMPI DUP4 PUSH1 0x4 ADD DUP2 DUP2 SLOAD DUP2 LT PUSH2 0x1B44 JUMPI PUSH2 0x1B43 PUSH2 0x36D2 JUMP JUMPDEST JUMPDEST SWAP1 PUSH1 0x0 MSTORE PUSH1 0x20 PUSH1 0x0 KECCAK256 SWAP1 PUSH1 0x5 MUL ADD SWAP4 POP PUSH1 0x1 SWAP2 POP PUSH2 0x1B6A JUMP JUMPDEST DUP1 DUP1 PUSH1 0x1 ADD SWAP2 POP POP PUSH2 0x1A8C JUMP JUMPDEST POP DUP1 PUSH2 0x1BAB JUMPI PUSH1 0x40 MLOAD PUSH32 0x8C379A000000000000000000000000000000000000000000000000000000000 DUP2 MSTORE PUSH1 0x4 ADD PUSH2 0x1BA2 SWAP1 PUSH2 0x3795 JUMP JUMPDEST PUSH1 0x40 MLOAD DUP1 SWAP2 SUB SWAP1 REVERT JUMPDEST POP DUP1 DUP1 PUSH1 0x1 ADD SWAP2 POP POP PUSH2 0x1A7F JUMP JUMPDEST POP DUP1 PUSH1 0x4 ADD PUSH1 0x1 DUP2 PUSH1 0x1 DUP2 SLOAD ADD DUP1 DUP3 SSTORE DUP1 SWAP2 POP POP SUB SWAP1 PUSH1 0x0 MSTORE PUSH1 0x20 PUSH1 0x0 KECCAK256 SWAP1 POP POP PUSH1 0x0 DUP2 PUSH1 0x4 ADD PUSH1 0x1 DUP4 PUSH1 0x4 ADD DUP1 SLOAD SWAP1 POP PUSH2 0x1BF4 SWAP2 SWAP1 PUSH2 0x3BC1 JUMP JUMPDEST DUP2 SLOAD DUP2 LT PUSH2 0x1C05 JUMPI PUSH2 0x1C04 PUSH2 0x36D2 JUMP JUMPDEST JUMPDEST SWAP1 PUSH1 0x0 MSTORE PUSH1 0x20 PUSH1 0x0 KECCAK256 SWAP1 PUSH1 0x5 MUL ADD SWAP1 POP DUP4 DUP2 PUSH1 0x0 ADD SWAP1 DUP2 PUSH2 0x1C26 SWAP2 SWAP1 PUSH2 0x3594 JUMP JUMPDEST POP DUP3 DUP2 PUSH1 0x1 ADD PUSH1 0x0 PUSH2 0x100 EXP DUP2 SLOAD DUP2 PUSH20 0xFFFFFFFFFFFFFFFFFFFFFFFFFFFFFFFFFFFFFFFF MUL NOT AND SWAP1 DUP4 PUSH20 0xFFFFFFFFFFFFFFFFFFFFFFFFFFFFFFFFFFFFFFFF AND MUL OR SWAP1 SSTORE POP TIMESTAMP DUP2 PUSH1 0x2 ADD DUP2 SWAP1 SSTORE POP POP POP POP POP POP JUMP JUMPDEST PUSH1 0x0 PUSH1 0x40 MLOAD PUSH1 0x20 ADD PUSH2 0x1C8B SWAP1 PUSH2 0x326D JUMP JUMPDEST PUSH1 0x40 MLOAD PUSH1 0x20 DUP2 DUP4 SUB SUB DUP2 MSTORE SWAP1 PUSH1 0x40 MSTORE DUP1 MLOAD SWAP1 PUSH1 0x20 ADD KECCAK256 PUSH1 0x0 DUP1 DUP5 PUSH20 0xFFFFFFFFFFFFFFFFFFFFFFFFFFFFFFFFFFFFFFFF AND PUSH20 0xFFFFFFFFFFFFFFFFFFFFFFFFFFFFFFFFFFFFFFFF AND DUP2 MSTORE PUSH1 0x20 ADD SWAP1 DUP2 MSTORE PUSH1 0x20 ADD PUSH1 0x0 KECCAK256 PUSH1 0x0 ADD PUSH1 0x0 ADD PUSH1 0x40 MLOAD PUSH1 0x20 ADD PUSH2 0x1CF5 SWAP2 SWAP1 PUSH2 0x337A JUMP JUMPDEST PUSH1 0x40 MLOAD PUSH1 0x20 DUP2 DUP4 SUB SUB DUP2 MSTORE SWAP1 PUSH1 0x40 MSTORE DUP1 MLOAD SWAP1 PUSH1 0x20 ADD KECCAK256 EQ PUSH2 0x1D19 JUMPI PUSH1 0x0 SWAP1 POP PUSH2 0x1D1E JUMP JUMPDEST PUSH1 0x1 SWAP1 POP JUMPDEST SWAP2 SWAP1 POP JUMP JUMPDEST PUSH2 0x1D2C DUP2 PUSH2 0x1C7A JUMP JUMPDEST PUSH2 0x1D6B JUMPI PUSH1 0x40 MLOAD PUSH32 0x8C379A000000000000000000000000000000000000000000000000000000000 DUP2 MSTORE PUSH1 0x4 ADD PUSH2 0x1D62 SWAP1 PUSH2 0x36B2 JUMP JUMPDEST PUSH1 0x40 MLOAD DUP1 SWAP2 SUB SWAP1 REVERT JUMPDEST PUSH1 0x0 DUP1 PUSH1 0x0 DUP4 PUSH20 0xFFFFFFFFFFFFFFFFFFFFFFFFFFFFFFFFFFFFFFFF AND PUSH20 0xFFFFFFFFFFFFFFFFFFFFFFFFFFFFFFFFFFFFFFFF AND DUP2 MSTORE PUSH1 0x20 ADD SWAP1 DUP2 MSTORE PUSH1 0x20 ADD PUSH1 0x0 KECCAK256 PUSH1 0x0 ADD SWAP1 POP PUSH1 0x0 PUSH1 0x1 SWAP1 POP JUMPDEST DUP5 MLOAD DUP2 LT ISZERO PUSH2 0x1F1C JUMPI PUSH1 0x0 DUP1 JUMPDEST DUP4 PUSH1 0x4 ADD DUP1 SLOAD SWAP1 POP DUP2 LT ISZERO PUSH2 0x1EA2 JUMPI DUP7 DUP4 DUP2 MLOAD DUP2 LT PUSH2 0x1DE6 JUMPI PUSH2 0x1DE5 PUSH2 0x36D2 JUMP JUMPDEST JUMPDEST PUSH1 0x20 MUL PUSH1 0x20 ADD ADD MLOAD PUSH1 0x40 MLOAD PUSH1 0x20 ADD PUSH2 0x1DFE SWAP2 SWAP1 PUSH2 0x3732 JUMP JUMPDEST PUSH1 0x40 MLOAD PUSH1 0x20 DUP2 DUP4 SUB SUB DUP2 MSTORE SWAP1 PUSH1 0x40 MSTORE DUP1 MLOAD SWAP1 PUSH1 0x20 ADD KECCAK256 DUP5 PUSH1 0x4 ADD DUP3 DUP2 SLOAD DUP2 LT PUSH2 0x1E2A JUMPI PUSH2 0x1E29 PUSH2 0x36D2 JUMP JUMPDEST JUMPDEST SWAP1 PUSH1 0x0 MSTORE PUSH1 0x20 PUSH1 0x0 KECCAK256 SWAP1 PUSH1 0x5 MUL ADD PUSH1 0x0 ADD PUSH1 0x40 MLOAD PUSH1 0x20 ADD PUSH2 0x1E4B SWAP2 SWAP1 PUSH2 0x337A JUMP JUMPDEST PUSH1 0x40 MLOAD PUSH1 0x20 DUP2 DUP4 SUB SUB DUP2 MSTORE SWAP1 PUSH1 0x40 MSTORE DUP1 MLOAD SWAP1 PUSH1 0x20 ADD KECCAK256 SUB PUSH2 0x1E95 JUMPI DUP4 PUSH1 0x4 ADD DUP2 DUP2 SLOAD DUP2 LT PUSH2 0x1E7C JUMPI PUSH2 0x1E7B PUSH2 0x36D2 JUMP JUMPDEST JUMPDEST SWAP1 PUSH1 0x0 MSTORE PUSH1 0x20 PUSH1 0x0 KECCAK256 SWAP1 PUSH1 0x5 MUL ADD SWAP4 POP PUSH1 0x1 SWAP2 POP PUSH2 0x1EA2 JUMP JUMPDEST DUP1 DUP1 PUSH1 0x1 ADD SWAP2 POP POP PUSH2 0x1DC4 JUMP JUMPDEST POP DUP1 PUSH2 0x1EAD DUP4 PUSH2 0x24E0 JUMP JUMPDEST PUSH1 0x40 MLOAD PUSH1 0x20 ADD PUSH2 0x1EBD SWAP2 SWAP1 PUSH2 0x3E63 JUMP JUMPDEST PUSH1 0x40 MLOAD PUSH1 0x20 DUP2 DUP4 SUB SUB DUP2 MSTORE SWAP1 PUSH1 0x40 MSTORE SWAP1 PUSH2 0x1F0D JUMPI PUSH1 0x40 MLOAD PUSH32 0x8C379A000000000000000000000000000000000000000000000000000000000 DUP2 MSTORE PUSH1 0x4 ADD PUSH2 0x1F04 SWAP2 SWAP1 PUSH2 0x2DFB JUMP JUMPDEST PUSH1 0x40 MLOAD DUP1 SWAP2 SUB SWAP1 REVERT JUMPDEST POP POP DUP1 DUP1 PUSH1 0x1 ADD SWAP2 POP POP PUSH2 0x1DB7 JUMP JUMPDEST POP PUSH1 0x0 DUP1 JUMPDEST DUP3 PUSH1 0x3 ADD DUP1 SLOAD SWAP1 POP DUP2 LT ISZERO PUSH2 0x2193 JUMPI DUP5 PUSH1 0x40 MLOAD PUSH1 0x20 ADD PUSH2 0x1F41 SWAP2 SWAP1 PUSH2 0x3732 JUMP JUMPDEST PUSH1 0x40 MLOAD PUSH1 0x20 DUP2 DUP4 SUB SUB DUP2 MSTORE SWAP1 PUSH1 0x40 MSTORE DUP1 MLOAD SWAP1 PUSH1 0x20 ADD KECCAK256 DUP4 PUSH1 0x3 ADD DUP3 DUP2 SLOAD DUP2 LT PUSH2 0x1F6D JUMPI PUSH2 0x1F6C PUSH2 0x36D2 JUMP JUMPDEST JUMPDEST SWAP1 PUSH1 0x0 MSTORE PUSH1 0x20 PUSH1 0x0 KECCAK256 SWAP1 PUSH1 0x6 MUL ADD PUSH1 0x0 ADD PUSH1 0x40 MLOAD PUSH1 0x20 ADD PUSH2 0x1F8E SWAP2 SWAP1 PUSH2 0x337A JUMP JUMPDEST PUSH1 0x40 MLOAD PUSH1 0x20 DUP2 DUP4 SUB SUB DUP2 MSTORE SWAP1 PUSH1 0x40 MSTORE DUP1 MLOAD SWAP1 PUSH1 0x20 ADD KECCAK256 SUB PUSH2 0x2186 JUMPI PUSH1 0x1 SWAP2 POP PUSH1 0x0 DUP2 SWAP1 POP JUMPDEST PUSH1 0x1 DUP5 PUSH1 0x3 ADD DUP1 SLOAD SWAP1 POP PUSH2 0x1FC7 SWAP2 SWAP1 PUSH2 0x3BC1 JUMP JUMPDEST DUP2 LT ISZERO PUSH2 0x20EC JUMPI DUP4 PUSH1 0x3 ADD PUSH1 0x1 DUP3 PUSH2 0x1FDF SWAP2 SWAP1 PUSH2 0x3E85 JUMP JUMPDEST DUP2 SLOAD DUP2 LT PUSH2 0x1FF0 JUMPI PUSH2 0x1FEF PUSH2 0x36D2 JUMP JUMPDEST JUMPDEST SWAP1 PUSH1 0x0 MSTORE PUSH1 0x20 PUSH1 0x0 KECCAK256 SWAP1 PUSH1 0x6 MUL ADD DUP5 PUSH1 0x3 ADD DUP3 DUP2 SLOAD DUP2 LT PUSH2 0x2014 JUMPI PUSH2 0x2013 PUSH2 0x36D2 JUMP JUMPDEST JUMPDEST SWAP1 PUSH1 0x0 MSTORE PUSH1 0x20 PUSH1 0x0 KECCAK256 SWAP1 PUSH1 0x6 MUL ADD PUSH1 0x0 DUP3 ADD DUP2 PUSH1 0x0 ADD SWAP1 DUP2 PUSH2 0x2036 SWAP2 SWAP1 PUSH2 0x3ECF JUMP JUMPDEST POP PUSH1 0x1 DUP3 ADD DUP2 PUSH1 0x1 ADD SWAP1 DUP2 PUSH2 0x204B SWAP2 SWAP1 PUSH2 0x3ECF JUMP JUMPDEST POP PUSH1 0x2 DUP3 ADD SLOAD DUP2 PUSH1 0x2 ADD SSTORE PUSH1 0x3 DUP3 ADD SLOAD DUP2 PUSH1 0x3 ADD SSTORE PUSH1 0x4 DUP3 ADD PUSH1 0x0 SWAP1 SLOAD SWAP1 PUSH2 0x100 EXP SWAP1 DIV PUSH20 0xFFFFFFFFFFFFFFFFFFFFFFFFFFFFFFFFFFFFFFFF AND DUP2 PUSH1 0x4 ADD PUSH1 0x0 PUSH2 0x100 EXP DUP2 SLOAD DUP2 PUSH20 0xFFFFFFFFFFFFFFFFFFFFFFFFFFFFFFFFFFFFFFFF MUL NOT AND SWAP1 DUP4 PUSH20 0xFFFFFFFFFFFFFFFFFFFFFFFFFFFFFFFFFFFFFFFF AND MUL OR SWAP1 SSTORE POP PUSH1 0x5 DUP3 ADD DUP2 PUSH1 0x5 ADD SWAP1 DUP2 PUSH2 0x20DB SWAP2 SWAP1 PUSH2 0x3ECF JUMP JUMPDEST POP SWAP1 POP POP DUP1 DUP1 PUSH1 0x1 ADD SWAP2 POP POP PUSH2 0x1FB3 JUMP JUMPDEST POP DUP3 PUSH1 0x3 ADD DUP1 SLOAD DUP1 PUSH2 0x2101 JUMPI PUSH2 0x2100 PUSH2 0x3FB7 JUMP JUMPDEST JUMPDEST PUSH1 0x1 SWAP1 SUB DUP2 DUP2 SWAP1 PUSH1 0x0 MSTORE PUSH1 0x20 PUSH1 0x0 KECCAK256 SWAP1 PUSH1 0x6 MUL ADD PUSH1 0x0 DUP1 DUP3 ADD PUSH1 0x0 PUSH2 0x2126 SWAP2 SWAP1 PUSH2 0x2886 JUMP JUMPDEST PUSH1 0x1 DUP3 ADD PUSH1 0x0 PUSH2 0x2136 SWAP2 SWAP1 PUSH2 0x2886 JUMP JUMPDEST PUSH1 0x2 DUP3 ADD PUSH1 0x0 SWAP1 SSTORE PUSH1 0x3 DUP3 ADD PUSH1 0x0 SWAP1 SSTORE PUSH1 0x4 DUP3 ADD PUSH1 0x0 PUSH2 0x100 EXP DUP2 SLOAD SWAP1 PUSH20 0xFFFFFFFFFFFFFFFFFFFFFFFFFFFFFFFFFFFFFFFF MUL NOT AND SWAP1 SSTORE PUSH1 0x5 DUP3 ADD PUSH1 0x0 PUSH2 0x217D SWAP2 SWAP1 PUSH2 0x2886 JUMP JUMPDEST POP POP SWAP1 SSTORE PUSH2 0x2193 JUMP JUMPDEST DUP1 DUP1 PUSH1 0x1 ADD SWAP2 POP POP PUSH2 0x1F21 JUMP JUMPDEST POP DUP1 PUSH2 0x21D4 JUMPI PUSH1 0x40 MLOAD PUSH32 0x8C379A000000000000000000000000000000000000000000000000000000000 DUP2 MSTORE PUSH1 0x4 ADD PUSH2 0x21CB SWAP1 PUSH2 0x4290 JUMP JUMPDEST PUSH1 0x40 MLOAD DUP1 SWAP2 SUB SWAP1 REVERT JUMPDEST POP POP POP POP POP JUMP JUMPDEST PUSH1 0x60 PUSH1 0x0 DUP3 PUSH20 0xFFFFFFFFFFFFFFFFFFFFFFFFFFFFFFFFFFFFFFFF AND PUSH1 0x0 SHL SWAP1 POP PUSH1 0x0 PUSH1 0x40 MLOAD DUP1 PUSH1 0x40 ADD PUSH1 0x40 MSTORE DUP1 PUSH1 0x10 DUP2 MSTORE PUSH1 0x20 ADD PUSH32 0x3031323334353637383961626364656600000000000000000000000000000000 DUP2 MSTORE POP SWAP1 POP PUSH1 0x0 PUSH1 0x2A PUSH8 0xFFFFFFFFFFFFFFFF DUP2 GT ISZERO PUSH2 0x2252 JUMPI PUSH2 0x2251 PUSH2 0x2B0A JUMP JUMPDEST JUMPDEST PUSH1 0x40 MLOAD SWAP1 DUP1 DUP3 MSTORE DUP1 PUSH1 0x1F ADD PUSH1 0x1F NOT AND PUSH1 0x20 ADD DUP3 ADD PUSH1 0x40 MSTORE DUP1 ISZERO PUSH2 0x2284 JUMPI DUP2 PUSH1 0x20 ADD PUSH1 0x1 DUP3 MUL DUP1 CALLDATASIZE DUP4 CALLDATACOPY DUP1 DUP3 ADD SWAP2 POP POP SWAP1 POP JUMPDEST POP SWAP1 POP PUSH32 0x3000000000000000000000000000000000000000000000000000000000000000 DUP2 PUSH1 0x0 DUP2 MLOAD DUP2 LT PUSH2 0x22BC JUMPI PUSH2 0x22BB PUSH2 0x36D2 JUMP JUMPDEST JUMPDEST PUSH1 0x20 ADD ADD SWAP1 PUSH31 0xFFFFFFFFFFFFFFFFFFFFFFFFFFFFFFFFFFFFFFFFFFFFFFFFFFFFFFFFFFFFFF NOT AND SWAP1 DUP2 PUSH1 0x0 BYTE SWAP1 MSTORE8 POP PUSH32 0x7800000000000000000000000000000000000000000000000000000000000000 DUP2 PUSH1 0x1 DUP2 MLOAD DUP2 LT PUSH2 0x2320 JUMPI PUSH2 0x231F PUSH2 0x36D2 JUMP JUMPDEST JUMPDEST PUSH1 0x20 ADD ADD SWAP1 PUSH31 0xFFFFFFFFFFFFFFFFFFFFFFFFFFFFFFFFFFFFFFFFFFFFFFFFFFFFFFFFFFFFFF NOT AND SWAP1 DUP2 PUSH1 0x0 BYTE SWAP1 MSTORE8 POP PUSH1 0x0 JUMPDEST PUSH1 0x14 DUP2 LT ISZERO PUSH2 0x24D4 JUMPI DUP3 PUSH1 0x4 DUP6 PUSH1 0xC DUP5 PUSH2 0x236C SWAP2 SWAP1 PUSH2 0x3E85 JUMP JUMPDEST PUSH1 0x20 DUP2 LT PUSH2 0x237D JUMPI PUSH2 0x237C PUSH2 0x36D2 JUMP JUMPDEST JUMPDEST BYTE PUSH1 0xF8 SHL PUSH31 0xFFFFFFFFFFFFFFFFFFFFFFFFFFFFFFFFFFFFFFFFFFFFFFFFFFFFFFFFFFFFFF NOT AND SWAP1 SHR PUSH1 0xF8 SHR PUSH1 0xFF AND DUP2 MLOAD DUP2 LT PUSH2 0x23BC JUMPI PUSH2 0x23BB PUSH2 0x36D2 JUMP JUMPDEST JUMPDEST PUSH1 0x20 ADD ADD MLOAD PUSH1 0xF8 SHR PUSH1 0xF8 SHL DUP3 PUSH1 0x2 DUP4 PUSH2 0x23D5 SWAP2 SWAP1 PUSH2 0x42B0 JUMP JUMPDEST PUSH1 0x2 PUSH2 0x23E1 SWAP2 SWAP1 PUSH2 0x3E85 JUMP JUMPDEST DUP2 MLOAD DUP2 LT PUSH2 0x23F2 JUMPI PUSH2 0x23F1 PUSH2 0x36D2 JUMP JUMPDEST JUMPDEST PUSH1 0x20 ADD ADD SWAP1 PUSH31 0xFFFFFFFFFFFFFFFFFFFFFFFFFFFFFFFFFFFFFFFFFFFFFFFFFFFFFFFFFFFFFF NOT AND SWAP1 DUP2 PUSH1 0x0 BYTE SWAP1 MSTORE8 POP DUP3 PUSH1 0xF PUSH1 0xF8 SHL DUP6 PUSH1 0xC DUP5 PUSH2 0x2435 SWAP2 SWAP1 PUSH2 0x3E85 JUMP JUMPDEST PUSH1 0x20 DUP2 LT PUSH2 0x2446 JUMPI PUSH2 0x2445 PUSH2 0x36D2 JUMP JUMPDEST JUMPDEST BYTE PUSH1 0xF8 SHL AND PUSH1 0xF8 SHR PUSH1 0xFF AND DUP2 MLOAD DUP2 LT PUSH2 0x2462 JUMPI PUSH2 0x2461 PUSH2 0x36D2 JUMP JUMPDEST JUMPDEST PUSH1 0x20 ADD ADD MLOAD PUSH1 0xF8 SHR PUSH1 0xF8 SHL DUP3 PUSH1 0x2 DUP4 PUSH2 0x247B SWAP2 SWAP1 PUSH2 0x42B0 JUMP JUMPDEST PUSH1 0x3 PUSH2 0x2487 SWAP2 SWAP1 PUSH2 0x3E85 JUMP JUMPDEST DUP2 MLOAD DUP2 LT PUSH2 0x2498 JUMPI PUSH2 0x2497 PUSH2 0x36D2 JUMP JUMPDEST JUMPDEST PUSH1 0x20 ADD ADD SWAP1 PUSH31 0xFFFFFFFFFFFFFFFFFFFFFFFFFFFFFFFFFFFFFFFFFFFFFFFFFFFFFFFFFFFFFF NOT AND SWAP1 DUP2 PUSH1 0x0 BYTE SWAP1 MSTORE8 POP DUP1 DUP1 PUSH1 0x1 ADD SWAP2 POP POP PUSH2 0x2352 JUMP JUMPDEST POP DUP1 SWAP4 POP POP POP POP SWAP2 SWAP1 POP JUMP JUMPDEST PUSH1 0x60 PUSH1 0x0 DUP3 SUB PUSH2 0x2527 JUMPI PUSH1 0x40 MLOAD DUP1 PUSH1 0x40 ADD PUSH1 0x40 MSTORE DUP1 PUSH1 0x1 DUP2 MSTORE PUSH1 0x20 ADD PUSH32 0x3000000000000000000000000000000000000000000000000000000000000000 DUP2 MSTORE POP SWAP1 POP PUSH2 0x2663 JUMP JUMPDEST PUSH1 0x0 DUP3 SWAP1 POP PUSH1 0x0 JUMPDEST PUSH1 0x0 DUP3 EQ PUSH2 0x2559 JUMPI DUP1 DUP1 PUSH2 0x2542 SWAP1 PUSH2 0x42F2 JUMP JUMPDEST SWAP2 POP POP PUSH1 0xA DUP3 PUSH2 0x2552 SWAP2 SWAP1 PUSH2 0x4369 JUMP JUMPDEST SWAP2 POP PUSH2 0x252F JUMP JUMPDEST PUSH1 0x0 DUP2 PUSH8 0xFFFFFFFFFFFFFFFF DUP2 GT ISZERO PUSH2 0x2575 JUMPI PUSH2 0x2574 PUSH2 0x2B0A JUMP JUMPDEST JUMPDEST PUSH1 0x40 MLOAD SWAP1 DUP1 DUP3 MSTORE DUP1 PUSH1 0x1F ADD PUSH1 0x1F NOT AND PUSH1 0x20 ADD DUP3 ADD PUSH1 0x40 MSTORE DUP1 ISZERO PUSH2 0x25A7 JUMPI DUP2 PUSH1 0x20 ADD PUSH1 0x1 DUP3 MUL DUP1 CALLDATASIZE DUP4 CALLDATACOPY DUP1 DUP3 ADD SWAP2 POP POP SWAP1 POP JUMPDEST POP SWAP1 POP PUSH1 0x0 DUP3 SWAP1 POP JUMPDEST PUSH1 0x0 DUP7 EQ PUSH2 0x265B JUMPI PUSH1 0x1 DUP2 PUSH2 0x25C5 SWAP2 SWAP1 PUSH2 0x3BC1 JUMP JUMPDEST SWAP1 POP PUSH1 0x0 PUSH1 0xA DUP1 DUP9 PUSH2 0x25D7 SWAP2 SWAP1 PUSH2 0x4369 JUMP JUMPDEST PUSH2 0x25E1 SWAP2 SWAP1 PUSH2 0x42B0 JUMP JUMPDEST DUP8 PUSH2 0x25EC SWAP2 SWAP1 PUSH2 0x3BC1 JUMP JUMPDEST PUSH1 0x30 PUSH2 0x25F8 SWAP2 SWAP1 PUSH2 0x43A7 JUMP JUMPDEST SWAP1 POP PUSH1 0x0 DUP2 PUSH1 0xF8 SHL SWAP1 POP DUP1 DUP5 DUP5 DUP2 MLOAD DUP2 LT PUSH2 0x2616 JUMPI PUSH2 0x2615 PUSH2 0x36D2 JUMP JUMPDEST JUMPDEST PUSH1 0x20 ADD ADD SWAP1 PUSH31 0xFFFFFFFFFFFFFFFFFFFFFFFFFFFFFFFFFFFFFFFFFFFFFFFFFFFFFFFFFFFFFF NOT AND SWAP1 DUP2 PUSH1 0x0 BYTE SWAP1 MSTORE8 POP PUSH1 0xA DUP9 PUSH2 0x2652 SWAP2 SWAP1 PUSH2 0x4369 JUMP JUMPDEST SWAP8 POP POP POP PUSH2 0x25B0 JUMP JUMPDEST DUP2 SWAP5 POP POP POP POP POP JUMPDEST SWAP2 SWAP1 POP JUMP JUMPDEST DUP3 DUP1 SLOAD DUP3 DUP3 SSTORE SWAP1 PUSH1 0x0 MSTORE PUSH1 0x20 PUSH1 0x0 KECCAK256 SWAP1 PUSH1 0x6 MUL DUP2 ADD SWAP3 DUP3 ISZERO PUSH2 0x2769 JUMPI PUSH1 0x0 MSTORE PUSH1 0x20 PUSH1 0x0 KECCAK256 SWAP2 PUSH1 0x6 MUL DUP3 ADD JUMPDEST DUP3 DUP2 GT ISZERO PUSH2 0x2768 JUMPI DUP3 DUP3 PUSH1 0x0 DUP3 ADD DUP2 PUSH1 0x0 ADD SWAP1 DUP2 PUSH2 0x26B1 SWAP2 SWAP1 PUSH2 0x3ECF JUMP JUMPDEST POP PUSH1 0x1 DUP3 ADD DUP2 PUSH1 0x1 ADD SWAP1 DUP2 PUSH2 0x26C6 SWAP2 SWAP1 PUSH2 0x3ECF JUMP JUMPDEST POP PUSH1 0x2 DUP3 ADD SLOAD DUP2 PUSH1 0x2 ADD SSTORE PUSH1 0x3 DUP3 ADD SLOAD DUP2 PUSH1 0x3 ADD SSTORE PUSH1 0x4 DUP3 ADD PUSH1 0x0 SWAP1 SLOAD SWAP1 PUSH2 0x100 EXP SWAP1 DIV PUSH20 0xFFFFFFFFFFFFFFFFFFFFFFFFFFFFFFFFFFFFFFFF AND DUP2 PUSH1 0x4 ADD PUSH1 0x0 PUSH2 0x100 EXP DUP2 SLOAD DUP2 PUSH20 0xFFFFFFFFFFFFFFFFFFFFFFFFFFFFFFFFFFFFFFFF MUL NOT AND SWAP1 DUP4 PUSH20 0xFFFFFFFFFFFFFFFFFFFFFFFFFFFFFFFFFFFFFFFF AND MUL OR SWAP1 SSTORE POP PUSH1 0x5 DUP3 ADD DUP2 PUSH1 0x5 ADD SWAP1 DUP2 PUSH2 0x2756 SWAP2 SWAP1 PUSH2 0x3ECF JUMP JUMPDEST POP POP POP SWAP2 PUSH1 0x6 ADD SWAP2 SWAP1 PUSH1 0x6 ADD SWAP1 PUSH2 0x2693 JUMP JUMPDEST JUMPDEST POP SWAP1 POP PUSH2 0x2776 SWAP2 SWAP1 PUSH2 0x290E JUMP JUMPDEST POP SWAP1 JUMP JUMPDEST DUP3 DUP1 SLOAD DUP3 DUP3 SSTORE SWAP1 PUSH1 0x0 MSTORE PUSH1 0x20 PUSH1 0x0 KECCAK256 SWAP1 PUSH1 0x5 MUL DUP2 ADD SWAP3 DUP3 ISZERO PUSH2 0x2875 JUMPI PUSH1 0x0 MSTORE PUSH1 0x20 PUSH1 0x0 KECCAK256 SWAP2 PUSH1 0x5 MUL DUP3 ADD JUMPDEST DUP3 DUP2 GT ISZERO PUSH2 0x2874 JUMPI DUP3 DUP3 PUSH1 0x0 DUP3 ADD DUP2 PUSH1 0x0 ADD SWAP1 DUP2 PUSH2 0x27C3 SWAP2 SWAP1 PUSH2 0x3ECF JUMP JUMPDEST POP PUSH1 0x1 DUP3 ADD PUSH1 0x0 SWAP1 SLOAD SWAP1 PUSH2 0x100 EXP SWAP1 DIV PUSH20 0xFFFFFFFFFFFFFFFFFFFFFFFFFFFFFFFFFFFFFFFF AND DUP2 PUSH1 0x1 ADD PUSH1 0x0 PUSH2 0x100 EXP DUP2 SLOAD DUP2 PUSH20 0xFFFFFFFFFFFFFFFFFFFFFFFFFFFFFFFFFFFFFFFF MUL NOT AND SWAP1 DUP4 PUSH20 0xFFFFFFFFFFFFFFFFFFFFFFFFFFFFFFFFFFFFFFFF AND MUL OR SWAP1 SSTORE POP PUSH1 0x2 DUP3 ADD SLOAD DUP2 PUSH1 0x2 ADD SSTORE PUSH1 0x3 DUP3 ADD DUP2 PUSH1 0x3 ADD SWAP1 DUP1 SLOAD PUSH2 0x284B SWAP3 SWAP2 SWAP1 PUSH2 0x2668 JUMP JUMPDEST POP PUSH1 0x4 DUP3 ADD DUP2 PUSH1 0x4 ADD SWAP1 DUP1 SLOAD PUSH2 0x2862 SWAP3 SWAP2 SWAP1 PUSH2 0x277A JUMP JUMPDEST POP POP POP SWAP2 PUSH1 0x5 ADD SWAP2 SWAP1 PUSH1 0x5 ADD SWAP1 PUSH2 0x27A5 JUMP JUMPDEST JUMPDEST POP SWAP1 POP PUSH2 0x2882 SWAP2 SWAP1 PUSH2 0x298C JUMP JUMPDEST POP SWAP1 JUMP JUMPDEST POP DUP1 SLOAD PUSH2 0x2892 SWAP1 PUSH2 0x32B1 JUMP JUMPDEST PUSH1 0x0 DUP3 SSTORE DUP1 PUSH1 0x1F LT PUSH2 0x28A4 JUMPI POP PUSH2 0x28C3 JUMP JUMPDEST PUSH1 0x1F ADD PUSH1 0x20 SWAP1 DIV SWAP1 PUSH1 0x0 MSTORE PUSH1 0x20 PUSH1 0x0 KECCAK256 SWAP1 DUP2 ADD SWAP1 PUSH2 0x28C2 SWAP2 SWAP1 PUSH2 0x2A02 JUMP JUMPDEST JUMPDEST POP JUMP JUMPDEST POP DUP1 SLOAD PUSH1 0x0 DUP3 SSTORE PUSH1 0x6 MUL SWAP1 PUSH1 0x0 MSTORE PUSH1 0x20 PUSH1 0x0 KECCAK256 SWAP1 DUP2 ADD SWAP1 PUSH2 0x28E7 SWAP2 SWAP1 PUSH2 0x290E JUMP JUMPDEST POP JUMP JUMPDEST POP DUP1 SLOAD PUSH1 0x0 DUP3 SSTORE PUSH1 0x5 MUL SWAP1 PUSH1 0x0 MSTORE PUSH1 0x20 PUSH1 0x0 KECCAK256 SWAP1 DUP2 ADD SWAP1 PUSH2 0x290B SWAP2 SWAP1 PUSH2 0x298C JUMP JUMPDEST POP JUMP JUMPDEST JUMPDEST DUP1 DUP3 GT ISZERO PUSH2 0x2988 JUMPI PUSH1 0x0 DUP1 DUP3 ADD PUSH1 0x0 PUSH2 0x2928 SWAP2 SWAP1 PUSH2 0x2886 JUMP JUMPDEST PUSH1 0x1 DUP3 ADD PUSH1 0x0 PUSH2 0x2938 SWAP2 SWAP1 PUSH2 0x2886 JUMP JUMPDEST PUSH1 0x2 DUP3 ADD PUSH1 0x0 SWAP1 SSTORE PUSH1 0x3 DUP3 ADD PUSH1 0x0 SWAP1 SSTORE PUSH1 0x4 DUP3 ADD PUSH1 0x0 PUSH2 0x100 EXP DUP2 SLOAD SWAP1 PUSH20 0xFFFFFFFFFFFFFFFFFFFFFFFFFFFFFFFFFFFFFFFF MUL NOT AND SWAP1 SSTORE PUSH1 0x5 DUP3 ADD PUSH1 0x0 PUSH2 0x297F SWAP2 SWAP1 PUSH2 0x2886 JUMP JUMPDEST POP PUSH1 0x6 ADD PUSH2 0x290F JUMP JUMPDEST POP SWAP1 JUMP JUMPDEST JUMPDEST DUP1 DUP3 GT ISZERO PUSH2 0x29FE JUMPI PUSH1 0x0 DUP1 DUP3 ADD PUSH1 0x0 PUSH2 0x29A6 SWAP2 SWAP1 PUSH2 0x2886 JUMP JUMPDEST PUSH1 0x1 DUP3 ADD PUSH1 0x0 PUSH2 0x100 EXP DUP2 SLOAD SWAP1 PUSH20 0xFFFFFFFFFFFFFFFFFFFFFFFFFFFFFFFFFFFFFFFF MUL NOT AND SWAP1 SSTORE PUSH1 0x2 DUP3 ADD PUSH1 0x0 SWAP1 SSTORE PUSH1 0x3 DUP3 ADD PUSH1 0x0 PUSH2 0x29E5 SWAP2 SWAP1 PUSH2 0x28C6 JUMP JUMPDEST PUSH1 0x4 DUP3 ADD PUSH1 0x0 PUSH2 0x29F5 SWAP2 SWAP1 PUSH2 0x28EA JUMP JUMPDEST POP PUSH1 0x5 ADD PUSH2 0x298D JUMP JUMPDEST POP SWAP1 JUMP JUMPDEST JUMPDEST DUP1 DUP3 GT ISZERO PUSH2 0x2A1B JUMPI PUSH1 0x0 DUP2 PUSH1 0x0 SWAP1 SSTORE POP PUSH1 0x1 ADD PUSH2 0x2A03 JUMP JUMPDEST POP SWAP1 JUMP JUMPDEST PUSH1 0x0 PUSH1 0x40 MLOAD SWAP1 POP SWAP1 JUMP JUMPDEST PUSH1 0x0 DUP1 REVERT JUMPDEST PUSH1 0x0 DUP1 REVERT JUMPDEST PUSH1 0x0 PUSH20 0xFFFFFFFFFFFFFFFFFFFFFFFFFFFFFFFFFFFFFFFF DUP3 AND SWAP1 POP SWAP2 SWAP1 POP JUMP JUMPDEST PUSH1 0x0 PUSH2 0x2A5E DUP3 PUSH2 0x2A33 JUMP JUMPDEST SWAP1 POP SWAP2 SWAP1 POP JUMP JUMPDEST PUSH2 0x2A6E DUP2 PUSH2 0x2A53 JUMP JUMPDEST DUP2 EQ PUSH2 0x2A79 JUMPI PUSH1 0x0 DUP1 REVERT JUMPDEST POP JUMP JUMPDEST PUSH1 0x0 DUP2 CALLDATALOAD SWAP1 POP PUSH2 0x2A8B DUP2 PUSH2 0x2A65 JUMP JUMPDEST SWAP3 SWAP2 POP POP JUMP JUMPDEST PUSH1 0x0 PUSH1 0x20 DUP3 DUP5 SUB SLT ISZERO PUSH2 0x2AA7 JUMPI PUSH2 0x2AA6 PUSH2 0x2A29 JUMP JUMPDEST JUMPDEST PUSH1 0x0 PUSH2 0x2AB5 DUP5 DUP3 DUP6 ADD PUSH2 0x2A7C JUMP JUMPDEST SWAP2 POP POP SWAP3 SWAP2 POP POP JUMP JUMPDEST PUSH1 0x0 DUP2 ISZERO ISZERO SWAP1 POP SWAP2 SWAP1 POP JUMP JUMPDEST PUSH2 0x2AD3 DUP2 PUSH2 0x2ABE JUMP JUMPDEST DUP3 MSTORE POP POP JUMP JUMPDEST PUSH1 0x0 PUSH1 0x20 DUP3 ADD SWAP1 POP PUSH2 0x2AEE PUSH1 0x0 DUP4 ADD DUP5 PUSH2 0x2ACA JUMP JUMPDEST SWAP3 SWAP2 POP POP JUMP JUMPDEST PUSH1 0x0 DUP1 REVERT JUMPDEST PUSH1 0x0 PUSH1 0x1F NOT PUSH1 0x1F DUP4 ADD AND SWAP1 POP SWAP2 SWAP1 POP JUMP JUMPDEST PUSH32 0x4E487B7100000000000000000000000000000000000000000000000000000000 PUSH1 0x0 MSTORE PUSH1 0x41 PUSH1 0x4 MSTORE PUSH1 0x24 PUSH1 0x0 REVERT JUMPDEST PUSH2 0x2B42 DUP3 PUSH2 0x2AF9 JUMP JUMPDEST DUP2 ADD DUP2 DUP2 LT PUSH8 0xFFFFFFFFFFFFFFFF DUP3 GT OR ISZERO PUSH2 0x2B61 JUMPI PUSH2 0x2B60 PUSH2 0x2B0A JUMP JUMPDEST JUMPDEST DUP1 PUSH1 0x40 MSTORE POP POP POP JUMP JUMPDEST PUSH1 0x0 PUSH2 0x2B74 PUSH2 0x2A1F JUMP JUMPDEST SWAP1 POP PUSH2 0x2B80 DUP3 DUP3 PUSH2 0x2B39 JUMP JUMPDEST SWAP2 SWAP1 POP JUMP JUMPDEST PUSH1 0x0 PUSH8 0xFFFFFFFFFFFFFFFF DUP3 GT ISZERO PUSH2 0x2BA0 JUMPI PUSH2 0x2B9F PUSH2 0x2B0A JUMP JUMPDEST JUMPDEST PUSH1 0x20 DUP3 MUL SWAP1 POP PUSH1 0x20 DUP2 ADD SWAP1 POP SWAP2 SWAP1 POP JUMP JUMPDEST PUSH1 0x0 DUP1 REVERT JUMPDEST PUSH1 0x0 DUP1 REVERT JUMPDEST PUSH1 0x0 PUSH8 0xFFFFFFFFFFFFFFFF DUP3 GT ISZERO PUSH2 0x2BD6 JUMPI PUSH2 0x2BD5 PUSH2 0x2B0A JUMP JUMPDEST JUMPDEST PUSH2 0x2BDF DUP3 PUSH2 0x2AF9 JUMP JUMPDEST SWAP1 POP PUSH1 0x20 DUP2 ADD SWAP1 POP SWAP2 SWAP1 POP JUMP JUMPDEST DUP3 DUP2 DUP4 CALLDATACOPY PUSH1 0x0 DUP4 DUP4 ADD MSTORE POP POP POP JUMP JUMPDEST PUSH1 0x0 PUSH2 0x2C0E PUSH2 0x2C09 DUP5 PUSH2 0x2BBB JUMP JUMPDEST PUSH2 0x2B6A JUMP JUMPDEST SWAP1 POP DUP3 DUP2 MSTORE PUSH1 0x20 DUP2 ADD DUP5 DUP5 DUP5 ADD GT ISZERO PUSH2 0x2C2A JUMPI PUSH2 0x2C29 PUSH2 0x2BB6 JUMP JUMPDEST JUMPDEST PUSH2 0x2C35 DUP5 DUP3 DUP6 PUSH2 0x2BEC JUMP JUMPDEST POP SWAP4 SWAP3 POP POP POP JUMP JUMPDEST PUSH1 0x0 DUP3 PUSH1 0x1F DUP4 ADD SLT PUSH2 0x2C52 JUMPI PUSH2 0x2C51 PUSH2 0x2AF4 JUMP JUMPDEST JUMPDEST DUP2 CALLDATALOAD PUSH2 0x2C62 DUP5 DUP3 PUSH1 0x20 DUP7 ADD PUSH2 0x2BFB JUMP JUMPDEST SWAP2 POP POP SWAP3 SWAP2 POP POP JUMP JUMPDEST PUSH1 0x0 PUSH2 0x2C7E PUSH2 0x2C79 DUP5 PUSH2 0x2B85 JUMP JUMPDEST PUSH2 0x2B6A JUMP JUMPDEST SWAP1 POP DUP1 DUP4 DUP3 MSTORE PUSH1 0x20 DUP3 ADD SWAP1 POP PUSH1 0x20 DUP5 MUL DUP4 ADD DUP6 DUP2 GT ISZERO PUSH2 0x2CA1 JUMPI PUSH2 0x2CA0 PUSH2 0x2BB1 JUMP JUMPDEST JUMPDEST DUP4 JUMPDEST DUP2 DUP2 LT ISZERO PUSH2 0x2CE8 JUMPI DUP1 CALLDATALOAD PUSH8 0xFFFFFFFFFFFFFFFF DUP2 GT ISZERO PUSH2 0x2CC6 JUMPI PUSH2 0x2CC5 PUSH2 0x2AF4 JUMP JUMPDEST JUMPDEST DUP1 DUP7 ADD PUSH2 0x2CD3 DUP10 DUP3 PUSH2 0x2C3D JUMP JUMPDEST DUP6 MSTORE PUSH1 0x20 DUP6 ADD SWAP5 POP POP POP PUSH1 0x20 DUP2 ADD SWAP1 POP PUSH2 0x2CA3 JUMP JUMPDEST POP POP POP SWAP4 SWAP3 POP POP POP JUMP JUMPDEST PUSH1 0x0 DUP3 PUSH1 0x1F DUP4 ADD SLT PUSH2 0x2D07 JUMPI PUSH2 0x2D06 PUSH2 0x2AF4 JUMP JUMPDEST JUMPDEST DUP2 CALLDATALOAD PUSH2 0x2D17 DUP5 DUP3 PUSH1 0x20 DUP7 ADD PUSH2 0x2C6B JUMP JUMPDEST SWAP2 POP POP SWAP3 SWAP2 POP POP JUMP JUMPDEST PUSH1 0x0 DUP1 PUSH1 0x40 DUP4 DUP6 SUB SLT ISZERO PUSH2 0x2D37 JUMPI PUSH2 0x2D36 PUSH2 0x2A29 JUMP JUMPDEST JUMPDEST PUSH1 0x0 DUP4 ADD CALLDATALOAD PUSH8 0xFFFFFFFFFFFFFFFF DUP2 GT ISZERO PUSH2 0x2D55 JUMPI PUSH2 0x2D54 PUSH2 0x2A2E JUMP JUMPDEST JUMPDEST PUSH2 0x2D61 DUP6 DUP3 DUP7 ADD PUSH2 0x2CF2 JUMP JUMPDEST SWAP3 POP POP PUSH1 0x20 PUSH2 0x2D72 DUP6 DUP3 DUP7 ADD PUSH2 0x2A7C JUMP JUMPDEST SWAP2 POP POP SWAP3 POP SWAP3 SWAP1 POP JUMP JUMPDEST PUSH1 0x0 DUP2 MLOAD SWAP1 POP SWAP2 SWAP1 POP JUMP JUMPDEST PUSH1 0x0 DUP3 DUP3 MSTORE PUSH1 0x20 DUP3 ADD SWAP1 POP SWAP3 SWAP2 POP POP JUMP JUMPDEST PUSH1 0x0 JUMPDEST DUP4 DUP2 LT ISZERO PUSH2 0x2DB6 JUMPI DUP1 DUP3 ADD MLOAD DUP2 DUP5 ADD MSTORE PUSH1 0x20 DUP2 ADD SWAP1 POP PUSH2 0x2D9B JUMP JUMPDEST PUSH1 0x0 DUP5 DUP5 ADD MSTORE POP POP POP POP JUMP JUMPDEST PUSH1 0x0 PUSH2 0x2DCD DUP3 PUSH2 0x2D7C JUMP JUMPDEST PUSH2 0x2DD7 DUP2 DUP6 PUSH2 0x2D87 JUMP JUMPDEST SWAP4 POP PUSH2 0x2DE7 DUP2 DUP6 PUSH1 0x20 DUP7 ADD PUSH2 0x2D98 JUMP JUMPDEST PUSH2 0x2DF0 DUP2 PUSH2 0x2AF9 JUMP JUMPDEST DUP5 ADD SWAP2 POP POP SWAP3 SWAP2 POP POP JUMP JUMPDEST PUSH1 0x0 PUSH1 0x20 DUP3 ADD SWAP1 POP DUP2 DUP2 SUB PUSH1 0x0 DUP4 ADD MSTORE PUSH2 0x2E15 DUP2 DUP5 PUSH2 0x2DC2 JUMP JUMPDEST SWAP1 POP SWAP3 SWAP2 POP POP JUMP JUMPDEST PUSH1 0x0 DUP1 PUSH1 0x0 PUSH1 0x60 DUP5 DUP7 SUB SLT ISZERO PUSH2 0x2E36 JUMPI PUSH2 0x2E35 PUSH2 0x2A29 JUMP JUMPDEST JUMPDEST PUSH1 0x0 DUP5 ADD CALLDATALOAD PUSH8 0xFFFFFFFFFFFFFFFF DUP2 GT ISZERO PUSH2 0x2E54 JUMPI PUSH2 0x2E53 PUSH2 0x2A2E JUMP JUMPDEST JUMPDEST PUSH2 0x2E60 DUP7 DUP3 DUP8 ADD PUSH2 0x2CF2 JUMP JUMPDEST SWAP4 POP POP PUSH1 0x20 DUP5 ADD CALLDATALOAD PUSH8 0xFFFFFFFFFFFFFFFF DUP2 GT ISZERO PUSH2 0x2E81 JUMPI PUSH2 0x2E80 PUSH2 0x2A2E JUMP JUMPDEST JUMPDEST PUSH2 0x2E8D DUP7 DUP3 DUP8 ADD PUSH2 0x2C3D JUMP JUMPDEST SWAP3 POP POP PUSH1 0x40 PUSH2 0x2E9E DUP7 DUP3 DUP8 ADD PUSH2 0x2A7C JUMP JUMPDEST SWAP2 POP POP SWAP3 POP SWAP3 POP SWAP3 JUMP JUMPDEST PUSH1 0x0 PUSH8 0xFFFFFFFFFFFFFFFF DUP3 GT ISZERO PUSH2 0x2EC3 JUMPI PUSH2 0x2EC2 PUSH2 0x2B0A JUMP JUMPDEST JUMPDEST PUSH1 0x20 DUP3 MUL SWAP1 POP PUSH1 0x20 DUP2 ADD SWAP1 POP SWAP2 SWAP1 POP JUMP JUMPDEST PUSH1 0x0 DUP1 REVERT JUMPDEST PUSH1 0x0 DUP1 REVERT JUMPDEST PUSH1 0x0 DUP2 SWAP1 POP SWAP2 SWAP1 POP JUMP JUMPDEST PUSH2 0x2EF1 DUP2 PUSH2 0x2EDE JUMP JUMPDEST DUP2 EQ PUSH2 0x2EFC JUMPI PUSH1 0x0 DUP1 REVERT JUMPDEST POP JUMP JUMPDEST PUSH1 0x0 DUP2 CALLDATALOAD SWAP1 POP PUSH2 0x2F0E DUP2 PUSH2 0x2EE8 JUMP JUMPDEST SWAP3 SWAP2 POP POP JUMP JUMPDEST PUSH1 0x0 PUSH1 0x80 DUP3 DUP5 SUB SLT ISZERO PUSH2 0x2F2A JUMPI PUSH2 0x2F29 PUSH2 0x2ED4 JUMP JUMPDEST JUMPDEST PUSH2 0x2F34 PUSH1 0x80 PUSH2 0x2B6A JUMP JUMPDEST SWAP1 POP PUSH1 0x0 DUP3 ADD CALLDATALOAD PUSH8 0xFFFFFFFFFFFFFFFF DUP2 GT ISZERO PUSH2 0x2F54 JUMPI PUSH2 0x2F53 PUSH2 0x2ED9 JUMP JUMPDEST JUMPDEST PUSH2 0x2F60 DUP5 DUP3 DUP6 ADD PUSH2 0x2C3D JUMP JUMPDEST PUSH1 0x0 DUP4 ADD MSTORE POP PUSH1 0x20 DUP3 ADD CALLDATALOAD PUSH8 0xFFFFFFFFFFFFFFFF DUP2 GT ISZERO PUSH2 0x2F84 JUMPI PUSH2 0x2F83 PUSH2 0x2ED9 JUMP JUMPDEST JUMPDEST PUSH2 0x2F90 DUP5 DUP3 DUP6 ADD PUSH2 0x2C3D JUMP JUMPDEST PUSH1 0x20 DUP4 ADD MSTORE POP PUSH1 0x40 PUSH2 0x2FA4 DUP5 DUP3 DUP6 ADD PUSH2 0x2EFF JUMP JUMPDEST PUSH1 0x40 DUP4 ADD MSTORE POP PUSH1 0x60 DUP3 ADD CALLDATALOAD PUSH8 0xFFFFFFFFFFFFFFFF DUP2 GT ISZERO PUSH2 0x2FC8 JUMPI PUSH2 0x2FC7 PUSH2 0x2ED9 JUMP JUMPDEST JUMPDEST PUSH2 0x2FD4 DUP5 DUP3 DUP6 ADD PUSH2 0x2C3D JUMP JUMPDEST PUSH1 0x60 DUP4 ADD MSTORE POP SWAP3 SWAP2 POP POP JUMP JUMPDEST PUSH1 0x0 PUSH2 0x2FF3 PUSH2 0x2FEE DUP5 PUSH2 0x2EA8 JUMP JUMPDEST PUSH2 0x2B6A JUMP JUMPDEST SWAP1 POP DUP1 DUP4 DUP3 MSTORE PUSH1 0x20 DUP3 ADD SWAP1 POP PUSH1 0x20 DUP5 MUL DUP4 ADD DUP6 DUP2 GT ISZERO PUSH2 0x3016 JUMPI PUSH2 0x3015 PUSH2 0x2BB1 JUMP JUMPDEST JUMPDEST DUP4 JUMPDEST DUP2 DUP2 LT ISZERO PUSH2 0x305D JUMPI DUP1 CALLDATALOAD PUSH8 0xFFFFFFFFFFFFFFFF DUP2 GT ISZERO PUSH2 0x303B JUMPI PUSH2 0x303A PUSH2 0x2AF4 JUMP JUMPDEST JUMPDEST DUP1 DUP7 ADD PUSH2 0x3048 DUP10 DUP3 PUSH2 0x2F14 JUMP JUMPDEST DUP6 MSTORE PUSH1 0x20 DUP6 ADD SWAP5 POP POP POP PUSH1 0x20 DUP2 ADD SWAP1 POP PUSH2 0x3018 JUMP JUMPDEST POP POP POP SWAP4 SWAP3 POP POP POP JUMP JUMPDEST PUSH1 0x0 DUP3 PUSH1 0x1F DUP4 ADD SLT PUSH2 0x307C JUMPI PUSH2 0x307B PUSH2 0x2AF4 JUMP JUMPDEST JUMPDEST DUP2 CALLDATALOAD PUSH2 0x308C DUP5 DUP3 PUSH1 0x20 DUP7 ADD PUSH2 0x2FE0 JUMP JUMPDEST SWAP2 POP POP SWAP3 SWAP2 POP POP JUMP JUMPDEST PUSH1 0x0 DUP1 PUSH1 0x0 PUSH1 0x60 DUP5 DUP7 SUB SLT ISZERO PUSH2 0x30AE JUMPI PUSH2 0x30AD PUSH2 0x2A29 JUMP JUMPDEST JUMPDEST PUSH1 0x0 DUP5 ADD CALLDATALOAD PUSH8 0xFFFFFFFFFFFFFFFF DUP2 GT ISZERO PUSH2 0x30CC JUMPI PUSH2 0x30CB PUSH2 0x2A2E JUMP JUMPDEST JUMPDEST PUSH2 0x30D8 DUP7 DUP3 DUP8 ADD PUSH2 0x2CF2 JUMP JUMPDEST SWAP4 POP POP PUSH1 0x20 DUP5 ADD CALLDATALOAD PUSH8 0xFFFFFFFFFFFFFFFF DUP2 GT ISZERO PUSH2 0x30F9 JUMPI PUSH2 0x30F8 PUSH2 0x2A2E JUMP JUMPDEST JUMPDEST PUSH2 0x3105 DUP7 DUP3 DUP8 ADD PUSH2 0x3067 JUMP JUMPDEST SWAP3 POP POP PUSH1 0x40 PUSH2 0x3116 DUP7 DUP3 DUP8 ADD PUSH2 0x2A7C JUMP JUMPDEST SWAP2 POP POP SWAP3 POP SWAP3 POP SWAP3 JUMP JUMPDEST PUSH1 0x0 DUP1 PUSH1 0x0 DUP1 PUSH1 0x0 DUP1 PUSH1 0x0 PUSH1 0xE0 DUP9 DUP11 SUB SLT ISZERO PUSH2 0x313F JUMPI PUSH2 0x313E PUSH2 0x2A29 JUMP JUMPDEST JUMPDEST PUSH1 0x0 PUSH2 0x314D DUP11 DUP3 DUP12 ADD PUSH2 0x2A7C JUMP JUMPDEST SWAP8 POP POP PUSH1 0x20 PUSH2 0x315E DUP11 DUP3 DUP12 ADD PUSH2 0x2A7C JUMP JUMPDEST SWAP7 POP POP PUSH1 0x40 DUP9 ADD CALLDATALOAD PUSH8 0xFFFFFFFFFFFFFFFF DUP2 GT ISZERO PUSH2 0x317F JUMPI PUSH2 0x317E PUSH2 0x2A2E JUMP JUMPDEST JUMPDEST PUSH2 0x318B DUP11 DUP3 DUP12 ADD PUSH2 0x2C3D JUMP JUMPDEST SWAP6 POP POP PUSH1 0x60 DUP9 ADD CALLDATALOAD PUSH8 0xFFFFFFFFFFFFFFFF DUP2 GT ISZERO PUSH2 0x31AC JUMPI PUSH2 0x31AB PUSH2 0x2A2E JUMP JUMPDEST JUMPDEST PUSH2 0x31B8 DUP11 DUP3 DUP12 ADD PUSH2 0x2C3D JUMP JUMPDEST SWAP5 POP POP PUSH1 0x80 PUSH2 0x31C9 DUP11 DUP3 DUP12 ADD PUSH2 0x2EFF JUMP JUMPDEST SWAP4 POP POP PUSH1 0xA0 PUSH2 0x31DA DUP11 DUP3 DUP12 ADD PUSH2 0x2EFF JUMP JUMPDEST SWAP3 POP POP PUSH1 0xC0 DUP9 ADD CALLDATALOAD PUSH8 0xFFFFFFFFFFFFFFFF DUP2 GT ISZERO PUSH2 0x31FB JUMPI PUSH2 0x31FA PUSH2 0x2A2E JUMP JUMPDEST JUMPDEST PUSH2 0x3207 DUP11 DUP3 DUP12 ADD PUSH2 0x2C3D JUMP JUMPDEST SWAP2 POP POP SWAP3 SWAP6 SWAP9 SWAP2 SWAP5 SWAP8 POP SWAP3 SWAP6 POP JUMP JUMPDEST PUSH1 0x0 DUP2 SWAP1 POP SWAP3 SWAP2 POP POP JUMP JUMPDEST PUSH32 0x726F6F7400000000000000000000000000000000000000000000000000000000 PUSH1 0x0 DUP3 ADD MSTORE POP JUMP JUMPDEST PUSH1 0x0 PUSH2 0x3257 PUSH1 0x4 DUP4 PUSH2 0x3216 JUMP JUMPDEST SWAP2 POP PUSH2 0x3262 DUP3 PUSH2 0x3221 JUMP JUMPDEST PUSH1 0x4 DUP3 ADD SWAP1 POP SWAP2 SWAP1 POP JUMP JUMPDEST PUSH1 0x0 PUSH2 0x3278 DUP3 PUSH2 0x324A JUMP JUMPDEST SWAP2 POP DUP2 SWAP1 POP SWAP2 SWAP1 POP JUMP JUMPDEST PUSH32 0x4E487B7100000000000000000000000000000000000000000000000000000000 PUSH1 0x0 MSTORE PUSH1 0x22 PUSH1 0x4 MSTORE PUSH1 0x24 PUSH1 0x0 REVERT JUMPDEST PUSH1 0x0 PUSH1 0x2 DUP3 DIV SWAP1 POP PUSH1 0x1 DUP3 AND DUP1 PUSH2 0x32C9 JUMPI PUSH1 0x7F DUP3 AND SWAP2 POP JUMPDEST PUSH1 0x20 DUP3 LT DUP2 SUB PUSH2 0x32DC JUMPI PUSH2 0x32DB PUSH2 0x3282 JUMP JUMPDEST JUMPDEST POP SWAP2 SWAP1 POP JUMP JUMPDEST PUSH1 0x0 DUP2 SWAP1 POP DUP2 PUSH1 0x0 MSTORE PUSH1 0x20 PUSH1 0x0 KECCAK256 SWAP1 POP SWAP2 SWAP1 POP JUMP JUMPDEST PUSH1 0x0 DUP2 SLOAD PUSH2 0x3304 DUP2 PUSH2 0x32B1 JUMP JUMPDEST PUSH2 0x330E DUP2 DUP7 PUSH2 0x3216 JUMP JUMPDEST SWAP5 POP PUSH1 0x1 DUP3 AND PUSH1 0x0 DUP2 EQ PUSH2 0x3329 JUMPI PUSH1 0x1 DUP2 EQ PUSH2 0x333E JUMPI PUSH2 0x3371 JUMP JUMPDEST PUSH1 0xFF NOT DUP4 AND DUP7 MSTORE DUP2 ISZERO ISZERO DUP3 MUL DUP7 ADD SWAP4 POP PUSH2 0x3371 JUMP JUMPDEST PUSH2 0x3347 DUP6 PUSH2 0x32E2 JUMP JUMPDEST PUSH1 0x0 JUMPDEST DUP4 DUP2 LT ISZERO PUSH2 0x3369 JUMPI DUP2 SLOAD DUP2 DUP10 ADD MSTORE PUSH1 0x1 DUP3 ADD SWAP2 POP PUSH1 0x20 DUP2 ADD SWAP1 POP PUSH2 0x334A JUMP JUMPDEST DUP4 DUP9 ADD SWAP6 POP POP POP JUMPDEST POP POP POP SWAP3 SWAP2 POP POP JUMP JUMPDEST PUSH1 0x0 PUSH2 0x3386 DUP3 DUP5 PUSH2 0x32F7 JUMP JUMPDEST SWAP2 POP DUP2 SWAP1 POP SWAP3 SWAP2 POP POP JUMP JUMPDEST PUSH32 0x5573657220616C726561647920696E697469616C697A65640000000000000000 PUSH1 0x0 DUP3 ADD MSTORE POP JUMP JUMPDEST PUSH1 0x0 PUSH2 0x33C7 PUSH1 0x18 DUP4 PUSH2 0x2D87 JUMP JUMPDEST SWAP2 POP PUSH2 0x33D2 DUP3 PUSH2 0x3391 JUMP JUMPDEST PUSH1 0x20 DUP3 ADD SWAP1 POP SWAP2 SWAP1 POP JUMP JUMPDEST PUSH1 0x0 PUSH1 0x20 DUP3 ADD SWAP1 POP DUP2 DUP2 SUB PUSH1 0x0 DUP4 ADD MSTORE PUSH2 0x33F6 DUP2 PUSH2 0x33BA JUMP JUMPDEST SWAP1 POP SWAP2 SWAP1 POP JUMP JUMPDEST PUSH1 0x0 PUSH1 0x20 PUSH1 0x1F DUP4 ADD DIV SWAP1 POP SWAP2 SWAP1 POP JUMP JUMPDEST PUSH1 0x0 DUP3 DUP3 SHL SWAP1 POP SWAP3 SWAP2 POP POP JUMP JUMPDEST PUSH1 0x0 PUSH1 0x8 DUP4 MUL PUSH2 0x344A PUSH32 0xFFFFFFFFFFFFFFFFFFFFFFFFFFFFFFFFFFFFFFFFFFFFFFFFFFFFFFFFFFFFFFFF DUP3 PUSH2 0x340D JUMP JUMPDEST PUSH2 0x3454 DUP7 DUP4 PUSH2 0x340D JUMP JUMPDEST SWAP6 POP DUP1 NOT DUP5 AND SWAP4 POP DUP1 DUP7 AND DUP5 OR SWAP3 POP POP POP SWAP4 SWAP3 POP POP POP JUMP JUMPDEST PUSH1 0x0 DUP2 SWAP1 POP SWAP2 SWAP1 POP JUMP JUMPDEST PUSH1 0x0 PUSH2 0x3491 PUSH2 0x348C PUSH2 0x3487 DUP5 PUSH2 0x2EDE JUMP JUMPDEST PUSH2 0x346C JUMP JUMPDEST PUSH2 0x2EDE JUMP JUMPDEST SWAP1 POP SWAP2 SWAP1 POP JUMP JUMPDEST PUSH1 0x0 DUP2 SWAP1 POP SWAP2 SWAP1 POP JUMP JUMPDEST PUSH2 0x34AB DUP4 PUSH2 0x3476 JUMP JUMPDEST PUSH2 0x34BF PUSH2 0x34B7 DUP3 PUSH2 0x3498 JUMP JUMPDEST DUP5 DUP5 SLOAD PUSH2 0x341A JUMP JUMPDEST DUP3 SSTORE POP POP POP POP JUMP JUMPDEST PUSH1 0x0 SWAP1 JUMP JUMPDEST PUSH2 0x34D4 PUSH2 0x34C7 JUMP JUMPDEST PUSH2 0x34DF DUP2 DUP5 DUP5 PUSH2 0x34A2 JUMP JUMPDEST POP POP POP JUMP JUMPDEST JUMPDEST DUP2 DUP2 LT ISZERO PUSH2 0x3503 JUMPI PUSH2 0x34F8 PUSH1 0x0 DUP3 PUSH2 0x34CC JUMP JUMPDEST PUSH1 0x1 DUP2 ADD SWAP1 POP PUSH2 0x34E5 JUMP JUMPDEST POP POP JUMP JUMPDEST PUSH1 0x1F DUP3 GT ISZERO PUSH2 0x3548 JUMPI PUSH2 0x3519 DUP2 PUSH2 0x32E2 JUMP JUMPDEST PUSH2 0x3522 DUP5 PUSH2 0x33FD JUMP JUMPDEST DUP2 ADD PUSH1 0x20 DUP6 LT ISZERO PUSH2 0x3531 JUMPI DUP2 SWAP1 POP JUMPDEST PUSH2 0x3545 PUSH2 0x353D DUP6 PUSH2 0x33FD JUMP JUMPDEST DUP4 ADD DUP3 PUSH2 0x34E4 JUMP JUMPDEST POP POP JUMPDEST POP POP POP JUMP JUMPDEST PUSH1 0x0 DUP3 DUP3 SHR SWAP1 POP SWAP3 SWAP2 POP POP JUMP JUMPDEST PUSH1 0x0 PUSH2 0x356B PUSH1 0x0 NOT DUP5 PUSH1 0x8 MUL PUSH2 0x354D JUMP JUMPDEST NOT DUP1 DUP4 AND SWAP2 POP POP SWAP3 SWAP2 POP POP JUMP JUMPDEST PUSH1 0x0 PUSH2 0x3584 DUP4 DUP4 PUSH2 0x355A JUMP JUMPDEST SWAP2 POP DUP3 PUSH1 0x2 MUL DUP3 OR SWAP1 POP SWAP3 SWAP2 POP POP JUMP JUMPDEST PUSH2 0x359D DUP3 PUSH2 0x2D7C JUMP JUMPDEST PUSH8 0xFFFFFFFFFFFFFFFF DUP2 GT ISZERO PUSH2 0x35B6 JUMPI PUSH2 0x35B5 PUSH2 0x2B0A JUMP JUMPDEST JUMPDEST PUSH2 0x35C0 DUP3 SLOAD PUSH2 0x32B1 JUMP JUMPDEST PUSH2 0x35CB DUP3 DUP3 DUP6 PUSH2 0x3507 JUMP JUMPDEST PUSH1 0x0 PUSH1 0x20 SWAP1 POP PUSH1 0x1F DUP4 GT PUSH1 0x1 DUP2 EQ PUSH2 0x35FE JUMPI PUSH1 0x0 DUP5 ISZERO PUSH2 0x35EC JUMPI DUP3 DUP8 ADD MLOAD SWAP1 POP JUMPDEST PUSH2 0x35F6 DUP6 DUP3 PUSH2 0x3578 JUMP JUMPDEST DUP7 SSTORE POP PUSH2 0x365E JUMP JUMPDEST PUSH1 0x1F NOT DUP5 AND PUSH2 0x360C DUP7 PUSH2 0x32E2 JUMP JUMPDEST PUSH1 0x0 JUMPDEST DUP3 DUP2 LT ISZERO PUSH2 0x3634 JUMPI DUP5 DUP10 ADD MLOAD DUP3 SSTORE PUSH1 0x1 DUP3 ADD SWAP2 POP PUSH1 0x20 DUP6 ADD SWAP5 POP PUSH1 0x20 DUP2 ADD SWAP1 POP PUSH2 0x360F JUMP JUMPDEST DUP7 DUP4 LT ISZERO PUSH2 0x3651 JUMPI DUP5 DUP10 ADD MLOAD PUSH2 0x364D PUSH1 0x1F DUP10 AND DUP3 PUSH2 0x355A JUMP JUMPDEST DUP4 SSTORE POP JUMPDEST PUSH1 0x1 PUSH1 0x2 DUP9 MUL ADD DUP9 SSTORE POP POP POP JUMPDEST POP POP POP POP POP POP JUMP JUMPDEST PUSH32 0x5573657220726F6F74206E6F7420696E697469616C697A656400000000000000 PUSH1 0x0 DUP3 ADD MSTORE POP JUMP JUMPDEST PUSH1 0x0 PUSH2 0x369C PUSH1 0x19 DUP4 PUSH2 0x2D87 JUMP JUMPDEST SWAP2 POP PUSH2 0x36A7 DUP3 PUSH2 0x3666 JUMP JUMPDEST PUSH1 0x20 DUP3 ADD SWAP1 POP SWAP2 SWAP1 POP JUMP JUMPDEST PUSH1 0x0 PUSH1 0x20 DUP3 ADD SWAP1 POP DUP2 DUP2 SUB PUSH1 0x0 DUP4 ADD MSTORE PUSH2 0x36CB DUP2 PUSH2 0x368F JUMP JUMPDEST SWAP1 POP SWAP2 SWAP1 POP JUMP JUMPDEST PUSH32 0x4E487B7100000000000000000000000000000000000000000000000000000000 PUSH1 0x0 MSTORE PUSH1 0x32 PUSH1 0x4 MSTORE PUSH1 0x24 PUSH1 0x0 REVERT JUMPDEST PUSH1 0x0 PUSH2 0x370C DUP3 PUSH2 0x2D7C JUMP JUMPDEST PUSH2 0x3716 DUP2 DUP6 PUSH2 0x3216 JUMP JUMPDEST SWAP4 POP PUSH2 0x3726 DUP2 DUP6 PUSH1 0x20 DUP7 ADD PUSH2 0x2D98 JUMP JUMPDEST DUP1 DUP5 ADD SWAP2 POP POP SWAP3 SWAP2 POP POP JUMP JUMPDEST PUSH1 0x0 PUSH2 0x373E DUP3 DUP5 PUSH2 0x3701 JUMP JUMPDEST SWAP2 POP DUP2 SWAP1 POP SWAP3 SWAP2 POP POP JUMP JUMPDEST PUSH32 0x5061746820646F6573206E6F7420657869737400000000000000000000000000 PUSH1 0x0 DUP3 ADD MSTORE POP JUMP JUMPDEST PUSH1 0x0 PUSH2 0x377F PUSH1 0x13 DUP4 PUSH2 0x2D87 JUMP JUMPDEST SWAP2 POP PUSH2 0x378A DUP3 PUSH2 0x3749 JUMP JUMPDEST PUSH1 0x20 DUP3 ADD SWAP1 POP SWAP2 SWAP1 POP JUMP JUMPDEST PUSH1 0x0 PUSH1 0x20 DUP3 ADD SWAP1 POP DUP2 DUP2 SUB PUSH1 0x0 DUP4 ADD MSTORE PUSH2 0x37AE DUP2 PUSH2 0x3772 JUMP JUMPDEST SWAP1 POP SWAP2 SWAP1 POP JUMP JUMPDEST PUSH32 0x7B226E616D65223A220000000000000000000000000000000000000000000000 PUSH1 0x0 DUP3 ADD MSTORE POP JUMP JUMPDEST PUSH1 0x0 PUSH2 0x37EB PUSH1 0x9 DUP4 PUSH2 0x3216 JUMP JUMPDEST SWAP2 POP PUSH2 0x37F6 DUP3 PUSH2 0x37B5 JUMP JUMPDEST PUSH1 0x9 DUP3 ADD SWAP1 POP SWAP2 SWAP1 POP JUMP JUMPDEST PUSH32 0x222C226F776E6572223A22000000000000000000000000000000000000000000 PUSH1 0x0 DUP3 ADD MSTORE POP JUMP JUMPDEST PUSH1 0x0 PUSH2 0x3837 PUSH1 0xB DUP4 PUSH2 0x3216 JUMP JUMPDEST SWAP2 POP PUSH2 0x3842 DUP3 PUSH2 0x3801 JUMP JUMPDEST PUSH1 0xB DUP3 ADD SWAP1 POP SWAP2 SWAP1 POP JUMP JUMPDEST PUSH32 0x222C22637265617465644174223A220000000000000000000000000000000000 PUSH1 0x0 DUP3 ADD MSTORE POP JUMP JUMPDEST PUSH1 0x0 PUSH2 0x3883 PUSH1 0xF DUP4 PUSH2 0x3216 JUMP JUMPDEST SWAP2 POP PUSH2 0x388E DUP3 PUSH2 0x384D JUMP JUMPDEST PUSH1 0xF DUP3 ADD SWAP1 POP SWAP2 SWAP1 POP JUMP JUMPDEST PUSH32 0x2200000000000000000000000000000000000000000000000000000000000000 PUSH1 0x0 DUP3 ADD MSTORE POP JUMP JUMPDEST PUSH1 0x0 PUSH2 0x38CF PUSH1 0x1 DUP4 PUSH2 0x3216 JUMP JUMPDEST SWAP2 POP PUSH2 0x38DA DUP3 PUSH2 0x3899 JUMP JUMPDEST PUSH1 0x1 DUP3 ADD SWAP1 POP SWAP2 SWAP1 POP JUMP JUMPDEST PUSH1 0x0 PUSH2 0x38F0 DUP3 PUSH2 0x37DE JUMP JUMPDEST SWAP2 POP PUSH2 0x38FC DUP3 DUP7 PUSH2 0x32F7 JUMP JUMPDEST SWAP2 POP PUSH2 0x3907 DUP3 PUSH2 0x382A JUMP JUMPDEST SWAP2 POP PUSH2 0x3913 DUP3 DUP6 PUSH2 0x3701 JUMP JUMPDEST SWAP2 POP PUSH2 0x391E DUP3 PUSH2 0x3876 JUMP JUMPDEST SWAP2 POP PUSH2 0x392A DUP3 DUP5 PUSH2 0x3701 JUMP JUMPDEST SWAP2 POP PUSH2 0x3935 DUP3 PUSH2 0x38C2 JUMP JUMPDEST SWAP2 POP DUP2 SWAP1 POP SWAP5 SWAP4 POP POP POP POP JUMP JUMPDEST PUSH32 0x2C2266696C6573223A5B00000000000000000000000000000000000000000000 PUSH1 0x0 DUP3 ADD MSTORE POP JUMP JUMPDEST PUSH1 0x0 PUSH2 0x3978 PUSH1 0xA DUP4 PUSH2 0x3216 JUMP JUMPDEST SWAP2 POP PUSH2 0x3983 DUP3 PUSH2 0x3942 JUMP JUMPDEST PUSH1 0xA DUP3 ADD SWAP1 POP SWAP2 SWAP1 POP JUMP JUMPDEST PUSH1 0x0 PUSH2 0x399A DUP3 DUP5 PUSH2 0x3701 JUMP JUMPDEST SWAP2 POP PUSH2 0x39A5 DUP3 PUSH2 0x396B JUMP JUMPDEST SWAP2 POP DUP2 SWAP1 POP SWAP3 SWAP2 POP POP JUMP JUMPDEST PUSH32 0x222C22636964223A220000000000000000000000000000000000000000000000 PUSH1 0x0 DUP3 ADD MSTORE POP JUMP JUMPDEST PUSH1 0x0 PUSH2 0x39E6 PUSH1 0x9 DUP4 PUSH2 0x3216 JUMP JUMPDEST SWAP2 POP PUSH2 0x39F1 DUP3 PUSH2 0x39B0 JUMP JUMPDEST PUSH1 0x9 DUP3 ADD SWAP1 POP SWAP2 SWAP1 POP JUMP JUMPDEST PUSH32 0x222C2273697A65223A2200000000000000000000000000000000000000000000 PUSH1 0x0 DUP3 ADD MSTORE POP JUMP JUMPDEST PUSH1 0x0 PUSH2 0x3A32 PUSH1 0xA DUP4 PUSH2 0x3216 JUMP JUMPDEST SWAP2 POP PUSH2 0x3A3D DUP3 PUSH2 0x39FC JUMP JUMPDEST PUSH1 0xA DUP3 ADD SWAP1 POP SWAP2 SWAP1 POP JUMP JUMPDEST PUSH32 0x222C2266696C6554797065223A22000000000000000000000000000000000000 PUSH1 0x0 DUP3 ADD MSTORE POP JUMP JUMPDEST PUSH1 0x0 PUSH2 0x3A7E PUSH1 0xE DUP4 PUSH2 0x3216 JUMP JUMPDEST SWAP2 POP PUSH2 0x3A89 DUP3 PUSH2 0x3A48 JUMP JUMPDEST PUSH1 0xE DUP3 ADD SWAP1 POP SWAP2 SWAP1 POP JUMP JUMPDEST PUSH32 0x227D000000000000000000000000000000000000000000000000000000000000 PUSH1 0x0 DUP3 ADD MSTORE POP JUMP JUMPDEST PUSH1 0x0 PUSH2 0x3ACA PUSH1 0x2 DUP4 PUSH2 0x3216 JUMP JUMPDEST SWAP2 POP PUSH2 0x3AD5 DUP3 PUSH2 0x3A94 JUMP JUMPDEST PUSH1 0x2 DUP3 ADD SWAP1 POP SWAP2 SWAP1 POP JUMP JUMPDEST PUSH1 0x0 PUSH2 0x3AEC DUP3 DUP11 PUSH2 0x3701 JUMP JUMPDEST SWAP2 POP PUSH2 0x3AF7 DUP3 PUSH2 0x37DE JUMP JUMPDEST SWAP2 POP PUSH2 0x3B03 DUP3 DUP10 PUSH2 0x32F7 JUMP JUMPDEST SWAP2 POP PUSH2 0x3B0E DUP3 PUSH2 0x39D9 JUMP JUMPDEST SWAP2 POP PUSH2 0x3B1A DUP3 DUP9 PUSH2 0x32F7 JUMP JUMPDEST SWAP2 POP PUSH2 0x3B25 DUP3 PUSH2 0x3A25 JUMP JUMPDEST SWAP2 POP PUSH2 0x3B31 DUP3 DUP8 PUSH2 0x3701 JUMP JUMPDEST SWAP2 POP PUSH2 0x3B3C DUP3 PUSH2 0x3876 JUMP JUMPDEST SWAP2 POP PUSH2 0x3B48 DUP3 DUP7 PUSH2 0x3701 JUMP JUMPDEST SWAP2 POP PUSH2 0x3B53 DUP3 PUSH2 0x382A JUMP JUMPDEST SWAP2 POP PUSH2 0x3B5F DUP3 DUP6 PUSH2 0x3701 JUMP JUMPDEST SWAP2 POP PUSH2 0x3B6A DUP3 PUSH2 0x3A71 JUMP JUMPDEST SWAP2 POP PUSH2 0x3B76 DUP3 DUP5 PUSH2 0x32F7 JUMP JUMPDEST SWAP2 POP PUSH2 0x3B81 DUP3 PUSH2 0x3ABD JUMP JUMPDEST SWAP2 POP DUP2 SWAP1 POP SWAP9 SWAP8 POP POP POP POP POP POP POP POP JUMP JUMPDEST PUSH32 0x4E487B7100000000000000000000000000000000000000000000000000000000 PUSH1 0x0 MSTORE PUSH1 0x11 PUSH1 0x4 MSTORE PUSH1 0x24 PUSH1 0x0 REVERT JUMPDEST PUSH1 0x0 PUSH2 0x3BCC DUP3 PUSH2 0x2EDE JUMP JUMPDEST SWAP2 POP PUSH2 0x3BD7 DUP4 PUSH2 0x2EDE JUMP JUMPDEST SWAP3 POP DUP3 DUP3 SUB SWAP1 POP DUP2 DUP2 GT ISZERO PUSH2 0x3BEF JUMPI PUSH2 0x3BEE PUSH2 0x3B92 JUMP JUMPDEST JUMPDEST SWAP3 SWAP2 POP POP JUMP JUMPDEST PUSH32 0x2C00000000000000000000000000000000000000000000000000000000000000 PUSH1 0x0 DUP3 ADD MSTORE POP JUMP JUMPDEST PUSH1 0x0 PUSH2 0x3C2B PUSH1 0x1 DUP4 PUSH2 0x3216 JUMP JUMPDEST SWAP2 POP PUSH2 0x3C36 DUP3 PUSH2 0x3BF5 JUMP JUMPDEST PUSH1 0x1 DUP3 ADD SWAP1 POP SWAP2 SWAP1 POP JUMP JUMPDEST PUSH1 0x0 PUSH2 0x3C4D DUP3 DUP5 PUSH2 0x3701 JUMP JUMPDEST SWAP2 POP PUSH2 0x3C58 DUP3 PUSH2 0x3C1E JUMP JUMPDEST SWAP2 POP DUP2 SWAP1 POP SWAP3 SWAP2 POP POP JUMP JUMPDEST PUSH32 0x5D00000000000000000000000000000000000000000000000000000000000000 PUSH1 0x0 DUP3 ADD MSTORE POP JUMP JUMPDEST PUSH1 0x0 PUSH2 0x3C99 PUSH1 0x1 DUP4 PUSH2 0x3216 JUMP JUMPDEST SWAP2 POP PUSH2 0x3CA4 DUP3 PUSH2 0x3C63 JUMP JUMPDEST PUSH1 0x1 DUP3 ADD SWAP1 POP SWAP2 SWAP1 POP JUMP JUMPDEST PUSH1 0x0 PUSH2 0x3CBB DUP3 DUP5 PUSH2 0x3701 JUMP JUMPDEST SWAP2 POP PUSH2 0x3CC6 DUP3 PUSH2 0x3C8C JUMP JUMPDEST SWAP2 POP DUP2 SWAP1 POP SWAP3 SWAP2 POP POP JUMP JUMPDEST PUSH32 0x2C22666F6C64657273223A5B0000000000000000000000000000000000000000 PUSH1 0x0 DUP3 ADD MSTORE POP JUMP JUMPDEST PUSH1 0x0 PUSH2 0x3D07 PUSH1 0xC DUP4 PUSH2 0x3216 JUMP JUMPDEST SWAP2 POP PUSH2 0x3D12 DUP3 PUSH2 0x3CD1 JUMP JUMPDEST PUSH1 0xC DUP3 ADD SWAP1 POP SWAP2 SWAP1 POP JUMP JUMPDEST PUSH1 0x0 PUSH2 0x3D29 DUP3 DUP5 PUSH2 0x3701 JUMP JUMPDEST SWAP2 POP PUSH2 0x3D34 DUP3 PUSH2 0x3CFA JUMP JUMPDEST SWAP2 POP DUP2 SWAP1 POP SWAP3 SWAP2 POP POP JUMP JUMPDEST PUSH1 0x0 PUSH2 0x3D4B DUP3 DUP8 PUSH2 0x3701 JUMP JUMPDEST SWAP2 POP PUSH2 0x3D56 DUP3 PUSH2 0x37DE JUMP JUMPDEST SWAP2 POP PUSH2 0x3D62 DUP3 DUP7 PUSH2 0x32F7 JUMP JUMPDEST SWAP2 POP PUSH2 0x3D6D DUP3 PUSH2 0x382A JUMP JUMPDEST SWAP2 POP PUSH2 0x3D79 DUP3 DUP6 PUSH2 0x3701 JUMP JUMPDEST SWAP2 POP PUSH2 0x3D84 DUP3 PUSH2 0x3876 JUMP JUMPDEST SWAP2 POP PUSH2 0x3D90 DUP3 DUP5 PUSH2 0x3701 JUMP JUMPDEST SWAP2 POP PUSH2 0x3D9B DUP3 PUSH2 0x3ABD JUMP JUMPDEST SWAP2 POP DUP2 SWAP1 POP SWAP6 SWAP5 POP POP POP POP POP JUMP JUMPDEST PUSH32 0x7D00000000000000000000000000000000000000000000000000000000000000 PUSH1 0x0 DUP3 ADD MSTORE POP JUMP JUMPDEST PUSH1 0x0 PUSH2 0x3DDF PUSH1 0x1 DUP4 PUSH2 0x3216 JUMP JUMPDEST SWAP2 POP PUSH2 0x3DEA DUP3 PUSH2 0x3DA9 JUMP JUMPDEST PUSH1 0x1 DUP3 ADD SWAP1 POP SWAP2 SWAP1 POP JUMP JUMPDEST PUSH1 0x0 PUSH2 0x3E01 DUP3 DUP5 PUSH2 0x3701 JUMP JUMPDEST SWAP2 POP PUSH2 0x3E0C DUP3 PUSH2 0x3DD2 JUMP JUMPDEST SWAP2 POP DUP2 SWAP1 POP SWAP3 SWAP2 POP POP JUMP JUMPDEST PUSH32 0x5061746820646F6573206E6F7420657869737420617420696E64657820000000 PUSH1 0x0 DUP3 ADD MSTORE POP JUMP JUMPDEST PUSH1 0x0 PUSH2 0x3E4D PUSH1 0x1D DUP4 PUSH2 0x3216 JUMP JUMPDEST SWAP2 POP PUSH2 0x3E58 DUP3 PUSH2 0x3E17 JUMP JUMPDEST PUSH1 0x1D DUP3 ADD SWAP1 POP SWAP2 SWAP1 POP JUMP JUMPDEST PUSH1 0x0 PUSH2 0x3E6E DUP3 PUSH2 0x3E40 JUMP JUMPDEST SWAP2 POP PUSH2 0x3E7A DUP3 DUP5 PUSH2 0x3701 JUMP JUMPDEST SWAP2 POP DUP2 SWAP1 POP SWAP3 SWAP2 POP POP JUMP JUMPDEST PUSH1 0x0 PUSH2 0x3E90 DUP3 PUSH2 0x2EDE JUMP JUMPDEST SWAP2 POP PUSH2 0x3E9B DUP4 PUSH2 0x2EDE JUMP JUMPDEST SWAP3 POP DUP3 DUP3 ADD SWAP1 POP DUP1 DUP3 GT ISZERO PUSH2 0x3EB3 JUMPI PUSH2 0x3EB2 PUSH2 0x3B92 JUMP JUMPDEST JUMPDEST SWAP3 SWAP2 POP POP JUMP JUMPDEST PUSH1 0x0 DUP2 SLOAD SWAP1 POP PUSH2 0x3EC8 DUP2 PUSH2 0x32B1 JUMP JUMPDEST SWAP1 POP SWAP2 SWAP1 POP JUMP JUMPDEST DUP2 DUP2 SUB PUSH2 0x3EDD JUMPI POP POP PUSH2 0x3FB5 JUMP JUMPDEST PUSH2 0x3EE6 DUP3 PUSH2 0x3EB9 JUMP JUMPDEST PUSH8 0xFFFFFFFFFFFFFFFF DUP2 GT ISZERO PUSH2 0x3EFF JUMPI PUSH2 0x3EFE PUSH2 0x2B0A JUMP JUMPDEST JUMPDEST PUSH2 0x3F09 DUP3 SLOAD PUSH2 0x32B1 JUMP JUMPDEST PUSH2 0x3F14 DUP3 DUP3 DUP6 PUSH2 0x3507 JUMP JUMPDEST PUSH1 0x0 PUSH1 0x1F DUP4 GT PUSH1 0x1 DUP2 EQ PUSH2 0x3F43 JUMPI PUSH1 0x0 DUP5 ISZERO PUSH2 0x3F31 JUMPI DUP3 DUP8 ADD SLOAD SWAP1 POP JUMPDEST PUSH2 0x3F3B DUP6 DUP3 PUSH2 0x3578 JUMP JUMPDEST DUP7 SSTORE POP PUSH2 0x3FAE JUMP JUMPDEST PUSH1 0x1F NOT DUP5 AND PUSH2 0x3F51 DUP8 PUSH2 0x32E2 JUMP JUMPDEST SWAP7 POP PUSH2 0x3F5C DUP7 PUSH2 0x32E2 JUMP JUMPDEST PUSH1 0x0 JUMPDEST DUP3 DUP2 LT ISZERO PUSH2 0x3F84 JUMPI DUP5 DUP10 ADD SLOAD DUP3 SSTORE PUSH1 0x1 DUP3 ADD SWAP2 POP PUSH1 0x1 DUP6 ADD SWAP5 POP PUSH1 0x20 DUP2 ADD SWAP1 POP PUSH2 0x3F5F JUMP JUMPDEST DUP7 DUP4 LT ISZERO PUSH2 0x3FA1 JUMPI DUP5 DUP10 ADD SLOAD PUSH2 0x3F9D PUSH1 0x1F DUP10 AND DUP3 PUSH2 0x355A JUMP JUMPDEST DUP4 SSTORE POP JUMPDEST PUSH1 0x1 PUSH1 0x2 DUP9 MUL ADD DUP9 SSTORE POP POP POP JUMPDEST POP POP POP POP POP POP JUMPDEST JUMP JUMPDEST PUSH32 0x4E487B7100000000000000000000000000000000000000000000000000000000 PUSH1 0x0 MSTORE PUSH1 0x31 PUSH1 0x4 MSTORE PUSH1 0x24 PUSH1 0x0 REVERT JUMPDEST PUSH32 0x466F6C64657220646F6573206E6F742065786973740000000000000000000000 PUSH1 0x0 DUP3 ADD MSTORE POP JUMP JUMPDEST PUSH1 0x0 PUSH2 0x401C PUSH1 0x15 DUP4 PUSH2 0x2D87 JUMP JUMPDEST SWAP2 POP PUSH2 0x4027 DUP3 PUSH2 0x3FE6 JUMP JUMPDEST PUSH1 0x20 DUP3 ADD SWAP1 POP SWAP2 SWAP1 POP JUMP JUMPDEST PUSH1 0x0 PUSH1 0x20 DUP3 ADD SWAP1 POP DUP2 DUP2 SUB PUSH1 0x0 DUP4 ADD MSTORE PUSH2 0x404B DUP2 PUSH2 0x400F JUMP JUMPDEST SWAP1 POP SWAP2 SWAP1 POP JUMP JUMPDEST PUSH32 0x222C22746F223A22000000000000000000000000000000000000000000000000 PUSH1 0x0 DUP3 ADD MSTORE POP JUMP JUMPDEST PUSH1 0x0 PUSH2 0x4088 PUSH1 0x8 DUP4 PUSH2 0x3216 JUMP JUMPDEST SWAP2 POP PUSH2 0x4093 DUP3 PUSH2 0x4052 JUMP JUMPDEST PUSH1 0x8 DUP3 ADD SWAP1 POP SWAP2 SWAP1 POP JUMP JUMPDEST PUSH1 0x0 PUSH2 0x40A9 DUP3 PUSH2 0x37DE JUMP JUMPDEST SWAP2 POP PUSH2 0x40B5 DUP3 DUP10 PUSH2 0x32F7 JUMP JUMPDEST SWAP2 POP PUSH2 0x40C0 DUP3 PUSH2 0x382A JUMP JUMPDEST SWAP2 POP PUSH2 0x40CC DUP3 DUP9 PUSH2 0x3701 JUMP JUMPDEST SWAP2 POP PUSH2 0x40D7 DUP3 PUSH2 0x3876 JUMP JUMPDEST SWAP2 POP PUSH2 0x40E3 DUP3 DUP8 PUSH2 0x3701 JUMP JUMPDEST SWAP2 POP PUSH2 0x40EE DUP3 PUSH2 0x407B JUMP JUMPDEST SWAP2 POP PUSH2 0x40FA DUP3 DUP7 PUSH2 0x3701 JUMP JUMPDEST SWAP2 POP PUSH2 0x4105 DUP3 PUSH2 0x39D9 JUMP JUMPDEST SWAP2 POP PUSH2 0x4111 DUP3 DUP6 PUSH2 0x32F7 JUMP JUMPDEST SWAP2 POP PUSH2 0x411C DUP3 PUSH2 0x3A71 JUMP JUMPDEST SWAP2 POP PUSH2 0x4128 DUP3 DUP5 PUSH2 0x32F7 JUMP JUMPDEST SWAP2 POP PUSH2 0x4133 DUP3 PUSH2 0x3ABD JUMP JUMPDEST SWAP2 POP DUP2 SWAP1 POP SWAP8 SWAP7 POP POP POP POP POP POP POP JUMP JUMPDEST PUSH1 0x0 PUSH2 0x414F DUP3 DUP6 PUSH2 0x3701 JUMP JUMPDEST SWAP2 POP PUSH2 0x415B DUP3 DUP5 PUSH2 0x3701 JUMP JUMPDEST SWAP2 POP DUP2 SWAP1 POP SWAP4 SWAP3 POP POP POP JUMP JUMPDEST PUSH32 0x7B22736861726564546F50656F706C65223A0000000000000000000000000000 PUSH1 0x0 DUP3 ADD MSTORE POP JUMP JUMPDEST PUSH1 0x0 PUSH2 0x419D PUSH1 0x12 DUP4 PUSH2 0x3216 JUMP JUMPDEST SWAP2 POP PUSH2 0x41A8 DUP3 PUSH2 0x4167 JUMP JUMPDEST PUSH1 0x12 DUP3 ADD SWAP1 POP SWAP2 SWAP1 POP JUMP JUMPDEST PUSH32 0x2C22736861726564576974684D65223A00000000000000000000000000000000 PUSH1 0x0 DUP3 ADD MSTORE POP JUMP JUMPDEST PUSH1 0x0 PUSH2 0x41E9 PUSH1 0x10 DUP4 PUSH2 0x3216 JUMP JUMPDEST SWAP2 POP PUSH2 0x41F4 DUP3 PUSH2 0x41B3 JUMP JUMPDEST PUSH1 0x10 DUP3 ADD SWAP1 POP SWAP2 SWAP1 POP JUMP JUMPDEST PUSH1 0x0 PUSH2 0x420A DUP3 PUSH2 0x4190 JUMP JUMPDEST SWAP2 POP PUSH2 0x4216 DUP3 DUP6 PUSH2 0x3701 JUMP JUMPDEST SWAP2 POP PUSH2 0x4221 DUP3 PUSH2 0x41DC JUMP JUMPDEST SWAP2 POP PUSH2 0x422D DUP3 DUP5 PUSH2 0x3701 JUMP JUMPDEST SWAP2 POP PUSH2 0x4238 DUP3 PUSH2 0x3DD2 JUMP JUMPDEST SWAP2 POP DUP2 SWAP1 POP SWAP4 SWAP3 POP POP POP JUMP JUMPDEST PUSH32 0x46696C6520646F6573206E6F7420657869737400000000000000000000000000 PUSH1 0x0 DUP3 ADD MSTORE POP JUMP JUMPDEST PUSH1 0x0 PUSH2 0x427A PUSH1 0x13 DUP4 PUSH2 0x2D87 JUMP JUMPDEST SWAP2 POP PUSH2 0x4285 DUP3 PUSH2 0x4244 JUMP JUMPDEST PUSH1 0x20 DUP3 ADD SWAP1 POP SWAP2 SWAP1 POP JUMP JUMPDEST PUSH1 0x0 PUSH1 0x20 DUP3 ADD SWAP1 POP DUP2 DUP2 SUB PUSH1 0x0 DUP4 ADD MSTORE PUSH2 0x42A9 DUP2 PUSH2 0x426D JUMP JUMPDEST SWAP1 POP SWAP2 SWAP1 POP JUMP JUMPDEST PUSH1 0x0 PUSH2 0x42BB DUP3 PUSH2 0x2EDE JUMP JUMPDEST SWAP2 POP PUSH2 0x42C6 DUP4 PUSH2 0x2EDE JUMP JUMPDEST SWAP3 POP DUP3 DUP3 MUL PUSH2 0x42D4 DUP2 PUSH2 0x2EDE JUMP JUMPDEST SWAP2 POP DUP3 DUP3 DIV DUP5 EQ DUP4 ISZERO OR PUSH2 0x42EB JUMPI PUSH2 0x42EA PUSH2 0x3B92 JUMP JUMPDEST JUMPDEST POP SWAP3 SWAP2 POP POP JUMP JUMPDEST PUSH1 0x0 PUSH2 0x42FD DUP3 PUSH2 0x2EDE JUMP JUMPDEST SWAP2 POP PUSH32 0xFFFFFFFFFFFFFFFFFFFFFFFFFFFFFFFFFFFFFFFFFFFFFFFFFFFFFFFFFFFFFFFF DUP3 SUB PUSH2 0x432F JUMPI PUSH2 0x432E PUSH2 0x3B92 JUMP JUMPDEST JUMPDEST PUSH1 0x1 DUP3 ADD SWAP1 POP SWAP2 SWAP1 POP JUMP JUMPDEST PUSH32 0x4E487B7100000000000000000000000000000000000000000000000000000000 PUSH1 0x0 MSTORE PUSH1 0x12 PUSH1 0x4 MSTORE PUSH1 0x24 PUSH1 0x0 REVERT JUMPDEST PUSH1 0x0 PUSH2 0x4374 DUP3 PUSH2 0x2EDE JUMP JUMPDEST SWAP2 POP PUSH2 0x437F DUP4 PUSH2 0x2EDE JUMP JUMPDEST SWAP3 POP DUP3 PUSH2 0x438F JUMPI PUSH2 0x438E PUSH2 0x433A JUMP JUMPDEST JUMPDEST DUP3 DUP3 DIV SWAP1 POP SWAP3 SWAP2 POP POP JUMP JUMPDEST PUSH1 0x0 PUSH1 0xFF DUP3 AND SWAP1 POP SWAP2 SWAP1 POP JUMP JUMPDEST PUSH1 0x0 PUSH2 0x43B2 DUP3 PUSH2 0x439A JUMP JUMPDEST SWAP2 POP PUSH2 0x43BD DUP4 PUSH2 0x439A JUMP JUMPDEST SWAP3 POP DUP3 DUP3 ADD SWAP1 POP PUSH1 0xFF DUP2 GT ISZERO PUSH2 0x43D6 JUMPI PUSH2 0x43D5 PUSH2 0x3B92 JUMP JUMPDEST JUMPDEST SWAP3 SWAP2 POP POP JUMP INVALID LOG2 PUSH5 0x6970667358 0x22 SLT KECCAK256 0xE9 0xE3 0xAF CALLER LOG3 PUSH3 0x910D5A PUSH12 0x3DE3D4DD528E349587B6C355 0xC6 0xD4 RETURNDATACOPY 0xB4 SWAP9 ISZERO PUSH13 0x52B26C64736F6C634300081800 CALLER "
        },
        "methodIdentifiers": {
          "checkUserRoot(address)": "d9ec2719",
          "createFiles(string[],(string,string,uint256,string)[],address)": "4ee37c28",
          "createFolder(string[],string,address)": "cc6cd16f",
          "deleteFile(string[],string,address)": "e7465d7b",
          "deleteFolder(string[],string,address)": "39cf4df2",
          "getFolderData(string[],address)": "140af0e2",
          "getSharedData(address)": "62bfa014",
          "giveFileAccess(address,address,string,string,uint256,uint256,string)": "cbcba28c",
          "initUserRoot(address)": "01496b84"
        }
      }
    }
  }
}