{
  "contracts/Lock.sol": {
    "Lock": {
      "abi": [
        {
          "inputs": [],
          "stateMutability": "nonpayable",
          "type": "constructor"
        },
        {
          "inputs": [],
          "name": "checkUserRootExists",
          "outputs": [
            {
              "internalType": "string",
              "name": "",
              "type": "string"
            }
          ],
          "stateMutability": "view",
          "type": "function"
        },
        {
          "inputs": [
            {
              "internalType": "string[]",
              "name": "path",
              "type": "string[]"
            },
            {
              "internalType": "string",
              "name": "folderName",
              "type": "string"
            }
          ],
          "name": "createFolder",
          "outputs": [],
          "stateMutability": "nonpayable",
          "type": "function"
        },
        {
          "inputs": [
            {
              "internalType": "string[]",
              "name": "path",
              "type": "string[]"
            },
            {
              "internalType": "string",
              "name": "itemName",
              "type": "string"
            }
          ],
          "name": "deleteItem",
          "outputs": [],
          "stateMutability": "nonpayable",
          "type": "function"
        },
        {
          "inputs": [
            {
              "internalType": "string[]",
              "name": "path",
              "type": "string[]"
            }
          ],
          "name": "getFolderData",
          "outputs": [
            {
              "components": [
                {
                  "internalType": "string",
                  "name": "name",
                  "type": "string"
                },
                {
                  "internalType": "uint256",
                  "name": "createdAt",
                  "type": "uint256"
                },
                {
                  "components": [
                    {
                      "internalType": "string",
                      "name": "name",
                      "type": "string"
                    },
                    {
                      "internalType": "string",
                      "name": "cid",
                      "type": "string"
                    },
                    {
                      "internalType": "uint256",
                      "name": "size",
                      "type": "uint256"
                    },
                    {
                      "internalType": "string",
                      "name": "fileType",
                      "type": "string"
                    },
                    {
                      "internalType": "uint256",
                      "name": "createdAt",
                      "type": "uint256"
                    }
                  ],
                  "internalType": "struct Lock.FileInfo[]",
                  "name": "files",
                  "type": "tuple[]"
                },
                {
                  "internalType": "string[]",
                  "name": "subFolderNames",
                  "type": "string[]"
                },
                {
                  "components": [
                    {
                      "internalType": "string",
                      "name": "name",
                      "type": "string"
                    },
                    {
                      "internalType": "string",
                      "name": "cid",
                      "type": "string"
                    },
                    {
                      "internalType": "uint256",
                      "name": "size",
                      "type": "uint256"
                    },
                    {
                      "internalType": "string",
                      "name": "fileType",
                      "type": "string"
                    },
                    {
                      "internalType": "uint256",
                      "name": "createdAt",
                      "type": "uint256"
                    }
                  ],
                  "internalType": "struct Lock.FileInfo[]",
                  "name": "sharedWithMe",
                  "type": "tuple[]"
                }
              ],
              "internalType": "struct Lock.FolderInfo",
              "name": "",
              "type": "tuple"
            }
          ],
          "stateMutability": "view",
          "type": "function"
        },
        {
          "inputs": [],
          "name": "getSharedWithMeFiles",
          "outputs": [
            {
              "components": [
                {
                  "internalType": "string",
                  "name": "name",
                  "type": "string"
                },
                {
                  "internalType": "string",
                  "name": "cid",
                  "type": "string"
                },
                {
                  "internalType": "uint256",
                  "name": "size",
                  "type": "uint256"
                },
                {
                  "internalType": "string",
                  "name": "fileType",
                  "type": "string"
                },
                {
                  "internalType": "uint256",
                  "name": "createdAt",
                  "type": "uint256"
                }
              ],
              "internalType": "struct Lock.FileInfo[]",
              "name": "",
              "type": "tuple[]"
            }
          ],
          "stateMutability": "view",
          "type": "function"
        },
        {
          "inputs": [],
          "name": "initializeUserRoot",
          "outputs": [
            {
              "internalType": "string",
              "name": "",
              "type": "string"
            }
          ],
          "stateMutability": "nonpayable",
          "type": "function"
        },
        {
          "inputs": [
            {
              "internalType": "string[]",
              "name": "path",
              "type": "string[]"
            },
            {
              "internalType": "string",
              "name": "fileName",
              "type": "string"
            },
            {
              "internalType": "address",
              "name": "recipient",
              "type": "address"
            }
          ],
          "name": "shareFileWithUser",
          "outputs": [],
          "stateMutability": "nonpayable",
          "type": "function"
        },
        {
          "inputs": [
            {
              "internalType": "string[]",
              "name": "path",
              "type": "string[]"
            },
            {
              "internalType": "string",
              "name": "fileName",
              "type": "string"
            },
            {
              "internalType": "string",
              "name": "newCid",
              "type": "string"
            },
            {
              "internalType": "uint256",
              "name": "newSize",
              "type": "uint256"
            },
            {
              "internalType": "string",
              "name": "newFileName",
              "type": "string"
            },
            {
              "internalType": "string",
              "name": "newFileType",
              "type": "string"
            }
          ],
          "name": "updateFile",
          "outputs": [],
          "stateMutability": "nonpayable",
          "type": "function"
        },
        {
          "inputs": [
            {
              "internalType": "string[]",
              "name": "path",
              "type": "string[]"
            },
            {
              "internalType": "string",
              "name": "fileName",
              "type": "string"
            },
            {
              "internalType": "string",
              "name": "cid",
              "type": "string"
            },
            {
              "internalType": "uint256",
              "name": "size",
              "type": "uint256"
            },
            {
              "internalType": "string",
              "name": "fileType",
              "type": "string"
            }
          ],
          "name": "uploadFile",
          "outputs": [],
          "stateMutability": "nonpayable",
          "type": "function"
        }
      ],
      "evm": {
        "bytecode": {
          "linkReferences": {},
          "object": "60806040523480156200001157600080fd5b5062000023336200002960201b60201c565b620004be565b60008060008373ffffffffffffffffffffffffffffffffffffffff1673ffffffffffffffffffffffffffffffffffffffff168152602001908152602001600020600001805462000079906200018c565b9050036200015a5760008060008373ffffffffffffffffffffffffffffffffffffffff1673ffffffffffffffffffffffffffffffffffffffff16815260200190815260200160002090506040518060400160405280600881526020017f4d792053706163650000000000000000000000000000000000000000000000008152508160000190816200010b9190620003d7565b50818160010160006101000a81548173ffffffffffffffffffffffffffffffffffffffff021916908373ffffffffffffffffffffffffffffffffffffffff160217905550428160020181905550505b50565b7f4e487b7100000000000000000000000000000000000000000000000000000000600052602260045260246000fd5b60006002820490506001821680620001a557607f821691505b602082108103620001bb57620001ba6200015d565b5b50919050565b600081519050919050565b7f4e487b7100000000000000000000000000000000000000000000000000000000600052604160045260246000fd5b60008190508160005260206000209050919050565b60006020601f8301049050919050565b600082821b905092915050565b6000600883026200025f7fffffffffffffffffffffffffffffffffffffffffffffffffffffffffffffffff8262000220565b6200026b868362000220565b95508019841693508086168417925050509392505050565b6000819050919050565b6000819050919050565b6000620002b8620002b2620002ac8462000283565b6200028d565b62000283565b9050919050565b6000819050919050565b620002d48362000297565b620002ec620002e382620002bf565b8484546200022d565b825550505050565b600090565b62000303620002f4565b62000310818484620002c9565b505050565b5b8181101562000338576200032c600082620002f9565b60018101905062000316565b5050565b601f82111562000387576200035181620001fb565b6200035c8462000210565b810160208510156200036c578190505b620003846200037b8562000210565b83018262000315565b50505b505050565b600082821c905092915050565b6000620003ac600019846008026200038c565b1980831691505092915050565b6000620003c7838362000399565b9150826002028217905092915050565b620003e282620001c1565b67ffffffffffffffff811115620003fe57620003fd620001cc565b5b6200040a82546200018c565b620004178282856200033c565b600060209050601f8311600181146200044f57600084156200043a578287015190505b620004468582620003b9565b865550620004b6565b601f1984166200045f86620001fb565b60005b82811015620004895784890151825560018201915060208501945060208101905062000462565b86831015620004a95784890151620004a5601f89168262000399565b8355505b6001600288020188555050505b505050505050565b6137f380620004ce6000396000f3fe608060405234801561001057600080fd5b50600436106100935760003560e01c8063e01adc0511610066578063e01adc0514610120578063e75c50511461013e578063eff9f64f1461015a578063f5ded10b14610176578063f7da18c81461019257610093565b8063243a658d1461009857806337db6c1a146100b6578063c905819b146100d4578063d3780e1014610104575b600080fd5b6100a06101ae565b6040516100ad91906123ee565b60405180910390f35b6100be610493565b6040516100cb919061245a565b60405180910390f35b6100ee60048036038101906100e991906126ab565b610563565b6040516100fb91906128c7565b60405180910390f35b61011e600480360381019061011991906128e9565b6106a0565b005b6101286109ff565b604051610135919061245a565b60405180910390f35b610158600480360381019061015391906128e9565b610ad8565b005b610174600480360381019061016f919061298d565b610d1c565b005b610190600480360381019061018b9190612b04565b6111b7565b005b6101ac60048036038101906101a79190612b8f565b611425565b005b606060008060003373ffffffffffffffffffffffffffffffffffffffff1673ffffffffffffffffffffffffffffffffffffffff16815260200190815260200160002090506000816006018054905067ffffffffffffffff81111561021557610214612495565b5b60405190808252806020026020018201604052801561024e57816020015b61023b61205d565b8152602001906001900390816102335790505b50905060005b826006018054905081101561048a57600083600601828154811061027b5761027a612c7a565b5b906000526020600020906006020190506040518060a001604052808260000180546102a590612cd8565b80601f01602080910402602001604051908101604052809291908181526020018280546102d190612cd8565b801561031e5780601f106102f35761010080835404028352916020019161031e565b820191906000526020600020905b81548152906001019060200180831161030157829003601f168201915b5050505050815260200182600101805461033790612cd8565b80601f016020809104026020016040519081016040528092919081815260200182805461036390612cd8565b80156103b05780601f10610385576101008083540402835291602001916103b0565b820191906000526020600020905b81548152906001019060200180831161039357829003601f168201915b50505050508152602001826002015481526020018260030180546103d390612cd8565b80601f01602080910402602001604051908101604052809291908181526020018280546103ff90612cd8565b801561044c5780601f106104215761010080835404028352916020019161044c565b820191906000526020600020905b81548152906001019060200180831161042f57829003601f168201915b50505050508152602001826005015481525083838151811061047157610470612c7a565b5b6020026020010181905250508080600101915050610254565b50809250505090565b606060008060003373ffffffffffffffffffffffffffffffffffffffff1673ffffffffffffffffffffffffffffffffffffffff16815260200190815260200160002060000180546104e390612cd8565b905003610527576040518060400160405280601381526020017f4261736520646f6573206e6f74206578697374000000000000000000000000008152509050610560565b6040518060400160405280601381526020017f4261736520616c7265616479206578697374730000000000000000000000000081525090505b90565b61056b61208c565b60008060003373ffffffffffffffffffffffffffffffffffffffff1673ffffffffffffffffffffffffffffffffffffffff168152602001908152602001600020905060005b835181101561068e576000826005018583815181106105d2576105d1612c7a565b5b60200260200101516040516105e79190612d45565b9081526020016040518091039020600001805461060390612cd8565b905003610645576040517f08c379a000000000000000000000000000000000000000000000000000000000815260040161063c90612da8565b60405180910390fd5b8160050184828151811061065c5761065b612c7a565b5b60200260200101516040516106719190612d45565b9081526020016040518091039020915080806001019150506105b0565b5061069881611699565b915050919050565b6106a933611f2e565b60008060003373ffffffffffffffffffffffffffffffffffffffff1673ffffffffffffffffffffffffffffffffffffffff168152602001908152602001600020905060005b8351811015610740578160050184828151811061070e5761070d612c7a565b5b60200260200101516040516107239190612d45565b9081526020016040518091039020915080806001019150506106ee565b50600081600401836040516107559190612d45565b9081526020016040518091039020600001805461077190612cd8565b90501461080757806004018260405161078a9190612d45565b9081526020016040518091039020600080820160006107a991906120bb565b6001820160006107b991906120bb565b60028201600090556003820160006107d191906120bb565b6004820160006101000a81549073ffffffffffffffffffffffffffffffffffffffff021916905560058201600090555050610901565b6000816005018360405161081b9190612d45565b9081526020016040518091039020600001805461083790612cd8565b9050146108c55780600501826040516108509190612d45565b90815260200160405180910390206000808201600061086f91906120bb565b6001820160006101000a81549073ffffffffffffffffffffffffffffffffffffffff021916905560028201600090556003820160006108ae91906120fb565b6006820160006108be919061211c565b5050610900565b6040517f08c379a00000000000000000000000000000000000000000000000000000000081526004016108f790612e14565b60405180910390fd5b5b60005b81600301805490508110156109f957828051906020012082600301828154811061093157610930612c7a565b5b906000526020600020016040516109489190612ed7565b6040518091039020036109ec57816003016001836003018054905061096d9190612f1d565b8154811061097e5761097d612c7a565b5b9060005260206000200182600301828154811061099e5761099d612c7a565b5b9060005260206000200190816109b49190613128565b50816003018054806109c9576109c8613210565b5b6001900381819060005260206000200160006109e591906120bb565b90556109f9565b8080600101915050610904565b50505050565b606060008060003373ffffffffffffffffffffffffffffffffffffffff1673ffffffffffffffffffffffffffffffffffffffff1681526020019081526020016000206000018054610a4f90612cd8565b905003610a9c57610a5f33611f2e565b6040518060400160405280601081526020017f4261736520696e697469616c697a6564000000000000000000000000000000008152509050610ad5565b6040518060400160405280601881526020017f4261736520616c726561647920696e697469616c697a6564000000000000000081525090505b90565b610ae133611f2e565b60008060003373ffffffffffffffffffffffffffffffffffffffff1673ffffffffffffffffffffffffffffffffffffffff168152602001908152602001600020905060005b8351811015610b785781600501848281518110610b4657610b45612c7a565b5b6020026020010151604051610b5b9190612d45565b908152602001604051809103902091508080600101915050610b26565b5060008160050183604051610b8d9190612d45565b90815260200160405180910390206000018054610ba990612cd8565b905014610beb576040517f08c379a0000000000000000000000000000000000000000000000000000000008152600401610be29061328b565b60405180910390fd5b60008160040183604051610bff9190612d45565b90815260200160405180910390206000018054610c1b90612cd8565b905014610c5d576040517f08c379a0000000000000000000000000000000000000000000000000000000008152600401610c549061331d565b60405180910390fd5b60008160050183604051610c719190612d45565b9081526020016040518091039020905082816000019081610c92919061333d565b50338160010160006101000a81548173ffffffffffffffffffffffffffffffffffffffff021916908373ffffffffffffffffffffffffffffffffffffffff1602179055504281600201819055508160030183908060018154018082558091505060019003906000526020600020016000909190919091509081610d15919061333d565b5050505050565b610d2533611f2e565b60008060003373ffffffffffffffffffffffffffffffffffffffff1673ffffffffffffffffffffffffffffffffffffffff168152602001908152602001600020905060005b8751811015610dbc5781600501888281518110610d8a57610d89612c7a565b5b6020026020010151604051610d9f9190612d45565b908152602001604051809103902091508080600101915050610d6a565b5060008160040187604051610dd19190612d45565b90815260200160405180910390206000018054610ded90612cd8565b905003610e2f576040517f08c379a0000000000000000000000000000000000000000000000000000000008152600401610e269061345b565b60405180910390fd5b6000835114158015610e4f57508580519060200120838051906020012014155b15610f395760008160040184604051610e689190612d45565b90815260200160405180910390206000018054610e8490612cd8565b905014610ec6576040517f08c379a0000000000000000000000000000000000000000000000000000000008152600401610ebd906134c7565b60405180910390fd5b60008160050184604051610eda9190612d45565b90815260200160405180910390206000018054610ef690612cd8565b905014610f38576040517f08c379a0000000000000000000000000000000000000000000000000000000008152600401610f2f90613559565b60405180910390fd5b5b60008160040187604051610f4d9190612d45565b9081526020016040518091039020905085816001019081610f6e919061333d565b5084816002018190555082816003019081610f89919061333d565b506000845114158015610faa57508680519060200120848051906020012014155b156111ad5760005b8260030180549050811015611043578780519060200120836003018281548110610fdf57610fde612c7a565b5b90600052602060002001604051610ff69190612ed7565b604051809103902003611036578483600301828154811061101a57611019612c7a565b5b906000526020600020019081611030919061333d565b50611043565b8080600101915050610fb2565b508082600401856040516110579190612d45565b908152602001604051809103902060008201816000019081611079919061358f565b506001820181600101908161108e919061358f565b5060028201548160020155600382018160030190816110ad919061358f565b506004820160009054906101000a900473ffffffffffffffffffffffffffffffffffffffff168160040160006101000a81548173ffffffffffffffffffffffffffffffffffffffff021916908373ffffffffffffffffffffffffffffffffffffffff1602179055506005820154816005015590505081600401876040516111349190612d45565b90815260200160405180910390206000808201600061115391906120bb565b60018201600061116391906120bb565b600282016000905560038201600061117b91906120bb565b6004820160006101000a81549073ffffffffffffffffffffffffffffffffffffffff0219169055600582016000905550505b5050505050505050565b6111c033611f2e565b60008060003373ffffffffffffffffffffffffffffffffffffffff1673ffffffffffffffffffffffffffffffffffffffff168152602001908152602001600020905060005b8451811015611257578160050185828151811061122557611224612c7a565b5b602002602001015160405161123a9190612d45565b908152602001604051809103902091508080600101915050611205565b506000816004018460405161126c9190612d45565b9081526020016040518091039020600001805461128890612cd8565b9050036112ca576040517f08c379a00000000000000000000000000000000000000000000000000000000081526004016112c19061345b565b60405180910390fd5b600081600401846040516112de9190612d45565b908152602001604051809103902090506112f783611f2e565b6000808473ffffffffffffffffffffffffffffffffffffffff1673ffffffffffffffffffffffffffffffffffffffff16815260200190815260200160002060060181908060018154018082558091505060019003906000526020600020906006020160009091909190915060008201816000019081611376919061358f565b506001820181600101908161138b919061358f565b5060028201548160020155600382018160030190816113aa919061358f565b506004820160009054906101000a900473ffffffffffffffffffffffffffffffffffffffff168160040160006101000a81548173ffffffffffffffffffffffffffffffffffffffff021916908373ffffffffffffffffffffffffffffffffffffffff1602179055506005820154816005015550505050505050565b61142e33611f2e565b60008060003373ffffffffffffffffffffffffffffffffffffffff1673ffffffffffffffffffffffffffffffffffffffff168152602001908152602001600020905060005b86518110156114c5578160050187828151811061149357611492612c7a565b5b60200260200101516040516114a89190612d45565b908152602001604051809103902091508080600101915050611473565b50600081600401866040516114da9190612d45565b908152602001604051809103902060000180546114f690612cd8565b905014611538576040517f08c379a000000000000000000000000000000000000000000000000000000000815260040161152f906136c3565b60405180910390fd5b6000816005018660405161154c9190612d45565b9081526020016040518091039020600001805461156890612cd8565b9050146115aa576040517f08c379a00000000000000000000000000000000000000000000000000000000081526004016115a190613755565b60405180910390fd5b600081600401866040516115be9190612d45565b90815260200160405180910390209050858160000190816115df919061333d565b50848160010190816115f1919061333d565b508381600201819055508281600301908161160c919061333d565b50338160040160006101000a81548173ffffffffffffffffffffffffffffffffffffffff021916908373ffffffffffffffffffffffffffffffffffffffff160217905550428160050181905550816003018690806001815401808255809150506001900390600052602060002001600090919091909150908161168f919061333d565b5050505050505050565b6116a161208c565b60008060005b84600301805490508110156117ca5760008560030182815481106116ce576116cd612c7a565b5b9060005260206000200180546116e390612cd8565b80601f016020809104026020016040519081016040528092919081815260200182805461170f90612cd8565b801561175c5780601f106117315761010080835404028352916020019161175c565b820191906000526020600020905b81548152906001019060200180831161173f57829003601f168201915b50505050509050600086600401826040516117779190612d45565b9081526020016040518091039020600001805461179390612cd8565b9050146117ad5783806117a590613775565b9450506117bc565b82806117b890613775565b9350505b5080806001019150506116a7565b5060008267ffffffffffffffff8111156117e7576117e6612495565b5b60405190808252806020026020018201604052801561182057816020015b61180d61205d565b8152602001906001900390816118055790505b50905060008267ffffffffffffffff81111561183f5761183e612495565b5b60405190808252806020026020018201604052801561187257816020015b606081526020019060019003908161185d5790505b5090506000866006018054905067ffffffffffffffff81111561189857611897612495565b5b6040519080825280602002602001820160405280156118d157816020015b6118be61205d565b8152602001906001900390816118b65790505b50905060008060005b8960030180549050811015611c2e5760008a600301828154811061190157611900612c7a565b5b90600052602060002001805461191690612cd8565b80601f016020809104026020016040519081016040528092919081815260200182805461194290612cd8565b801561198f5780601f106119645761010080835404028352916020019161198f565b820191906000526020600020905b81548152906001019060200180831161197257829003601f168201915b5050505050905060008b600401826040516119aa9190612d45565b908152602001604051809103902060000180546119c690612cd8565b905014611bf45760008b600401826040516119e19190612d45565b908152602001604051809103902090506040518060a00160405280826000018054611a0b90612cd8565b80601f0160208091040260200160405190810160405280929190818152602001828054611a3790612cd8565b8015611a845780601f10611a5957610100808354040283529160200191611a84565b820191906000526020600020905b815481529060010190602001808311611a6757829003601f168201915b50505050508152602001826001018054611a9d90612cd8565b80601f0160208091040260200160405190810160405280929190818152602001828054611ac990612cd8565b8015611b165780601f10611aeb57610100808354040283529160200191611b16565b820191906000526020600020905b815481529060010190602001808311611af957829003601f168201915b5050505050815260200182600201548152602001826003018054611b3990612cd8565b80601f0160208091040260200160405190810160405280929190818152602001828054611b6590612cd8565b8015611bb25780601f10611b8757610100808354040283529160200191611bb2565b820191906000526020600020905b815481529060010190602001808311611b9557829003601f168201915b505050505081526020018260050154815250888680611bd090613775565b975081518110611be357611be2612c7a565b5b602002602001018190525050611c20565b80868480611c0190613775565b955081518110611c1457611c13612c7a565b5b60200260200101819052505b5080806001019150506118da565b5060005b8960060180549050811015611e685760008a6006018281548110611c5957611c58612c7a565b5b906000526020600020906006020190506040518060a00160405280826000018054611c8390612cd8565b80601f0160208091040260200160405190810160405280929190818152602001828054611caf90612cd8565b8015611cfc5780601f10611cd157610100808354040283529160200191611cfc565b820191906000526020600020905b815481529060010190602001808311611cdf57829003601f168201915b50505050508152602001826001018054611d1590612cd8565b80601f0160208091040260200160405190810160405280929190818152602001828054611d4190612cd8565b8015611d8e5780601f10611d6357610100808354040283529160200191611d8e565b820191906000526020600020905b815481529060010190602001808311611d7157829003601f168201915b5050505050815260200182600201548152602001826003018054611db190612cd8565b80601f0160208091040260200160405190810160405280929190818152602001828054611ddd90612cd8565b8015611e2a5780601f10611dff57610100808354040283529160200191611e2a565b820191906000526020600020905b815481529060010190602001808311611e0d57829003601f168201915b505050505081526020018260050154815250858381518110611e4f57611e4e612c7a565b5b6020026020010181905250508080600101915050611c32565b506040518060a001604052808a6000018054611e8390612cd8565b80601f0160208091040260200160405190810160405280929190818152602001828054611eaf90612cd8565b8015611efc5780601f10611ed157610100808354040283529160200191611efc565b820191906000526020600020905b815481529060010190602001808311611edf57829003601f168201915b505050505081526020018a60020154815260200186815260200185815260200184815250975050505050505050919050565b60008060008373ffffffffffffffffffffffffffffffffffffffff1673ffffffffffffffffffffffffffffffffffffffff1681526020019081526020016000206000018054611f7c90612cd8565b90500361205a5760008060008373ffffffffffffffffffffffffffffffffffffffff1673ffffffffffffffffffffffffffffffffffffffff16815260200190815260200160002090506040518060400160405280600881526020017f4d7920537061636500000000000000000000000000000000000000000000000081525081600001908161200b919061333d565b50818160010160006101000a81548173ffffffffffffffffffffffffffffffffffffffff021916908373ffffffffffffffffffffffffffffffffffffffff160217905550428160020181905550505b50565b6040518060a0016040528060608152602001606081526020016000815260200160608152602001600081525090565b6040518060a0016040528060608152602001600081526020016060815260200160608152602001606081525090565b5080546120c790612cd8565b6000825580601f106120d957506120f8565b601f0160209004906000526020600020908101906120f79190612140565b5b50565b5080546000825590600052602060002090810190612119919061215d565b50565b508054600082556006029060005260206000209081019061213d9190612181565b50565b5b80821115612159576000816000905550600101612141565b5090565b5b8082111561217d576000818161217491906120bb565b5060010161215e565b5090565b5b808211156121fb576000808201600061219b91906120bb565b6001820160006121ab91906120bb565b60028201600090556003820160006121c391906120bb565b6004820160006101000a81549073ffffffffffffffffffffffffffffffffffffffff0219169055600582016000905550600601612182565b5090565b600081519050919050565b600082825260208201905092915050565b6000819050602082019050919050565b600081519050919050565b600082825260208201905092915050565b60005b8381101561226557808201518184015260208101905061224a565b60008484015250505050565b6000601f19601f8301169050919050565b600061228d8261222b565b6122978185612236565b93506122a7818560208601612247565b6122b081612271565b840191505092915050565b6000819050919050565b6122ce816122bb565b82525050565b600060a08301600083015184820360008601526122f18282612282565b9150506020830151848203602086015261230b8282612282565b915050604083015161232060408601826122c5565b50606083015184820360608601526123388282612282565b915050608083015161234d60808601826122c5565b508091505092915050565b600061236483836122d4565b905092915050565b6000602082019050919050565b6000612384826121ff565b61238e818561220a565b9350836020820285016123a08561221b565b8060005b858110156123dc57848403895281516123bd8582612358565b94506123c88361236c565b925060208a019950506001810190506123a4565b50829750879550505050505092915050565b600060208201905081810360008301526124088184612379565b905092915050565b600082825260208201905092915050565b600061242c8261222b565b6124368185612410565b9350612446818560208601612247565b61244f81612271565b840191505092915050565b600060208201905081810360008301526124748184612421565b905092915050565b6000604051905090565b600080fd5b600080fd5b600080fd5b7f4e487b7100000000000000000000000000000000000000000000000000000000600052604160045260246000fd5b6124cd82612271565b810181811067ffffffffffffffff821117156124ec576124eb612495565b5b80604052505050565b60006124ff61247c565b905061250b82826124c4565b919050565b600067ffffffffffffffff82111561252b5761252a612495565b5b602082029050602081019050919050565b600080fd5b600080fd5b600067ffffffffffffffff82111561256157612560612495565b5b61256a82612271565b9050602081019050919050565b82818337600083830152505050565b600061259961259484612546565b6124f5565b9050828152602081018484840111156125b5576125b4612541565b5b6125c0848285612577565b509392505050565b600082601f8301126125dd576125dc612490565b5b81356125ed848260208601612586565b91505092915050565b600061260961260484612510565b6124f5565b9050808382526020820190506020840283018581111561262c5761262b61253c565b5b835b8181101561267357803567ffffffffffffffff81111561265157612650612490565b5b80860161265e89826125c8565b8552602085019450505060208101905061262e565b5050509392505050565b600082601f83011261269257612691612490565b5b81356126a28482602086016125f6565b91505092915050565b6000602082840312156126c1576126c0612486565b5b600082013567ffffffffffffffff8111156126df576126de61248b565b5b6126eb8482850161267d565b91505092915050565b600082825260208201905092915050565b6000612710826121ff565b61271a81856126f4565b93508360208202850161272c8561221b565b8060005b8581101561276857848403895281516127498582612358565b94506127548361236c565b925060208a01995050600181019050612730565b50829750879550505050505092915050565b600081519050919050565b600082825260208201905092915050565b6000819050602082019050919050565b60006127b28383612282565b905092915050565b6000602082019050919050565b60006127d28261277a565b6127dc8185612785565b9350836020820285016127ee85612796565b8060005b8581101561282a578484038952815161280b85826127a6565b9450612816836127ba565b925060208a019950506001810190506127f2565b50829750879550505050505092915050565b600060a08301600083015184820360008601526128598282612282565b915050602083015161286e60208601826122c5565b50604083015184820360408601526128868282612705565b915050606083015184820360608601526128a082826127c7565b915050608083015184820360808601526128ba8282612705565b9150508091505092915050565b600060208201905081810360008301526128e1818461283c565b905092915050565b60008060408385031215612900576128ff612486565b5b600083013567ffffffffffffffff81111561291e5761291d61248b565b5b61292a8582860161267d565b925050602083013567ffffffffffffffff81111561294b5761294a61248b565b5b612957858286016125c8565b9150509250929050565b61296a816122bb565b811461297557600080fd5b50565b60008135905061298781612961565b92915050565b60008060008060008060c087890312156129aa576129a9612486565b5b600087013567ffffffffffffffff8111156129c8576129c761248b565b5b6129d489828a0161267d565b965050602087013567ffffffffffffffff8111156129f5576129f461248b565b5b612a0189828a016125c8565b955050604087013567ffffffffffffffff811115612a2257612a2161248b565b5b612a2e89828a016125c8565b9450506060612a3f89828a01612978565b935050608087013567ffffffffffffffff811115612a6057612a5f61248b565b5b612a6c89828a016125c8565b92505060a087013567ffffffffffffffff811115612a8d57612a8c61248b565b5b612a9989828a016125c8565b9150509295509295509295565b600073ffffffffffffffffffffffffffffffffffffffff82169050919050565b6000612ad182612aa6565b9050919050565b612ae181612ac6565b8114612aec57600080fd5b50565b600081359050612afe81612ad8565b92915050565b600080600060608486031215612b1d57612b1c612486565b5b600084013567ffffffffffffffff811115612b3b57612b3a61248b565b5b612b478682870161267d565b935050602084013567ffffffffffffffff811115612b6857612b6761248b565b5b612b74868287016125c8565b9250506040612b8586828701612aef565b9150509250925092565b600080600080600060a08688031215612bab57612baa612486565b5b600086013567ffffffffffffffff811115612bc957612bc861248b565b5b612bd58882890161267d565b955050602086013567ffffffffffffffff811115612bf657612bf561248b565b5b612c02888289016125c8565b945050604086013567ffffffffffffffff811115612c2357612c2261248b565b5b612c2f888289016125c8565b9350506060612c4088828901612978565b925050608086013567ffffffffffffffff811115612c6157612c6061248b565b5b612c6d888289016125c8565b9150509295509295909350565b7f4e487b7100000000000000000000000000000000000000000000000000000000600052603260045260246000fd5b7f4e487b7100000000000000000000000000000000000000000000000000000000600052602260045260246000fd5b60006002820490506001821680612cf057607f821691505b602082108103612d0357612d02612ca9565b5b50919050565b600081905092915050565b6000612d1f8261222b565b612d298185612d09565b9350612d39818560208601612247565b80840191505092915050565b6000612d518284612d14565b915081905092915050565b7f466f6c64657220646f6573206e6f742065786973740000000000000000000000600082015250565b6000612d92601583612410565b9150612d9d82612d5c565b602082019050919050565b60006020820190508181036000830152612dc181612d85565b9050919050565b7f4974656d20646f6573206e6f7420657869737400000000000000000000000000600082015250565b6000612dfe601383612410565b9150612e0982612dc8565b602082019050919050565b60006020820190508181036000830152612e2d81612df1565b9050919050565b600081905092915050565b60008190508160005260206000209050919050565b60008154612e6181612cd8565b612e6b8186612e34565b94506001821660008114612e865760018114612e9b57612ece565b60ff1983168652811515820286019350612ece565b612ea485612e3f565b60005b83811015612ec657815481890152600182019150602081019050612ea7565b838801955050505b50505092915050565b6000612ee38284612e54565b915081905092915050565b7f4e487b7100000000000000000000000000000000000000000000000000000000600052601160045260246000fd5b6000612f28826122bb565b9150612f33836122bb565b9250828203905081811115612f4b57612f4a612eee565b5b92915050565b600081549050612f6081612cd8565b9050919050565b60008190508160005260206000209050919050565b60008190508160005260206000209050919050565b60006020601f8301049050919050565b600082821b905092915050565b600060088302612fde7fffffffffffffffffffffffffffffffffffffffffffffffffffffffffffffffff82612fa1565b612fe88683612fa1565b95508019841693508086168417925050509392505050565b6000819050919050565b600061302561302061301b846122bb565b613000565b6122bb565b9050919050565b6000819050919050565b61303f8361300a565b61305361304b8261302c565b848454612fae565b825550505050565b600090565b61306861305b565b613073818484613036565b505050565b5b818110156130975761308c600082613060565b600181019050613079565b5050565b601f8211156130dc576130ad81612f67565b6130b684612f91565b810160208510156130c5578190505b6130d96130d185612f91565b830182613078565b50505b505050565b600082821c905092915050565b60006130ff600019846008026130e1565b1980831691505092915050565b600061311883836130ee565b9150826002028217905092915050565b81810361313657505061320e565b61313f82612f51565b67ffffffffffffffff81111561315857613157612495565b5b6131628254612cd8565b61316d82828561309b565b6000601f83116001811461319c576000841561318a578287015490505b613194858261310c565b865550613207565b601f1984166131aa87612f7c565b96506131b586612f67565b60005b828110156131dd578489015482556001820191506001850194506020810190506131b8565b868310156131fa57848901546131f6601f8916826130ee565b8355505b6001600288020188555050505b5050505050505b565b7f4e487b7100000000000000000000000000000000000000000000000000000000600052603160045260246000fd5b7f466f6c64657220616c7265616479206578697374730000000000000000000000600082015250565b6000613275601583612410565b91506132808261323f565b602082019050919050565b600060208201905081810360008301526132a481613268565b9050919050565b7f412066696c652077697468207468652073616d65206e616d6520616c7265616460008201527f7920657869737473000000000000000000000000000000000000000000000000602082015250565b6000613307602883612410565b9150613312826132ab565b604082019050919050565b60006020820190508181036000830152613336816132fa565b9050919050565b6133468261222b565b67ffffffffffffffff81111561335f5761335e612495565b5b6133698254612cd8565b61337482828561309b565b600060209050601f8311600181146133a75760008415613395578287015190505b61339f858261310c565b865550613407565b601f1984166133b586612f67565b60005b828110156133dd578489015182556001820191506020850194506020810190506133b8565b868310156133fa57848901516133f6601f8916826130ee565b8355505b6001600288020188555050505b505050505050565b7f46696c6520646f6573206e6f7420657869737400000000000000000000000000600082015250565b6000613445601383612410565b91506134508261340f565b602082019050919050565b6000602082019050818103600083015261347481613438565b9050919050565b7f4e65772066696c65206e616d6520616c72656164792065786973747300000000600082015250565b60006134b1601c83612410565b91506134bc8261347b565b602082019050919050565b600060208201905081810360008301526134e0816134a4565b9050919050565b7f4120666f6c646572207769746820746865206e65772066696c65206e616d652060008201527f616c726561647920657869737473000000000000000000000000000000000000602082015250565b6000613543602e83612410565b915061354e826134e7565b604082019050919050565b6000602082019050818103600083015261357281613536565b9050919050565b60008154905061358881612cd8565b9050919050565b81810361359d575050613675565b6135a682613579565b67ffffffffffffffff8111156135bf576135be612495565b5b6135c98254612cd8565b6135d482828561309b565b6000601f83116001811461360357600084156135f1578287015490505b6135fb858261310c565b86555061366e565b601f19841661361187612f67565b965061361c86612f67565b60005b828110156136445784890154825560018201915060018501945060208101905061361f565b86831015613661578489015461365d601f8916826130ee565b8355505b6001600288020188555050505b5050505050505b565b7f46696c6520616c72656164792065786973747300000000000000000000000000600082015250565b60006136ad601383612410565b91506136b882613677565b602082019050919050565b600060208201905081810360008301526136dc816136a0565b9050919050565b7f4120666f6c6465722077697468207468652073616d65206e616d6520616c726560008201527f6164792065786973747300000000000000000000000000000000000000000000602082015250565b600061373f602a83612410565b915061374a826136e3565b604082019050919050565b6000602082019050818103600083015261376e81613732565b9050919050565b6000613780826122bb565b91507fffffffffffffffffffffffffffffffffffffffffffffffffffffffffffffffff82036137b2576137b1612eee565b5b60018201905091905056fea2646970667358221220a23ab0424cf7febd5a506822d3a98e8363a08703ccc64050b99e71fc7b0abcc764736f6c63430008180033",
          "opcodes": "PUSH1 0x80 PUSH1 0x40 MSTORE CALLVALUE DUP1 ISZERO PUSH3 0x11 JUMPI PUSH1 0x0 DUP1 REVERT JUMPDEST POP PUSH3 0x23 CALLER PUSH3 0x29 PUSH1 0x20 SHL PUSH1 0x20 SHR JUMP JUMPDEST PUSH3 0x4BE JUMP JUMPDEST PUSH1 0x0 DUP1 PUSH1 0x0 DUP4 PUSH20 0xFFFFFFFFFFFFFFFFFFFFFFFFFFFFFFFFFFFFFFFF AND PUSH20 0xFFFFFFFFFFFFFFFFFFFFFFFFFFFFFFFFFFFFFFFF AND DUP2 MSTORE PUSH1 0x20 ADD SWAP1 DUP2 MSTORE PUSH1 0x20 ADD PUSH1 0x0 KECCAK256 PUSH1 0x0 ADD DUP1 SLOAD PUSH3 0x79 SWAP1 PUSH3 0x18C JUMP JUMPDEST SWAP1 POP SUB PUSH3 0x15A JUMPI PUSH1 0x0 DUP1 PUSH1 0x0 DUP4 PUSH20 0xFFFFFFFFFFFFFFFFFFFFFFFFFFFFFFFFFFFFFFFF AND PUSH20 0xFFFFFFFFFFFFFFFFFFFFFFFFFFFFFFFFFFFFFFFF AND DUP2 MSTORE PUSH1 0x20 ADD SWAP1 DUP2 MSTORE PUSH1 0x20 ADD PUSH1 0x0 KECCAK256 SWAP1 POP PUSH1 0x40 MLOAD DUP1 PUSH1 0x40 ADD PUSH1 0x40 MSTORE DUP1 PUSH1 0x8 DUP2 MSTORE PUSH1 0x20 ADD PUSH32 0x4D79205370616365000000000000000000000000000000000000000000000000 DUP2 MSTORE POP DUP2 PUSH1 0x0 ADD SWAP1 DUP2 PUSH3 0x10B SWAP2 SWAP1 PUSH3 0x3D7 JUMP JUMPDEST POP DUP2 DUP2 PUSH1 0x1 ADD PUSH1 0x0 PUSH2 0x100 EXP DUP2 SLOAD DUP2 PUSH20 0xFFFFFFFFFFFFFFFFFFFFFFFFFFFFFFFFFFFFFFFF MUL NOT AND SWAP1 DUP4 PUSH20 0xFFFFFFFFFFFFFFFFFFFFFFFFFFFFFFFFFFFFFFFF AND MUL OR SWAP1 SSTORE POP TIMESTAMP DUP2 PUSH1 0x2 ADD DUP2 SWAP1 SSTORE POP POP JUMPDEST POP JUMP JUMPDEST PUSH32 0x4E487B7100000000000000000000000000000000000000000000000000000000 PUSH1 0x0 MSTORE PUSH1 0x22 PUSH1 0x4 MSTORE PUSH1 0x24 PUSH1 0x0 REVERT JUMPDEST PUSH1 0x0 PUSH1 0x2 DUP3 DIV SWAP1 POP PUSH1 0x1 DUP3 AND DUP1 PUSH3 0x1A5 JUMPI PUSH1 0x7F DUP3 AND SWAP2 POP JUMPDEST PUSH1 0x20 DUP3 LT DUP2 SUB PUSH3 0x1BB JUMPI PUSH3 0x1BA PUSH3 0x15D JUMP JUMPDEST JUMPDEST POP SWAP2 SWAP1 POP JUMP JUMPDEST PUSH1 0x0 DUP2 MLOAD SWAP1 POP SWAP2 SWAP1 POP JUMP JUMPDEST PUSH32 0x4E487B7100000000000000000000000000000000000000000000000000000000 PUSH1 0x0 MSTORE PUSH1 0x41 PUSH1 0x4 MSTORE PUSH1 0x24 PUSH1 0x0 REVERT JUMPDEST PUSH1 0x0 DUP2 SWAP1 POP DUP2 PUSH1 0x0 MSTORE PUSH1 0x20 PUSH1 0x0 KECCAK256 SWAP1 POP SWAP2 SWAP1 POP JUMP JUMPDEST PUSH1 0x0 PUSH1 0x20 PUSH1 0x1F DUP4 ADD DIV SWAP1 POP SWAP2 SWAP1 POP JUMP JUMPDEST PUSH1 0x0 DUP3 DUP3 SHL SWAP1 POP SWAP3 SWAP2 POP POP JUMP JUMPDEST PUSH1 0x0 PUSH1 0x8 DUP4 MUL PUSH3 0x25F PUSH32 0xFFFFFFFFFFFFFFFFFFFFFFFFFFFFFFFFFFFFFFFFFFFFFFFFFFFFFFFFFFFFFFFF DUP3 PUSH3 0x220 JUMP JUMPDEST PUSH3 0x26B DUP7 DUP4 PUSH3 0x220 JUMP JUMPDEST SWAP6 POP DUP1 NOT DUP5 AND SWAP4 POP DUP1 DUP7 AND DUP5 OR SWAP3 POP POP POP SWAP4 SWAP3 POP POP POP JUMP JUMPDEST PUSH1 0x0 DUP2 SWAP1 POP SWAP2 SWAP1 POP JUMP JUMPDEST PUSH1 0x0 DUP2 SWAP1 POP SWAP2 SWAP1 POP JUMP JUMPDEST PUSH1 0x0 PUSH3 0x2B8 PUSH3 0x2B2 PUSH3 0x2AC DUP5 PUSH3 0x283 JUMP JUMPDEST PUSH3 0x28D JUMP JUMPDEST PUSH3 0x283 JUMP JUMPDEST SWAP1 POP SWAP2 SWAP1 POP JUMP JUMPDEST PUSH1 0x0 DUP2 SWAP1 POP SWAP2 SWAP1 POP JUMP JUMPDEST PUSH3 0x2D4 DUP4 PUSH3 0x297 JUMP JUMPDEST PUSH3 0x2EC PUSH3 0x2E3 DUP3 PUSH3 0x2BF JUMP JUMPDEST DUP5 DUP5 SLOAD PUSH3 0x22D JUMP JUMPDEST DUP3 SSTORE POP POP POP POP JUMP JUMPDEST PUSH1 0x0 SWAP1 JUMP JUMPDEST PUSH3 0x303 PUSH3 0x2F4 JUMP JUMPDEST PUSH3 0x310 DUP2 DUP5 DUP5 PUSH3 0x2C9 JUMP JUMPDEST POP POP POP JUMP JUMPDEST JUMPDEST DUP2 DUP2 LT ISZERO PUSH3 0x338 JUMPI PUSH3 0x32C PUSH1 0x0 DUP3 PUSH3 0x2F9 JUMP JUMPDEST PUSH1 0x1 DUP2 ADD SWAP1 POP PUSH3 0x316 JUMP JUMPDEST POP POP JUMP JUMPDEST PUSH1 0x1F DUP3 GT ISZERO PUSH3 0x387 JUMPI PUSH3 0x351 DUP2 PUSH3 0x1FB JUMP JUMPDEST PUSH3 0x35C DUP5 PUSH3 0x210 JUMP JUMPDEST DUP2 ADD PUSH1 0x20 DUP6 LT ISZERO PUSH3 0x36C JUMPI DUP2 SWAP1 POP JUMPDEST PUSH3 0x384 PUSH3 0x37B DUP6 PUSH3 0x210 JUMP JUMPDEST DUP4 ADD DUP3 PUSH3 0x315 JUMP JUMPDEST POP POP JUMPDEST POP POP POP JUMP JUMPDEST PUSH1 0x0 DUP3 DUP3 SHR SWAP1 POP SWAP3 SWAP2 POP POP JUMP JUMPDEST PUSH1 0x0 PUSH3 0x3AC PUSH1 0x0 NOT DUP5 PUSH1 0x8 MUL PUSH3 0x38C JUMP JUMPDEST NOT DUP1 DUP4 AND SWAP2 POP POP SWAP3 SWAP2 POP POP JUMP JUMPDEST PUSH1 0x0 PUSH3 0x3C7 DUP4 DUP4 PUSH3 0x399 JUMP JUMPDEST SWAP2 POP DUP3 PUSH1 0x2 MUL DUP3 OR SWAP1 POP SWAP3 SWAP2 POP POP JUMP JUMPDEST PUSH3 0x3E2 DUP3 PUSH3 0x1C1 JUMP JUMPDEST PUSH8 0xFFFFFFFFFFFFFFFF DUP2 GT ISZERO PUSH3 0x3FE JUMPI PUSH3 0x3FD PUSH3 0x1CC JUMP JUMPDEST JUMPDEST PUSH3 0x40A DUP3 SLOAD PUSH3 0x18C JUMP JUMPDEST PUSH3 0x417 DUP3 DUP3 DUP6 PUSH3 0x33C JUMP JUMPDEST PUSH1 0x0 PUSH1 0x20 SWAP1 POP PUSH1 0x1F DUP4 GT PUSH1 0x1 DUP2 EQ PUSH3 0x44F JUMPI PUSH1 0x0 DUP5 ISZERO PUSH3 0x43A JUMPI DUP3 DUP8 ADD MLOAD SWAP1 POP JUMPDEST PUSH3 0x446 DUP6 DUP3 PUSH3 0x3B9 JUMP JUMPDEST DUP7 SSTORE POP PUSH3 0x4B6 JUMP JUMPDEST PUSH1 0x1F NOT DUP5 AND PUSH3 0x45F DUP7 PUSH3 0x1FB JUMP JUMPDEST PUSH1 0x0 JUMPDEST DUP3 DUP2 LT ISZERO PUSH3 0x489 JUMPI DUP5 DUP10 ADD MLOAD DUP3 SSTORE PUSH1 0x1 DUP3 ADD SWAP2 POP PUSH1 0x20 DUP6 ADD SWAP5 POP PUSH1 0x20 DUP2 ADD SWAP1 POP PUSH3 0x462 JUMP JUMPDEST DUP7 DUP4 LT ISZERO PUSH3 0x4A9 JUMPI DUP5 DUP10 ADD MLOAD PUSH3 0x4A5 PUSH1 0x1F DUP10 AND DUP3 PUSH3 0x399 JUMP JUMPDEST DUP4 SSTORE POP JUMPDEST PUSH1 0x1 PUSH1 0x2 DUP9 MUL ADD DUP9 SSTORE POP POP POP JUMPDEST POP POP POP POP POP POP JUMP JUMPDEST PUSH2 0x37F3 DUP1 PUSH3 0x4CE PUSH1 0x0 CODECOPY PUSH1 0x0 RETURN INVALID PUSH1 0x80 PUSH1 0x40 MSTORE CALLVALUE DUP1 ISZERO PUSH2 0x10 JUMPI PUSH1 0x0 DUP1 REVERT JUMPDEST POP PUSH1 0x4 CALLDATASIZE LT PUSH2 0x93 JUMPI PUSH1 0x0 CALLDATALOAD PUSH1 0xE0 SHR DUP1 PUSH4 0xE01ADC05 GT PUSH2 0x66 JUMPI DUP1 PUSH4 0xE01ADC05 EQ PUSH2 0x120 JUMPI DUP1 PUSH4 0xE75C5051 EQ PUSH2 0x13E JUMPI DUP1 PUSH4 0xEFF9F64F EQ PUSH2 0x15A JUMPI DUP1 PUSH4 0xF5DED10B EQ PUSH2 0x176 JUMPI DUP1 PUSH4 0xF7DA18C8 EQ PUSH2 0x192 JUMPI PUSH2 0x93 JUMP JUMPDEST DUP1 PUSH4 0x243A658D EQ PUSH2 0x98 JUMPI DUP1 PUSH4 0x37DB6C1A EQ PUSH2 0xB6 JUMPI DUP1 PUSH4 0xC905819B EQ PUSH2 0xD4 JUMPI DUP1 PUSH4 0xD3780E10 EQ PUSH2 0x104 JUMPI JUMPDEST PUSH1 0x0 DUP1 REVERT JUMPDEST PUSH2 0xA0 PUSH2 0x1AE JUMP JUMPDEST PUSH1 0x40 MLOAD PUSH2 0xAD SWAP2 SWAP1 PUSH2 0x23EE JUMP JUMPDEST PUSH1 0x40 MLOAD DUP1 SWAP2 SUB SWAP1 RETURN JUMPDEST PUSH2 0xBE PUSH2 0x493 JUMP JUMPDEST PUSH1 0x40 MLOAD PUSH2 0xCB SWAP2 SWAP1 PUSH2 0x245A JUMP JUMPDEST PUSH1 0x40 MLOAD DUP1 SWAP2 SUB SWAP1 RETURN JUMPDEST PUSH2 0xEE PUSH1 0x4 DUP1 CALLDATASIZE SUB DUP2 ADD SWAP1 PUSH2 0xE9 SWAP2 SWAP1 PUSH2 0x26AB JUMP JUMPDEST PUSH2 0x563 JUMP JUMPDEST PUSH1 0x40 MLOAD PUSH2 0xFB SWAP2 SWAP1 PUSH2 0x28C7 JUMP JUMPDEST PUSH1 0x40 MLOAD DUP1 SWAP2 SUB SWAP1 RETURN JUMPDEST PUSH2 0x11E PUSH1 0x4 DUP1 CALLDATASIZE SUB DUP2 ADD SWAP1 PUSH2 0x119 SWAP2 SWAP1 PUSH2 0x28E9 JUMP JUMPDEST PUSH2 0x6A0 JUMP JUMPDEST STOP JUMPDEST PUSH2 0x128 PUSH2 0x9FF JUMP JUMPDEST PUSH1 0x40 MLOAD PUSH2 0x135 SWAP2 SWAP1 PUSH2 0x245A JUMP JUMPDEST PUSH1 0x40 MLOAD DUP1 SWAP2 SUB SWAP1 RETURN JUMPDEST PUSH2 0x158 PUSH1 0x4 DUP1 CALLDATASIZE SUB DUP2 ADD SWAP1 PUSH2 0x153 SWAP2 SWAP1 PUSH2 0x28E9 JUMP JUMPDEST PUSH2 0xAD8 JUMP JUMPDEST STOP JUMPDEST PUSH2 0x174 PUSH1 0x4 DUP1 CALLDATASIZE SUB DUP2 ADD SWAP1 PUSH2 0x16F SWAP2 SWAP1 PUSH2 0x298D JUMP JUMPDEST PUSH2 0xD1C JUMP JUMPDEST STOP JUMPDEST PUSH2 0x190 PUSH1 0x4 DUP1 CALLDATASIZE SUB DUP2 ADD SWAP1 PUSH2 0x18B SWAP2 SWAP1 PUSH2 0x2B04 JUMP JUMPDEST PUSH2 0x11B7 JUMP JUMPDEST STOP JUMPDEST PUSH2 0x1AC PUSH1 0x4 DUP1 CALLDATASIZE SUB DUP2 ADD SWAP1 PUSH2 0x1A7 SWAP2 SWAP1 PUSH2 0x2B8F JUMP JUMPDEST PUSH2 0x1425 JUMP JUMPDEST STOP JUMPDEST PUSH1 0x60 PUSH1 0x0 DUP1 PUSH1 0x0 CALLER PUSH20 0xFFFFFFFFFFFFFFFFFFFFFFFFFFFFFFFFFFFFFFFF AND PUSH20 0xFFFFFFFFFFFFFFFFFFFFFFFFFFFFFFFFFFFFFFFF AND DUP2 MSTORE PUSH1 0x20 ADD SWAP1 DUP2 MSTORE PUSH1 0x20 ADD PUSH1 0x0 KECCAK256 SWAP1 POP PUSH1 0x0 DUP2 PUSH1 0x6 ADD DUP1 SLOAD SWAP1 POP PUSH8 0xFFFFFFFFFFFFFFFF DUP2 GT ISZERO PUSH2 0x215 JUMPI PUSH2 0x214 PUSH2 0x2495 JUMP JUMPDEST JUMPDEST PUSH1 0x40 MLOAD SWAP1 DUP1 DUP3 MSTORE DUP1 PUSH1 0x20 MUL PUSH1 0x20 ADD DUP3 ADD PUSH1 0x40 MSTORE DUP1 ISZERO PUSH2 0x24E JUMPI DUP2 PUSH1 0x20 ADD JUMPDEST PUSH2 0x23B PUSH2 0x205D JUMP JUMPDEST DUP2 MSTORE PUSH1 0x20 ADD SWAP1 PUSH1 0x1 SWAP1 SUB SWAP1 DUP2 PUSH2 0x233 JUMPI SWAP1 POP JUMPDEST POP SWAP1 POP PUSH1 0x0 JUMPDEST DUP3 PUSH1 0x6 ADD DUP1 SLOAD SWAP1 POP DUP2 LT ISZERO PUSH2 0x48A JUMPI PUSH1 0x0 DUP4 PUSH1 0x6 ADD DUP3 DUP2 SLOAD DUP2 LT PUSH2 0x27B JUMPI PUSH2 0x27A PUSH2 0x2C7A JUMP JUMPDEST JUMPDEST SWAP1 PUSH1 0x0 MSTORE PUSH1 0x20 PUSH1 0x0 KECCAK256 SWAP1 PUSH1 0x6 MUL ADD SWAP1 POP PUSH1 0x40 MLOAD DUP1 PUSH1 0xA0 ADD PUSH1 0x40 MSTORE DUP1 DUP3 PUSH1 0x0 ADD DUP1 SLOAD PUSH2 0x2A5 SWAP1 PUSH2 0x2CD8 JUMP JUMPDEST DUP1 PUSH1 0x1F ADD PUSH1 0x20 DUP1 SWAP2 DIV MUL PUSH1 0x20 ADD PUSH1 0x40 MLOAD SWAP1 DUP2 ADD PUSH1 0x40 MSTORE DUP1 SWAP3 SWAP2 SWAP1 DUP2 DUP2 MSTORE PUSH1 0x20 ADD DUP3 DUP1 SLOAD PUSH2 0x2D1 SWAP1 PUSH2 0x2CD8 JUMP JUMPDEST DUP1 ISZERO PUSH2 0x31E JUMPI DUP1 PUSH1 0x1F LT PUSH2 0x2F3 JUMPI PUSH2 0x100 DUP1 DUP4 SLOAD DIV MUL DUP4 MSTORE SWAP2 PUSH1 0x20 ADD SWAP2 PUSH2 0x31E JUMP JUMPDEST DUP3 ADD SWAP2 SWAP1 PUSH1 0x0 MSTORE PUSH1 0x20 PUSH1 0x0 KECCAK256 SWAP1 JUMPDEST DUP2 SLOAD DUP2 MSTORE SWAP1 PUSH1 0x1 ADD SWAP1 PUSH1 0x20 ADD DUP1 DUP4 GT PUSH2 0x301 JUMPI DUP3 SWAP1 SUB PUSH1 0x1F AND DUP3 ADD SWAP2 JUMPDEST POP POP POP POP POP DUP2 MSTORE PUSH1 0x20 ADD DUP3 PUSH1 0x1 ADD DUP1 SLOAD PUSH2 0x337 SWAP1 PUSH2 0x2CD8 JUMP JUMPDEST DUP1 PUSH1 0x1F ADD PUSH1 0x20 DUP1 SWAP2 DIV MUL PUSH1 0x20 ADD PUSH1 0x40 MLOAD SWAP1 DUP2 ADD PUSH1 0x40 MSTORE DUP1 SWAP3 SWAP2 SWAP1 DUP2 DUP2 MSTORE PUSH1 0x20 ADD DUP3 DUP1 SLOAD PUSH2 0x363 SWAP1 PUSH2 0x2CD8 JUMP JUMPDEST DUP1 ISZERO PUSH2 0x3B0 JUMPI DUP1 PUSH1 0x1F LT PUSH2 0x385 JUMPI PUSH2 0x100 DUP1 DUP4 SLOAD DIV MUL DUP4 MSTORE SWAP2 PUSH1 0x20 ADD SWAP2 PUSH2 0x3B0 JUMP JUMPDEST DUP3 ADD SWAP2 SWAP1 PUSH1 0x0 MSTORE PUSH1 0x20 PUSH1 0x0 KECCAK256 SWAP1 JUMPDEST DUP2 SLOAD DUP2 MSTORE SWAP1 PUSH1 0x1 ADD SWAP1 PUSH1 0x20 ADD DUP1 DUP4 GT PUSH2 0x393 JUMPI DUP3 SWAP1 SUB PUSH1 0x1F AND DUP3 ADD SWAP2 JUMPDEST POP POP POP POP POP DUP2 MSTORE PUSH1 0x20 ADD DUP3 PUSH1 0x2 ADD SLOAD DUP2 MSTORE PUSH1 0x20 ADD DUP3 PUSH1 0x3 ADD DUP1 SLOAD PUSH2 0x3D3 SWAP1 PUSH2 0x2CD8 JUMP JUMPDEST DUP1 PUSH1 0x1F ADD PUSH1 0x20 DUP1 SWAP2 DIV MUL PUSH1 0x20 ADD PUSH1 0x40 MLOAD SWAP1 DUP2 ADD PUSH1 0x40 MSTORE DUP1 SWAP3 SWAP2 SWAP1 DUP2 DUP2 MSTORE PUSH1 0x20 ADD DUP3 DUP1 SLOAD PUSH2 0x3FF SWAP1 PUSH2 0x2CD8 JUMP JUMPDEST DUP1 ISZERO PUSH2 0x44C JUMPI DUP1 PUSH1 0x1F LT PUSH2 0x421 JUMPI PUSH2 0x100 DUP1 DUP4 SLOAD DIV MUL DUP4 MSTORE SWAP2 PUSH1 0x20 ADD SWAP2 PUSH2 0x44C JUMP JUMPDEST DUP3 ADD SWAP2 SWAP1 PUSH1 0x0 MSTORE PUSH1 0x20 PUSH1 0x0 KECCAK256 SWAP1 JUMPDEST DUP2 SLOAD DUP2 MSTORE SWAP1 PUSH1 0x1 ADD SWAP1 PUSH1 0x20 ADD DUP1 DUP4 GT PUSH2 0x42F JUMPI DUP3 SWAP1 SUB PUSH1 0x1F AND DUP3 ADD SWAP2 JUMPDEST POP POP POP POP POP DUP2 MSTORE PUSH1 0x20 ADD DUP3 PUSH1 0x5 ADD SLOAD DUP2 MSTORE POP DUP4 DUP4 DUP2 MLOAD DUP2 LT PUSH2 0x471 JUMPI PUSH2 0x470 PUSH2 0x2C7A JUMP JUMPDEST JUMPDEST PUSH1 0x20 MUL PUSH1 0x20 ADD ADD DUP2 SWAP1 MSTORE POP POP DUP1 DUP1 PUSH1 0x1 ADD SWAP2 POP POP PUSH2 0x254 JUMP JUMPDEST POP DUP1 SWAP3 POP POP POP SWAP1 JUMP JUMPDEST PUSH1 0x60 PUSH1 0x0 DUP1 PUSH1 0x0 CALLER PUSH20 0xFFFFFFFFFFFFFFFFFFFFFFFFFFFFFFFFFFFFFFFF AND PUSH20 0xFFFFFFFFFFFFFFFFFFFFFFFFFFFFFFFFFFFFFFFF AND DUP2 MSTORE PUSH1 0x20 ADD SWAP1 DUP2 MSTORE PUSH1 0x20 ADD PUSH1 0x0 KECCAK256 PUSH1 0x0 ADD DUP1 SLOAD PUSH2 0x4E3 SWAP1 PUSH2 0x2CD8 JUMP JUMPDEST SWAP1 POP SUB PUSH2 0x527 JUMPI PUSH1 0x40 MLOAD DUP1 PUSH1 0x40 ADD PUSH1 0x40 MSTORE DUP1 PUSH1 0x13 DUP2 MSTORE PUSH1 0x20 ADD PUSH32 0x4261736520646F6573206E6F7420657869737400000000000000000000000000 DUP2 MSTORE POP SWAP1 POP PUSH2 0x560 JUMP JUMPDEST PUSH1 0x40 MLOAD DUP1 PUSH1 0x40 ADD PUSH1 0x40 MSTORE DUP1 PUSH1 0x13 DUP2 MSTORE PUSH1 0x20 ADD PUSH32 0x4261736520616C72656164792065786973747300000000000000000000000000 DUP2 MSTORE POP SWAP1 POP JUMPDEST SWAP1 JUMP JUMPDEST PUSH2 0x56B PUSH2 0x208C JUMP JUMPDEST PUSH1 0x0 DUP1 PUSH1 0x0 CALLER PUSH20 0xFFFFFFFFFFFFFFFFFFFFFFFFFFFFFFFFFFFFFFFF AND PUSH20 0xFFFFFFFFFFFFFFFFFFFFFFFFFFFFFFFFFFFFFFFF AND DUP2 MSTORE PUSH1 0x20 ADD SWAP1 DUP2 MSTORE PUSH1 0x20 ADD PUSH1 0x0 KECCAK256 SWAP1 POP PUSH1 0x0 JUMPDEST DUP4 MLOAD DUP2 LT ISZERO PUSH2 0x68E JUMPI PUSH1 0x0 DUP3 PUSH1 0x5 ADD DUP6 DUP4 DUP2 MLOAD DUP2 LT PUSH2 0x5D2 JUMPI PUSH2 0x5D1 PUSH2 0x2C7A JUMP JUMPDEST JUMPDEST PUSH1 0x20 MUL PUSH1 0x20 ADD ADD MLOAD PUSH1 0x40 MLOAD PUSH2 0x5E7 SWAP2 SWAP1 PUSH2 0x2D45 JUMP JUMPDEST SWAP1 DUP2 MSTORE PUSH1 0x20 ADD PUSH1 0x40 MLOAD DUP1 SWAP2 SUB SWAP1 KECCAK256 PUSH1 0x0 ADD DUP1 SLOAD PUSH2 0x603 SWAP1 PUSH2 0x2CD8 JUMP JUMPDEST SWAP1 POP SUB PUSH2 0x645 JUMPI PUSH1 0x40 MLOAD PUSH32 0x8C379A000000000000000000000000000000000000000000000000000000000 DUP2 MSTORE PUSH1 0x4 ADD PUSH2 0x63C SWAP1 PUSH2 0x2DA8 JUMP JUMPDEST PUSH1 0x40 MLOAD DUP1 SWAP2 SUB SWAP1 REVERT JUMPDEST DUP2 PUSH1 0x5 ADD DUP5 DUP3 DUP2 MLOAD DUP2 LT PUSH2 0x65C JUMPI PUSH2 0x65B PUSH2 0x2C7A JUMP JUMPDEST JUMPDEST PUSH1 0x20 MUL PUSH1 0x20 ADD ADD MLOAD PUSH1 0x40 MLOAD PUSH2 0x671 SWAP2 SWAP1 PUSH2 0x2D45 JUMP JUMPDEST SWAP1 DUP2 MSTORE PUSH1 0x20 ADD PUSH1 0x40 MLOAD DUP1 SWAP2 SUB SWAP1 KECCAK256 SWAP2 POP DUP1 DUP1 PUSH1 0x1 ADD SWAP2 POP POP PUSH2 0x5B0 JUMP JUMPDEST POP PUSH2 0x698 DUP2 PUSH2 0x1699 JUMP JUMPDEST SWAP2 POP POP SWAP2 SWAP1 POP JUMP JUMPDEST PUSH2 0x6A9 CALLER PUSH2 0x1F2E JUMP JUMPDEST PUSH1 0x0 DUP1 PUSH1 0x0 CALLER PUSH20 0xFFFFFFFFFFFFFFFFFFFFFFFFFFFFFFFFFFFFFFFF AND PUSH20 0xFFFFFFFFFFFFFFFFFFFFFFFFFFFFFFFFFFFFFFFF AND DUP2 MSTORE PUSH1 0x20 ADD SWAP1 DUP2 MSTORE PUSH1 0x20 ADD PUSH1 0x0 KECCAK256 SWAP1 POP PUSH1 0x0 JUMPDEST DUP4 MLOAD DUP2 LT ISZERO PUSH2 0x740 JUMPI DUP2 PUSH1 0x5 ADD DUP5 DUP3 DUP2 MLOAD DUP2 LT PUSH2 0x70E JUMPI PUSH2 0x70D PUSH2 0x2C7A JUMP JUMPDEST JUMPDEST PUSH1 0x20 MUL PUSH1 0x20 ADD ADD MLOAD PUSH1 0x40 MLOAD PUSH2 0x723 SWAP2 SWAP1 PUSH2 0x2D45 JUMP JUMPDEST SWAP1 DUP2 MSTORE PUSH1 0x20 ADD PUSH1 0x40 MLOAD DUP1 SWAP2 SUB SWAP1 KECCAK256 SWAP2 POP DUP1 DUP1 PUSH1 0x1 ADD SWAP2 POP POP PUSH2 0x6EE JUMP JUMPDEST POP PUSH1 0x0 DUP2 PUSH1 0x4 ADD DUP4 PUSH1 0x40 MLOAD PUSH2 0x755 SWAP2 SWAP1 PUSH2 0x2D45 JUMP JUMPDEST SWAP1 DUP2 MSTORE PUSH1 0x20 ADD PUSH1 0x40 MLOAD DUP1 SWAP2 SUB SWAP1 KECCAK256 PUSH1 0x0 ADD DUP1 SLOAD PUSH2 0x771 SWAP1 PUSH2 0x2CD8 JUMP JUMPDEST SWAP1 POP EQ PUSH2 0x807 JUMPI DUP1 PUSH1 0x4 ADD DUP3 PUSH1 0x40 MLOAD PUSH2 0x78A SWAP2 SWAP1 PUSH2 0x2D45 JUMP JUMPDEST SWAP1 DUP2 MSTORE PUSH1 0x20 ADD PUSH1 0x40 MLOAD DUP1 SWAP2 SUB SWAP1 KECCAK256 PUSH1 0x0 DUP1 DUP3 ADD PUSH1 0x0 PUSH2 0x7A9 SWAP2 SWAP1 PUSH2 0x20BB JUMP JUMPDEST PUSH1 0x1 DUP3 ADD PUSH1 0x0 PUSH2 0x7B9 SWAP2 SWAP1 PUSH2 0x20BB JUMP JUMPDEST PUSH1 0x2 DUP3 ADD PUSH1 0x0 SWAP1 SSTORE PUSH1 0x3 DUP3 ADD PUSH1 0x0 PUSH2 0x7D1 SWAP2 SWAP1 PUSH2 0x20BB JUMP JUMPDEST PUSH1 0x4 DUP3 ADD PUSH1 0x0 PUSH2 0x100 EXP DUP2 SLOAD SWAP1 PUSH20 0xFFFFFFFFFFFFFFFFFFFFFFFFFFFFFFFFFFFFFFFF MUL NOT AND SWAP1 SSTORE PUSH1 0x5 DUP3 ADD PUSH1 0x0 SWAP1 SSTORE POP POP PUSH2 0x901 JUMP JUMPDEST PUSH1 0x0 DUP2 PUSH1 0x5 ADD DUP4 PUSH1 0x40 MLOAD PUSH2 0x81B SWAP2 SWAP1 PUSH2 0x2D45 JUMP JUMPDEST SWAP1 DUP2 MSTORE PUSH1 0x20 ADD PUSH1 0x40 MLOAD DUP1 SWAP2 SUB SWAP1 KECCAK256 PUSH1 0x0 ADD DUP1 SLOAD PUSH2 0x837 SWAP1 PUSH2 0x2CD8 JUMP JUMPDEST SWAP1 POP EQ PUSH2 0x8C5 JUMPI DUP1 PUSH1 0x5 ADD DUP3 PUSH1 0x40 MLOAD PUSH2 0x850 SWAP2 SWAP1 PUSH2 0x2D45 JUMP JUMPDEST SWAP1 DUP2 MSTORE PUSH1 0x20 ADD PUSH1 0x40 MLOAD DUP1 SWAP2 SUB SWAP1 KECCAK256 PUSH1 0x0 DUP1 DUP3 ADD PUSH1 0x0 PUSH2 0x86F SWAP2 SWAP1 PUSH2 0x20BB JUMP JUMPDEST PUSH1 0x1 DUP3 ADD PUSH1 0x0 PUSH2 0x100 EXP DUP2 SLOAD SWAP1 PUSH20 0xFFFFFFFFFFFFFFFFFFFFFFFFFFFFFFFFFFFFFFFF MUL NOT AND SWAP1 SSTORE PUSH1 0x2 DUP3 ADD PUSH1 0x0 SWAP1 SSTORE PUSH1 0x3 DUP3 ADD PUSH1 0x0 PUSH2 0x8AE SWAP2 SWAP1 PUSH2 0x20FB JUMP JUMPDEST PUSH1 0x6 DUP3 ADD PUSH1 0x0 PUSH2 0x8BE SWAP2 SWAP1 PUSH2 0x211C JUMP JUMPDEST POP POP PUSH2 0x900 JUMP JUMPDEST PUSH1 0x40 MLOAD PUSH32 0x8C379A000000000000000000000000000000000000000000000000000000000 DUP2 MSTORE PUSH1 0x4 ADD PUSH2 0x8F7 SWAP1 PUSH2 0x2E14 JUMP JUMPDEST PUSH1 0x40 MLOAD DUP1 SWAP2 SUB SWAP1 REVERT JUMPDEST JUMPDEST PUSH1 0x0 JUMPDEST DUP2 PUSH1 0x3 ADD DUP1 SLOAD SWAP1 POP DUP2 LT ISZERO PUSH2 0x9F9 JUMPI DUP3 DUP1 MLOAD SWAP1 PUSH1 0x20 ADD KECCAK256 DUP3 PUSH1 0x3 ADD DUP3 DUP2 SLOAD DUP2 LT PUSH2 0x931 JUMPI PUSH2 0x930 PUSH2 0x2C7A JUMP JUMPDEST JUMPDEST SWAP1 PUSH1 0x0 MSTORE PUSH1 0x20 PUSH1 0x0 KECCAK256 ADD PUSH1 0x40 MLOAD PUSH2 0x948 SWAP2 SWAP1 PUSH2 0x2ED7 JUMP JUMPDEST PUSH1 0x40 MLOAD DUP1 SWAP2 SUB SWAP1 KECCAK256 SUB PUSH2 0x9EC JUMPI DUP2 PUSH1 0x3 ADD PUSH1 0x1 DUP4 PUSH1 0x3 ADD DUP1 SLOAD SWAP1 POP PUSH2 0x96D SWAP2 SWAP1 PUSH2 0x2F1D JUMP JUMPDEST DUP2 SLOAD DUP2 LT PUSH2 0x97E JUMPI PUSH2 0x97D PUSH2 0x2C7A JUMP JUMPDEST JUMPDEST SWAP1 PUSH1 0x0 MSTORE PUSH1 0x20 PUSH1 0x0 KECCAK256 ADD DUP3 PUSH1 0x3 ADD DUP3 DUP2 SLOAD DUP2 LT PUSH2 0x99E JUMPI PUSH2 0x99D PUSH2 0x2C7A JUMP JUMPDEST JUMPDEST SWAP1 PUSH1 0x0 MSTORE PUSH1 0x20 PUSH1 0x0 KECCAK256 ADD SWAP1 DUP2 PUSH2 0x9B4 SWAP2 SWAP1 PUSH2 0x3128 JUMP JUMPDEST POP DUP2 PUSH1 0x3 ADD DUP1 SLOAD DUP1 PUSH2 0x9C9 JUMPI PUSH2 0x9C8 PUSH2 0x3210 JUMP JUMPDEST JUMPDEST PUSH1 0x1 SWAP1 SUB DUP2 DUP2 SWAP1 PUSH1 0x0 MSTORE PUSH1 0x20 PUSH1 0x0 KECCAK256 ADD PUSH1 0x0 PUSH2 0x9E5 SWAP2 SWAP1 PUSH2 0x20BB JUMP JUMPDEST SWAP1 SSTORE PUSH2 0x9F9 JUMP JUMPDEST DUP1 DUP1 PUSH1 0x1 ADD SWAP2 POP POP PUSH2 0x904 JUMP JUMPDEST POP POP POP POP JUMP JUMPDEST PUSH1 0x60 PUSH1 0x0 DUP1 PUSH1 0x0 CALLER PUSH20 0xFFFFFFFFFFFFFFFFFFFFFFFFFFFFFFFFFFFFFFFF AND PUSH20 0xFFFFFFFFFFFFFFFFFFFFFFFFFFFFFFFFFFFFFFFF AND DUP2 MSTORE PUSH1 0x20 ADD SWAP1 DUP2 MSTORE PUSH1 0x20 ADD PUSH1 0x0 KECCAK256 PUSH1 0x0 ADD DUP1 SLOAD PUSH2 0xA4F SWAP1 PUSH2 0x2CD8 JUMP JUMPDEST SWAP1 POP SUB PUSH2 0xA9C JUMPI PUSH2 0xA5F CALLER PUSH2 0x1F2E JUMP JUMPDEST PUSH1 0x40 MLOAD DUP1 PUSH1 0x40 ADD PUSH1 0x40 MSTORE DUP1 PUSH1 0x10 DUP2 MSTORE PUSH1 0x20 ADD PUSH32 0x4261736520696E697469616C697A656400000000000000000000000000000000 DUP2 MSTORE POP SWAP1 POP PUSH2 0xAD5 JUMP JUMPDEST PUSH1 0x40 MLOAD DUP1 PUSH1 0x40 ADD PUSH1 0x40 MSTORE DUP1 PUSH1 0x18 DUP2 MSTORE PUSH1 0x20 ADD PUSH32 0x4261736520616C726561647920696E697469616C697A65640000000000000000 DUP2 MSTORE POP SWAP1 POP JUMPDEST SWAP1 JUMP JUMPDEST PUSH2 0xAE1 CALLER PUSH2 0x1F2E JUMP JUMPDEST PUSH1 0x0 DUP1 PUSH1 0x0 CALLER PUSH20 0xFFFFFFFFFFFFFFFFFFFFFFFFFFFFFFFFFFFFFFFF AND PUSH20 0xFFFFFFFFFFFFFFFFFFFFFFFFFFFFFFFFFFFFFFFF AND DUP2 MSTORE PUSH1 0x20 ADD SWAP1 DUP2 MSTORE PUSH1 0x20 ADD PUSH1 0x0 KECCAK256 SWAP1 POP PUSH1 0x0 JUMPDEST DUP4 MLOAD DUP2 LT ISZERO PUSH2 0xB78 JUMPI DUP2 PUSH1 0x5 ADD DUP5 DUP3 DUP2 MLOAD DUP2 LT PUSH2 0xB46 JUMPI PUSH2 0xB45 PUSH2 0x2C7A JUMP JUMPDEST JUMPDEST PUSH1 0x20 MUL PUSH1 0x20 ADD ADD MLOAD PUSH1 0x40 MLOAD PUSH2 0xB5B SWAP2 SWAP1 PUSH2 0x2D45 JUMP JUMPDEST SWAP1 DUP2 MSTORE PUSH1 0x20 ADD PUSH1 0x40 MLOAD DUP1 SWAP2 SUB SWAP1 KECCAK256 SWAP2 POP DUP1 DUP1 PUSH1 0x1 ADD SWAP2 POP POP PUSH2 0xB26 JUMP JUMPDEST POP PUSH1 0x0 DUP2 PUSH1 0x5 ADD DUP4 PUSH1 0x40 MLOAD PUSH2 0xB8D SWAP2 SWAP1 PUSH2 0x2D45 JUMP JUMPDEST SWAP1 DUP2 MSTORE PUSH1 0x20 ADD PUSH1 0x40 MLOAD DUP1 SWAP2 SUB SWAP1 KECCAK256 PUSH1 0x0 ADD DUP1 SLOAD PUSH2 0xBA9 SWAP1 PUSH2 0x2CD8 JUMP JUMPDEST SWAP1 POP EQ PUSH2 0xBEB JUMPI PUSH1 0x40 MLOAD PUSH32 0x8C379A000000000000000000000000000000000000000000000000000000000 DUP2 MSTORE PUSH1 0x4 ADD PUSH2 0xBE2 SWAP1 PUSH2 0x328B JUMP JUMPDEST PUSH1 0x40 MLOAD DUP1 SWAP2 SUB SWAP1 REVERT JUMPDEST PUSH1 0x0 DUP2 PUSH1 0x4 ADD DUP4 PUSH1 0x40 MLOAD PUSH2 0xBFF SWAP2 SWAP1 PUSH2 0x2D45 JUMP JUMPDEST SWAP1 DUP2 MSTORE PUSH1 0x20 ADD PUSH1 0x40 MLOAD DUP1 SWAP2 SUB SWAP1 KECCAK256 PUSH1 0x0 ADD DUP1 SLOAD PUSH2 0xC1B SWAP1 PUSH2 0x2CD8 JUMP JUMPDEST SWAP1 POP EQ PUSH2 0xC5D JUMPI PUSH1 0x40 MLOAD PUSH32 0x8C379A000000000000000000000000000000000000000000000000000000000 DUP2 MSTORE PUSH1 0x4 ADD PUSH2 0xC54 SWAP1 PUSH2 0x331D JUMP JUMPDEST PUSH1 0x40 MLOAD DUP1 SWAP2 SUB SWAP1 REVERT JUMPDEST PUSH1 0x0 DUP2 PUSH1 0x5 ADD DUP4 PUSH1 0x40 MLOAD PUSH2 0xC71 SWAP2 SWAP1 PUSH2 0x2D45 JUMP JUMPDEST SWAP1 DUP2 MSTORE PUSH1 0x20 ADD PUSH1 0x40 MLOAD DUP1 SWAP2 SUB SWAP1 KECCAK256 SWAP1 POP DUP3 DUP2 PUSH1 0x0 ADD SWAP1 DUP2 PUSH2 0xC92 SWAP2 SWAP1 PUSH2 0x333D JUMP JUMPDEST POP CALLER DUP2 PUSH1 0x1 ADD PUSH1 0x0 PUSH2 0x100 EXP DUP2 SLOAD DUP2 PUSH20 0xFFFFFFFFFFFFFFFFFFFFFFFFFFFFFFFFFFFFFFFF MUL NOT AND SWAP1 DUP4 PUSH20 0xFFFFFFFFFFFFFFFFFFFFFFFFFFFFFFFFFFFFFFFF AND MUL OR SWAP1 SSTORE POP TIMESTAMP DUP2 PUSH1 0x2 ADD DUP2 SWAP1 SSTORE POP DUP2 PUSH1 0x3 ADD DUP4 SWAP1 DUP1 PUSH1 0x1 DUP2 SLOAD ADD DUP1 DUP3 SSTORE DUP1 SWAP2 POP POP PUSH1 0x1 SWAP1 SUB SWAP1 PUSH1 0x0 MSTORE PUSH1 0x20 PUSH1 0x0 KECCAK256 ADD PUSH1 0x0 SWAP1 SWAP2 SWAP1 SWAP2 SWAP1 SWAP2 POP SWAP1 DUP2 PUSH2 0xD15 SWAP2 SWAP1 PUSH2 0x333D JUMP JUMPDEST POP POP POP POP POP JUMP JUMPDEST PUSH2 0xD25 CALLER PUSH2 0x1F2E JUMP JUMPDEST PUSH1 0x0 DUP1 PUSH1 0x0 CALLER PUSH20 0xFFFFFFFFFFFFFFFFFFFFFFFFFFFFFFFFFFFFFFFF AND PUSH20 0xFFFFFFFFFFFFFFFFFFFFFFFFFFFFFFFFFFFFFFFF AND DUP2 MSTORE PUSH1 0x20 ADD SWAP1 DUP2 MSTORE PUSH1 0x20 ADD PUSH1 0x0 KECCAK256 SWAP1 POP PUSH1 0x0 JUMPDEST DUP8 MLOAD DUP2 LT ISZERO PUSH2 0xDBC JUMPI DUP2 PUSH1 0x5 ADD DUP9 DUP3 DUP2 MLOAD DUP2 LT PUSH2 0xD8A JUMPI PUSH2 0xD89 PUSH2 0x2C7A JUMP JUMPDEST JUMPDEST PUSH1 0x20 MUL PUSH1 0x20 ADD ADD MLOAD PUSH1 0x40 MLOAD PUSH2 0xD9F SWAP2 SWAP1 PUSH2 0x2D45 JUMP JUMPDEST SWAP1 DUP2 MSTORE PUSH1 0x20 ADD PUSH1 0x40 MLOAD DUP1 SWAP2 SUB SWAP1 KECCAK256 SWAP2 POP DUP1 DUP1 PUSH1 0x1 ADD SWAP2 POP POP PUSH2 0xD6A JUMP JUMPDEST POP PUSH1 0x0 DUP2 PUSH1 0x4 ADD DUP8 PUSH1 0x40 MLOAD PUSH2 0xDD1 SWAP2 SWAP1 PUSH2 0x2D45 JUMP JUMPDEST SWAP1 DUP2 MSTORE PUSH1 0x20 ADD PUSH1 0x40 MLOAD DUP1 SWAP2 SUB SWAP1 KECCAK256 PUSH1 0x0 ADD DUP1 SLOAD PUSH2 0xDED SWAP1 PUSH2 0x2CD8 JUMP JUMPDEST SWAP1 POP SUB PUSH2 0xE2F JUMPI PUSH1 0x40 MLOAD PUSH32 0x8C379A000000000000000000000000000000000000000000000000000000000 DUP2 MSTORE PUSH1 0x4 ADD PUSH2 0xE26 SWAP1 PUSH2 0x345B JUMP JUMPDEST PUSH1 0x40 MLOAD DUP1 SWAP2 SUB SWAP1 REVERT JUMPDEST PUSH1 0x0 DUP4 MLOAD EQ ISZERO DUP1 ISZERO PUSH2 0xE4F JUMPI POP DUP6 DUP1 MLOAD SWAP1 PUSH1 0x20 ADD KECCAK256 DUP4 DUP1 MLOAD SWAP1 PUSH1 0x20 ADD KECCAK256 EQ ISZERO JUMPDEST ISZERO PUSH2 0xF39 JUMPI PUSH1 0x0 DUP2 PUSH1 0x4 ADD DUP5 PUSH1 0x40 MLOAD PUSH2 0xE68 SWAP2 SWAP1 PUSH2 0x2D45 JUMP JUMPDEST SWAP1 DUP2 MSTORE PUSH1 0x20 ADD PUSH1 0x40 MLOAD DUP1 SWAP2 SUB SWAP1 KECCAK256 PUSH1 0x0 ADD DUP1 SLOAD PUSH2 0xE84 SWAP1 PUSH2 0x2CD8 JUMP JUMPDEST SWAP1 POP EQ PUSH2 0xEC6 JUMPI PUSH1 0x40 MLOAD PUSH32 0x8C379A000000000000000000000000000000000000000000000000000000000 DUP2 MSTORE PUSH1 0x4 ADD PUSH2 0xEBD SWAP1 PUSH2 0x34C7 JUMP JUMPDEST PUSH1 0x40 MLOAD DUP1 SWAP2 SUB SWAP1 REVERT JUMPDEST PUSH1 0x0 DUP2 PUSH1 0x5 ADD DUP5 PUSH1 0x40 MLOAD PUSH2 0xEDA SWAP2 SWAP1 PUSH2 0x2D45 JUMP JUMPDEST SWAP1 DUP2 MSTORE PUSH1 0x20 ADD PUSH1 0x40 MLOAD DUP1 SWAP2 SUB SWAP1 KECCAK256 PUSH1 0x0 ADD DUP1 SLOAD PUSH2 0xEF6 SWAP1 PUSH2 0x2CD8 JUMP JUMPDEST SWAP1 POP EQ PUSH2 0xF38 JUMPI PUSH1 0x40 MLOAD PUSH32 0x8C379A000000000000000000000000000000000000000000000000000000000 DUP2 MSTORE PUSH1 0x4 ADD PUSH2 0xF2F SWAP1 PUSH2 0x3559 JUMP JUMPDEST PUSH1 0x40 MLOAD DUP1 SWAP2 SUB SWAP1 REVERT JUMPDEST JUMPDEST PUSH1 0x0 DUP2 PUSH1 0x4 ADD DUP8 PUSH1 0x40 MLOAD PUSH2 0xF4D SWAP2 SWAP1 PUSH2 0x2D45 JUMP JUMPDEST SWAP1 DUP2 MSTORE PUSH1 0x20 ADD PUSH1 0x40 MLOAD DUP1 SWAP2 SUB SWAP1 KECCAK256 SWAP1 POP DUP6 DUP2 PUSH1 0x1 ADD SWAP1 DUP2 PUSH2 0xF6E SWAP2 SWAP1 PUSH2 0x333D JUMP JUMPDEST POP DUP5 DUP2 PUSH1 0x2 ADD DUP2 SWAP1 SSTORE POP DUP3 DUP2 PUSH1 0x3 ADD SWAP1 DUP2 PUSH2 0xF89 SWAP2 SWAP1 PUSH2 0x333D JUMP JUMPDEST POP PUSH1 0x0 DUP5 MLOAD EQ ISZERO DUP1 ISZERO PUSH2 0xFAA JUMPI POP DUP7 DUP1 MLOAD SWAP1 PUSH1 0x20 ADD KECCAK256 DUP5 DUP1 MLOAD SWAP1 PUSH1 0x20 ADD KECCAK256 EQ ISZERO JUMPDEST ISZERO PUSH2 0x11AD JUMPI PUSH1 0x0 JUMPDEST DUP3 PUSH1 0x3 ADD DUP1 SLOAD SWAP1 POP DUP2 LT ISZERO PUSH2 0x1043 JUMPI DUP8 DUP1 MLOAD SWAP1 PUSH1 0x20 ADD KECCAK256 DUP4 PUSH1 0x3 ADD DUP3 DUP2 SLOAD DUP2 LT PUSH2 0xFDF JUMPI PUSH2 0xFDE PUSH2 0x2C7A JUMP JUMPDEST JUMPDEST SWAP1 PUSH1 0x0 MSTORE PUSH1 0x20 PUSH1 0x0 KECCAK256 ADD PUSH1 0x40 MLOAD PUSH2 0xFF6 SWAP2 SWAP1 PUSH2 0x2ED7 JUMP JUMPDEST PUSH1 0x40 MLOAD DUP1 SWAP2 SUB SWAP1 KECCAK256 SUB PUSH2 0x1036 JUMPI DUP5 DUP4 PUSH1 0x3 ADD DUP3 DUP2 SLOAD DUP2 LT PUSH2 0x101A JUMPI PUSH2 0x1019 PUSH2 0x2C7A JUMP JUMPDEST JUMPDEST SWAP1 PUSH1 0x0 MSTORE PUSH1 0x20 PUSH1 0x0 KECCAK256 ADD SWAP1 DUP2 PUSH2 0x1030 SWAP2 SWAP1 PUSH2 0x333D JUMP JUMPDEST POP PUSH2 0x1043 JUMP JUMPDEST DUP1 DUP1 PUSH1 0x1 ADD SWAP2 POP POP PUSH2 0xFB2 JUMP JUMPDEST POP DUP1 DUP3 PUSH1 0x4 ADD DUP6 PUSH1 0x40 MLOAD PUSH2 0x1057 SWAP2 SWAP1 PUSH2 0x2D45 JUMP JUMPDEST SWAP1 DUP2 MSTORE PUSH1 0x20 ADD PUSH1 0x40 MLOAD DUP1 SWAP2 SUB SWAP1 KECCAK256 PUSH1 0x0 DUP3 ADD DUP2 PUSH1 0x0 ADD SWAP1 DUP2 PUSH2 0x1079 SWAP2 SWAP1 PUSH2 0x358F JUMP JUMPDEST POP PUSH1 0x1 DUP3 ADD DUP2 PUSH1 0x1 ADD SWAP1 DUP2 PUSH2 0x108E SWAP2 SWAP1 PUSH2 0x358F JUMP JUMPDEST POP PUSH1 0x2 DUP3 ADD SLOAD DUP2 PUSH1 0x2 ADD SSTORE PUSH1 0x3 DUP3 ADD DUP2 PUSH1 0x3 ADD SWAP1 DUP2 PUSH2 0x10AD SWAP2 SWAP1 PUSH2 0x358F JUMP JUMPDEST POP PUSH1 0x4 DUP3 ADD PUSH1 0x0 SWAP1 SLOAD SWAP1 PUSH2 0x100 EXP SWAP1 DIV PUSH20 0xFFFFFFFFFFFFFFFFFFFFFFFFFFFFFFFFFFFFFFFF AND DUP2 PUSH1 0x4 ADD PUSH1 0x0 PUSH2 0x100 EXP DUP2 SLOAD DUP2 PUSH20 0xFFFFFFFFFFFFFFFFFFFFFFFFFFFFFFFFFFFFFFFF MUL NOT AND SWAP1 DUP4 PUSH20 0xFFFFFFFFFFFFFFFFFFFFFFFFFFFFFFFFFFFFFFFF AND MUL OR SWAP1 SSTORE POP PUSH1 0x5 DUP3 ADD SLOAD DUP2 PUSH1 0x5 ADD SSTORE SWAP1 POP POP DUP2 PUSH1 0x4 ADD DUP8 PUSH1 0x40 MLOAD PUSH2 0x1134 SWAP2 SWAP1 PUSH2 0x2D45 JUMP JUMPDEST SWAP1 DUP2 MSTORE PUSH1 0x20 ADD PUSH1 0x40 MLOAD DUP1 SWAP2 SUB SWAP1 KECCAK256 PUSH1 0x0 DUP1 DUP3 ADD PUSH1 0x0 PUSH2 0x1153 SWAP2 SWAP1 PUSH2 0x20BB JUMP JUMPDEST PUSH1 0x1 DUP3 ADD PUSH1 0x0 PUSH2 0x1163 SWAP2 SWAP1 PUSH2 0x20BB JUMP JUMPDEST PUSH1 0x2 DUP3 ADD PUSH1 0x0 SWAP1 SSTORE PUSH1 0x3 DUP3 ADD PUSH1 0x0 PUSH2 0x117B SWAP2 SWAP1 PUSH2 0x20BB JUMP JUMPDEST PUSH1 0x4 DUP3 ADD PUSH1 0x0 PUSH2 0x100 EXP DUP2 SLOAD SWAP1 PUSH20 0xFFFFFFFFFFFFFFFFFFFFFFFFFFFFFFFFFFFFFFFF MUL NOT AND SWAP1 SSTORE PUSH1 0x5 DUP3 ADD PUSH1 0x0 SWAP1 SSTORE POP POP JUMPDEST POP POP POP POP POP POP POP POP JUMP JUMPDEST PUSH2 0x11C0 CALLER PUSH2 0x1F2E JUMP JUMPDEST PUSH1 0x0 DUP1 PUSH1 0x0 CALLER PUSH20 0xFFFFFFFFFFFFFFFFFFFFFFFFFFFFFFFFFFFFFFFF AND PUSH20 0xFFFFFFFFFFFFFFFFFFFFFFFFFFFFFFFFFFFFFFFF AND DUP2 MSTORE PUSH1 0x20 ADD SWAP1 DUP2 MSTORE PUSH1 0x20 ADD PUSH1 0x0 KECCAK256 SWAP1 POP PUSH1 0x0 JUMPDEST DUP5 MLOAD DUP2 LT ISZERO PUSH2 0x1257 JUMPI DUP2 PUSH1 0x5 ADD DUP6 DUP3 DUP2 MLOAD DUP2 LT PUSH2 0x1225 JUMPI PUSH2 0x1224 PUSH2 0x2C7A JUMP JUMPDEST JUMPDEST PUSH1 0x20 MUL PUSH1 0x20 ADD ADD MLOAD PUSH1 0x40 MLOAD PUSH2 0x123A SWAP2 SWAP1 PUSH2 0x2D45 JUMP JUMPDEST SWAP1 DUP2 MSTORE PUSH1 0x20 ADD PUSH1 0x40 MLOAD DUP1 SWAP2 SUB SWAP1 KECCAK256 SWAP2 POP DUP1 DUP1 PUSH1 0x1 ADD SWAP2 POP POP PUSH2 0x1205 JUMP JUMPDEST POP PUSH1 0x0 DUP2 PUSH1 0x4 ADD DUP5 PUSH1 0x40 MLOAD PUSH2 0x126C SWAP2 SWAP1 PUSH2 0x2D45 JUMP JUMPDEST SWAP1 DUP2 MSTORE PUSH1 0x20 ADD PUSH1 0x40 MLOAD DUP1 SWAP2 SUB SWAP1 KECCAK256 PUSH1 0x0 ADD DUP1 SLOAD PUSH2 0x1288 SWAP1 PUSH2 0x2CD8 JUMP JUMPDEST SWAP1 POP SUB PUSH2 0x12CA JUMPI PUSH1 0x40 MLOAD PUSH32 0x8C379A000000000000000000000000000000000000000000000000000000000 DUP2 MSTORE PUSH1 0x4 ADD PUSH2 0x12C1 SWAP1 PUSH2 0x345B JUMP JUMPDEST PUSH1 0x40 MLOAD DUP1 SWAP2 SUB SWAP1 REVERT JUMPDEST PUSH1 0x0 DUP2 PUSH1 0x4 ADD DUP5 PUSH1 0x40 MLOAD PUSH2 0x12DE SWAP2 SWAP1 PUSH2 0x2D45 JUMP JUMPDEST SWAP1 DUP2 MSTORE PUSH1 0x20 ADD PUSH1 0x40 MLOAD DUP1 SWAP2 SUB SWAP1 KECCAK256 SWAP1 POP PUSH2 0x12F7 DUP4 PUSH2 0x1F2E JUMP JUMPDEST PUSH1 0x0 DUP1 DUP5 PUSH20 0xFFFFFFFFFFFFFFFFFFFFFFFFFFFFFFFFFFFFFFFF AND PUSH20 0xFFFFFFFFFFFFFFFFFFFFFFFFFFFFFFFFFFFFFFFF AND DUP2 MSTORE PUSH1 0x20 ADD SWAP1 DUP2 MSTORE PUSH1 0x20 ADD PUSH1 0x0 KECCAK256 PUSH1 0x6 ADD DUP2 SWAP1 DUP1 PUSH1 0x1 DUP2 SLOAD ADD DUP1 DUP3 SSTORE DUP1 SWAP2 POP POP PUSH1 0x1 SWAP1 SUB SWAP1 PUSH1 0x0 MSTORE PUSH1 0x20 PUSH1 0x0 KECCAK256 SWAP1 PUSH1 0x6 MUL ADD PUSH1 0x0 SWAP1 SWAP2 SWAP1 SWAP2 SWAP1 SWAP2 POP PUSH1 0x0 DUP3 ADD DUP2 PUSH1 0x0 ADD SWAP1 DUP2 PUSH2 0x1376 SWAP2 SWAP1 PUSH2 0x358F JUMP JUMPDEST POP PUSH1 0x1 DUP3 ADD DUP2 PUSH1 0x1 ADD SWAP1 DUP2 PUSH2 0x138B SWAP2 SWAP1 PUSH2 0x358F JUMP JUMPDEST POP PUSH1 0x2 DUP3 ADD SLOAD DUP2 PUSH1 0x2 ADD SSTORE PUSH1 0x3 DUP3 ADD DUP2 PUSH1 0x3 ADD SWAP1 DUP2 PUSH2 0x13AA SWAP2 SWAP1 PUSH2 0x358F JUMP JUMPDEST POP PUSH1 0x4 DUP3 ADD PUSH1 0x0 SWAP1 SLOAD SWAP1 PUSH2 0x100 EXP SWAP1 DIV PUSH20 0xFFFFFFFFFFFFFFFFFFFFFFFFFFFFFFFFFFFFFFFF AND DUP2 PUSH1 0x4 ADD PUSH1 0x0 PUSH2 0x100 EXP DUP2 SLOAD DUP2 PUSH20 0xFFFFFFFFFFFFFFFFFFFFFFFFFFFFFFFFFFFFFFFF MUL NOT AND SWAP1 DUP4 PUSH20 0xFFFFFFFFFFFFFFFFFFFFFFFFFFFFFFFFFFFFFFFF AND MUL OR SWAP1 SSTORE POP PUSH1 0x5 DUP3 ADD SLOAD DUP2 PUSH1 0x5 ADD SSTORE POP POP POP POP POP POP POP JUMP JUMPDEST PUSH2 0x142E CALLER PUSH2 0x1F2E JUMP JUMPDEST PUSH1 0x0 DUP1 PUSH1 0x0 CALLER PUSH20 0xFFFFFFFFFFFFFFFFFFFFFFFFFFFFFFFFFFFFFFFF AND PUSH20 0xFFFFFFFFFFFFFFFFFFFFFFFFFFFFFFFFFFFFFFFF AND DUP2 MSTORE PUSH1 0x20 ADD SWAP1 DUP2 MSTORE PUSH1 0x20 ADD PUSH1 0x0 KECCAK256 SWAP1 POP PUSH1 0x0 JUMPDEST DUP7 MLOAD DUP2 LT ISZERO PUSH2 0x14C5 JUMPI DUP2 PUSH1 0x5 ADD DUP8 DUP3 DUP2 MLOAD DUP2 LT PUSH2 0x1493 JUMPI PUSH2 0x1492 PUSH2 0x2C7A JUMP JUMPDEST JUMPDEST PUSH1 0x20 MUL PUSH1 0x20 ADD ADD MLOAD PUSH1 0x40 MLOAD PUSH2 0x14A8 SWAP2 SWAP1 PUSH2 0x2D45 JUMP JUMPDEST SWAP1 DUP2 MSTORE PUSH1 0x20 ADD PUSH1 0x40 MLOAD DUP1 SWAP2 SUB SWAP1 KECCAK256 SWAP2 POP DUP1 DUP1 PUSH1 0x1 ADD SWAP2 POP POP PUSH2 0x1473 JUMP JUMPDEST POP PUSH1 0x0 DUP2 PUSH1 0x4 ADD DUP7 PUSH1 0x40 MLOAD PUSH2 0x14DA SWAP2 SWAP1 PUSH2 0x2D45 JUMP JUMPDEST SWAP1 DUP2 MSTORE PUSH1 0x20 ADD PUSH1 0x40 MLOAD DUP1 SWAP2 SUB SWAP1 KECCAK256 PUSH1 0x0 ADD DUP1 SLOAD PUSH2 0x14F6 SWAP1 PUSH2 0x2CD8 JUMP JUMPDEST SWAP1 POP EQ PUSH2 0x1538 JUMPI PUSH1 0x40 MLOAD PUSH32 0x8C379A000000000000000000000000000000000000000000000000000000000 DUP2 MSTORE PUSH1 0x4 ADD PUSH2 0x152F SWAP1 PUSH2 0x36C3 JUMP JUMPDEST PUSH1 0x40 MLOAD DUP1 SWAP2 SUB SWAP1 REVERT JUMPDEST PUSH1 0x0 DUP2 PUSH1 0x5 ADD DUP7 PUSH1 0x40 MLOAD PUSH2 0x154C SWAP2 SWAP1 PUSH2 0x2D45 JUMP JUMPDEST SWAP1 DUP2 MSTORE PUSH1 0x20 ADD PUSH1 0x40 MLOAD DUP1 SWAP2 SUB SWAP1 KECCAK256 PUSH1 0x0 ADD DUP1 SLOAD PUSH2 0x1568 SWAP1 PUSH2 0x2CD8 JUMP JUMPDEST SWAP1 POP EQ PUSH2 0x15AA JUMPI PUSH1 0x40 MLOAD PUSH32 0x8C379A000000000000000000000000000000000000000000000000000000000 DUP2 MSTORE PUSH1 0x4 ADD PUSH2 0x15A1 SWAP1 PUSH2 0x3755 JUMP JUMPDEST PUSH1 0x40 MLOAD DUP1 SWAP2 SUB SWAP1 REVERT JUMPDEST PUSH1 0x0 DUP2 PUSH1 0x4 ADD DUP7 PUSH1 0x40 MLOAD PUSH2 0x15BE SWAP2 SWAP1 PUSH2 0x2D45 JUMP JUMPDEST SWAP1 DUP2 MSTORE PUSH1 0x20 ADD PUSH1 0x40 MLOAD DUP1 SWAP2 SUB SWAP1 KECCAK256 SWAP1 POP DUP6 DUP2 PUSH1 0x0 ADD SWAP1 DUP2 PUSH2 0x15DF SWAP2 SWAP1 PUSH2 0x333D JUMP JUMPDEST POP DUP5 DUP2 PUSH1 0x1 ADD SWAP1 DUP2 PUSH2 0x15F1 SWAP2 SWAP1 PUSH2 0x333D JUMP JUMPDEST POP DUP4 DUP2 PUSH1 0x2 ADD DUP2 SWAP1 SSTORE POP DUP3 DUP2 PUSH1 0x3 ADD SWAP1 DUP2 PUSH2 0x160C SWAP2 SWAP1 PUSH2 0x333D JUMP JUMPDEST POP CALLER DUP2 PUSH1 0x4 ADD PUSH1 0x0 PUSH2 0x100 EXP DUP2 SLOAD DUP2 PUSH20 0xFFFFFFFFFFFFFFFFFFFFFFFFFFFFFFFFFFFFFFFF MUL NOT AND SWAP1 DUP4 PUSH20 0xFFFFFFFFFFFFFFFFFFFFFFFFFFFFFFFFFFFFFFFF AND MUL OR SWAP1 SSTORE POP TIMESTAMP DUP2 PUSH1 0x5 ADD DUP2 SWAP1 SSTORE POP DUP2 PUSH1 0x3 ADD DUP7 SWAP1 DUP1 PUSH1 0x1 DUP2 SLOAD ADD DUP1 DUP3 SSTORE DUP1 SWAP2 POP POP PUSH1 0x1 SWAP1 SUB SWAP1 PUSH1 0x0 MSTORE PUSH1 0x20 PUSH1 0x0 KECCAK256 ADD PUSH1 0x0 SWAP1 SWAP2 SWAP1 SWAP2 SWAP1 SWAP2 POP SWAP1 DUP2 PUSH2 0x168F SWAP2 SWAP1 PUSH2 0x333D JUMP JUMPDEST POP POP POP POP POP POP POP POP JUMP JUMPDEST PUSH2 0x16A1 PUSH2 0x208C JUMP JUMPDEST PUSH1 0x0 DUP1 PUSH1 0x0 JUMPDEST DUP5 PUSH1 0x3 ADD DUP1 SLOAD SWAP1 POP DUP2 LT ISZERO PUSH2 0x17CA JUMPI PUSH1 0x0 DUP6 PUSH1 0x3 ADD DUP3 DUP2 SLOAD DUP2 LT PUSH2 0x16CE JUMPI PUSH2 0x16CD PUSH2 0x2C7A JUMP JUMPDEST JUMPDEST SWAP1 PUSH1 0x0 MSTORE PUSH1 0x20 PUSH1 0x0 KECCAK256 ADD DUP1 SLOAD PUSH2 0x16E3 SWAP1 PUSH2 0x2CD8 JUMP JUMPDEST DUP1 PUSH1 0x1F ADD PUSH1 0x20 DUP1 SWAP2 DIV MUL PUSH1 0x20 ADD PUSH1 0x40 MLOAD SWAP1 DUP2 ADD PUSH1 0x40 MSTORE DUP1 SWAP3 SWAP2 SWAP1 DUP2 DUP2 MSTORE PUSH1 0x20 ADD DUP3 DUP1 SLOAD PUSH2 0x170F SWAP1 PUSH2 0x2CD8 JUMP JUMPDEST DUP1 ISZERO PUSH2 0x175C JUMPI DUP1 PUSH1 0x1F LT PUSH2 0x1731 JUMPI PUSH2 0x100 DUP1 DUP4 SLOAD DIV MUL DUP4 MSTORE SWAP2 PUSH1 0x20 ADD SWAP2 PUSH2 0x175C JUMP JUMPDEST DUP3 ADD SWAP2 SWAP1 PUSH1 0x0 MSTORE PUSH1 0x20 PUSH1 0x0 KECCAK256 SWAP1 JUMPDEST DUP2 SLOAD DUP2 MSTORE SWAP1 PUSH1 0x1 ADD SWAP1 PUSH1 0x20 ADD DUP1 DUP4 GT PUSH2 0x173F JUMPI DUP3 SWAP1 SUB PUSH1 0x1F AND DUP3 ADD SWAP2 JUMPDEST POP POP POP POP POP SWAP1 POP PUSH1 0x0 DUP7 PUSH1 0x4 ADD DUP3 PUSH1 0x40 MLOAD PUSH2 0x1777 SWAP2 SWAP1 PUSH2 0x2D45 JUMP JUMPDEST SWAP1 DUP2 MSTORE PUSH1 0x20 ADD PUSH1 0x40 MLOAD DUP1 SWAP2 SUB SWAP1 KECCAK256 PUSH1 0x0 ADD DUP1 SLOAD PUSH2 0x1793 SWAP1 PUSH2 0x2CD8 JUMP JUMPDEST SWAP1 POP EQ PUSH2 0x17AD JUMPI DUP4 DUP1 PUSH2 0x17A5 SWAP1 PUSH2 0x3775 JUMP JUMPDEST SWAP5 POP POP PUSH2 0x17BC JUMP JUMPDEST DUP3 DUP1 PUSH2 0x17B8 SWAP1 PUSH2 0x3775 JUMP JUMPDEST SWAP4 POP POP JUMPDEST POP DUP1 DUP1 PUSH1 0x1 ADD SWAP2 POP POP PUSH2 0x16A7 JUMP JUMPDEST POP PUSH1 0x0 DUP3 PUSH8 0xFFFFFFFFFFFFFFFF DUP2 GT ISZERO PUSH2 0x17E7 JUMPI PUSH2 0x17E6 PUSH2 0x2495 JUMP JUMPDEST JUMPDEST PUSH1 0x40 MLOAD SWAP1 DUP1 DUP3 MSTORE DUP1 PUSH1 0x20 MUL PUSH1 0x20 ADD DUP3 ADD PUSH1 0x40 MSTORE DUP1 ISZERO PUSH2 0x1820 JUMPI DUP2 PUSH1 0x20 ADD JUMPDEST PUSH2 0x180D PUSH2 0x205D JUMP JUMPDEST DUP2 MSTORE PUSH1 0x20 ADD SWAP1 PUSH1 0x1 SWAP1 SUB SWAP1 DUP2 PUSH2 0x1805 JUMPI SWAP1 POP JUMPDEST POP SWAP1 POP PUSH1 0x0 DUP3 PUSH8 0xFFFFFFFFFFFFFFFF DUP2 GT ISZERO PUSH2 0x183F JUMPI PUSH2 0x183E PUSH2 0x2495 JUMP JUMPDEST JUMPDEST PUSH1 0x40 MLOAD SWAP1 DUP1 DUP3 MSTORE DUP1 PUSH1 0x20 MUL PUSH1 0x20 ADD DUP3 ADD PUSH1 0x40 MSTORE DUP1 ISZERO PUSH2 0x1872 JUMPI DUP2 PUSH1 0x20 ADD JUMPDEST PUSH1 0x60 DUP2 MSTORE PUSH1 0x20 ADD SWAP1 PUSH1 0x1 SWAP1 SUB SWAP1 DUP2 PUSH2 0x185D JUMPI SWAP1 POP JUMPDEST POP SWAP1 POP PUSH1 0x0 DUP7 PUSH1 0x6 ADD DUP1 SLOAD SWAP1 POP PUSH8 0xFFFFFFFFFFFFFFFF DUP2 GT ISZERO PUSH2 0x1898 JUMPI PUSH2 0x1897 PUSH2 0x2495 JUMP JUMPDEST JUMPDEST PUSH1 0x40 MLOAD SWAP1 DUP1 DUP3 MSTORE DUP1 PUSH1 0x20 MUL PUSH1 0x20 ADD DUP3 ADD PUSH1 0x40 MSTORE DUP1 ISZERO PUSH2 0x18D1 JUMPI DUP2 PUSH1 0x20 ADD JUMPDEST PUSH2 0x18BE PUSH2 0x205D JUMP JUMPDEST DUP2 MSTORE PUSH1 0x20 ADD SWAP1 PUSH1 0x1 SWAP1 SUB SWAP1 DUP2 PUSH2 0x18B6 JUMPI SWAP1 POP JUMPDEST POP SWAP1 POP PUSH1 0x0 DUP1 PUSH1 0x0 JUMPDEST DUP10 PUSH1 0x3 ADD DUP1 SLOAD SWAP1 POP DUP2 LT ISZERO PUSH2 0x1C2E JUMPI PUSH1 0x0 DUP11 PUSH1 0x3 ADD DUP3 DUP2 SLOAD DUP2 LT PUSH2 0x1901 JUMPI PUSH2 0x1900 PUSH2 0x2C7A JUMP JUMPDEST JUMPDEST SWAP1 PUSH1 0x0 MSTORE PUSH1 0x20 PUSH1 0x0 KECCAK256 ADD DUP1 SLOAD PUSH2 0x1916 SWAP1 PUSH2 0x2CD8 JUMP JUMPDEST DUP1 PUSH1 0x1F ADD PUSH1 0x20 DUP1 SWAP2 DIV MUL PUSH1 0x20 ADD PUSH1 0x40 MLOAD SWAP1 DUP2 ADD PUSH1 0x40 MSTORE DUP1 SWAP3 SWAP2 SWAP1 DUP2 DUP2 MSTORE PUSH1 0x20 ADD DUP3 DUP1 SLOAD PUSH2 0x1942 SWAP1 PUSH2 0x2CD8 JUMP JUMPDEST DUP1 ISZERO PUSH2 0x198F JUMPI DUP1 PUSH1 0x1F LT PUSH2 0x1964 JUMPI PUSH2 0x100 DUP1 DUP4 SLOAD DIV MUL DUP4 MSTORE SWAP2 PUSH1 0x20 ADD SWAP2 PUSH2 0x198F JUMP JUMPDEST DUP3 ADD SWAP2 SWAP1 PUSH1 0x0 MSTORE PUSH1 0x20 PUSH1 0x0 KECCAK256 SWAP1 JUMPDEST DUP2 SLOAD DUP2 MSTORE SWAP1 PUSH1 0x1 ADD SWAP1 PUSH1 0x20 ADD DUP1 DUP4 GT PUSH2 0x1972 JUMPI DUP3 SWAP1 SUB PUSH1 0x1F AND DUP3 ADD SWAP2 JUMPDEST POP POP POP POP POP SWAP1 POP PUSH1 0x0 DUP12 PUSH1 0x4 ADD DUP3 PUSH1 0x40 MLOAD PUSH2 0x19AA SWAP2 SWAP1 PUSH2 0x2D45 JUMP JUMPDEST SWAP1 DUP2 MSTORE PUSH1 0x20 ADD PUSH1 0x40 MLOAD DUP1 SWAP2 SUB SWAP1 KECCAK256 PUSH1 0x0 ADD DUP1 SLOAD PUSH2 0x19C6 SWAP1 PUSH2 0x2CD8 JUMP JUMPDEST SWAP1 POP EQ PUSH2 0x1BF4 JUMPI PUSH1 0x0 DUP12 PUSH1 0x4 ADD DUP3 PUSH1 0x40 MLOAD PUSH2 0x19E1 SWAP2 SWAP1 PUSH2 0x2D45 JUMP JUMPDEST SWAP1 DUP2 MSTORE PUSH1 0x20 ADD PUSH1 0x40 MLOAD DUP1 SWAP2 SUB SWAP1 KECCAK256 SWAP1 POP PUSH1 0x40 MLOAD DUP1 PUSH1 0xA0 ADD PUSH1 0x40 MSTORE DUP1 DUP3 PUSH1 0x0 ADD DUP1 SLOAD PUSH2 0x1A0B SWAP1 PUSH2 0x2CD8 JUMP JUMPDEST DUP1 PUSH1 0x1F ADD PUSH1 0x20 DUP1 SWAP2 DIV MUL PUSH1 0x20 ADD PUSH1 0x40 MLOAD SWAP1 DUP2 ADD PUSH1 0x40 MSTORE DUP1 SWAP3 SWAP2 SWAP1 DUP2 DUP2 MSTORE PUSH1 0x20 ADD DUP3 DUP1 SLOAD PUSH2 0x1A37 SWAP1 PUSH2 0x2CD8 JUMP JUMPDEST DUP1 ISZERO PUSH2 0x1A84 JUMPI DUP1 PUSH1 0x1F LT PUSH2 0x1A59 JUMPI PUSH2 0x100 DUP1 DUP4 SLOAD DIV MUL DUP4 MSTORE SWAP2 PUSH1 0x20 ADD SWAP2 PUSH2 0x1A84 JUMP JUMPDEST DUP3 ADD SWAP2 SWAP1 PUSH1 0x0 MSTORE PUSH1 0x20 PUSH1 0x0 KECCAK256 SWAP1 JUMPDEST DUP2 SLOAD DUP2 MSTORE SWAP1 PUSH1 0x1 ADD SWAP1 PUSH1 0x20 ADD DUP1 DUP4 GT PUSH2 0x1A67 JUMPI DUP3 SWAP1 SUB PUSH1 0x1F AND DUP3 ADD SWAP2 JUMPDEST POP POP POP POP POP DUP2 MSTORE PUSH1 0x20 ADD DUP3 PUSH1 0x1 ADD DUP1 SLOAD PUSH2 0x1A9D SWAP1 PUSH2 0x2CD8 JUMP JUMPDEST DUP1 PUSH1 0x1F ADD PUSH1 0x20 DUP1 SWAP2 DIV MUL PUSH1 0x20 ADD PUSH1 0x40 MLOAD SWAP1 DUP2 ADD PUSH1 0x40 MSTORE DUP1 SWAP3 SWAP2 SWAP1 DUP2 DUP2 MSTORE PUSH1 0x20 ADD DUP3 DUP1 SLOAD PUSH2 0x1AC9 SWAP1 PUSH2 0x2CD8 JUMP JUMPDEST DUP1 ISZERO PUSH2 0x1B16 JUMPI DUP1 PUSH1 0x1F LT PUSH2 0x1AEB JUMPI PUSH2 0x100 DUP1 DUP4 SLOAD DIV MUL DUP4 MSTORE SWAP2 PUSH1 0x20 ADD SWAP2 PUSH2 0x1B16 JUMP JUMPDEST DUP3 ADD SWAP2 SWAP1 PUSH1 0x0 MSTORE PUSH1 0x20 PUSH1 0x0 KECCAK256 SWAP1 JUMPDEST DUP2 SLOAD DUP2 MSTORE SWAP1 PUSH1 0x1 ADD SWAP1 PUSH1 0x20 ADD DUP1 DUP4 GT PUSH2 0x1AF9 JUMPI DUP3 SWAP1 SUB PUSH1 0x1F AND DUP3 ADD SWAP2 JUMPDEST POP POP POP POP POP DUP2 MSTORE PUSH1 0x20 ADD DUP3 PUSH1 0x2 ADD SLOAD DUP2 MSTORE PUSH1 0x20 ADD DUP3 PUSH1 0x3 ADD DUP1 SLOAD PUSH2 0x1B39 SWAP1 PUSH2 0x2CD8 JUMP JUMPDEST DUP1 PUSH1 0x1F ADD PUSH1 0x20 DUP1 SWAP2 DIV MUL PUSH1 0x20 ADD PUSH1 0x40 MLOAD SWAP1 DUP2 ADD PUSH1 0x40 MSTORE DUP1 SWAP3 SWAP2 SWAP1 DUP2 DUP2 MSTORE PUSH1 0x20 ADD DUP3 DUP1 SLOAD PUSH2 0x1B65 SWAP1 PUSH2 0x2CD8 JUMP JUMPDEST DUP1 ISZERO PUSH2 0x1BB2 JUMPI DUP1 PUSH1 0x1F LT PUSH2 0x1B87 JUMPI PUSH2 0x100 DUP1 DUP4 SLOAD DIV MUL DUP4 MSTORE SWAP2 PUSH1 0x20 ADD SWAP2 PUSH2 0x1BB2 JUMP JUMPDEST DUP3 ADD SWAP2 SWAP1 PUSH1 0x0 MSTORE PUSH1 0x20 PUSH1 0x0 KECCAK256 SWAP1 JUMPDEST DUP2 SLOAD DUP2 MSTORE SWAP1 PUSH1 0x1 ADD SWAP1 PUSH1 0x20 ADD DUP1 DUP4 GT PUSH2 0x1B95 JUMPI DUP3 SWAP1 SUB PUSH1 0x1F AND DUP3 ADD SWAP2 JUMPDEST POP POP POP POP POP DUP2 MSTORE PUSH1 0x20 ADD DUP3 PUSH1 0x5 ADD SLOAD DUP2 MSTORE POP DUP9 DUP7 DUP1 PUSH2 0x1BD0 SWAP1 PUSH2 0x3775 JUMP JUMPDEST SWAP8 POP DUP2 MLOAD DUP2 LT PUSH2 0x1BE3 JUMPI PUSH2 0x1BE2 PUSH2 0x2C7A JUMP JUMPDEST JUMPDEST PUSH1 0x20 MUL PUSH1 0x20 ADD ADD DUP2 SWAP1 MSTORE POP POP PUSH2 0x1C20 JUMP JUMPDEST DUP1 DUP7 DUP5 DUP1 PUSH2 0x1C01 SWAP1 PUSH2 0x3775 JUMP JUMPDEST SWAP6 POP DUP2 MLOAD DUP2 LT PUSH2 0x1C14 JUMPI PUSH2 0x1C13 PUSH2 0x2C7A JUMP JUMPDEST JUMPDEST PUSH1 0x20 MUL PUSH1 0x20 ADD ADD DUP2 SWAP1 MSTORE POP JUMPDEST POP DUP1 DUP1 PUSH1 0x1 ADD SWAP2 POP POP PUSH2 0x18DA JUMP JUMPDEST POP PUSH1 0x0 JUMPDEST DUP10 PUSH1 0x6 ADD DUP1 SLOAD SWAP1 POP DUP2 LT ISZERO PUSH2 0x1E68 JUMPI PUSH1 0x0 DUP11 PUSH1 0x6 ADD DUP3 DUP2 SLOAD DUP2 LT PUSH2 0x1C59 JUMPI PUSH2 0x1C58 PUSH2 0x2C7A JUMP JUMPDEST JUMPDEST SWAP1 PUSH1 0x0 MSTORE PUSH1 0x20 PUSH1 0x0 KECCAK256 SWAP1 PUSH1 0x6 MUL ADD SWAP1 POP PUSH1 0x40 MLOAD DUP1 PUSH1 0xA0 ADD PUSH1 0x40 MSTORE DUP1 DUP3 PUSH1 0x0 ADD DUP1 SLOAD PUSH2 0x1C83 SWAP1 PUSH2 0x2CD8 JUMP JUMPDEST DUP1 PUSH1 0x1F ADD PUSH1 0x20 DUP1 SWAP2 DIV MUL PUSH1 0x20 ADD PUSH1 0x40 MLOAD SWAP1 DUP2 ADD PUSH1 0x40 MSTORE DUP1 SWAP3 SWAP2 SWAP1 DUP2 DUP2 MSTORE PUSH1 0x20 ADD DUP3 DUP1 SLOAD PUSH2 0x1CAF SWAP1 PUSH2 0x2CD8 JUMP JUMPDEST DUP1 ISZERO PUSH2 0x1CFC JUMPI DUP1 PUSH1 0x1F LT PUSH2 0x1CD1 JUMPI PUSH2 0x100 DUP1 DUP4 SLOAD DIV MUL DUP4 MSTORE SWAP2 PUSH1 0x20 ADD SWAP2 PUSH2 0x1CFC JUMP JUMPDEST DUP3 ADD SWAP2 SWAP1 PUSH1 0x0 MSTORE PUSH1 0x20 PUSH1 0x0 KECCAK256 SWAP1 JUMPDEST DUP2 SLOAD DUP2 MSTORE SWAP1 PUSH1 0x1 ADD SWAP1 PUSH1 0x20 ADD DUP1 DUP4 GT PUSH2 0x1CDF JUMPI DUP3 SWAP1 SUB PUSH1 0x1F AND DUP3 ADD SWAP2 JUMPDEST POP POP POP POP POP DUP2 MSTORE PUSH1 0x20 ADD DUP3 PUSH1 0x1 ADD DUP1 SLOAD PUSH2 0x1D15 SWAP1 PUSH2 0x2CD8 JUMP JUMPDEST DUP1 PUSH1 0x1F ADD PUSH1 0x20 DUP1 SWAP2 DIV MUL PUSH1 0x20 ADD PUSH1 0x40 MLOAD SWAP1 DUP2 ADD PUSH1 0x40 MSTORE DUP1 SWAP3 SWAP2 SWAP1 DUP2 DUP2 MSTORE PUSH1 0x20 ADD DUP3 DUP1 SLOAD PUSH2 0x1D41 SWAP1 PUSH2 0x2CD8 JUMP JUMPDEST DUP1 ISZERO PUSH2 0x1D8E JUMPI DUP1 PUSH1 0x1F LT PUSH2 0x1D63 JUMPI PUSH2 0x100 DUP1 DUP4 SLOAD DIV MUL DUP4 MSTORE SWAP2 PUSH1 0x20 ADD SWAP2 PUSH2 0x1D8E JUMP JUMPDEST DUP3 ADD SWAP2 SWAP1 PUSH1 0x0 MSTORE PUSH1 0x20 PUSH1 0x0 KECCAK256 SWAP1 JUMPDEST DUP2 SLOAD DUP2 MSTORE SWAP1 PUSH1 0x1 ADD SWAP1 PUSH1 0x20 ADD DUP1 DUP4 GT PUSH2 0x1D71 JUMPI DUP3 SWAP1 SUB PUSH1 0x1F AND DUP3 ADD SWAP2 JUMPDEST POP POP POP POP POP DUP2 MSTORE PUSH1 0x20 ADD DUP3 PUSH1 0x2 ADD SLOAD DUP2 MSTORE PUSH1 0x20 ADD DUP3 PUSH1 0x3 ADD DUP1 SLOAD PUSH2 0x1DB1 SWAP1 PUSH2 0x2CD8 JUMP JUMPDEST DUP1 PUSH1 0x1F ADD PUSH1 0x20 DUP1 SWAP2 DIV MUL PUSH1 0x20 ADD PUSH1 0x40 MLOAD SWAP1 DUP2 ADD PUSH1 0x40 MSTORE DUP1 SWAP3 SWAP2 SWAP1 DUP2 DUP2 MSTORE PUSH1 0x20 ADD DUP3 DUP1 SLOAD PUSH2 0x1DDD SWAP1 PUSH2 0x2CD8 JUMP JUMPDEST DUP1 ISZERO PUSH2 0x1E2A JUMPI DUP1 PUSH1 0x1F LT PUSH2 0x1DFF JUMPI PUSH2 0x100 DUP1 DUP4 SLOAD DIV MUL DUP4 MSTORE SWAP2 PUSH1 0x20 ADD SWAP2 PUSH2 0x1E2A JUMP JUMPDEST DUP3 ADD SWAP2 SWAP1 PUSH1 0x0 MSTORE PUSH1 0x20 PUSH1 0x0 KECCAK256 SWAP1 JUMPDEST DUP2 SLOAD DUP2 MSTORE SWAP1 PUSH1 0x1 ADD SWAP1 PUSH1 0x20 ADD DUP1 DUP4 GT PUSH2 0x1E0D JUMPI DUP3 SWAP1 SUB PUSH1 0x1F AND DUP3 ADD SWAP2 JUMPDEST POP POP POP POP POP DUP2 MSTORE PUSH1 0x20 ADD DUP3 PUSH1 0x5 ADD SLOAD DUP2 MSTORE POP DUP6 DUP4 DUP2 MLOAD DUP2 LT PUSH2 0x1E4F JUMPI PUSH2 0x1E4E PUSH2 0x2C7A JUMP JUMPDEST JUMPDEST PUSH1 0x20 MUL PUSH1 0x20 ADD ADD DUP2 SWAP1 MSTORE POP POP DUP1 DUP1 PUSH1 0x1 ADD SWAP2 POP POP PUSH2 0x1C32 JUMP JUMPDEST POP PUSH1 0x40 MLOAD DUP1 PUSH1 0xA0 ADD PUSH1 0x40 MSTORE DUP1 DUP11 PUSH1 0x0 ADD DUP1 SLOAD PUSH2 0x1E83 SWAP1 PUSH2 0x2CD8 JUMP JUMPDEST DUP1 PUSH1 0x1F ADD PUSH1 0x20 DUP1 SWAP2 DIV MUL PUSH1 0x20 ADD PUSH1 0x40 MLOAD SWAP1 DUP2 ADD PUSH1 0x40 MSTORE DUP1 SWAP3 SWAP2 SWAP1 DUP2 DUP2 MSTORE PUSH1 0x20 ADD DUP3 DUP1 SLOAD PUSH2 0x1EAF SWAP1 PUSH2 0x2CD8 JUMP JUMPDEST DUP1 ISZERO PUSH2 0x1EFC JUMPI DUP1 PUSH1 0x1F LT PUSH2 0x1ED1 JUMPI PUSH2 0x100 DUP1 DUP4 SLOAD DIV MUL DUP4 MSTORE SWAP2 PUSH1 0x20 ADD SWAP2 PUSH2 0x1EFC JUMP JUMPDEST DUP3 ADD SWAP2 SWAP1 PUSH1 0x0 MSTORE PUSH1 0x20 PUSH1 0x0 KECCAK256 SWAP1 JUMPDEST DUP2 SLOAD DUP2 MSTORE SWAP1 PUSH1 0x1 ADD SWAP1 PUSH1 0x20 ADD DUP1 DUP4 GT PUSH2 0x1EDF JUMPI DUP3 SWAP1 SUB PUSH1 0x1F AND DUP3 ADD SWAP2 JUMPDEST POP POP POP POP POP DUP2 MSTORE PUSH1 0x20 ADD DUP11 PUSH1 0x2 ADD SLOAD DUP2 MSTORE PUSH1 0x20 ADD DUP7 DUP2 MSTORE PUSH1 0x20 ADD DUP6 DUP2 MSTORE PUSH1 0x20 ADD DUP5 DUP2 MSTORE POP SWAP8 POP POP POP POP POP POP POP POP SWAP2 SWAP1 POP JUMP JUMPDEST PUSH1 0x0 DUP1 PUSH1 0x0 DUP4 PUSH20 0xFFFFFFFFFFFFFFFFFFFFFFFFFFFFFFFFFFFFFFFF AND PUSH20 0xFFFFFFFFFFFFFFFFFFFFFFFFFFFFFFFFFFFFFFFF AND DUP2 MSTORE PUSH1 0x20 ADD SWAP1 DUP2 MSTORE PUSH1 0x20 ADD PUSH1 0x0 KECCAK256 PUSH1 0x0 ADD DUP1 SLOAD PUSH2 0x1F7C SWAP1 PUSH2 0x2CD8 JUMP JUMPDEST SWAP1 POP SUB PUSH2 0x205A JUMPI PUSH1 0x0 DUP1 PUSH1 0x0 DUP4 PUSH20 0xFFFFFFFFFFFFFFFFFFFFFFFFFFFFFFFFFFFFFFFF AND PUSH20 0xFFFFFFFFFFFFFFFFFFFFFFFFFFFFFFFFFFFFFFFF AND DUP2 MSTORE PUSH1 0x20 ADD SWAP1 DUP2 MSTORE PUSH1 0x20 ADD PUSH1 0x0 KECCAK256 SWAP1 POP PUSH1 0x40 MLOAD DUP1 PUSH1 0x40 ADD PUSH1 0x40 MSTORE DUP1 PUSH1 0x8 DUP2 MSTORE PUSH1 0x20 ADD PUSH32 0x4D79205370616365000000000000000000000000000000000000000000000000 DUP2 MSTORE POP DUP2 PUSH1 0x0 ADD SWAP1 DUP2 PUSH2 0x200B SWAP2 SWAP1 PUSH2 0x333D JUMP JUMPDEST POP DUP2 DUP2 PUSH1 0x1 ADD PUSH1 0x0 PUSH2 0x100 EXP DUP2 SLOAD DUP2 PUSH20 0xFFFFFFFFFFFFFFFFFFFFFFFFFFFFFFFFFFFFFFFF MUL NOT AND SWAP1 DUP4 PUSH20 0xFFFFFFFFFFFFFFFFFFFFFFFFFFFFFFFFFFFFFFFF AND MUL OR SWAP1 SSTORE POP TIMESTAMP DUP2 PUSH1 0x2 ADD DUP2 SWAP1 SSTORE POP POP JUMPDEST POP JUMP JUMPDEST PUSH1 0x40 MLOAD DUP1 PUSH1 0xA0 ADD PUSH1 0x40 MSTORE DUP1 PUSH1 0x60 DUP2 MSTORE PUSH1 0x20 ADD PUSH1 0x60 DUP2 MSTORE PUSH1 0x20 ADD PUSH1 0x0 DUP2 MSTORE PUSH1 0x20 ADD PUSH1 0x60 DUP2 MSTORE PUSH1 0x20 ADD PUSH1 0x0 DUP2 MSTORE POP SWAP1 JUMP JUMPDEST PUSH1 0x40 MLOAD DUP1 PUSH1 0xA0 ADD PUSH1 0x40 MSTORE DUP1 PUSH1 0x60 DUP2 MSTORE PUSH1 0x20 ADD PUSH1 0x0 DUP2 MSTORE PUSH1 0x20 ADD PUSH1 0x60 DUP2 MSTORE PUSH1 0x20 ADD PUSH1 0x60 DUP2 MSTORE PUSH1 0x20 ADD PUSH1 0x60 DUP2 MSTORE POP SWAP1 JUMP JUMPDEST POP DUP1 SLOAD PUSH2 0x20C7 SWAP1 PUSH2 0x2CD8 JUMP JUMPDEST PUSH1 0x0 DUP3 SSTORE DUP1 PUSH1 0x1F LT PUSH2 0x20D9 JUMPI POP PUSH2 0x20F8 JUMP JUMPDEST PUSH1 0x1F ADD PUSH1 0x20 SWAP1 DIV SWAP1 PUSH1 0x0 MSTORE PUSH1 0x20 PUSH1 0x0 KECCAK256 SWAP1 DUP2 ADD SWAP1 PUSH2 0x20F7 SWAP2 SWAP1 PUSH2 0x2140 JUMP JUMPDEST JUMPDEST POP JUMP JUMPDEST POP DUP1 SLOAD PUSH1 0x0 DUP3 SSTORE SWAP1 PUSH1 0x0 MSTORE PUSH1 0x20 PUSH1 0x0 KECCAK256 SWAP1 DUP2 ADD SWAP1 PUSH2 0x2119 SWAP2 SWAP1 PUSH2 0x215D JUMP JUMPDEST POP JUMP JUMPDEST POP DUP1 SLOAD PUSH1 0x0 DUP3 SSTORE PUSH1 0x6 MUL SWAP1 PUSH1 0x0 MSTORE PUSH1 0x20 PUSH1 0x0 KECCAK256 SWAP1 DUP2 ADD SWAP1 PUSH2 0x213D SWAP2 SWAP1 PUSH2 0x2181 JUMP JUMPDEST POP JUMP JUMPDEST JUMPDEST DUP1 DUP3 GT ISZERO PUSH2 0x2159 JUMPI PUSH1 0x0 DUP2 PUSH1 0x0 SWAP1 SSTORE POP PUSH1 0x1 ADD PUSH2 0x2141 JUMP JUMPDEST POP SWAP1 JUMP JUMPDEST JUMPDEST DUP1 DUP3 GT ISZERO PUSH2 0x217D JUMPI PUSH1 0x0 DUP2 DUP2 PUSH2 0x2174 SWAP2 SWAP1 PUSH2 0x20BB JUMP JUMPDEST POP PUSH1 0x1 ADD PUSH2 0x215E JUMP JUMPDEST POP SWAP1 JUMP JUMPDEST JUMPDEST DUP1 DUP3 GT ISZERO PUSH2 0x21FB JUMPI PUSH1 0x0 DUP1 DUP3 ADD PUSH1 0x0 PUSH2 0x219B SWAP2 SWAP1 PUSH2 0x20BB JUMP JUMPDEST PUSH1 0x1 DUP3 ADD PUSH1 0x0 PUSH2 0x21AB SWAP2 SWAP1 PUSH2 0x20BB JUMP JUMPDEST PUSH1 0x2 DUP3 ADD PUSH1 0x0 SWAP1 SSTORE PUSH1 0x3 DUP3 ADD PUSH1 0x0 PUSH2 0x21C3 SWAP2 SWAP1 PUSH2 0x20BB JUMP JUMPDEST PUSH1 0x4 DUP3 ADD PUSH1 0x0 PUSH2 0x100 EXP DUP2 SLOAD SWAP1 PUSH20 0xFFFFFFFFFFFFFFFFFFFFFFFFFFFFFFFFFFFFFFFF MUL NOT AND SWAP1 SSTORE PUSH1 0x5 DUP3 ADD PUSH1 0x0 SWAP1 SSTORE POP PUSH1 0x6 ADD PUSH2 0x2182 JUMP JUMPDEST POP SWAP1 JUMP JUMPDEST PUSH1 0x0 DUP2 MLOAD SWAP1 POP SWAP2 SWAP1 POP JUMP JUMPDEST PUSH1 0x0 DUP3 DUP3 MSTORE PUSH1 0x20 DUP3 ADD SWAP1 POP SWAP3 SWAP2 POP POP JUMP JUMPDEST PUSH1 0x0 DUP2 SWAP1 POP PUSH1 0x20 DUP3 ADD SWAP1 POP SWAP2 SWAP1 POP JUMP JUMPDEST PUSH1 0x0 DUP2 MLOAD SWAP1 POP SWAP2 SWAP1 POP JUMP JUMPDEST PUSH1 0x0 DUP3 DUP3 MSTORE PUSH1 0x20 DUP3 ADD SWAP1 POP SWAP3 SWAP2 POP POP JUMP JUMPDEST PUSH1 0x0 JUMPDEST DUP4 DUP2 LT ISZERO PUSH2 0x2265 JUMPI DUP1 DUP3 ADD MLOAD DUP2 DUP5 ADD MSTORE PUSH1 0x20 DUP2 ADD SWAP1 POP PUSH2 0x224A JUMP JUMPDEST PUSH1 0x0 DUP5 DUP5 ADD MSTORE POP POP POP POP JUMP JUMPDEST PUSH1 0x0 PUSH1 0x1F NOT PUSH1 0x1F DUP4 ADD AND SWAP1 POP SWAP2 SWAP1 POP JUMP JUMPDEST PUSH1 0x0 PUSH2 0x228D DUP3 PUSH2 0x222B JUMP JUMPDEST PUSH2 0x2297 DUP2 DUP6 PUSH2 0x2236 JUMP JUMPDEST SWAP4 POP PUSH2 0x22A7 DUP2 DUP6 PUSH1 0x20 DUP7 ADD PUSH2 0x2247 JUMP JUMPDEST PUSH2 0x22B0 DUP2 PUSH2 0x2271 JUMP JUMPDEST DUP5 ADD SWAP2 POP POP SWAP3 SWAP2 POP POP JUMP JUMPDEST PUSH1 0x0 DUP2 SWAP1 POP SWAP2 SWAP1 POP JUMP JUMPDEST PUSH2 0x22CE DUP2 PUSH2 0x22BB JUMP JUMPDEST DUP3 MSTORE POP POP JUMP JUMPDEST PUSH1 0x0 PUSH1 0xA0 DUP4 ADD PUSH1 0x0 DUP4 ADD MLOAD DUP5 DUP3 SUB PUSH1 0x0 DUP7 ADD MSTORE PUSH2 0x22F1 DUP3 DUP3 PUSH2 0x2282 JUMP JUMPDEST SWAP2 POP POP PUSH1 0x20 DUP4 ADD MLOAD DUP5 DUP3 SUB PUSH1 0x20 DUP7 ADD MSTORE PUSH2 0x230B DUP3 DUP3 PUSH2 0x2282 JUMP JUMPDEST SWAP2 POP POP PUSH1 0x40 DUP4 ADD MLOAD PUSH2 0x2320 PUSH1 0x40 DUP7 ADD DUP3 PUSH2 0x22C5 JUMP JUMPDEST POP PUSH1 0x60 DUP4 ADD MLOAD DUP5 DUP3 SUB PUSH1 0x60 DUP7 ADD MSTORE PUSH2 0x2338 DUP3 DUP3 PUSH2 0x2282 JUMP JUMPDEST SWAP2 POP POP PUSH1 0x80 DUP4 ADD MLOAD PUSH2 0x234D PUSH1 0x80 DUP7 ADD DUP3 PUSH2 0x22C5 JUMP JUMPDEST POP DUP1 SWAP2 POP POP SWAP3 SWAP2 POP POP JUMP JUMPDEST PUSH1 0x0 PUSH2 0x2364 DUP4 DUP4 PUSH2 0x22D4 JUMP JUMPDEST SWAP1 POP SWAP3 SWAP2 POP POP JUMP JUMPDEST PUSH1 0x0 PUSH1 0x20 DUP3 ADD SWAP1 POP SWAP2 SWAP1 POP JUMP JUMPDEST PUSH1 0x0 PUSH2 0x2384 DUP3 PUSH2 0x21FF JUMP JUMPDEST PUSH2 0x238E DUP2 DUP6 PUSH2 0x220A JUMP JUMPDEST SWAP4 POP DUP4 PUSH1 0x20 DUP3 MUL DUP6 ADD PUSH2 0x23A0 DUP6 PUSH2 0x221B JUMP JUMPDEST DUP1 PUSH1 0x0 JUMPDEST DUP6 DUP2 LT ISZERO PUSH2 0x23DC JUMPI DUP5 DUP5 SUB DUP10 MSTORE DUP2 MLOAD PUSH2 0x23BD DUP6 DUP3 PUSH2 0x2358 JUMP JUMPDEST SWAP5 POP PUSH2 0x23C8 DUP4 PUSH2 0x236C JUMP JUMPDEST SWAP3 POP PUSH1 0x20 DUP11 ADD SWAP10 POP POP PUSH1 0x1 DUP2 ADD SWAP1 POP PUSH2 0x23A4 JUMP JUMPDEST POP DUP3 SWAP8 POP DUP8 SWAP6 POP POP POP POP POP POP SWAP3 SWAP2 POP POP JUMP JUMPDEST PUSH1 0x0 PUSH1 0x20 DUP3 ADD SWAP1 POP DUP2 DUP2 SUB PUSH1 0x0 DUP4 ADD MSTORE PUSH2 0x2408 DUP2 DUP5 PUSH2 0x2379 JUMP JUMPDEST SWAP1 POP SWAP3 SWAP2 POP POP JUMP JUMPDEST PUSH1 0x0 DUP3 DUP3 MSTORE PUSH1 0x20 DUP3 ADD SWAP1 POP SWAP3 SWAP2 POP POP JUMP JUMPDEST PUSH1 0x0 PUSH2 0x242C DUP3 PUSH2 0x222B JUMP JUMPDEST PUSH2 0x2436 DUP2 DUP6 PUSH2 0x2410 JUMP JUMPDEST SWAP4 POP PUSH2 0x2446 DUP2 DUP6 PUSH1 0x20 DUP7 ADD PUSH2 0x2247 JUMP JUMPDEST PUSH2 0x244F DUP2 PUSH2 0x2271 JUMP JUMPDEST DUP5 ADD SWAP2 POP POP SWAP3 SWAP2 POP POP JUMP JUMPDEST PUSH1 0x0 PUSH1 0x20 DUP3 ADD SWAP1 POP DUP2 DUP2 SUB PUSH1 0x0 DUP4 ADD MSTORE PUSH2 0x2474 DUP2 DUP5 PUSH2 0x2421 JUMP JUMPDEST SWAP1 POP SWAP3 SWAP2 POP POP JUMP JUMPDEST PUSH1 0x0 PUSH1 0x40 MLOAD SWAP1 POP SWAP1 JUMP JUMPDEST PUSH1 0x0 DUP1 REVERT JUMPDEST PUSH1 0x0 DUP1 REVERT JUMPDEST PUSH1 0x0 DUP1 REVERT JUMPDEST PUSH32 0x4E487B7100000000000000000000000000000000000000000000000000000000 PUSH1 0x0 MSTORE PUSH1 0x41 PUSH1 0x4 MSTORE PUSH1 0x24 PUSH1 0x0 REVERT JUMPDEST PUSH2 0x24CD DUP3 PUSH2 0x2271 JUMP JUMPDEST DUP2 ADD DUP2 DUP2 LT PUSH8 0xFFFFFFFFFFFFFFFF DUP3 GT OR ISZERO PUSH2 0x24EC JUMPI PUSH2 0x24EB PUSH2 0x2495 JUMP JUMPDEST JUMPDEST DUP1 PUSH1 0x40 MSTORE POP POP POP JUMP JUMPDEST PUSH1 0x0 PUSH2 0x24FF PUSH2 0x247C JUMP JUMPDEST SWAP1 POP PUSH2 0x250B DUP3 DUP3 PUSH2 0x24C4 JUMP JUMPDEST SWAP2 SWAP1 POP JUMP JUMPDEST PUSH1 0x0 PUSH8 0xFFFFFFFFFFFFFFFF DUP3 GT ISZERO PUSH2 0x252B JUMPI PUSH2 0x252A PUSH2 0x2495 JUMP JUMPDEST JUMPDEST PUSH1 0x20 DUP3 MUL SWAP1 POP PUSH1 0x20 DUP2 ADD SWAP1 POP SWAP2 SWAP1 POP JUMP JUMPDEST PUSH1 0x0 DUP1 REVERT JUMPDEST PUSH1 0x0 DUP1 REVERT JUMPDEST PUSH1 0x0 PUSH8 0xFFFFFFFFFFFFFFFF DUP3 GT ISZERO PUSH2 0x2561 JUMPI PUSH2 0x2560 PUSH2 0x2495 JUMP JUMPDEST JUMPDEST PUSH2 0x256A DUP3 PUSH2 0x2271 JUMP JUMPDEST SWAP1 POP PUSH1 0x20 DUP2 ADD SWAP1 POP SWAP2 SWAP1 POP JUMP JUMPDEST DUP3 DUP2 DUP4 CALLDATACOPY PUSH1 0x0 DUP4 DUP4 ADD MSTORE POP POP POP JUMP JUMPDEST PUSH1 0x0 PUSH2 0x2599 PUSH2 0x2594 DUP5 PUSH2 0x2546 JUMP JUMPDEST PUSH2 0x24F5 JUMP JUMPDEST SWAP1 POP DUP3 DUP2 MSTORE PUSH1 0x20 DUP2 ADD DUP5 DUP5 DUP5 ADD GT ISZERO PUSH2 0x25B5 JUMPI PUSH2 0x25B4 PUSH2 0x2541 JUMP JUMPDEST JUMPDEST PUSH2 0x25C0 DUP5 DUP3 DUP6 PUSH2 0x2577 JUMP JUMPDEST POP SWAP4 SWAP3 POP POP POP JUMP JUMPDEST PUSH1 0x0 DUP3 PUSH1 0x1F DUP4 ADD SLT PUSH2 0x25DD JUMPI PUSH2 0x25DC PUSH2 0x2490 JUMP JUMPDEST JUMPDEST DUP2 CALLDATALOAD PUSH2 0x25ED DUP5 DUP3 PUSH1 0x20 DUP7 ADD PUSH2 0x2586 JUMP JUMPDEST SWAP2 POP POP SWAP3 SWAP2 POP POP JUMP JUMPDEST PUSH1 0x0 PUSH2 0x2609 PUSH2 0x2604 DUP5 PUSH2 0x2510 JUMP JUMPDEST PUSH2 0x24F5 JUMP JUMPDEST SWAP1 POP DUP1 DUP4 DUP3 MSTORE PUSH1 0x20 DUP3 ADD SWAP1 POP PUSH1 0x20 DUP5 MUL DUP4 ADD DUP6 DUP2 GT ISZERO PUSH2 0x262C JUMPI PUSH2 0x262B PUSH2 0x253C JUMP JUMPDEST JUMPDEST DUP4 JUMPDEST DUP2 DUP2 LT ISZERO PUSH2 0x2673 JUMPI DUP1 CALLDATALOAD PUSH8 0xFFFFFFFFFFFFFFFF DUP2 GT ISZERO PUSH2 0x2651 JUMPI PUSH2 0x2650 PUSH2 0x2490 JUMP JUMPDEST JUMPDEST DUP1 DUP7 ADD PUSH2 0x265E DUP10 DUP3 PUSH2 0x25C8 JUMP JUMPDEST DUP6 MSTORE PUSH1 0x20 DUP6 ADD SWAP5 POP POP POP PUSH1 0x20 DUP2 ADD SWAP1 POP PUSH2 0x262E JUMP JUMPDEST POP POP POP SWAP4 SWAP3 POP POP POP JUMP JUMPDEST PUSH1 0x0 DUP3 PUSH1 0x1F DUP4 ADD SLT PUSH2 0x2692 JUMPI PUSH2 0x2691 PUSH2 0x2490 JUMP JUMPDEST JUMPDEST DUP2 CALLDATALOAD PUSH2 0x26A2 DUP5 DUP3 PUSH1 0x20 DUP7 ADD PUSH2 0x25F6 JUMP JUMPDEST SWAP2 POP POP SWAP3 SWAP2 POP POP JUMP JUMPDEST PUSH1 0x0 PUSH1 0x20 DUP3 DUP5 SUB SLT ISZERO PUSH2 0x26C1 JUMPI PUSH2 0x26C0 PUSH2 0x2486 JUMP JUMPDEST JUMPDEST PUSH1 0x0 DUP3 ADD CALLDATALOAD PUSH8 0xFFFFFFFFFFFFFFFF DUP2 GT ISZERO PUSH2 0x26DF JUMPI PUSH2 0x26DE PUSH2 0x248B JUMP JUMPDEST JUMPDEST PUSH2 0x26EB DUP5 DUP3 DUP6 ADD PUSH2 0x267D JUMP JUMPDEST SWAP2 POP POP SWAP3 SWAP2 POP POP JUMP JUMPDEST PUSH1 0x0 DUP3 DUP3 MSTORE PUSH1 0x20 DUP3 ADD SWAP1 POP SWAP3 SWAP2 POP POP JUMP JUMPDEST PUSH1 0x0 PUSH2 0x2710 DUP3 PUSH2 0x21FF JUMP JUMPDEST PUSH2 0x271A DUP2 DUP6 PUSH2 0x26F4 JUMP JUMPDEST SWAP4 POP DUP4 PUSH1 0x20 DUP3 MUL DUP6 ADD PUSH2 0x272C DUP6 PUSH2 0x221B JUMP JUMPDEST DUP1 PUSH1 0x0 JUMPDEST DUP6 DUP2 LT ISZERO PUSH2 0x2768 JUMPI DUP5 DUP5 SUB DUP10 MSTORE DUP2 MLOAD PUSH2 0x2749 DUP6 DUP3 PUSH2 0x2358 JUMP JUMPDEST SWAP5 POP PUSH2 0x2754 DUP4 PUSH2 0x236C JUMP JUMPDEST SWAP3 POP PUSH1 0x20 DUP11 ADD SWAP10 POP POP PUSH1 0x1 DUP2 ADD SWAP1 POP PUSH2 0x2730 JUMP JUMPDEST POP DUP3 SWAP8 POP DUP8 SWAP6 POP POP POP POP POP POP SWAP3 SWAP2 POP POP JUMP JUMPDEST PUSH1 0x0 DUP2 MLOAD SWAP1 POP SWAP2 SWAP1 POP JUMP JUMPDEST PUSH1 0x0 DUP3 DUP3 MSTORE PUSH1 0x20 DUP3 ADD SWAP1 POP SWAP3 SWAP2 POP POP JUMP JUMPDEST PUSH1 0x0 DUP2 SWAP1 POP PUSH1 0x20 DUP3 ADD SWAP1 POP SWAP2 SWAP1 POP JUMP JUMPDEST PUSH1 0x0 PUSH2 0x27B2 DUP4 DUP4 PUSH2 0x2282 JUMP JUMPDEST SWAP1 POP SWAP3 SWAP2 POP POP JUMP JUMPDEST PUSH1 0x0 PUSH1 0x20 DUP3 ADD SWAP1 POP SWAP2 SWAP1 POP JUMP JUMPDEST PUSH1 0x0 PUSH2 0x27D2 DUP3 PUSH2 0x277A JUMP JUMPDEST PUSH2 0x27DC DUP2 DUP6 PUSH2 0x2785 JUMP JUMPDEST SWAP4 POP DUP4 PUSH1 0x20 DUP3 MUL DUP6 ADD PUSH2 0x27EE DUP6 PUSH2 0x2796 JUMP JUMPDEST DUP1 PUSH1 0x0 JUMPDEST DUP6 DUP2 LT ISZERO PUSH2 0x282A JUMPI DUP5 DUP5 SUB DUP10 MSTORE DUP2 MLOAD PUSH2 0x280B DUP6 DUP3 PUSH2 0x27A6 JUMP JUMPDEST SWAP5 POP PUSH2 0x2816 DUP4 PUSH2 0x27BA JUMP JUMPDEST SWAP3 POP PUSH1 0x20 DUP11 ADD SWAP10 POP POP PUSH1 0x1 DUP2 ADD SWAP1 POP PUSH2 0x27F2 JUMP JUMPDEST POP DUP3 SWAP8 POP DUP8 SWAP6 POP POP POP POP POP POP SWAP3 SWAP2 POP POP JUMP JUMPDEST PUSH1 0x0 PUSH1 0xA0 DUP4 ADD PUSH1 0x0 DUP4 ADD MLOAD DUP5 DUP3 SUB PUSH1 0x0 DUP7 ADD MSTORE PUSH2 0x2859 DUP3 DUP3 PUSH2 0x2282 JUMP JUMPDEST SWAP2 POP POP PUSH1 0x20 DUP4 ADD MLOAD PUSH2 0x286E PUSH1 0x20 DUP7 ADD DUP3 PUSH2 0x22C5 JUMP JUMPDEST POP PUSH1 0x40 DUP4 ADD MLOAD DUP5 DUP3 SUB PUSH1 0x40 DUP7 ADD MSTORE PUSH2 0x2886 DUP3 DUP3 PUSH2 0x2705 JUMP JUMPDEST SWAP2 POP POP PUSH1 0x60 DUP4 ADD MLOAD DUP5 DUP3 SUB PUSH1 0x60 DUP7 ADD MSTORE PUSH2 0x28A0 DUP3 DUP3 PUSH2 0x27C7 JUMP JUMPDEST SWAP2 POP POP PUSH1 0x80 DUP4 ADD MLOAD DUP5 DUP3 SUB PUSH1 0x80 DUP7 ADD MSTORE PUSH2 0x28BA DUP3 DUP3 PUSH2 0x2705 JUMP JUMPDEST SWAP2 POP POP DUP1 SWAP2 POP POP SWAP3 SWAP2 POP POP JUMP JUMPDEST PUSH1 0x0 PUSH1 0x20 DUP3 ADD SWAP1 POP DUP2 DUP2 SUB PUSH1 0x0 DUP4 ADD MSTORE PUSH2 0x28E1 DUP2 DUP5 PUSH2 0x283C JUMP JUMPDEST SWAP1 POP SWAP3 SWAP2 POP POP JUMP JUMPDEST PUSH1 0x0 DUP1 PUSH1 0x40 DUP4 DUP6 SUB SLT ISZERO PUSH2 0x2900 JUMPI PUSH2 0x28FF PUSH2 0x2486 JUMP JUMPDEST JUMPDEST PUSH1 0x0 DUP4 ADD CALLDATALOAD PUSH8 0xFFFFFFFFFFFFFFFF DUP2 GT ISZERO PUSH2 0x291E JUMPI PUSH2 0x291D PUSH2 0x248B JUMP JUMPDEST JUMPDEST PUSH2 0x292A DUP6 DUP3 DUP7 ADD PUSH2 0x267D JUMP JUMPDEST SWAP3 POP POP PUSH1 0x20 DUP4 ADD CALLDATALOAD PUSH8 0xFFFFFFFFFFFFFFFF DUP2 GT ISZERO PUSH2 0x294B JUMPI PUSH2 0x294A PUSH2 0x248B JUMP JUMPDEST JUMPDEST PUSH2 0x2957 DUP6 DUP3 DUP7 ADD PUSH2 0x25C8 JUMP JUMPDEST SWAP2 POP POP SWAP3 POP SWAP3 SWAP1 POP JUMP JUMPDEST PUSH2 0x296A DUP2 PUSH2 0x22BB JUMP JUMPDEST DUP2 EQ PUSH2 0x2975 JUMPI PUSH1 0x0 DUP1 REVERT JUMPDEST POP JUMP JUMPDEST PUSH1 0x0 DUP2 CALLDATALOAD SWAP1 POP PUSH2 0x2987 DUP2 PUSH2 0x2961 JUMP JUMPDEST SWAP3 SWAP2 POP POP JUMP JUMPDEST PUSH1 0x0 DUP1 PUSH1 0x0 DUP1 PUSH1 0x0 DUP1 PUSH1 0xC0 DUP8 DUP10 SUB SLT ISZERO PUSH2 0x29AA JUMPI PUSH2 0x29A9 PUSH2 0x2486 JUMP JUMPDEST JUMPDEST PUSH1 0x0 DUP8 ADD CALLDATALOAD PUSH8 0xFFFFFFFFFFFFFFFF DUP2 GT ISZERO PUSH2 0x29C8 JUMPI PUSH2 0x29C7 PUSH2 0x248B JUMP JUMPDEST JUMPDEST PUSH2 0x29D4 DUP10 DUP3 DUP11 ADD PUSH2 0x267D JUMP JUMPDEST SWAP7 POP POP PUSH1 0x20 DUP8 ADD CALLDATALOAD PUSH8 0xFFFFFFFFFFFFFFFF DUP2 GT ISZERO PUSH2 0x29F5 JUMPI PUSH2 0x29F4 PUSH2 0x248B JUMP JUMPDEST JUMPDEST PUSH2 0x2A01 DUP10 DUP3 DUP11 ADD PUSH2 0x25C8 JUMP JUMPDEST SWAP6 POP POP PUSH1 0x40 DUP8 ADD CALLDATALOAD PUSH8 0xFFFFFFFFFFFFFFFF DUP2 GT ISZERO PUSH2 0x2A22 JUMPI PUSH2 0x2A21 PUSH2 0x248B JUMP JUMPDEST JUMPDEST PUSH2 0x2A2E DUP10 DUP3 DUP11 ADD PUSH2 0x25C8 JUMP JUMPDEST SWAP5 POP POP PUSH1 0x60 PUSH2 0x2A3F DUP10 DUP3 DUP11 ADD PUSH2 0x2978 JUMP JUMPDEST SWAP4 POP POP PUSH1 0x80 DUP8 ADD CALLDATALOAD PUSH8 0xFFFFFFFFFFFFFFFF DUP2 GT ISZERO PUSH2 0x2A60 JUMPI PUSH2 0x2A5F PUSH2 0x248B JUMP JUMPDEST JUMPDEST PUSH2 0x2A6C DUP10 DUP3 DUP11 ADD PUSH2 0x25C8 JUMP JUMPDEST SWAP3 POP POP PUSH1 0xA0 DUP8 ADD CALLDATALOAD PUSH8 0xFFFFFFFFFFFFFFFF DUP2 GT ISZERO PUSH2 0x2A8D JUMPI PUSH2 0x2A8C PUSH2 0x248B JUMP JUMPDEST JUMPDEST PUSH2 0x2A99 DUP10 DUP3 DUP11 ADD PUSH2 0x25C8 JUMP JUMPDEST SWAP2 POP POP SWAP3 SWAP6 POP SWAP3 SWAP6 POP SWAP3 SWAP6 JUMP JUMPDEST PUSH1 0x0 PUSH20 0xFFFFFFFFFFFFFFFFFFFFFFFFFFFFFFFFFFFFFFFF DUP3 AND SWAP1 POP SWAP2 SWAP1 POP JUMP JUMPDEST PUSH1 0x0 PUSH2 0x2AD1 DUP3 PUSH2 0x2AA6 JUMP JUMPDEST SWAP1 POP SWAP2 SWAP1 POP JUMP JUMPDEST PUSH2 0x2AE1 DUP2 PUSH2 0x2AC6 JUMP JUMPDEST DUP2 EQ PUSH2 0x2AEC JUMPI PUSH1 0x0 DUP1 REVERT JUMPDEST POP JUMP JUMPDEST PUSH1 0x0 DUP2 CALLDATALOAD SWAP1 POP PUSH2 0x2AFE DUP2 PUSH2 0x2AD8 JUMP JUMPDEST SWAP3 SWAP2 POP POP JUMP JUMPDEST PUSH1 0x0 DUP1 PUSH1 0x0 PUSH1 0x60 DUP5 DUP7 SUB SLT ISZERO PUSH2 0x2B1D JUMPI PUSH2 0x2B1C PUSH2 0x2486 JUMP JUMPDEST JUMPDEST PUSH1 0x0 DUP5 ADD CALLDATALOAD PUSH8 0xFFFFFFFFFFFFFFFF DUP2 GT ISZERO PUSH2 0x2B3B JUMPI PUSH2 0x2B3A PUSH2 0x248B JUMP JUMPDEST JUMPDEST PUSH2 0x2B47 DUP7 DUP3 DUP8 ADD PUSH2 0x267D JUMP JUMPDEST SWAP4 POP POP PUSH1 0x20 DUP5 ADD CALLDATALOAD PUSH8 0xFFFFFFFFFFFFFFFF DUP2 GT ISZERO PUSH2 0x2B68 JUMPI PUSH2 0x2B67 PUSH2 0x248B JUMP JUMPDEST JUMPDEST PUSH2 0x2B74 DUP7 DUP3 DUP8 ADD PUSH2 0x25C8 JUMP JUMPDEST SWAP3 POP POP PUSH1 0x40 PUSH2 0x2B85 DUP7 DUP3 DUP8 ADD PUSH2 0x2AEF JUMP JUMPDEST SWAP2 POP POP SWAP3 POP SWAP3 POP SWAP3 JUMP JUMPDEST PUSH1 0x0 DUP1 PUSH1 0x0 DUP1 PUSH1 0x0 PUSH1 0xA0 DUP7 DUP9 SUB SLT ISZERO PUSH2 0x2BAB JUMPI PUSH2 0x2BAA PUSH2 0x2486 JUMP JUMPDEST JUMPDEST PUSH1 0x0 DUP7 ADD CALLDATALOAD PUSH8 0xFFFFFFFFFFFFFFFF DUP2 GT ISZERO PUSH2 0x2BC9 JUMPI PUSH2 0x2BC8 PUSH2 0x248B JUMP JUMPDEST JUMPDEST PUSH2 0x2BD5 DUP9 DUP3 DUP10 ADD PUSH2 0x267D JUMP JUMPDEST SWAP6 POP POP PUSH1 0x20 DUP7 ADD CALLDATALOAD PUSH8 0xFFFFFFFFFFFFFFFF DUP2 GT ISZERO PUSH2 0x2BF6 JUMPI PUSH2 0x2BF5 PUSH2 0x248B JUMP JUMPDEST JUMPDEST PUSH2 0x2C02 DUP9 DUP3 DUP10 ADD PUSH2 0x25C8 JUMP JUMPDEST SWAP5 POP POP PUSH1 0x40 DUP7 ADD CALLDATALOAD PUSH8 0xFFFFFFFFFFFFFFFF DUP2 GT ISZERO PUSH2 0x2C23 JUMPI PUSH2 0x2C22 PUSH2 0x248B JUMP JUMPDEST JUMPDEST PUSH2 0x2C2F DUP9 DUP3 DUP10 ADD PUSH2 0x25C8 JUMP JUMPDEST SWAP4 POP POP PUSH1 0x60 PUSH2 0x2C40 DUP9 DUP3 DUP10 ADD PUSH2 0x2978 JUMP JUMPDEST SWAP3 POP POP PUSH1 0x80 DUP7 ADD CALLDATALOAD PUSH8 0xFFFFFFFFFFFFFFFF DUP2 GT ISZERO PUSH2 0x2C61 JUMPI PUSH2 0x2C60 PUSH2 0x248B JUMP JUMPDEST JUMPDEST PUSH2 0x2C6D DUP9 DUP3 DUP10 ADD PUSH2 0x25C8 JUMP JUMPDEST SWAP2 POP POP SWAP3 SWAP6 POP SWAP3 SWAP6 SWAP1 SWAP4 POP JUMP JUMPDEST PUSH32 0x4E487B7100000000000000000000000000000000000000000000000000000000 PUSH1 0x0 MSTORE PUSH1 0x32 PUSH1 0x4 MSTORE PUSH1 0x24 PUSH1 0x0 REVERT JUMPDEST PUSH32 0x4E487B7100000000000000000000000000000000000000000000000000000000 PUSH1 0x0 MSTORE PUSH1 0x22 PUSH1 0x4 MSTORE PUSH1 0x24 PUSH1 0x0 REVERT JUMPDEST PUSH1 0x0 PUSH1 0x2 DUP3 DIV SWAP1 POP PUSH1 0x1 DUP3 AND DUP1 PUSH2 0x2CF0 JUMPI PUSH1 0x7F DUP3 AND SWAP2 POP JUMPDEST PUSH1 0x20 DUP3 LT DUP2 SUB PUSH2 0x2D03 JUMPI PUSH2 0x2D02 PUSH2 0x2CA9 JUMP JUMPDEST JUMPDEST POP SWAP2 SWAP1 POP JUMP JUMPDEST PUSH1 0x0 DUP2 SWAP1 POP SWAP3 SWAP2 POP POP JUMP JUMPDEST PUSH1 0x0 PUSH2 0x2D1F DUP3 PUSH2 0x222B JUMP JUMPDEST PUSH2 0x2D29 DUP2 DUP6 PUSH2 0x2D09 JUMP JUMPDEST SWAP4 POP PUSH2 0x2D39 DUP2 DUP6 PUSH1 0x20 DUP7 ADD PUSH2 0x2247 JUMP JUMPDEST DUP1 DUP5 ADD SWAP2 POP POP SWAP3 SWAP2 POP POP JUMP JUMPDEST PUSH1 0x0 PUSH2 0x2D51 DUP3 DUP5 PUSH2 0x2D14 JUMP JUMPDEST SWAP2 POP DUP2 SWAP1 POP SWAP3 SWAP2 POP POP JUMP JUMPDEST PUSH32 0x466F6C64657220646F6573206E6F742065786973740000000000000000000000 PUSH1 0x0 DUP3 ADD MSTORE POP JUMP JUMPDEST PUSH1 0x0 PUSH2 0x2D92 PUSH1 0x15 DUP4 PUSH2 0x2410 JUMP JUMPDEST SWAP2 POP PUSH2 0x2D9D DUP3 PUSH2 0x2D5C JUMP JUMPDEST PUSH1 0x20 DUP3 ADD SWAP1 POP SWAP2 SWAP1 POP JUMP JUMPDEST PUSH1 0x0 PUSH1 0x20 DUP3 ADD SWAP1 POP DUP2 DUP2 SUB PUSH1 0x0 DUP4 ADD MSTORE PUSH2 0x2DC1 DUP2 PUSH2 0x2D85 JUMP JUMPDEST SWAP1 POP SWAP2 SWAP1 POP JUMP JUMPDEST PUSH32 0x4974656D20646F6573206E6F7420657869737400000000000000000000000000 PUSH1 0x0 DUP3 ADD MSTORE POP JUMP JUMPDEST PUSH1 0x0 PUSH2 0x2DFE PUSH1 0x13 DUP4 PUSH2 0x2410 JUMP JUMPDEST SWAP2 POP PUSH2 0x2E09 DUP3 PUSH2 0x2DC8 JUMP JUMPDEST PUSH1 0x20 DUP3 ADD SWAP1 POP SWAP2 SWAP1 POP JUMP JUMPDEST PUSH1 0x0 PUSH1 0x20 DUP3 ADD SWAP1 POP DUP2 DUP2 SUB PUSH1 0x0 DUP4 ADD MSTORE PUSH2 0x2E2D DUP2 PUSH2 0x2DF1 JUMP JUMPDEST SWAP1 POP SWAP2 SWAP1 POP JUMP JUMPDEST PUSH1 0x0 DUP2 SWAP1 POP SWAP3 SWAP2 POP POP JUMP JUMPDEST PUSH1 0x0 DUP2 SWAP1 POP DUP2 PUSH1 0x0 MSTORE PUSH1 0x20 PUSH1 0x0 KECCAK256 SWAP1 POP SWAP2 SWAP1 POP JUMP JUMPDEST PUSH1 0x0 DUP2 SLOAD PUSH2 0x2E61 DUP2 PUSH2 0x2CD8 JUMP JUMPDEST PUSH2 0x2E6B DUP2 DUP7 PUSH2 0x2E34 JUMP JUMPDEST SWAP5 POP PUSH1 0x1 DUP3 AND PUSH1 0x0 DUP2 EQ PUSH2 0x2E86 JUMPI PUSH1 0x1 DUP2 EQ PUSH2 0x2E9B JUMPI PUSH2 0x2ECE JUMP JUMPDEST PUSH1 0xFF NOT DUP4 AND DUP7 MSTORE DUP2 ISZERO ISZERO DUP3 MUL DUP7 ADD SWAP4 POP PUSH2 0x2ECE JUMP JUMPDEST PUSH2 0x2EA4 DUP6 PUSH2 0x2E3F JUMP JUMPDEST PUSH1 0x0 JUMPDEST DUP4 DUP2 LT ISZERO PUSH2 0x2EC6 JUMPI DUP2 SLOAD DUP2 DUP10 ADD MSTORE PUSH1 0x1 DUP3 ADD SWAP2 POP PUSH1 0x20 DUP2 ADD SWAP1 POP PUSH2 0x2EA7 JUMP JUMPDEST DUP4 DUP9 ADD SWAP6 POP POP POP JUMPDEST POP POP POP SWAP3 SWAP2 POP POP JUMP JUMPDEST PUSH1 0x0 PUSH2 0x2EE3 DUP3 DUP5 PUSH2 0x2E54 JUMP JUMPDEST SWAP2 POP DUP2 SWAP1 POP SWAP3 SWAP2 POP POP JUMP JUMPDEST PUSH32 0x4E487B7100000000000000000000000000000000000000000000000000000000 PUSH1 0x0 MSTORE PUSH1 0x11 PUSH1 0x4 MSTORE PUSH1 0x24 PUSH1 0x0 REVERT JUMPDEST PUSH1 0x0 PUSH2 0x2F28 DUP3 PUSH2 0x22BB JUMP JUMPDEST SWAP2 POP PUSH2 0x2F33 DUP4 PUSH2 0x22BB JUMP JUMPDEST SWAP3 POP DUP3 DUP3 SUB SWAP1 POP DUP2 DUP2 GT ISZERO PUSH2 0x2F4B JUMPI PUSH2 0x2F4A PUSH2 0x2EEE JUMP JUMPDEST JUMPDEST SWAP3 SWAP2 POP POP JUMP JUMPDEST PUSH1 0x0 DUP2 SLOAD SWAP1 POP PUSH2 0x2F60 DUP2 PUSH2 0x2CD8 JUMP JUMPDEST SWAP1 POP SWAP2 SWAP1 POP JUMP JUMPDEST PUSH1 0x0 DUP2 SWAP1 POP DUP2 PUSH1 0x0 MSTORE PUSH1 0x20 PUSH1 0x0 KECCAK256 SWAP1 POP SWAP2 SWAP1 POP JUMP JUMPDEST PUSH1 0x0 DUP2 SWAP1 POP DUP2 PUSH1 0x0 MSTORE PUSH1 0x20 PUSH1 0x0 KECCAK256 SWAP1 POP SWAP2 SWAP1 POP JUMP JUMPDEST PUSH1 0x0 PUSH1 0x20 PUSH1 0x1F DUP4 ADD DIV SWAP1 POP SWAP2 SWAP1 POP JUMP JUMPDEST PUSH1 0x0 DUP3 DUP3 SHL SWAP1 POP SWAP3 SWAP2 POP POP JUMP JUMPDEST PUSH1 0x0 PUSH1 0x8 DUP4 MUL PUSH2 0x2FDE PUSH32 0xFFFFFFFFFFFFFFFFFFFFFFFFFFFFFFFFFFFFFFFFFFFFFFFFFFFFFFFFFFFFFFFF DUP3 PUSH2 0x2FA1 JUMP JUMPDEST PUSH2 0x2FE8 DUP7 DUP4 PUSH2 0x2FA1 JUMP JUMPDEST SWAP6 POP DUP1 NOT DUP5 AND SWAP4 POP DUP1 DUP7 AND DUP5 OR SWAP3 POP POP POP SWAP4 SWAP3 POP POP POP JUMP JUMPDEST PUSH1 0x0 DUP2 SWAP1 POP SWAP2 SWAP1 POP JUMP JUMPDEST PUSH1 0x0 PUSH2 0x3025 PUSH2 0x3020 PUSH2 0x301B DUP5 PUSH2 0x22BB JUMP JUMPDEST PUSH2 0x3000 JUMP JUMPDEST PUSH2 0x22BB JUMP JUMPDEST SWAP1 POP SWAP2 SWAP1 POP JUMP JUMPDEST PUSH1 0x0 DUP2 SWAP1 POP SWAP2 SWAP1 POP JUMP JUMPDEST PUSH2 0x303F DUP4 PUSH2 0x300A JUMP JUMPDEST PUSH2 0x3053 PUSH2 0x304B DUP3 PUSH2 0x302C JUMP JUMPDEST DUP5 DUP5 SLOAD PUSH2 0x2FAE JUMP JUMPDEST DUP3 SSTORE POP POP POP POP JUMP JUMPDEST PUSH1 0x0 SWAP1 JUMP JUMPDEST PUSH2 0x3068 PUSH2 0x305B JUMP JUMPDEST PUSH2 0x3073 DUP2 DUP5 DUP5 PUSH2 0x3036 JUMP JUMPDEST POP POP POP JUMP JUMPDEST JUMPDEST DUP2 DUP2 LT ISZERO PUSH2 0x3097 JUMPI PUSH2 0x308C PUSH1 0x0 DUP3 PUSH2 0x3060 JUMP JUMPDEST PUSH1 0x1 DUP2 ADD SWAP1 POP PUSH2 0x3079 JUMP JUMPDEST POP POP JUMP JUMPDEST PUSH1 0x1F DUP3 GT ISZERO PUSH2 0x30DC JUMPI PUSH2 0x30AD DUP2 PUSH2 0x2F67 JUMP JUMPDEST PUSH2 0x30B6 DUP5 PUSH2 0x2F91 JUMP JUMPDEST DUP2 ADD PUSH1 0x20 DUP6 LT ISZERO PUSH2 0x30C5 JUMPI DUP2 SWAP1 POP JUMPDEST PUSH2 0x30D9 PUSH2 0x30D1 DUP6 PUSH2 0x2F91 JUMP JUMPDEST DUP4 ADD DUP3 PUSH2 0x3078 JUMP JUMPDEST POP POP JUMPDEST POP POP POP JUMP JUMPDEST PUSH1 0x0 DUP3 DUP3 SHR SWAP1 POP SWAP3 SWAP2 POP POP JUMP JUMPDEST PUSH1 0x0 PUSH2 0x30FF PUSH1 0x0 NOT DUP5 PUSH1 0x8 MUL PUSH2 0x30E1 JUMP JUMPDEST NOT DUP1 DUP4 AND SWAP2 POP POP SWAP3 SWAP2 POP POP JUMP JUMPDEST PUSH1 0x0 PUSH2 0x3118 DUP4 DUP4 PUSH2 0x30EE JUMP JUMPDEST SWAP2 POP DUP3 PUSH1 0x2 MUL DUP3 OR SWAP1 POP SWAP3 SWAP2 POP POP JUMP JUMPDEST DUP2 DUP2 SUB PUSH2 0x3136 JUMPI POP POP PUSH2 0x320E JUMP JUMPDEST PUSH2 0x313F DUP3 PUSH2 0x2F51 JUMP JUMPDEST PUSH8 0xFFFFFFFFFFFFFFFF DUP2 GT ISZERO PUSH2 0x3158 JUMPI PUSH2 0x3157 PUSH2 0x2495 JUMP JUMPDEST JUMPDEST PUSH2 0x3162 DUP3 SLOAD PUSH2 0x2CD8 JUMP JUMPDEST PUSH2 0x316D DUP3 DUP3 DUP6 PUSH2 0x309B JUMP JUMPDEST PUSH1 0x0 PUSH1 0x1F DUP4 GT PUSH1 0x1 DUP2 EQ PUSH2 0x319C JUMPI PUSH1 0x0 DUP5 ISZERO PUSH2 0x318A JUMPI DUP3 DUP8 ADD SLOAD SWAP1 POP JUMPDEST PUSH2 0x3194 DUP6 DUP3 PUSH2 0x310C JUMP JUMPDEST DUP7 SSTORE POP PUSH2 0x3207 JUMP JUMPDEST PUSH1 0x1F NOT DUP5 AND PUSH2 0x31AA DUP8 PUSH2 0x2F7C JUMP JUMPDEST SWAP7 POP PUSH2 0x31B5 DUP7 PUSH2 0x2F67 JUMP JUMPDEST PUSH1 0x0 JUMPDEST DUP3 DUP2 LT ISZERO PUSH2 0x31DD JUMPI DUP5 DUP10 ADD SLOAD DUP3 SSTORE PUSH1 0x1 DUP3 ADD SWAP2 POP PUSH1 0x1 DUP6 ADD SWAP5 POP PUSH1 0x20 DUP2 ADD SWAP1 POP PUSH2 0x31B8 JUMP JUMPDEST DUP7 DUP4 LT ISZERO PUSH2 0x31FA JUMPI DUP5 DUP10 ADD SLOAD PUSH2 0x31F6 PUSH1 0x1F DUP10 AND DUP3 PUSH2 0x30EE JUMP JUMPDEST DUP4 SSTORE POP JUMPDEST PUSH1 0x1 PUSH1 0x2 DUP9 MUL ADD DUP9 SSTORE POP POP POP JUMPDEST POP POP POP POP POP POP JUMPDEST JUMP JUMPDEST PUSH32 0x4E487B7100000000000000000000000000000000000000000000000000000000 PUSH1 0x0 MSTORE PUSH1 0x31 PUSH1 0x4 MSTORE PUSH1 0x24 PUSH1 0x0 REVERT JUMPDEST PUSH32 0x466F6C64657220616C7265616479206578697374730000000000000000000000 PUSH1 0x0 DUP3 ADD MSTORE POP JUMP JUMPDEST PUSH1 0x0 PUSH2 0x3275 PUSH1 0x15 DUP4 PUSH2 0x2410 JUMP JUMPDEST SWAP2 POP PUSH2 0x3280 DUP3 PUSH2 0x323F JUMP JUMPDEST PUSH1 0x20 DUP3 ADD SWAP1 POP SWAP2 SWAP1 POP JUMP JUMPDEST PUSH1 0x0 PUSH1 0x20 DUP3 ADD SWAP1 POP DUP2 DUP2 SUB PUSH1 0x0 DUP4 ADD MSTORE PUSH2 0x32A4 DUP2 PUSH2 0x3268 JUMP JUMPDEST SWAP1 POP SWAP2 SWAP1 POP JUMP JUMPDEST PUSH32 0x412066696C652077697468207468652073616D65206E616D6520616C72656164 PUSH1 0x0 DUP3 ADD MSTORE PUSH32 0x7920657869737473000000000000000000000000000000000000000000000000 PUSH1 0x20 DUP3 ADD MSTORE POP JUMP JUMPDEST PUSH1 0x0 PUSH2 0x3307 PUSH1 0x28 DUP4 PUSH2 0x2410 JUMP JUMPDEST SWAP2 POP PUSH2 0x3312 DUP3 PUSH2 0x32AB JUMP JUMPDEST PUSH1 0x40 DUP3 ADD SWAP1 POP SWAP2 SWAP1 POP JUMP JUMPDEST PUSH1 0x0 PUSH1 0x20 DUP3 ADD SWAP1 POP DUP2 DUP2 SUB PUSH1 0x0 DUP4 ADD MSTORE PUSH2 0x3336 DUP2 PUSH2 0x32FA JUMP JUMPDEST SWAP1 POP SWAP2 SWAP1 POP JUMP JUMPDEST PUSH2 0x3346 DUP3 PUSH2 0x222B JUMP JUMPDEST PUSH8 0xFFFFFFFFFFFFFFFF DUP2 GT ISZERO PUSH2 0x335F JUMPI PUSH2 0x335E PUSH2 0x2495 JUMP JUMPDEST JUMPDEST PUSH2 0x3369 DUP3 SLOAD PUSH2 0x2CD8 JUMP JUMPDEST PUSH2 0x3374 DUP3 DUP3 DUP6 PUSH2 0x309B JUMP JUMPDEST PUSH1 0x0 PUSH1 0x20 SWAP1 POP PUSH1 0x1F DUP4 GT PUSH1 0x1 DUP2 EQ PUSH2 0x33A7 JUMPI PUSH1 0x0 DUP5 ISZERO PUSH2 0x3395 JUMPI DUP3 DUP8 ADD MLOAD SWAP1 POP JUMPDEST PUSH2 0x339F DUP6 DUP3 PUSH2 0x310C JUMP JUMPDEST DUP7 SSTORE POP PUSH2 0x3407 JUMP JUMPDEST PUSH1 0x1F NOT DUP5 AND PUSH2 0x33B5 DUP7 PUSH2 0x2F67 JUMP JUMPDEST PUSH1 0x0 JUMPDEST DUP3 DUP2 LT ISZERO PUSH2 0x33DD JUMPI DUP5 DUP10 ADD MLOAD DUP3 SSTORE PUSH1 0x1 DUP3 ADD SWAP2 POP PUSH1 0x20 DUP6 ADD SWAP5 POP PUSH1 0x20 DUP2 ADD SWAP1 POP PUSH2 0x33B8 JUMP JUMPDEST DUP7 DUP4 LT ISZERO PUSH2 0x33FA JUMPI DUP5 DUP10 ADD MLOAD PUSH2 0x33F6 PUSH1 0x1F DUP10 AND DUP3 PUSH2 0x30EE JUMP JUMPDEST DUP4 SSTORE POP JUMPDEST PUSH1 0x1 PUSH1 0x2 DUP9 MUL ADD DUP9 SSTORE POP POP POP JUMPDEST POP POP POP POP POP POP JUMP JUMPDEST PUSH32 0x46696C6520646F6573206E6F7420657869737400000000000000000000000000 PUSH1 0x0 DUP3 ADD MSTORE POP JUMP JUMPDEST PUSH1 0x0 PUSH2 0x3445 PUSH1 0x13 DUP4 PUSH2 0x2410 JUMP JUMPDEST SWAP2 POP PUSH2 0x3450 DUP3 PUSH2 0x340F JUMP JUMPDEST PUSH1 0x20 DUP3 ADD SWAP1 POP SWAP2 SWAP1 POP JUMP JUMPDEST PUSH1 0x0 PUSH1 0x20 DUP3 ADD SWAP1 POP DUP2 DUP2 SUB PUSH1 0x0 DUP4 ADD MSTORE PUSH2 0x3474 DUP2 PUSH2 0x3438 JUMP JUMPDEST SWAP1 POP SWAP2 SWAP1 POP JUMP JUMPDEST PUSH32 0x4E65772066696C65206E616D6520616C72656164792065786973747300000000 PUSH1 0x0 DUP3 ADD MSTORE POP JUMP JUMPDEST PUSH1 0x0 PUSH2 0x34B1 PUSH1 0x1C DUP4 PUSH2 0x2410 JUMP JUMPDEST SWAP2 POP PUSH2 0x34BC DUP3 PUSH2 0x347B JUMP JUMPDEST PUSH1 0x20 DUP3 ADD SWAP1 POP SWAP2 SWAP1 POP JUMP JUMPDEST PUSH1 0x0 PUSH1 0x20 DUP3 ADD SWAP1 POP DUP2 DUP2 SUB PUSH1 0x0 DUP4 ADD MSTORE PUSH2 0x34E0 DUP2 PUSH2 0x34A4 JUMP JUMPDEST SWAP1 POP SWAP2 SWAP1 POP JUMP JUMPDEST PUSH32 0x4120666F6C646572207769746820746865206E65772066696C65206E616D6520 PUSH1 0x0 DUP3 ADD MSTORE PUSH32 0x616C726561647920657869737473000000000000000000000000000000000000 PUSH1 0x20 DUP3 ADD MSTORE POP JUMP JUMPDEST PUSH1 0x0 PUSH2 0x3543 PUSH1 0x2E DUP4 PUSH2 0x2410 JUMP JUMPDEST SWAP2 POP PUSH2 0x354E DUP3 PUSH2 0x34E7 JUMP JUMPDEST PUSH1 0x40 DUP3 ADD SWAP1 POP SWAP2 SWAP1 POP JUMP JUMPDEST PUSH1 0x0 PUSH1 0x20 DUP3 ADD SWAP1 POP DUP2 DUP2 SUB PUSH1 0x0 DUP4 ADD MSTORE PUSH2 0x3572 DUP2 PUSH2 0x3536 JUMP JUMPDEST SWAP1 POP SWAP2 SWAP1 POP JUMP JUMPDEST PUSH1 0x0 DUP2 SLOAD SWAP1 POP PUSH2 0x3588 DUP2 PUSH2 0x2CD8 JUMP JUMPDEST SWAP1 POP SWAP2 SWAP1 POP JUMP JUMPDEST DUP2 DUP2 SUB PUSH2 0x359D JUMPI POP POP PUSH2 0x3675 JUMP JUMPDEST PUSH2 0x35A6 DUP3 PUSH2 0x3579 JUMP JUMPDEST PUSH8 0xFFFFFFFFFFFFFFFF DUP2 GT ISZERO PUSH2 0x35BF JUMPI PUSH2 0x35BE PUSH2 0x2495 JUMP JUMPDEST JUMPDEST PUSH2 0x35C9 DUP3 SLOAD PUSH2 0x2CD8 JUMP JUMPDEST PUSH2 0x35D4 DUP3 DUP3 DUP6 PUSH2 0x309B JUMP JUMPDEST PUSH1 0x0 PUSH1 0x1F DUP4 GT PUSH1 0x1 DUP2 EQ PUSH2 0x3603 JUMPI PUSH1 0x0 DUP5 ISZERO PUSH2 0x35F1 JUMPI DUP3 DUP8 ADD SLOAD SWAP1 POP JUMPDEST PUSH2 0x35FB DUP6 DUP3 PUSH2 0x310C JUMP JUMPDEST DUP7 SSTORE POP PUSH2 0x366E JUMP JUMPDEST PUSH1 0x1F NOT DUP5 AND PUSH2 0x3611 DUP8 PUSH2 0x2F67 JUMP JUMPDEST SWAP7 POP PUSH2 0x361C DUP7 PUSH2 0x2F67 JUMP JUMPDEST PUSH1 0x0 JUMPDEST DUP3 DUP2 LT ISZERO PUSH2 0x3644 JUMPI DUP5 DUP10 ADD SLOAD DUP3 SSTORE PUSH1 0x1 DUP3 ADD SWAP2 POP PUSH1 0x1 DUP6 ADD SWAP5 POP PUSH1 0x20 DUP2 ADD SWAP1 POP PUSH2 0x361F JUMP JUMPDEST DUP7 DUP4 LT ISZERO PUSH2 0x3661 JUMPI DUP5 DUP10 ADD SLOAD PUSH2 0x365D PUSH1 0x1F DUP10 AND DUP3 PUSH2 0x30EE JUMP JUMPDEST DUP4 SSTORE POP JUMPDEST PUSH1 0x1 PUSH1 0x2 DUP9 MUL ADD DUP9 SSTORE POP POP POP JUMPDEST POP POP POP POP POP POP JUMPDEST JUMP JUMPDEST PUSH32 0x46696C6520616C72656164792065786973747300000000000000000000000000 PUSH1 0x0 DUP3 ADD MSTORE POP JUMP JUMPDEST PUSH1 0x0 PUSH2 0x36AD PUSH1 0x13 DUP4 PUSH2 0x2410 JUMP JUMPDEST SWAP2 POP PUSH2 0x36B8 DUP3 PUSH2 0x3677 JUMP JUMPDEST PUSH1 0x20 DUP3 ADD SWAP1 POP SWAP2 SWAP1 POP JUMP JUMPDEST PUSH1 0x0 PUSH1 0x20 DUP3 ADD SWAP1 POP DUP2 DUP2 SUB PUSH1 0x0 DUP4 ADD MSTORE PUSH2 0x36DC DUP2 PUSH2 0x36A0 JUMP JUMPDEST SWAP1 POP SWAP2 SWAP1 POP JUMP JUMPDEST PUSH32 0x4120666F6C6465722077697468207468652073616D65206E616D6520616C7265 PUSH1 0x0 DUP3 ADD MSTORE PUSH32 0x6164792065786973747300000000000000000000000000000000000000000000 PUSH1 0x20 DUP3 ADD MSTORE POP JUMP JUMPDEST PUSH1 0x0 PUSH2 0x373F PUSH1 0x2A DUP4 PUSH2 0x2410 JUMP JUMPDEST SWAP2 POP PUSH2 0x374A DUP3 PUSH2 0x36E3 JUMP JUMPDEST PUSH1 0x40 DUP3 ADD SWAP1 POP SWAP2 SWAP1 POP JUMP JUMPDEST PUSH1 0x0 PUSH1 0x20 DUP3 ADD SWAP1 POP DUP2 DUP2 SUB PUSH1 0x0 DUP4 ADD MSTORE PUSH2 0x376E DUP2 PUSH2 0x3732 JUMP JUMPDEST SWAP1 POP SWAP2 SWAP1 POP JUMP JUMPDEST PUSH1 0x0 PUSH2 0x3780 DUP3 PUSH2 0x22BB JUMP JUMPDEST SWAP2 POP PUSH32 0xFFFFFFFFFFFFFFFFFFFFFFFFFFFFFFFFFFFFFFFFFFFFFFFFFFFFFFFFFFFFFFFF DUP3 SUB PUSH2 0x37B2 JUMPI PUSH2 0x37B1 PUSH2 0x2EEE JUMP JUMPDEST JUMPDEST PUSH1 0x1 DUP3 ADD SWAP1 POP SWAP2 SWAP1 POP JUMP INVALID LOG2 PUSH5 0x6970667358 0x22 SLT KECCAK256 LOG2 GASPRICE 0xB0 TIMESTAMP 0x4C 0xF7 INVALID 0xBD GAS POP PUSH9 0x22D3A98E8363A08703 0xCC 0xC6 BLOCKHASH POP 0xB9 SWAP15 PUSH18 0xFC7B0ABCC764736F6C634300081800330000 "
        },
        "methodIdentifiers": {
          "checkUserRootExists()": "37db6c1a",
          "createFolder(string[],string)": "e75c5051",
          "deleteItem(string[],string)": "d3780e10",
          "getFolderData(string[])": "c905819b",
          "getSharedWithMeFiles()": "243a658d",
          "initializeUserRoot()": "e01adc05",
          "shareFileWithUser(string[],string,address)": "f5ded10b",
          "updateFile(string[],string,string,uint256,string,string)": "eff9f64f",
          "uploadFile(string[],string,string,uint256,string)": "f7da18c8"
        }
      }
    }
  }
}