{
  "contracts/smooth.sol": {
    "Smooth": {
      "abi": [
        {
          "inputs": [
            {
              "internalType": "address",
              "name": "_user",
              "type": "address"
            }
          ],
          "name": "checkUserRoot",
          "outputs": [
            {
              "internalType": "bool",
              "name": "",
              "type": "bool"
            }
          ],
          "stateMutability": "view",
          "type": "function"
        },
        {
          "inputs": [
            {
              "internalType": "string[]",
              "name": "_path",
              "type": "string[]"
            },
            {
              "components": [
                {
                  "internalType": "string",
                  "name": "name",
                  "type": "string"
                },
                {
                  "internalType": "string",
                  "name": "cid",
                  "type": "string"
                },
                {
                  "internalType": "uint256",
                  "name": "size",
                  "type": "uint256"
                },
                {
                  "internalType": "string",
                  "name": "fileType",
                  "type": "string"
                }
              ],
              "internalType": "struct Smooth.FileData[]",
              "name": "_files",
              "type": "tuple[]"
            },
            {
              "internalType": "address",
              "name": "_user",
              "type": "address"
            }
          ],
          "name": "createFiles",
          "outputs": [],
          "stateMutability": "nonpayable",
          "type": "function"
        },
        {
          "inputs": [
            {
              "internalType": "string[]",
              "name": "_path",
              "type": "string[]"
            },
            {
              "internalType": "string",
              "name": "_folderName",
              "type": "string"
            },
            {
              "internalType": "address",
              "name": "_user",
              "type": "address"
            }
          ],
          "name": "createFolder",
          "outputs": [],
          "stateMutability": "nonpayable",
          "type": "function"
        },
        {
          "inputs": [
            {
              "internalType": "string[]",
              "name": "_path",
              "type": "string[]"
            },
            {
              "internalType": "string",
              "name": "_fileName",
              "type": "string"
            },
            {
              "internalType": "address",
              "name": "_user",
              "type": "address"
            }
          ],
          "name": "deleteFile",
          "outputs": [],
          "stateMutability": "nonpayable",
          "type": "function"
        },
        {
          "inputs": [
            {
              "internalType": "string[]",
              "name": "_path",
              "type": "string[]"
            },
            {
              "internalType": "string",
              "name": "_folderName",
              "type": "string"
            },
            {
              "internalType": "address",
              "name": "_user",
              "type": "address"
            }
          ],
          "name": "deleteFolder",
          "outputs": [],
          "stateMutability": "nonpayable",
          "type": "function"
        },
        {
          "inputs": [
            {
              "internalType": "string[]",
              "name": "_path",
              "type": "string[]"
            },
            {
              "internalType": "address",
              "name": "_user",
              "type": "address"
            }
          ],
          "name": "getFolderData",
          "outputs": [
            {
              "internalType": "string",
              "name": "",
              "type": "string"
            }
          ],
          "stateMutability": "view",
          "type": "function"
        },
        {
          "inputs": [
            {
              "internalType": "address",
              "name": "_user",
              "type": "address"
            }
          ],
          "name": "initUserRoot",
          "outputs": [
            {
              "internalType": "bool",
              "name": "",
              "type": "bool"
            }
          ],
          "stateMutability": "nonpayable",
          "type": "function"
        },
        {
          "inputs": [
            {
              "internalType": "string[]",
              "name": "_path",
              "type": "string[]"
            },
            {
              "internalType": "string",
              "name": "_fileName",
              "type": "string"
            },
            {
              "internalType": "string",
              "name": "newName",
              "type": "string"
            },
            {
              "internalType": "string",
              "name": "newCid",
              "type": "string"
            },
            {
              "internalType": "uint256",
              "name": "newSize",
              "type": "uint256"
            },
            {
              "internalType": "uint256",
              "name": "newCreatedAt",
              "type": "uint256"
            },
            {
              "internalType": "address",
              "name": "newOwner",
              "type": "address"
            },
            {
              "internalType": "string",
              "name": "newFileType",
              "type": "string"
            },
            {
              "internalType": "address",
              "name": "_user",
              "type": "address"
            }
          ],
          "name": "updateFile",
          "outputs": [],
          "stateMutability": "nonpayable",
          "type": "function"
        },
        {
          "inputs": [
            {
              "internalType": "string[]",
              "name": "_path",
              "type": "string[]"
            },
            {
              "internalType": "string",
              "name": "_folderName",
              "type": "string"
            },
            {
              "internalType": "string",
              "name": "newName",
              "type": "string"
            },
            {
              "internalType": "address",
              "name": "newOwner",
              "type": "address"
            },
            {
              "internalType": "uint256",
              "name": "newCreatedAt",
              "type": "uint256"
            },
            {
              "internalType": "address",
              "name": "_user",
              "type": "address"
            }
          ],
          "name": "updateFolder",
          "outputs": [],
          "stateMutability": "nonpayable",
          "type": "function"
        }
      ],
      "evm": {
        "bytecode": {
          "linkReferences": {},
          "object": "608060405234801561001057600080fd5b5061454b806100206000396000f3fe608060405234801561001057600080fd5b50600436106100935760003560e01c8063958566be11610066578063958566be14610130578063b74083a31461014c578063cc6cd16f14610168578063d9ec271914610184578063e7465d7b146101b457610093565b806301496b8414610098578063140af0e2146100c857806339cf4df2146100f85780634ee37c2814610114575b600080fd5b6100b260048036038101906100ad9190612c7b565b6101d0565b6040516100bf9190612cc3565b60405180910390f35b6100e260048036038101906100dd9190612f0a565b610550565b6040516100ef9190612fe5565b60405180910390f35b610112600480360381019061010d9190613007565b610b8c565b005b61012e6004803603810190610129919061327f565b61103f565b005b61014a6004803603810190610145919061330a565b6113e0565b005b61016660048036038101906101619190613460565b611827565b005b610182600480360381019061017d9190613007565b611bd5565b005b61019e60048036038101906101999190612c7b565b611e64565b6040516101ab9190612cc3565b60405180910390f35b6101ce60048036038101906101c99190613007565b611f0d565b005b60006040516020016101e190613598565b604051602081830303815290604052805190602001206000808473ffffffffffffffffffffffffffffffffffffffff1673ffffffffffffffffffffffffffffffffffffffff16815260200190815260200160002060000160000160405160200161024b91906136a5565b60405160208183030381529060405280519060200120036102a1576040517f08c379a000000000000000000000000000000000000000000000000000000000815260040161029890613708565b60405180910390fd5b6040518060400160405280600481526020017f726f6f74000000000000000000000000000000000000000000000000000000008152506000808473ffffffffffffffffffffffffffffffffffffffff1673ffffffffffffffffffffffffffffffffffffffff168152602001908152602001600020600001600001908161032791906138bf565b50816000808473ffffffffffffffffffffffffffffffffffffffff1673ffffffffffffffffffffffffffffffffffffffff16815260200190815260200160002060000160010160006101000a81548173ffffffffffffffffffffffffffffffffffffffff021916908373ffffffffffffffffffffffffffffffffffffffff160217905550426000808473ffffffffffffffffffffffffffffffffffffffff1673ffffffffffffffffffffffffffffffffffffffff168152602001908152602001600020600001600201819055506040518060400160405280600b81526020017f73686172656453706163650000000000000000000000000000000000000000008152506000808473ffffffffffffffffffffffffffffffffffffffff1673ffffffffffffffffffffffffffffffffffffffff168152602001908152602001600020600501600001908161047a91906138bf565b50816000808473ffffffffffffffffffffffffffffffffffffffff1673ffffffffffffffffffffffffffffffffffffffff16815260200190815260200160002060050160010160006101000a81548173ffffffffffffffffffffffffffffffffffffffff021916908373ffffffffffffffffffffffffffffffffffffffff160217905550426000808473ffffffffffffffffffffffffffffffffffffffff1673ffffffffffffffffffffffffffffffffffffffff1681526020019081526020016000206005016002018190555060019050919050565b606061055b82611e64565b61059a576040517f08c379a0000000000000000000000000000000000000000000000000000000008152600401610591906139dd565b60405180910390fd5b60008060008473ffffffffffffffffffffffffffffffffffffffff1673ffffffffffffffffffffffffffffffffffffffff168152602001908152602001600020600001905060018451111561072c576000600190505b845181101561072a576000805b83600401805490508110156106db5786838151811061061f5761061e6139fd565b5b60200260200101516040516020016106379190613a5d565b60405160208183030381529060405280519060200120846004018281548110610663576106626139fd565b5b906000526020600020906005020160000160405160200161068491906136a5565b60405160208183030381529060405280519060200120036106ce578360040181815481106106b5576106b46139fd565b5b90600052602060002090600502019350600191506106db565b80806001019150506105fd565b508061071c576040517f08c379a000000000000000000000000000000000000000000000000000000000815260040161071390613ac0565b60405180910390fd5b5080806001019150506105f0565b505b60008160000161075f8360010160009054906101000a900473ffffffffffffffffffffffffffffffffffffffff166123c5565b61076c84600201546126ca565b60405160200161077e93929190613c10565b604051602081830303815290604052905060008260030180549050111561099957806040516020016107b09190613cb9565b604051602081830303815290604052905060005b82600301805490508110156109755760008360030182815481106107eb576107ea6139fd565b5b90600052602060002090600602019050600081600001805461080c906135dc565b905011801561082b57506000816001018054610827906135dc565b9050115b801561083b575060008160020154115b801561084b575060008160030154115b80156108a85750600073ffffffffffffffffffffffffffffffffffffffff168160040160009054906101000a900473ffffffffffffffffffffffffffffffffffffffff1673ffffffffffffffffffffffffffffffffffffffff1614155b15610967578281600001826001016108c384600201546126ca565b6108d085600301546126ca565b6108fd8660040160009054906101000a900473ffffffffffffffffffffffffffffffffffffffff166123c5565b866005016040516020016109179796959493929190613e0b565b60405160208183030381529060405292506001846003018054905061093c9190613eec565b82101561096657826040516020016109549190613f6c565b60405160208183030381529060405292505b5b5080806001019150506107c4565b50806040516020016109879190613fda565b60405160208183030381529060405290505b600082600401805490501115610b5f57806040516020016109ba9190614048565b604051602081830303815290604052905060005b8260040180549050811015610b3b5760008360040182815481106109f5576109f46139fd565b5b906000526020600020906005020190506000816000018054610a16906135dc565b9050118015610a765750600073ffffffffffffffffffffffffffffffffffffffff168160010160009054906101000a900473ffffffffffffffffffffffffffffffffffffffff1673ffffffffffffffffffffffffffffffffffffffff1614155b8015610a86575060008160020154115b15610b2d578281600001610abd8360010160009054906101000a900473ffffffffffffffffffffffffffffffffffffffff166123c5565b610aca84600201546126ca565b604051602001610add949392919061406a565b604051602081830303815290604052925060018460040180549050610b029190613eec565b821015610b2c5782604051602001610b1a9190613f6c565b60405160208183030381529060405292505b5b5080806001019150506109ce565b5080604051602001610b4d9190613fda565b60405160208183030381529060405290505b80604051602001610b709190614120565b6040516020818303038152906040529050809250505092915050565b610b9581611e64565b610bd4576040517f08c379a0000000000000000000000000000000000000000000000000000000008152600401610bcb906139dd565b60405180910390fd5b60008060008373ffffffffffffffffffffffffffffffffffffffff1673ffffffffffffffffffffffffffffffffffffffff168152602001908152602001600020600001905060008190506000600190505b8551811015610d8d576000805b8460040180549050811015610d1357878381518110610c5457610c536139fd565b5b6020026020010151604051602001610c6c9190613a5d565b60405160208183030381529060405280519060200120856004018281548110610c9857610c976139fd565b5b9060005260206000209060050201600001604051602001610cb991906136a5565b6040516020818303038152906040528051906020012003610d0657849350846004018181548110610ced57610cec6139fd565b5b9060005260206000209060050201945060019150610d13565b8080600101915050610c32565b5080610d1e836126ca565b604051602001610d2e919061418e565b60405160208183030381529060405290610d7e576040517f08c379a0000000000000000000000000000000000000000000000000000000008152600401610d759190612fe5565b60405180910390fd5b50508080600101915050610c25565b506000805b8260040180549050811015610ff65785604051602001610db29190613a5d565b60405160208183030381529060405280519060200120836004018281548110610dde57610ddd6139fd565b5b9060005260206000209060050201600001604051602001610dff91906136a5565b6040516020818303038152906040528051906020012003610fe9576001915060008190505b60018460040180549050610e389190613eec565b811015610f575783600401600182610e5091906141b0565b81548110610e6157610e606139fd565b5b9060005260206000209060050201846004018281548110610e8557610e846139fd565b5b906000526020600020906005020160008201816000019081610ea791906141fa565b506001820160009054906101000a900473ffffffffffffffffffffffffffffffffffffffff168160010160006101000a81548173ffffffffffffffffffffffffffffffffffffffff021916908373ffffffffffffffffffffffffffffffffffffffff160217905550600282015481600201556003820181600301908054610f2f929190612852565b506004820181600401908054610f46929190612964565b509050508080600101915050610e24565b5082600401805480610f6c57610f6b6142e2565b5b600190038181906000526020600020906005020160008082016000610f919190612a70565b6001820160006101000a81549073ffffffffffffffffffffffffffffffffffffffff02191690556002820160009055600382016000610fd09190612ab0565b600482016000610fe09190612ad4565b50509055610ff6565b8080600101915050610d92565b5080611037576040517f08c379a000000000000000000000000000000000000000000000000000000000815260040161102e9061435d565b60405180910390fd5b505050505050565b61104881611e64565b611087576040517f08c379a000000000000000000000000000000000000000000000000000000000815260040161107e906139dd565b60405180910390fd5b60008060008373ffffffffffffffffffffffffffffffffffffffff1673ffffffffffffffffffffffffffffffffffffffff16815260200190815260200160002060000190506000600190505b8451811015611238576000805b83600401805490508110156111be57868381518110611102576111016139fd565b5b602002602001015160405160200161111a9190613a5d565b60405160208183030381529060405280519060200120846004018281548110611146576111456139fd565b5b906000526020600020906005020160000160405160200161116791906136a5565b60405160208183030381529060405280519060200120036111b157836004018181548110611198576111976139fd565b5b90600052602060002090600502019350600191506111be565b80806001019150506110e0565b50806111c9836126ca565b6040516020016111d9919061418e565b60405160208183030381529060405290611229576040517f08c379a00000000000000000000000000000000000000000000000000000000081526004016112209190612fe5565b60405180910390fd5b505080806001019150506110d3565b5060005b83518110156113d957816003016040518060c00160405280868481518110611267576112666139fd565b5b602002602001015160000151815260200186848151811061128b5761128a6139fd565b5b60200260200101516020015181526020018684815181106112af576112ae6139fd565b5b60200260200101516040015181526020014281526020018573ffffffffffffffffffffffffffffffffffffffff1681526020018684815181106112f5576112f46139fd565b5b6020026020010151606001518152509080600181540180825580915050600190039060005260206000209060060201600090919091909150600082015181600001908161134291906138bf565b50602082015181600101908161135891906138bf565b50604082015181600201556060820151816003015560808201518160040160006101000a81548173ffffffffffffffffffffffffffffffffffffffff021916908373ffffffffffffffffffffffffffffffffffffffff16021790555060a08201518160050190816113c991906138bf565b505050808060010191505061123c565b5050505050565b6113e981611e64565b611428576040517f08c379a000000000000000000000000000000000000000000000000000000000815260040161141f906139dd565b60405180910390fd5b60008060008373ffffffffffffffffffffffffffffffffffffffff1673ffffffffffffffffffffffffffffffffffffffff16815260200190815260200160002060000190506000600190505b8a518110156115d9576000805b836004018054905081101561155f578c83815181106114a3576114a26139fd565b5b60200260200101516040516020016114bb9190613a5d565b604051602081830303815290604052805190602001208460040182815481106114e7576114e66139fd565b5b906000526020600020906005020160000160405160200161150891906136a5565b604051602081830303815290604052805190602001200361155257836004018181548110611539576115386139fd565b5b906000526020600020906005020193506001915061155f565b8080600101915050611481565b508061156a836126ca565b60405160200161157a919061418e565b604051602081830303815290604052906115ca576040517f08c379a00000000000000000000000000000000000000000000000000000000081526004016115c19190612fe5565b60405180910390fd5b50508080600101915050611474565b506000805b82600301805490508110156117d9578a6040516020016115fe9190613a5d565b6040516020818303038152906040528051906020012083600301828154811061162a576116296139fd565b5b906000526020600020906006020160000160405160200161164b91906136a5565b60405160208183030381529060405280519060200120036117cc576001915089836003018281548110611681576116806139fd565b5b9060005260206000209060060201600001908161169e91906138bf565b50888360030182815481106116b6576116b56139fd565b5b906000526020600020906006020160010190816116d391906138bf565b50878360030182815481106116eb576116ea6139fd565b5b90600052602060002090600602016002018190555086836003018281548110611717576117166139fd565b5b90600052602060002090600602016003018190555085836003018281548110611743576117426139fd565b5b906000526020600020906006020160040160006101000a81548173ffffffffffffffffffffffffffffffffffffffff021916908373ffffffffffffffffffffffffffffffffffffffff160217905550848360030182815481106117a9576117a86139fd565b5b906000526020600020906006020160050190816117c691906138bf565b506117d9565b80806001019150506115de565b508061181a576040517f08c379a0000000000000000000000000000000000000000000000000000000008152600401611811906143c9565b60405180910390fd5b5050505050505050505050565b61183081611e64565b61186f576040517f08c379a0000000000000000000000000000000000000000000000000000000008152600401611866906139dd565b60405180910390fd5b60008060008373ffffffffffffffffffffffffffffffffffffffff1673ffffffffffffffffffffffffffffffffffffffff16815260200190815260200160002060000190506000600190505b8751811015611a20576000805b83600401805490508110156119a6578983815181106118ea576118e96139fd565b5b60200260200101516040516020016119029190613a5d565b6040516020818303038152906040528051906020012084600401828154811061192e5761192d6139fd565b5b906000526020600020906005020160000160405160200161194f91906136a5565b6040516020818303038152906040528051906020012003611999578360040181815481106119805761197f6139fd565b5b90600052602060002090600502019350600191506119a6565b80806001019150506118c8565b50806119b1836126ca565b6040516020016119c1919061418e565b60405160208183030381529060405290611a11576040517f08c379a0000000000000000000000000000000000000000000000000000000008152600401611a089190612fe5565b60405180910390fd5b505080806001019150506118bb565b506000805b8260040180549050811015611b8a5787604051602001611a459190613a5d565b60405160208183030381529060405280519060200120836004018281548110611a7157611a706139fd565b5b9060005260206000209060050201600001604051602001611a9291906136a5565b6040516020818303038152906040528051906020012003611b7d576001915086836004018281548110611ac857611ac76139fd565b5b90600052602060002090600502016000019081611ae591906138bf565b5085836004018281548110611afd57611afc6139fd565b5b906000526020600020906005020160010160006101000a81548173ffffffffffffffffffffffffffffffffffffffff021916908373ffffffffffffffffffffffffffffffffffffffff16021790555084836004018281548110611b6357611b626139fd565b5b906000526020600020906005020160020181905550611b8a565b8080600101915050611a25565b5080611bcb576040517f08c379a0000000000000000000000000000000000000000000000000000000008152600401611bc29061435d565b60405180910390fd5b5050505050505050565b611bde81611e64565b611c1d576040517f08c379a0000000000000000000000000000000000000000000000000000000008152600401611c14906139dd565b60405180910390fd5b60008060008373ffffffffffffffffffffffffffffffffffffffff1673ffffffffffffffffffffffffffffffffffffffff16815260200190815260200160002060000190506000600190505b8451811015611da3576000805b8360040180549050811015611d5457868381518110611c9857611c976139fd565b5b6020026020010151604051602001611cb09190613a5d565b60405160208183030381529060405280519060200120846004018281548110611cdc57611cdb6139fd565b5b9060005260206000209060050201600001604051602001611cfd91906136a5565b6040516020818303038152906040528051906020012003611d4757836004018181548110611d2e57611d2d6139fd565b5b9060005260206000209060050201935060019150611d54565b8080600101915050611c76565b5080611d95576040517f08c379a0000000000000000000000000000000000000000000000000000000008152600401611d8c90613ac0565b60405180910390fd5b508080600101915050611c69565b50806004016001816001815401808255809150500390600052602060002090505060008160040160018360040180549050611dde9190613eec565b81548110611def57611dee6139fd565b5b9060005260206000209060050201905083816000019081611e1091906138bf565b50828160010160006101000a81548173ffffffffffffffffffffffffffffffffffffffff021916908373ffffffffffffffffffffffffffffffffffffffff1602179055504281600201819055505050505050565b6000604051602001611e7590613598565b604051602081830303815290604052805190602001206000808473ffffffffffffffffffffffffffffffffffffffff1673ffffffffffffffffffffffffffffffffffffffff168152602001908152602001600020600001600001604051602001611edf91906136a5565b6040516020818303038152906040528051906020012014611f035760009050611f08565b600190505b919050565b611f1681611e64565b611f55576040517f08c379a0000000000000000000000000000000000000000000000000000000008152600401611f4c906139dd565b60405180910390fd5b60008060008373ffffffffffffffffffffffffffffffffffffffff1673ffffffffffffffffffffffffffffffffffffffff16815260200190815260200160002060000190506000600190505b8451811015612106576000805b836004018054905081101561208c57868381518110611fd057611fcf6139fd565b5b6020026020010151604051602001611fe89190613a5d565b60405160208183030381529060405280519060200120846004018281548110612014576120136139fd565b5b906000526020600020906005020160000160405160200161203591906136a5565b604051602081830303815290604052805190602001200361207f57836004018181548110612066576120656139fd565b5b906000526020600020906005020193506001915061208c565b8080600101915050611fae565b5080612097836126ca565b6040516020016120a7919061418e565b604051602081830303815290604052906120f7576040517f08c379a00000000000000000000000000000000000000000000000000000000081526004016120ee9190612fe5565b60405180910390fd5b50508080600101915050611fa1565b506000805b826003018054905081101561237d578460405160200161212b9190613a5d565b60405160208183030381529060405280519060200120836003018281548110612157576121566139fd565b5b906000526020600020906006020160000160405160200161217891906136a5565b6040516020818303038152906040528051906020012003612370576001915060008190505b600184600301805490506121b19190613eec565b8110156122d657836003016001826121c991906141b0565b815481106121da576121d96139fd565b5b90600052602060002090600602018460030182815481106121fe576121fd6139fd565b5b90600052602060002090600602016000820181600001908161222091906141fa565b506001820181600101908161223591906141fa565b5060028201548160020155600382015481600301556004820160009054906101000a900473ffffffffffffffffffffffffffffffffffffffff168160040160006101000a81548173ffffffffffffffffffffffffffffffffffffffff021916908373ffffffffffffffffffffffffffffffffffffffff160217905550600582018160050190816122c591906141fa565b50905050808060010191505061219d565b50826003018054806122eb576122ea6142e2565b5b6001900381819060005260206000209060060201600080820160006123109190612a70565b6001820160006123209190612a70565b600282016000905560038201600090556004820160006101000a81549073ffffffffffffffffffffffffffffffffffffffff02191690556005820160006123679190612a70565b5050905561237d565b808060010191505061210b565b50806123be576040517f08c379a00000000000000000000000000000000000000000000000000000000081526004016123b5906143c9565b60405180910390fd5b5050505050565b606060008273ffffffffffffffffffffffffffffffffffffffff1660001b905060006040518060400160405280601081526020017f303132333435363738396162636465660000000000000000000000000000000081525090506000602a67ffffffffffffffff81111561243c5761243b612cf4565b5b6040519080825280601f01601f19166020018201604052801561246e5781602001600182028036833780820191505090505b5090507f3000000000000000000000000000000000000000000000000000000000000000816000815181106124a6576124a56139fd565b5b60200101907effffffffffffffffffffffffffffffffffffffffffffffffffffffffffffff1916908160001a9053507f78000000000000000000000000000000000000000000000000000000000000008160018151811061250a576125096139fd565b5b60200101907effffffffffffffffffffffffffffffffffffffffffffffffffffffffffffff1916908160001a90535060005b60148110156126be5782600485600c8461255691906141b0565b60208110612567576125666139fd565b5b1a60f81b7effffffffffffffffffffffffffffffffffffffffffffffffffffffffffffff1916901c60f81c60ff16815181106125a6576125a56139fd565b5b602001015160f81c60f81b826002836125bf91906143e9565b60026125cb91906141b0565b815181106125dc576125db6139fd565b5b60200101907effffffffffffffffffffffffffffffffffffffffffffffffffffffffffffff1916908160001a90535082600f60f81b85600c8461261f91906141b0565b602081106126305761262f6139fd565b5b1a60f81b1660f81c60ff168151811061264c5761264b6139fd565b5b602001015160f81c60f81b8260028361266591906143e9565b600361267191906141b0565b81518110612682576126816139fd565b5b60200101907effffffffffffffffffffffffffffffffffffffffffffffffffffffffffffff1916908160001a905350808060010191505061253c565b50809350505050919050565b606060008203612711576040518060400160405280600181526020017f3000000000000000000000000000000000000000000000000000000000000000815250905061284d565b600082905060005b6000821461274357808061272c9061442b565b915050600a8261273c91906144a2565b9150612719565b60008167ffffffffffffffff81111561275f5761275e612cf4565b5b6040519080825280601f01601f1916602001820160405280156127915781602001600182028036833780820191505090505b50905060008290505b60008614612845576001816127af9190613eec565b90506000600a80886127c191906144a2565b6127cb91906143e9565b876127d69190613eec565b60306127e291906144e0565b905060008160f81b905080848481518110612800576127ff6139fd565b5b60200101907effffffffffffffffffffffffffffffffffffffffffffffffffffffffffffff1916908160001a905350600a8861283c91906144a2565b9750505061279a565b819450505050505b919050565b8280548282559060005260206000209060060281019282156129535760005260206000209160060282015b828111156129525782826000820181600001908161289b91906141fa565b50600182018160010190816128b091906141fa565b5060028201548160020155600382015481600301556004820160009054906101000a900473ffffffffffffffffffffffffffffffffffffffff168160040160006101000a81548173ffffffffffffffffffffffffffffffffffffffff021916908373ffffffffffffffffffffffffffffffffffffffff1602179055506005820181600501908161294091906141fa565b5050509160060191906006019061287d565b5b5090506129609190612af8565b5090565b828054828255906000526020600020906005028101928215612a5f5760005260206000209160050282015b82811115612a5e578282600082018160000190816129ad91906141fa565b506001820160009054906101000a900473ffffffffffffffffffffffffffffffffffffffff168160010160006101000a81548173ffffffffffffffffffffffffffffffffffffffff021916908373ffffffffffffffffffffffffffffffffffffffff160217905550600282015481600201556003820181600301908054612a35929190612852565b506004820181600401908054612a4c929190612964565b5050509160050191906005019061298f565b5b509050612a6c9190612b76565b5090565b508054612a7c906135dc565b6000825580601f10612a8e5750612aad565b601f016020900490600052602060002090810190612aac9190612bec565b5b50565b5080546000825560060290600052602060002090810190612ad19190612af8565b50565b5080546000825560050290600052602060002090810190612af59190612b76565b50565b5b80821115612b725760008082016000612b129190612a70565b600182016000612b229190612a70565b600282016000905560038201600090556004820160006101000a81549073ffffffffffffffffffffffffffffffffffffffff0219169055600582016000612b699190612a70565b50600601612af9565b5090565b5b80821115612be85760008082016000612b909190612a70565b6001820160006101000a81549073ffffffffffffffffffffffffffffffffffffffff02191690556002820160009055600382016000612bcf9190612ab0565b600482016000612bdf9190612ad4565b50600501612b77565b5090565b5b80821115612c05576000816000905550600101612bed565b5090565b6000604051905090565b600080fd5b600080fd5b600073ffffffffffffffffffffffffffffffffffffffff82169050919050565b6000612c4882612c1d565b9050919050565b612c5881612c3d565b8114612c6357600080fd5b50565b600081359050612c7581612c4f565b92915050565b600060208284031215612c9157612c90612c13565b5b6000612c9f84828501612c66565b91505092915050565b60008115159050919050565b612cbd81612ca8565b82525050565b6000602082019050612cd86000830184612cb4565b92915050565b600080fd5b6000601f19601f8301169050919050565b7f4e487b7100000000000000000000000000000000000000000000000000000000600052604160045260246000fd5b612d2c82612ce3565b810181811067ffffffffffffffff82111715612d4b57612d4a612cf4565b5b80604052505050565b6000612d5e612c09565b9050612d6a8282612d23565b919050565b600067ffffffffffffffff821115612d8a57612d89612cf4565b5b602082029050602081019050919050565b600080fd5b600080fd5b600067ffffffffffffffff821115612dc057612dbf612cf4565b5b612dc982612ce3565b9050602081019050919050565b82818337600083830152505050565b6000612df8612df384612da5565b612d54565b905082815260208101848484011115612e1457612e13612da0565b5b612e1f848285612dd6565b509392505050565b600082601f830112612e3c57612e3b612cde565b5b8135612e4c848260208601612de5565b91505092915050565b6000612e68612e6384612d6f565b612d54565b90508083825260208201905060208402830185811115612e8b57612e8a612d9b565b5b835b81811015612ed257803567ffffffffffffffff811115612eb057612eaf612cde565b5b808601612ebd8982612e27565b85526020850194505050602081019050612e8d565b5050509392505050565b600082601f830112612ef157612ef0612cde565b5b8135612f01848260208601612e55565b91505092915050565b60008060408385031215612f2157612f20612c13565b5b600083013567ffffffffffffffff811115612f3f57612f3e612c18565b5b612f4b85828601612edc565b9250506020612f5c85828601612c66565b9150509250929050565b600081519050919050565b600082825260208201905092915050565b60005b83811015612fa0578082015181840152602081019050612f85565b60008484015250505050565b6000612fb782612f66565b612fc18185612f71565b9350612fd1818560208601612f82565b612fda81612ce3565b840191505092915050565b60006020820190508181036000830152612fff8184612fac565b905092915050565b6000806000606084860312156130205761301f612c13565b5b600084013567ffffffffffffffff81111561303e5761303d612c18565b5b61304a86828701612edc565b935050602084013567ffffffffffffffff81111561306b5761306a612c18565b5b61307786828701612e27565b925050604061308886828701612c66565b9150509250925092565b600067ffffffffffffffff8211156130ad576130ac612cf4565b5b602082029050602081019050919050565b600080fd5b600080fd5b6000819050919050565b6130db816130c8565b81146130e657600080fd5b50565b6000813590506130f8816130d2565b92915050565b600060808284031215613114576131136130be565b5b61311e6080612d54565b9050600082013567ffffffffffffffff81111561313e5761313d6130c3565b5b61314a84828501612e27565b600083015250602082013567ffffffffffffffff81111561316e5761316d6130c3565b5b61317a84828501612e27565b602083015250604061318e848285016130e9565b604083015250606082013567ffffffffffffffff8111156131b2576131b16130c3565b5b6131be84828501612e27565b60608301525092915050565b60006131dd6131d884613092565b612d54565b90508083825260208201905060208402830185811115613200576131ff612d9b565b5b835b8181101561324757803567ffffffffffffffff81111561322557613224612cde565b5b80860161323289826130fe565b85526020850194505050602081019050613202565b5050509392505050565b600082601f83011261326657613265612cde565b5b81356132768482602086016131ca565b91505092915050565b60008060006060848603121561329857613297612c13565b5b600084013567ffffffffffffffff8111156132b6576132b5612c18565b5b6132c286828701612edc565b935050602084013567ffffffffffffffff8111156132e3576132e2612c18565b5b6132ef86828701613251565b925050604061330086828701612c66565b9150509250925092565b60008060008060008060008060006101208a8c03121561332d5761332c612c13565b5b60008a013567ffffffffffffffff81111561334b5761334a612c18565b5b6133578c828d01612edc565b99505060208a013567ffffffffffffffff81111561337857613377612c18565b5b6133848c828d01612e27565b98505060408a013567ffffffffffffffff8111156133a5576133a4612c18565b5b6133b18c828d01612e27565b97505060608a013567ffffffffffffffff8111156133d2576133d1612c18565b5b6133de8c828d01612e27565b96505060806133ef8c828d016130e9565b95505060a06134008c828d016130e9565b94505060c06134118c828d01612c66565b93505060e08a013567ffffffffffffffff81111561343257613431612c18565b5b61343e8c828d01612e27565b9250506101006134508c828d01612c66565b9150509295985092959850929598565b60008060008060008060c0878903121561347d5761347c612c13565b5b600087013567ffffffffffffffff81111561349b5761349a612c18565b5b6134a789828a01612edc565b965050602087013567ffffffffffffffff8111156134c8576134c7612c18565b5b6134d489828a01612e27565b955050604087013567ffffffffffffffff8111156134f5576134f4612c18565b5b61350189828a01612e27565b945050606061351289828a01612c66565b935050608061352389828a016130e9565b92505060a061353489828a01612c66565b9150509295509295509295565b600081905092915050565b7f726f6f7400000000000000000000000000000000000000000000000000000000600082015250565b6000613582600483613541565b915061358d8261354c565b600482019050919050565b60006135a382613575565b9150819050919050565b7f4e487b7100000000000000000000000000000000000000000000000000000000600052602260045260246000fd5b600060028204905060018216806135f457607f821691505b602082108103613607576136066135ad565b5b50919050565b60008190508160005260206000209050919050565b6000815461362f816135dc565b6136398186613541565b9450600182166000811461365457600181146136695761369c565b60ff198316865281151582028601935061369c565b6136728561360d565b60005b8381101561369457815481890152600182019150602081019050613675565b838801955050505b50505092915050565b60006136b18284613622565b915081905092915050565b7f5573657220616c726561647920696e697469616c697a65640000000000000000600082015250565b60006136f2601883612f71565b91506136fd826136bc565b602082019050919050565b60006020820190508181036000830152613721816136e5565b9050919050565b60006020601f8301049050919050565b600082821b905092915050565b6000600883026137757fffffffffffffffffffffffffffffffffffffffffffffffffffffffffffffffff82613738565b61377f8683613738565b95508019841693508086168417925050509392505050565b6000819050919050565b60006137bc6137b76137b2846130c8565b613797565b6130c8565b9050919050565b6000819050919050565b6137d6836137a1565b6137ea6137e2826137c3565b848454613745565b825550505050565b600090565b6137ff6137f2565b61380a8184846137cd565b505050565b5b8181101561382e576138236000826137f7565b600181019050613810565b5050565b601f821115613873576138448161360d565b61384d84613728565b8101602085101561385c578190505b61387061386885613728565b83018261380f565b50505b505050565b600082821c905092915050565b600061389660001984600802613878565b1980831691505092915050565b60006138af8383613885565b9150826002028217905092915050565b6138c882612f66565b67ffffffffffffffff8111156138e1576138e0612cf4565b5b6138eb82546135dc565b6138f6828285613832565b600060209050601f8311600181146139295760008415613917578287015190505b61392185826138a3565b865550613989565b601f1984166139378661360d565b60005b8281101561395f5784890151825560018201915060208501945060208101905061393a565b8683101561397c5784890151613978601f891682613885565b8355505b6001600288020188555050505b505050505050565b7f5573657220726f6f74206e6f7420696e697469616c697a656400000000000000600082015250565b60006139c7601983612f71565b91506139d282613991565b602082019050919050565b600060208201905081810360008301526139f6816139ba565b9050919050565b7f4e487b7100000000000000000000000000000000000000000000000000000000600052603260045260246000fd5b6000613a3782612f66565b613a418185613541565b9350613a51818560208601612f82565b80840191505092915050565b6000613a698284613a2c565b915081905092915050565b7f5061746820646f6573206e6f7420657869737400000000000000000000000000600082015250565b6000613aaa601383612f71565b9150613ab582613a74565b602082019050919050565b60006020820190508181036000830152613ad981613a9d565b9050919050565b7f7b226e616d65223a220000000000000000000000000000000000000000000000600082015250565b6000613b16600983613541565b9150613b2182613ae0565b600982019050919050565b7f222c226f776e6572223a22000000000000000000000000000000000000000000600082015250565b6000613b62600b83613541565b9150613b6d82613b2c565b600b82019050919050565b7f222c22637265617465644174223a220000000000000000000000000000000000600082015250565b6000613bae600f83613541565b9150613bb982613b78565b600f82019050919050565b7f2200000000000000000000000000000000000000000000000000000000000000600082015250565b6000613bfa600183613541565b9150613c0582613bc4565b600182019050919050565b6000613c1b82613b09565b9150613c278286613622565b9150613c3282613b55565b9150613c3e8285613a2c565b9150613c4982613ba1565b9150613c558284613a2c565b9150613c6082613bed565b9150819050949350505050565b7f2c2266696c6573223a5b00000000000000000000000000000000000000000000600082015250565b6000613ca3600a83613541565b9150613cae82613c6d565b600a82019050919050565b6000613cc58284613a2c565b9150613cd082613c96565b915081905092915050565b7f222c22636964223a220000000000000000000000000000000000000000000000600082015250565b6000613d11600983613541565b9150613d1c82613cdb565b600982019050919050565b7f222c2273697a65223a2200000000000000000000000000000000000000000000600082015250565b6000613d5d600a83613541565b9150613d6882613d27565b600a82019050919050565b7f222c2266696c6554797065223a22000000000000000000000000000000000000600082015250565b6000613da9600e83613541565b9150613db482613d73565b600e82019050919050565b7f227d000000000000000000000000000000000000000000000000000000000000600082015250565b6000613df5600283613541565b9150613e0082613dbf565b600282019050919050565b6000613e17828a613a2c565b9150613e2282613b09565b9150613e2e8289613622565b9150613e3982613d04565b9150613e458288613622565b9150613e5082613d50565b9150613e5c8287613a2c565b9150613e6782613ba1565b9150613e738286613a2c565b9150613e7e82613b55565b9150613e8a8285613a2c565b9150613e9582613d9c565b9150613ea18284613622565b9150613eac82613de8565b915081905098975050505050505050565b7f4e487b7100000000000000000000000000000000000000000000000000000000600052601160045260246000fd5b6000613ef7826130c8565b9150613f02836130c8565b9250828203905081811115613f1a57613f19613ebd565b5b92915050565b7f2c00000000000000000000000000000000000000000000000000000000000000600082015250565b6000613f56600183613541565b9150613f6182613f20565b600182019050919050565b6000613f788284613a2c565b9150613f8382613f49565b915081905092915050565b7f5d00000000000000000000000000000000000000000000000000000000000000600082015250565b6000613fc4600183613541565b9150613fcf82613f8e565b600182019050919050565b6000613fe68284613a2c565b9150613ff182613fb7565b915081905092915050565b7f2c22666f6c64657273223a5b0000000000000000000000000000000000000000600082015250565b6000614032600c83613541565b915061403d82613ffc565b600c82019050919050565b60006140548284613a2c565b915061405f82614025565b915081905092915050565b60006140768287613a2c565b915061408182613b09565b915061408d8286613622565b915061409882613b55565b91506140a48285613a2c565b91506140af82613ba1565b91506140bb8284613a2c565b91506140c682613de8565b915081905095945050505050565b7f7d00000000000000000000000000000000000000000000000000000000000000600082015250565b600061410a600183613541565b9150614115826140d4565b600182019050919050565b600061412c8284613a2c565b9150614137826140fd565b915081905092915050565b7f5061746820646f6573206e6f7420657869737420617420696e64657820000000600082015250565b6000614178601d83613541565b915061418382614142565b601d82019050919050565b60006141998261416b565b91506141a58284613a2c565b915081905092915050565b60006141bb826130c8565b91506141c6836130c8565b92508282019050808211156141de576141dd613ebd565b5b92915050565b6000815490506141f3816135dc565b9050919050565b8181036142085750506142e0565b614211826141e4565b67ffffffffffffffff81111561422a57614229612cf4565b5b61423482546135dc565b61423f828285613832565b6000601f83116001811461426e576000841561425c578287015490505b61426685826138a3565b8655506142d9565b601f19841661427c8761360d565b96506142878661360d565b60005b828110156142af5784890154825560018201915060018501945060208101905061428a565b868310156142cc57848901546142c8601f891682613885565b8355505b6001600288020188555050505b5050505050505b565b7f4e487b7100000000000000000000000000000000000000000000000000000000600052603160045260246000fd5b7f466f6c64657220646f6573206e6f742065786973740000000000000000000000600082015250565b6000614347601583612f71565b915061435282614311565b602082019050919050565b600060208201905081810360008301526143768161433a565b9050919050565b7f46696c6520646f6573206e6f7420657869737400000000000000000000000000600082015250565b60006143b3601383612f71565b91506143be8261437d565b602082019050919050565b600060208201905081810360008301526143e2816143a6565b9050919050565b60006143f4826130c8565b91506143ff836130c8565b925082820261440d816130c8565b9150828204841483151761442457614423613ebd565b5b5092915050565b6000614436826130c8565b91507fffffffffffffffffffffffffffffffffffffffffffffffffffffffffffffffff820361446857614467613ebd565b5b600182019050919050565b7f4e487b7100000000000000000000000000000000000000000000000000000000600052601260045260246000fd5b60006144ad826130c8565b91506144b8836130c8565b9250826144c8576144c7614473565b5b828204905092915050565b600060ff82169050919050565b60006144eb826144d3565b91506144f6836144d3565b9250828201905060ff81111561450f5761450e613ebd565b5b9291505056fea264697066735822122036024ed763fd98e698c72f0124bce77c9a03ad6c0e65b52305c02fc516fed24564736f6c63430008180033",
          "opcodes": "PUSH1 0x80 PUSH1 0x40 MSTORE CALLVALUE DUP1 ISZERO PUSH2 0x10 JUMPI PUSH1 0x0 DUP1 REVERT JUMPDEST POP PUSH2 0x454B DUP1 PUSH2 0x20 PUSH1 0x0 CODECOPY PUSH1 0x0 RETURN INVALID PUSH1 0x80 PUSH1 0x40 MSTORE CALLVALUE DUP1 ISZERO PUSH2 0x10 JUMPI PUSH1 0x0 DUP1 REVERT JUMPDEST POP PUSH1 0x4 CALLDATASIZE LT PUSH2 0x93 JUMPI PUSH1 0x0 CALLDATALOAD PUSH1 0xE0 SHR DUP1 PUSH4 0x958566BE GT PUSH2 0x66 JUMPI DUP1 PUSH4 0x958566BE EQ PUSH2 0x130 JUMPI DUP1 PUSH4 0xB74083A3 EQ PUSH2 0x14C JUMPI DUP1 PUSH4 0xCC6CD16F EQ PUSH2 0x168 JUMPI DUP1 PUSH4 0xD9EC2719 EQ PUSH2 0x184 JUMPI DUP1 PUSH4 0xE7465D7B EQ PUSH2 0x1B4 JUMPI PUSH2 0x93 JUMP JUMPDEST DUP1 PUSH4 0x1496B84 EQ PUSH2 0x98 JUMPI DUP1 PUSH4 0x140AF0E2 EQ PUSH2 0xC8 JUMPI DUP1 PUSH4 0x39CF4DF2 EQ PUSH2 0xF8 JUMPI DUP1 PUSH4 0x4EE37C28 EQ PUSH2 0x114 JUMPI JUMPDEST PUSH1 0x0 DUP1 REVERT JUMPDEST PUSH2 0xB2 PUSH1 0x4 DUP1 CALLDATASIZE SUB DUP2 ADD SWAP1 PUSH2 0xAD SWAP2 SWAP1 PUSH2 0x2C7B JUMP JUMPDEST PUSH2 0x1D0 JUMP JUMPDEST PUSH1 0x40 MLOAD PUSH2 0xBF SWAP2 SWAP1 PUSH2 0x2CC3 JUMP JUMPDEST PUSH1 0x40 MLOAD DUP1 SWAP2 SUB SWAP1 RETURN JUMPDEST PUSH2 0xE2 PUSH1 0x4 DUP1 CALLDATASIZE SUB DUP2 ADD SWAP1 PUSH2 0xDD SWAP2 SWAP1 PUSH2 0x2F0A JUMP JUMPDEST PUSH2 0x550 JUMP JUMPDEST PUSH1 0x40 MLOAD PUSH2 0xEF SWAP2 SWAP1 PUSH2 0x2FE5 JUMP JUMPDEST PUSH1 0x40 MLOAD DUP1 SWAP2 SUB SWAP1 RETURN JUMPDEST PUSH2 0x112 PUSH1 0x4 DUP1 CALLDATASIZE SUB DUP2 ADD SWAP1 PUSH2 0x10D SWAP2 SWAP1 PUSH2 0x3007 JUMP JUMPDEST PUSH2 0xB8C JUMP JUMPDEST STOP JUMPDEST PUSH2 0x12E PUSH1 0x4 DUP1 CALLDATASIZE SUB DUP2 ADD SWAP1 PUSH2 0x129 SWAP2 SWAP1 PUSH2 0x327F JUMP JUMPDEST PUSH2 0x103F JUMP JUMPDEST STOP JUMPDEST PUSH2 0x14A PUSH1 0x4 DUP1 CALLDATASIZE SUB DUP2 ADD SWAP1 PUSH2 0x145 SWAP2 SWAP1 PUSH2 0x330A JUMP JUMPDEST PUSH2 0x13E0 JUMP JUMPDEST STOP JUMPDEST PUSH2 0x166 PUSH1 0x4 DUP1 CALLDATASIZE SUB DUP2 ADD SWAP1 PUSH2 0x161 SWAP2 SWAP1 PUSH2 0x3460 JUMP JUMPDEST PUSH2 0x1827 JUMP JUMPDEST STOP JUMPDEST PUSH2 0x182 PUSH1 0x4 DUP1 CALLDATASIZE SUB DUP2 ADD SWAP1 PUSH2 0x17D SWAP2 SWAP1 PUSH2 0x3007 JUMP JUMPDEST PUSH2 0x1BD5 JUMP JUMPDEST STOP JUMPDEST PUSH2 0x19E PUSH1 0x4 DUP1 CALLDATASIZE SUB DUP2 ADD SWAP1 PUSH2 0x199 SWAP2 SWAP1 PUSH2 0x2C7B JUMP JUMPDEST PUSH2 0x1E64 JUMP JUMPDEST PUSH1 0x40 MLOAD PUSH2 0x1AB SWAP2 SWAP1 PUSH2 0x2CC3 JUMP JUMPDEST PUSH1 0x40 MLOAD DUP1 SWAP2 SUB SWAP1 RETURN JUMPDEST PUSH2 0x1CE PUSH1 0x4 DUP1 CALLDATASIZE SUB DUP2 ADD SWAP1 PUSH2 0x1C9 SWAP2 SWAP1 PUSH2 0x3007 JUMP JUMPDEST PUSH2 0x1F0D JUMP JUMPDEST STOP JUMPDEST PUSH1 0x0 PUSH1 0x40 MLOAD PUSH1 0x20 ADD PUSH2 0x1E1 SWAP1 PUSH2 0x3598 JUMP JUMPDEST PUSH1 0x40 MLOAD PUSH1 0x20 DUP2 DUP4 SUB SUB DUP2 MSTORE SWAP1 PUSH1 0x40 MSTORE DUP1 MLOAD SWAP1 PUSH1 0x20 ADD KECCAK256 PUSH1 0x0 DUP1 DUP5 PUSH20 0xFFFFFFFFFFFFFFFFFFFFFFFFFFFFFFFFFFFFFFFF AND PUSH20 0xFFFFFFFFFFFFFFFFFFFFFFFFFFFFFFFFFFFFFFFF AND DUP2 MSTORE PUSH1 0x20 ADD SWAP1 DUP2 MSTORE PUSH1 0x20 ADD PUSH1 0x0 KECCAK256 PUSH1 0x0 ADD PUSH1 0x0 ADD PUSH1 0x40 MLOAD PUSH1 0x20 ADD PUSH2 0x24B SWAP2 SWAP1 PUSH2 0x36A5 JUMP JUMPDEST PUSH1 0x40 MLOAD PUSH1 0x20 DUP2 DUP4 SUB SUB DUP2 MSTORE SWAP1 PUSH1 0x40 MSTORE DUP1 MLOAD SWAP1 PUSH1 0x20 ADD KECCAK256 SUB PUSH2 0x2A1 JUMPI PUSH1 0x40 MLOAD PUSH32 0x8C379A000000000000000000000000000000000000000000000000000000000 DUP2 MSTORE PUSH1 0x4 ADD PUSH2 0x298 SWAP1 PUSH2 0x3708 JUMP JUMPDEST PUSH1 0x40 MLOAD DUP1 SWAP2 SUB SWAP1 REVERT JUMPDEST PUSH1 0x40 MLOAD DUP1 PUSH1 0x40 ADD PUSH1 0x40 MSTORE DUP1 PUSH1 0x4 DUP2 MSTORE PUSH1 0x20 ADD PUSH32 0x726F6F7400000000000000000000000000000000000000000000000000000000 DUP2 MSTORE POP PUSH1 0x0 DUP1 DUP5 PUSH20 0xFFFFFFFFFFFFFFFFFFFFFFFFFFFFFFFFFFFFFFFF AND PUSH20 0xFFFFFFFFFFFFFFFFFFFFFFFFFFFFFFFFFFFFFFFF AND DUP2 MSTORE PUSH1 0x20 ADD SWAP1 DUP2 MSTORE PUSH1 0x20 ADD PUSH1 0x0 KECCAK256 PUSH1 0x0 ADD PUSH1 0x0 ADD SWAP1 DUP2 PUSH2 0x327 SWAP2 SWAP1 PUSH2 0x38BF JUMP JUMPDEST POP DUP2 PUSH1 0x0 DUP1 DUP5 PUSH20 0xFFFFFFFFFFFFFFFFFFFFFFFFFFFFFFFFFFFFFFFF AND PUSH20 0xFFFFFFFFFFFFFFFFFFFFFFFFFFFFFFFFFFFFFFFF AND DUP2 MSTORE PUSH1 0x20 ADD SWAP1 DUP2 MSTORE PUSH1 0x20 ADD PUSH1 0x0 KECCAK256 PUSH1 0x0 ADD PUSH1 0x1 ADD PUSH1 0x0 PUSH2 0x100 EXP DUP2 SLOAD DUP2 PUSH20 0xFFFFFFFFFFFFFFFFFFFFFFFFFFFFFFFFFFFFFFFF MUL NOT AND SWAP1 DUP4 PUSH20 0xFFFFFFFFFFFFFFFFFFFFFFFFFFFFFFFFFFFFFFFF AND MUL OR SWAP1 SSTORE POP TIMESTAMP PUSH1 0x0 DUP1 DUP5 PUSH20 0xFFFFFFFFFFFFFFFFFFFFFFFFFFFFFFFFFFFFFFFF AND PUSH20 0xFFFFFFFFFFFFFFFFFFFFFFFFFFFFFFFFFFFFFFFF AND DUP2 MSTORE PUSH1 0x20 ADD SWAP1 DUP2 MSTORE PUSH1 0x20 ADD PUSH1 0x0 KECCAK256 PUSH1 0x0 ADD PUSH1 0x2 ADD DUP2 SWAP1 SSTORE POP PUSH1 0x40 MLOAD DUP1 PUSH1 0x40 ADD PUSH1 0x40 MSTORE DUP1 PUSH1 0xB DUP2 MSTORE PUSH1 0x20 ADD PUSH32 0x7368617265645370616365000000000000000000000000000000000000000000 DUP2 MSTORE POP PUSH1 0x0 DUP1 DUP5 PUSH20 0xFFFFFFFFFFFFFFFFFFFFFFFFFFFFFFFFFFFFFFFF AND PUSH20 0xFFFFFFFFFFFFFFFFFFFFFFFFFFFFFFFFFFFFFFFF AND DUP2 MSTORE PUSH1 0x20 ADD SWAP1 DUP2 MSTORE PUSH1 0x20 ADD PUSH1 0x0 KECCAK256 PUSH1 0x5 ADD PUSH1 0x0 ADD SWAP1 DUP2 PUSH2 0x47A SWAP2 SWAP1 PUSH2 0x38BF JUMP JUMPDEST POP DUP2 PUSH1 0x0 DUP1 DUP5 PUSH20 0xFFFFFFFFFFFFFFFFFFFFFFFFFFFFFFFFFFFFFFFF AND PUSH20 0xFFFFFFFFFFFFFFFFFFFFFFFFFFFFFFFFFFFFFFFF AND DUP2 MSTORE PUSH1 0x20 ADD SWAP1 DUP2 MSTORE PUSH1 0x20 ADD PUSH1 0x0 KECCAK256 PUSH1 0x5 ADD PUSH1 0x1 ADD PUSH1 0x0 PUSH2 0x100 EXP DUP2 SLOAD DUP2 PUSH20 0xFFFFFFFFFFFFFFFFFFFFFFFFFFFFFFFFFFFFFFFF MUL NOT AND SWAP1 DUP4 PUSH20 0xFFFFFFFFFFFFFFFFFFFFFFFFFFFFFFFFFFFFFFFF AND MUL OR SWAP1 SSTORE POP TIMESTAMP PUSH1 0x0 DUP1 DUP5 PUSH20 0xFFFFFFFFFFFFFFFFFFFFFFFFFFFFFFFFFFFFFFFF AND PUSH20 0xFFFFFFFFFFFFFFFFFFFFFFFFFFFFFFFFFFFFFFFF AND DUP2 MSTORE PUSH1 0x20 ADD SWAP1 DUP2 MSTORE PUSH1 0x20 ADD PUSH1 0x0 KECCAK256 PUSH1 0x5 ADD PUSH1 0x2 ADD DUP2 SWAP1 SSTORE POP PUSH1 0x1 SWAP1 POP SWAP2 SWAP1 POP JUMP JUMPDEST PUSH1 0x60 PUSH2 0x55B DUP3 PUSH2 0x1E64 JUMP JUMPDEST PUSH2 0x59A JUMPI PUSH1 0x40 MLOAD PUSH32 0x8C379A000000000000000000000000000000000000000000000000000000000 DUP2 MSTORE PUSH1 0x4 ADD PUSH2 0x591 SWAP1 PUSH2 0x39DD JUMP JUMPDEST PUSH1 0x40 MLOAD DUP1 SWAP2 SUB SWAP1 REVERT JUMPDEST PUSH1 0x0 DUP1 PUSH1 0x0 DUP5 PUSH20 0xFFFFFFFFFFFFFFFFFFFFFFFFFFFFFFFFFFFFFFFF AND PUSH20 0xFFFFFFFFFFFFFFFFFFFFFFFFFFFFFFFFFFFFFFFF AND DUP2 MSTORE PUSH1 0x20 ADD SWAP1 DUP2 MSTORE PUSH1 0x20 ADD PUSH1 0x0 KECCAK256 PUSH1 0x0 ADD SWAP1 POP PUSH1 0x1 DUP5 MLOAD GT ISZERO PUSH2 0x72C JUMPI PUSH1 0x0 PUSH1 0x1 SWAP1 POP JUMPDEST DUP5 MLOAD DUP2 LT ISZERO PUSH2 0x72A JUMPI PUSH1 0x0 DUP1 JUMPDEST DUP4 PUSH1 0x4 ADD DUP1 SLOAD SWAP1 POP DUP2 LT ISZERO PUSH2 0x6DB JUMPI DUP7 DUP4 DUP2 MLOAD DUP2 LT PUSH2 0x61F JUMPI PUSH2 0x61E PUSH2 0x39FD JUMP JUMPDEST JUMPDEST PUSH1 0x20 MUL PUSH1 0x20 ADD ADD MLOAD PUSH1 0x40 MLOAD PUSH1 0x20 ADD PUSH2 0x637 SWAP2 SWAP1 PUSH2 0x3A5D JUMP JUMPDEST PUSH1 0x40 MLOAD PUSH1 0x20 DUP2 DUP4 SUB SUB DUP2 MSTORE SWAP1 PUSH1 0x40 MSTORE DUP1 MLOAD SWAP1 PUSH1 0x20 ADD KECCAK256 DUP5 PUSH1 0x4 ADD DUP3 DUP2 SLOAD DUP2 LT PUSH2 0x663 JUMPI PUSH2 0x662 PUSH2 0x39FD JUMP JUMPDEST JUMPDEST SWAP1 PUSH1 0x0 MSTORE PUSH1 0x20 PUSH1 0x0 KECCAK256 SWAP1 PUSH1 0x5 MUL ADD PUSH1 0x0 ADD PUSH1 0x40 MLOAD PUSH1 0x20 ADD PUSH2 0x684 SWAP2 SWAP1 PUSH2 0x36A5 JUMP JUMPDEST PUSH1 0x40 MLOAD PUSH1 0x20 DUP2 DUP4 SUB SUB DUP2 MSTORE SWAP1 PUSH1 0x40 MSTORE DUP1 MLOAD SWAP1 PUSH1 0x20 ADD KECCAK256 SUB PUSH2 0x6CE JUMPI DUP4 PUSH1 0x4 ADD DUP2 DUP2 SLOAD DUP2 LT PUSH2 0x6B5 JUMPI PUSH2 0x6B4 PUSH2 0x39FD JUMP JUMPDEST JUMPDEST SWAP1 PUSH1 0x0 MSTORE PUSH1 0x20 PUSH1 0x0 KECCAK256 SWAP1 PUSH1 0x5 MUL ADD SWAP4 POP PUSH1 0x1 SWAP2 POP PUSH2 0x6DB JUMP JUMPDEST DUP1 DUP1 PUSH1 0x1 ADD SWAP2 POP POP PUSH2 0x5FD JUMP JUMPDEST POP DUP1 PUSH2 0x71C JUMPI PUSH1 0x40 MLOAD PUSH32 0x8C379A000000000000000000000000000000000000000000000000000000000 DUP2 MSTORE PUSH1 0x4 ADD PUSH2 0x713 SWAP1 PUSH2 0x3AC0 JUMP JUMPDEST PUSH1 0x40 MLOAD DUP1 SWAP2 SUB SWAP1 REVERT JUMPDEST POP DUP1 DUP1 PUSH1 0x1 ADD SWAP2 POP POP PUSH2 0x5F0 JUMP JUMPDEST POP JUMPDEST PUSH1 0x0 DUP2 PUSH1 0x0 ADD PUSH2 0x75F DUP4 PUSH1 0x1 ADD PUSH1 0x0 SWAP1 SLOAD SWAP1 PUSH2 0x100 EXP SWAP1 DIV PUSH20 0xFFFFFFFFFFFFFFFFFFFFFFFFFFFFFFFFFFFFFFFF AND PUSH2 0x23C5 JUMP JUMPDEST PUSH2 0x76C DUP5 PUSH1 0x2 ADD SLOAD PUSH2 0x26CA JUMP JUMPDEST PUSH1 0x40 MLOAD PUSH1 0x20 ADD PUSH2 0x77E SWAP4 SWAP3 SWAP2 SWAP1 PUSH2 0x3C10 JUMP JUMPDEST PUSH1 0x40 MLOAD PUSH1 0x20 DUP2 DUP4 SUB SUB DUP2 MSTORE SWAP1 PUSH1 0x40 MSTORE SWAP1 POP PUSH1 0x0 DUP3 PUSH1 0x3 ADD DUP1 SLOAD SWAP1 POP GT ISZERO PUSH2 0x999 JUMPI DUP1 PUSH1 0x40 MLOAD PUSH1 0x20 ADD PUSH2 0x7B0 SWAP2 SWAP1 PUSH2 0x3CB9 JUMP JUMPDEST PUSH1 0x40 MLOAD PUSH1 0x20 DUP2 DUP4 SUB SUB DUP2 MSTORE SWAP1 PUSH1 0x40 MSTORE SWAP1 POP PUSH1 0x0 JUMPDEST DUP3 PUSH1 0x3 ADD DUP1 SLOAD SWAP1 POP DUP2 LT ISZERO PUSH2 0x975 JUMPI PUSH1 0x0 DUP4 PUSH1 0x3 ADD DUP3 DUP2 SLOAD DUP2 LT PUSH2 0x7EB JUMPI PUSH2 0x7EA PUSH2 0x39FD JUMP JUMPDEST JUMPDEST SWAP1 PUSH1 0x0 MSTORE PUSH1 0x20 PUSH1 0x0 KECCAK256 SWAP1 PUSH1 0x6 MUL ADD SWAP1 POP PUSH1 0x0 DUP2 PUSH1 0x0 ADD DUP1 SLOAD PUSH2 0x80C SWAP1 PUSH2 0x35DC JUMP JUMPDEST SWAP1 POP GT DUP1 ISZERO PUSH2 0x82B JUMPI POP PUSH1 0x0 DUP2 PUSH1 0x1 ADD DUP1 SLOAD PUSH2 0x827 SWAP1 PUSH2 0x35DC JUMP JUMPDEST SWAP1 POP GT JUMPDEST DUP1 ISZERO PUSH2 0x83B JUMPI POP PUSH1 0x0 DUP2 PUSH1 0x2 ADD SLOAD GT JUMPDEST DUP1 ISZERO PUSH2 0x84B JUMPI POP PUSH1 0x0 DUP2 PUSH1 0x3 ADD SLOAD GT JUMPDEST DUP1 ISZERO PUSH2 0x8A8 JUMPI POP PUSH1 0x0 PUSH20 0xFFFFFFFFFFFFFFFFFFFFFFFFFFFFFFFFFFFFFFFF AND DUP2 PUSH1 0x4 ADD PUSH1 0x0 SWAP1 SLOAD SWAP1 PUSH2 0x100 EXP SWAP1 DIV PUSH20 0xFFFFFFFFFFFFFFFFFFFFFFFFFFFFFFFFFFFFFFFF AND PUSH20 0xFFFFFFFFFFFFFFFFFFFFFFFFFFFFFFFFFFFFFFFF AND EQ ISZERO JUMPDEST ISZERO PUSH2 0x967 JUMPI DUP3 DUP2 PUSH1 0x0 ADD DUP3 PUSH1 0x1 ADD PUSH2 0x8C3 DUP5 PUSH1 0x2 ADD SLOAD PUSH2 0x26CA JUMP JUMPDEST PUSH2 0x8D0 DUP6 PUSH1 0x3 ADD SLOAD PUSH2 0x26CA JUMP JUMPDEST PUSH2 0x8FD DUP7 PUSH1 0x4 ADD PUSH1 0x0 SWAP1 SLOAD SWAP1 PUSH2 0x100 EXP SWAP1 DIV PUSH20 0xFFFFFFFFFFFFFFFFFFFFFFFFFFFFFFFFFFFFFFFF AND PUSH2 0x23C5 JUMP JUMPDEST DUP7 PUSH1 0x5 ADD PUSH1 0x40 MLOAD PUSH1 0x20 ADD PUSH2 0x917 SWAP8 SWAP7 SWAP6 SWAP5 SWAP4 SWAP3 SWAP2 SWAP1 PUSH2 0x3E0B JUMP JUMPDEST PUSH1 0x40 MLOAD PUSH1 0x20 DUP2 DUP4 SUB SUB DUP2 MSTORE SWAP1 PUSH1 0x40 MSTORE SWAP3 POP PUSH1 0x1 DUP5 PUSH1 0x3 ADD DUP1 SLOAD SWAP1 POP PUSH2 0x93C SWAP2 SWAP1 PUSH2 0x3EEC JUMP JUMPDEST DUP3 LT ISZERO PUSH2 0x966 JUMPI DUP3 PUSH1 0x40 MLOAD PUSH1 0x20 ADD PUSH2 0x954 SWAP2 SWAP1 PUSH2 0x3F6C JUMP JUMPDEST PUSH1 0x40 MLOAD PUSH1 0x20 DUP2 DUP4 SUB SUB DUP2 MSTORE SWAP1 PUSH1 0x40 MSTORE SWAP3 POP JUMPDEST JUMPDEST POP DUP1 DUP1 PUSH1 0x1 ADD SWAP2 POP POP PUSH2 0x7C4 JUMP JUMPDEST POP DUP1 PUSH1 0x40 MLOAD PUSH1 0x20 ADD PUSH2 0x987 SWAP2 SWAP1 PUSH2 0x3FDA JUMP JUMPDEST PUSH1 0x40 MLOAD PUSH1 0x20 DUP2 DUP4 SUB SUB DUP2 MSTORE SWAP1 PUSH1 0x40 MSTORE SWAP1 POP JUMPDEST PUSH1 0x0 DUP3 PUSH1 0x4 ADD DUP1 SLOAD SWAP1 POP GT ISZERO PUSH2 0xB5F JUMPI DUP1 PUSH1 0x40 MLOAD PUSH1 0x20 ADD PUSH2 0x9BA SWAP2 SWAP1 PUSH2 0x4048 JUMP JUMPDEST PUSH1 0x40 MLOAD PUSH1 0x20 DUP2 DUP4 SUB SUB DUP2 MSTORE SWAP1 PUSH1 0x40 MSTORE SWAP1 POP PUSH1 0x0 JUMPDEST DUP3 PUSH1 0x4 ADD DUP1 SLOAD SWAP1 POP DUP2 LT ISZERO PUSH2 0xB3B JUMPI PUSH1 0x0 DUP4 PUSH1 0x4 ADD DUP3 DUP2 SLOAD DUP2 LT PUSH2 0x9F5 JUMPI PUSH2 0x9F4 PUSH2 0x39FD JUMP JUMPDEST JUMPDEST SWAP1 PUSH1 0x0 MSTORE PUSH1 0x20 PUSH1 0x0 KECCAK256 SWAP1 PUSH1 0x5 MUL ADD SWAP1 POP PUSH1 0x0 DUP2 PUSH1 0x0 ADD DUP1 SLOAD PUSH2 0xA16 SWAP1 PUSH2 0x35DC JUMP JUMPDEST SWAP1 POP GT DUP1 ISZERO PUSH2 0xA76 JUMPI POP PUSH1 0x0 PUSH20 0xFFFFFFFFFFFFFFFFFFFFFFFFFFFFFFFFFFFFFFFF AND DUP2 PUSH1 0x1 ADD PUSH1 0x0 SWAP1 SLOAD SWAP1 PUSH2 0x100 EXP SWAP1 DIV PUSH20 0xFFFFFFFFFFFFFFFFFFFFFFFFFFFFFFFFFFFFFFFF AND PUSH20 0xFFFFFFFFFFFFFFFFFFFFFFFFFFFFFFFFFFFFFFFF AND EQ ISZERO JUMPDEST DUP1 ISZERO PUSH2 0xA86 JUMPI POP PUSH1 0x0 DUP2 PUSH1 0x2 ADD SLOAD GT JUMPDEST ISZERO PUSH2 0xB2D JUMPI DUP3 DUP2 PUSH1 0x0 ADD PUSH2 0xABD DUP4 PUSH1 0x1 ADD PUSH1 0x0 SWAP1 SLOAD SWAP1 PUSH2 0x100 EXP SWAP1 DIV PUSH20 0xFFFFFFFFFFFFFFFFFFFFFFFFFFFFFFFFFFFFFFFF AND PUSH2 0x23C5 JUMP JUMPDEST PUSH2 0xACA DUP5 PUSH1 0x2 ADD SLOAD PUSH2 0x26CA JUMP JUMPDEST PUSH1 0x40 MLOAD PUSH1 0x20 ADD PUSH2 0xADD SWAP5 SWAP4 SWAP3 SWAP2 SWAP1 PUSH2 0x406A JUMP JUMPDEST PUSH1 0x40 MLOAD PUSH1 0x20 DUP2 DUP4 SUB SUB DUP2 MSTORE SWAP1 PUSH1 0x40 MSTORE SWAP3 POP PUSH1 0x1 DUP5 PUSH1 0x4 ADD DUP1 SLOAD SWAP1 POP PUSH2 0xB02 SWAP2 SWAP1 PUSH2 0x3EEC JUMP JUMPDEST DUP3 LT ISZERO PUSH2 0xB2C JUMPI DUP3 PUSH1 0x40 MLOAD PUSH1 0x20 ADD PUSH2 0xB1A SWAP2 SWAP1 PUSH2 0x3F6C JUMP JUMPDEST PUSH1 0x40 MLOAD PUSH1 0x20 DUP2 DUP4 SUB SUB DUP2 MSTORE SWAP1 PUSH1 0x40 MSTORE SWAP3 POP JUMPDEST JUMPDEST POP DUP1 DUP1 PUSH1 0x1 ADD SWAP2 POP POP PUSH2 0x9CE JUMP JUMPDEST POP DUP1 PUSH1 0x40 MLOAD PUSH1 0x20 ADD PUSH2 0xB4D SWAP2 SWAP1 PUSH2 0x3FDA JUMP JUMPDEST PUSH1 0x40 MLOAD PUSH1 0x20 DUP2 DUP4 SUB SUB DUP2 MSTORE SWAP1 PUSH1 0x40 MSTORE SWAP1 POP JUMPDEST DUP1 PUSH1 0x40 MLOAD PUSH1 0x20 ADD PUSH2 0xB70 SWAP2 SWAP1 PUSH2 0x4120 JUMP JUMPDEST PUSH1 0x40 MLOAD PUSH1 0x20 DUP2 DUP4 SUB SUB DUP2 MSTORE SWAP1 PUSH1 0x40 MSTORE SWAP1 POP DUP1 SWAP3 POP POP POP SWAP3 SWAP2 POP POP JUMP JUMPDEST PUSH2 0xB95 DUP2 PUSH2 0x1E64 JUMP JUMPDEST PUSH2 0xBD4 JUMPI PUSH1 0x40 MLOAD PUSH32 0x8C379A000000000000000000000000000000000000000000000000000000000 DUP2 MSTORE PUSH1 0x4 ADD PUSH2 0xBCB SWAP1 PUSH2 0x39DD JUMP JUMPDEST PUSH1 0x40 MLOAD DUP1 SWAP2 SUB SWAP1 REVERT JUMPDEST PUSH1 0x0 DUP1 PUSH1 0x0 DUP4 PUSH20 0xFFFFFFFFFFFFFFFFFFFFFFFFFFFFFFFFFFFFFFFF AND PUSH20 0xFFFFFFFFFFFFFFFFFFFFFFFFFFFFFFFFFFFFFFFF AND DUP2 MSTORE PUSH1 0x20 ADD SWAP1 DUP2 MSTORE PUSH1 0x20 ADD PUSH1 0x0 KECCAK256 PUSH1 0x0 ADD SWAP1 POP PUSH1 0x0 DUP2 SWAP1 POP PUSH1 0x0 PUSH1 0x1 SWAP1 POP JUMPDEST DUP6 MLOAD DUP2 LT ISZERO PUSH2 0xD8D JUMPI PUSH1 0x0 DUP1 JUMPDEST DUP5 PUSH1 0x4 ADD DUP1 SLOAD SWAP1 POP DUP2 LT ISZERO PUSH2 0xD13 JUMPI DUP8 DUP4 DUP2 MLOAD DUP2 LT PUSH2 0xC54 JUMPI PUSH2 0xC53 PUSH2 0x39FD JUMP JUMPDEST JUMPDEST PUSH1 0x20 MUL PUSH1 0x20 ADD ADD MLOAD PUSH1 0x40 MLOAD PUSH1 0x20 ADD PUSH2 0xC6C SWAP2 SWAP1 PUSH2 0x3A5D JUMP JUMPDEST PUSH1 0x40 MLOAD PUSH1 0x20 DUP2 DUP4 SUB SUB DUP2 MSTORE SWAP1 PUSH1 0x40 MSTORE DUP1 MLOAD SWAP1 PUSH1 0x20 ADD KECCAK256 DUP6 PUSH1 0x4 ADD DUP3 DUP2 SLOAD DUP2 LT PUSH2 0xC98 JUMPI PUSH2 0xC97 PUSH2 0x39FD JUMP JUMPDEST JUMPDEST SWAP1 PUSH1 0x0 MSTORE PUSH1 0x20 PUSH1 0x0 KECCAK256 SWAP1 PUSH1 0x5 MUL ADD PUSH1 0x0 ADD PUSH1 0x40 MLOAD PUSH1 0x20 ADD PUSH2 0xCB9 SWAP2 SWAP1 PUSH2 0x36A5 JUMP JUMPDEST PUSH1 0x40 MLOAD PUSH1 0x20 DUP2 DUP4 SUB SUB DUP2 MSTORE SWAP1 PUSH1 0x40 MSTORE DUP1 MLOAD SWAP1 PUSH1 0x20 ADD KECCAK256 SUB PUSH2 0xD06 JUMPI DUP5 SWAP4 POP DUP5 PUSH1 0x4 ADD DUP2 DUP2 SLOAD DUP2 LT PUSH2 0xCED JUMPI PUSH2 0xCEC PUSH2 0x39FD JUMP JUMPDEST JUMPDEST SWAP1 PUSH1 0x0 MSTORE PUSH1 0x20 PUSH1 0x0 KECCAK256 SWAP1 PUSH1 0x5 MUL ADD SWAP5 POP PUSH1 0x1 SWAP2 POP PUSH2 0xD13 JUMP JUMPDEST DUP1 DUP1 PUSH1 0x1 ADD SWAP2 POP POP PUSH2 0xC32 JUMP JUMPDEST POP DUP1 PUSH2 0xD1E DUP4 PUSH2 0x26CA JUMP JUMPDEST PUSH1 0x40 MLOAD PUSH1 0x20 ADD PUSH2 0xD2E SWAP2 SWAP1 PUSH2 0x418E JUMP JUMPDEST PUSH1 0x40 MLOAD PUSH1 0x20 DUP2 DUP4 SUB SUB DUP2 MSTORE SWAP1 PUSH1 0x40 MSTORE SWAP1 PUSH2 0xD7E JUMPI PUSH1 0x40 MLOAD PUSH32 0x8C379A000000000000000000000000000000000000000000000000000000000 DUP2 MSTORE PUSH1 0x4 ADD PUSH2 0xD75 SWAP2 SWAP1 PUSH2 0x2FE5 JUMP JUMPDEST PUSH1 0x40 MLOAD DUP1 SWAP2 SUB SWAP1 REVERT JUMPDEST POP POP DUP1 DUP1 PUSH1 0x1 ADD SWAP2 POP POP PUSH2 0xC25 JUMP JUMPDEST POP PUSH1 0x0 DUP1 JUMPDEST DUP3 PUSH1 0x4 ADD DUP1 SLOAD SWAP1 POP DUP2 LT ISZERO PUSH2 0xFF6 JUMPI DUP6 PUSH1 0x40 MLOAD PUSH1 0x20 ADD PUSH2 0xDB2 SWAP2 SWAP1 PUSH2 0x3A5D JUMP JUMPDEST PUSH1 0x40 MLOAD PUSH1 0x20 DUP2 DUP4 SUB SUB DUP2 MSTORE SWAP1 PUSH1 0x40 MSTORE DUP1 MLOAD SWAP1 PUSH1 0x20 ADD KECCAK256 DUP4 PUSH1 0x4 ADD DUP3 DUP2 SLOAD DUP2 LT PUSH2 0xDDE JUMPI PUSH2 0xDDD PUSH2 0x39FD JUMP JUMPDEST JUMPDEST SWAP1 PUSH1 0x0 MSTORE PUSH1 0x20 PUSH1 0x0 KECCAK256 SWAP1 PUSH1 0x5 MUL ADD PUSH1 0x0 ADD PUSH1 0x40 MLOAD PUSH1 0x20 ADD PUSH2 0xDFF SWAP2 SWAP1 PUSH2 0x36A5 JUMP JUMPDEST PUSH1 0x40 MLOAD PUSH1 0x20 DUP2 DUP4 SUB SUB DUP2 MSTORE SWAP1 PUSH1 0x40 MSTORE DUP1 MLOAD SWAP1 PUSH1 0x20 ADD KECCAK256 SUB PUSH2 0xFE9 JUMPI PUSH1 0x1 SWAP2 POP PUSH1 0x0 DUP2 SWAP1 POP JUMPDEST PUSH1 0x1 DUP5 PUSH1 0x4 ADD DUP1 SLOAD SWAP1 POP PUSH2 0xE38 SWAP2 SWAP1 PUSH2 0x3EEC JUMP JUMPDEST DUP2 LT ISZERO PUSH2 0xF57 JUMPI DUP4 PUSH1 0x4 ADD PUSH1 0x1 DUP3 PUSH2 0xE50 SWAP2 SWAP1 PUSH2 0x41B0 JUMP JUMPDEST DUP2 SLOAD DUP2 LT PUSH2 0xE61 JUMPI PUSH2 0xE60 PUSH2 0x39FD JUMP JUMPDEST JUMPDEST SWAP1 PUSH1 0x0 MSTORE PUSH1 0x20 PUSH1 0x0 KECCAK256 SWAP1 PUSH1 0x5 MUL ADD DUP5 PUSH1 0x4 ADD DUP3 DUP2 SLOAD DUP2 LT PUSH2 0xE85 JUMPI PUSH2 0xE84 PUSH2 0x39FD JUMP JUMPDEST JUMPDEST SWAP1 PUSH1 0x0 MSTORE PUSH1 0x20 PUSH1 0x0 KECCAK256 SWAP1 PUSH1 0x5 MUL ADD PUSH1 0x0 DUP3 ADD DUP2 PUSH1 0x0 ADD SWAP1 DUP2 PUSH2 0xEA7 SWAP2 SWAP1 PUSH2 0x41FA JUMP JUMPDEST POP PUSH1 0x1 DUP3 ADD PUSH1 0x0 SWAP1 SLOAD SWAP1 PUSH2 0x100 EXP SWAP1 DIV PUSH20 0xFFFFFFFFFFFFFFFFFFFFFFFFFFFFFFFFFFFFFFFF AND DUP2 PUSH1 0x1 ADD PUSH1 0x0 PUSH2 0x100 EXP DUP2 SLOAD DUP2 PUSH20 0xFFFFFFFFFFFFFFFFFFFFFFFFFFFFFFFFFFFFFFFF MUL NOT AND SWAP1 DUP4 PUSH20 0xFFFFFFFFFFFFFFFFFFFFFFFFFFFFFFFFFFFFFFFF AND MUL OR SWAP1 SSTORE POP PUSH1 0x2 DUP3 ADD SLOAD DUP2 PUSH1 0x2 ADD SSTORE PUSH1 0x3 DUP3 ADD DUP2 PUSH1 0x3 ADD SWAP1 DUP1 SLOAD PUSH2 0xF2F SWAP3 SWAP2 SWAP1 PUSH2 0x2852 JUMP JUMPDEST POP PUSH1 0x4 DUP3 ADD DUP2 PUSH1 0x4 ADD SWAP1 DUP1 SLOAD PUSH2 0xF46 SWAP3 SWAP2 SWAP1 PUSH2 0x2964 JUMP JUMPDEST POP SWAP1 POP POP DUP1 DUP1 PUSH1 0x1 ADD SWAP2 POP POP PUSH2 0xE24 JUMP JUMPDEST POP DUP3 PUSH1 0x4 ADD DUP1 SLOAD DUP1 PUSH2 0xF6C JUMPI PUSH2 0xF6B PUSH2 0x42E2 JUMP JUMPDEST JUMPDEST PUSH1 0x1 SWAP1 SUB DUP2 DUP2 SWAP1 PUSH1 0x0 MSTORE PUSH1 0x20 PUSH1 0x0 KECCAK256 SWAP1 PUSH1 0x5 MUL ADD PUSH1 0x0 DUP1 DUP3 ADD PUSH1 0x0 PUSH2 0xF91 SWAP2 SWAP1 PUSH2 0x2A70 JUMP JUMPDEST PUSH1 0x1 DUP3 ADD PUSH1 0x0 PUSH2 0x100 EXP DUP2 SLOAD SWAP1 PUSH20 0xFFFFFFFFFFFFFFFFFFFFFFFFFFFFFFFFFFFFFFFF MUL NOT AND SWAP1 SSTORE PUSH1 0x2 DUP3 ADD PUSH1 0x0 SWAP1 SSTORE PUSH1 0x3 DUP3 ADD PUSH1 0x0 PUSH2 0xFD0 SWAP2 SWAP1 PUSH2 0x2AB0 JUMP JUMPDEST PUSH1 0x4 DUP3 ADD PUSH1 0x0 PUSH2 0xFE0 SWAP2 SWAP1 PUSH2 0x2AD4 JUMP JUMPDEST POP POP SWAP1 SSTORE PUSH2 0xFF6 JUMP JUMPDEST DUP1 DUP1 PUSH1 0x1 ADD SWAP2 POP POP PUSH2 0xD92 JUMP JUMPDEST POP DUP1 PUSH2 0x1037 JUMPI PUSH1 0x40 MLOAD PUSH32 0x8C379A000000000000000000000000000000000000000000000000000000000 DUP2 MSTORE PUSH1 0x4 ADD PUSH2 0x102E SWAP1 PUSH2 0x435D JUMP JUMPDEST PUSH1 0x40 MLOAD DUP1 SWAP2 SUB SWAP1 REVERT JUMPDEST POP POP POP POP POP POP JUMP JUMPDEST PUSH2 0x1048 DUP2 PUSH2 0x1E64 JUMP JUMPDEST PUSH2 0x1087 JUMPI PUSH1 0x40 MLOAD PUSH32 0x8C379A000000000000000000000000000000000000000000000000000000000 DUP2 MSTORE PUSH1 0x4 ADD PUSH2 0x107E SWAP1 PUSH2 0x39DD JUMP JUMPDEST PUSH1 0x40 MLOAD DUP1 SWAP2 SUB SWAP1 REVERT JUMPDEST PUSH1 0x0 DUP1 PUSH1 0x0 DUP4 PUSH20 0xFFFFFFFFFFFFFFFFFFFFFFFFFFFFFFFFFFFFFFFF AND PUSH20 0xFFFFFFFFFFFFFFFFFFFFFFFFFFFFFFFFFFFFFFFF AND DUP2 MSTORE PUSH1 0x20 ADD SWAP1 DUP2 MSTORE PUSH1 0x20 ADD PUSH1 0x0 KECCAK256 PUSH1 0x0 ADD SWAP1 POP PUSH1 0x0 PUSH1 0x1 SWAP1 POP JUMPDEST DUP5 MLOAD DUP2 LT ISZERO PUSH2 0x1238 JUMPI PUSH1 0x0 DUP1 JUMPDEST DUP4 PUSH1 0x4 ADD DUP1 SLOAD SWAP1 POP DUP2 LT ISZERO PUSH2 0x11BE JUMPI DUP7 DUP4 DUP2 MLOAD DUP2 LT PUSH2 0x1102 JUMPI PUSH2 0x1101 PUSH2 0x39FD JUMP JUMPDEST JUMPDEST PUSH1 0x20 MUL PUSH1 0x20 ADD ADD MLOAD PUSH1 0x40 MLOAD PUSH1 0x20 ADD PUSH2 0x111A SWAP2 SWAP1 PUSH2 0x3A5D JUMP JUMPDEST PUSH1 0x40 MLOAD PUSH1 0x20 DUP2 DUP4 SUB SUB DUP2 MSTORE SWAP1 PUSH1 0x40 MSTORE DUP1 MLOAD SWAP1 PUSH1 0x20 ADD KECCAK256 DUP5 PUSH1 0x4 ADD DUP3 DUP2 SLOAD DUP2 LT PUSH2 0x1146 JUMPI PUSH2 0x1145 PUSH2 0x39FD JUMP JUMPDEST JUMPDEST SWAP1 PUSH1 0x0 MSTORE PUSH1 0x20 PUSH1 0x0 KECCAK256 SWAP1 PUSH1 0x5 MUL ADD PUSH1 0x0 ADD PUSH1 0x40 MLOAD PUSH1 0x20 ADD PUSH2 0x1167 SWAP2 SWAP1 PUSH2 0x36A5 JUMP JUMPDEST PUSH1 0x40 MLOAD PUSH1 0x20 DUP2 DUP4 SUB SUB DUP2 MSTORE SWAP1 PUSH1 0x40 MSTORE DUP1 MLOAD SWAP1 PUSH1 0x20 ADD KECCAK256 SUB PUSH2 0x11B1 JUMPI DUP4 PUSH1 0x4 ADD DUP2 DUP2 SLOAD DUP2 LT PUSH2 0x1198 JUMPI PUSH2 0x1197 PUSH2 0x39FD JUMP JUMPDEST JUMPDEST SWAP1 PUSH1 0x0 MSTORE PUSH1 0x20 PUSH1 0x0 KECCAK256 SWAP1 PUSH1 0x5 MUL ADD SWAP4 POP PUSH1 0x1 SWAP2 POP PUSH2 0x11BE JUMP JUMPDEST DUP1 DUP1 PUSH1 0x1 ADD SWAP2 POP POP PUSH2 0x10E0 JUMP JUMPDEST POP DUP1 PUSH2 0x11C9 DUP4 PUSH2 0x26CA JUMP JUMPDEST PUSH1 0x40 MLOAD PUSH1 0x20 ADD PUSH2 0x11D9 SWAP2 SWAP1 PUSH2 0x418E JUMP JUMPDEST PUSH1 0x40 MLOAD PUSH1 0x20 DUP2 DUP4 SUB SUB DUP2 MSTORE SWAP1 PUSH1 0x40 MSTORE SWAP1 PUSH2 0x1229 JUMPI PUSH1 0x40 MLOAD PUSH32 0x8C379A000000000000000000000000000000000000000000000000000000000 DUP2 MSTORE PUSH1 0x4 ADD PUSH2 0x1220 SWAP2 SWAP1 PUSH2 0x2FE5 JUMP JUMPDEST PUSH1 0x40 MLOAD DUP1 SWAP2 SUB SWAP1 REVERT JUMPDEST POP POP DUP1 DUP1 PUSH1 0x1 ADD SWAP2 POP POP PUSH2 0x10D3 JUMP JUMPDEST POP PUSH1 0x0 JUMPDEST DUP4 MLOAD DUP2 LT ISZERO PUSH2 0x13D9 JUMPI DUP2 PUSH1 0x3 ADD PUSH1 0x40 MLOAD DUP1 PUSH1 0xC0 ADD PUSH1 0x40 MSTORE DUP1 DUP7 DUP5 DUP2 MLOAD DUP2 LT PUSH2 0x1267 JUMPI PUSH2 0x1266 PUSH2 0x39FD JUMP JUMPDEST JUMPDEST PUSH1 0x20 MUL PUSH1 0x20 ADD ADD MLOAD PUSH1 0x0 ADD MLOAD DUP2 MSTORE PUSH1 0x20 ADD DUP7 DUP5 DUP2 MLOAD DUP2 LT PUSH2 0x128B JUMPI PUSH2 0x128A PUSH2 0x39FD JUMP JUMPDEST JUMPDEST PUSH1 0x20 MUL PUSH1 0x20 ADD ADD MLOAD PUSH1 0x20 ADD MLOAD DUP2 MSTORE PUSH1 0x20 ADD DUP7 DUP5 DUP2 MLOAD DUP2 LT PUSH2 0x12AF JUMPI PUSH2 0x12AE PUSH2 0x39FD JUMP JUMPDEST JUMPDEST PUSH1 0x20 MUL PUSH1 0x20 ADD ADD MLOAD PUSH1 0x40 ADD MLOAD DUP2 MSTORE PUSH1 0x20 ADD TIMESTAMP DUP2 MSTORE PUSH1 0x20 ADD DUP6 PUSH20 0xFFFFFFFFFFFFFFFFFFFFFFFFFFFFFFFFFFFFFFFF AND DUP2 MSTORE PUSH1 0x20 ADD DUP7 DUP5 DUP2 MLOAD DUP2 LT PUSH2 0x12F5 JUMPI PUSH2 0x12F4 PUSH2 0x39FD JUMP JUMPDEST JUMPDEST PUSH1 0x20 MUL PUSH1 0x20 ADD ADD MLOAD PUSH1 0x60 ADD MLOAD DUP2 MSTORE POP SWAP1 DUP1 PUSH1 0x1 DUP2 SLOAD ADD DUP1 DUP3 SSTORE DUP1 SWAP2 POP POP PUSH1 0x1 SWAP1 SUB SWAP1 PUSH1 0x0 MSTORE PUSH1 0x20 PUSH1 0x0 KECCAK256 SWAP1 PUSH1 0x6 MUL ADD PUSH1 0x0 SWAP1 SWAP2 SWAP1 SWAP2 SWAP1 SWAP2 POP PUSH1 0x0 DUP3 ADD MLOAD DUP2 PUSH1 0x0 ADD SWAP1 DUP2 PUSH2 0x1342 SWAP2 SWAP1 PUSH2 0x38BF JUMP JUMPDEST POP PUSH1 0x20 DUP3 ADD MLOAD DUP2 PUSH1 0x1 ADD SWAP1 DUP2 PUSH2 0x1358 SWAP2 SWAP1 PUSH2 0x38BF JUMP JUMPDEST POP PUSH1 0x40 DUP3 ADD MLOAD DUP2 PUSH1 0x2 ADD SSTORE PUSH1 0x60 DUP3 ADD MLOAD DUP2 PUSH1 0x3 ADD SSTORE PUSH1 0x80 DUP3 ADD MLOAD DUP2 PUSH1 0x4 ADD PUSH1 0x0 PUSH2 0x100 EXP DUP2 SLOAD DUP2 PUSH20 0xFFFFFFFFFFFFFFFFFFFFFFFFFFFFFFFFFFFFFFFF MUL NOT AND SWAP1 DUP4 PUSH20 0xFFFFFFFFFFFFFFFFFFFFFFFFFFFFFFFFFFFFFFFF AND MUL OR SWAP1 SSTORE POP PUSH1 0xA0 DUP3 ADD MLOAD DUP2 PUSH1 0x5 ADD SWAP1 DUP2 PUSH2 0x13C9 SWAP2 SWAP1 PUSH2 0x38BF JUMP JUMPDEST POP POP POP DUP1 DUP1 PUSH1 0x1 ADD SWAP2 POP POP PUSH2 0x123C JUMP JUMPDEST POP POP POP POP POP JUMP JUMPDEST PUSH2 0x13E9 DUP2 PUSH2 0x1E64 JUMP JUMPDEST PUSH2 0x1428 JUMPI PUSH1 0x40 MLOAD PUSH32 0x8C379A000000000000000000000000000000000000000000000000000000000 DUP2 MSTORE PUSH1 0x4 ADD PUSH2 0x141F SWAP1 PUSH2 0x39DD JUMP JUMPDEST PUSH1 0x40 MLOAD DUP1 SWAP2 SUB SWAP1 REVERT JUMPDEST PUSH1 0x0 DUP1 PUSH1 0x0 DUP4 PUSH20 0xFFFFFFFFFFFFFFFFFFFFFFFFFFFFFFFFFFFFFFFF AND PUSH20 0xFFFFFFFFFFFFFFFFFFFFFFFFFFFFFFFFFFFFFFFF AND DUP2 MSTORE PUSH1 0x20 ADD SWAP1 DUP2 MSTORE PUSH1 0x20 ADD PUSH1 0x0 KECCAK256 PUSH1 0x0 ADD SWAP1 POP PUSH1 0x0 PUSH1 0x1 SWAP1 POP JUMPDEST DUP11 MLOAD DUP2 LT ISZERO PUSH2 0x15D9 JUMPI PUSH1 0x0 DUP1 JUMPDEST DUP4 PUSH1 0x4 ADD DUP1 SLOAD SWAP1 POP DUP2 LT ISZERO PUSH2 0x155F JUMPI DUP13 DUP4 DUP2 MLOAD DUP2 LT PUSH2 0x14A3 JUMPI PUSH2 0x14A2 PUSH2 0x39FD JUMP JUMPDEST JUMPDEST PUSH1 0x20 MUL PUSH1 0x20 ADD ADD MLOAD PUSH1 0x40 MLOAD PUSH1 0x20 ADD PUSH2 0x14BB SWAP2 SWAP1 PUSH2 0x3A5D JUMP JUMPDEST PUSH1 0x40 MLOAD PUSH1 0x20 DUP2 DUP4 SUB SUB DUP2 MSTORE SWAP1 PUSH1 0x40 MSTORE DUP1 MLOAD SWAP1 PUSH1 0x20 ADD KECCAK256 DUP5 PUSH1 0x4 ADD DUP3 DUP2 SLOAD DUP2 LT PUSH2 0x14E7 JUMPI PUSH2 0x14E6 PUSH2 0x39FD JUMP JUMPDEST JUMPDEST SWAP1 PUSH1 0x0 MSTORE PUSH1 0x20 PUSH1 0x0 KECCAK256 SWAP1 PUSH1 0x5 MUL ADD PUSH1 0x0 ADD PUSH1 0x40 MLOAD PUSH1 0x20 ADD PUSH2 0x1508 SWAP2 SWAP1 PUSH2 0x36A5 JUMP JUMPDEST PUSH1 0x40 MLOAD PUSH1 0x20 DUP2 DUP4 SUB SUB DUP2 MSTORE SWAP1 PUSH1 0x40 MSTORE DUP1 MLOAD SWAP1 PUSH1 0x20 ADD KECCAK256 SUB PUSH2 0x1552 JUMPI DUP4 PUSH1 0x4 ADD DUP2 DUP2 SLOAD DUP2 LT PUSH2 0x1539 JUMPI PUSH2 0x1538 PUSH2 0x39FD JUMP JUMPDEST JUMPDEST SWAP1 PUSH1 0x0 MSTORE PUSH1 0x20 PUSH1 0x0 KECCAK256 SWAP1 PUSH1 0x5 MUL ADD SWAP4 POP PUSH1 0x1 SWAP2 POP PUSH2 0x155F JUMP JUMPDEST DUP1 DUP1 PUSH1 0x1 ADD SWAP2 POP POP PUSH2 0x1481 JUMP JUMPDEST POP DUP1 PUSH2 0x156A DUP4 PUSH2 0x26CA JUMP JUMPDEST PUSH1 0x40 MLOAD PUSH1 0x20 ADD PUSH2 0x157A SWAP2 SWAP1 PUSH2 0x418E JUMP JUMPDEST PUSH1 0x40 MLOAD PUSH1 0x20 DUP2 DUP4 SUB SUB DUP2 MSTORE SWAP1 PUSH1 0x40 MSTORE SWAP1 PUSH2 0x15CA JUMPI PUSH1 0x40 MLOAD PUSH32 0x8C379A000000000000000000000000000000000000000000000000000000000 DUP2 MSTORE PUSH1 0x4 ADD PUSH2 0x15C1 SWAP2 SWAP1 PUSH2 0x2FE5 JUMP JUMPDEST PUSH1 0x40 MLOAD DUP1 SWAP2 SUB SWAP1 REVERT JUMPDEST POP POP DUP1 DUP1 PUSH1 0x1 ADD SWAP2 POP POP PUSH2 0x1474 JUMP JUMPDEST POP PUSH1 0x0 DUP1 JUMPDEST DUP3 PUSH1 0x3 ADD DUP1 SLOAD SWAP1 POP DUP2 LT ISZERO PUSH2 0x17D9 JUMPI DUP11 PUSH1 0x40 MLOAD PUSH1 0x20 ADD PUSH2 0x15FE SWAP2 SWAP1 PUSH2 0x3A5D JUMP JUMPDEST PUSH1 0x40 MLOAD PUSH1 0x20 DUP2 DUP4 SUB SUB DUP2 MSTORE SWAP1 PUSH1 0x40 MSTORE DUP1 MLOAD SWAP1 PUSH1 0x20 ADD KECCAK256 DUP4 PUSH1 0x3 ADD DUP3 DUP2 SLOAD DUP2 LT PUSH2 0x162A JUMPI PUSH2 0x1629 PUSH2 0x39FD JUMP JUMPDEST JUMPDEST SWAP1 PUSH1 0x0 MSTORE PUSH1 0x20 PUSH1 0x0 KECCAK256 SWAP1 PUSH1 0x6 MUL ADD PUSH1 0x0 ADD PUSH1 0x40 MLOAD PUSH1 0x20 ADD PUSH2 0x164B SWAP2 SWAP1 PUSH2 0x36A5 JUMP JUMPDEST PUSH1 0x40 MLOAD PUSH1 0x20 DUP2 DUP4 SUB SUB DUP2 MSTORE SWAP1 PUSH1 0x40 MSTORE DUP1 MLOAD SWAP1 PUSH1 0x20 ADD KECCAK256 SUB PUSH2 0x17CC JUMPI PUSH1 0x1 SWAP2 POP DUP10 DUP4 PUSH1 0x3 ADD DUP3 DUP2 SLOAD DUP2 LT PUSH2 0x1681 JUMPI PUSH2 0x1680 PUSH2 0x39FD JUMP JUMPDEST JUMPDEST SWAP1 PUSH1 0x0 MSTORE PUSH1 0x20 PUSH1 0x0 KECCAK256 SWAP1 PUSH1 0x6 MUL ADD PUSH1 0x0 ADD SWAP1 DUP2 PUSH2 0x169E SWAP2 SWAP1 PUSH2 0x38BF JUMP JUMPDEST POP DUP9 DUP4 PUSH1 0x3 ADD DUP3 DUP2 SLOAD DUP2 LT PUSH2 0x16B6 JUMPI PUSH2 0x16B5 PUSH2 0x39FD JUMP JUMPDEST JUMPDEST SWAP1 PUSH1 0x0 MSTORE PUSH1 0x20 PUSH1 0x0 KECCAK256 SWAP1 PUSH1 0x6 MUL ADD PUSH1 0x1 ADD SWAP1 DUP2 PUSH2 0x16D3 SWAP2 SWAP1 PUSH2 0x38BF JUMP JUMPDEST POP DUP8 DUP4 PUSH1 0x3 ADD DUP3 DUP2 SLOAD DUP2 LT PUSH2 0x16EB JUMPI PUSH2 0x16EA PUSH2 0x39FD JUMP JUMPDEST JUMPDEST SWAP1 PUSH1 0x0 MSTORE PUSH1 0x20 PUSH1 0x0 KECCAK256 SWAP1 PUSH1 0x6 MUL ADD PUSH1 0x2 ADD DUP2 SWAP1 SSTORE POP DUP7 DUP4 PUSH1 0x3 ADD DUP3 DUP2 SLOAD DUP2 LT PUSH2 0x1717 JUMPI PUSH2 0x1716 PUSH2 0x39FD JUMP JUMPDEST JUMPDEST SWAP1 PUSH1 0x0 MSTORE PUSH1 0x20 PUSH1 0x0 KECCAK256 SWAP1 PUSH1 0x6 MUL ADD PUSH1 0x3 ADD DUP2 SWAP1 SSTORE POP DUP6 DUP4 PUSH1 0x3 ADD DUP3 DUP2 SLOAD DUP2 LT PUSH2 0x1743 JUMPI PUSH2 0x1742 PUSH2 0x39FD JUMP JUMPDEST JUMPDEST SWAP1 PUSH1 0x0 MSTORE PUSH1 0x20 PUSH1 0x0 KECCAK256 SWAP1 PUSH1 0x6 MUL ADD PUSH1 0x4 ADD PUSH1 0x0 PUSH2 0x100 EXP DUP2 SLOAD DUP2 PUSH20 0xFFFFFFFFFFFFFFFFFFFFFFFFFFFFFFFFFFFFFFFF MUL NOT AND SWAP1 DUP4 PUSH20 0xFFFFFFFFFFFFFFFFFFFFFFFFFFFFFFFFFFFFFFFF AND MUL OR SWAP1 SSTORE POP DUP5 DUP4 PUSH1 0x3 ADD DUP3 DUP2 SLOAD DUP2 LT PUSH2 0x17A9 JUMPI PUSH2 0x17A8 PUSH2 0x39FD JUMP JUMPDEST JUMPDEST SWAP1 PUSH1 0x0 MSTORE PUSH1 0x20 PUSH1 0x0 KECCAK256 SWAP1 PUSH1 0x6 MUL ADD PUSH1 0x5 ADD SWAP1 DUP2 PUSH2 0x17C6 SWAP2 SWAP1 PUSH2 0x38BF JUMP JUMPDEST POP PUSH2 0x17D9 JUMP JUMPDEST DUP1 DUP1 PUSH1 0x1 ADD SWAP2 POP POP PUSH2 0x15DE JUMP JUMPDEST POP DUP1 PUSH2 0x181A JUMPI PUSH1 0x40 MLOAD PUSH32 0x8C379A000000000000000000000000000000000000000000000000000000000 DUP2 MSTORE PUSH1 0x4 ADD PUSH2 0x1811 SWAP1 PUSH2 0x43C9 JUMP JUMPDEST PUSH1 0x40 MLOAD DUP1 SWAP2 SUB SWAP1 REVERT JUMPDEST POP POP POP POP POP POP POP POP POP POP POP JUMP JUMPDEST PUSH2 0x1830 DUP2 PUSH2 0x1E64 JUMP JUMPDEST PUSH2 0x186F JUMPI PUSH1 0x40 MLOAD PUSH32 0x8C379A000000000000000000000000000000000000000000000000000000000 DUP2 MSTORE PUSH1 0x4 ADD PUSH2 0x1866 SWAP1 PUSH2 0x39DD JUMP JUMPDEST PUSH1 0x40 MLOAD DUP1 SWAP2 SUB SWAP1 REVERT JUMPDEST PUSH1 0x0 DUP1 PUSH1 0x0 DUP4 PUSH20 0xFFFFFFFFFFFFFFFFFFFFFFFFFFFFFFFFFFFFFFFF AND PUSH20 0xFFFFFFFFFFFFFFFFFFFFFFFFFFFFFFFFFFFFFFFF AND DUP2 MSTORE PUSH1 0x20 ADD SWAP1 DUP2 MSTORE PUSH1 0x20 ADD PUSH1 0x0 KECCAK256 PUSH1 0x0 ADD SWAP1 POP PUSH1 0x0 PUSH1 0x1 SWAP1 POP JUMPDEST DUP8 MLOAD DUP2 LT ISZERO PUSH2 0x1A20 JUMPI PUSH1 0x0 DUP1 JUMPDEST DUP4 PUSH1 0x4 ADD DUP1 SLOAD SWAP1 POP DUP2 LT ISZERO PUSH2 0x19A6 JUMPI DUP10 DUP4 DUP2 MLOAD DUP2 LT PUSH2 0x18EA JUMPI PUSH2 0x18E9 PUSH2 0x39FD JUMP JUMPDEST JUMPDEST PUSH1 0x20 MUL PUSH1 0x20 ADD ADD MLOAD PUSH1 0x40 MLOAD PUSH1 0x20 ADD PUSH2 0x1902 SWAP2 SWAP1 PUSH2 0x3A5D JUMP JUMPDEST PUSH1 0x40 MLOAD PUSH1 0x20 DUP2 DUP4 SUB SUB DUP2 MSTORE SWAP1 PUSH1 0x40 MSTORE DUP1 MLOAD SWAP1 PUSH1 0x20 ADD KECCAK256 DUP5 PUSH1 0x4 ADD DUP3 DUP2 SLOAD DUP2 LT PUSH2 0x192E JUMPI PUSH2 0x192D PUSH2 0x39FD JUMP JUMPDEST JUMPDEST SWAP1 PUSH1 0x0 MSTORE PUSH1 0x20 PUSH1 0x0 KECCAK256 SWAP1 PUSH1 0x5 MUL ADD PUSH1 0x0 ADD PUSH1 0x40 MLOAD PUSH1 0x20 ADD PUSH2 0x194F SWAP2 SWAP1 PUSH2 0x36A5 JUMP JUMPDEST PUSH1 0x40 MLOAD PUSH1 0x20 DUP2 DUP4 SUB SUB DUP2 MSTORE SWAP1 PUSH1 0x40 MSTORE DUP1 MLOAD SWAP1 PUSH1 0x20 ADD KECCAK256 SUB PUSH2 0x1999 JUMPI DUP4 PUSH1 0x4 ADD DUP2 DUP2 SLOAD DUP2 LT PUSH2 0x1980 JUMPI PUSH2 0x197F PUSH2 0x39FD JUMP JUMPDEST JUMPDEST SWAP1 PUSH1 0x0 MSTORE PUSH1 0x20 PUSH1 0x0 KECCAK256 SWAP1 PUSH1 0x5 MUL ADD SWAP4 POP PUSH1 0x1 SWAP2 POP PUSH2 0x19A6 JUMP JUMPDEST DUP1 DUP1 PUSH1 0x1 ADD SWAP2 POP POP PUSH2 0x18C8 JUMP JUMPDEST POP DUP1 PUSH2 0x19B1 DUP4 PUSH2 0x26CA JUMP JUMPDEST PUSH1 0x40 MLOAD PUSH1 0x20 ADD PUSH2 0x19C1 SWAP2 SWAP1 PUSH2 0x418E JUMP JUMPDEST PUSH1 0x40 MLOAD PUSH1 0x20 DUP2 DUP4 SUB SUB DUP2 MSTORE SWAP1 PUSH1 0x40 MSTORE SWAP1 PUSH2 0x1A11 JUMPI PUSH1 0x40 MLOAD PUSH32 0x8C379A000000000000000000000000000000000000000000000000000000000 DUP2 MSTORE PUSH1 0x4 ADD PUSH2 0x1A08 SWAP2 SWAP1 PUSH2 0x2FE5 JUMP JUMPDEST PUSH1 0x40 MLOAD DUP1 SWAP2 SUB SWAP1 REVERT JUMPDEST POP POP DUP1 DUP1 PUSH1 0x1 ADD SWAP2 POP POP PUSH2 0x18BB JUMP JUMPDEST POP PUSH1 0x0 DUP1 JUMPDEST DUP3 PUSH1 0x4 ADD DUP1 SLOAD SWAP1 POP DUP2 LT ISZERO PUSH2 0x1B8A JUMPI DUP8 PUSH1 0x40 MLOAD PUSH1 0x20 ADD PUSH2 0x1A45 SWAP2 SWAP1 PUSH2 0x3A5D JUMP JUMPDEST PUSH1 0x40 MLOAD PUSH1 0x20 DUP2 DUP4 SUB SUB DUP2 MSTORE SWAP1 PUSH1 0x40 MSTORE DUP1 MLOAD SWAP1 PUSH1 0x20 ADD KECCAK256 DUP4 PUSH1 0x4 ADD DUP3 DUP2 SLOAD DUP2 LT PUSH2 0x1A71 JUMPI PUSH2 0x1A70 PUSH2 0x39FD JUMP JUMPDEST JUMPDEST SWAP1 PUSH1 0x0 MSTORE PUSH1 0x20 PUSH1 0x0 KECCAK256 SWAP1 PUSH1 0x5 MUL ADD PUSH1 0x0 ADD PUSH1 0x40 MLOAD PUSH1 0x20 ADD PUSH2 0x1A92 SWAP2 SWAP1 PUSH2 0x36A5 JUMP JUMPDEST PUSH1 0x40 MLOAD PUSH1 0x20 DUP2 DUP4 SUB SUB DUP2 MSTORE SWAP1 PUSH1 0x40 MSTORE DUP1 MLOAD SWAP1 PUSH1 0x20 ADD KECCAK256 SUB PUSH2 0x1B7D JUMPI PUSH1 0x1 SWAP2 POP DUP7 DUP4 PUSH1 0x4 ADD DUP3 DUP2 SLOAD DUP2 LT PUSH2 0x1AC8 JUMPI PUSH2 0x1AC7 PUSH2 0x39FD JUMP JUMPDEST JUMPDEST SWAP1 PUSH1 0x0 MSTORE PUSH1 0x20 PUSH1 0x0 KECCAK256 SWAP1 PUSH1 0x5 MUL ADD PUSH1 0x0 ADD SWAP1 DUP2 PUSH2 0x1AE5 SWAP2 SWAP1 PUSH2 0x38BF JUMP JUMPDEST POP DUP6 DUP4 PUSH1 0x4 ADD DUP3 DUP2 SLOAD DUP2 LT PUSH2 0x1AFD JUMPI PUSH2 0x1AFC PUSH2 0x39FD JUMP JUMPDEST JUMPDEST SWAP1 PUSH1 0x0 MSTORE PUSH1 0x20 PUSH1 0x0 KECCAK256 SWAP1 PUSH1 0x5 MUL ADD PUSH1 0x1 ADD PUSH1 0x0 PUSH2 0x100 EXP DUP2 SLOAD DUP2 PUSH20 0xFFFFFFFFFFFFFFFFFFFFFFFFFFFFFFFFFFFFFFFF MUL NOT AND SWAP1 DUP4 PUSH20 0xFFFFFFFFFFFFFFFFFFFFFFFFFFFFFFFFFFFFFFFF AND MUL OR SWAP1 SSTORE POP DUP5 DUP4 PUSH1 0x4 ADD DUP3 DUP2 SLOAD DUP2 LT PUSH2 0x1B63 JUMPI PUSH2 0x1B62 PUSH2 0x39FD JUMP JUMPDEST JUMPDEST SWAP1 PUSH1 0x0 MSTORE PUSH1 0x20 PUSH1 0x0 KECCAK256 SWAP1 PUSH1 0x5 MUL ADD PUSH1 0x2 ADD DUP2 SWAP1 SSTORE POP PUSH2 0x1B8A JUMP JUMPDEST DUP1 DUP1 PUSH1 0x1 ADD SWAP2 POP POP PUSH2 0x1A25 JUMP JUMPDEST POP DUP1 PUSH2 0x1BCB JUMPI PUSH1 0x40 MLOAD PUSH32 0x8C379A000000000000000000000000000000000000000000000000000000000 DUP2 MSTORE PUSH1 0x4 ADD PUSH2 0x1BC2 SWAP1 PUSH2 0x435D JUMP JUMPDEST PUSH1 0x40 MLOAD DUP1 SWAP2 SUB SWAP1 REVERT JUMPDEST POP POP POP POP POP POP POP POP JUMP JUMPDEST PUSH2 0x1BDE DUP2 PUSH2 0x1E64 JUMP JUMPDEST PUSH2 0x1C1D JUMPI PUSH1 0x40 MLOAD PUSH32 0x8C379A000000000000000000000000000000000000000000000000000000000 DUP2 MSTORE PUSH1 0x4 ADD PUSH2 0x1C14 SWAP1 PUSH2 0x39DD JUMP JUMPDEST PUSH1 0x40 MLOAD DUP1 SWAP2 SUB SWAP1 REVERT JUMPDEST PUSH1 0x0 DUP1 PUSH1 0x0 DUP4 PUSH20 0xFFFFFFFFFFFFFFFFFFFFFFFFFFFFFFFFFFFFFFFF AND PUSH20 0xFFFFFFFFFFFFFFFFFFFFFFFFFFFFFFFFFFFFFFFF AND DUP2 MSTORE PUSH1 0x20 ADD SWAP1 DUP2 MSTORE PUSH1 0x20 ADD PUSH1 0x0 KECCAK256 PUSH1 0x0 ADD SWAP1 POP PUSH1 0x0 PUSH1 0x1 SWAP1 POP JUMPDEST DUP5 MLOAD DUP2 LT ISZERO PUSH2 0x1DA3 JUMPI PUSH1 0x0 DUP1 JUMPDEST DUP4 PUSH1 0x4 ADD DUP1 SLOAD SWAP1 POP DUP2 LT ISZERO PUSH2 0x1D54 JUMPI DUP7 DUP4 DUP2 MLOAD DUP2 LT PUSH2 0x1C98 JUMPI PUSH2 0x1C97 PUSH2 0x39FD JUMP JUMPDEST JUMPDEST PUSH1 0x20 MUL PUSH1 0x20 ADD ADD MLOAD PUSH1 0x40 MLOAD PUSH1 0x20 ADD PUSH2 0x1CB0 SWAP2 SWAP1 PUSH2 0x3A5D JUMP JUMPDEST PUSH1 0x40 MLOAD PUSH1 0x20 DUP2 DUP4 SUB SUB DUP2 MSTORE SWAP1 PUSH1 0x40 MSTORE DUP1 MLOAD SWAP1 PUSH1 0x20 ADD KECCAK256 DUP5 PUSH1 0x4 ADD DUP3 DUP2 SLOAD DUP2 LT PUSH2 0x1CDC JUMPI PUSH2 0x1CDB PUSH2 0x39FD JUMP JUMPDEST JUMPDEST SWAP1 PUSH1 0x0 MSTORE PUSH1 0x20 PUSH1 0x0 KECCAK256 SWAP1 PUSH1 0x5 MUL ADD PUSH1 0x0 ADD PUSH1 0x40 MLOAD PUSH1 0x20 ADD PUSH2 0x1CFD SWAP2 SWAP1 PUSH2 0x36A5 JUMP JUMPDEST PUSH1 0x40 MLOAD PUSH1 0x20 DUP2 DUP4 SUB SUB DUP2 MSTORE SWAP1 PUSH1 0x40 MSTORE DUP1 MLOAD SWAP1 PUSH1 0x20 ADD KECCAK256 SUB PUSH2 0x1D47 JUMPI DUP4 PUSH1 0x4 ADD DUP2 DUP2 SLOAD DUP2 LT PUSH2 0x1D2E JUMPI PUSH2 0x1D2D PUSH2 0x39FD JUMP JUMPDEST JUMPDEST SWAP1 PUSH1 0x0 MSTORE PUSH1 0x20 PUSH1 0x0 KECCAK256 SWAP1 PUSH1 0x5 MUL ADD SWAP4 POP PUSH1 0x1 SWAP2 POP PUSH2 0x1D54 JUMP JUMPDEST DUP1 DUP1 PUSH1 0x1 ADD SWAP2 POP POP PUSH2 0x1C76 JUMP JUMPDEST POP DUP1 PUSH2 0x1D95 JUMPI PUSH1 0x40 MLOAD PUSH32 0x8C379A000000000000000000000000000000000000000000000000000000000 DUP2 MSTORE PUSH1 0x4 ADD PUSH2 0x1D8C SWAP1 PUSH2 0x3AC0 JUMP JUMPDEST PUSH1 0x40 MLOAD DUP1 SWAP2 SUB SWAP1 REVERT JUMPDEST POP DUP1 DUP1 PUSH1 0x1 ADD SWAP2 POP POP PUSH2 0x1C69 JUMP JUMPDEST POP DUP1 PUSH1 0x4 ADD PUSH1 0x1 DUP2 PUSH1 0x1 DUP2 SLOAD ADD DUP1 DUP3 SSTORE DUP1 SWAP2 POP POP SUB SWAP1 PUSH1 0x0 MSTORE PUSH1 0x20 PUSH1 0x0 KECCAK256 SWAP1 POP POP PUSH1 0x0 DUP2 PUSH1 0x4 ADD PUSH1 0x1 DUP4 PUSH1 0x4 ADD DUP1 SLOAD SWAP1 POP PUSH2 0x1DDE SWAP2 SWAP1 PUSH2 0x3EEC JUMP JUMPDEST DUP2 SLOAD DUP2 LT PUSH2 0x1DEF JUMPI PUSH2 0x1DEE PUSH2 0x39FD JUMP JUMPDEST JUMPDEST SWAP1 PUSH1 0x0 MSTORE PUSH1 0x20 PUSH1 0x0 KECCAK256 SWAP1 PUSH1 0x5 MUL ADD SWAP1 POP DUP4 DUP2 PUSH1 0x0 ADD SWAP1 DUP2 PUSH2 0x1E10 SWAP2 SWAP1 PUSH2 0x38BF JUMP JUMPDEST POP DUP3 DUP2 PUSH1 0x1 ADD PUSH1 0x0 PUSH2 0x100 EXP DUP2 SLOAD DUP2 PUSH20 0xFFFFFFFFFFFFFFFFFFFFFFFFFFFFFFFFFFFFFFFF MUL NOT AND SWAP1 DUP4 PUSH20 0xFFFFFFFFFFFFFFFFFFFFFFFFFFFFFFFFFFFFFFFF AND MUL OR SWAP1 SSTORE POP TIMESTAMP DUP2 PUSH1 0x2 ADD DUP2 SWAP1 SSTORE POP POP POP POP POP POP JUMP JUMPDEST PUSH1 0x0 PUSH1 0x40 MLOAD PUSH1 0x20 ADD PUSH2 0x1E75 SWAP1 PUSH2 0x3598 JUMP JUMPDEST PUSH1 0x40 MLOAD PUSH1 0x20 DUP2 DUP4 SUB SUB DUP2 MSTORE SWAP1 PUSH1 0x40 MSTORE DUP1 MLOAD SWAP1 PUSH1 0x20 ADD KECCAK256 PUSH1 0x0 DUP1 DUP5 PUSH20 0xFFFFFFFFFFFFFFFFFFFFFFFFFFFFFFFFFFFFFFFF AND PUSH20 0xFFFFFFFFFFFFFFFFFFFFFFFFFFFFFFFFFFFFFFFF AND DUP2 MSTORE PUSH1 0x20 ADD SWAP1 DUP2 MSTORE PUSH1 0x20 ADD PUSH1 0x0 KECCAK256 PUSH1 0x0 ADD PUSH1 0x0 ADD PUSH1 0x40 MLOAD PUSH1 0x20 ADD PUSH2 0x1EDF SWAP2 SWAP1 PUSH2 0x36A5 JUMP JUMPDEST PUSH1 0x40 MLOAD PUSH1 0x20 DUP2 DUP4 SUB SUB DUP2 MSTORE SWAP1 PUSH1 0x40 MSTORE DUP1 MLOAD SWAP1 PUSH1 0x20 ADD KECCAK256 EQ PUSH2 0x1F03 JUMPI PUSH1 0x0 SWAP1 POP PUSH2 0x1F08 JUMP JUMPDEST PUSH1 0x1 SWAP1 POP JUMPDEST SWAP2 SWAP1 POP JUMP JUMPDEST PUSH2 0x1F16 DUP2 PUSH2 0x1E64 JUMP JUMPDEST PUSH2 0x1F55 JUMPI PUSH1 0x40 MLOAD PUSH32 0x8C379A000000000000000000000000000000000000000000000000000000000 DUP2 MSTORE PUSH1 0x4 ADD PUSH2 0x1F4C SWAP1 PUSH2 0x39DD JUMP JUMPDEST PUSH1 0x40 MLOAD DUP1 SWAP2 SUB SWAP1 REVERT JUMPDEST PUSH1 0x0 DUP1 PUSH1 0x0 DUP4 PUSH20 0xFFFFFFFFFFFFFFFFFFFFFFFFFFFFFFFFFFFFFFFF AND PUSH20 0xFFFFFFFFFFFFFFFFFFFFFFFFFFFFFFFFFFFFFFFF AND DUP2 MSTORE PUSH1 0x20 ADD SWAP1 DUP2 MSTORE PUSH1 0x20 ADD PUSH1 0x0 KECCAK256 PUSH1 0x0 ADD SWAP1 POP PUSH1 0x0 PUSH1 0x1 SWAP1 POP JUMPDEST DUP5 MLOAD DUP2 LT ISZERO PUSH2 0x2106 JUMPI PUSH1 0x0 DUP1 JUMPDEST DUP4 PUSH1 0x4 ADD DUP1 SLOAD SWAP1 POP DUP2 LT ISZERO PUSH2 0x208C JUMPI DUP7 DUP4 DUP2 MLOAD DUP2 LT PUSH2 0x1FD0 JUMPI PUSH2 0x1FCF PUSH2 0x39FD JUMP JUMPDEST JUMPDEST PUSH1 0x20 MUL PUSH1 0x20 ADD ADD MLOAD PUSH1 0x40 MLOAD PUSH1 0x20 ADD PUSH2 0x1FE8 SWAP2 SWAP1 PUSH2 0x3A5D JUMP JUMPDEST PUSH1 0x40 MLOAD PUSH1 0x20 DUP2 DUP4 SUB SUB DUP2 MSTORE SWAP1 PUSH1 0x40 MSTORE DUP1 MLOAD SWAP1 PUSH1 0x20 ADD KECCAK256 DUP5 PUSH1 0x4 ADD DUP3 DUP2 SLOAD DUP2 LT PUSH2 0x2014 JUMPI PUSH2 0x2013 PUSH2 0x39FD JUMP JUMPDEST JUMPDEST SWAP1 PUSH1 0x0 MSTORE PUSH1 0x20 PUSH1 0x0 KECCAK256 SWAP1 PUSH1 0x5 MUL ADD PUSH1 0x0 ADD PUSH1 0x40 MLOAD PUSH1 0x20 ADD PUSH2 0x2035 SWAP2 SWAP1 PUSH2 0x36A5 JUMP JUMPDEST PUSH1 0x40 MLOAD PUSH1 0x20 DUP2 DUP4 SUB SUB DUP2 MSTORE SWAP1 PUSH1 0x40 MSTORE DUP1 MLOAD SWAP1 PUSH1 0x20 ADD KECCAK256 SUB PUSH2 0x207F JUMPI DUP4 PUSH1 0x4 ADD DUP2 DUP2 SLOAD DUP2 LT PUSH2 0x2066 JUMPI PUSH2 0x2065 PUSH2 0x39FD JUMP JUMPDEST JUMPDEST SWAP1 PUSH1 0x0 MSTORE PUSH1 0x20 PUSH1 0x0 KECCAK256 SWAP1 PUSH1 0x5 MUL ADD SWAP4 POP PUSH1 0x1 SWAP2 POP PUSH2 0x208C JUMP JUMPDEST DUP1 DUP1 PUSH1 0x1 ADD SWAP2 POP POP PUSH2 0x1FAE JUMP JUMPDEST POP DUP1 PUSH2 0x2097 DUP4 PUSH2 0x26CA JUMP JUMPDEST PUSH1 0x40 MLOAD PUSH1 0x20 ADD PUSH2 0x20A7 SWAP2 SWAP1 PUSH2 0x418E JUMP JUMPDEST PUSH1 0x40 MLOAD PUSH1 0x20 DUP2 DUP4 SUB SUB DUP2 MSTORE SWAP1 PUSH1 0x40 MSTORE SWAP1 PUSH2 0x20F7 JUMPI PUSH1 0x40 MLOAD PUSH32 0x8C379A000000000000000000000000000000000000000000000000000000000 DUP2 MSTORE PUSH1 0x4 ADD PUSH2 0x20EE SWAP2 SWAP1 PUSH2 0x2FE5 JUMP JUMPDEST PUSH1 0x40 MLOAD DUP1 SWAP2 SUB SWAP1 REVERT JUMPDEST POP POP DUP1 DUP1 PUSH1 0x1 ADD SWAP2 POP POP PUSH2 0x1FA1 JUMP JUMPDEST POP PUSH1 0x0 DUP1 JUMPDEST DUP3 PUSH1 0x3 ADD DUP1 SLOAD SWAP1 POP DUP2 LT ISZERO PUSH2 0x237D JUMPI DUP5 PUSH1 0x40 MLOAD PUSH1 0x20 ADD PUSH2 0x212B SWAP2 SWAP1 PUSH2 0x3A5D JUMP JUMPDEST PUSH1 0x40 MLOAD PUSH1 0x20 DUP2 DUP4 SUB SUB DUP2 MSTORE SWAP1 PUSH1 0x40 MSTORE DUP1 MLOAD SWAP1 PUSH1 0x20 ADD KECCAK256 DUP4 PUSH1 0x3 ADD DUP3 DUP2 SLOAD DUP2 LT PUSH2 0x2157 JUMPI PUSH2 0x2156 PUSH2 0x39FD JUMP JUMPDEST JUMPDEST SWAP1 PUSH1 0x0 MSTORE PUSH1 0x20 PUSH1 0x0 KECCAK256 SWAP1 PUSH1 0x6 MUL ADD PUSH1 0x0 ADD PUSH1 0x40 MLOAD PUSH1 0x20 ADD PUSH2 0x2178 SWAP2 SWAP1 PUSH2 0x36A5 JUMP JUMPDEST PUSH1 0x40 MLOAD PUSH1 0x20 DUP2 DUP4 SUB SUB DUP2 MSTORE SWAP1 PUSH1 0x40 MSTORE DUP1 MLOAD SWAP1 PUSH1 0x20 ADD KECCAK256 SUB PUSH2 0x2370 JUMPI PUSH1 0x1 SWAP2 POP PUSH1 0x0 DUP2 SWAP1 POP JUMPDEST PUSH1 0x1 DUP5 PUSH1 0x3 ADD DUP1 SLOAD SWAP1 POP PUSH2 0x21B1 SWAP2 SWAP1 PUSH2 0x3EEC JUMP JUMPDEST DUP2 LT ISZERO PUSH2 0x22D6 JUMPI DUP4 PUSH1 0x3 ADD PUSH1 0x1 DUP3 PUSH2 0x21C9 SWAP2 SWAP1 PUSH2 0x41B0 JUMP JUMPDEST DUP2 SLOAD DUP2 LT PUSH2 0x21DA JUMPI PUSH2 0x21D9 PUSH2 0x39FD JUMP JUMPDEST JUMPDEST SWAP1 PUSH1 0x0 MSTORE PUSH1 0x20 PUSH1 0x0 KECCAK256 SWAP1 PUSH1 0x6 MUL ADD DUP5 PUSH1 0x3 ADD DUP3 DUP2 SLOAD DUP2 LT PUSH2 0x21FE JUMPI PUSH2 0x21FD PUSH2 0x39FD JUMP JUMPDEST JUMPDEST SWAP1 PUSH1 0x0 MSTORE PUSH1 0x20 PUSH1 0x0 KECCAK256 SWAP1 PUSH1 0x6 MUL ADD PUSH1 0x0 DUP3 ADD DUP2 PUSH1 0x0 ADD SWAP1 DUP2 PUSH2 0x2220 SWAP2 SWAP1 PUSH2 0x41FA JUMP JUMPDEST POP PUSH1 0x1 DUP3 ADD DUP2 PUSH1 0x1 ADD SWAP1 DUP2 PUSH2 0x2235 SWAP2 SWAP1 PUSH2 0x41FA JUMP JUMPDEST POP PUSH1 0x2 DUP3 ADD SLOAD DUP2 PUSH1 0x2 ADD SSTORE PUSH1 0x3 DUP3 ADD SLOAD DUP2 PUSH1 0x3 ADD SSTORE PUSH1 0x4 DUP3 ADD PUSH1 0x0 SWAP1 SLOAD SWAP1 PUSH2 0x100 EXP SWAP1 DIV PUSH20 0xFFFFFFFFFFFFFFFFFFFFFFFFFFFFFFFFFFFFFFFF AND DUP2 PUSH1 0x4 ADD PUSH1 0x0 PUSH2 0x100 EXP DUP2 SLOAD DUP2 PUSH20 0xFFFFFFFFFFFFFFFFFFFFFFFFFFFFFFFFFFFFFFFF MUL NOT AND SWAP1 DUP4 PUSH20 0xFFFFFFFFFFFFFFFFFFFFFFFFFFFFFFFFFFFFFFFF AND MUL OR SWAP1 SSTORE POP PUSH1 0x5 DUP3 ADD DUP2 PUSH1 0x5 ADD SWAP1 DUP2 PUSH2 0x22C5 SWAP2 SWAP1 PUSH2 0x41FA JUMP JUMPDEST POP SWAP1 POP POP DUP1 DUP1 PUSH1 0x1 ADD SWAP2 POP POP PUSH2 0x219D JUMP JUMPDEST POP DUP3 PUSH1 0x3 ADD DUP1 SLOAD DUP1 PUSH2 0x22EB JUMPI PUSH2 0x22EA PUSH2 0x42E2 JUMP JUMPDEST JUMPDEST PUSH1 0x1 SWAP1 SUB DUP2 DUP2 SWAP1 PUSH1 0x0 MSTORE PUSH1 0x20 PUSH1 0x0 KECCAK256 SWAP1 PUSH1 0x6 MUL ADD PUSH1 0x0 DUP1 DUP3 ADD PUSH1 0x0 PUSH2 0x2310 SWAP2 SWAP1 PUSH2 0x2A70 JUMP JUMPDEST PUSH1 0x1 DUP3 ADD PUSH1 0x0 PUSH2 0x2320 SWAP2 SWAP1 PUSH2 0x2A70 JUMP JUMPDEST PUSH1 0x2 DUP3 ADD PUSH1 0x0 SWAP1 SSTORE PUSH1 0x3 DUP3 ADD PUSH1 0x0 SWAP1 SSTORE PUSH1 0x4 DUP3 ADD PUSH1 0x0 PUSH2 0x100 EXP DUP2 SLOAD SWAP1 PUSH20 0xFFFFFFFFFFFFFFFFFFFFFFFFFFFFFFFFFFFFFFFF MUL NOT AND SWAP1 SSTORE PUSH1 0x5 DUP3 ADD PUSH1 0x0 PUSH2 0x2367 SWAP2 SWAP1 PUSH2 0x2A70 JUMP JUMPDEST POP POP SWAP1 SSTORE PUSH2 0x237D JUMP JUMPDEST DUP1 DUP1 PUSH1 0x1 ADD SWAP2 POP POP PUSH2 0x210B JUMP JUMPDEST POP DUP1 PUSH2 0x23BE JUMPI PUSH1 0x40 MLOAD PUSH32 0x8C379A000000000000000000000000000000000000000000000000000000000 DUP2 MSTORE PUSH1 0x4 ADD PUSH2 0x23B5 SWAP1 PUSH2 0x43C9 JUMP JUMPDEST PUSH1 0x40 MLOAD DUP1 SWAP2 SUB SWAP1 REVERT JUMPDEST POP POP POP POP POP JUMP JUMPDEST PUSH1 0x60 PUSH1 0x0 DUP3 PUSH20 0xFFFFFFFFFFFFFFFFFFFFFFFFFFFFFFFFFFFFFFFF AND PUSH1 0x0 SHL SWAP1 POP PUSH1 0x0 PUSH1 0x40 MLOAD DUP1 PUSH1 0x40 ADD PUSH1 0x40 MSTORE DUP1 PUSH1 0x10 DUP2 MSTORE PUSH1 0x20 ADD PUSH32 0x3031323334353637383961626364656600000000000000000000000000000000 DUP2 MSTORE POP SWAP1 POP PUSH1 0x0 PUSH1 0x2A PUSH8 0xFFFFFFFFFFFFFFFF DUP2 GT ISZERO PUSH2 0x243C JUMPI PUSH2 0x243B PUSH2 0x2CF4 JUMP JUMPDEST JUMPDEST PUSH1 0x40 MLOAD SWAP1 DUP1 DUP3 MSTORE DUP1 PUSH1 0x1F ADD PUSH1 0x1F NOT AND PUSH1 0x20 ADD DUP3 ADD PUSH1 0x40 MSTORE DUP1 ISZERO PUSH2 0x246E JUMPI DUP2 PUSH1 0x20 ADD PUSH1 0x1 DUP3 MUL DUP1 CALLDATASIZE DUP4 CALLDATACOPY DUP1 DUP3 ADD SWAP2 POP POP SWAP1 POP JUMPDEST POP SWAP1 POP PUSH32 0x3000000000000000000000000000000000000000000000000000000000000000 DUP2 PUSH1 0x0 DUP2 MLOAD DUP2 LT PUSH2 0x24A6 JUMPI PUSH2 0x24A5 PUSH2 0x39FD JUMP JUMPDEST JUMPDEST PUSH1 0x20 ADD ADD SWAP1 PUSH31 0xFFFFFFFFFFFFFFFFFFFFFFFFFFFFFFFFFFFFFFFFFFFFFFFFFFFFFFFFFFFFFF NOT AND SWAP1 DUP2 PUSH1 0x0 BYTE SWAP1 MSTORE8 POP PUSH32 0x7800000000000000000000000000000000000000000000000000000000000000 DUP2 PUSH1 0x1 DUP2 MLOAD DUP2 LT PUSH2 0x250A JUMPI PUSH2 0x2509 PUSH2 0x39FD JUMP JUMPDEST JUMPDEST PUSH1 0x20 ADD ADD SWAP1 PUSH31 0xFFFFFFFFFFFFFFFFFFFFFFFFFFFFFFFFFFFFFFFFFFFFFFFFFFFFFFFFFFFFFF NOT AND SWAP1 DUP2 PUSH1 0x0 BYTE SWAP1 MSTORE8 POP PUSH1 0x0 JUMPDEST PUSH1 0x14 DUP2 LT ISZERO PUSH2 0x26BE JUMPI DUP3 PUSH1 0x4 DUP6 PUSH1 0xC DUP5 PUSH2 0x2556 SWAP2 SWAP1 PUSH2 0x41B0 JUMP JUMPDEST PUSH1 0x20 DUP2 LT PUSH2 0x2567 JUMPI PUSH2 0x2566 PUSH2 0x39FD JUMP JUMPDEST JUMPDEST BYTE PUSH1 0xF8 SHL PUSH31 0xFFFFFFFFFFFFFFFFFFFFFFFFFFFFFFFFFFFFFFFFFFFFFFFFFFFFFFFFFFFFFF NOT AND SWAP1 SHR PUSH1 0xF8 SHR PUSH1 0xFF AND DUP2 MLOAD DUP2 LT PUSH2 0x25A6 JUMPI PUSH2 0x25A5 PUSH2 0x39FD JUMP JUMPDEST JUMPDEST PUSH1 0x20 ADD ADD MLOAD PUSH1 0xF8 SHR PUSH1 0xF8 SHL DUP3 PUSH1 0x2 DUP4 PUSH2 0x25BF SWAP2 SWAP1 PUSH2 0x43E9 JUMP JUMPDEST PUSH1 0x2 PUSH2 0x25CB SWAP2 SWAP1 PUSH2 0x41B0 JUMP JUMPDEST DUP2 MLOAD DUP2 LT PUSH2 0x25DC JUMPI PUSH2 0x25DB PUSH2 0x39FD JUMP JUMPDEST JUMPDEST PUSH1 0x20 ADD ADD SWAP1 PUSH31 0xFFFFFFFFFFFFFFFFFFFFFFFFFFFFFFFFFFFFFFFFFFFFFFFFFFFFFFFFFFFFFF NOT AND SWAP1 DUP2 PUSH1 0x0 BYTE SWAP1 MSTORE8 POP DUP3 PUSH1 0xF PUSH1 0xF8 SHL DUP6 PUSH1 0xC DUP5 PUSH2 0x261F SWAP2 SWAP1 PUSH2 0x41B0 JUMP JUMPDEST PUSH1 0x20 DUP2 LT PUSH2 0x2630 JUMPI PUSH2 0x262F PUSH2 0x39FD JUMP JUMPDEST JUMPDEST BYTE PUSH1 0xF8 SHL AND PUSH1 0xF8 SHR PUSH1 0xFF AND DUP2 MLOAD DUP2 LT PUSH2 0x264C JUMPI PUSH2 0x264B PUSH2 0x39FD JUMP JUMPDEST JUMPDEST PUSH1 0x20 ADD ADD MLOAD PUSH1 0xF8 SHR PUSH1 0xF8 SHL DUP3 PUSH1 0x2 DUP4 PUSH2 0x2665 SWAP2 SWAP1 PUSH2 0x43E9 JUMP JUMPDEST PUSH1 0x3 PUSH2 0x2671 SWAP2 SWAP1 PUSH2 0x41B0 JUMP JUMPDEST DUP2 MLOAD DUP2 LT PUSH2 0x2682 JUMPI PUSH2 0x2681 PUSH2 0x39FD JUMP JUMPDEST JUMPDEST PUSH1 0x20 ADD ADD SWAP1 PUSH31 0xFFFFFFFFFFFFFFFFFFFFFFFFFFFFFFFFFFFFFFFFFFFFFFFFFFFFFFFFFFFFFF NOT AND SWAP1 DUP2 PUSH1 0x0 BYTE SWAP1 MSTORE8 POP DUP1 DUP1 PUSH1 0x1 ADD SWAP2 POP POP PUSH2 0x253C JUMP JUMPDEST POP DUP1 SWAP4 POP POP POP POP SWAP2 SWAP1 POP JUMP JUMPDEST PUSH1 0x60 PUSH1 0x0 DUP3 SUB PUSH2 0x2711 JUMPI PUSH1 0x40 MLOAD DUP1 PUSH1 0x40 ADD PUSH1 0x40 MSTORE DUP1 PUSH1 0x1 DUP2 MSTORE PUSH1 0x20 ADD PUSH32 0x3000000000000000000000000000000000000000000000000000000000000000 DUP2 MSTORE POP SWAP1 POP PUSH2 0x284D JUMP JUMPDEST PUSH1 0x0 DUP3 SWAP1 POP PUSH1 0x0 JUMPDEST PUSH1 0x0 DUP3 EQ PUSH2 0x2743 JUMPI DUP1 DUP1 PUSH2 0x272C SWAP1 PUSH2 0x442B JUMP JUMPDEST SWAP2 POP POP PUSH1 0xA DUP3 PUSH2 0x273C SWAP2 SWAP1 PUSH2 0x44A2 JUMP JUMPDEST SWAP2 POP PUSH2 0x2719 JUMP JUMPDEST PUSH1 0x0 DUP2 PUSH8 0xFFFFFFFFFFFFFFFF DUP2 GT ISZERO PUSH2 0x275F JUMPI PUSH2 0x275E PUSH2 0x2CF4 JUMP JUMPDEST JUMPDEST PUSH1 0x40 MLOAD SWAP1 DUP1 DUP3 MSTORE DUP1 PUSH1 0x1F ADD PUSH1 0x1F NOT AND PUSH1 0x20 ADD DUP3 ADD PUSH1 0x40 MSTORE DUP1 ISZERO PUSH2 0x2791 JUMPI DUP2 PUSH1 0x20 ADD PUSH1 0x1 DUP3 MUL DUP1 CALLDATASIZE DUP4 CALLDATACOPY DUP1 DUP3 ADD SWAP2 POP POP SWAP1 POP JUMPDEST POP SWAP1 POP PUSH1 0x0 DUP3 SWAP1 POP JUMPDEST PUSH1 0x0 DUP7 EQ PUSH2 0x2845 JUMPI PUSH1 0x1 DUP2 PUSH2 0x27AF SWAP2 SWAP1 PUSH2 0x3EEC JUMP JUMPDEST SWAP1 POP PUSH1 0x0 PUSH1 0xA DUP1 DUP9 PUSH2 0x27C1 SWAP2 SWAP1 PUSH2 0x44A2 JUMP JUMPDEST PUSH2 0x27CB SWAP2 SWAP1 PUSH2 0x43E9 JUMP JUMPDEST DUP8 PUSH2 0x27D6 SWAP2 SWAP1 PUSH2 0x3EEC JUMP JUMPDEST PUSH1 0x30 PUSH2 0x27E2 SWAP2 SWAP1 PUSH2 0x44E0 JUMP JUMPDEST SWAP1 POP PUSH1 0x0 DUP2 PUSH1 0xF8 SHL SWAP1 POP DUP1 DUP5 DUP5 DUP2 MLOAD DUP2 LT PUSH2 0x2800 JUMPI PUSH2 0x27FF PUSH2 0x39FD JUMP JUMPDEST JUMPDEST PUSH1 0x20 ADD ADD SWAP1 PUSH31 0xFFFFFFFFFFFFFFFFFFFFFFFFFFFFFFFFFFFFFFFFFFFFFFFFFFFFFFFFFFFFFF NOT AND SWAP1 DUP2 PUSH1 0x0 BYTE SWAP1 MSTORE8 POP PUSH1 0xA DUP9 PUSH2 0x283C SWAP2 SWAP1 PUSH2 0x44A2 JUMP JUMPDEST SWAP8 POP POP POP PUSH2 0x279A JUMP JUMPDEST DUP2 SWAP5 POP POP POP POP POP JUMPDEST SWAP2 SWAP1 POP JUMP JUMPDEST DUP3 DUP1 SLOAD DUP3 DUP3 SSTORE SWAP1 PUSH1 0x0 MSTORE PUSH1 0x20 PUSH1 0x0 KECCAK256 SWAP1 PUSH1 0x6 MUL DUP2 ADD SWAP3 DUP3 ISZERO PUSH2 0x2953 JUMPI PUSH1 0x0 MSTORE PUSH1 0x20 PUSH1 0x0 KECCAK256 SWAP2 PUSH1 0x6 MUL DUP3 ADD JUMPDEST DUP3 DUP2 GT ISZERO PUSH2 0x2952 JUMPI DUP3 DUP3 PUSH1 0x0 DUP3 ADD DUP2 PUSH1 0x0 ADD SWAP1 DUP2 PUSH2 0x289B SWAP2 SWAP1 PUSH2 0x41FA JUMP JUMPDEST POP PUSH1 0x1 DUP3 ADD DUP2 PUSH1 0x1 ADD SWAP1 DUP2 PUSH2 0x28B0 SWAP2 SWAP1 PUSH2 0x41FA JUMP JUMPDEST POP PUSH1 0x2 DUP3 ADD SLOAD DUP2 PUSH1 0x2 ADD SSTORE PUSH1 0x3 DUP3 ADD SLOAD DUP2 PUSH1 0x3 ADD SSTORE PUSH1 0x4 DUP3 ADD PUSH1 0x0 SWAP1 SLOAD SWAP1 PUSH2 0x100 EXP SWAP1 DIV PUSH20 0xFFFFFFFFFFFFFFFFFFFFFFFFFFFFFFFFFFFFFFFF AND DUP2 PUSH1 0x4 ADD PUSH1 0x0 PUSH2 0x100 EXP DUP2 SLOAD DUP2 PUSH20 0xFFFFFFFFFFFFFFFFFFFFFFFFFFFFFFFFFFFFFFFF MUL NOT AND SWAP1 DUP4 PUSH20 0xFFFFFFFFFFFFFFFFFFFFFFFFFFFFFFFFFFFFFFFF AND MUL OR SWAP1 SSTORE POP PUSH1 0x5 DUP3 ADD DUP2 PUSH1 0x5 ADD SWAP1 DUP2 PUSH2 0x2940 SWAP2 SWAP1 PUSH2 0x41FA JUMP JUMPDEST POP POP POP SWAP2 PUSH1 0x6 ADD SWAP2 SWAP1 PUSH1 0x6 ADD SWAP1 PUSH2 0x287D JUMP JUMPDEST JUMPDEST POP SWAP1 POP PUSH2 0x2960 SWAP2 SWAP1 PUSH2 0x2AF8 JUMP JUMPDEST POP SWAP1 JUMP JUMPDEST DUP3 DUP1 SLOAD DUP3 DUP3 SSTORE SWAP1 PUSH1 0x0 MSTORE PUSH1 0x20 PUSH1 0x0 KECCAK256 SWAP1 PUSH1 0x5 MUL DUP2 ADD SWAP3 DUP3 ISZERO PUSH2 0x2A5F JUMPI PUSH1 0x0 MSTORE PUSH1 0x20 PUSH1 0x0 KECCAK256 SWAP2 PUSH1 0x5 MUL DUP3 ADD JUMPDEST DUP3 DUP2 GT ISZERO PUSH2 0x2A5E JUMPI DUP3 DUP3 PUSH1 0x0 DUP3 ADD DUP2 PUSH1 0x0 ADD SWAP1 DUP2 PUSH2 0x29AD SWAP2 SWAP1 PUSH2 0x41FA JUMP JUMPDEST POP PUSH1 0x1 DUP3 ADD PUSH1 0x0 SWAP1 SLOAD SWAP1 PUSH2 0x100 EXP SWAP1 DIV PUSH20 0xFFFFFFFFFFFFFFFFFFFFFFFFFFFFFFFFFFFFFFFF AND DUP2 PUSH1 0x1 ADD PUSH1 0x0 PUSH2 0x100 EXP DUP2 SLOAD DUP2 PUSH20 0xFFFFFFFFFFFFFFFFFFFFFFFFFFFFFFFFFFFFFFFF MUL NOT AND SWAP1 DUP4 PUSH20 0xFFFFFFFFFFFFFFFFFFFFFFFFFFFFFFFFFFFFFFFF AND MUL OR SWAP1 SSTORE POP PUSH1 0x2 DUP3 ADD SLOAD DUP2 PUSH1 0x2 ADD SSTORE PUSH1 0x3 DUP3 ADD DUP2 PUSH1 0x3 ADD SWAP1 DUP1 SLOAD PUSH2 0x2A35 SWAP3 SWAP2 SWAP1 PUSH2 0x2852 JUMP JUMPDEST POP PUSH1 0x4 DUP3 ADD DUP2 PUSH1 0x4 ADD SWAP1 DUP1 SLOAD PUSH2 0x2A4C SWAP3 SWAP2 SWAP1 PUSH2 0x2964 JUMP JUMPDEST POP POP POP SWAP2 PUSH1 0x5 ADD SWAP2 SWAP1 PUSH1 0x5 ADD SWAP1 PUSH2 0x298F JUMP JUMPDEST JUMPDEST POP SWAP1 POP PUSH2 0x2A6C SWAP2 SWAP1 PUSH2 0x2B76 JUMP JUMPDEST POP SWAP1 JUMP JUMPDEST POP DUP1 SLOAD PUSH2 0x2A7C SWAP1 PUSH2 0x35DC JUMP JUMPDEST PUSH1 0x0 DUP3 SSTORE DUP1 PUSH1 0x1F LT PUSH2 0x2A8E JUMPI POP PUSH2 0x2AAD JUMP JUMPDEST PUSH1 0x1F ADD PUSH1 0x20 SWAP1 DIV SWAP1 PUSH1 0x0 MSTORE PUSH1 0x20 PUSH1 0x0 KECCAK256 SWAP1 DUP2 ADD SWAP1 PUSH2 0x2AAC SWAP2 SWAP1 PUSH2 0x2BEC JUMP JUMPDEST JUMPDEST POP JUMP JUMPDEST POP DUP1 SLOAD PUSH1 0x0 DUP3 SSTORE PUSH1 0x6 MUL SWAP1 PUSH1 0x0 MSTORE PUSH1 0x20 PUSH1 0x0 KECCAK256 SWAP1 DUP2 ADD SWAP1 PUSH2 0x2AD1 SWAP2 SWAP1 PUSH2 0x2AF8 JUMP JUMPDEST POP JUMP JUMPDEST POP DUP1 SLOAD PUSH1 0x0 DUP3 SSTORE PUSH1 0x5 MUL SWAP1 PUSH1 0x0 MSTORE PUSH1 0x20 PUSH1 0x0 KECCAK256 SWAP1 DUP2 ADD SWAP1 PUSH2 0x2AF5 SWAP2 SWAP1 PUSH2 0x2B76 JUMP JUMPDEST POP JUMP JUMPDEST JUMPDEST DUP1 DUP3 GT ISZERO PUSH2 0x2B72 JUMPI PUSH1 0x0 DUP1 DUP3 ADD PUSH1 0x0 PUSH2 0x2B12 SWAP2 SWAP1 PUSH2 0x2A70 JUMP JUMPDEST PUSH1 0x1 DUP3 ADD PUSH1 0x0 PUSH2 0x2B22 SWAP2 SWAP1 PUSH2 0x2A70 JUMP JUMPDEST PUSH1 0x2 DUP3 ADD PUSH1 0x0 SWAP1 SSTORE PUSH1 0x3 DUP3 ADD PUSH1 0x0 SWAP1 SSTORE PUSH1 0x4 DUP3 ADD PUSH1 0x0 PUSH2 0x100 EXP DUP2 SLOAD SWAP1 PUSH20 0xFFFFFFFFFFFFFFFFFFFFFFFFFFFFFFFFFFFFFFFF MUL NOT AND SWAP1 SSTORE PUSH1 0x5 DUP3 ADD PUSH1 0x0 PUSH2 0x2B69 SWAP2 SWAP1 PUSH2 0x2A70 JUMP JUMPDEST POP PUSH1 0x6 ADD PUSH2 0x2AF9 JUMP JUMPDEST POP SWAP1 JUMP JUMPDEST JUMPDEST DUP1 DUP3 GT ISZERO PUSH2 0x2BE8 JUMPI PUSH1 0x0 DUP1 DUP3 ADD PUSH1 0x0 PUSH2 0x2B90 SWAP2 SWAP1 PUSH2 0x2A70 JUMP JUMPDEST PUSH1 0x1 DUP3 ADD PUSH1 0x0 PUSH2 0x100 EXP DUP2 SLOAD SWAP1 PUSH20 0xFFFFFFFFFFFFFFFFFFFFFFFFFFFFFFFFFFFFFFFF MUL NOT AND SWAP1 SSTORE PUSH1 0x2 DUP3 ADD PUSH1 0x0 SWAP1 SSTORE PUSH1 0x3 DUP3 ADD PUSH1 0x0 PUSH2 0x2BCF SWAP2 SWAP1 PUSH2 0x2AB0 JUMP JUMPDEST PUSH1 0x4 DUP3 ADD PUSH1 0x0 PUSH2 0x2BDF SWAP2 SWAP1 PUSH2 0x2AD4 JUMP JUMPDEST POP PUSH1 0x5 ADD PUSH2 0x2B77 JUMP JUMPDEST POP SWAP1 JUMP JUMPDEST JUMPDEST DUP1 DUP3 GT ISZERO PUSH2 0x2C05 JUMPI PUSH1 0x0 DUP2 PUSH1 0x0 SWAP1 SSTORE POP PUSH1 0x1 ADD PUSH2 0x2BED JUMP JUMPDEST POP SWAP1 JUMP JUMPDEST PUSH1 0x0 PUSH1 0x40 MLOAD SWAP1 POP SWAP1 JUMP JUMPDEST PUSH1 0x0 DUP1 REVERT JUMPDEST PUSH1 0x0 DUP1 REVERT JUMPDEST PUSH1 0x0 PUSH20 0xFFFFFFFFFFFFFFFFFFFFFFFFFFFFFFFFFFFFFFFF DUP3 AND SWAP1 POP SWAP2 SWAP1 POP JUMP JUMPDEST PUSH1 0x0 PUSH2 0x2C48 DUP3 PUSH2 0x2C1D JUMP JUMPDEST SWAP1 POP SWAP2 SWAP1 POP JUMP JUMPDEST PUSH2 0x2C58 DUP2 PUSH2 0x2C3D JUMP JUMPDEST DUP2 EQ PUSH2 0x2C63 JUMPI PUSH1 0x0 DUP1 REVERT JUMPDEST POP JUMP JUMPDEST PUSH1 0x0 DUP2 CALLDATALOAD SWAP1 POP PUSH2 0x2C75 DUP2 PUSH2 0x2C4F JUMP JUMPDEST SWAP3 SWAP2 POP POP JUMP JUMPDEST PUSH1 0x0 PUSH1 0x20 DUP3 DUP5 SUB SLT ISZERO PUSH2 0x2C91 JUMPI PUSH2 0x2C90 PUSH2 0x2C13 JUMP JUMPDEST JUMPDEST PUSH1 0x0 PUSH2 0x2C9F DUP5 DUP3 DUP6 ADD PUSH2 0x2C66 JUMP JUMPDEST SWAP2 POP POP SWAP3 SWAP2 POP POP JUMP JUMPDEST PUSH1 0x0 DUP2 ISZERO ISZERO SWAP1 POP SWAP2 SWAP1 POP JUMP JUMPDEST PUSH2 0x2CBD DUP2 PUSH2 0x2CA8 JUMP JUMPDEST DUP3 MSTORE POP POP JUMP JUMPDEST PUSH1 0x0 PUSH1 0x20 DUP3 ADD SWAP1 POP PUSH2 0x2CD8 PUSH1 0x0 DUP4 ADD DUP5 PUSH2 0x2CB4 JUMP JUMPDEST SWAP3 SWAP2 POP POP JUMP JUMPDEST PUSH1 0x0 DUP1 REVERT JUMPDEST PUSH1 0x0 PUSH1 0x1F NOT PUSH1 0x1F DUP4 ADD AND SWAP1 POP SWAP2 SWAP1 POP JUMP JUMPDEST PUSH32 0x4E487B7100000000000000000000000000000000000000000000000000000000 PUSH1 0x0 MSTORE PUSH1 0x41 PUSH1 0x4 MSTORE PUSH1 0x24 PUSH1 0x0 REVERT JUMPDEST PUSH2 0x2D2C DUP3 PUSH2 0x2CE3 JUMP JUMPDEST DUP2 ADD DUP2 DUP2 LT PUSH8 0xFFFFFFFFFFFFFFFF DUP3 GT OR ISZERO PUSH2 0x2D4B JUMPI PUSH2 0x2D4A PUSH2 0x2CF4 JUMP JUMPDEST JUMPDEST DUP1 PUSH1 0x40 MSTORE POP POP POP JUMP JUMPDEST PUSH1 0x0 PUSH2 0x2D5E PUSH2 0x2C09 JUMP JUMPDEST SWAP1 POP PUSH2 0x2D6A DUP3 DUP3 PUSH2 0x2D23 JUMP JUMPDEST SWAP2 SWAP1 POP JUMP JUMPDEST PUSH1 0x0 PUSH8 0xFFFFFFFFFFFFFFFF DUP3 GT ISZERO PUSH2 0x2D8A JUMPI PUSH2 0x2D89 PUSH2 0x2CF4 JUMP JUMPDEST JUMPDEST PUSH1 0x20 DUP3 MUL SWAP1 POP PUSH1 0x20 DUP2 ADD SWAP1 POP SWAP2 SWAP1 POP JUMP JUMPDEST PUSH1 0x0 DUP1 REVERT JUMPDEST PUSH1 0x0 DUP1 REVERT JUMPDEST PUSH1 0x0 PUSH8 0xFFFFFFFFFFFFFFFF DUP3 GT ISZERO PUSH2 0x2DC0 JUMPI PUSH2 0x2DBF PUSH2 0x2CF4 JUMP JUMPDEST JUMPDEST PUSH2 0x2DC9 DUP3 PUSH2 0x2CE3 JUMP JUMPDEST SWAP1 POP PUSH1 0x20 DUP2 ADD SWAP1 POP SWAP2 SWAP1 POP JUMP JUMPDEST DUP3 DUP2 DUP4 CALLDATACOPY PUSH1 0x0 DUP4 DUP4 ADD MSTORE POP POP POP JUMP JUMPDEST PUSH1 0x0 PUSH2 0x2DF8 PUSH2 0x2DF3 DUP5 PUSH2 0x2DA5 JUMP JUMPDEST PUSH2 0x2D54 JUMP JUMPDEST SWAP1 POP DUP3 DUP2 MSTORE PUSH1 0x20 DUP2 ADD DUP5 DUP5 DUP5 ADD GT ISZERO PUSH2 0x2E14 JUMPI PUSH2 0x2E13 PUSH2 0x2DA0 JUMP JUMPDEST JUMPDEST PUSH2 0x2E1F DUP5 DUP3 DUP6 PUSH2 0x2DD6 JUMP JUMPDEST POP SWAP4 SWAP3 POP POP POP JUMP JUMPDEST PUSH1 0x0 DUP3 PUSH1 0x1F DUP4 ADD SLT PUSH2 0x2E3C JUMPI PUSH2 0x2E3B PUSH2 0x2CDE JUMP JUMPDEST JUMPDEST DUP2 CALLDATALOAD PUSH2 0x2E4C DUP5 DUP3 PUSH1 0x20 DUP7 ADD PUSH2 0x2DE5 JUMP JUMPDEST SWAP2 POP POP SWAP3 SWAP2 POP POP JUMP JUMPDEST PUSH1 0x0 PUSH2 0x2E68 PUSH2 0x2E63 DUP5 PUSH2 0x2D6F JUMP JUMPDEST PUSH2 0x2D54 JUMP JUMPDEST SWAP1 POP DUP1 DUP4 DUP3 MSTORE PUSH1 0x20 DUP3 ADD SWAP1 POP PUSH1 0x20 DUP5 MUL DUP4 ADD DUP6 DUP2 GT ISZERO PUSH2 0x2E8B JUMPI PUSH2 0x2E8A PUSH2 0x2D9B JUMP JUMPDEST JUMPDEST DUP4 JUMPDEST DUP2 DUP2 LT ISZERO PUSH2 0x2ED2 JUMPI DUP1 CALLDATALOAD PUSH8 0xFFFFFFFFFFFFFFFF DUP2 GT ISZERO PUSH2 0x2EB0 JUMPI PUSH2 0x2EAF PUSH2 0x2CDE JUMP JUMPDEST JUMPDEST DUP1 DUP7 ADD PUSH2 0x2EBD DUP10 DUP3 PUSH2 0x2E27 JUMP JUMPDEST DUP6 MSTORE PUSH1 0x20 DUP6 ADD SWAP5 POP POP POP PUSH1 0x20 DUP2 ADD SWAP1 POP PUSH2 0x2E8D JUMP JUMPDEST POP POP POP SWAP4 SWAP3 POP POP POP JUMP JUMPDEST PUSH1 0x0 DUP3 PUSH1 0x1F DUP4 ADD SLT PUSH2 0x2EF1 JUMPI PUSH2 0x2EF0 PUSH2 0x2CDE JUMP JUMPDEST JUMPDEST DUP2 CALLDATALOAD PUSH2 0x2F01 DUP5 DUP3 PUSH1 0x20 DUP7 ADD PUSH2 0x2E55 JUMP JUMPDEST SWAP2 POP POP SWAP3 SWAP2 POP POP JUMP JUMPDEST PUSH1 0x0 DUP1 PUSH1 0x40 DUP4 DUP6 SUB SLT ISZERO PUSH2 0x2F21 JUMPI PUSH2 0x2F20 PUSH2 0x2C13 JUMP JUMPDEST JUMPDEST PUSH1 0x0 DUP4 ADD CALLDATALOAD PUSH8 0xFFFFFFFFFFFFFFFF DUP2 GT ISZERO PUSH2 0x2F3F JUMPI PUSH2 0x2F3E PUSH2 0x2C18 JUMP JUMPDEST JUMPDEST PUSH2 0x2F4B DUP6 DUP3 DUP7 ADD PUSH2 0x2EDC JUMP JUMPDEST SWAP3 POP POP PUSH1 0x20 PUSH2 0x2F5C DUP6 DUP3 DUP7 ADD PUSH2 0x2C66 JUMP JUMPDEST SWAP2 POP POP SWAP3 POP SWAP3 SWAP1 POP JUMP JUMPDEST PUSH1 0x0 DUP2 MLOAD SWAP1 POP SWAP2 SWAP1 POP JUMP JUMPDEST PUSH1 0x0 DUP3 DUP3 MSTORE PUSH1 0x20 DUP3 ADD SWAP1 POP SWAP3 SWAP2 POP POP JUMP JUMPDEST PUSH1 0x0 JUMPDEST DUP4 DUP2 LT ISZERO PUSH2 0x2FA0 JUMPI DUP1 DUP3 ADD MLOAD DUP2 DUP5 ADD MSTORE PUSH1 0x20 DUP2 ADD SWAP1 POP PUSH2 0x2F85 JUMP JUMPDEST PUSH1 0x0 DUP5 DUP5 ADD MSTORE POP POP POP POP JUMP JUMPDEST PUSH1 0x0 PUSH2 0x2FB7 DUP3 PUSH2 0x2F66 JUMP JUMPDEST PUSH2 0x2FC1 DUP2 DUP6 PUSH2 0x2F71 JUMP JUMPDEST SWAP4 POP PUSH2 0x2FD1 DUP2 DUP6 PUSH1 0x20 DUP7 ADD PUSH2 0x2F82 JUMP JUMPDEST PUSH2 0x2FDA DUP2 PUSH2 0x2CE3 JUMP JUMPDEST DUP5 ADD SWAP2 POP POP SWAP3 SWAP2 POP POP JUMP JUMPDEST PUSH1 0x0 PUSH1 0x20 DUP3 ADD SWAP1 POP DUP2 DUP2 SUB PUSH1 0x0 DUP4 ADD MSTORE PUSH2 0x2FFF DUP2 DUP5 PUSH2 0x2FAC JUMP JUMPDEST SWAP1 POP SWAP3 SWAP2 POP POP JUMP JUMPDEST PUSH1 0x0 DUP1 PUSH1 0x0 PUSH1 0x60 DUP5 DUP7 SUB SLT ISZERO PUSH2 0x3020 JUMPI PUSH2 0x301F PUSH2 0x2C13 JUMP JUMPDEST JUMPDEST PUSH1 0x0 DUP5 ADD CALLDATALOAD PUSH8 0xFFFFFFFFFFFFFFFF DUP2 GT ISZERO PUSH2 0x303E JUMPI PUSH2 0x303D PUSH2 0x2C18 JUMP JUMPDEST JUMPDEST PUSH2 0x304A DUP7 DUP3 DUP8 ADD PUSH2 0x2EDC JUMP JUMPDEST SWAP4 POP POP PUSH1 0x20 DUP5 ADD CALLDATALOAD PUSH8 0xFFFFFFFFFFFFFFFF DUP2 GT ISZERO PUSH2 0x306B JUMPI PUSH2 0x306A PUSH2 0x2C18 JUMP JUMPDEST JUMPDEST PUSH2 0x3077 DUP7 DUP3 DUP8 ADD PUSH2 0x2E27 JUMP JUMPDEST SWAP3 POP POP PUSH1 0x40 PUSH2 0x3088 DUP7 DUP3 DUP8 ADD PUSH2 0x2C66 JUMP JUMPDEST SWAP2 POP POP SWAP3 POP SWAP3 POP SWAP3 JUMP JUMPDEST PUSH1 0x0 PUSH8 0xFFFFFFFFFFFFFFFF DUP3 GT ISZERO PUSH2 0x30AD JUMPI PUSH2 0x30AC PUSH2 0x2CF4 JUMP JUMPDEST JUMPDEST PUSH1 0x20 DUP3 MUL SWAP1 POP PUSH1 0x20 DUP2 ADD SWAP1 POP SWAP2 SWAP1 POP JUMP JUMPDEST PUSH1 0x0 DUP1 REVERT JUMPDEST PUSH1 0x0 DUP1 REVERT JUMPDEST PUSH1 0x0 DUP2 SWAP1 POP SWAP2 SWAP1 POP JUMP JUMPDEST PUSH2 0x30DB DUP2 PUSH2 0x30C8 JUMP JUMPDEST DUP2 EQ PUSH2 0x30E6 JUMPI PUSH1 0x0 DUP1 REVERT JUMPDEST POP JUMP JUMPDEST PUSH1 0x0 DUP2 CALLDATALOAD SWAP1 POP PUSH2 0x30F8 DUP2 PUSH2 0x30D2 JUMP JUMPDEST SWAP3 SWAP2 POP POP JUMP JUMPDEST PUSH1 0x0 PUSH1 0x80 DUP3 DUP5 SUB SLT ISZERO PUSH2 0x3114 JUMPI PUSH2 0x3113 PUSH2 0x30BE JUMP JUMPDEST JUMPDEST PUSH2 0x311E PUSH1 0x80 PUSH2 0x2D54 JUMP JUMPDEST SWAP1 POP PUSH1 0x0 DUP3 ADD CALLDATALOAD PUSH8 0xFFFFFFFFFFFFFFFF DUP2 GT ISZERO PUSH2 0x313E JUMPI PUSH2 0x313D PUSH2 0x30C3 JUMP JUMPDEST JUMPDEST PUSH2 0x314A DUP5 DUP3 DUP6 ADD PUSH2 0x2E27 JUMP JUMPDEST PUSH1 0x0 DUP4 ADD MSTORE POP PUSH1 0x20 DUP3 ADD CALLDATALOAD PUSH8 0xFFFFFFFFFFFFFFFF DUP2 GT ISZERO PUSH2 0x316E JUMPI PUSH2 0x316D PUSH2 0x30C3 JUMP JUMPDEST JUMPDEST PUSH2 0x317A DUP5 DUP3 DUP6 ADD PUSH2 0x2E27 JUMP JUMPDEST PUSH1 0x20 DUP4 ADD MSTORE POP PUSH1 0x40 PUSH2 0x318E DUP5 DUP3 DUP6 ADD PUSH2 0x30E9 JUMP JUMPDEST PUSH1 0x40 DUP4 ADD MSTORE POP PUSH1 0x60 DUP3 ADD CALLDATALOAD PUSH8 0xFFFFFFFFFFFFFFFF DUP2 GT ISZERO PUSH2 0x31B2 JUMPI PUSH2 0x31B1 PUSH2 0x30C3 JUMP JUMPDEST JUMPDEST PUSH2 0x31BE DUP5 DUP3 DUP6 ADD PUSH2 0x2E27 JUMP JUMPDEST PUSH1 0x60 DUP4 ADD MSTORE POP SWAP3 SWAP2 POP POP JUMP JUMPDEST PUSH1 0x0 PUSH2 0x31DD PUSH2 0x31D8 DUP5 PUSH2 0x3092 JUMP JUMPDEST PUSH2 0x2D54 JUMP JUMPDEST SWAP1 POP DUP1 DUP4 DUP3 MSTORE PUSH1 0x20 DUP3 ADD SWAP1 POP PUSH1 0x20 DUP5 MUL DUP4 ADD DUP6 DUP2 GT ISZERO PUSH2 0x3200 JUMPI PUSH2 0x31FF PUSH2 0x2D9B JUMP JUMPDEST JUMPDEST DUP4 JUMPDEST DUP2 DUP2 LT ISZERO PUSH2 0x3247 JUMPI DUP1 CALLDATALOAD PUSH8 0xFFFFFFFFFFFFFFFF DUP2 GT ISZERO PUSH2 0x3225 JUMPI PUSH2 0x3224 PUSH2 0x2CDE JUMP JUMPDEST JUMPDEST DUP1 DUP7 ADD PUSH2 0x3232 DUP10 DUP3 PUSH2 0x30FE JUMP JUMPDEST DUP6 MSTORE PUSH1 0x20 DUP6 ADD SWAP5 POP POP POP PUSH1 0x20 DUP2 ADD SWAP1 POP PUSH2 0x3202 JUMP JUMPDEST POP POP POP SWAP4 SWAP3 POP POP POP JUMP JUMPDEST PUSH1 0x0 DUP3 PUSH1 0x1F DUP4 ADD SLT PUSH2 0x3266 JUMPI PUSH2 0x3265 PUSH2 0x2CDE JUMP JUMPDEST JUMPDEST DUP2 CALLDATALOAD PUSH2 0x3276 DUP5 DUP3 PUSH1 0x20 DUP7 ADD PUSH2 0x31CA JUMP JUMPDEST SWAP2 POP POP SWAP3 SWAP2 POP POP JUMP JUMPDEST PUSH1 0x0 DUP1 PUSH1 0x0 PUSH1 0x60 DUP5 DUP7 SUB SLT ISZERO PUSH2 0x3298 JUMPI PUSH2 0x3297 PUSH2 0x2C13 JUMP JUMPDEST JUMPDEST PUSH1 0x0 DUP5 ADD CALLDATALOAD PUSH8 0xFFFFFFFFFFFFFFFF DUP2 GT ISZERO PUSH2 0x32B6 JUMPI PUSH2 0x32B5 PUSH2 0x2C18 JUMP JUMPDEST JUMPDEST PUSH2 0x32C2 DUP7 DUP3 DUP8 ADD PUSH2 0x2EDC JUMP JUMPDEST SWAP4 POP POP PUSH1 0x20 DUP5 ADD CALLDATALOAD PUSH8 0xFFFFFFFFFFFFFFFF DUP2 GT ISZERO PUSH2 0x32E3 JUMPI PUSH2 0x32E2 PUSH2 0x2C18 JUMP JUMPDEST JUMPDEST PUSH2 0x32EF DUP7 DUP3 DUP8 ADD PUSH2 0x3251 JUMP JUMPDEST SWAP3 POP POP PUSH1 0x40 PUSH2 0x3300 DUP7 DUP3 DUP8 ADD PUSH2 0x2C66 JUMP JUMPDEST SWAP2 POP POP SWAP3 POP SWAP3 POP SWAP3 JUMP JUMPDEST PUSH1 0x0 DUP1 PUSH1 0x0 DUP1 PUSH1 0x0 DUP1 PUSH1 0x0 DUP1 PUSH1 0x0 PUSH2 0x120 DUP11 DUP13 SUB SLT ISZERO PUSH2 0x332D JUMPI PUSH2 0x332C PUSH2 0x2C13 JUMP JUMPDEST JUMPDEST PUSH1 0x0 DUP11 ADD CALLDATALOAD PUSH8 0xFFFFFFFFFFFFFFFF DUP2 GT ISZERO PUSH2 0x334B JUMPI PUSH2 0x334A PUSH2 0x2C18 JUMP JUMPDEST JUMPDEST PUSH2 0x3357 DUP13 DUP3 DUP14 ADD PUSH2 0x2EDC JUMP JUMPDEST SWAP10 POP POP PUSH1 0x20 DUP11 ADD CALLDATALOAD PUSH8 0xFFFFFFFFFFFFFFFF DUP2 GT ISZERO PUSH2 0x3378 JUMPI PUSH2 0x3377 PUSH2 0x2C18 JUMP JUMPDEST JUMPDEST PUSH2 0x3384 DUP13 DUP3 DUP14 ADD PUSH2 0x2E27 JUMP JUMPDEST SWAP9 POP POP PUSH1 0x40 DUP11 ADD CALLDATALOAD PUSH8 0xFFFFFFFFFFFFFFFF DUP2 GT ISZERO PUSH2 0x33A5 JUMPI PUSH2 0x33A4 PUSH2 0x2C18 JUMP JUMPDEST JUMPDEST PUSH2 0x33B1 DUP13 DUP3 DUP14 ADD PUSH2 0x2E27 JUMP JUMPDEST SWAP8 POP POP PUSH1 0x60 DUP11 ADD CALLDATALOAD PUSH8 0xFFFFFFFFFFFFFFFF DUP2 GT ISZERO PUSH2 0x33D2 JUMPI PUSH2 0x33D1 PUSH2 0x2C18 JUMP JUMPDEST JUMPDEST PUSH2 0x33DE DUP13 DUP3 DUP14 ADD PUSH2 0x2E27 JUMP JUMPDEST SWAP7 POP POP PUSH1 0x80 PUSH2 0x33EF DUP13 DUP3 DUP14 ADD PUSH2 0x30E9 JUMP JUMPDEST SWAP6 POP POP PUSH1 0xA0 PUSH2 0x3400 DUP13 DUP3 DUP14 ADD PUSH2 0x30E9 JUMP JUMPDEST SWAP5 POP POP PUSH1 0xC0 PUSH2 0x3411 DUP13 DUP3 DUP14 ADD PUSH2 0x2C66 JUMP JUMPDEST SWAP4 POP POP PUSH1 0xE0 DUP11 ADD CALLDATALOAD PUSH8 0xFFFFFFFFFFFFFFFF DUP2 GT ISZERO PUSH2 0x3432 JUMPI PUSH2 0x3431 PUSH2 0x2C18 JUMP JUMPDEST JUMPDEST PUSH2 0x343E DUP13 DUP3 DUP14 ADD PUSH2 0x2E27 JUMP JUMPDEST SWAP3 POP POP PUSH2 0x100 PUSH2 0x3450 DUP13 DUP3 DUP14 ADD PUSH2 0x2C66 JUMP JUMPDEST SWAP2 POP POP SWAP3 SWAP6 SWAP9 POP SWAP3 SWAP6 SWAP9 POP SWAP3 SWAP6 SWAP9 JUMP JUMPDEST PUSH1 0x0 DUP1 PUSH1 0x0 DUP1 PUSH1 0x0 DUP1 PUSH1 0xC0 DUP8 DUP10 SUB SLT ISZERO PUSH2 0x347D JUMPI PUSH2 0x347C PUSH2 0x2C13 JUMP JUMPDEST JUMPDEST PUSH1 0x0 DUP8 ADD CALLDATALOAD PUSH8 0xFFFFFFFFFFFFFFFF DUP2 GT ISZERO PUSH2 0x349B JUMPI PUSH2 0x349A PUSH2 0x2C18 JUMP JUMPDEST JUMPDEST PUSH2 0x34A7 DUP10 DUP3 DUP11 ADD PUSH2 0x2EDC JUMP JUMPDEST SWAP7 POP POP PUSH1 0x20 DUP8 ADD CALLDATALOAD PUSH8 0xFFFFFFFFFFFFFFFF DUP2 GT ISZERO PUSH2 0x34C8 JUMPI PUSH2 0x34C7 PUSH2 0x2C18 JUMP JUMPDEST JUMPDEST PUSH2 0x34D4 DUP10 DUP3 DUP11 ADD PUSH2 0x2E27 JUMP JUMPDEST SWAP6 POP POP PUSH1 0x40 DUP8 ADD CALLDATALOAD PUSH8 0xFFFFFFFFFFFFFFFF DUP2 GT ISZERO PUSH2 0x34F5 JUMPI PUSH2 0x34F4 PUSH2 0x2C18 JUMP JUMPDEST JUMPDEST PUSH2 0x3501 DUP10 DUP3 DUP11 ADD PUSH2 0x2E27 JUMP JUMPDEST SWAP5 POP POP PUSH1 0x60 PUSH2 0x3512 DUP10 DUP3 DUP11 ADD PUSH2 0x2C66 JUMP JUMPDEST SWAP4 POP POP PUSH1 0x80 PUSH2 0x3523 DUP10 DUP3 DUP11 ADD PUSH2 0x30E9 JUMP JUMPDEST SWAP3 POP POP PUSH1 0xA0 PUSH2 0x3534 DUP10 DUP3 DUP11 ADD PUSH2 0x2C66 JUMP JUMPDEST SWAP2 POP POP SWAP3 SWAP6 POP SWAP3 SWAP6 POP SWAP3 SWAP6 JUMP JUMPDEST PUSH1 0x0 DUP2 SWAP1 POP SWAP3 SWAP2 POP POP JUMP JUMPDEST PUSH32 0x726F6F7400000000000000000000000000000000000000000000000000000000 PUSH1 0x0 DUP3 ADD MSTORE POP JUMP JUMPDEST PUSH1 0x0 PUSH2 0x3582 PUSH1 0x4 DUP4 PUSH2 0x3541 JUMP JUMPDEST SWAP2 POP PUSH2 0x358D DUP3 PUSH2 0x354C JUMP JUMPDEST PUSH1 0x4 DUP3 ADD SWAP1 POP SWAP2 SWAP1 POP JUMP JUMPDEST PUSH1 0x0 PUSH2 0x35A3 DUP3 PUSH2 0x3575 JUMP JUMPDEST SWAP2 POP DUP2 SWAP1 POP SWAP2 SWAP1 POP JUMP JUMPDEST PUSH32 0x4E487B7100000000000000000000000000000000000000000000000000000000 PUSH1 0x0 MSTORE PUSH1 0x22 PUSH1 0x4 MSTORE PUSH1 0x24 PUSH1 0x0 REVERT JUMPDEST PUSH1 0x0 PUSH1 0x2 DUP3 DIV SWAP1 POP PUSH1 0x1 DUP3 AND DUP1 PUSH2 0x35F4 JUMPI PUSH1 0x7F DUP3 AND SWAP2 POP JUMPDEST PUSH1 0x20 DUP3 LT DUP2 SUB PUSH2 0x3607 JUMPI PUSH2 0x3606 PUSH2 0x35AD JUMP JUMPDEST JUMPDEST POP SWAP2 SWAP1 POP JUMP JUMPDEST PUSH1 0x0 DUP2 SWAP1 POP DUP2 PUSH1 0x0 MSTORE PUSH1 0x20 PUSH1 0x0 KECCAK256 SWAP1 POP SWAP2 SWAP1 POP JUMP JUMPDEST PUSH1 0x0 DUP2 SLOAD PUSH2 0x362F DUP2 PUSH2 0x35DC JUMP JUMPDEST PUSH2 0x3639 DUP2 DUP7 PUSH2 0x3541 JUMP JUMPDEST SWAP5 POP PUSH1 0x1 DUP3 AND PUSH1 0x0 DUP2 EQ PUSH2 0x3654 JUMPI PUSH1 0x1 DUP2 EQ PUSH2 0x3669 JUMPI PUSH2 0x369C JUMP JUMPDEST PUSH1 0xFF NOT DUP4 AND DUP7 MSTORE DUP2 ISZERO ISZERO DUP3 MUL DUP7 ADD SWAP4 POP PUSH2 0x369C JUMP JUMPDEST PUSH2 0x3672 DUP6 PUSH2 0x360D JUMP JUMPDEST PUSH1 0x0 JUMPDEST DUP4 DUP2 LT ISZERO PUSH2 0x3694 JUMPI DUP2 SLOAD DUP2 DUP10 ADD MSTORE PUSH1 0x1 DUP3 ADD SWAP2 POP PUSH1 0x20 DUP2 ADD SWAP1 POP PUSH2 0x3675 JUMP JUMPDEST DUP4 DUP9 ADD SWAP6 POP POP POP JUMPDEST POP POP POP SWAP3 SWAP2 POP POP JUMP JUMPDEST PUSH1 0x0 PUSH2 0x36B1 DUP3 DUP5 PUSH2 0x3622 JUMP JUMPDEST SWAP2 POP DUP2 SWAP1 POP SWAP3 SWAP2 POP POP JUMP JUMPDEST PUSH32 0x5573657220616C726561647920696E697469616C697A65640000000000000000 PUSH1 0x0 DUP3 ADD MSTORE POP JUMP JUMPDEST PUSH1 0x0 PUSH2 0x36F2 PUSH1 0x18 DUP4 PUSH2 0x2F71 JUMP JUMPDEST SWAP2 POP PUSH2 0x36FD DUP3 PUSH2 0x36BC JUMP JUMPDEST PUSH1 0x20 DUP3 ADD SWAP1 POP SWAP2 SWAP1 POP JUMP JUMPDEST PUSH1 0x0 PUSH1 0x20 DUP3 ADD SWAP1 POP DUP2 DUP2 SUB PUSH1 0x0 DUP4 ADD MSTORE PUSH2 0x3721 DUP2 PUSH2 0x36E5 JUMP JUMPDEST SWAP1 POP SWAP2 SWAP1 POP JUMP JUMPDEST PUSH1 0x0 PUSH1 0x20 PUSH1 0x1F DUP4 ADD DIV SWAP1 POP SWAP2 SWAP1 POP JUMP JUMPDEST PUSH1 0x0 DUP3 DUP3 SHL SWAP1 POP SWAP3 SWAP2 POP POP JUMP JUMPDEST PUSH1 0x0 PUSH1 0x8 DUP4 MUL PUSH2 0x3775 PUSH32 0xFFFFFFFFFFFFFFFFFFFFFFFFFFFFFFFFFFFFFFFFFFFFFFFFFFFFFFFFFFFFFFFF DUP3 PUSH2 0x3738 JUMP JUMPDEST PUSH2 0x377F DUP7 DUP4 PUSH2 0x3738 JUMP JUMPDEST SWAP6 POP DUP1 NOT DUP5 AND SWAP4 POP DUP1 DUP7 AND DUP5 OR SWAP3 POP POP POP SWAP4 SWAP3 POP POP POP JUMP JUMPDEST PUSH1 0x0 DUP2 SWAP1 POP SWAP2 SWAP1 POP JUMP JUMPDEST PUSH1 0x0 PUSH2 0x37BC PUSH2 0x37B7 PUSH2 0x37B2 DUP5 PUSH2 0x30C8 JUMP JUMPDEST PUSH2 0x3797 JUMP JUMPDEST PUSH2 0x30C8 JUMP JUMPDEST SWAP1 POP SWAP2 SWAP1 POP JUMP JUMPDEST PUSH1 0x0 DUP2 SWAP1 POP SWAP2 SWAP1 POP JUMP JUMPDEST PUSH2 0x37D6 DUP4 PUSH2 0x37A1 JUMP JUMPDEST PUSH2 0x37EA PUSH2 0x37E2 DUP3 PUSH2 0x37C3 JUMP JUMPDEST DUP5 DUP5 SLOAD PUSH2 0x3745 JUMP JUMPDEST DUP3 SSTORE POP POP POP POP JUMP JUMPDEST PUSH1 0x0 SWAP1 JUMP JUMPDEST PUSH2 0x37FF PUSH2 0x37F2 JUMP JUMPDEST PUSH2 0x380A DUP2 DUP5 DUP5 PUSH2 0x37CD JUMP JUMPDEST POP POP POP JUMP JUMPDEST JUMPDEST DUP2 DUP2 LT ISZERO PUSH2 0x382E JUMPI PUSH2 0x3823 PUSH1 0x0 DUP3 PUSH2 0x37F7 JUMP JUMPDEST PUSH1 0x1 DUP2 ADD SWAP1 POP PUSH2 0x3810 JUMP JUMPDEST POP POP JUMP JUMPDEST PUSH1 0x1F DUP3 GT ISZERO PUSH2 0x3873 JUMPI PUSH2 0x3844 DUP2 PUSH2 0x360D JUMP JUMPDEST PUSH2 0x384D DUP5 PUSH2 0x3728 JUMP JUMPDEST DUP2 ADD PUSH1 0x20 DUP6 LT ISZERO PUSH2 0x385C JUMPI DUP2 SWAP1 POP JUMPDEST PUSH2 0x3870 PUSH2 0x3868 DUP6 PUSH2 0x3728 JUMP JUMPDEST DUP4 ADD DUP3 PUSH2 0x380F JUMP JUMPDEST POP POP JUMPDEST POP POP POP JUMP JUMPDEST PUSH1 0x0 DUP3 DUP3 SHR SWAP1 POP SWAP3 SWAP2 POP POP JUMP JUMPDEST PUSH1 0x0 PUSH2 0x3896 PUSH1 0x0 NOT DUP5 PUSH1 0x8 MUL PUSH2 0x3878 JUMP JUMPDEST NOT DUP1 DUP4 AND SWAP2 POP POP SWAP3 SWAP2 POP POP JUMP JUMPDEST PUSH1 0x0 PUSH2 0x38AF DUP4 DUP4 PUSH2 0x3885 JUMP JUMPDEST SWAP2 POP DUP3 PUSH1 0x2 MUL DUP3 OR SWAP1 POP SWAP3 SWAP2 POP POP JUMP JUMPDEST PUSH2 0x38C8 DUP3 PUSH2 0x2F66 JUMP JUMPDEST PUSH8 0xFFFFFFFFFFFFFFFF DUP2 GT ISZERO PUSH2 0x38E1 JUMPI PUSH2 0x38E0 PUSH2 0x2CF4 JUMP JUMPDEST JUMPDEST PUSH2 0x38EB DUP3 SLOAD PUSH2 0x35DC JUMP JUMPDEST PUSH2 0x38F6 DUP3 DUP3 DUP6 PUSH2 0x3832 JUMP JUMPDEST PUSH1 0x0 PUSH1 0x20 SWAP1 POP PUSH1 0x1F DUP4 GT PUSH1 0x1 DUP2 EQ PUSH2 0x3929 JUMPI PUSH1 0x0 DUP5 ISZERO PUSH2 0x3917 JUMPI DUP3 DUP8 ADD MLOAD SWAP1 POP JUMPDEST PUSH2 0x3921 DUP6 DUP3 PUSH2 0x38A3 JUMP JUMPDEST DUP7 SSTORE POP PUSH2 0x3989 JUMP JUMPDEST PUSH1 0x1F NOT DUP5 AND PUSH2 0x3937 DUP7 PUSH2 0x360D JUMP JUMPDEST PUSH1 0x0 JUMPDEST DUP3 DUP2 LT ISZERO PUSH2 0x395F JUMPI DUP5 DUP10 ADD MLOAD DUP3 SSTORE PUSH1 0x1 DUP3 ADD SWAP2 POP PUSH1 0x20 DUP6 ADD SWAP5 POP PUSH1 0x20 DUP2 ADD SWAP1 POP PUSH2 0x393A JUMP JUMPDEST DUP7 DUP4 LT ISZERO PUSH2 0x397C JUMPI DUP5 DUP10 ADD MLOAD PUSH2 0x3978 PUSH1 0x1F DUP10 AND DUP3 PUSH2 0x3885 JUMP JUMPDEST DUP4 SSTORE POP JUMPDEST PUSH1 0x1 PUSH1 0x2 DUP9 MUL ADD DUP9 SSTORE POP POP POP JUMPDEST POP POP POP POP POP POP JUMP JUMPDEST PUSH32 0x5573657220726F6F74206E6F7420696E697469616C697A656400000000000000 PUSH1 0x0 DUP3 ADD MSTORE POP JUMP JUMPDEST PUSH1 0x0 PUSH2 0x39C7 PUSH1 0x19 DUP4 PUSH2 0x2F71 JUMP JUMPDEST SWAP2 POP PUSH2 0x39D2 DUP3 PUSH2 0x3991 JUMP JUMPDEST PUSH1 0x20 DUP3 ADD SWAP1 POP SWAP2 SWAP1 POP JUMP JUMPDEST PUSH1 0x0 PUSH1 0x20 DUP3 ADD SWAP1 POP DUP2 DUP2 SUB PUSH1 0x0 DUP4 ADD MSTORE PUSH2 0x39F6 DUP2 PUSH2 0x39BA JUMP JUMPDEST SWAP1 POP SWAP2 SWAP1 POP JUMP JUMPDEST PUSH32 0x4E487B7100000000000000000000000000000000000000000000000000000000 PUSH1 0x0 MSTORE PUSH1 0x32 PUSH1 0x4 MSTORE PUSH1 0x24 PUSH1 0x0 REVERT JUMPDEST PUSH1 0x0 PUSH2 0x3A37 DUP3 PUSH2 0x2F66 JUMP JUMPDEST PUSH2 0x3A41 DUP2 DUP6 PUSH2 0x3541 JUMP JUMPDEST SWAP4 POP PUSH2 0x3A51 DUP2 DUP6 PUSH1 0x20 DUP7 ADD PUSH2 0x2F82 JUMP JUMPDEST DUP1 DUP5 ADD SWAP2 POP POP SWAP3 SWAP2 POP POP JUMP JUMPDEST PUSH1 0x0 PUSH2 0x3A69 DUP3 DUP5 PUSH2 0x3A2C JUMP JUMPDEST SWAP2 POP DUP2 SWAP1 POP SWAP3 SWAP2 POP POP JUMP JUMPDEST PUSH32 0x5061746820646F6573206E6F7420657869737400000000000000000000000000 PUSH1 0x0 DUP3 ADD MSTORE POP JUMP JUMPDEST PUSH1 0x0 PUSH2 0x3AAA PUSH1 0x13 DUP4 PUSH2 0x2F71 JUMP JUMPDEST SWAP2 POP PUSH2 0x3AB5 DUP3 PUSH2 0x3A74 JUMP JUMPDEST PUSH1 0x20 DUP3 ADD SWAP1 POP SWAP2 SWAP1 POP JUMP JUMPDEST PUSH1 0x0 PUSH1 0x20 DUP3 ADD SWAP1 POP DUP2 DUP2 SUB PUSH1 0x0 DUP4 ADD MSTORE PUSH2 0x3AD9 DUP2 PUSH2 0x3A9D JUMP JUMPDEST SWAP1 POP SWAP2 SWAP1 POP JUMP JUMPDEST PUSH32 0x7B226E616D65223A220000000000000000000000000000000000000000000000 PUSH1 0x0 DUP3 ADD MSTORE POP JUMP JUMPDEST PUSH1 0x0 PUSH2 0x3B16 PUSH1 0x9 DUP4 PUSH2 0x3541 JUMP JUMPDEST SWAP2 POP PUSH2 0x3B21 DUP3 PUSH2 0x3AE0 JUMP JUMPDEST PUSH1 0x9 DUP3 ADD SWAP1 POP SWAP2 SWAP1 POP JUMP JUMPDEST PUSH32 0x222C226F776E6572223A22000000000000000000000000000000000000000000 PUSH1 0x0 DUP3 ADD MSTORE POP JUMP JUMPDEST PUSH1 0x0 PUSH2 0x3B62 PUSH1 0xB DUP4 PUSH2 0x3541 JUMP JUMPDEST SWAP2 POP PUSH2 0x3B6D DUP3 PUSH2 0x3B2C JUMP JUMPDEST PUSH1 0xB DUP3 ADD SWAP1 POP SWAP2 SWAP1 POP JUMP JUMPDEST PUSH32 0x222C22637265617465644174223A220000000000000000000000000000000000 PUSH1 0x0 DUP3 ADD MSTORE POP JUMP JUMPDEST PUSH1 0x0 PUSH2 0x3BAE PUSH1 0xF DUP4 PUSH2 0x3541 JUMP JUMPDEST SWAP2 POP PUSH2 0x3BB9 DUP3 PUSH2 0x3B78 JUMP JUMPDEST PUSH1 0xF DUP3 ADD SWAP1 POP SWAP2 SWAP1 POP JUMP JUMPDEST PUSH32 0x2200000000000000000000000000000000000000000000000000000000000000 PUSH1 0x0 DUP3 ADD MSTORE POP JUMP JUMPDEST PUSH1 0x0 PUSH2 0x3BFA PUSH1 0x1 DUP4 PUSH2 0x3541 JUMP JUMPDEST SWAP2 POP PUSH2 0x3C05 DUP3 PUSH2 0x3BC4 JUMP JUMPDEST PUSH1 0x1 DUP3 ADD SWAP1 POP SWAP2 SWAP1 POP JUMP JUMPDEST PUSH1 0x0 PUSH2 0x3C1B DUP3 PUSH2 0x3B09 JUMP JUMPDEST SWAP2 POP PUSH2 0x3C27 DUP3 DUP7 PUSH2 0x3622 JUMP JUMPDEST SWAP2 POP PUSH2 0x3C32 DUP3 PUSH2 0x3B55 JUMP JUMPDEST SWAP2 POP PUSH2 0x3C3E DUP3 DUP6 PUSH2 0x3A2C JUMP JUMPDEST SWAP2 POP PUSH2 0x3C49 DUP3 PUSH2 0x3BA1 JUMP JUMPDEST SWAP2 POP PUSH2 0x3C55 DUP3 DUP5 PUSH2 0x3A2C JUMP JUMPDEST SWAP2 POP PUSH2 0x3C60 DUP3 PUSH2 0x3BED JUMP JUMPDEST SWAP2 POP DUP2 SWAP1 POP SWAP5 SWAP4 POP POP POP POP JUMP JUMPDEST PUSH32 0x2C2266696C6573223A5B00000000000000000000000000000000000000000000 PUSH1 0x0 DUP3 ADD MSTORE POP JUMP JUMPDEST PUSH1 0x0 PUSH2 0x3CA3 PUSH1 0xA DUP4 PUSH2 0x3541 JUMP JUMPDEST SWAP2 POP PUSH2 0x3CAE DUP3 PUSH2 0x3C6D JUMP JUMPDEST PUSH1 0xA DUP3 ADD SWAP1 POP SWAP2 SWAP1 POP JUMP JUMPDEST PUSH1 0x0 PUSH2 0x3CC5 DUP3 DUP5 PUSH2 0x3A2C JUMP JUMPDEST SWAP2 POP PUSH2 0x3CD0 DUP3 PUSH2 0x3C96 JUMP JUMPDEST SWAP2 POP DUP2 SWAP1 POP SWAP3 SWAP2 POP POP JUMP JUMPDEST PUSH32 0x222C22636964223A220000000000000000000000000000000000000000000000 PUSH1 0x0 DUP3 ADD MSTORE POP JUMP JUMPDEST PUSH1 0x0 PUSH2 0x3D11 PUSH1 0x9 DUP4 PUSH2 0x3541 JUMP JUMPDEST SWAP2 POP PUSH2 0x3D1C DUP3 PUSH2 0x3CDB JUMP JUMPDEST PUSH1 0x9 DUP3 ADD SWAP1 POP SWAP2 SWAP1 POP JUMP JUMPDEST PUSH32 0x222C2273697A65223A2200000000000000000000000000000000000000000000 PUSH1 0x0 DUP3 ADD MSTORE POP JUMP JUMPDEST PUSH1 0x0 PUSH2 0x3D5D PUSH1 0xA DUP4 PUSH2 0x3541 JUMP JUMPDEST SWAP2 POP PUSH2 0x3D68 DUP3 PUSH2 0x3D27 JUMP JUMPDEST PUSH1 0xA DUP3 ADD SWAP1 POP SWAP2 SWAP1 POP JUMP JUMPDEST PUSH32 0x222C2266696C6554797065223A22000000000000000000000000000000000000 PUSH1 0x0 DUP3 ADD MSTORE POP JUMP JUMPDEST PUSH1 0x0 PUSH2 0x3DA9 PUSH1 0xE DUP4 PUSH2 0x3541 JUMP JUMPDEST SWAP2 POP PUSH2 0x3DB4 DUP3 PUSH2 0x3D73 JUMP JUMPDEST PUSH1 0xE DUP3 ADD SWAP1 POP SWAP2 SWAP1 POP JUMP JUMPDEST PUSH32 0x227D000000000000000000000000000000000000000000000000000000000000 PUSH1 0x0 DUP3 ADD MSTORE POP JUMP JUMPDEST PUSH1 0x0 PUSH2 0x3DF5 PUSH1 0x2 DUP4 PUSH2 0x3541 JUMP JUMPDEST SWAP2 POP PUSH2 0x3E00 DUP3 PUSH2 0x3DBF JUMP JUMPDEST PUSH1 0x2 DUP3 ADD SWAP1 POP SWAP2 SWAP1 POP JUMP JUMPDEST PUSH1 0x0 PUSH2 0x3E17 DUP3 DUP11 PUSH2 0x3A2C JUMP JUMPDEST SWAP2 POP PUSH2 0x3E22 DUP3 PUSH2 0x3B09 JUMP JUMPDEST SWAP2 POP PUSH2 0x3E2E DUP3 DUP10 PUSH2 0x3622 JUMP JUMPDEST SWAP2 POP PUSH2 0x3E39 DUP3 PUSH2 0x3D04 JUMP JUMPDEST SWAP2 POP PUSH2 0x3E45 DUP3 DUP9 PUSH2 0x3622 JUMP JUMPDEST SWAP2 POP PUSH2 0x3E50 DUP3 PUSH2 0x3D50 JUMP JUMPDEST SWAP2 POP PUSH2 0x3E5C DUP3 DUP8 PUSH2 0x3A2C JUMP JUMPDEST SWAP2 POP PUSH2 0x3E67 DUP3 PUSH2 0x3BA1 JUMP JUMPDEST SWAP2 POP PUSH2 0x3E73 DUP3 DUP7 PUSH2 0x3A2C JUMP JUMPDEST SWAP2 POP PUSH2 0x3E7E DUP3 PUSH2 0x3B55 JUMP JUMPDEST SWAP2 POP PUSH2 0x3E8A DUP3 DUP6 PUSH2 0x3A2C JUMP JUMPDEST SWAP2 POP PUSH2 0x3E95 DUP3 PUSH2 0x3D9C JUMP JUMPDEST SWAP2 POP PUSH2 0x3EA1 DUP3 DUP5 PUSH2 0x3622 JUMP JUMPDEST SWAP2 POP PUSH2 0x3EAC DUP3 PUSH2 0x3DE8 JUMP JUMPDEST SWAP2 POP DUP2 SWAP1 POP SWAP9 SWAP8 POP POP POP POP POP POP POP POP JUMP JUMPDEST PUSH32 0x4E487B7100000000000000000000000000000000000000000000000000000000 PUSH1 0x0 MSTORE PUSH1 0x11 PUSH1 0x4 MSTORE PUSH1 0x24 PUSH1 0x0 REVERT JUMPDEST PUSH1 0x0 PUSH2 0x3EF7 DUP3 PUSH2 0x30C8 JUMP JUMPDEST SWAP2 POP PUSH2 0x3F02 DUP4 PUSH2 0x30C8 JUMP JUMPDEST SWAP3 POP DUP3 DUP3 SUB SWAP1 POP DUP2 DUP2 GT ISZERO PUSH2 0x3F1A JUMPI PUSH2 0x3F19 PUSH2 0x3EBD JUMP JUMPDEST JUMPDEST SWAP3 SWAP2 POP POP JUMP JUMPDEST PUSH32 0x2C00000000000000000000000000000000000000000000000000000000000000 PUSH1 0x0 DUP3 ADD MSTORE POP JUMP JUMPDEST PUSH1 0x0 PUSH2 0x3F56 PUSH1 0x1 DUP4 PUSH2 0x3541 JUMP JUMPDEST SWAP2 POP PUSH2 0x3F61 DUP3 PUSH2 0x3F20 JUMP JUMPDEST PUSH1 0x1 DUP3 ADD SWAP1 POP SWAP2 SWAP1 POP JUMP JUMPDEST PUSH1 0x0 PUSH2 0x3F78 DUP3 DUP5 PUSH2 0x3A2C JUMP JUMPDEST SWAP2 POP PUSH2 0x3F83 DUP3 PUSH2 0x3F49 JUMP JUMPDEST SWAP2 POP DUP2 SWAP1 POP SWAP3 SWAP2 POP POP JUMP JUMPDEST PUSH32 0x5D00000000000000000000000000000000000000000000000000000000000000 PUSH1 0x0 DUP3 ADD MSTORE POP JUMP JUMPDEST PUSH1 0x0 PUSH2 0x3FC4 PUSH1 0x1 DUP4 PUSH2 0x3541 JUMP JUMPDEST SWAP2 POP PUSH2 0x3FCF DUP3 PUSH2 0x3F8E JUMP JUMPDEST PUSH1 0x1 DUP3 ADD SWAP1 POP SWAP2 SWAP1 POP JUMP JUMPDEST PUSH1 0x0 PUSH2 0x3FE6 DUP3 DUP5 PUSH2 0x3A2C JUMP JUMPDEST SWAP2 POP PUSH2 0x3FF1 DUP3 PUSH2 0x3FB7 JUMP JUMPDEST SWAP2 POP DUP2 SWAP1 POP SWAP3 SWAP2 POP POP JUMP JUMPDEST PUSH32 0x2C22666F6C64657273223A5B0000000000000000000000000000000000000000 PUSH1 0x0 DUP3 ADD MSTORE POP JUMP JUMPDEST PUSH1 0x0 PUSH2 0x4032 PUSH1 0xC DUP4 PUSH2 0x3541 JUMP JUMPDEST SWAP2 POP PUSH2 0x403D DUP3 PUSH2 0x3FFC JUMP JUMPDEST PUSH1 0xC DUP3 ADD SWAP1 POP SWAP2 SWAP1 POP JUMP JUMPDEST PUSH1 0x0 PUSH2 0x4054 DUP3 DUP5 PUSH2 0x3A2C JUMP JUMPDEST SWAP2 POP PUSH2 0x405F DUP3 PUSH2 0x4025 JUMP JUMPDEST SWAP2 POP DUP2 SWAP1 POP SWAP3 SWAP2 POP POP JUMP JUMPDEST PUSH1 0x0 PUSH2 0x4076 DUP3 DUP8 PUSH2 0x3A2C JUMP JUMPDEST SWAP2 POP PUSH2 0x4081 DUP3 PUSH2 0x3B09 JUMP JUMPDEST SWAP2 POP PUSH2 0x408D DUP3 DUP7 PUSH2 0x3622 JUMP JUMPDEST SWAP2 POP PUSH2 0x4098 DUP3 PUSH2 0x3B55 JUMP JUMPDEST SWAP2 POP PUSH2 0x40A4 DUP3 DUP6 PUSH2 0x3A2C JUMP JUMPDEST SWAP2 POP PUSH2 0x40AF DUP3 PUSH2 0x3BA1 JUMP JUMPDEST SWAP2 POP PUSH2 0x40BB DUP3 DUP5 PUSH2 0x3A2C JUMP JUMPDEST SWAP2 POP PUSH2 0x40C6 DUP3 PUSH2 0x3DE8 JUMP JUMPDEST SWAP2 POP DUP2 SWAP1 POP SWAP6 SWAP5 POP POP POP POP POP JUMP JUMPDEST PUSH32 0x7D00000000000000000000000000000000000000000000000000000000000000 PUSH1 0x0 DUP3 ADD MSTORE POP JUMP JUMPDEST PUSH1 0x0 PUSH2 0x410A PUSH1 0x1 DUP4 PUSH2 0x3541 JUMP JUMPDEST SWAP2 POP PUSH2 0x4115 DUP3 PUSH2 0x40D4 JUMP JUMPDEST PUSH1 0x1 DUP3 ADD SWAP1 POP SWAP2 SWAP1 POP JUMP JUMPDEST PUSH1 0x0 PUSH2 0x412C DUP3 DUP5 PUSH2 0x3A2C JUMP JUMPDEST SWAP2 POP PUSH2 0x4137 DUP3 PUSH2 0x40FD JUMP JUMPDEST SWAP2 POP DUP2 SWAP1 POP SWAP3 SWAP2 POP POP JUMP JUMPDEST PUSH32 0x5061746820646F6573206E6F7420657869737420617420696E64657820000000 PUSH1 0x0 DUP3 ADD MSTORE POP JUMP JUMPDEST PUSH1 0x0 PUSH2 0x4178 PUSH1 0x1D DUP4 PUSH2 0x3541 JUMP JUMPDEST SWAP2 POP PUSH2 0x4183 DUP3 PUSH2 0x4142 JUMP JUMPDEST PUSH1 0x1D DUP3 ADD SWAP1 POP SWAP2 SWAP1 POP JUMP JUMPDEST PUSH1 0x0 PUSH2 0x4199 DUP3 PUSH2 0x416B JUMP JUMPDEST SWAP2 POP PUSH2 0x41A5 DUP3 DUP5 PUSH2 0x3A2C JUMP JUMPDEST SWAP2 POP DUP2 SWAP1 POP SWAP3 SWAP2 POP POP JUMP JUMPDEST PUSH1 0x0 PUSH2 0x41BB DUP3 PUSH2 0x30C8 JUMP JUMPDEST SWAP2 POP PUSH2 0x41C6 DUP4 PUSH2 0x30C8 JUMP JUMPDEST SWAP3 POP DUP3 DUP3 ADD SWAP1 POP DUP1 DUP3 GT ISZERO PUSH2 0x41DE JUMPI PUSH2 0x41DD PUSH2 0x3EBD JUMP JUMPDEST JUMPDEST SWAP3 SWAP2 POP POP JUMP JUMPDEST PUSH1 0x0 DUP2 SLOAD SWAP1 POP PUSH2 0x41F3 DUP2 PUSH2 0x35DC JUMP JUMPDEST SWAP1 POP SWAP2 SWAP1 POP JUMP JUMPDEST DUP2 DUP2 SUB PUSH2 0x4208 JUMPI POP POP PUSH2 0x42E0 JUMP JUMPDEST PUSH2 0x4211 DUP3 PUSH2 0x41E4 JUMP JUMPDEST PUSH8 0xFFFFFFFFFFFFFFFF DUP2 GT ISZERO PUSH2 0x422A JUMPI PUSH2 0x4229 PUSH2 0x2CF4 JUMP JUMPDEST JUMPDEST PUSH2 0x4234 DUP3 SLOAD PUSH2 0x35DC JUMP JUMPDEST PUSH2 0x423F DUP3 DUP3 DUP6 PUSH2 0x3832 JUMP JUMPDEST PUSH1 0x0 PUSH1 0x1F DUP4 GT PUSH1 0x1 DUP2 EQ PUSH2 0x426E JUMPI PUSH1 0x0 DUP5 ISZERO PUSH2 0x425C JUMPI DUP3 DUP8 ADD SLOAD SWAP1 POP JUMPDEST PUSH2 0x4266 DUP6 DUP3 PUSH2 0x38A3 JUMP JUMPDEST DUP7 SSTORE POP PUSH2 0x42D9 JUMP JUMPDEST PUSH1 0x1F NOT DUP5 AND PUSH2 0x427C DUP8 PUSH2 0x360D JUMP JUMPDEST SWAP7 POP PUSH2 0x4287 DUP7 PUSH2 0x360D JUMP JUMPDEST PUSH1 0x0 JUMPDEST DUP3 DUP2 LT ISZERO PUSH2 0x42AF JUMPI DUP5 DUP10 ADD SLOAD DUP3 SSTORE PUSH1 0x1 DUP3 ADD SWAP2 POP PUSH1 0x1 DUP6 ADD SWAP5 POP PUSH1 0x20 DUP2 ADD SWAP1 POP PUSH2 0x428A JUMP JUMPDEST DUP7 DUP4 LT ISZERO PUSH2 0x42CC JUMPI DUP5 DUP10 ADD SLOAD PUSH2 0x42C8 PUSH1 0x1F DUP10 AND DUP3 PUSH2 0x3885 JUMP JUMPDEST DUP4 SSTORE POP JUMPDEST PUSH1 0x1 PUSH1 0x2 DUP9 MUL ADD DUP9 SSTORE POP POP POP JUMPDEST POP POP POP POP POP POP JUMPDEST JUMP JUMPDEST PUSH32 0x4E487B7100000000000000000000000000000000000000000000000000000000 PUSH1 0x0 MSTORE PUSH1 0x31 PUSH1 0x4 MSTORE PUSH1 0x24 PUSH1 0x0 REVERT JUMPDEST PUSH32 0x466F6C64657220646F6573206E6F742065786973740000000000000000000000 PUSH1 0x0 DUP3 ADD MSTORE POP JUMP JUMPDEST PUSH1 0x0 PUSH2 0x4347 PUSH1 0x15 DUP4 PUSH2 0x2F71 JUMP JUMPDEST SWAP2 POP PUSH2 0x4352 DUP3 PUSH2 0x4311 JUMP JUMPDEST PUSH1 0x20 DUP3 ADD SWAP1 POP SWAP2 SWAP1 POP JUMP JUMPDEST PUSH1 0x0 PUSH1 0x20 DUP3 ADD SWAP1 POP DUP2 DUP2 SUB PUSH1 0x0 DUP4 ADD MSTORE PUSH2 0x4376 DUP2 PUSH2 0x433A JUMP JUMPDEST SWAP1 POP SWAP2 SWAP1 POP JUMP JUMPDEST PUSH32 0x46696C6520646F6573206E6F7420657869737400000000000000000000000000 PUSH1 0x0 DUP3 ADD MSTORE POP JUMP JUMPDEST PUSH1 0x0 PUSH2 0x43B3 PUSH1 0x13 DUP4 PUSH2 0x2F71 JUMP JUMPDEST SWAP2 POP PUSH2 0x43BE DUP3 PUSH2 0x437D JUMP JUMPDEST PUSH1 0x20 DUP3 ADD SWAP1 POP SWAP2 SWAP1 POP JUMP JUMPDEST PUSH1 0x0 PUSH1 0x20 DUP3 ADD SWAP1 POP DUP2 DUP2 SUB PUSH1 0x0 DUP4 ADD MSTORE PUSH2 0x43E2 DUP2 PUSH2 0x43A6 JUMP JUMPDEST SWAP1 POP SWAP2 SWAP1 POP JUMP JUMPDEST PUSH1 0x0 PUSH2 0x43F4 DUP3 PUSH2 0x30C8 JUMP JUMPDEST SWAP2 POP PUSH2 0x43FF DUP4 PUSH2 0x30C8 JUMP JUMPDEST SWAP3 POP DUP3 DUP3 MUL PUSH2 0x440D DUP2 PUSH2 0x30C8 JUMP JUMPDEST SWAP2 POP DUP3 DUP3 DIV DUP5 EQ DUP4 ISZERO OR PUSH2 0x4424 JUMPI PUSH2 0x4423 PUSH2 0x3EBD JUMP JUMPDEST JUMPDEST POP SWAP3 SWAP2 POP POP JUMP JUMPDEST PUSH1 0x0 PUSH2 0x4436 DUP3 PUSH2 0x30C8 JUMP JUMPDEST SWAP2 POP PUSH32 0xFFFFFFFFFFFFFFFFFFFFFFFFFFFFFFFFFFFFFFFFFFFFFFFFFFFFFFFFFFFFFFFF DUP3 SUB PUSH2 0x4468 JUMPI PUSH2 0x4467 PUSH2 0x3EBD JUMP JUMPDEST JUMPDEST PUSH1 0x1 DUP3 ADD SWAP1 POP SWAP2 SWAP1 POP JUMP JUMPDEST PUSH32 0x4E487B7100000000000000000000000000000000000000000000000000000000 PUSH1 0x0 MSTORE PUSH1 0x12 PUSH1 0x4 MSTORE PUSH1 0x24 PUSH1 0x0 REVERT JUMPDEST PUSH1 0x0 PUSH2 0x44AD DUP3 PUSH2 0x30C8 JUMP JUMPDEST SWAP2 POP PUSH2 0x44B8 DUP4 PUSH2 0x30C8 JUMP JUMPDEST SWAP3 POP DUP3 PUSH2 0x44C8 JUMPI PUSH2 0x44C7 PUSH2 0x4473 JUMP JUMPDEST JUMPDEST DUP3 DUP3 DIV SWAP1 POP SWAP3 SWAP2 POP POP JUMP JUMPDEST PUSH1 0x0 PUSH1 0xFF DUP3 AND SWAP1 POP SWAP2 SWAP1 POP JUMP JUMPDEST PUSH1 0x0 PUSH2 0x44EB DUP3 PUSH2 0x44D3 JUMP JUMPDEST SWAP2 POP PUSH2 0x44F6 DUP4 PUSH2 0x44D3 JUMP JUMPDEST SWAP3 POP DUP3 DUP3 ADD SWAP1 POP PUSH1 0xFF DUP2 GT ISZERO PUSH2 0x450F JUMPI PUSH2 0x450E PUSH2 0x3EBD JUMP JUMPDEST JUMPDEST SWAP3 SWAP2 POP POP JUMP INVALID LOG2 PUSH5 0x6970667358 0x22 SLT KECCAK256 CALLDATASIZE MUL 0x4E 0xD7 PUSH4 0xFD98E698 0xC7 0x2F ADD 0x24 0xBC 0xE7 PUSH29 0x9A03AD6C0E65B52305C02FC516FED24564736F6C634300081800330000 "
        },
        "methodIdentifiers": {
          "checkUserRoot(address)": "d9ec2719",
          "createFiles(string[],(string,string,uint256,string)[],address)": "4ee37c28",
          "createFolder(string[],string,address)": "cc6cd16f",
          "deleteFile(string[],string,address)": "e7465d7b",
          "deleteFolder(string[],string,address)": "39cf4df2",
          "getFolderData(string[],address)": "140af0e2",
          "initUserRoot(address)": "01496b84",
          "updateFile(string[],string,string,string,uint256,uint256,address,string,address)": "958566be",
          "updateFolder(string[],string,string,address,uint256,address)": "b74083a3"
        }
      }
    }
  }
}