{
  "contracts/smooth.sol": {
    "Smooth": {
      "abi": [
        {
          "inputs": [
            {
              "internalType": "address",
              "name": "_user",
              "type": "address"
            }
          ],
          "name": "checkUserRoot",
          "outputs": [
            {
              "internalType": "bool",
              "name": "",
              "type": "bool"
            }
          ],
          "stateMutability": "view",
          "type": "function"
        },
        {
          "inputs": [
            {
              "internalType": "string[]",
              "name": "_path",
              "type": "string[]"
            },
            {
              "components": [
                {
                  "internalType": "string",
                  "name": "name",
                  "type": "string"
                },
                {
                  "internalType": "string",
                  "name": "cid",
                  "type": "string"
                },
                {
                  "internalType": "uint256",
                  "name": "size",
                  "type": "uint256"
                },
                {
                  "internalType": "string",
                  "name": "fileType",
                  "type": "string"
                }
              ],
              "internalType": "struct Smooth.FileData[]",
              "name": "_files",
              "type": "tuple[]"
            },
            {
              "internalType": "address",
              "name": "_user",
              "type": "address"
            }
          ],
          "name": "createFiles",
          "outputs": [],
          "stateMutability": "nonpayable",
          "type": "function"
        },
        {
          "inputs": [
            {
              "internalType": "string[]",
              "name": "_path",
              "type": "string[]"
            },
            {
              "internalType": "string",
              "name": "_folderName",
              "type": "string"
            },
            {
              "internalType": "address",
              "name": "_user",
              "type": "address"
            }
          ],
          "name": "createFolder",
          "outputs": [],
          "stateMutability": "nonpayable",
          "type": "function"
        },
        {
          "inputs": [
            {
              "internalType": "string[]",
              "name": "_path",
              "type": "string[]"
            },
            {
              "internalType": "string",
              "name": "_fileName",
              "type": "string"
            },
            {
              "internalType": "string",
              "name": "_cid",
              "type": "string"
            },
            {
              "internalType": "address",
              "name": "_user",
              "type": "address"
            }
          ],
          "name": "deleteFile",
          "outputs": [],
          "stateMutability": "nonpayable",
          "type": "function"
        },
        {
          "inputs": [
            {
              "internalType": "string[]",
              "name": "_path",
              "type": "string[]"
            },
            {
              "internalType": "string",
              "name": "_folderName",
              "type": "string"
            },
            {
              "internalType": "address",
              "name": "_user",
              "type": "address"
            }
          ],
          "name": "deleteFolder",
          "outputs": [],
          "stateMutability": "nonpayable",
          "type": "function"
        },
        {
          "inputs": [
            {
              "internalType": "string[]",
              "name": "_path",
              "type": "string[]"
            },
            {
              "internalType": "address",
              "name": "_user",
              "type": "address"
            }
          ],
          "name": "getFolderData",
          "outputs": [
            {
              "internalType": "string",
              "name": "",
              "type": "string"
            }
          ],
          "stateMutability": "view",
          "type": "function"
        },
        {
          "inputs": [
            {
              "internalType": "address",
              "name": "_user",
              "type": "address"
            }
          ],
          "name": "getSharedData",
          "outputs": [
            {
              "internalType": "string",
              "name": "",
              "type": "string"
            }
          ],
          "stateMutability": "view",
          "type": "function"
        },
        {
          "inputs": [
            {
              "internalType": "address",
              "name": "owner",
              "type": "address"
            },
            {
              "internalType": "address",
              "name": "to",
              "type": "address"
            },
            {
              "internalType": "string",
              "name": "name",
              "type": "string"
            },
            {
              "internalType": "string",
              "name": "cid",
              "type": "string"
            },
            {
              "internalType": "uint256",
              "name": "size",
              "type": "uint256"
            },
            {
              "internalType": "uint256",
              "name": "createdAt",
              "type": "uint256"
            },
            {
              "internalType": "string",
              "name": "fileType",
              "type": "string"
            }
          ],
          "name": "giveFileAccess",
          "outputs": [],
          "stateMutability": "nonpayable",
          "type": "function"
        },
        {
          "inputs": [
            {
              "internalType": "address",
              "name": "_user",
              "type": "address"
            }
          ],
          "name": "initUserRoot",
          "outputs": [
            {
              "internalType": "bool",
              "name": "",
              "type": "bool"
            }
          ],
          "stateMutability": "nonpayable",
          "type": "function"
        },
        {
          "inputs": [
            {
              "internalType": "string",
              "name": "_cid",
              "type": "string"
            },
            {
              "internalType": "address",
              "name": "_user",
              "type": "address"
            }
          ],
          "name": "removeFileByFieldAndCid",
          "outputs": [],
          "stateMutability": "nonpayable",
          "type": "function"
        }
      ],
      "evm": {
        "bytecode": {
          "linkReferences": {},
          "object": "608060405234801561001057600080fd5b50615014806100206000396000f3fe608060405234801561001057600080fd5b506004361061009e5760003560e01c80634ee37c28116100665780634ee37c281461015757806362bfa01414610173578063cbcba28c146101a3578063cc6cd16f146101bf578063d9ec2719146101db5761009e565b806301496b84146100a357806306d36558146100d3578063140af0e2146100ef578063341e61791461011f57806339cf4df21461013b575b600080fd5b6100bd60048036038101906100b89190613432565b61020b565b6040516100ca919061347a565b60405180910390f35b6100ed60048036038101906100e891906136c1565b610438565b005b6101096004803603810190610104919061377c565b610db2565b6040516101169190613857565b60405180910390f35b61013960048036038101906101349190613879565b6113ee565b005b610155600480360381019061015091906138d5565b6118a6565b005b610171600480360381019061016c9190613b4d565b611d59565b005b61018d60048036038101906101889190613432565b6120fa565b60405161019a9190613857565b60405180910390f35b6101bd60048036038101906101b89190613bd8565b612535565b005b6101d960048036038101906101d491906138d5565b612844565b005b6101f560048036038101906101f09190613432565b612ad3565b604051610202919061347a565b60405180910390f35b600060405160200161021c90613d25565b604051602081830303815290604052805190602001206000808473ffffffffffffffffffffffffffffffffffffffff1673ffffffffffffffffffffffffffffffffffffffff1681526020019081526020016000206000016000016040516020016102869190613e32565b60405160208183030381529060405280519060200120036102dc576040517f08c379a00000000000000000000000000000000000000000000000000000000081526004016102d390613e95565b60405180910390fd5b6040518060400160405280600481526020017f726f6f74000000000000000000000000000000000000000000000000000000008152506000808473ffffffffffffffffffffffffffffffffffffffff1673ffffffffffffffffffffffffffffffffffffffff1681526020019081526020016000206000016000019081610362919061404c565b50816000808473ffffffffffffffffffffffffffffffffffffffff1673ffffffffffffffffffffffffffffffffffffffff16815260200190815260200160002060000160010160006101000a81548173ffffffffffffffffffffffffffffffffffffffff021916908373ffffffffffffffffffffffffffffffffffffffff160217905550426000808473ffffffffffffffffffffffffffffffffffffffff1673ffffffffffffffffffffffffffffffffffffffff1681526020019081526020016000206000016002018190555060019050919050565b61044181612ad3565b610480576040517f08c379a00000000000000000000000000000000000000000000000000000000081526004016104779061416a565b60405180910390fd5b60008060008373ffffffffffffffffffffffffffffffffffffffff1673ffffffffffffffffffffffffffffffffffffffff16815260200190815260200160002060000190506000600190505b8551811015610631576000805b83600401805490508110156105b7578783815181106104fb576104fa61418a565b5b602002602001015160405160200161051391906141ea565b6040516020818303038152906040528051906020012084600401828154811061053f5761053e61418a565b5b90600052602060002090600502016000016040516020016105609190613e32565b60405160208183030381529060405280519060200120036105aa578360040181815481106105915761059061418a565b5b90600052602060002090600502019350600191506105b7565b80806001019150506104d9565b50806105c283612b7c565b6040516020016105d2919061424d565b60405160208183030381529060405290610622576040517f08c379a00000000000000000000000000000000000000000000000000000000081526004016106199190613857565b60405180910390fd5b505080806001019150506104cc565b506000805b82600301805490508110156108a8578560405160200161065691906141ea565b604051602081830303815290604052805190602001208360030182815481106106825761068161418a565b5b90600052602060002090600602016000016040516020016106a39190613e32565b604051602081830303815290604052805190602001200361089b576001915060008190505b600184600301805490506106dc919061429e565b81101561080157836003016001826106f491906142d2565b815481106107055761070461418a565b5b90600052602060002090600602018460030182815481106107295761072861418a565b5b90600052602060002090600602016000820181600001908161074b919061431c565b5060018201816001019081610760919061431c565b5060028201548160020155600382015481600301556004820160009054906101000a900473ffffffffffffffffffffffffffffffffffffffff168160040160006101000a81548173ffffffffffffffffffffffffffffffffffffffff021916908373ffffffffffffffffffffffffffffffffffffffff160217905550600582018160050190816107f0919061431c565b5090505080806001019150506106c8565b508260030180548061081657610815614404565b5b60019003818190600052602060002090600602016000808201600061083b9190613009565b60018201600061084b9190613009565b600282016000905560038201600090556004820160006101000a81549073ffffffffffffffffffffffffffffffffffffffff02191690556005820160006108929190613009565b505090556108a8565b8080600101915050610636565b50806108e9576040517f08c379a00000000000000000000000000000000000000000000000000000000081526004016108e0906144a5565b60405180910390fd5b600084511115610daa576000905060005b6000808573ffffffffffffffffffffffffffffffffffffffff1673ffffffffffffffffffffffffffffffffffffffff16815260200190815260200160002060060180549050811015610d68578460405160200161095791906141ea565b604051602081830303815290604052805190602001206000808673ffffffffffffffffffffffffffffffffffffffff1673ffffffffffffffffffffffffffffffffffffffff16815260200190815260200160002060060182815481106109c0576109bf61418a565b5b90600052602060002090600702016001016040516020016109e19190613e32565b6040516020818303038152906040528051906020012003610d5b576001915060008190505b60016000808773ffffffffffffffffffffffffffffffffffffffff1673ffffffffffffffffffffffffffffffffffffffff16815260200190815260200160002060060180549050610a57919061429e565b811015610c5d576000808673ffffffffffffffffffffffffffffffffffffffff1673ffffffffffffffffffffffffffffffffffffffff168152602001908152602001600020600601600182610aac91906142d2565b81548110610abd57610abc61418a565b5b90600052602060002090600702016000808773ffffffffffffffffffffffffffffffffffffffff1673ffffffffffffffffffffffffffffffffffffffff1681526020019081526020016000206006018281548110610b1e57610b1d61418a565b5b906000526020600020906007020160008201816000019081610b40919061431c565b5060018201816001019081610b55919061431c565b5060028201548160020155600382015481600301556004820160009054906101000a900473ffffffffffffffffffffffffffffffffffffffff168160040160006101000a81548173ffffffffffffffffffffffffffffffffffffffff021916908373ffffffffffffffffffffffffffffffffffffffff1602179055506005820160009054906101000a900473ffffffffffffffffffffffffffffffffffffffff168160050160006101000a81548173ffffffffffffffffffffffffffffffffffffffff021916908373ffffffffffffffffffffffffffffffffffffffff16021790555060068201816006019081610c4c919061431c565b509050508080600101915050610a06565b506000808573ffffffffffffffffffffffffffffffffffffffff1673ffffffffffffffffffffffffffffffffffffffff168152602001908152602001600020600601805480610caf57610cae614404565b5b600190038181906000526020600020906007020160008082016000610cd49190613009565b600182016000610ce49190613009565b600282016000905560038201600090556004820160006101000a81549073ffffffffffffffffffffffffffffffffffffffff02191690556005820160006101000a81549073ffffffffffffffffffffffffffffffffffffffff0219169055600682016000610d529190613009565b50509055610d68565b80806001019150506108fa565b5080610da9576040517f08c379a0000000000000000000000000000000000000000000000000000000008152600401610da090614537565b60405180910390fd5b5b505050505050565b6060610dbd82612ad3565b610dfc576040517f08c379a0000000000000000000000000000000000000000000000000000000008152600401610df39061416a565b60405180910390fd5b60008060008473ffffffffffffffffffffffffffffffffffffffff1673ffffffffffffffffffffffffffffffffffffffff1681526020019081526020016000206000019050600184511115610f8e576000600190505b8451811015610f8c576000805b8360040180549050811015610f3d57868381518110610e8157610e8061418a565b5b6020026020010151604051602001610e9991906141ea565b60405160208183030381529060405280519060200120846004018281548110610ec557610ec461418a565b5b9060005260206000209060050201600001604051602001610ee69190613e32565b6040516020818303038152906040528051906020012003610f3057836004018181548110610f1757610f1661418a565b5b9060005260206000209060050201935060019150610f3d565b8080600101915050610e5f565b5080610f7e576040517f08c379a0000000000000000000000000000000000000000000000000000000008152600401610f75906145a3565b60405180910390fd5b508080600101915050610e52565b505b600081600001610fc18360010160009054906101000a900473ffffffffffffffffffffffffffffffffffffffff16612d04565b610fce8460020154612b7c565b604051602001610fe0939291906146f3565b60405160208183030381529060405290506000826003018054905011156111fb5780604051602001611012919061479c565b604051602081830303815290604052905060005b82600301805490508110156111d757600083600301828154811061104d5761104c61418a565b5b90600052602060002090600602019050600081600001805461106e90613d69565b905011801561108d5750600081600101805461108990613d69565b9050115b801561109d575060008160020154115b80156110ad575060008160030154115b801561110a5750600073ffffffffffffffffffffffffffffffffffffffff168160040160009054906101000a900473ffffffffffffffffffffffffffffffffffffffff1673ffffffffffffffffffffffffffffffffffffffff1614155b156111c9578281600001826001016111258460020154612b7c565b6111328560030154612b7c565b61115f8660040160009054906101000a900473ffffffffffffffffffffffffffffffffffffffff16612d04565b8660050160405160200161117997969594939291906148ee565b60405160208183030381529060405292506001846003018054905061119e919061429e565b8210156111c857826040516020016111b691906149ec565b60405160208183030381529060405292505b5b508080600101915050611026565b50806040516020016111e99190614a5a565b60405160208183030381529060405290505b6000826004018054905011156113c1578060405160200161121c9190614ac8565b604051602081830303815290604052905060005b826004018054905081101561139d5760008360040182815481106112575761125661418a565b5b90600052602060002090600502019050600081600001805461127890613d69565b90501180156112d85750600073ffffffffffffffffffffffffffffffffffffffff168160010160009054906101000a900473ffffffffffffffffffffffffffffffffffffffff1673ffffffffffffffffffffffffffffffffffffffff1614155b80156112e8575060008160020154115b1561138f57828160000161131f8360010160009054906101000a900473ffffffffffffffffffffffffffffffffffffffff16612d04565b61132c8460020154612b7c565b60405160200161133f9493929190614aea565b604051602081830303815290604052925060018460040180549050611364919061429e565b82101561138e578260405160200161137c91906149ec565b60405160208183030381529060405292505b5b508080600101915050611230565b50806040516020016113af9190614a5a565b60405160208183030381529060405290505b806040516020016113d29190614ba0565b6040516020818303038152906040529050809250505092915050565b6000805b6000808473ffffffffffffffffffffffffffffffffffffffff1673ffffffffffffffffffffffffffffffffffffffff16815260200190815260200160002060050180549050811015611860578360405160200161144f91906141ea565b604051602081830303815290604052805190602001206000808573ffffffffffffffffffffffffffffffffffffffff1673ffffffffffffffffffffffffffffffffffffffff16815260200190815260200160002060050182815481106114b8576114b761418a565b5b90600052602060002090600702016001016040516020016114d99190613e32565b6040516020818303038152906040528051906020012003611853576001915060008190505b60016000808673ffffffffffffffffffffffffffffffffffffffff1673ffffffffffffffffffffffffffffffffffffffff1681526020019081526020016000206005018054905061154f919061429e565b811015611755576000808573ffffffffffffffffffffffffffffffffffffffff1673ffffffffffffffffffffffffffffffffffffffff1681526020019081526020016000206005016001826115a491906142d2565b815481106115b5576115b461418a565b5b90600052602060002090600702016000808673ffffffffffffffffffffffffffffffffffffffff1673ffffffffffffffffffffffffffffffffffffffff16815260200190815260200160002060050182815481106116165761161561418a565b5b906000526020600020906007020160008201816000019081611638919061431c565b506001820181600101908161164d919061431c565b5060028201548160020155600382015481600301556004820160009054906101000a900473ffffffffffffffffffffffffffffffffffffffff168160040160006101000a81548173ffffffffffffffffffffffffffffffffffffffff021916908373ffffffffffffffffffffffffffffffffffffffff1602179055506005820160009054906101000a900473ffffffffffffffffffffffffffffffffffffffff168160050160006101000a81548173ffffffffffffffffffffffffffffffffffffffff021916908373ffffffffffffffffffffffffffffffffffffffff16021790555060068201816006019081611744919061431c565b5090505080806001019150506114fe565b506000808473ffffffffffffffffffffffffffffffffffffffff1673ffffffffffffffffffffffffffffffffffffffff1681526020019081526020016000206005018054806117a7576117a6614404565b5b6001900381819060005260206000209060070201600080820160006117cc9190613009565b6001820160006117dc9190613009565b600282016000905560038201600090556004820160006101000a81549073ffffffffffffffffffffffffffffffffffffffff02191690556005820160006101000a81549073ffffffffffffffffffffffffffffffffffffffff021916905560068201600061184a9190613009565b50509055611860565b80806001019150506113f2565b50806118a1576040517f08c379a000000000000000000000000000000000000000000000000000000000815260040161189890614c34565b60405180910390fd5b505050565b6118af81612ad3565b6118ee576040517f08c379a00000000000000000000000000000000000000000000000000000000081526004016118e59061416a565b60405180910390fd5b60008060008373ffffffffffffffffffffffffffffffffffffffff1673ffffffffffffffffffffffffffffffffffffffff168152602001908152602001600020600001905060008190506000600190505b8551811015611aa7576000805b8460040180549050811015611a2d5787838151811061196e5761196d61418a565b5b602002602001015160405160200161198691906141ea565b604051602081830303815290604052805190602001208560040182815481106119b2576119b161418a565b5b90600052602060002090600502016000016040516020016119d39190613e32565b6040516020818303038152906040528051906020012003611a2057849350846004018181548110611a0757611a0661418a565b5b9060005260206000209060050201945060019150611a2d565b808060010191505061194c565b5080611a3883612b7c565b604051602001611a48919061424d565b60405160208183030381529060405290611a98576040517f08c379a0000000000000000000000000000000000000000000000000000000008152600401611a8f9190613857565b60405180910390fd5b5050808060010191505061193f565b506000805b8260040180549050811015611d105785604051602001611acc91906141ea565b60405160208183030381529060405280519060200120836004018281548110611af857611af761418a565b5b9060005260206000209060050201600001604051602001611b199190613e32565b6040516020818303038152906040528051906020012003611d03576001915060008190505b60018460040180549050611b52919061429e565b811015611c715783600401600182611b6a91906142d2565b81548110611b7b57611b7a61418a565b5b9060005260206000209060050201846004018281548110611b9f57611b9e61418a565b5b906000526020600020906005020160008201816000019081611bc1919061431c565b506001820160009054906101000a900473ffffffffffffffffffffffffffffffffffffffff168160010160006101000a81548173ffffffffffffffffffffffffffffffffffffffff021916908373ffffffffffffffffffffffffffffffffffffffff160217905550600282015481600201556003820181600301908054611c49929190613049565b506004820181600401908054611c6092919061315b565b509050508080600101915050611b3e565b5082600401805480611c8657611c85614404565b5b600190038181906000526020600020906005020160008082016000611cab9190613009565b6001820160006101000a81549073ffffffffffffffffffffffffffffffffffffffff02191690556002820160009055600382016000611cea9190613267565b600482016000611cfa919061328b565b50509055611d10565b8080600101915050611aac565b5080611d51576040517f08c379a0000000000000000000000000000000000000000000000000000000008152600401611d4890614ca0565b60405180910390fd5b505050505050565b611d6281612ad3565b611da1576040517f08c379a0000000000000000000000000000000000000000000000000000000008152600401611d989061416a565b60405180910390fd5b60008060008373ffffffffffffffffffffffffffffffffffffffff1673ffffffffffffffffffffffffffffffffffffffff16815260200190815260200160002060000190506000600190505b8451811015611f52576000805b8360040180549050811015611ed857868381518110611e1c57611e1b61418a565b5b6020026020010151604051602001611e3491906141ea565b60405160208183030381529060405280519060200120846004018281548110611e6057611e5f61418a565b5b9060005260206000209060050201600001604051602001611e819190613e32565b6040516020818303038152906040528051906020012003611ecb57836004018181548110611eb257611eb161418a565b5b9060005260206000209060050201935060019150611ed8565b8080600101915050611dfa565b5080611ee383612b7c565b604051602001611ef3919061424d565b60405160208183030381529060405290611f43576040517f08c379a0000000000000000000000000000000000000000000000000000000008152600401611f3a9190613857565b60405180910390fd5b50508080600101915050611ded565b5060005b83518110156120f357816003016040518060c00160405280868481518110611f8157611f8061418a565b5b6020026020010151600001518152602001868481518110611fa557611fa461418a565b5b6020026020010151602001518152602001868481518110611fc957611fc861418a565b5b60200260200101516040015181526020014281526020018573ffffffffffffffffffffffffffffffffffffffff16815260200186848151811061200f5761200e61418a565b5b6020026020010151606001518152509080600181540180825580915050600190039060005260206000209060060201600090919091909150600082015181600001908161205c919061404c565b506020820151816001019081612072919061404c565b50604082015181600201556060820151816003015560808201518160040160006101000a81548173ffffffffffffffffffffffffffffffffffffffff021916908373ffffffffffffffffffffffffffffffffffffffff16021790555060a08201518160050190816120e3919061404c565b5050508080600101915050611f56565b5050505050565b606061210582612ad3565b612144576040517f08c379a000000000000000000000000000000000000000000000000000000000815260040161213b9061416a565b60405180910390fd5b60008060008473ffffffffffffffffffffffffffffffffffffffff1673ffffffffffffffffffffffffffffffffffffffff168152602001908152602001600020600601905060008060008573ffffffffffffffffffffffffffffffffffffffff1673ffffffffffffffffffffffffffffffffffffffff168152602001908152602001600020600501905060006040518060400160405280600181526020017f5b00000000000000000000000000000000000000000000000000000000000000815250905060005b838054905081101561234557600084828154811061222c5761222b61418a565b5b9060005260206000209060070201905060008160000161226f8360040160009054906101000a900473ffffffffffffffffffffffffffffffffffffffff16612d04565b61227c8460030154612b7c565b6122a98560050160009054906101000a900473ffffffffffffffffffffffffffffffffffffffff16612d04565b85600101866006016040516020016122c696959493929190614d0c565b604051602081830303815290604052905083816040516020016122ea929190614db1565b60405160208183030381529060405293506001868054905061230c919061429e565b831015612336578360405160200161232491906149ec565b60405160208183030381529060405293505b5050808060010191505061220b565b50806040516020016123579190614a5a565b604051602081830303815290604052905060006040518060400160405280600181526020017f5b00000000000000000000000000000000000000000000000000000000000000815250905060005b83805490508110156124df5760008482815481106123c6576123c561418a565b5b906000526020600020906007020190506000816000016124098360040160009054906101000a900473ffffffffffffffffffffffffffffffffffffffff16612d04565b6124168460030154612b7c565b6124438560050160009054906101000a900473ffffffffffffffffffffffffffffffffffffffff16612d04565b856001018660060160405160200161246096959493929190614d0c565b60405160208183030381529060405290508381604051602001612484929190614db1565b6040516020818303038152906040529350600186805490506124a6919061429e565b8310156124d057836040516020016124be91906149ec565b60405160208183030381529060405293505b505080806001019150506123a5565b50806040516020016124f19190614a5a565b604051602081830303815290604052905060008282604051602001612517929190614e6d565b60405160208183030381529060405290508095505050505050919050565b60006040518060e001604052808781526020018681526020018581526020018481526020018973ffffffffffffffffffffffffffffffffffffffff1681526020018873ffffffffffffffffffffffffffffffffffffffff1681526020018381525090506000808973ffffffffffffffffffffffffffffffffffffffff1673ffffffffffffffffffffffffffffffffffffffff1681526020019081526020016000206006018190806001815401808255809150506001900390600052602060002090600702016000909190919091506000820151816000019081612618919061404c565b50602082015181600101908161262e919061404c565b50604082015181600201556060820151816003015560808201518160040160006101000a81548173ffffffffffffffffffffffffffffffffffffffff021916908373ffffffffffffffffffffffffffffffffffffffff16021790555060a08201518160050160006101000a81548173ffffffffffffffffffffffffffffffffffffffff021916908373ffffffffffffffffffffffffffffffffffffffff16021790555060c08201518160060190816126e6919061404c565b5050506000808873ffffffffffffffffffffffffffffffffffffffff1673ffffffffffffffffffffffffffffffffffffffff1681526020019081526020016000206005018190806001815401808255809150506001900390600052602060002090600702016000909190919091506000820151816000019081612769919061404c565b50602082015181600101908161277f919061404c565b50604082015181600201556060820151816003015560808201518160040160006101000a81548173ffffffffffffffffffffffffffffffffffffffff021916908373ffffffffffffffffffffffffffffffffffffffff16021790555060a08201518160050160006101000a81548173ffffffffffffffffffffffffffffffffffffffff021916908373ffffffffffffffffffffffffffffffffffffffff16021790555060c0820151816006019081612837919061404c565b5050505050505050505050565b61284d81612ad3565b61288c576040517f08c379a00000000000000000000000000000000000000000000000000000000081526004016128839061416a565b60405180910390fd5b60008060008373ffffffffffffffffffffffffffffffffffffffff1673ffffffffffffffffffffffffffffffffffffffff16815260200190815260200160002060000190506000600190505b8451811015612a12576000805b83600401805490508110156129c3578683815181106129075761290661418a565b5b602002602001015160405160200161291f91906141ea565b6040516020818303038152906040528051906020012084600401828154811061294b5761294a61418a565b5b906000526020600020906005020160000160405160200161296c9190613e32565b60405160208183030381529060405280519060200120036129b65783600401818154811061299d5761299c61418a565b5b90600052602060002090600502019350600191506129c3565b80806001019150506128e5565b5080612a04576040517f08c379a00000000000000000000000000000000000000000000000000000000081526004016129fb906145a3565b60405180910390fd5b5080806001019150506128d8565b50806004016001816001815401808255809150500390600052602060002090505060008160040160018360040180549050612a4d919061429e565b81548110612a5e57612a5d61418a565b5b9060005260206000209060050201905083816000019081612a7f919061404c565b50828160010160006101000a81548173ffffffffffffffffffffffffffffffffffffffff021916908373ffffffffffffffffffffffffffffffffffffffff1602179055504281600201819055505050505050565b6000604051602001612ae490613d25565b604051602081830303815290604052805190602001206000808473ffffffffffffffffffffffffffffffffffffffff1673ffffffffffffffffffffffffffffffffffffffff168152602001908152602001600020600001600001604051602001612b4e9190613e32565b6040516020818303038152906040528051906020012014612b725760009050612b77565b600190505b919050565b606060008203612bc3576040518060400160405280600181526020017f30000000000000000000000000000000000000000000000000000000000000008152509050612cff565b600082905060005b60008214612bf5578080612bde90614eb2565b915050600a82612bee9190614f29565b9150612bcb565b60008167ffffffffffffffff811115612c1157612c106134ab565b5b6040519080825280601f01601f191660200182016040528015612c435781602001600182028036833780820191505090505b50905060008290505b60008614612cf757600181612c61919061429e565b90506000600a8088612c739190614f29565b612c7d9190614f5a565b87612c88919061429e565b6030612c949190614fa9565b905060008160f81b905080848481518110612cb257612cb161418a565b5b60200101907effffffffffffffffffffffffffffffffffffffffffffffffffffffffffffff1916908160001a905350600a88612cee9190614f29565b97505050612c4c565b819450505050505b919050565b606060008273ffffffffffffffffffffffffffffffffffffffff1660001b905060006040518060400160405280601081526020017f303132333435363738396162636465660000000000000000000000000000000081525090506000602a67ffffffffffffffff811115612d7b57612d7a6134ab565b5b6040519080825280601f01601f191660200182016040528015612dad5781602001600182028036833780820191505090505b5090507f300000000000000000000000000000000000000000000000000000000000000081600081518110612de557612de461418a565b5b60200101907effffffffffffffffffffffffffffffffffffffffffffffffffffffffffffff1916908160001a9053507f780000000000000000000000000000000000000000000000000000000000000081600181518110612e4957612e4861418a565b5b60200101907effffffffffffffffffffffffffffffffffffffffffffffffffffffffffffff1916908160001a90535060005b6014811015612ffd5782600485600c84612e9591906142d2565b60208110612ea657612ea561418a565b5b1a60f81b7effffffffffffffffffffffffffffffffffffffffffffffffffffffffffffff1916901c60f81c60ff1681518110612ee557612ee461418a565b5b602001015160f81c60f81b82600283612efe9190614f5a565b6002612f0a91906142d2565b81518110612f1b57612f1a61418a565b5b60200101907effffffffffffffffffffffffffffffffffffffffffffffffffffffffffffff1916908160001a90535082600f60f81b85600c84612f5e91906142d2565b60208110612f6f57612f6e61418a565b5b1a60f81b1660f81c60ff1681518110612f8b57612f8a61418a565b5b602001015160f81c60f81b82600283612fa49190614f5a565b6003612fb091906142d2565b81518110612fc157612fc061418a565b5b60200101907effffffffffffffffffffffffffffffffffffffffffffffffffffffffffffff1916908160001a9053508080600101915050612e7b565b50809350505050919050565b50805461301590613d69565b6000825580601f106130275750613046565b601f01602090049060005260206000209081019061304591906132af565b5b50565b82805482825590600052602060002090600602810192821561314a5760005260206000209160060282015b8281111561314957828260008201816000019081613092919061431c565b50600182018160010190816130a7919061431c565b5060028201548160020155600382015481600301556004820160009054906101000a900473ffffffffffffffffffffffffffffffffffffffff168160040160006101000a81548173ffffffffffffffffffffffffffffffffffffffff021916908373ffffffffffffffffffffffffffffffffffffffff16021790555060058201816005019081613137919061431c565b50505091600601919060060190613074565b5b50905061315791906132cc565b5090565b8280548282559060005260206000209060050281019282156132565760005260206000209160050282015b82811115613255578282600082018160000190816131a4919061431c565b506001820160009054906101000a900473ffffffffffffffffffffffffffffffffffffffff168160010160006101000a81548173ffffffffffffffffffffffffffffffffffffffff021916908373ffffffffffffffffffffffffffffffffffffffff16021790555060028201548160020155600382018160030190805461322c929190613049565b50600482018160040190805461324392919061315b565b50505091600501919060050190613186565b5b509050613263919061334a565b5090565b508054600082556006029060005260206000209081019061328891906132cc565b50565b50805460008255600502906000526020600020908101906132ac919061334a565b50565b5b808211156132c85760008160009055506001016132b0565b5090565b5b8082111561334657600080820160006132e69190613009565b6001820160006132f69190613009565b600282016000905560038201600090556004820160006101000a81549073ffffffffffffffffffffffffffffffffffffffff021916905560058201600061333d9190613009565b506006016132cd565b5090565b5b808211156133bc57600080820160006133649190613009565b6001820160006101000a81549073ffffffffffffffffffffffffffffffffffffffff021916905560028201600090556003820160006133a39190613267565b6004820160006133b3919061328b565b5060050161334b565b5090565b6000604051905090565b600080fd5b600080fd5b600073ffffffffffffffffffffffffffffffffffffffff82169050919050565b60006133ff826133d4565b9050919050565b61340f816133f4565b811461341a57600080fd5b50565b60008135905061342c81613406565b92915050565b600060208284031215613448576134476133ca565b5b60006134568482850161341d565b91505092915050565b60008115159050919050565b6134748161345f565b82525050565b600060208201905061348f600083018461346b565b92915050565b600080fd5b6000601f19601f8301169050919050565b7f4e487b7100000000000000000000000000000000000000000000000000000000600052604160045260246000fd5b6134e38261349a565b810181811067ffffffffffffffff82111715613502576135016134ab565b5b80604052505050565b60006135156133c0565b905061352182826134da565b919050565b600067ffffffffffffffff821115613541576135406134ab565b5b602082029050602081019050919050565b600080fd5b600080fd5b600067ffffffffffffffff821115613577576135766134ab565b5b6135808261349a565b9050602081019050919050565b82818337600083830152505050565b60006135af6135aa8461355c565b61350b565b9050828152602081018484840111156135cb576135ca613557565b5b6135d684828561358d565b509392505050565b600082601f8301126135f3576135f2613495565b5b813561360384826020860161359c565b91505092915050565b600061361f61361a84613526565b61350b565b9050808382526020820190506020840283018581111561364257613641613552565b5b835b8181101561368957803567ffffffffffffffff81111561366757613666613495565b5b80860161367489826135de565b85526020850194505050602081019050613644565b5050509392505050565b600082601f8301126136a8576136a7613495565b5b81356136b884826020860161360c565b91505092915050565b600080600080608085870312156136db576136da6133ca565b5b600085013567ffffffffffffffff8111156136f9576136f86133cf565b5b61370587828801613693565b945050602085013567ffffffffffffffff811115613726576137256133cf565b5b613732878288016135de565b935050604085013567ffffffffffffffff811115613753576137526133cf565b5b61375f878288016135de565b92505060606137708782880161341d565b91505092959194509250565b60008060408385031215613793576137926133ca565b5b600083013567ffffffffffffffff8111156137b1576137b06133cf565b5b6137bd85828601613693565b92505060206137ce8582860161341d565b9150509250929050565b600081519050919050565b600082825260208201905092915050565b60005b838110156138125780820151818401526020810190506137f7565b60008484015250505050565b6000613829826137d8565b61383381856137e3565b93506138438185602086016137f4565b61384c8161349a565b840191505092915050565b60006020820190508181036000830152613871818461381e565b905092915050565b600080604083850312156138905761388f6133ca565b5b600083013567ffffffffffffffff8111156138ae576138ad6133cf565b5b6138ba858286016135de565b92505060206138cb8582860161341d565b9150509250929050565b6000806000606084860312156138ee576138ed6133ca565b5b600084013567ffffffffffffffff81111561390c5761390b6133cf565b5b61391886828701613693565b935050602084013567ffffffffffffffff811115613939576139386133cf565b5b613945868287016135de565b92505060406139568682870161341d565b9150509250925092565b600067ffffffffffffffff82111561397b5761397a6134ab565b5b602082029050602081019050919050565b600080fd5b600080fd5b6000819050919050565b6139a981613996565b81146139b457600080fd5b50565b6000813590506139c6816139a0565b92915050565b6000608082840312156139e2576139e161398c565b5b6139ec608061350b565b9050600082013567ffffffffffffffff811115613a0c57613a0b613991565b5b613a18848285016135de565b600083015250602082013567ffffffffffffffff811115613a3c57613a3b613991565b5b613a48848285016135de565b6020830152506040613a5c848285016139b7565b604083015250606082013567ffffffffffffffff811115613a8057613a7f613991565b5b613a8c848285016135de565b60608301525092915050565b6000613aab613aa684613960565b61350b565b90508083825260208201905060208402830185811115613ace57613acd613552565b5b835b81811015613b1557803567ffffffffffffffff811115613af357613af2613495565b5b808601613b0089826139cc565b85526020850194505050602081019050613ad0565b5050509392505050565b600082601f830112613b3457613b33613495565b5b8135613b44848260208601613a98565b91505092915050565b600080600060608486031215613b6657613b656133ca565b5b600084013567ffffffffffffffff811115613b8457613b836133cf565b5b613b9086828701613693565b935050602084013567ffffffffffffffff811115613bb157613bb06133cf565b5b613bbd86828701613b1f565b9250506040613bce8682870161341d565b9150509250925092565b600080600080600080600060e0888a031215613bf757613bf66133ca565b5b6000613c058a828b0161341d565b9750506020613c168a828b0161341d565b965050604088013567ffffffffffffffff811115613c3757613c366133cf565b5b613c438a828b016135de565b955050606088013567ffffffffffffffff811115613c6457613c636133cf565b5b613c708a828b016135de565b9450506080613c818a828b016139b7565b93505060a0613c928a828b016139b7565b92505060c088013567ffffffffffffffff811115613cb357613cb26133cf565b5b613cbf8a828b016135de565b91505092959891949750929550565b600081905092915050565b7f726f6f7400000000000000000000000000000000000000000000000000000000600082015250565b6000613d0f600483613cce565b9150613d1a82613cd9565b600482019050919050565b6000613d3082613d02565b9150819050919050565b7f4e487b7100000000000000000000000000000000000000000000000000000000600052602260045260246000fd5b60006002820490506001821680613d8157607f821691505b602082108103613d9457613d93613d3a565b5b50919050565b60008190508160005260206000209050919050565b60008154613dbc81613d69565b613dc68186613cce565b94506001821660008114613de15760018114613df657613e29565b60ff1983168652811515820286019350613e29565b613dff85613d9a565b60005b83811015613e2157815481890152600182019150602081019050613e02565b838801955050505b50505092915050565b6000613e3e8284613daf565b915081905092915050565b7f5573657220616c726561647920696e697469616c697a65640000000000000000600082015250565b6000613e7f6018836137e3565b9150613e8a82613e49565b602082019050919050565b60006020820190508181036000830152613eae81613e72565b9050919050565b60006020601f8301049050919050565b600082821b905092915050565b600060088302613f027fffffffffffffffffffffffffffffffffffffffffffffffffffffffffffffffff82613ec5565b613f0c8683613ec5565b95508019841693508086168417925050509392505050565b6000819050919050565b6000613f49613f44613f3f84613996565b613f24565b613996565b9050919050565b6000819050919050565b613f6383613f2e565b613f77613f6f82613f50565b848454613ed2565b825550505050565b600090565b613f8c613f7f565b613f97818484613f5a565b505050565b5b81811015613fbb57613fb0600082613f84565b600181019050613f9d565b5050565b601f82111561400057613fd181613d9a565b613fda84613eb5565b81016020851015613fe9578190505b613ffd613ff585613eb5565b830182613f9c565b50505b505050565b600082821c905092915050565b600061402360001984600802614005565b1980831691505092915050565b600061403c8383614012565b9150826002028217905092915050565b614055826137d8565b67ffffffffffffffff81111561406e5761406d6134ab565b5b6140788254613d69565b614083828285613fbf565b600060209050601f8311600181146140b657600084156140a4578287015190505b6140ae8582614030565b865550614116565b601f1984166140c486613d9a565b60005b828110156140ec578489015182556001820191506020850194506020810190506140c7565b868310156141095784890151614105601f891682614012565b8355505b6001600288020188555050505b505050505050565b7f5573657220726f6f74206e6f7420696e697469616c697a656400000000000000600082015250565b60006141546019836137e3565b915061415f8261411e565b602082019050919050565b6000602082019050818103600083015261418381614147565b9050919050565b7f4e487b7100000000000000000000000000000000000000000000000000000000600052603260045260246000fd5b60006141c4826137d8565b6141ce8185613cce565b93506141de8185602086016137f4565b80840191505092915050565b60006141f682846141b9565b915081905092915050565b7f5061746820646f6573206e6f7420657869737420617420696e64657820000000600082015250565b6000614237601d83613cce565b915061424282614201565b601d82019050919050565b60006142588261422a565b915061426482846141b9565b915081905092915050565b7f4e487b7100000000000000000000000000000000000000000000000000000000600052601160045260246000fd5b60006142a982613996565b91506142b483613996565b92508282039050818111156142cc576142cb61426f565b5b92915050565b60006142dd82613996565b91506142e883613996565b9250828201905080821115614300576142ff61426f565b5b92915050565b60008154905061431581613d69565b9050919050565b81810361432a575050614402565b61433382614306565b67ffffffffffffffff81111561434c5761434b6134ab565b5b6143568254613d69565b614361828285613fbf565b6000601f831160018114614390576000841561437e578287015490505b6143888582614030565b8655506143fb565b601f19841661439e87613d9a565b96506143a986613d9a565b60005b828110156143d1578489015482556001820191506001850194506020810190506143ac565b868310156143ee57848901546143ea601f891682614012565b8355505b6001600288020188555050505b5050505050505b565b7f4e487b7100000000000000000000000000000000000000000000000000000000600052603160045260246000fd5b7f46696c6520646f6573206e6f7420657869737420696e20726f6f7420666f6c6460008201527f6572000000000000000000000000000000000000000000000000000000000000602082015250565b600061448f6022836137e3565b915061449a82614433565b604082019050919050565b600060208201905081810360008301526144be81614482565b9050919050565b7f46696c652077697468207370656369666965642043494420646f6573206e6f7460008201527f20657869737420696e20736861726564546f50656f706c650000000000000000602082015250565b60006145216038836137e3565b915061452c826144c5565b604082019050919050565b6000602082019050818103600083015261455081614514565b9050919050565b7f5061746820646f6573206e6f7420657869737400000000000000000000000000600082015250565b600061458d6013836137e3565b915061459882614557565b602082019050919050565b600060208201905081810360008301526145bc81614580565b9050919050565b7f7b226e616d65223a220000000000000000000000000000000000000000000000600082015250565b60006145f9600983613cce565b9150614604826145c3565b600982019050919050565b7f222c226f776e6572223a22000000000000000000000000000000000000000000600082015250565b6000614645600b83613cce565b91506146508261460f565b600b82019050919050565b7f222c22637265617465644174223a220000000000000000000000000000000000600082015250565b6000614691600f83613cce565b915061469c8261465b565b600f82019050919050565b7f2200000000000000000000000000000000000000000000000000000000000000600082015250565b60006146dd600183613cce565b91506146e8826146a7565b600182019050919050565b60006146fe826145ec565b915061470a8286613daf565b915061471582614638565b915061472182856141b9565b915061472c82614684565b915061473882846141b9565b9150614743826146d0565b9150819050949350505050565b7f2c2266696c6573223a5b00000000000000000000000000000000000000000000600082015250565b6000614786600a83613cce565b915061479182614750565b600a82019050919050565b60006147a882846141b9565b91506147b382614779565b915081905092915050565b7f222c22636964223a220000000000000000000000000000000000000000000000600082015250565b60006147f4600983613cce565b91506147ff826147be565b600982019050919050565b7f222c2273697a65223a2200000000000000000000000000000000000000000000600082015250565b6000614840600a83613cce565b915061484b8261480a565b600a82019050919050565b7f222c2266696c6554797065223a22000000000000000000000000000000000000600082015250565b600061488c600e83613cce565b915061489782614856565b600e82019050919050565b7f227d000000000000000000000000000000000000000000000000000000000000600082015250565b60006148d8600283613cce565b91506148e3826148a2565b600282019050919050565b60006148fa828a6141b9565b9150614905826145ec565b91506149118289613daf565b915061491c826147e7565b91506149288288613daf565b915061493382614833565b915061493f82876141b9565b915061494a82614684565b915061495682866141b9565b915061496182614638565b915061496d82856141b9565b91506149788261487f565b91506149848284613daf565b915061498f826148cb565b915081905098975050505050505050565b7f2c00000000000000000000000000000000000000000000000000000000000000600082015250565b60006149d6600183613cce565b91506149e1826149a0565b600182019050919050565b60006149f882846141b9565b9150614a03826149c9565b915081905092915050565b7f5d00000000000000000000000000000000000000000000000000000000000000600082015250565b6000614a44600183613cce565b9150614a4f82614a0e565b600182019050919050565b6000614a6682846141b9565b9150614a7182614a37565b915081905092915050565b7f2c22666f6c64657273223a5b0000000000000000000000000000000000000000600082015250565b6000614ab2600c83613cce565b9150614abd82614a7c565b600c82019050919050565b6000614ad482846141b9565b9150614adf82614aa5565b915081905092915050565b6000614af682876141b9565b9150614b01826145ec565b9150614b0d8286613daf565b9150614b1882614638565b9150614b2482856141b9565b9150614b2f82614684565b9150614b3b82846141b9565b9150614b46826148cb565b915081905095945050505050565b7f7d00000000000000000000000000000000000000000000000000000000000000600082015250565b6000614b8a600183613cce565b9150614b9582614b54565b600182019050919050565b6000614bac82846141b9565b9150614bb782614b7d565b915081905092915050565b7f46696c652077697468207370656369666965642043494420646f6573206e6f7460008201527f20657869737420696e20736861726564576974684d6500000000000000000000602082015250565b6000614c1e6036836137e3565b9150614c2982614bc2565b604082019050919050565b60006020820190508181036000830152614c4d81614c11565b9050919050565b7f466f6c64657220646f6573206e6f742065786973740000000000000000000000600082015250565b6000614c8a6015836137e3565b9150614c9582614c54565b602082019050919050565b60006020820190508181036000830152614cb981614c7d565b9050919050565b7f222c22746f223a22000000000000000000000000000000000000000000000000600082015250565b6000614cf6600883613cce565b9150614d0182614cc0565b600882019050919050565b6000614d17826145ec565b9150614d238289613daf565b9150614d2e82614638565b9150614d3a82886141b9565b9150614d4582614684565b9150614d5182876141b9565b9150614d5c82614ce9565b9150614d6882866141b9565b9150614d73826147e7565b9150614d7f8285613daf565b9150614d8a8261487f565b9150614d968284613daf565b9150614da1826148cb565b9150819050979650505050505050565b6000614dbd82856141b9565b9150614dc982846141b9565b91508190509392505050565b7f7b22736861726564546f50656f706c65223a0000000000000000000000000000600082015250565b6000614e0b601283613cce565b9150614e1682614dd5565b601282019050919050565b7f2c22736861726564576974684d65223a00000000000000000000000000000000600082015250565b6000614e57601083613cce565b9150614e6282614e21565b601082019050919050565b6000614e7882614dfe565b9150614e8482856141b9565b9150614e8f82614e4a565b9150614e9b82846141b9565b9150614ea682614b7d565b91508190509392505050565b6000614ebd82613996565b91507fffffffffffffffffffffffffffffffffffffffffffffffffffffffffffffffff8203614eef57614eee61426f565b5b600182019050919050565b7f4e487b7100000000000000000000000000000000000000000000000000000000600052601260045260246000fd5b6000614f3482613996565b9150614f3f83613996565b925082614f4f57614f4e614efa565b5b828204905092915050565b6000614f6582613996565b9150614f7083613996565b9250828202614f7e81613996565b91508282048414831517614f9557614f9461426f565b5b5092915050565b600060ff82169050919050565b6000614fb482614f9c565b9150614fbf83614f9c565b9250828201905060ff811115614fd857614fd761426f565b5b9291505056fea264697066735822122069efc5a299beab5a201521b57749959b4955dd70e73c420def7fd0294e0538e964736f6c63430008180033",
          "opcodes": "PUSH1 0x80 PUSH1 0x40 MSTORE CALLVALUE DUP1 ISZERO PUSH2 0x10 JUMPI PUSH1 0x0 DUP1 REVERT JUMPDEST POP PUSH2 0x5014 DUP1 PUSH2 0x20 PUSH1 0x0 CODECOPY PUSH1 0x0 RETURN INVALID PUSH1 0x80 PUSH1 0x40 MSTORE CALLVALUE DUP1 ISZERO PUSH2 0x10 JUMPI PUSH1 0x0 DUP1 REVERT JUMPDEST POP PUSH1 0x4 CALLDATASIZE LT PUSH2 0x9E JUMPI PUSH1 0x0 CALLDATALOAD PUSH1 0xE0 SHR DUP1 PUSH4 0x4EE37C28 GT PUSH2 0x66 JUMPI DUP1 PUSH4 0x4EE37C28 EQ PUSH2 0x157 JUMPI DUP1 PUSH4 0x62BFA014 EQ PUSH2 0x173 JUMPI DUP1 PUSH4 0xCBCBA28C EQ PUSH2 0x1A3 JUMPI DUP1 PUSH4 0xCC6CD16F EQ PUSH2 0x1BF JUMPI DUP1 PUSH4 0xD9EC2719 EQ PUSH2 0x1DB JUMPI PUSH2 0x9E JUMP JUMPDEST DUP1 PUSH4 0x1496B84 EQ PUSH2 0xA3 JUMPI DUP1 PUSH4 0x6D36558 EQ PUSH2 0xD3 JUMPI DUP1 PUSH4 0x140AF0E2 EQ PUSH2 0xEF JUMPI DUP1 PUSH4 0x341E6179 EQ PUSH2 0x11F JUMPI DUP1 PUSH4 0x39CF4DF2 EQ PUSH2 0x13B JUMPI JUMPDEST PUSH1 0x0 DUP1 REVERT JUMPDEST PUSH2 0xBD PUSH1 0x4 DUP1 CALLDATASIZE SUB DUP2 ADD SWAP1 PUSH2 0xB8 SWAP2 SWAP1 PUSH2 0x3432 JUMP JUMPDEST PUSH2 0x20B JUMP JUMPDEST PUSH1 0x40 MLOAD PUSH2 0xCA SWAP2 SWAP1 PUSH2 0x347A JUMP JUMPDEST PUSH1 0x40 MLOAD DUP1 SWAP2 SUB SWAP1 RETURN JUMPDEST PUSH2 0xED PUSH1 0x4 DUP1 CALLDATASIZE SUB DUP2 ADD SWAP1 PUSH2 0xE8 SWAP2 SWAP1 PUSH2 0x36C1 JUMP JUMPDEST PUSH2 0x438 JUMP JUMPDEST STOP JUMPDEST PUSH2 0x109 PUSH1 0x4 DUP1 CALLDATASIZE SUB DUP2 ADD SWAP1 PUSH2 0x104 SWAP2 SWAP1 PUSH2 0x377C JUMP JUMPDEST PUSH2 0xDB2 JUMP JUMPDEST PUSH1 0x40 MLOAD PUSH2 0x116 SWAP2 SWAP1 PUSH2 0x3857 JUMP JUMPDEST PUSH1 0x40 MLOAD DUP1 SWAP2 SUB SWAP1 RETURN JUMPDEST PUSH2 0x139 PUSH1 0x4 DUP1 CALLDATASIZE SUB DUP2 ADD SWAP1 PUSH2 0x134 SWAP2 SWAP1 PUSH2 0x3879 JUMP JUMPDEST PUSH2 0x13EE JUMP JUMPDEST STOP JUMPDEST PUSH2 0x155 PUSH1 0x4 DUP1 CALLDATASIZE SUB DUP2 ADD SWAP1 PUSH2 0x150 SWAP2 SWAP1 PUSH2 0x38D5 JUMP JUMPDEST PUSH2 0x18A6 JUMP JUMPDEST STOP JUMPDEST PUSH2 0x171 PUSH1 0x4 DUP1 CALLDATASIZE SUB DUP2 ADD SWAP1 PUSH2 0x16C SWAP2 SWAP1 PUSH2 0x3B4D JUMP JUMPDEST PUSH2 0x1D59 JUMP JUMPDEST STOP JUMPDEST PUSH2 0x18D PUSH1 0x4 DUP1 CALLDATASIZE SUB DUP2 ADD SWAP1 PUSH2 0x188 SWAP2 SWAP1 PUSH2 0x3432 JUMP JUMPDEST PUSH2 0x20FA JUMP JUMPDEST PUSH1 0x40 MLOAD PUSH2 0x19A SWAP2 SWAP1 PUSH2 0x3857 JUMP JUMPDEST PUSH1 0x40 MLOAD DUP1 SWAP2 SUB SWAP1 RETURN JUMPDEST PUSH2 0x1BD PUSH1 0x4 DUP1 CALLDATASIZE SUB DUP2 ADD SWAP1 PUSH2 0x1B8 SWAP2 SWAP1 PUSH2 0x3BD8 JUMP JUMPDEST PUSH2 0x2535 JUMP JUMPDEST STOP JUMPDEST PUSH2 0x1D9 PUSH1 0x4 DUP1 CALLDATASIZE SUB DUP2 ADD SWAP1 PUSH2 0x1D4 SWAP2 SWAP1 PUSH2 0x38D5 JUMP JUMPDEST PUSH2 0x2844 JUMP JUMPDEST STOP JUMPDEST PUSH2 0x1F5 PUSH1 0x4 DUP1 CALLDATASIZE SUB DUP2 ADD SWAP1 PUSH2 0x1F0 SWAP2 SWAP1 PUSH2 0x3432 JUMP JUMPDEST PUSH2 0x2AD3 JUMP JUMPDEST PUSH1 0x40 MLOAD PUSH2 0x202 SWAP2 SWAP1 PUSH2 0x347A JUMP JUMPDEST PUSH1 0x40 MLOAD DUP1 SWAP2 SUB SWAP1 RETURN JUMPDEST PUSH1 0x0 PUSH1 0x40 MLOAD PUSH1 0x20 ADD PUSH2 0x21C SWAP1 PUSH2 0x3D25 JUMP JUMPDEST PUSH1 0x40 MLOAD PUSH1 0x20 DUP2 DUP4 SUB SUB DUP2 MSTORE SWAP1 PUSH1 0x40 MSTORE DUP1 MLOAD SWAP1 PUSH1 0x20 ADD KECCAK256 PUSH1 0x0 DUP1 DUP5 PUSH20 0xFFFFFFFFFFFFFFFFFFFFFFFFFFFFFFFFFFFFFFFF AND PUSH20 0xFFFFFFFFFFFFFFFFFFFFFFFFFFFFFFFFFFFFFFFF AND DUP2 MSTORE PUSH1 0x20 ADD SWAP1 DUP2 MSTORE PUSH1 0x20 ADD PUSH1 0x0 KECCAK256 PUSH1 0x0 ADD PUSH1 0x0 ADD PUSH1 0x40 MLOAD PUSH1 0x20 ADD PUSH2 0x286 SWAP2 SWAP1 PUSH2 0x3E32 JUMP JUMPDEST PUSH1 0x40 MLOAD PUSH1 0x20 DUP2 DUP4 SUB SUB DUP2 MSTORE SWAP1 PUSH1 0x40 MSTORE DUP1 MLOAD SWAP1 PUSH1 0x20 ADD KECCAK256 SUB PUSH2 0x2DC JUMPI PUSH1 0x40 MLOAD PUSH32 0x8C379A000000000000000000000000000000000000000000000000000000000 DUP2 MSTORE PUSH1 0x4 ADD PUSH2 0x2D3 SWAP1 PUSH2 0x3E95 JUMP JUMPDEST PUSH1 0x40 MLOAD DUP1 SWAP2 SUB SWAP1 REVERT JUMPDEST PUSH1 0x40 MLOAD DUP1 PUSH1 0x40 ADD PUSH1 0x40 MSTORE DUP1 PUSH1 0x4 DUP2 MSTORE PUSH1 0x20 ADD PUSH32 0x726F6F7400000000000000000000000000000000000000000000000000000000 DUP2 MSTORE POP PUSH1 0x0 DUP1 DUP5 PUSH20 0xFFFFFFFFFFFFFFFFFFFFFFFFFFFFFFFFFFFFFFFF AND PUSH20 0xFFFFFFFFFFFFFFFFFFFFFFFFFFFFFFFFFFFFFFFF AND DUP2 MSTORE PUSH1 0x20 ADD SWAP1 DUP2 MSTORE PUSH1 0x20 ADD PUSH1 0x0 KECCAK256 PUSH1 0x0 ADD PUSH1 0x0 ADD SWAP1 DUP2 PUSH2 0x362 SWAP2 SWAP1 PUSH2 0x404C JUMP JUMPDEST POP DUP2 PUSH1 0x0 DUP1 DUP5 PUSH20 0xFFFFFFFFFFFFFFFFFFFFFFFFFFFFFFFFFFFFFFFF AND PUSH20 0xFFFFFFFFFFFFFFFFFFFFFFFFFFFFFFFFFFFFFFFF AND DUP2 MSTORE PUSH1 0x20 ADD SWAP1 DUP2 MSTORE PUSH1 0x20 ADD PUSH1 0x0 KECCAK256 PUSH1 0x0 ADD PUSH1 0x1 ADD PUSH1 0x0 PUSH2 0x100 EXP DUP2 SLOAD DUP2 PUSH20 0xFFFFFFFFFFFFFFFFFFFFFFFFFFFFFFFFFFFFFFFF MUL NOT AND SWAP1 DUP4 PUSH20 0xFFFFFFFFFFFFFFFFFFFFFFFFFFFFFFFFFFFFFFFF AND MUL OR SWAP1 SSTORE POP TIMESTAMP PUSH1 0x0 DUP1 DUP5 PUSH20 0xFFFFFFFFFFFFFFFFFFFFFFFFFFFFFFFFFFFFFFFF AND PUSH20 0xFFFFFFFFFFFFFFFFFFFFFFFFFFFFFFFFFFFFFFFF AND DUP2 MSTORE PUSH1 0x20 ADD SWAP1 DUP2 MSTORE PUSH1 0x20 ADD PUSH1 0x0 KECCAK256 PUSH1 0x0 ADD PUSH1 0x2 ADD DUP2 SWAP1 SSTORE POP PUSH1 0x1 SWAP1 POP SWAP2 SWAP1 POP JUMP JUMPDEST PUSH2 0x441 DUP2 PUSH2 0x2AD3 JUMP JUMPDEST PUSH2 0x480 JUMPI PUSH1 0x40 MLOAD PUSH32 0x8C379A000000000000000000000000000000000000000000000000000000000 DUP2 MSTORE PUSH1 0x4 ADD PUSH2 0x477 SWAP1 PUSH2 0x416A JUMP JUMPDEST PUSH1 0x40 MLOAD DUP1 SWAP2 SUB SWAP1 REVERT JUMPDEST PUSH1 0x0 DUP1 PUSH1 0x0 DUP4 PUSH20 0xFFFFFFFFFFFFFFFFFFFFFFFFFFFFFFFFFFFFFFFF AND PUSH20 0xFFFFFFFFFFFFFFFFFFFFFFFFFFFFFFFFFFFFFFFF AND DUP2 MSTORE PUSH1 0x20 ADD SWAP1 DUP2 MSTORE PUSH1 0x20 ADD PUSH1 0x0 KECCAK256 PUSH1 0x0 ADD SWAP1 POP PUSH1 0x0 PUSH1 0x1 SWAP1 POP JUMPDEST DUP6 MLOAD DUP2 LT ISZERO PUSH2 0x631 JUMPI PUSH1 0x0 DUP1 JUMPDEST DUP4 PUSH1 0x4 ADD DUP1 SLOAD SWAP1 POP DUP2 LT ISZERO PUSH2 0x5B7 JUMPI DUP8 DUP4 DUP2 MLOAD DUP2 LT PUSH2 0x4FB JUMPI PUSH2 0x4FA PUSH2 0x418A JUMP JUMPDEST JUMPDEST PUSH1 0x20 MUL PUSH1 0x20 ADD ADD MLOAD PUSH1 0x40 MLOAD PUSH1 0x20 ADD PUSH2 0x513 SWAP2 SWAP1 PUSH2 0x41EA JUMP JUMPDEST PUSH1 0x40 MLOAD PUSH1 0x20 DUP2 DUP4 SUB SUB DUP2 MSTORE SWAP1 PUSH1 0x40 MSTORE DUP1 MLOAD SWAP1 PUSH1 0x20 ADD KECCAK256 DUP5 PUSH1 0x4 ADD DUP3 DUP2 SLOAD DUP2 LT PUSH2 0x53F JUMPI PUSH2 0x53E PUSH2 0x418A JUMP JUMPDEST JUMPDEST SWAP1 PUSH1 0x0 MSTORE PUSH1 0x20 PUSH1 0x0 KECCAK256 SWAP1 PUSH1 0x5 MUL ADD PUSH1 0x0 ADD PUSH1 0x40 MLOAD PUSH1 0x20 ADD PUSH2 0x560 SWAP2 SWAP1 PUSH2 0x3E32 JUMP JUMPDEST PUSH1 0x40 MLOAD PUSH1 0x20 DUP2 DUP4 SUB SUB DUP2 MSTORE SWAP1 PUSH1 0x40 MSTORE DUP1 MLOAD SWAP1 PUSH1 0x20 ADD KECCAK256 SUB PUSH2 0x5AA JUMPI DUP4 PUSH1 0x4 ADD DUP2 DUP2 SLOAD DUP2 LT PUSH2 0x591 JUMPI PUSH2 0x590 PUSH2 0x418A JUMP JUMPDEST JUMPDEST SWAP1 PUSH1 0x0 MSTORE PUSH1 0x20 PUSH1 0x0 KECCAK256 SWAP1 PUSH1 0x5 MUL ADD SWAP4 POP PUSH1 0x1 SWAP2 POP PUSH2 0x5B7 JUMP JUMPDEST DUP1 DUP1 PUSH1 0x1 ADD SWAP2 POP POP PUSH2 0x4D9 JUMP JUMPDEST POP DUP1 PUSH2 0x5C2 DUP4 PUSH2 0x2B7C JUMP JUMPDEST PUSH1 0x40 MLOAD PUSH1 0x20 ADD PUSH2 0x5D2 SWAP2 SWAP1 PUSH2 0x424D JUMP JUMPDEST PUSH1 0x40 MLOAD PUSH1 0x20 DUP2 DUP4 SUB SUB DUP2 MSTORE SWAP1 PUSH1 0x40 MSTORE SWAP1 PUSH2 0x622 JUMPI PUSH1 0x40 MLOAD PUSH32 0x8C379A000000000000000000000000000000000000000000000000000000000 DUP2 MSTORE PUSH1 0x4 ADD PUSH2 0x619 SWAP2 SWAP1 PUSH2 0x3857 JUMP JUMPDEST PUSH1 0x40 MLOAD DUP1 SWAP2 SUB SWAP1 REVERT JUMPDEST POP POP DUP1 DUP1 PUSH1 0x1 ADD SWAP2 POP POP PUSH2 0x4CC JUMP JUMPDEST POP PUSH1 0x0 DUP1 JUMPDEST DUP3 PUSH1 0x3 ADD DUP1 SLOAD SWAP1 POP DUP2 LT ISZERO PUSH2 0x8A8 JUMPI DUP6 PUSH1 0x40 MLOAD PUSH1 0x20 ADD PUSH2 0x656 SWAP2 SWAP1 PUSH2 0x41EA JUMP JUMPDEST PUSH1 0x40 MLOAD PUSH1 0x20 DUP2 DUP4 SUB SUB DUP2 MSTORE SWAP1 PUSH1 0x40 MSTORE DUP1 MLOAD SWAP1 PUSH1 0x20 ADD KECCAK256 DUP4 PUSH1 0x3 ADD DUP3 DUP2 SLOAD DUP2 LT PUSH2 0x682 JUMPI PUSH2 0x681 PUSH2 0x418A JUMP JUMPDEST JUMPDEST SWAP1 PUSH1 0x0 MSTORE PUSH1 0x20 PUSH1 0x0 KECCAK256 SWAP1 PUSH1 0x6 MUL ADD PUSH1 0x0 ADD PUSH1 0x40 MLOAD PUSH1 0x20 ADD PUSH2 0x6A3 SWAP2 SWAP1 PUSH2 0x3E32 JUMP JUMPDEST PUSH1 0x40 MLOAD PUSH1 0x20 DUP2 DUP4 SUB SUB DUP2 MSTORE SWAP1 PUSH1 0x40 MSTORE DUP1 MLOAD SWAP1 PUSH1 0x20 ADD KECCAK256 SUB PUSH2 0x89B JUMPI PUSH1 0x1 SWAP2 POP PUSH1 0x0 DUP2 SWAP1 POP JUMPDEST PUSH1 0x1 DUP5 PUSH1 0x3 ADD DUP1 SLOAD SWAP1 POP PUSH2 0x6DC SWAP2 SWAP1 PUSH2 0x429E JUMP JUMPDEST DUP2 LT ISZERO PUSH2 0x801 JUMPI DUP4 PUSH1 0x3 ADD PUSH1 0x1 DUP3 PUSH2 0x6F4 SWAP2 SWAP1 PUSH2 0x42D2 JUMP JUMPDEST DUP2 SLOAD DUP2 LT PUSH2 0x705 JUMPI PUSH2 0x704 PUSH2 0x418A JUMP JUMPDEST JUMPDEST SWAP1 PUSH1 0x0 MSTORE PUSH1 0x20 PUSH1 0x0 KECCAK256 SWAP1 PUSH1 0x6 MUL ADD DUP5 PUSH1 0x3 ADD DUP3 DUP2 SLOAD DUP2 LT PUSH2 0x729 JUMPI PUSH2 0x728 PUSH2 0x418A JUMP JUMPDEST JUMPDEST SWAP1 PUSH1 0x0 MSTORE PUSH1 0x20 PUSH1 0x0 KECCAK256 SWAP1 PUSH1 0x6 MUL ADD PUSH1 0x0 DUP3 ADD DUP2 PUSH1 0x0 ADD SWAP1 DUP2 PUSH2 0x74B SWAP2 SWAP1 PUSH2 0x431C JUMP JUMPDEST POP PUSH1 0x1 DUP3 ADD DUP2 PUSH1 0x1 ADD SWAP1 DUP2 PUSH2 0x760 SWAP2 SWAP1 PUSH2 0x431C JUMP JUMPDEST POP PUSH1 0x2 DUP3 ADD SLOAD DUP2 PUSH1 0x2 ADD SSTORE PUSH1 0x3 DUP3 ADD SLOAD DUP2 PUSH1 0x3 ADD SSTORE PUSH1 0x4 DUP3 ADD PUSH1 0x0 SWAP1 SLOAD SWAP1 PUSH2 0x100 EXP SWAP1 DIV PUSH20 0xFFFFFFFFFFFFFFFFFFFFFFFFFFFFFFFFFFFFFFFF AND DUP2 PUSH1 0x4 ADD PUSH1 0x0 PUSH2 0x100 EXP DUP2 SLOAD DUP2 PUSH20 0xFFFFFFFFFFFFFFFFFFFFFFFFFFFFFFFFFFFFFFFF MUL NOT AND SWAP1 DUP4 PUSH20 0xFFFFFFFFFFFFFFFFFFFFFFFFFFFFFFFFFFFFFFFF AND MUL OR SWAP1 SSTORE POP PUSH1 0x5 DUP3 ADD DUP2 PUSH1 0x5 ADD SWAP1 DUP2 PUSH2 0x7F0 SWAP2 SWAP1 PUSH2 0x431C JUMP JUMPDEST POP SWAP1 POP POP DUP1 DUP1 PUSH1 0x1 ADD SWAP2 POP POP PUSH2 0x6C8 JUMP JUMPDEST POP DUP3 PUSH1 0x3 ADD DUP1 SLOAD DUP1 PUSH2 0x816 JUMPI PUSH2 0x815 PUSH2 0x4404 JUMP JUMPDEST JUMPDEST PUSH1 0x1 SWAP1 SUB DUP2 DUP2 SWAP1 PUSH1 0x0 MSTORE PUSH1 0x20 PUSH1 0x0 KECCAK256 SWAP1 PUSH1 0x6 MUL ADD PUSH1 0x0 DUP1 DUP3 ADD PUSH1 0x0 PUSH2 0x83B SWAP2 SWAP1 PUSH2 0x3009 JUMP JUMPDEST PUSH1 0x1 DUP3 ADD PUSH1 0x0 PUSH2 0x84B SWAP2 SWAP1 PUSH2 0x3009 JUMP JUMPDEST PUSH1 0x2 DUP3 ADD PUSH1 0x0 SWAP1 SSTORE PUSH1 0x3 DUP3 ADD PUSH1 0x0 SWAP1 SSTORE PUSH1 0x4 DUP3 ADD PUSH1 0x0 PUSH2 0x100 EXP DUP2 SLOAD SWAP1 PUSH20 0xFFFFFFFFFFFFFFFFFFFFFFFFFFFFFFFFFFFFFFFF MUL NOT AND SWAP1 SSTORE PUSH1 0x5 DUP3 ADD PUSH1 0x0 PUSH2 0x892 SWAP2 SWAP1 PUSH2 0x3009 JUMP JUMPDEST POP POP SWAP1 SSTORE PUSH2 0x8A8 JUMP JUMPDEST DUP1 DUP1 PUSH1 0x1 ADD SWAP2 POP POP PUSH2 0x636 JUMP JUMPDEST POP DUP1 PUSH2 0x8E9 JUMPI PUSH1 0x40 MLOAD PUSH32 0x8C379A000000000000000000000000000000000000000000000000000000000 DUP2 MSTORE PUSH1 0x4 ADD PUSH2 0x8E0 SWAP1 PUSH2 0x44A5 JUMP JUMPDEST PUSH1 0x40 MLOAD DUP1 SWAP2 SUB SWAP1 REVERT JUMPDEST PUSH1 0x0 DUP5 MLOAD GT ISZERO PUSH2 0xDAA JUMPI PUSH1 0x0 SWAP1 POP PUSH1 0x0 JUMPDEST PUSH1 0x0 DUP1 DUP6 PUSH20 0xFFFFFFFFFFFFFFFFFFFFFFFFFFFFFFFFFFFFFFFF AND PUSH20 0xFFFFFFFFFFFFFFFFFFFFFFFFFFFFFFFFFFFFFFFF AND DUP2 MSTORE PUSH1 0x20 ADD SWAP1 DUP2 MSTORE PUSH1 0x20 ADD PUSH1 0x0 KECCAK256 PUSH1 0x6 ADD DUP1 SLOAD SWAP1 POP DUP2 LT ISZERO PUSH2 0xD68 JUMPI DUP5 PUSH1 0x40 MLOAD PUSH1 0x20 ADD PUSH2 0x957 SWAP2 SWAP1 PUSH2 0x41EA JUMP JUMPDEST PUSH1 0x40 MLOAD PUSH1 0x20 DUP2 DUP4 SUB SUB DUP2 MSTORE SWAP1 PUSH1 0x40 MSTORE DUP1 MLOAD SWAP1 PUSH1 0x20 ADD KECCAK256 PUSH1 0x0 DUP1 DUP7 PUSH20 0xFFFFFFFFFFFFFFFFFFFFFFFFFFFFFFFFFFFFFFFF AND PUSH20 0xFFFFFFFFFFFFFFFFFFFFFFFFFFFFFFFFFFFFFFFF AND DUP2 MSTORE PUSH1 0x20 ADD SWAP1 DUP2 MSTORE PUSH1 0x20 ADD PUSH1 0x0 KECCAK256 PUSH1 0x6 ADD DUP3 DUP2 SLOAD DUP2 LT PUSH2 0x9C0 JUMPI PUSH2 0x9BF PUSH2 0x418A JUMP JUMPDEST JUMPDEST SWAP1 PUSH1 0x0 MSTORE PUSH1 0x20 PUSH1 0x0 KECCAK256 SWAP1 PUSH1 0x7 MUL ADD PUSH1 0x1 ADD PUSH1 0x40 MLOAD PUSH1 0x20 ADD PUSH2 0x9E1 SWAP2 SWAP1 PUSH2 0x3E32 JUMP JUMPDEST PUSH1 0x40 MLOAD PUSH1 0x20 DUP2 DUP4 SUB SUB DUP2 MSTORE SWAP1 PUSH1 0x40 MSTORE DUP1 MLOAD SWAP1 PUSH1 0x20 ADD KECCAK256 SUB PUSH2 0xD5B JUMPI PUSH1 0x1 SWAP2 POP PUSH1 0x0 DUP2 SWAP1 POP JUMPDEST PUSH1 0x1 PUSH1 0x0 DUP1 DUP8 PUSH20 0xFFFFFFFFFFFFFFFFFFFFFFFFFFFFFFFFFFFFFFFF AND PUSH20 0xFFFFFFFFFFFFFFFFFFFFFFFFFFFFFFFFFFFFFFFF AND DUP2 MSTORE PUSH1 0x20 ADD SWAP1 DUP2 MSTORE PUSH1 0x20 ADD PUSH1 0x0 KECCAK256 PUSH1 0x6 ADD DUP1 SLOAD SWAP1 POP PUSH2 0xA57 SWAP2 SWAP1 PUSH2 0x429E JUMP JUMPDEST DUP2 LT ISZERO PUSH2 0xC5D JUMPI PUSH1 0x0 DUP1 DUP7 PUSH20 0xFFFFFFFFFFFFFFFFFFFFFFFFFFFFFFFFFFFFFFFF AND PUSH20 0xFFFFFFFFFFFFFFFFFFFFFFFFFFFFFFFFFFFFFFFF AND DUP2 MSTORE PUSH1 0x20 ADD SWAP1 DUP2 MSTORE PUSH1 0x20 ADD PUSH1 0x0 KECCAK256 PUSH1 0x6 ADD PUSH1 0x1 DUP3 PUSH2 0xAAC SWAP2 SWAP1 PUSH2 0x42D2 JUMP JUMPDEST DUP2 SLOAD DUP2 LT PUSH2 0xABD JUMPI PUSH2 0xABC PUSH2 0x418A JUMP JUMPDEST JUMPDEST SWAP1 PUSH1 0x0 MSTORE PUSH1 0x20 PUSH1 0x0 KECCAK256 SWAP1 PUSH1 0x7 MUL ADD PUSH1 0x0 DUP1 DUP8 PUSH20 0xFFFFFFFFFFFFFFFFFFFFFFFFFFFFFFFFFFFFFFFF AND PUSH20 0xFFFFFFFFFFFFFFFFFFFFFFFFFFFFFFFFFFFFFFFF AND DUP2 MSTORE PUSH1 0x20 ADD SWAP1 DUP2 MSTORE PUSH1 0x20 ADD PUSH1 0x0 KECCAK256 PUSH1 0x6 ADD DUP3 DUP2 SLOAD DUP2 LT PUSH2 0xB1E JUMPI PUSH2 0xB1D PUSH2 0x418A JUMP JUMPDEST JUMPDEST SWAP1 PUSH1 0x0 MSTORE PUSH1 0x20 PUSH1 0x0 KECCAK256 SWAP1 PUSH1 0x7 MUL ADD PUSH1 0x0 DUP3 ADD DUP2 PUSH1 0x0 ADD SWAP1 DUP2 PUSH2 0xB40 SWAP2 SWAP1 PUSH2 0x431C JUMP JUMPDEST POP PUSH1 0x1 DUP3 ADD DUP2 PUSH1 0x1 ADD SWAP1 DUP2 PUSH2 0xB55 SWAP2 SWAP1 PUSH2 0x431C JUMP JUMPDEST POP PUSH1 0x2 DUP3 ADD SLOAD DUP2 PUSH1 0x2 ADD SSTORE PUSH1 0x3 DUP3 ADD SLOAD DUP2 PUSH1 0x3 ADD SSTORE PUSH1 0x4 DUP3 ADD PUSH1 0x0 SWAP1 SLOAD SWAP1 PUSH2 0x100 EXP SWAP1 DIV PUSH20 0xFFFFFFFFFFFFFFFFFFFFFFFFFFFFFFFFFFFFFFFF AND DUP2 PUSH1 0x4 ADD PUSH1 0x0 PUSH2 0x100 EXP DUP2 SLOAD DUP2 PUSH20 0xFFFFFFFFFFFFFFFFFFFFFFFFFFFFFFFFFFFFFFFF MUL NOT AND SWAP1 DUP4 PUSH20 0xFFFFFFFFFFFFFFFFFFFFFFFFFFFFFFFFFFFFFFFF AND MUL OR SWAP1 SSTORE POP PUSH1 0x5 DUP3 ADD PUSH1 0x0 SWAP1 SLOAD SWAP1 PUSH2 0x100 EXP SWAP1 DIV PUSH20 0xFFFFFFFFFFFFFFFFFFFFFFFFFFFFFFFFFFFFFFFF AND DUP2 PUSH1 0x5 ADD PUSH1 0x0 PUSH2 0x100 EXP DUP2 SLOAD DUP2 PUSH20 0xFFFFFFFFFFFFFFFFFFFFFFFFFFFFFFFFFFFFFFFF MUL NOT AND SWAP1 DUP4 PUSH20 0xFFFFFFFFFFFFFFFFFFFFFFFFFFFFFFFFFFFFFFFF AND MUL OR SWAP1 SSTORE POP PUSH1 0x6 DUP3 ADD DUP2 PUSH1 0x6 ADD SWAP1 DUP2 PUSH2 0xC4C SWAP2 SWAP1 PUSH2 0x431C JUMP JUMPDEST POP SWAP1 POP POP DUP1 DUP1 PUSH1 0x1 ADD SWAP2 POP POP PUSH2 0xA06 JUMP JUMPDEST POP PUSH1 0x0 DUP1 DUP6 PUSH20 0xFFFFFFFFFFFFFFFFFFFFFFFFFFFFFFFFFFFFFFFF AND PUSH20 0xFFFFFFFFFFFFFFFFFFFFFFFFFFFFFFFFFFFFFFFF AND DUP2 MSTORE PUSH1 0x20 ADD SWAP1 DUP2 MSTORE PUSH1 0x20 ADD PUSH1 0x0 KECCAK256 PUSH1 0x6 ADD DUP1 SLOAD DUP1 PUSH2 0xCAF JUMPI PUSH2 0xCAE PUSH2 0x4404 JUMP JUMPDEST JUMPDEST PUSH1 0x1 SWAP1 SUB DUP2 DUP2 SWAP1 PUSH1 0x0 MSTORE PUSH1 0x20 PUSH1 0x0 KECCAK256 SWAP1 PUSH1 0x7 MUL ADD PUSH1 0x0 DUP1 DUP3 ADD PUSH1 0x0 PUSH2 0xCD4 SWAP2 SWAP1 PUSH2 0x3009 JUMP JUMPDEST PUSH1 0x1 DUP3 ADD PUSH1 0x0 PUSH2 0xCE4 SWAP2 SWAP1 PUSH2 0x3009 JUMP JUMPDEST PUSH1 0x2 DUP3 ADD PUSH1 0x0 SWAP1 SSTORE PUSH1 0x3 DUP3 ADD PUSH1 0x0 SWAP1 SSTORE PUSH1 0x4 DUP3 ADD PUSH1 0x0 PUSH2 0x100 EXP DUP2 SLOAD SWAP1 PUSH20 0xFFFFFFFFFFFFFFFFFFFFFFFFFFFFFFFFFFFFFFFF MUL NOT AND SWAP1 SSTORE PUSH1 0x5 DUP3 ADD PUSH1 0x0 PUSH2 0x100 EXP DUP2 SLOAD SWAP1 PUSH20 0xFFFFFFFFFFFFFFFFFFFFFFFFFFFFFFFFFFFFFFFF MUL NOT AND SWAP1 SSTORE PUSH1 0x6 DUP3 ADD PUSH1 0x0 PUSH2 0xD52 SWAP2 SWAP1 PUSH2 0x3009 JUMP JUMPDEST POP POP SWAP1 SSTORE PUSH2 0xD68 JUMP JUMPDEST DUP1 DUP1 PUSH1 0x1 ADD SWAP2 POP POP PUSH2 0x8FA JUMP JUMPDEST POP DUP1 PUSH2 0xDA9 JUMPI PUSH1 0x40 MLOAD PUSH32 0x8C379A000000000000000000000000000000000000000000000000000000000 DUP2 MSTORE PUSH1 0x4 ADD PUSH2 0xDA0 SWAP1 PUSH2 0x4537 JUMP JUMPDEST PUSH1 0x40 MLOAD DUP1 SWAP2 SUB SWAP1 REVERT JUMPDEST JUMPDEST POP POP POP POP POP POP JUMP JUMPDEST PUSH1 0x60 PUSH2 0xDBD DUP3 PUSH2 0x2AD3 JUMP JUMPDEST PUSH2 0xDFC JUMPI PUSH1 0x40 MLOAD PUSH32 0x8C379A000000000000000000000000000000000000000000000000000000000 DUP2 MSTORE PUSH1 0x4 ADD PUSH2 0xDF3 SWAP1 PUSH2 0x416A JUMP JUMPDEST PUSH1 0x40 MLOAD DUP1 SWAP2 SUB SWAP1 REVERT JUMPDEST PUSH1 0x0 DUP1 PUSH1 0x0 DUP5 PUSH20 0xFFFFFFFFFFFFFFFFFFFFFFFFFFFFFFFFFFFFFFFF AND PUSH20 0xFFFFFFFFFFFFFFFFFFFFFFFFFFFFFFFFFFFFFFFF AND DUP2 MSTORE PUSH1 0x20 ADD SWAP1 DUP2 MSTORE PUSH1 0x20 ADD PUSH1 0x0 KECCAK256 PUSH1 0x0 ADD SWAP1 POP PUSH1 0x1 DUP5 MLOAD GT ISZERO PUSH2 0xF8E JUMPI PUSH1 0x0 PUSH1 0x1 SWAP1 POP JUMPDEST DUP5 MLOAD DUP2 LT ISZERO PUSH2 0xF8C JUMPI PUSH1 0x0 DUP1 JUMPDEST DUP4 PUSH1 0x4 ADD DUP1 SLOAD SWAP1 POP DUP2 LT ISZERO PUSH2 0xF3D JUMPI DUP7 DUP4 DUP2 MLOAD DUP2 LT PUSH2 0xE81 JUMPI PUSH2 0xE80 PUSH2 0x418A JUMP JUMPDEST JUMPDEST PUSH1 0x20 MUL PUSH1 0x20 ADD ADD MLOAD PUSH1 0x40 MLOAD PUSH1 0x20 ADD PUSH2 0xE99 SWAP2 SWAP1 PUSH2 0x41EA JUMP JUMPDEST PUSH1 0x40 MLOAD PUSH1 0x20 DUP2 DUP4 SUB SUB DUP2 MSTORE SWAP1 PUSH1 0x40 MSTORE DUP1 MLOAD SWAP1 PUSH1 0x20 ADD KECCAK256 DUP5 PUSH1 0x4 ADD DUP3 DUP2 SLOAD DUP2 LT PUSH2 0xEC5 JUMPI PUSH2 0xEC4 PUSH2 0x418A JUMP JUMPDEST JUMPDEST SWAP1 PUSH1 0x0 MSTORE PUSH1 0x20 PUSH1 0x0 KECCAK256 SWAP1 PUSH1 0x5 MUL ADD PUSH1 0x0 ADD PUSH1 0x40 MLOAD PUSH1 0x20 ADD PUSH2 0xEE6 SWAP2 SWAP1 PUSH2 0x3E32 JUMP JUMPDEST PUSH1 0x40 MLOAD PUSH1 0x20 DUP2 DUP4 SUB SUB DUP2 MSTORE SWAP1 PUSH1 0x40 MSTORE DUP1 MLOAD SWAP1 PUSH1 0x20 ADD KECCAK256 SUB PUSH2 0xF30 JUMPI DUP4 PUSH1 0x4 ADD DUP2 DUP2 SLOAD DUP2 LT PUSH2 0xF17 JUMPI PUSH2 0xF16 PUSH2 0x418A JUMP JUMPDEST JUMPDEST SWAP1 PUSH1 0x0 MSTORE PUSH1 0x20 PUSH1 0x0 KECCAK256 SWAP1 PUSH1 0x5 MUL ADD SWAP4 POP PUSH1 0x1 SWAP2 POP PUSH2 0xF3D JUMP JUMPDEST DUP1 DUP1 PUSH1 0x1 ADD SWAP2 POP POP PUSH2 0xE5F JUMP JUMPDEST POP DUP1 PUSH2 0xF7E JUMPI PUSH1 0x40 MLOAD PUSH32 0x8C379A000000000000000000000000000000000000000000000000000000000 DUP2 MSTORE PUSH1 0x4 ADD PUSH2 0xF75 SWAP1 PUSH2 0x45A3 JUMP JUMPDEST PUSH1 0x40 MLOAD DUP1 SWAP2 SUB SWAP1 REVERT JUMPDEST POP DUP1 DUP1 PUSH1 0x1 ADD SWAP2 POP POP PUSH2 0xE52 JUMP JUMPDEST POP JUMPDEST PUSH1 0x0 DUP2 PUSH1 0x0 ADD PUSH2 0xFC1 DUP4 PUSH1 0x1 ADD PUSH1 0x0 SWAP1 SLOAD SWAP1 PUSH2 0x100 EXP SWAP1 DIV PUSH20 0xFFFFFFFFFFFFFFFFFFFFFFFFFFFFFFFFFFFFFFFF AND PUSH2 0x2D04 JUMP JUMPDEST PUSH2 0xFCE DUP5 PUSH1 0x2 ADD SLOAD PUSH2 0x2B7C JUMP JUMPDEST PUSH1 0x40 MLOAD PUSH1 0x20 ADD PUSH2 0xFE0 SWAP4 SWAP3 SWAP2 SWAP1 PUSH2 0x46F3 JUMP JUMPDEST PUSH1 0x40 MLOAD PUSH1 0x20 DUP2 DUP4 SUB SUB DUP2 MSTORE SWAP1 PUSH1 0x40 MSTORE SWAP1 POP PUSH1 0x0 DUP3 PUSH1 0x3 ADD DUP1 SLOAD SWAP1 POP GT ISZERO PUSH2 0x11FB JUMPI DUP1 PUSH1 0x40 MLOAD PUSH1 0x20 ADD PUSH2 0x1012 SWAP2 SWAP1 PUSH2 0x479C JUMP JUMPDEST PUSH1 0x40 MLOAD PUSH1 0x20 DUP2 DUP4 SUB SUB DUP2 MSTORE SWAP1 PUSH1 0x40 MSTORE SWAP1 POP PUSH1 0x0 JUMPDEST DUP3 PUSH1 0x3 ADD DUP1 SLOAD SWAP1 POP DUP2 LT ISZERO PUSH2 0x11D7 JUMPI PUSH1 0x0 DUP4 PUSH1 0x3 ADD DUP3 DUP2 SLOAD DUP2 LT PUSH2 0x104D JUMPI PUSH2 0x104C PUSH2 0x418A JUMP JUMPDEST JUMPDEST SWAP1 PUSH1 0x0 MSTORE PUSH1 0x20 PUSH1 0x0 KECCAK256 SWAP1 PUSH1 0x6 MUL ADD SWAP1 POP PUSH1 0x0 DUP2 PUSH1 0x0 ADD DUP1 SLOAD PUSH2 0x106E SWAP1 PUSH2 0x3D69 JUMP JUMPDEST SWAP1 POP GT DUP1 ISZERO PUSH2 0x108D JUMPI POP PUSH1 0x0 DUP2 PUSH1 0x1 ADD DUP1 SLOAD PUSH2 0x1089 SWAP1 PUSH2 0x3D69 JUMP JUMPDEST SWAP1 POP GT JUMPDEST DUP1 ISZERO PUSH2 0x109D JUMPI POP PUSH1 0x0 DUP2 PUSH1 0x2 ADD SLOAD GT JUMPDEST DUP1 ISZERO PUSH2 0x10AD JUMPI POP PUSH1 0x0 DUP2 PUSH1 0x3 ADD SLOAD GT JUMPDEST DUP1 ISZERO PUSH2 0x110A JUMPI POP PUSH1 0x0 PUSH20 0xFFFFFFFFFFFFFFFFFFFFFFFFFFFFFFFFFFFFFFFF AND DUP2 PUSH1 0x4 ADD PUSH1 0x0 SWAP1 SLOAD SWAP1 PUSH2 0x100 EXP SWAP1 DIV PUSH20 0xFFFFFFFFFFFFFFFFFFFFFFFFFFFFFFFFFFFFFFFF AND PUSH20 0xFFFFFFFFFFFFFFFFFFFFFFFFFFFFFFFFFFFFFFFF AND EQ ISZERO JUMPDEST ISZERO PUSH2 0x11C9 JUMPI DUP3 DUP2 PUSH1 0x0 ADD DUP3 PUSH1 0x1 ADD PUSH2 0x1125 DUP5 PUSH1 0x2 ADD SLOAD PUSH2 0x2B7C JUMP JUMPDEST PUSH2 0x1132 DUP6 PUSH1 0x3 ADD SLOAD PUSH2 0x2B7C JUMP JUMPDEST PUSH2 0x115F DUP7 PUSH1 0x4 ADD PUSH1 0x0 SWAP1 SLOAD SWAP1 PUSH2 0x100 EXP SWAP1 DIV PUSH20 0xFFFFFFFFFFFFFFFFFFFFFFFFFFFFFFFFFFFFFFFF AND PUSH2 0x2D04 JUMP JUMPDEST DUP7 PUSH1 0x5 ADD PUSH1 0x40 MLOAD PUSH1 0x20 ADD PUSH2 0x1179 SWAP8 SWAP7 SWAP6 SWAP5 SWAP4 SWAP3 SWAP2 SWAP1 PUSH2 0x48EE JUMP JUMPDEST PUSH1 0x40 MLOAD PUSH1 0x20 DUP2 DUP4 SUB SUB DUP2 MSTORE SWAP1 PUSH1 0x40 MSTORE SWAP3 POP PUSH1 0x1 DUP5 PUSH1 0x3 ADD DUP1 SLOAD SWAP1 POP PUSH2 0x119E SWAP2 SWAP1 PUSH2 0x429E JUMP JUMPDEST DUP3 LT ISZERO PUSH2 0x11C8 JUMPI DUP3 PUSH1 0x40 MLOAD PUSH1 0x20 ADD PUSH2 0x11B6 SWAP2 SWAP1 PUSH2 0x49EC JUMP JUMPDEST PUSH1 0x40 MLOAD PUSH1 0x20 DUP2 DUP4 SUB SUB DUP2 MSTORE SWAP1 PUSH1 0x40 MSTORE SWAP3 POP JUMPDEST JUMPDEST POP DUP1 DUP1 PUSH1 0x1 ADD SWAP2 POP POP PUSH2 0x1026 JUMP JUMPDEST POP DUP1 PUSH1 0x40 MLOAD PUSH1 0x20 ADD PUSH2 0x11E9 SWAP2 SWAP1 PUSH2 0x4A5A JUMP JUMPDEST PUSH1 0x40 MLOAD PUSH1 0x20 DUP2 DUP4 SUB SUB DUP2 MSTORE SWAP1 PUSH1 0x40 MSTORE SWAP1 POP JUMPDEST PUSH1 0x0 DUP3 PUSH1 0x4 ADD DUP1 SLOAD SWAP1 POP GT ISZERO PUSH2 0x13C1 JUMPI DUP1 PUSH1 0x40 MLOAD PUSH1 0x20 ADD PUSH2 0x121C SWAP2 SWAP1 PUSH2 0x4AC8 JUMP JUMPDEST PUSH1 0x40 MLOAD PUSH1 0x20 DUP2 DUP4 SUB SUB DUP2 MSTORE SWAP1 PUSH1 0x40 MSTORE SWAP1 POP PUSH1 0x0 JUMPDEST DUP3 PUSH1 0x4 ADD DUP1 SLOAD SWAP1 POP DUP2 LT ISZERO PUSH2 0x139D JUMPI PUSH1 0x0 DUP4 PUSH1 0x4 ADD DUP3 DUP2 SLOAD DUP2 LT PUSH2 0x1257 JUMPI PUSH2 0x1256 PUSH2 0x418A JUMP JUMPDEST JUMPDEST SWAP1 PUSH1 0x0 MSTORE PUSH1 0x20 PUSH1 0x0 KECCAK256 SWAP1 PUSH1 0x5 MUL ADD SWAP1 POP PUSH1 0x0 DUP2 PUSH1 0x0 ADD DUP1 SLOAD PUSH2 0x1278 SWAP1 PUSH2 0x3D69 JUMP JUMPDEST SWAP1 POP GT DUP1 ISZERO PUSH2 0x12D8 JUMPI POP PUSH1 0x0 PUSH20 0xFFFFFFFFFFFFFFFFFFFFFFFFFFFFFFFFFFFFFFFF AND DUP2 PUSH1 0x1 ADD PUSH1 0x0 SWAP1 SLOAD SWAP1 PUSH2 0x100 EXP SWAP1 DIV PUSH20 0xFFFFFFFFFFFFFFFFFFFFFFFFFFFFFFFFFFFFFFFF AND PUSH20 0xFFFFFFFFFFFFFFFFFFFFFFFFFFFFFFFFFFFFFFFF AND EQ ISZERO JUMPDEST DUP1 ISZERO PUSH2 0x12E8 JUMPI POP PUSH1 0x0 DUP2 PUSH1 0x2 ADD SLOAD GT JUMPDEST ISZERO PUSH2 0x138F JUMPI DUP3 DUP2 PUSH1 0x0 ADD PUSH2 0x131F DUP4 PUSH1 0x1 ADD PUSH1 0x0 SWAP1 SLOAD SWAP1 PUSH2 0x100 EXP SWAP1 DIV PUSH20 0xFFFFFFFFFFFFFFFFFFFFFFFFFFFFFFFFFFFFFFFF AND PUSH2 0x2D04 JUMP JUMPDEST PUSH2 0x132C DUP5 PUSH1 0x2 ADD SLOAD PUSH2 0x2B7C JUMP JUMPDEST PUSH1 0x40 MLOAD PUSH1 0x20 ADD PUSH2 0x133F SWAP5 SWAP4 SWAP3 SWAP2 SWAP1 PUSH2 0x4AEA JUMP JUMPDEST PUSH1 0x40 MLOAD PUSH1 0x20 DUP2 DUP4 SUB SUB DUP2 MSTORE SWAP1 PUSH1 0x40 MSTORE SWAP3 POP PUSH1 0x1 DUP5 PUSH1 0x4 ADD DUP1 SLOAD SWAP1 POP PUSH2 0x1364 SWAP2 SWAP1 PUSH2 0x429E JUMP JUMPDEST DUP3 LT ISZERO PUSH2 0x138E JUMPI DUP3 PUSH1 0x40 MLOAD PUSH1 0x20 ADD PUSH2 0x137C SWAP2 SWAP1 PUSH2 0x49EC JUMP JUMPDEST PUSH1 0x40 MLOAD PUSH1 0x20 DUP2 DUP4 SUB SUB DUP2 MSTORE SWAP1 PUSH1 0x40 MSTORE SWAP3 POP JUMPDEST JUMPDEST POP DUP1 DUP1 PUSH1 0x1 ADD SWAP2 POP POP PUSH2 0x1230 JUMP JUMPDEST POP DUP1 PUSH1 0x40 MLOAD PUSH1 0x20 ADD PUSH2 0x13AF SWAP2 SWAP1 PUSH2 0x4A5A JUMP JUMPDEST PUSH1 0x40 MLOAD PUSH1 0x20 DUP2 DUP4 SUB SUB DUP2 MSTORE SWAP1 PUSH1 0x40 MSTORE SWAP1 POP JUMPDEST DUP1 PUSH1 0x40 MLOAD PUSH1 0x20 ADD PUSH2 0x13D2 SWAP2 SWAP1 PUSH2 0x4BA0 JUMP JUMPDEST PUSH1 0x40 MLOAD PUSH1 0x20 DUP2 DUP4 SUB SUB DUP2 MSTORE SWAP1 PUSH1 0x40 MSTORE SWAP1 POP DUP1 SWAP3 POP POP POP SWAP3 SWAP2 POP POP JUMP JUMPDEST PUSH1 0x0 DUP1 JUMPDEST PUSH1 0x0 DUP1 DUP5 PUSH20 0xFFFFFFFFFFFFFFFFFFFFFFFFFFFFFFFFFFFFFFFF AND PUSH20 0xFFFFFFFFFFFFFFFFFFFFFFFFFFFFFFFFFFFFFFFF AND DUP2 MSTORE PUSH1 0x20 ADD SWAP1 DUP2 MSTORE PUSH1 0x20 ADD PUSH1 0x0 KECCAK256 PUSH1 0x5 ADD DUP1 SLOAD SWAP1 POP DUP2 LT ISZERO PUSH2 0x1860 JUMPI DUP4 PUSH1 0x40 MLOAD PUSH1 0x20 ADD PUSH2 0x144F SWAP2 SWAP1 PUSH2 0x41EA JUMP JUMPDEST PUSH1 0x40 MLOAD PUSH1 0x20 DUP2 DUP4 SUB SUB DUP2 MSTORE SWAP1 PUSH1 0x40 MSTORE DUP1 MLOAD SWAP1 PUSH1 0x20 ADD KECCAK256 PUSH1 0x0 DUP1 DUP6 PUSH20 0xFFFFFFFFFFFFFFFFFFFFFFFFFFFFFFFFFFFFFFFF AND PUSH20 0xFFFFFFFFFFFFFFFFFFFFFFFFFFFFFFFFFFFFFFFF AND DUP2 MSTORE PUSH1 0x20 ADD SWAP1 DUP2 MSTORE PUSH1 0x20 ADD PUSH1 0x0 KECCAK256 PUSH1 0x5 ADD DUP3 DUP2 SLOAD DUP2 LT PUSH2 0x14B8 JUMPI PUSH2 0x14B7 PUSH2 0x418A JUMP JUMPDEST JUMPDEST SWAP1 PUSH1 0x0 MSTORE PUSH1 0x20 PUSH1 0x0 KECCAK256 SWAP1 PUSH1 0x7 MUL ADD PUSH1 0x1 ADD PUSH1 0x40 MLOAD PUSH1 0x20 ADD PUSH2 0x14D9 SWAP2 SWAP1 PUSH2 0x3E32 JUMP JUMPDEST PUSH1 0x40 MLOAD PUSH1 0x20 DUP2 DUP4 SUB SUB DUP2 MSTORE SWAP1 PUSH1 0x40 MSTORE DUP1 MLOAD SWAP1 PUSH1 0x20 ADD KECCAK256 SUB PUSH2 0x1853 JUMPI PUSH1 0x1 SWAP2 POP PUSH1 0x0 DUP2 SWAP1 POP JUMPDEST PUSH1 0x1 PUSH1 0x0 DUP1 DUP7 PUSH20 0xFFFFFFFFFFFFFFFFFFFFFFFFFFFFFFFFFFFFFFFF AND PUSH20 0xFFFFFFFFFFFFFFFFFFFFFFFFFFFFFFFFFFFFFFFF AND DUP2 MSTORE PUSH1 0x20 ADD SWAP1 DUP2 MSTORE PUSH1 0x20 ADD PUSH1 0x0 KECCAK256 PUSH1 0x5 ADD DUP1 SLOAD SWAP1 POP PUSH2 0x154F SWAP2 SWAP1 PUSH2 0x429E JUMP JUMPDEST DUP2 LT ISZERO PUSH2 0x1755 JUMPI PUSH1 0x0 DUP1 DUP6 PUSH20 0xFFFFFFFFFFFFFFFFFFFFFFFFFFFFFFFFFFFFFFFF AND PUSH20 0xFFFFFFFFFFFFFFFFFFFFFFFFFFFFFFFFFFFFFFFF AND DUP2 MSTORE PUSH1 0x20 ADD SWAP1 DUP2 MSTORE PUSH1 0x20 ADD PUSH1 0x0 KECCAK256 PUSH1 0x5 ADD PUSH1 0x1 DUP3 PUSH2 0x15A4 SWAP2 SWAP1 PUSH2 0x42D2 JUMP JUMPDEST DUP2 SLOAD DUP2 LT PUSH2 0x15B5 JUMPI PUSH2 0x15B4 PUSH2 0x418A JUMP JUMPDEST JUMPDEST SWAP1 PUSH1 0x0 MSTORE PUSH1 0x20 PUSH1 0x0 KECCAK256 SWAP1 PUSH1 0x7 MUL ADD PUSH1 0x0 DUP1 DUP7 PUSH20 0xFFFFFFFFFFFFFFFFFFFFFFFFFFFFFFFFFFFFFFFF AND PUSH20 0xFFFFFFFFFFFFFFFFFFFFFFFFFFFFFFFFFFFFFFFF AND DUP2 MSTORE PUSH1 0x20 ADD SWAP1 DUP2 MSTORE PUSH1 0x20 ADD PUSH1 0x0 KECCAK256 PUSH1 0x5 ADD DUP3 DUP2 SLOAD DUP2 LT PUSH2 0x1616 JUMPI PUSH2 0x1615 PUSH2 0x418A JUMP JUMPDEST JUMPDEST SWAP1 PUSH1 0x0 MSTORE PUSH1 0x20 PUSH1 0x0 KECCAK256 SWAP1 PUSH1 0x7 MUL ADD PUSH1 0x0 DUP3 ADD DUP2 PUSH1 0x0 ADD SWAP1 DUP2 PUSH2 0x1638 SWAP2 SWAP1 PUSH2 0x431C JUMP JUMPDEST POP PUSH1 0x1 DUP3 ADD DUP2 PUSH1 0x1 ADD SWAP1 DUP2 PUSH2 0x164D SWAP2 SWAP1 PUSH2 0x431C JUMP JUMPDEST POP PUSH1 0x2 DUP3 ADD SLOAD DUP2 PUSH1 0x2 ADD SSTORE PUSH1 0x3 DUP3 ADD SLOAD DUP2 PUSH1 0x3 ADD SSTORE PUSH1 0x4 DUP3 ADD PUSH1 0x0 SWAP1 SLOAD SWAP1 PUSH2 0x100 EXP SWAP1 DIV PUSH20 0xFFFFFFFFFFFFFFFFFFFFFFFFFFFFFFFFFFFFFFFF AND DUP2 PUSH1 0x4 ADD PUSH1 0x0 PUSH2 0x100 EXP DUP2 SLOAD DUP2 PUSH20 0xFFFFFFFFFFFFFFFFFFFFFFFFFFFFFFFFFFFFFFFF MUL NOT AND SWAP1 DUP4 PUSH20 0xFFFFFFFFFFFFFFFFFFFFFFFFFFFFFFFFFFFFFFFF AND MUL OR SWAP1 SSTORE POP PUSH1 0x5 DUP3 ADD PUSH1 0x0 SWAP1 SLOAD SWAP1 PUSH2 0x100 EXP SWAP1 DIV PUSH20 0xFFFFFFFFFFFFFFFFFFFFFFFFFFFFFFFFFFFFFFFF AND DUP2 PUSH1 0x5 ADD PUSH1 0x0 PUSH2 0x100 EXP DUP2 SLOAD DUP2 PUSH20 0xFFFFFFFFFFFFFFFFFFFFFFFFFFFFFFFFFFFFFFFF MUL NOT AND SWAP1 DUP4 PUSH20 0xFFFFFFFFFFFFFFFFFFFFFFFFFFFFFFFFFFFFFFFF AND MUL OR SWAP1 SSTORE POP PUSH1 0x6 DUP3 ADD DUP2 PUSH1 0x6 ADD SWAP1 DUP2 PUSH2 0x1744 SWAP2 SWAP1 PUSH2 0x431C JUMP JUMPDEST POP SWAP1 POP POP DUP1 DUP1 PUSH1 0x1 ADD SWAP2 POP POP PUSH2 0x14FE JUMP JUMPDEST POP PUSH1 0x0 DUP1 DUP5 PUSH20 0xFFFFFFFFFFFFFFFFFFFFFFFFFFFFFFFFFFFFFFFF AND PUSH20 0xFFFFFFFFFFFFFFFFFFFFFFFFFFFFFFFFFFFFFFFF AND DUP2 MSTORE PUSH1 0x20 ADD SWAP1 DUP2 MSTORE PUSH1 0x20 ADD PUSH1 0x0 KECCAK256 PUSH1 0x5 ADD DUP1 SLOAD DUP1 PUSH2 0x17A7 JUMPI PUSH2 0x17A6 PUSH2 0x4404 JUMP JUMPDEST JUMPDEST PUSH1 0x1 SWAP1 SUB DUP2 DUP2 SWAP1 PUSH1 0x0 MSTORE PUSH1 0x20 PUSH1 0x0 KECCAK256 SWAP1 PUSH1 0x7 MUL ADD PUSH1 0x0 DUP1 DUP3 ADD PUSH1 0x0 PUSH2 0x17CC SWAP2 SWAP1 PUSH2 0x3009 JUMP JUMPDEST PUSH1 0x1 DUP3 ADD PUSH1 0x0 PUSH2 0x17DC SWAP2 SWAP1 PUSH2 0x3009 JUMP JUMPDEST PUSH1 0x2 DUP3 ADD PUSH1 0x0 SWAP1 SSTORE PUSH1 0x3 DUP3 ADD PUSH1 0x0 SWAP1 SSTORE PUSH1 0x4 DUP3 ADD PUSH1 0x0 PUSH2 0x100 EXP DUP2 SLOAD SWAP1 PUSH20 0xFFFFFFFFFFFFFFFFFFFFFFFFFFFFFFFFFFFFFFFF MUL NOT AND SWAP1 SSTORE PUSH1 0x5 DUP3 ADD PUSH1 0x0 PUSH2 0x100 EXP DUP2 SLOAD SWAP1 PUSH20 0xFFFFFFFFFFFFFFFFFFFFFFFFFFFFFFFFFFFFFFFF MUL NOT AND SWAP1 SSTORE PUSH1 0x6 DUP3 ADD PUSH1 0x0 PUSH2 0x184A SWAP2 SWAP1 PUSH2 0x3009 JUMP JUMPDEST POP POP SWAP1 SSTORE PUSH2 0x1860 JUMP JUMPDEST DUP1 DUP1 PUSH1 0x1 ADD SWAP2 POP POP PUSH2 0x13F2 JUMP JUMPDEST POP DUP1 PUSH2 0x18A1 JUMPI PUSH1 0x40 MLOAD PUSH32 0x8C379A000000000000000000000000000000000000000000000000000000000 DUP2 MSTORE PUSH1 0x4 ADD PUSH2 0x1898 SWAP1 PUSH2 0x4C34 JUMP JUMPDEST PUSH1 0x40 MLOAD DUP1 SWAP2 SUB SWAP1 REVERT JUMPDEST POP POP POP JUMP JUMPDEST PUSH2 0x18AF DUP2 PUSH2 0x2AD3 JUMP JUMPDEST PUSH2 0x18EE JUMPI PUSH1 0x40 MLOAD PUSH32 0x8C379A000000000000000000000000000000000000000000000000000000000 DUP2 MSTORE PUSH1 0x4 ADD PUSH2 0x18E5 SWAP1 PUSH2 0x416A JUMP JUMPDEST PUSH1 0x40 MLOAD DUP1 SWAP2 SUB SWAP1 REVERT JUMPDEST PUSH1 0x0 DUP1 PUSH1 0x0 DUP4 PUSH20 0xFFFFFFFFFFFFFFFFFFFFFFFFFFFFFFFFFFFFFFFF AND PUSH20 0xFFFFFFFFFFFFFFFFFFFFFFFFFFFFFFFFFFFFFFFF AND DUP2 MSTORE PUSH1 0x20 ADD SWAP1 DUP2 MSTORE PUSH1 0x20 ADD PUSH1 0x0 KECCAK256 PUSH1 0x0 ADD SWAP1 POP PUSH1 0x0 DUP2 SWAP1 POP PUSH1 0x0 PUSH1 0x1 SWAP1 POP JUMPDEST DUP6 MLOAD DUP2 LT ISZERO PUSH2 0x1AA7 JUMPI PUSH1 0x0 DUP1 JUMPDEST DUP5 PUSH1 0x4 ADD DUP1 SLOAD SWAP1 POP DUP2 LT ISZERO PUSH2 0x1A2D JUMPI DUP8 DUP4 DUP2 MLOAD DUP2 LT PUSH2 0x196E JUMPI PUSH2 0x196D PUSH2 0x418A JUMP JUMPDEST JUMPDEST PUSH1 0x20 MUL PUSH1 0x20 ADD ADD MLOAD PUSH1 0x40 MLOAD PUSH1 0x20 ADD PUSH2 0x1986 SWAP2 SWAP1 PUSH2 0x41EA JUMP JUMPDEST PUSH1 0x40 MLOAD PUSH1 0x20 DUP2 DUP4 SUB SUB DUP2 MSTORE SWAP1 PUSH1 0x40 MSTORE DUP1 MLOAD SWAP1 PUSH1 0x20 ADD KECCAK256 DUP6 PUSH1 0x4 ADD DUP3 DUP2 SLOAD DUP2 LT PUSH2 0x19B2 JUMPI PUSH2 0x19B1 PUSH2 0x418A JUMP JUMPDEST JUMPDEST SWAP1 PUSH1 0x0 MSTORE PUSH1 0x20 PUSH1 0x0 KECCAK256 SWAP1 PUSH1 0x5 MUL ADD PUSH1 0x0 ADD PUSH1 0x40 MLOAD PUSH1 0x20 ADD PUSH2 0x19D3 SWAP2 SWAP1 PUSH2 0x3E32 JUMP JUMPDEST PUSH1 0x40 MLOAD PUSH1 0x20 DUP2 DUP4 SUB SUB DUP2 MSTORE SWAP1 PUSH1 0x40 MSTORE DUP1 MLOAD SWAP1 PUSH1 0x20 ADD KECCAK256 SUB PUSH2 0x1A20 JUMPI DUP5 SWAP4 POP DUP5 PUSH1 0x4 ADD DUP2 DUP2 SLOAD DUP2 LT PUSH2 0x1A07 JUMPI PUSH2 0x1A06 PUSH2 0x418A JUMP JUMPDEST JUMPDEST SWAP1 PUSH1 0x0 MSTORE PUSH1 0x20 PUSH1 0x0 KECCAK256 SWAP1 PUSH1 0x5 MUL ADD SWAP5 POP PUSH1 0x1 SWAP2 POP PUSH2 0x1A2D JUMP JUMPDEST DUP1 DUP1 PUSH1 0x1 ADD SWAP2 POP POP PUSH2 0x194C JUMP JUMPDEST POP DUP1 PUSH2 0x1A38 DUP4 PUSH2 0x2B7C JUMP JUMPDEST PUSH1 0x40 MLOAD PUSH1 0x20 ADD PUSH2 0x1A48 SWAP2 SWAP1 PUSH2 0x424D JUMP JUMPDEST PUSH1 0x40 MLOAD PUSH1 0x20 DUP2 DUP4 SUB SUB DUP2 MSTORE SWAP1 PUSH1 0x40 MSTORE SWAP1 PUSH2 0x1A98 JUMPI PUSH1 0x40 MLOAD PUSH32 0x8C379A000000000000000000000000000000000000000000000000000000000 DUP2 MSTORE PUSH1 0x4 ADD PUSH2 0x1A8F SWAP2 SWAP1 PUSH2 0x3857 JUMP JUMPDEST PUSH1 0x40 MLOAD DUP1 SWAP2 SUB SWAP1 REVERT JUMPDEST POP POP DUP1 DUP1 PUSH1 0x1 ADD SWAP2 POP POP PUSH2 0x193F JUMP JUMPDEST POP PUSH1 0x0 DUP1 JUMPDEST DUP3 PUSH1 0x4 ADD DUP1 SLOAD SWAP1 POP DUP2 LT ISZERO PUSH2 0x1D10 JUMPI DUP6 PUSH1 0x40 MLOAD PUSH1 0x20 ADD PUSH2 0x1ACC SWAP2 SWAP1 PUSH2 0x41EA JUMP JUMPDEST PUSH1 0x40 MLOAD PUSH1 0x20 DUP2 DUP4 SUB SUB DUP2 MSTORE SWAP1 PUSH1 0x40 MSTORE DUP1 MLOAD SWAP1 PUSH1 0x20 ADD KECCAK256 DUP4 PUSH1 0x4 ADD DUP3 DUP2 SLOAD DUP2 LT PUSH2 0x1AF8 JUMPI PUSH2 0x1AF7 PUSH2 0x418A JUMP JUMPDEST JUMPDEST SWAP1 PUSH1 0x0 MSTORE PUSH1 0x20 PUSH1 0x0 KECCAK256 SWAP1 PUSH1 0x5 MUL ADD PUSH1 0x0 ADD PUSH1 0x40 MLOAD PUSH1 0x20 ADD PUSH2 0x1B19 SWAP2 SWAP1 PUSH2 0x3E32 JUMP JUMPDEST PUSH1 0x40 MLOAD PUSH1 0x20 DUP2 DUP4 SUB SUB DUP2 MSTORE SWAP1 PUSH1 0x40 MSTORE DUP1 MLOAD SWAP1 PUSH1 0x20 ADD KECCAK256 SUB PUSH2 0x1D03 JUMPI PUSH1 0x1 SWAP2 POP PUSH1 0x0 DUP2 SWAP1 POP JUMPDEST PUSH1 0x1 DUP5 PUSH1 0x4 ADD DUP1 SLOAD SWAP1 POP PUSH2 0x1B52 SWAP2 SWAP1 PUSH2 0x429E JUMP JUMPDEST DUP2 LT ISZERO PUSH2 0x1C71 JUMPI DUP4 PUSH1 0x4 ADD PUSH1 0x1 DUP3 PUSH2 0x1B6A SWAP2 SWAP1 PUSH2 0x42D2 JUMP JUMPDEST DUP2 SLOAD DUP2 LT PUSH2 0x1B7B JUMPI PUSH2 0x1B7A PUSH2 0x418A JUMP JUMPDEST JUMPDEST SWAP1 PUSH1 0x0 MSTORE PUSH1 0x20 PUSH1 0x0 KECCAK256 SWAP1 PUSH1 0x5 MUL ADD DUP5 PUSH1 0x4 ADD DUP3 DUP2 SLOAD DUP2 LT PUSH2 0x1B9F JUMPI PUSH2 0x1B9E PUSH2 0x418A JUMP JUMPDEST JUMPDEST SWAP1 PUSH1 0x0 MSTORE PUSH1 0x20 PUSH1 0x0 KECCAK256 SWAP1 PUSH1 0x5 MUL ADD PUSH1 0x0 DUP3 ADD DUP2 PUSH1 0x0 ADD SWAP1 DUP2 PUSH2 0x1BC1 SWAP2 SWAP1 PUSH2 0x431C JUMP JUMPDEST POP PUSH1 0x1 DUP3 ADD PUSH1 0x0 SWAP1 SLOAD SWAP1 PUSH2 0x100 EXP SWAP1 DIV PUSH20 0xFFFFFFFFFFFFFFFFFFFFFFFFFFFFFFFFFFFFFFFF AND DUP2 PUSH1 0x1 ADD PUSH1 0x0 PUSH2 0x100 EXP DUP2 SLOAD DUP2 PUSH20 0xFFFFFFFFFFFFFFFFFFFFFFFFFFFFFFFFFFFFFFFF MUL NOT AND SWAP1 DUP4 PUSH20 0xFFFFFFFFFFFFFFFFFFFFFFFFFFFFFFFFFFFFFFFF AND MUL OR SWAP1 SSTORE POP PUSH1 0x2 DUP3 ADD SLOAD DUP2 PUSH1 0x2 ADD SSTORE PUSH1 0x3 DUP3 ADD DUP2 PUSH1 0x3 ADD SWAP1 DUP1 SLOAD PUSH2 0x1C49 SWAP3 SWAP2 SWAP1 PUSH2 0x3049 JUMP JUMPDEST POP PUSH1 0x4 DUP3 ADD DUP2 PUSH1 0x4 ADD SWAP1 DUP1 SLOAD PUSH2 0x1C60 SWAP3 SWAP2 SWAP1 PUSH2 0x315B JUMP JUMPDEST POP SWAP1 POP POP DUP1 DUP1 PUSH1 0x1 ADD SWAP2 POP POP PUSH2 0x1B3E JUMP JUMPDEST POP DUP3 PUSH1 0x4 ADD DUP1 SLOAD DUP1 PUSH2 0x1C86 JUMPI PUSH2 0x1C85 PUSH2 0x4404 JUMP JUMPDEST JUMPDEST PUSH1 0x1 SWAP1 SUB DUP2 DUP2 SWAP1 PUSH1 0x0 MSTORE PUSH1 0x20 PUSH1 0x0 KECCAK256 SWAP1 PUSH1 0x5 MUL ADD PUSH1 0x0 DUP1 DUP3 ADD PUSH1 0x0 PUSH2 0x1CAB SWAP2 SWAP1 PUSH2 0x3009 JUMP JUMPDEST PUSH1 0x1 DUP3 ADD PUSH1 0x0 PUSH2 0x100 EXP DUP2 SLOAD SWAP1 PUSH20 0xFFFFFFFFFFFFFFFFFFFFFFFFFFFFFFFFFFFFFFFF MUL NOT AND SWAP1 SSTORE PUSH1 0x2 DUP3 ADD PUSH1 0x0 SWAP1 SSTORE PUSH1 0x3 DUP3 ADD PUSH1 0x0 PUSH2 0x1CEA SWAP2 SWAP1 PUSH2 0x3267 JUMP JUMPDEST PUSH1 0x4 DUP3 ADD PUSH1 0x0 PUSH2 0x1CFA SWAP2 SWAP1 PUSH2 0x328B JUMP JUMPDEST POP POP SWAP1 SSTORE PUSH2 0x1D10 JUMP JUMPDEST DUP1 DUP1 PUSH1 0x1 ADD SWAP2 POP POP PUSH2 0x1AAC JUMP JUMPDEST POP DUP1 PUSH2 0x1D51 JUMPI PUSH1 0x40 MLOAD PUSH32 0x8C379A000000000000000000000000000000000000000000000000000000000 DUP2 MSTORE PUSH1 0x4 ADD PUSH2 0x1D48 SWAP1 PUSH2 0x4CA0 JUMP JUMPDEST PUSH1 0x40 MLOAD DUP1 SWAP2 SUB SWAP1 REVERT JUMPDEST POP POP POP POP POP POP JUMP JUMPDEST PUSH2 0x1D62 DUP2 PUSH2 0x2AD3 JUMP JUMPDEST PUSH2 0x1DA1 JUMPI PUSH1 0x40 MLOAD PUSH32 0x8C379A000000000000000000000000000000000000000000000000000000000 DUP2 MSTORE PUSH1 0x4 ADD PUSH2 0x1D98 SWAP1 PUSH2 0x416A JUMP JUMPDEST PUSH1 0x40 MLOAD DUP1 SWAP2 SUB SWAP1 REVERT JUMPDEST PUSH1 0x0 DUP1 PUSH1 0x0 DUP4 PUSH20 0xFFFFFFFFFFFFFFFFFFFFFFFFFFFFFFFFFFFFFFFF AND PUSH20 0xFFFFFFFFFFFFFFFFFFFFFFFFFFFFFFFFFFFFFFFF AND DUP2 MSTORE PUSH1 0x20 ADD SWAP1 DUP2 MSTORE PUSH1 0x20 ADD PUSH1 0x0 KECCAK256 PUSH1 0x0 ADD SWAP1 POP PUSH1 0x0 PUSH1 0x1 SWAP1 POP JUMPDEST DUP5 MLOAD DUP2 LT ISZERO PUSH2 0x1F52 JUMPI PUSH1 0x0 DUP1 JUMPDEST DUP4 PUSH1 0x4 ADD DUP1 SLOAD SWAP1 POP DUP2 LT ISZERO PUSH2 0x1ED8 JUMPI DUP7 DUP4 DUP2 MLOAD DUP2 LT PUSH2 0x1E1C JUMPI PUSH2 0x1E1B PUSH2 0x418A JUMP JUMPDEST JUMPDEST PUSH1 0x20 MUL PUSH1 0x20 ADD ADD MLOAD PUSH1 0x40 MLOAD PUSH1 0x20 ADD PUSH2 0x1E34 SWAP2 SWAP1 PUSH2 0x41EA JUMP JUMPDEST PUSH1 0x40 MLOAD PUSH1 0x20 DUP2 DUP4 SUB SUB DUP2 MSTORE SWAP1 PUSH1 0x40 MSTORE DUP1 MLOAD SWAP1 PUSH1 0x20 ADD KECCAK256 DUP5 PUSH1 0x4 ADD DUP3 DUP2 SLOAD DUP2 LT PUSH2 0x1E60 JUMPI PUSH2 0x1E5F PUSH2 0x418A JUMP JUMPDEST JUMPDEST SWAP1 PUSH1 0x0 MSTORE PUSH1 0x20 PUSH1 0x0 KECCAK256 SWAP1 PUSH1 0x5 MUL ADD PUSH1 0x0 ADD PUSH1 0x40 MLOAD PUSH1 0x20 ADD PUSH2 0x1E81 SWAP2 SWAP1 PUSH2 0x3E32 JUMP JUMPDEST PUSH1 0x40 MLOAD PUSH1 0x20 DUP2 DUP4 SUB SUB DUP2 MSTORE SWAP1 PUSH1 0x40 MSTORE DUP1 MLOAD SWAP1 PUSH1 0x20 ADD KECCAK256 SUB PUSH2 0x1ECB JUMPI DUP4 PUSH1 0x4 ADD DUP2 DUP2 SLOAD DUP2 LT PUSH2 0x1EB2 JUMPI PUSH2 0x1EB1 PUSH2 0x418A JUMP JUMPDEST JUMPDEST SWAP1 PUSH1 0x0 MSTORE PUSH1 0x20 PUSH1 0x0 KECCAK256 SWAP1 PUSH1 0x5 MUL ADD SWAP4 POP PUSH1 0x1 SWAP2 POP PUSH2 0x1ED8 JUMP JUMPDEST DUP1 DUP1 PUSH1 0x1 ADD SWAP2 POP POP PUSH2 0x1DFA JUMP JUMPDEST POP DUP1 PUSH2 0x1EE3 DUP4 PUSH2 0x2B7C JUMP JUMPDEST PUSH1 0x40 MLOAD PUSH1 0x20 ADD PUSH2 0x1EF3 SWAP2 SWAP1 PUSH2 0x424D JUMP JUMPDEST PUSH1 0x40 MLOAD PUSH1 0x20 DUP2 DUP4 SUB SUB DUP2 MSTORE SWAP1 PUSH1 0x40 MSTORE SWAP1 PUSH2 0x1F43 JUMPI PUSH1 0x40 MLOAD PUSH32 0x8C379A000000000000000000000000000000000000000000000000000000000 DUP2 MSTORE PUSH1 0x4 ADD PUSH2 0x1F3A SWAP2 SWAP1 PUSH2 0x3857 JUMP JUMPDEST PUSH1 0x40 MLOAD DUP1 SWAP2 SUB SWAP1 REVERT JUMPDEST POP POP DUP1 DUP1 PUSH1 0x1 ADD SWAP2 POP POP PUSH2 0x1DED JUMP JUMPDEST POP PUSH1 0x0 JUMPDEST DUP4 MLOAD DUP2 LT ISZERO PUSH2 0x20F3 JUMPI DUP2 PUSH1 0x3 ADD PUSH1 0x40 MLOAD DUP1 PUSH1 0xC0 ADD PUSH1 0x40 MSTORE DUP1 DUP7 DUP5 DUP2 MLOAD DUP2 LT PUSH2 0x1F81 JUMPI PUSH2 0x1F80 PUSH2 0x418A JUMP JUMPDEST JUMPDEST PUSH1 0x20 MUL PUSH1 0x20 ADD ADD MLOAD PUSH1 0x0 ADD MLOAD DUP2 MSTORE PUSH1 0x20 ADD DUP7 DUP5 DUP2 MLOAD DUP2 LT PUSH2 0x1FA5 JUMPI PUSH2 0x1FA4 PUSH2 0x418A JUMP JUMPDEST JUMPDEST PUSH1 0x20 MUL PUSH1 0x20 ADD ADD MLOAD PUSH1 0x20 ADD MLOAD DUP2 MSTORE PUSH1 0x20 ADD DUP7 DUP5 DUP2 MLOAD DUP2 LT PUSH2 0x1FC9 JUMPI PUSH2 0x1FC8 PUSH2 0x418A JUMP JUMPDEST JUMPDEST PUSH1 0x20 MUL PUSH1 0x20 ADD ADD MLOAD PUSH1 0x40 ADD MLOAD DUP2 MSTORE PUSH1 0x20 ADD TIMESTAMP DUP2 MSTORE PUSH1 0x20 ADD DUP6 PUSH20 0xFFFFFFFFFFFFFFFFFFFFFFFFFFFFFFFFFFFFFFFF AND DUP2 MSTORE PUSH1 0x20 ADD DUP7 DUP5 DUP2 MLOAD DUP2 LT PUSH2 0x200F JUMPI PUSH2 0x200E PUSH2 0x418A JUMP JUMPDEST JUMPDEST PUSH1 0x20 MUL PUSH1 0x20 ADD ADD MLOAD PUSH1 0x60 ADD MLOAD DUP2 MSTORE POP SWAP1 DUP1 PUSH1 0x1 DUP2 SLOAD ADD DUP1 DUP3 SSTORE DUP1 SWAP2 POP POP PUSH1 0x1 SWAP1 SUB SWAP1 PUSH1 0x0 MSTORE PUSH1 0x20 PUSH1 0x0 KECCAK256 SWAP1 PUSH1 0x6 MUL ADD PUSH1 0x0 SWAP1 SWAP2 SWAP1 SWAP2 SWAP1 SWAP2 POP PUSH1 0x0 DUP3 ADD MLOAD DUP2 PUSH1 0x0 ADD SWAP1 DUP2 PUSH2 0x205C SWAP2 SWAP1 PUSH2 0x404C JUMP JUMPDEST POP PUSH1 0x20 DUP3 ADD MLOAD DUP2 PUSH1 0x1 ADD SWAP1 DUP2 PUSH2 0x2072 SWAP2 SWAP1 PUSH2 0x404C JUMP JUMPDEST POP PUSH1 0x40 DUP3 ADD MLOAD DUP2 PUSH1 0x2 ADD SSTORE PUSH1 0x60 DUP3 ADD MLOAD DUP2 PUSH1 0x3 ADD SSTORE PUSH1 0x80 DUP3 ADD MLOAD DUP2 PUSH1 0x4 ADD PUSH1 0x0 PUSH2 0x100 EXP DUP2 SLOAD DUP2 PUSH20 0xFFFFFFFFFFFFFFFFFFFFFFFFFFFFFFFFFFFFFFFF MUL NOT AND SWAP1 DUP4 PUSH20 0xFFFFFFFFFFFFFFFFFFFFFFFFFFFFFFFFFFFFFFFF AND MUL OR SWAP1 SSTORE POP PUSH1 0xA0 DUP3 ADD MLOAD DUP2 PUSH1 0x5 ADD SWAP1 DUP2 PUSH2 0x20E3 SWAP2 SWAP1 PUSH2 0x404C JUMP JUMPDEST POP POP POP DUP1 DUP1 PUSH1 0x1 ADD SWAP2 POP POP PUSH2 0x1F56 JUMP JUMPDEST POP POP POP POP POP JUMP JUMPDEST PUSH1 0x60 PUSH2 0x2105 DUP3 PUSH2 0x2AD3 JUMP JUMPDEST PUSH2 0x2144 JUMPI PUSH1 0x40 MLOAD PUSH32 0x8C379A000000000000000000000000000000000000000000000000000000000 DUP2 MSTORE PUSH1 0x4 ADD PUSH2 0x213B SWAP1 PUSH2 0x416A JUMP JUMPDEST PUSH1 0x40 MLOAD DUP1 SWAP2 SUB SWAP1 REVERT JUMPDEST PUSH1 0x0 DUP1 PUSH1 0x0 DUP5 PUSH20 0xFFFFFFFFFFFFFFFFFFFFFFFFFFFFFFFFFFFFFFFF AND PUSH20 0xFFFFFFFFFFFFFFFFFFFFFFFFFFFFFFFFFFFFFFFF AND DUP2 MSTORE PUSH1 0x20 ADD SWAP1 DUP2 MSTORE PUSH1 0x20 ADD PUSH1 0x0 KECCAK256 PUSH1 0x6 ADD SWAP1 POP PUSH1 0x0 DUP1 PUSH1 0x0 DUP6 PUSH20 0xFFFFFFFFFFFFFFFFFFFFFFFFFFFFFFFFFFFFFFFF AND PUSH20 0xFFFFFFFFFFFFFFFFFFFFFFFFFFFFFFFFFFFFFFFF AND DUP2 MSTORE PUSH1 0x20 ADD SWAP1 DUP2 MSTORE PUSH1 0x20 ADD PUSH1 0x0 KECCAK256 PUSH1 0x5 ADD SWAP1 POP PUSH1 0x0 PUSH1 0x40 MLOAD DUP1 PUSH1 0x40 ADD PUSH1 0x40 MSTORE DUP1 PUSH1 0x1 DUP2 MSTORE PUSH1 0x20 ADD PUSH32 0x5B00000000000000000000000000000000000000000000000000000000000000 DUP2 MSTORE POP SWAP1 POP PUSH1 0x0 JUMPDEST DUP4 DUP1 SLOAD SWAP1 POP DUP2 LT ISZERO PUSH2 0x2345 JUMPI PUSH1 0x0 DUP5 DUP3 DUP2 SLOAD DUP2 LT PUSH2 0x222C JUMPI PUSH2 0x222B PUSH2 0x418A JUMP JUMPDEST JUMPDEST SWAP1 PUSH1 0x0 MSTORE PUSH1 0x20 PUSH1 0x0 KECCAK256 SWAP1 PUSH1 0x7 MUL ADD SWAP1 POP PUSH1 0x0 DUP2 PUSH1 0x0 ADD PUSH2 0x226F DUP4 PUSH1 0x4 ADD PUSH1 0x0 SWAP1 SLOAD SWAP1 PUSH2 0x100 EXP SWAP1 DIV PUSH20 0xFFFFFFFFFFFFFFFFFFFFFFFFFFFFFFFFFFFFFFFF AND PUSH2 0x2D04 JUMP JUMPDEST PUSH2 0x227C DUP5 PUSH1 0x3 ADD SLOAD PUSH2 0x2B7C JUMP JUMPDEST PUSH2 0x22A9 DUP6 PUSH1 0x5 ADD PUSH1 0x0 SWAP1 SLOAD SWAP1 PUSH2 0x100 EXP SWAP1 DIV PUSH20 0xFFFFFFFFFFFFFFFFFFFFFFFFFFFFFFFFFFFFFFFF AND PUSH2 0x2D04 JUMP JUMPDEST DUP6 PUSH1 0x1 ADD DUP7 PUSH1 0x6 ADD PUSH1 0x40 MLOAD PUSH1 0x20 ADD PUSH2 0x22C6 SWAP7 SWAP6 SWAP5 SWAP4 SWAP3 SWAP2 SWAP1 PUSH2 0x4D0C JUMP JUMPDEST PUSH1 0x40 MLOAD PUSH1 0x20 DUP2 DUP4 SUB SUB DUP2 MSTORE SWAP1 PUSH1 0x40 MSTORE SWAP1 POP DUP4 DUP2 PUSH1 0x40 MLOAD PUSH1 0x20 ADD PUSH2 0x22EA SWAP3 SWAP2 SWAP1 PUSH2 0x4DB1 JUMP JUMPDEST PUSH1 0x40 MLOAD PUSH1 0x20 DUP2 DUP4 SUB SUB DUP2 MSTORE SWAP1 PUSH1 0x40 MSTORE SWAP4 POP PUSH1 0x1 DUP7 DUP1 SLOAD SWAP1 POP PUSH2 0x230C SWAP2 SWAP1 PUSH2 0x429E JUMP JUMPDEST DUP4 LT ISZERO PUSH2 0x2336 JUMPI DUP4 PUSH1 0x40 MLOAD PUSH1 0x20 ADD PUSH2 0x2324 SWAP2 SWAP1 PUSH2 0x49EC JUMP JUMPDEST PUSH1 0x40 MLOAD PUSH1 0x20 DUP2 DUP4 SUB SUB DUP2 MSTORE SWAP1 PUSH1 0x40 MSTORE SWAP4 POP JUMPDEST POP POP DUP1 DUP1 PUSH1 0x1 ADD SWAP2 POP POP PUSH2 0x220B JUMP JUMPDEST POP DUP1 PUSH1 0x40 MLOAD PUSH1 0x20 ADD PUSH2 0x2357 SWAP2 SWAP1 PUSH2 0x4A5A JUMP JUMPDEST PUSH1 0x40 MLOAD PUSH1 0x20 DUP2 DUP4 SUB SUB DUP2 MSTORE SWAP1 PUSH1 0x40 MSTORE SWAP1 POP PUSH1 0x0 PUSH1 0x40 MLOAD DUP1 PUSH1 0x40 ADD PUSH1 0x40 MSTORE DUP1 PUSH1 0x1 DUP2 MSTORE PUSH1 0x20 ADD PUSH32 0x5B00000000000000000000000000000000000000000000000000000000000000 DUP2 MSTORE POP SWAP1 POP PUSH1 0x0 JUMPDEST DUP4 DUP1 SLOAD SWAP1 POP DUP2 LT ISZERO PUSH2 0x24DF JUMPI PUSH1 0x0 DUP5 DUP3 DUP2 SLOAD DUP2 LT PUSH2 0x23C6 JUMPI PUSH2 0x23C5 PUSH2 0x418A JUMP JUMPDEST JUMPDEST SWAP1 PUSH1 0x0 MSTORE PUSH1 0x20 PUSH1 0x0 KECCAK256 SWAP1 PUSH1 0x7 MUL ADD SWAP1 POP PUSH1 0x0 DUP2 PUSH1 0x0 ADD PUSH2 0x2409 DUP4 PUSH1 0x4 ADD PUSH1 0x0 SWAP1 SLOAD SWAP1 PUSH2 0x100 EXP SWAP1 DIV PUSH20 0xFFFFFFFFFFFFFFFFFFFFFFFFFFFFFFFFFFFFFFFF AND PUSH2 0x2D04 JUMP JUMPDEST PUSH2 0x2416 DUP5 PUSH1 0x3 ADD SLOAD PUSH2 0x2B7C JUMP JUMPDEST PUSH2 0x2443 DUP6 PUSH1 0x5 ADD PUSH1 0x0 SWAP1 SLOAD SWAP1 PUSH2 0x100 EXP SWAP1 DIV PUSH20 0xFFFFFFFFFFFFFFFFFFFFFFFFFFFFFFFFFFFFFFFF AND PUSH2 0x2D04 JUMP JUMPDEST DUP6 PUSH1 0x1 ADD DUP7 PUSH1 0x6 ADD PUSH1 0x40 MLOAD PUSH1 0x20 ADD PUSH2 0x2460 SWAP7 SWAP6 SWAP5 SWAP4 SWAP3 SWAP2 SWAP1 PUSH2 0x4D0C JUMP JUMPDEST PUSH1 0x40 MLOAD PUSH1 0x20 DUP2 DUP4 SUB SUB DUP2 MSTORE SWAP1 PUSH1 0x40 MSTORE SWAP1 POP DUP4 DUP2 PUSH1 0x40 MLOAD PUSH1 0x20 ADD PUSH2 0x2484 SWAP3 SWAP2 SWAP1 PUSH2 0x4DB1 JUMP JUMPDEST PUSH1 0x40 MLOAD PUSH1 0x20 DUP2 DUP4 SUB SUB DUP2 MSTORE SWAP1 PUSH1 0x40 MSTORE SWAP4 POP PUSH1 0x1 DUP7 DUP1 SLOAD SWAP1 POP PUSH2 0x24A6 SWAP2 SWAP1 PUSH2 0x429E JUMP JUMPDEST DUP4 LT ISZERO PUSH2 0x24D0 JUMPI DUP4 PUSH1 0x40 MLOAD PUSH1 0x20 ADD PUSH2 0x24BE SWAP2 SWAP1 PUSH2 0x49EC JUMP JUMPDEST PUSH1 0x40 MLOAD PUSH1 0x20 DUP2 DUP4 SUB SUB DUP2 MSTORE SWAP1 PUSH1 0x40 MSTORE SWAP4 POP JUMPDEST POP POP DUP1 DUP1 PUSH1 0x1 ADD SWAP2 POP POP PUSH2 0x23A5 JUMP JUMPDEST POP DUP1 PUSH1 0x40 MLOAD PUSH1 0x20 ADD PUSH2 0x24F1 SWAP2 SWAP1 PUSH2 0x4A5A JUMP JUMPDEST PUSH1 0x40 MLOAD PUSH1 0x20 DUP2 DUP4 SUB SUB DUP2 MSTORE SWAP1 PUSH1 0x40 MSTORE SWAP1 POP PUSH1 0x0 DUP3 DUP3 PUSH1 0x40 MLOAD PUSH1 0x20 ADD PUSH2 0x2517 SWAP3 SWAP2 SWAP1 PUSH2 0x4E6D JUMP JUMPDEST PUSH1 0x40 MLOAD PUSH1 0x20 DUP2 DUP4 SUB SUB DUP2 MSTORE SWAP1 PUSH1 0x40 MSTORE SWAP1 POP DUP1 SWAP6 POP POP POP POP POP POP SWAP2 SWAP1 POP JUMP JUMPDEST PUSH1 0x0 PUSH1 0x40 MLOAD DUP1 PUSH1 0xE0 ADD PUSH1 0x40 MSTORE DUP1 DUP8 DUP2 MSTORE PUSH1 0x20 ADD DUP7 DUP2 MSTORE PUSH1 0x20 ADD DUP6 DUP2 MSTORE PUSH1 0x20 ADD DUP5 DUP2 MSTORE PUSH1 0x20 ADD DUP10 PUSH20 0xFFFFFFFFFFFFFFFFFFFFFFFFFFFFFFFFFFFFFFFF AND DUP2 MSTORE PUSH1 0x20 ADD DUP9 PUSH20 0xFFFFFFFFFFFFFFFFFFFFFFFFFFFFFFFFFFFFFFFF AND DUP2 MSTORE PUSH1 0x20 ADD DUP4 DUP2 MSTORE POP SWAP1 POP PUSH1 0x0 DUP1 DUP10 PUSH20 0xFFFFFFFFFFFFFFFFFFFFFFFFFFFFFFFFFFFFFFFF AND PUSH20 0xFFFFFFFFFFFFFFFFFFFFFFFFFFFFFFFFFFFFFFFF AND DUP2 MSTORE PUSH1 0x20 ADD SWAP1 DUP2 MSTORE PUSH1 0x20 ADD PUSH1 0x0 KECCAK256 PUSH1 0x6 ADD DUP2 SWAP1 DUP1 PUSH1 0x1 DUP2 SLOAD ADD DUP1 DUP3 SSTORE DUP1 SWAP2 POP POP PUSH1 0x1 SWAP1 SUB SWAP1 PUSH1 0x0 MSTORE PUSH1 0x20 PUSH1 0x0 KECCAK256 SWAP1 PUSH1 0x7 MUL ADD PUSH1 0x0 SWAP1 SWAP2 SWAP1 SWAP2 SWAP1 SWAP2 POP PUSH1 0x0 DUP3 ADD MLOAD DUP2 PUSH1 0x0 ADD SWAP1 DUP2 PUSH2 0x2618 SWAP2 SWAP1 PUSH2 0x404C JUMP JUMPDEST POP PUSH1 0x20 DUP3 ADD MLOAD DUP2 PUSH1 0x1 ADD SWAP1 DUP2 PUSH2 0x262E SWAP2 SWAP1 PUSH2 0x404C JUMP JUMPDEST POP PUSH1 0x40 DUP3 ADD MLOAD DUP2 PUSH1 0x2 ADD SSTORE PUSH1 0x60 DUP3 ADD MLOAD DUP2 PUSH1 0x3 ADD SSTORE PUSH1 0x80 DUP3 ADD MLOAD DUP2 PUSH1 0x4 ADD PUSH1 0x0 PUSH2 0x100 EXP DUP2 SLOAD DUP2 PUSH20 0xFFFFFFFFFFFFFFFFFFFFFFFFFFFFFFFFFFFFFFFF MUL NOT AND SWAP1 DUP4 PUSH20 0xFFFFFFFFFFFFFFFFFFFFFFFFFFFFFFFFFFFFFFFF AND MUL OR SWAP1 SSTORE POP PUSH1 0xA0 DUP3 ADD MLOAD DUP2 PUSH1 0x5 ADD PUSH1 0x0 PUSH2 0x100 EXP DUP2 SLOAD DUP2 PUSH20 0xFFFFFFFFFFFFFFFFFFFFFFFFFFFFFFFFFFFFFFFF MUL NOT AND SWAP1 DUP4 PUSH20 0xFFFFFFFFFFFFFFFFFFFFFFFFFFFFFFFFFFFFFFFF AND MUL OR SWAP1 SSTORE POP PUSH1 0xC0 DUP3 ADD MLOAD DUP2 PUSH1 0x6 ADD SWAP1 DUP2 PUSH2 0x26E6 SWAP2 SWAP1 PUSH2 0x404C JUMP JUMPDEST POP POP POP PUSH1 0x0 DUP1 DUP9 PUSH20 0xFFFFFFFFFFFFFFFFFFFFFFFFFFFFFFFFFFFFFFFF AND PUSH20 0xFFFFFFFFFFFFFFFFFFFFFFFFFFFFFFFFFFFFFFFF AND DUP2 MSTORE PUSH1 0x20 ADD SWAP1 DUP2 MSTORE PUSH1 0x20 ADD PUSH1 0x0 KECCAK256 PUSH1 0x5 ADD DUP2 SWAP1 DUP1 PUSH1 0x1 DUP2 SLOAD ADD DUP1 DUP3 SSTORE DUP1 SWAP2 POP POP PUSH1 0x1 SWAP1 SUB SWAP1 PUSH1 0x0 MSTORE PUSH1 0x20 PUSH1 0x0 KECCAK256 SWAP1 PUSH1 0x7 MUL ADD PUSH1 0x0 SWAP1 SWAP2 SWAP1 SWAP2 SWAP1 SWAP2 POP PUSH1 0x0 DUP3 ADD MLOAD DUP2 PUSH1 0x0 ADD SWAP1 DUP2 PUSH2 0x2769 SWAP2 SWAP1 PUSH2 0x404C JUMP JUMPDEST POP PUSH1 0x20 DUP3 ADD MLOAD DUP2 PUSH1 0x1 ADD SWAP1 DUP2 PUSH2 0x277F SWAP2 SWAP1 PUSH2 0x404C JUMP JUMPDEST POP PUSH1 0x40 DUP3 ADD MLOAD DUP2 PUSH1 0x2 ADD SSTORE PUSH1 0x60 DUP3 ADD MLOAD DUP2 PUSH1 0x3 ADD SSTORE PUSH1 0x80 DUP3 ADD MLOAD DUP2 PUSH1 0x4 ADD PUSH1 0x0 PUSH2 0x100 EXP DUP2 SLOAD DUP2 PUSH20 0xFFFFFFFFFFFFFFFFFFFFFFFFFFFFFFFFFFFFFFFF MUL NOT AND SWAP1 DUP4 PUSH20 0xFFFFFFFFFFFFFFFFFFFFFFFFFFFFFFFFFFFFFFFF AND MUL OR SWAP1 SSTORE POP PUSH1 0xA0 DUP3 ADD MLOAD DUP2 PUSH1 0x5 ADD PUSH1 0x0 PUSH2 0x100 EXP DUP2 SLOAD DUP2 PUSH20 0xFFFFFFFFFFFFFFFFFFFFFFFFFFFFFFFFFFFFFFFF MUL NOT AND SWAP1 DUP4 PUSH20 0xFFFFFFFFFFFFFFFFFFFFFFFFFFFFFFFFFFFFFFFF AND MUL OR SWAP1 SSTORE POP PUSH1 0xC0 DUP3 ADD MLOAD DUP2 PUSH1 0x6 ADD SWAP1 DUP2 PUSH2 0x2837 SWAP2 SWAP1 PUSH2 0x404C JUMP JUMPDEST POP POP POP POP POP POP POP POP POP POP POP JUMP JUMPDEST PUSH2 0x284D DUP2 PUSH2 0x2AD3 JUMP JUMPDEST PUSH2 0x288C JUMPI PUSH1 0x40 MLOAD PUSH32 0x8C379A000000000000000000000000000000000000000000000000000000000 DUP2 MSTORE PUSH1 0x4 ADD PUSH2 0x2883 SWAP1 PUSH2 0x416A JUMP JUMPDEST PUSH1 0x40 MLOAD DUP1 SWAP2 SUB SWAP1 REVERT JUMPDEST PUSH1 0x0 DUP1 PUSH1 0x0 DUP4 PUSH20 0xFFFFFFFFFFFFFFFFFFFFFFFFFFFFFFFFFFFFFFFF AND PUSH20 0xFFFFFFFFFFFFFFFFFFFFFFFFFFFFFFFFFFFFFFFF AND DUP2 MSTORE PUSH1 0x20 ADD SWAP1 DUP2 MSTORE PUSH1 0x20 ADD PUSH1 0x0 KECCAK256 PUSH1 0x0 ADD SWAP1 POP PUSH1 0x0 PUSH1 0x1 SWAP1 POP JUMPDEST DUP5 MLOAD DUP2 LT ISZERO PUSH2 0x2A12 JUMPI PUSH1 0x0 DUP1 JUMPDEST DUP4 PUSH1 0x4 ADD DUP1 SLOAD SWAP1 POP DUP2 LT ISZERO PUSH2 0x29C3 JUMPI DUP7 DUP4 DUP2 MLOAD DUP2 LT PUSH2 0x2907 JUMPI PUSH2 0x2906 PUSH2 0x418A JUMP JUMPDEST JUMPDEST PUSH1 0x20 MUL PUSH1 0x20 ADD ADD MLOAD PUSH1 0x40 MLOAD PUSH1 0x20 ADD PUSH2 0x291F SWAP2 SWAP1 PUSH2 0x41EA JUMP JUMPDEST PUSH1 0x40 MLOAD PUSH1 0x20 DUP2 DUP4 SUB SUB DUP2 MSTORE SWAP1 PUSH1 0x40 MSTORE DUP1 MLOAD SWAP1 PUSH1 0x20 ADD KECCAK256 DUP5 PUSH1 0x4 ADD DUP3 DUP2 SLOAD DUP2 LT PUSH2 0x294B JUMPI PUSH2 0x294A PUSH2 0x418A JUMP JUMPDEST JUMPDEST SWAP1 PUSH1 0x0 MSTORE PUSH1 0x20 PUSH1 0x0 KECCAK256 SWAP1 PUSH1 0x5 MUL ADD PUSH1 0x0 ADD PUSH1 0x40 MLOAD PUSH1 0x20 ADD PUSH2 0x296C SWAP2 SWAP1 PUSH2 0x3E32 JUMP JUMPDEST PUSH1 0x40 MLOAD PUSH1 0x20 DUP2 DUP4 SUB SUB DUP2 MSTORE SWAP1 PUSH1 0x40 MSTORE DUP1 MLOAD SWAP1 PUSH1 0x20 ADD KECCAK256 SUB PUSH2 0x29B6 JUMPI DUP4 PUSH1 0x4 ADD DUP2 DUP2 SLOAD DUP2 LT PUSH2 0x299D JUMPI PUSH2 0x299C PUSH2 0x418A JUMP JUMPDEST JUMPDEST SWAP1 PUSH1 0x0 MSTORE PUSH1 0x20 PUSH1 0x0 KECCAK256 SWAP1 PUSH1 0x5 MUL ADD SWAP4 POP PUSH1 0x1 SWAP2 POP PUSH2 0x29C3 JUMP JUMPDEST DUP1 DUP1 PUSH1 0x1 ADD SWAP2 POP POP PUSH2 0x28E5 JUMP JUMPDEST POP DUP1 PUSH2 0x2A04 JUMPI PUSH1 0x40 MLOAD PUSH32 0x8C379A000000000000000000000000000000000000000000000000000000000 DUP2 MSTORE PUSH1 0x4 ADD PUSH2 0x29FB SWAP1 PUSH2 0x45A3 JUMP JUMPDEST PUSH1 0x40 MLOAD DUP1 SWAP2 SUB SWAP1 REVERT JUMPDEST POP DUP1 DUP1 PUSH1 0x1 ADD SWAP2 POP POP PUSH2 0x28D8 JUMP JUMPDEST POP DUP1 PUSH1 0x4 ADD PUSH1 0x1 DUP2 PUSH1 0x1 DUP2 SLOAD ADD DUP1 DUP3 SSTORE DUP1 SWAP2 POP POP SUB SWAP1 PUSH1 0x0 MSTORE PUSH1 0x20 PUSH1 0x0 KECCAK256 SWAP1 POP POP PUSH1 0x0 DUP2 PUSH1 0x4 ADD PUSH1 0x1 DUP4 PUSH1 0x4 ADD DUP1 SLOAD SWAP1 POP PUSH2 0x2A4D SWAP2 SWAP1 PUSH2 0x429E JUMP JUMPDEST DUP2 SLOAD DUP2 LT PUSH2 0x2A5E JUMPI PUSH2 0x2A5D PUSH2 0x418A JUMP JUMPDEST JUMPDEST SWAP1 PUSH1 0x0 MSTORE PUSH1 0x20 PUSH1 0x0 KECCAK256 SWAP1 PUSH1 0x5 MUL ADD SWAP1 POP DUP4 DUP2 PUSH1 0x0 ADD SWAP1 DUP2 PUSH2 0x2A7F SWAP2 SWAP1 PUSH2 0x404C JUMP JUMPDEST POP DUP3 DUP2 PUSH1 0x1 ADD PUSH1 0x0 PUSH2 0x100 EXP DUP2 SLOAD DUP2 PUSH20 0xFFFFFFFFFFFFFFFFFFFFFFFFFFFFFFFFFFFFFFFF MUL NOT AND SWAP1 DUP4 PUSH20 0xFFFFFFFFFFFFFFFFFFFFFFFFFFFFFFFFFFFFFFFF AND MUL OR SWAP1 SSTORE POP TIMESTAMP DUP2 PUSH1 0x2 ADD DUP2 SWAP1 SSTORE POP POP POP POP POP POP JUMP JUMPDEST PUSH1 0x0 PUSH1 0x40 MLOAD PUSH1 0x20 ADD PUSH2 0x2AE4 SWAP1 PUSH2 0x3D25 JUMP JUMPDEST PUSH1 0x40 MLOAD PUSH1 0x20 DUP2 DUP4 SUB SUB DUP2 MSTORE SWAP1 PUSH1 0x40 MSTORE DUP1 MLOAD SWAP1 PUSH1 0x20 ADD KECCAK256 PUSH1 0x0 DUP1 DUP5 PUSH20 0xFFFFFFFFFFFFFFFFFFFFFFFFFFFFFFFFFFFFFFFF AND PUSH20 0xFFFFFFFFFFFFFFFFFFFFFFFFFFFFFFFFFFFFFFFF AND DUP2 MSTORE PUSH1 0x20 ADD SWAP1 DUP2 MSTORE PUSH1 0x20 ADD PUSH1 0x0 KECCAK256 PUSH1 0x0 ADD PUSH1 0x0 ADD PUSH1 0x40 MLOAD PUSH1 0x20 ADD PUSH2 0x2B4E SWAP2 SWAP1 PUSH2 0x3E32 JUMP JUMPDEST PUSH1 0x40 MLOAD PUSH1 0x20 DUP2 DUP4 SUB SUB DUP2 MSTORE SWAP1 PUSH1 0x40 MSTORE DUP1 MLOAD SWAP1 PUSH1 0x20 ADD KECCAK256 EQ PUSH2 0x2B72 JUMPI PUSH1 0x0 SWAP1 POP PUSH2 0x2B77 JUMP JUMPDEST PUSH1 0x1 SWAP1 POP JUMPDEST SWAP2 SWAP1 POP JUMP JUMPDEST PUSH1 0x60 PUSH1 0x0 DUP3 SUB PUSH2 0x2BC3 JUMPI PUSH1 0x40 MLOAD DUP1 PUSH1 0x40 ADD PUSH1 0x40 MSTORE DUP1 PUSH1 0x1 DUP2 MSTORE PUSH1 0x20 ADD PUSH32 0x3000000000000000000000000000000000000000000000000000000000000000 DUP2 MSTORE POP SWAP1 POP PUSH2 0x2CFF JUMP JUMPDEST PUSH1 0x0 DUP3 SWAP1 POP PUSH1 0x0 JUMPDEST PUSH1 0x0 DUP3 EQ PUSH2 0x2BF5 JUMPI DUP1 DUP1 PUSH2 0x2BDE SWAP1 PUSH2 0x4EB2 JUMP JUMPDEST SWAP2 POP POP PUSH1 0xA DUP3 PUSH2 0x2BEE SWAP2 SWAP1 PUSH2 0x4F29 JUMP JUMPDEST SWAP2 POP PUSH2 0x2BCB JUMP JUMPDEST PUSH1 0x0 DUP2 PUSH8 0xFFFFFFFFFFFFFFFF DUP2 GT ISZERO PUSH2 0x2C11 JUMPI PUSH2 0x2C10 PUSH2 0x34AB JUMP JUMPDEST JUMPDEST PUSH1 0x40 MLOAD SWAP1 DUP1 DUP3 MSTORE DUP1 PUSH1 0x1F ADD PUSH1 0x1F NOT AND PUSH1 0x20 ADD DUP3 ADD PUSH1 0x40 MSTORE DUP1 ISZERO PUSH2 0x2C43 JUMPI DUP2 PUSH1 0x20 ADD PUSH1 0x1 DUP3 MUL DUP1 CALLDATASIZE DUP4 CALLDATACOPY DUP1 DUP3 ADD SWAP2 POP POP SWAP1 POP JUMPDEST POP SWAP1 POP PUSH1 0x0 DUP3 SWAP1 POP JUMPDEST PUSH1 0x0 DUP7 EQ PUSH2 0x2CF7 JUMPI PUSH1 0x1 DUP2 PUSH2 0x2C61 SWAP2 SWAP1 PUSH2 0x429E JUMP JUMPDEST SWAP1 POP PUSH1 0x0 PUSH1 0xA DUP1 DUP9 PUSH2 0x2C73 SWAP2 SWAP1 PUSH2 0x4F29 JUMP JUMPDEST PUSH2 0x2C7D SWAP2 SWAP1 PUSH2 0x4F5A JUMP JUMPDEST DUP8 PUSH2 0x2C88 SWAP2 SWAP1 PUSH2 0x429E JUMP JUMPDEST PUSH1 0x30 PUSH2 0x2C94 SWAP2 SWAP1 PUSH2 0x4FA9 JUMP JUMPDEST SWAP1 POP PUSH1 0x0 DUP2 PUSH1 0xF8 SHL SWAP1 POP DUP1 DUP5 DUP5 DUP2 MLOAD DUP2 LT PUSH2 0x2CB2 JUMPI PUSH2 0x2CB1 PUSH2 0x418A JUMP JUMPDEST JUMPDEST PUSH1 0x20 ADD ADD SWAP1 PUSH31 0xFFFFFFFFFFFFFFFFFFFFFFFFFFFFFFFFFFFFFFFFFFFFFFFFFFFFFFFFFFFFFF NOT AND SWAP1 DUP2 PUSH1 0x0 BYTE SWAP1 MSTORE8 POP PUSH1 0xA DUP9 PUSH2 0x2CEE SWAP2 SWAP1 PUSH2 0x4F29 JUMP JUMPDEST SWAP8 POP POP POP PUSH2 0x2C4C JUMP JUMPDEST DUP2 SWAP5 POP POP POP POP POP JUMPDEST SWAP2 SWAP1 POP JUMP JUMPDEST PUSH1 0x60 PUSH1 0x0 DUP3 PUSH20 0xFFFFFFFFFFFFFFFFFFFFFFFFFFFFFFFFFFFFFFFF AND PUSH1 0x0 SHL SWAP1 POP PUSH1 0x0 PUSH1 0x40 MLOAD DUP1 PUSH1 0x40 ADD PUSH1 0x40 MSTORE DUP1 PUSH1 0x10 DUP2 MSTORE PUSH1 0x20 ADD PUSH32 0x3031323334353637383961626364656600000000000000000000000000000000 DUP2 MSTORE POP SWAP1 POP PUSH1 0x0 PUSH1 0x2A PUSH8 0xFFFFFFFFFFFFFFFF DUP2 GT ISZERO PUSH2 0x2D7B JUMPI PUSH2 0x2D7A PUSH2 0x34AB JUMP JUMPDEST JUMPDEST PUSH1 0x40 MLOAD SWAP1 DUP1 DUP3 MSTORE DUP1 PUSH1 0x1F ADD PUSH1 0x1F NOT AND PUSH1 0x20 ADD DUP3 ADD PUSH1 0x40 MSTORE DUP1 ISZERO PUSH2 0x2DAD JUMPI DUP2 PUSH1 0x20 ADD PUSH1 0x1 DUP3 MUL DUP1 CALLDATASIZE DUP4 CALLDATACOPY DUP1 DUP3 ADD SWAP2 POP POP SWAP1 POP JUMPDEST POP SWAP1 POP PUSH32 0x3000000000000000000000000000000000000000000000000000000000000000 DUP2 PUSH1 0x0 DUP2 MLOAD DUP2 LT PUSH2 0x2DE5 JUMPI PUSH2 0x2DE4 PUSH2 0x418A JUMP JUMPDEST JUMPDEST PUSH1 0x20 ADD ADD SWAP1 PUSH31 0xFFFFFFFFFFFFFFFFFFFFFFFFFFFFFFFFFFFFFFFFFFFFFFFFFFFFFFFFFFFFFF NOT AND SWAP1 DUP2 PUSH1 0x0 BYTE SWAP1 MSTORE8 POP PUSH32 0x7800000000000000000000000000000000000000000000000000000000000000 DUP2 PUSH1 0x1 DUP2 MLOAD DUP2 LT PUSH2 0x2E49 JUMPI PUSH2 0x2E48 PUSH2 0x418A JUMP JUMPDEST JUMPDEST PUSH1 0x20 ADD ADD SWAP1 PUSH31 0xFFFFFFFFFFFFFFFFFFFFFFFFFFFFFFFFFFFFFFFFFFFFFFFFFFFFFFFFFFFFFF NOT AND SWAP1 DUP2 PUSH1 0x0 BYTE SWAP1 MSTORE8 POP PUSH1 0x0 JUMPDEST PUSH1 0x14 DUP2 LT ISZERO PUSH2 0x2FFD JUMPI DUP3 PUSH1 0x4 DUP6 PUSH1 0xC DUP5 PUSH2 0x2E95 SWAP2 SWAP1 PUSH2 0x42D2 JUMP JUMPDEST PUSH1 0x20 DUP2 LT PUSH2 0x2EA6 JUMPI PUSH2 0x2EA5 PUSH2 0x418A JUMP JUMPDEST JUMPDEST BYTE PUSH1 0xF8 SHL PUSH31 0xFFFFFFFFFFFFFFFFFFFFFFFFFFFFFFFFFFFFFFFFFFFFFFFFFFFFFFFFFFFFFF NOT AND SWAP1 SHR PUSH1 0xF8 SHR PUSH1 0xFF AND DUP2 MLOAD DUP2 LT PUSH2 0x2EE5 JUMPI PUSH2 0x2EE4 PUSH2 0x418A JUMP JUMPDEST JUMPDEST PUSH1 0x20 ADD ADD MLOAD PUSH1 0xF8 SHR PUSH1 0xF8 SHL DUP3 PUSH1 0x2 DUP4 PUSH2 0x2EFE SWAP2 SWAP1 PUSH2 0x4F5A JUMP JUMPDEST PUSH1 0x2 PUSH2 0x2F0A SWAP2 SWAP1 PUSH2 0x42D2 JUMP JUMPDEST DUP2 MLOAD DUP2 LT PUSH2 0x2F1B JUMPI PUSH2 0x2F1A PUSH2 0x418A JUMP JUMPDEST JUMPDEST PUSH1 0x20 ADD ADD SWAP1 PUSH31 0xFFFFFFFFFFFFFFFFFFFFFFFFFFFFFFFFFFFFFFFFFFFFFFFFFFFFFFFFFFFFFF NOT AND SWAP1 DUP2 PUSH1 0x0 BYTE SWAP1 MSTORE8 POP DUP3 PUSH1 0xF PUSH1 0xF8 SHL DUP6 PUSH1 0xC DUP5 PUSH2 0x2F5E SWAP2 SWAP1 PUSH2 0x42D2 JUMP JUMPDEST PUSH1 0x20 DUP2 LT PUSH2 0x2F6F JUMPI PUSH2 0x2F6E PUSH2 0x418A JUMP JUMPDEST JUMPDEST BYTE PUSH1 0xF8 SHL AND PUSH1 0xF8 SHR PUSH1 0xFF AND DUP2 MLOAD DUP2 LT PUSH2 0x2F8B JUMPI PUSH2 0x2F8A PUSH2 0x418A JUMP JUMPDEST JUMPDEST PUSH1 0x20 ADD ADD MLOAD PUSH1 0xF8 SHR PUSH1 0xF8 SHL DUP3 PUSH1 0x2 DUP4 PUSH2 0x2FA4 SWAP2 SWAP1 PUSH2 0x4F5A JUMP JUMPDEST PUSH1 0x3 PUSH2 0x2FB0 SWAP2 SWAP1 PUSH2 0x42D2 JUMP JUMPDEST DUP2 MLOAD DUP2 LT PUSH2 0x2FC1 JUMPI PUSH2 0x2FC0 PUSH2 0x418A JUMP JUMPDEST JUMPDEST PUSH1 0x20 ADD ADD SWAP1 PUSH31 0xFFFFFFFFFFFFFFFFFFFFFFFFFFFFFFFFFFFFFFFFFFFFFFFFFFFFFFFFFFFFFF NOT AND SWAP1 DUP2 PUSH1 0x0 BYTE SWAP1 MSTORE8 POP DUP1 DUP1 PUSH1 0x1 ADD SWAP2 POP POP PUSH2 0x2E7B JUMP JUMPDEST POP DUP1 SWAP4 POP POP POP POP SWAP2 SWAP1 POP JUMP JUMPDEST POP DUP1 SLOAD PUSH2 0x3015 SWAP1 PUSH2 0x3D69 JUMP JUMPDEST PUSH1 0x0 DUP3 SSTORE DUP1 PUSH1 0x1F LT PUSH2 0x3027 JUMPI POP PUSH2 0x3046 JUMP JUMPDEST PUSH1 0x1F ADD PUSH1 0x20 SWAP1 DIV SWAP1 PUSH1 0x0 MSTORE PUSH1 0x20 PUSH1 0x0 KECCAK256 SWAP1 DUP2 ADD SWAP1 PUSH2 0x3045 SWAP2 SWAP1 PUSH2 0x32AF JUMP JUMPDEST JUMPDEST POP JUMP JUMPDEST DUP3 DUP1 SLOAD DUP3 DUP3 SSTORE SWAP1 PUSH1 0x0 MSTORE PUSH1 0x20 PUSH1 0x0 KECCAK256 SWAP1 PUSH1 0x6 MUL DUP2 ADD SWAP3 DUP3 ISZERO PUSH2 0x314A JUMPI PUSH1 0x0 MSTORE PUSH1 0x20 PUSH1 0x0 KECCAK256 SWAP2 PUSH1 0x6 MUL DUP3 ADD JUMPDEST DUP3 DUP2 GT ISZERO PUSH2 0x3149 JUMPI DUP3 DUP3 PUSH1 0x0 DUP3 ADD DUP2 PUSH1 0x0 ADD SWAP1 DUP2 PUSH2 0x3092 SWAP2 SWAP1 PUSH2 0x431C JUMP JUMPDEST POP PUSH1 0x1 DUP3 ADD DUP2 PUSH1 0x1 ADD SWAP1 DUP2 PUSH2 0x30A7 SWAP2 SWAP1 PUSH2 0x431C JUMP JUMPDEST POP PUSH1 0x2 DUP3 ADD SLOAD DUP2 PUSH1 0x2 ADD SSTORE PUSH1 0x3 DUP3 ADD SLOAD DUP2 PUSH1 0x3 ADD SSTORE PUSH1 0x4 DUP3 ADD PUSH1 0x0 SWAP1 SLOAD SWAP1 PUSH2 0x100 EXP SWAP1 DIV PUSH20 0xFFFFFFFFFFFFFFFFFFFFFFFFFFFFFFFFFFFFFFFF AND DUP2 PUSH1 0x4 ADD PUSH1 0x0 PUSH2 0x100 EXP DUP2 SLOAD DUP2 PUSH20 0xFFFFFFFFFFFFFFFFFFFFFFFFFFFFFFFFFFFFFFFF MUL NOT AND SWAP1 DUP4 PUSH20 0xFFFFFFFFFFFFFFFFFFFFFFFFFFFFFFFFFFFFFFFF AND MUL OR SWAP1 SSTORE POP PUSH1 0x5 DUP3 ADD DUP2 PUSH1 0x5 ADD SWAP1 DUP2 PUSH2 0x3137 SWAP2 SWAP1 PUSH2 0x431C JUMP JUMPDEST POP POP POP SWAP2 PUSH1 0x6 ADD SWAP2 SWAP1 PUSH1 0x6 ADD SWAP1 PUSH2 0x3074 JUMP JUMPDEST JUMPDEST POP SWAP1 POP PUSH2 0x3157 SWAP2 SWAP1 PUSH2 0x32CC JUMP JUMPDEST POP SWAP1 JUMP JUMPDEST DUP3 DUP1 SLOAD DUP3 DUP3 SSTORE SWAP1 PUSH1 0x0 MSTORE PUSH1 0x20 PUSH1 0x0 KECCAK256 SWAP1 PUSH1 0x5 MUL DUP2 ADD SWAP3 DUP3 ISZERO PUSH2 0x3256 JUMPI PUSH1 0x0 MSTORE PUSH1 0x20 PUSH1 0x0 KECCAK256 SWAP2 PUSH1 0x5 MUL DUP3 ADD JUMPDEST DUP3 DUP2 GT ISZERO PUSH2 0x3255 JUMPI DUP3 DUP3 PUSH1 0x0 DUP3 ADD DUP2 PUSH1 0x0 ADD SWAP1 DUP2 PUSH2 0x31A4 SWAP2 SWAP1 PUSH2 0x431C JUMP JUMPDEST POP PUSH1 0x1 DUP3 ADD PUSH1 0x0 SWAP1 SLOAD SWAP1 PUSH2 0x100 EXP SWAP1 DIV PUSH20 0xFFFFFFFFFFFFFFFFFFFFFFFFFFFFFFFFFFFFFFFF AND DUP2 PUSH1 0x1 ADD PUSH1 0x0 PUSH2 0x100 EXP DUP2 SLOAD DUP2 PUSH20 0xFFFFFFFFFFFFFFFFFFFFFFFFFFFFFFFFFFFFFFFF MUL NOT AND SWAP1 DUP4 PUSH20 0xFFFFFFFFFFFFFFFFFFFFFFFFFFFFFFFFFFFFFFFF AND MUL OR SWAP1 SSTORE POP PUSH1 0x2 DUP3 ADD SLOAD DUP2 PUSH1 0x2 ADD SSTORE PUSH1 0x3 DUP3 ADD DUP2 PUSH1 0x3 ADD SWAP1 DUP1 SLOAD PUSH2 0x322C SWAP3 SWAP2 SWAP1 PUSH2 0x3049 JUMP JUMPDEST POP PUSH1 0x4 DUP3 ADD DUP2 PUSH1 0x4 ADD SWAP1 DUP1 SLOAD PUSH2 0x3243 SWAP3 SWAP2 SWAP1 PUSH2 0x315B JUMP JUMPDEST POP POP POP SWAP2 PUSH1 0x5 ADD SWAP2 SWAP1 PUSH1 0x5 ADD SWAP1 PUSH2 0x3186 JUMP JUMPDEST JUMPDEST POP SWAP1 POP PUSH2 0x3263 SWAP2 SWAP1 PUSH2 0x334A JUMP JUMPDEST POP SWAP1 JUMP JUMPDEST POP DUP1 SLOAD PUSH1 0x0 DUP3 SSTORE PUSH1 0x6 MUL SWAP1 PUSH1 0x0 MSTORE PUSH1 0x20 PUSH1 0x0 KECCAK256 SWAP1 DUP2 ADD SWAP1 PUSH2 0x3288 SWAP2 SWAP1 PUSH2 0x32CC JUMP JUMPDEST POP JUMP JUMPDEST POP DUP1 SLOAD PUSH1 0x0 DUP3 SSTORE PUSH1 0x5 MUL SWAP1 PUSH1 0x0 MSTORE PUSH1 0x20 PUSH1 0x0 KECCAK256 SWAP1 DUP2 ADD SWAP1 PUSH2 0x32AC SWAP2 SWAP1 PUSH2 0x334A JUMP JUMPDEST POP JUMP JUMPDEST JUMPDEST DUP1 DUP3 GT ISZERO PUSH2 0x32C8 JUMPI PUSH1 0x0 DUP2 PUSH1 0x0 SWAP1 SSTORE POP PUSH1 0x1 ADD PUSH2 0x32B0 JUMP JUMPDEST POP SWAP1 JUMP JUMPDEST JUMPDEST DUP1 DUP3 GT ISZERO PUSH2 0x3346 JUMPI PUSH1 0x0 DUP1 DUP3 ADD PUSH1 0x0 PUSH2 0x32E6 SWAP2 SWAP1 PUSH2 0x3009 JUMP JUMPDEST PUSH1 0x1 DUP3 ADD PUSH1 0x0 PUSH2 0x32F6 SWAP2 SWAP1 PUSH2 0x3009 JUMP JUMPDEST PUSH1 0x2 DUP3 ADD PUSH1 0x0 SWAP1 SSTORE PUSH1 0x3 DUP3 ADD PUSH1 0x0 SWAP1 SSTORE PUSH1 0x4 DUP3 ADD PUSH1 0x0 PUSH2 0x100 EXP DUP2 SLOAD SWAP1 PUSH20 0xFFFFFFFFFFFFFFFFFFFFFFFFFFFFFFFFFFFFFFFF MUL NOT AND SWAP1 SSTORE PUSH1 0x5 DUP3 ADD PUSH1 0x0 PUSH2 0x333D SWAP2 SWAP1 PUSH2 0x3009 JUMP JUMPDEST POP PUSH1 0x6 ADD PUSH2 0x32CD JUMP JUMPDEST POP SWAP1 JUMP JUMPDEST JUMPDEST DUP1 DUP3 GT ISZERO PUSH2 0x33BC JUMPI PUSH1 0x0 DUP1 DUP3 ADD PUSH1 0x0 PUSH2 0x3364 SWAP2 SWAP1 PUSH2 0x3009 JUMP JUMPDEST PUSH1 0x1 DUP3 ADD PUSH1 0x0 PUSH2 0x100 EXP DUP2 SLOAD SWAP1 PUSH20 0xFFFFFFFFFFFFFFFFFFFFFFFFFFFFFFFFFFFFFFFF MUL NOT AND SWAP1 SSTORE PUSH1 0x2 DUP3 ADD PUSH1 0x0 SWAP1 SSTORE PUSH1 0x3 DUP3 ADD PUSH1 0x0 PUSH2 0x33A3 SWAP2 SWAP1 PUSH2 0x3267 JUMP JUMPDEST PUSH1 0x4 DUP3 ADD PUSH1 0x0 PUSH2 0x33B3 SWAP2 SWAP1 PUSH2 0x328B JUMP JUMPDEST POP PUSH1 0x5 ADD PUSH2 0x334B JUMP JUMPDEST POP SWAP1 JUMP JUMPDEST PUSH1 0x0 PUSH1 0x40 MLOAD SWAP1 POP SWAP1 JUMP JUMPDEST PUSH1 0x0 DUP1 REVERT JUMPDEST PUSH1 0x0 DUP1 REVERT JUMPDEST PUSH1 0x0 PUSH20 0xFFFFFFFFFFFFFFFFFFFFFFFFFFFFFFFFFFFFFFFF DUP3 AND SWAP1 POP SWAP2 SWAP1 POP JUMP JUMPDEST PUSH1 0x0 PUSH2 0x33FF DUP3 PUSH2 0x33D4 JUMP JUMPDEST SWAP1 POP SWAP2 SWAP1 POP JUMP JUMPDEST PUSH2 0x340F DUP2 PUSH2 0x33F4 JUMP JUMPDEST DUP2 EQ PUSH2 0x341A JUMPI PUSH1 0x0 DUP1 REVERT JUMPDEST POP JUMP JUMPDEST PUSH1 0x0 DUP2 CALLDATALOAD SWAP1 POP PUSH2 0x342C DUP2 PUSH2 0x3406 JUMP JUMPDEST SWAP3 SWAP2 POP POP JUMP JUMPDEST PUSH1 0x0 PUSH1 0x20 DUP3 DUP5 SUB SLT ISZERO PUSH2 0x3448 JUMPI PUSH2 0x3447 PUSH2 0x33CA JUMP JUMPDEST JUMPDEST PUSH1 0x0 PUSH2 0x3456 DUP5 DUP3 DUP6 ADD PUSH2 0x341D JUMP JUMPDEST SWAP2 POP POP SWAP3 SWAP2 POP POP JUMP JUMPDEST PUSH1 0x0 DUP2 ISZERO ISZERO SWAP1 POP SWAP2 SWAP1 POP JUMP JUMPDEST PUSH2 0x3474 DUP2 PUSH2 0x345F JUMP JUMPDEST DUP3 MSTORE POP POP JUMP JUMPDEST PUSH1 0x0 PUSH1 0x20 DUP3 ADD SWAP1 POP PUSH2 0x348F PUSH1 0x0 DUP4 ADD DUP5 PUSH2 0x346B JUMP JUMPDEST SWAP3 SWAP2 POP POP JUMP JUMPDEST PUSH1 0x0 DUP1 REVERT JUMPDEST PUSH1 0x0 PUSH1 0x1F NOT PUSH1 0x1F DUP4 ADD AND SWAP1 POP SWAP2 SWAP1 POP JUMP JUMPDEST PUSH32 0x4E487B7100000000000000000000000000000000000000000000000000000000 PUSH1 0x0 MSTORE PUSH1 0x41 PUSH1 0x4 MSTORE PUSH1 0x24 PUSH1 0x0 REVERT JUMPDEST PUSH2 0x34E3 DUP3 PUSH2 0x349A JUMP JUMPDEST DUP2 ADD DUP2 DUP2 LT PUSH8 0xFFFFFFFFFFFFFFFF DUP3 GT OR ISZERO PUSH2 0x3502 JUMPI PUSH2 0x3501 PUSH2 0x34AB JUMP JUMPDEST JUMPDEST DUP1 PUSH1 0x40 MSTORE POP POP POP JUMP JUMPDEST PUSH1 0x0 PUSH2 0x3515 PUSH2 0x33C0 JUMP JUMPDEST SWAP1 POP PUSH2 0x3521 DUP3 DUP3 PUSH2 0x34DA JUMP JUMPDEST SWAP2 SWAP1 POP JUMP JUMPDEST PUSH1 0x0 PUSH8 0xFFFFFFFFFFFFFFFF DUP3 GT ISZERO PUSH2 0x3541 JUMPI PUSH2 0x3540 PUSH2 0x34AB JUMP JUMPDEST JUMPDEST PUSH1 0x20 DUP3 MUL SWAP1 POP PUSH1 0x20 DUP2 ADD SWAP1 POP SWAP2 SWAP1 POP JUMP JUMPDEST PUSH1 0x0 DUP1 REVERT JUMPDEST PUSH1 0x0 DUP1 REVERT JUMPDEST PUSH1 0x0 PUSH8 0xFFFFFFFFFFFFFFFF DUP3 GT ISZERO PUSH2 0x3577 JUMPI PUSH2 0x3576 PUSH2 0x34AB JUMP JUMPDEST JUMPDEST PUSH2 0x3580 DUP3 PUSH2 0x349A JUMP JUMPDEST SWAP1 POP PUSH1 0x20 DUP2 ADD SWAP1 POP SWAP2 SWAP1 POP JUMP JUMPDEST DUP3 DUP2 DUP4 CALLDATACOPY PUSH1 0x0 DUP4 DUP4 ADD MSTORE POP POP POP JUMP JUMPDEST PUSH1 0x0 PUSH2 0x35AF PUSH2 0x35AA DUP5 PUSH2 0x355C JUMP JUMPDEST PUSH2 0x350B JUMP JUMPDEST SWAP1 POP DUP3 DUP2 MSTORE PUSH1 0x20 DUP2 ADD DUP5 DUP5 DUP5 ADD GT ISZERO PUSH2 0x35CB JUMPI PUSH2 0x35CA PUSH2 0x3557 JUMP JUMPDEST JUMPDEST PUSH2 0x35D6 DUP5 DUP3 DUP6 PUSH2 0x358D JUMP JUMPDEST POP SWAP4 SWAP3 POP POP POP JUMP JUMPDEST PUSH1 0x0 DUP3 PUSH1 0x1F DUP4 ADD SLT PUSH2 0x35F3 JUMPI PUSH2 0x35F2 PUSH2 0x3495 JUMP JUMPDEST JUMPDEST DUP2 CALLDATALOAD PUSH2 0x3603 DUP5 DUP3 PUSH1 0x20 DUP7 ADD PUSH2 0x359C JUMP JUMPDEST SWAP2 POP POP SWAP3 SWAP2 POP POP JUMP JUMPDEST PUSH1 0x0 PUSH2 0x361F PUSH2 0x361A DUP5 PUSH2 0x3526 JUMP JUMPDEST PUSH2 0x350B JUMP JUMPDEST SWAP1 POP DUP1 DUP4 DUP3 MSTORE PUSH1 0x20 DUP3 ADD SWAP1 POP PUSH1 0x20 DUP5 MUL DUP4 ADD DUP6 DUP2 GT ISZERO PUSH2 0x3642 JUMPI PUSH2 0x3641 PUSH2 0x3552 JUMP JUMPDEST JUMPDEST DUP4 JUMPDEST DUP2 DUP2 LT ISZERO PUSH2 0x3689 JUMPI DUP1 CALLDATALOAD PUSH8 0xFFFFFFFFFFFFFFFF DUP2 GT ISZERO PUSH2 0x3667 JUMPI PUSH2 0x3666 PUSH2 0x3495 JUMP JUMPDEST JUMPDEST DUP1 DUP7 ADD PUSH2 0x3674 DUP10 DUP3 PUSH2 0x35DE JUMP JUMPDEST DUP6 MSTORE PUSH1 0x20 DUP6 ADD SWAP5 POP POP POP PUSH1 0x20 DUP2 ADD SWAP1 POP PUSH2 0x3644 JUMP JUMPDEST POP POP POP SWAP4 SWAP3 POP POP POP JUMP JUMPDEST PUSH1 0x0 DUP3 PUSH1 0x1F DUP4 ADD SLT PUSH2 0x36A8 JUMPI PUSH2 0x36A7 PUSH2 0x3495 JUMP JUMPDEST JUMPDEST DUP2 CALLDATALOAD PUSH2 0x36B8 DUP5 DUP3 PUSH1 0x20 DUP7 ADD PUSH2 0x360C JUMP JUMPDEST SWAP2 POP POP SWAP3 SWAP2 POP POP JUMP JUMPDEST PUSH1 0x0 DUP1 PUSH1 0x0 DUP1 PUSH1 0x80 DUP6 DUP8 SUB SLT ISZERO PUSH2 0x36DB JUMPI PUSH2 0x36DA PUSH2 0x33CA JUMP JUMPDEST JUMPDEST PUSH1 0x0 DUP6 ADD CALLDATALOAD PUSH8 0xFFFFFFFFFFFFFFFF DUP2 GT ISZERO PUSH2 0x36F9 JUMPI PUSH2 0x36F8 PUSH2 0x33CF JUMP JUMPDEST JUMPDEST PUSH2 0x3705 DUP8 DUP3 DUP9 ADD PUSH2 0x3693 JUMP JUMPDEST SWAP5 POP POP PUSH1 0x20 DUP6 ADD CALLDATALOAD PUSH8 0xFFFFFFFFFFFFFFFF DUP2 GT ISZERO PUSH2 0x3726 JUMPI PUSH2 0x3725 PUSH2 0x33CF JUMP JUMPDEST JUMPDEST PUSH2 0x3732 DUP8 DUP3 DUP9 ADD PUSH2 0x35DE JUMP JUMPDEST SWAP4 POP POP PUSH1 0x40 DUP6 ADD CALLDATALOAD PUSH8 0xFFFFFFFFFFFFFFFF DUP2 GT ISZERO PUSH2 0x3753 JUMPI PUSH2 0x3752 PUSH2 0x33CF JUMP JUMPDEST JUMPDEST PUSH2 0x375F DUP8 DUP3 DUP9 ADD PUSH2 0x35DE JUMP JUMPDEST SWAP3 POP POP PUSH1 0x60 PUSH2 0x3770 DUP8 DUP3 DUP9 ADD PUSH2 0x341D JUMP JUMPDEST SWAP2 POP POP SWAP3 SWAP6 SWAP2 SWAP5 POP SWAP3 POP JUMP JUMPDEST PUSH1 0x0 DUP1 PUSH1 0x40 DUP4 DUP6 SUB SLT ISZERO PUSH2 0x3793 JUMPI PUSH2 0x3792 PUSH2 0x33CA JUMP JUMPDEST JUMPDEST PUSH1 0x0 DUP4 ADD CALLDATALOAD PUSH8 0xFFFFFFFFFFFFFFFF DUP2 GT ISZERO PUSH2 0x37B1 JUMPI PUSH2 0x37B0 PUSH2 0x33CF JUMP JUMPDEST JUMPDEST PUSH2 0x37BD DUP6 DUP3 DUP7 ADD PUSH2 0x3693 JUMP JUMPDEST SWAP3 POP POP PUSH1 0x20 PUSH2 0x37CE DUP6 DUP3 DUP7 ADD PUSH2 0x341D JUMP JUMPDEST SWAP2 POP POP SWAP3 POP SWAP3 SWAP1 POP JUMP JUMPDEST PUSH1 0x0 DUP2 MLOAD SWAP1 POP SWAP2 SWAP1 POP JUMP JUMPDEST PUSH1 0x0 DUP3 DUP3 MSTORE PUSH1 0x20 DUP3 ADD SWAP1 POP SWAP3 SWAP2 POP POP JUMP JUMPDEST PUSH1 0x0 JUMPDEST DUP4 DUP2 LT ISZERO PUSH2 0x3812 JUMPI DUP1 DUP3 ADD MLOAD DUP2 DUP5 ADD MSTORE PUSH1 0x20 DUP2 ADD SWAP1 POP PUSH2 0x37F7 JUMP JUMPDEST PUSH1 0x0 DUP5 DUP5 ADD MSTORE POP POP POP POP JUMP JUMPDEST PUSH1 0x0 PUSH2 0x3829 DUP3 PUSH2 0x37D8 JUMP JUMPDEST PUSH2 0x3833 DUP2 DUP6 PUSH2 0x37E3 JUMP JUMPDEST SWAP4 POP PUSH2 0x3843 DUP2 DUP6 PUSH1 0x20 DUP7 ADD PUSH2 0x37F4 JUMP JUMPDEST PUSH2 0x384C DUP2 PUSH2 0x349A JUMP JUMPDEST DUP5 ADD SWAP2 POP POP SWAP3 SWAP2 POP POP JUMP JUMPDEST PUSH1 0x0 PUSH1 0x20 DUP3 ADD SWAP1 POP DUP2 DUP2 SUB PUSH1 0x0 DUP4 ADD MSTORE PUSH2 0x3871 DUP2 DUP5 PUSH2 0x381E JUMP JUMPDEST SWAP1 POP SWAP3 SWAP2 POP POP JUMP JUMPDEST PUSH1 0x0 DUP1 PUSH1 0x40 DUP4 DUP6 SUB SLT ISZERO PUSH2 0x3890 JUMPI PUSH2 0x388F PUSH2 0x33CA JUMP JUMPDEST JUMPDEST PUSH1 0x0 DUP4 ADD CALLDATALOAD PUSH8 0xFFFFFFFFFFFFFFFF DUP2 GT ISZERO PUSH2 0x38AE JUMPI PUSH2 0x38AD PUSH2 0x33CF JUMP JUMPDEST JUMPDEST PUSH2 0x38BA DUP6 DUP3 DUP7 ADD PUSH2 0x35DE JUMP JUMPDEST SWAP3 POP POP PUSH1 0x20 PUSH2 0x38CB DUP6 DUP3 DUP7 ADD PUSH2 0x341D JUMP JUMPDEST SWAP2 POP POP SWAP3 POP SWAP3 SWAP1 POP JUMP JUMPDEST PUSH1 0x0 DUP1 PUSH1 0x0 PUSH1 0x60 DUP5 DUP7 SUB SLT ISZERO PUSH2 0x38EE JUMPI PUSH2 0x38ED PUSH2 0x33CA JUMP JUMPDEST JUMPDEST PUSH1 0x0 DUP5 ADD CALLDATALOAD PUSH8 0xFFFFFFFFFFFFFFFF DUP2 GT ISZERO PUSH2 0x390C JUMPI PUSH2 0x390B PUSH2 0x33CF JUMP JUMPDEST JUMPDEST PUSH2 0x3918 DUP7 DUP3 DUP8 ADD PUSH2 0x3693 JUMP JUMPDEST SWAP4 POP POP PUSH1 0x20 DUP5 ADD CALLDATALOAD PUSH8 0xFFFFFFFFFFFFFFFF DUP2 GT ISZERO PUSH2 0x3939 JUMPI PUSH2 0x3938 PUSH2 0x33CF JUMP JUMPDEST JUMPDEST PUSH2 0x3945 DUP7 DUP3 DUP8 ADD PUSH2 0x35DE JUMP JUMPDEST SWAP3 POP POP PUSH1 0x40 PUSH2 0x3956 DUP7 DUP3 DUP8 ADD PUSH2 0x341D JUMP JUMPDEST SWAP2 POP POP SWAP3 POP SWAP3 POP SWAP3 JUMP JUMPDEST PUSH1 0x0 PUSH8 0xFFFFFFFFFFFFFFFF DUP3 GT ISZERO PUSH2 0x397B JUMPI PUSH2 0x397A PUSH2 0x34AB JUMP JUMPDEST JUMPDEST PUSH1 0x20 DUP3 MUL SWAP1 POP PUSH1 0x20 DUP2 ADD SWAP1 POP SWAP2 SWAP1 POP JUMP JUMPDEST PUSH1 0x0 DUP1 REVERT JUMPDEST PUSH1 0x0 DUP1 REVERT JUMPDEST PUSH1 0x0 DUP2 SWAP1 POP SWAP2 SWAP1 POP JUMP JUMPDEST PUSH2 0x39A9 DUP2 PUSH2 0x3996 JUMP JUMPDEST DUP2 EQ PUSH2 0x39B4 JUMPI PUSH1 0x0 DUP1 REVERT JUMPDEST POP JUMP JUMPDEST PUSH1 0x0 DUP2 CALLDATALOAD SWAP1 POP PUSH2 0x39C6 DUP2 PUSH2 0x39A0 JUMP JUMPDEST SWAP3 SWAP2 POP POP JUMP JUMPDEST PUSH1 0x0 PUSH1 0x80 DUP3 DUP5 SUB SLT ISZERO PUSH2 0x39E2 JUMPI PUSH2 0x39E1 PUSH2 0x398C JUMP JUMPDEST JUMPDEST PUSH2 0x39EC PUSH1 0x80 PUSH2 0x350B JUMP JUMPDEST SWAP1 POP PUSH1 0x0 DUP3 ADD CALLDATALOAD PUSH8 0xFFFFFFFFFFFFFFFF DUP2 GT ISZERO PUSH2 0x3A0C JUMPI PUSH2 0x3A0B PUSH2 0x3991 JUMP JUMPDEST JUMPDEST PUSH2 0x3A18 DUP5 DUP3 DUP6 ADD PUSH2 0x35DE JUMP JUMPDEST PUSH1 0x0 DUP4 ADD MSTORE POP PUSH1 0x20 DUP3 ADD CALLDATALOAD PUSH8 0xFFFFFFFFFFFFFFFF DUP2 GT ISZERO PUSH2 0x3A3C JUMPI PUSH2 0x3A3B PUSH2 0x3991 JUMP JUMPDEST JUMPDEST PUSH2 0x3A48 DUP5 DUP3 DUP6 ADD PUSH2 0x35DE JUMP JUMPDEST PUSH1 0x20 DUP4 ADD MSTORE POP PUSH1 0x40 PUSH2 0x3A5C DUP5 DUP3 DUP6 ADD PUSH2 0x39B7 JUMP JUMPDEST PUSH1 0x40 DUP4 ADD MSTORE POP PUSH1 0x60 DUP3 ADD CALLDATALOAD PUSH8 0xFFFFFFFFFFFFFFFF DUP2 GT ISZERO PUSH2 0x3A80 JUMPI PUSH2 0x3A7F PUSH2 0x3991 JUMP JUMPDEST JUMPDEST PUSH2 0x3A8C DUP5 DUP3 DUP6 ADD PUSH2 0x35DE JUMP JUMPDEST PUSH1 0x60 DUP4 ADD MSTORE POP SWAP3 SWAP2 POP POP JUMP JUMPDEST PUSH1 0x0 PUSH2 0x3AAB PUSH2 0x3AA6 DUP5 PUSH2 0x3960 JUMP JUMPDEST PUSH2 0x350B JUMP JUMPDEST SWAP1 POP DUP1 DUP4 DUP3 MSTORE PUSH1 0x20 DUP3 ADD SWAP1 POP PUSH1 0x20 DUP5 MUL DUP4 ADD DUP6 DUP2 GT ISZERO PUSH2 0x3ACE JUMPI PUSH2 0x3ACD PUSH2 0x3552 JUMP JUMPDEST JUMPDEST DUP4 JUMPDEST DUP2 DUP2 LT ISZERO PUSH2 0x3B15 JUMPI DUP1 CALLDATALOAD PUSH8 0xFFFFFFFFFFFFFFFF DUP2 GT ISZERO PUSH2 0x3AF3 JUMPI PUSH2 0x3AF2 PUSH2 0x3495 JUMP JUMPDEST JUMPDEST DUP1 DUP7 ADD PUSH2 0x3B00 DUP10 DUP3 PUSH2 0x39CC JUMP JUMPDEST DUP6 MSTORE PUSH1 0x20 DUP6 ADD SWAP5 POP POP POP PUSH1 0x20 DUP2 ADD SWAP1 POP PUSH2 0x3AD0 JUMP JUMPDEST POP POP POP SWAP4 SWAP3 POP POP POP JUMP JUMPDEST PUSH1 0x0 DUP3 PUSH1 0x1F DUP4 ADD SLT PUSH2 0x3B34 JUMPI PUSH2 0x3B33 PUSH2 0x3495 JUMP JUMPDEST JUMPDEST DUP2 CALLDATALOAD PUSH2 0x3B44 DUP5 DUP3 PUSH1 0x20 DUP7 ADD PUSH2 0x3A98 JUMP JUMPDEST SWAP2 POP POP SWAP3 SWAP2 POP POP JUMP JUMPDEST PUSH1 0x0 DUP1 PUSH1 0x0 PUSH1 0x60 DUP5 DUP7 SUB SLT ISZERO PUSH2 0x3B66 JUMPI PUSH2 0x3B65 PUSH2 0x33CA JUMP JUMPDEST JUMPDEST PUSH1 0x0 DUP5 ADD CALLDATALOAD PUSH8 0xFFFFFFFFFFFFFFFF DUP2 GT ISZERO PUSH2 0x3B84 JUMPI PUSH2 0x3B83 PUSH2 0x33CF JUMP JUMPDEST JUMPDEST PUSH2 0x3B90 DUP7 DUP3 DUP8 ADD PUSH2 0x3693 JUMP JUMPDEST SWAP4 POP POP PUSH1 0x20 DUP5 ADD CALLDATALOAD PUSH8 0xFFFFFFFFFFFFFFFF DUP2 GT ISZERO PUSH2 0x3BB1 JUMPI PUSH2 0x3BB0 PUSH2 0x33CF JUMP JUMPDEST JUMPDEST PUSH2 0x3BBD DUP7 DUP3 DUP8 ADD PUSH2 0x3B1F JUMP JUMPDEST SWAP3 POP POP PUSH1 0x40 PUSH2 0x3BCE DUP7 DUP3 DUP8 ADD PUSH2 0x341D JUMP JUMPDEST SWAP2 POP POP SWAP3 POP SWAP3 POP SWAP3 JUMP JUMPDEST PUSH1 0x0 DUP1 PUSH1 0x0 DUP1 PUSH1 0x0 DUP1 PUSH1 0x0 PUSH1 0xE0 DUP9 DUP11 SUB SLT ISZERO PUSH2 0x3BF7 JUMPI PUSH2 0x3BF6 PUSH2 0x33CA JUMP JUMPDEST JUMPDEST PUSH1 0x0 PUSH2 0x3C05 DUP11 DUP3 DUP12 ADD PUSH2 0x341D JUMP JUMPDEST SWAP8 POP POP PUSH1 0x20 PUSH2 0x3C16 DUP11 DUP3 DUP12 ADD PUSH2 0x341D JUMP JUMPDEST SWAP7 POP POP PUSH1 0x40 DUP9 ADD CALLDATALOAD PUSH8 0xFFFFFFFFFFFFFFFF DUP2 GT ISZERO PUSH2 0x3C37 JUMPI PUSH2 0x3C36 PUSH2 0x33CF JUMP JUMPDEST JUMPDEST PUSH2 0x3C43 DUP11 DUP3 DUP12 ADD PUSH2 0x35DE JUMP JUMPDEST SWAP6 POP POP PUSH1 0x60 DUP9 ADD CALLDATALOAD PUSH8 0xFFFFFFFFFFFFFFFF DUP2 GT ISZERO PUSH2 0x3C64 JUMPI PUSH2 0x3C63 PUSH2 0x33CF JUMP JUMPDEST JUMPDEST PUSH2 0x3C70 DUP11 DUP3 DUP12 ADD PUSH2 0x35DE JUMP JUMPDEST SWAP5 POP POP PUSH1 0x80 PUSH2 0x3C81 DUP11 DUP3 DUP12 ADD PUSH2 0x39B7 JUMP JUMPDEST SWAP4 POP POP PUSH1 0xA0 PUSH2 0x3C92 DUP11 DUP3 DUP12 ADD PUSH2 0x39B7 JUMP JUMPDEST SWAP3 POP POP PUSH1 0xC0 DUP9 ADD CALLDATALOAD PUSH8 0xFFFFFFFFFFFFFFFF DUP2 GT ISZERO PUSH2 0x3CB3 JUMPI PUSH2 0x3CB2 PUSH2 0x33CF JUMP JUMPDEST JUMPDEST PUSH2 0x3CBF DUP11 DUP3 DUP12 ADD PUSH2 0x35DE JUMP JUMPDEST SWAP2 POP POP SWAP3 SWAP6 SWAP9 SWAP2 SWAP5 SWAP8 POP SWAP3 SWAP6 POP JUMP JUMPDEST PUSH1 0x0 DUP2 SWAP1 POP SWAP3 SWAP2 POP POP JUMP JUMPDEST PUSH32 0x726F6F7400000000000000000000000000000000000000000000000000000000 PUSH1 0x0 DUP3 ADD MSTORE POP JUMP JUMPDEST PUSH1 0x0 PUSH2 0x3D0F PUSH1 0x4 DUP4 PUSH2 0x3CCE JUMP JUMPDEST SWAP2 POP PUSH2 0x3D1A DUP3 PUSH2 0x3CD9 JUMP JUMPDEST PUSH1 0x4 DUP3 ADD SWAP1 POP SWAP2 SWAP1 POP JUMP JUMPDEST PUSH1 0x0 PUSH2 0x3D30 DUP3 PUSH2 0x3D02 JUMP JUMPDEST SWAP2 POP DUP2 SWAP1 POP SWAP2 SWAP1 POP JUMP JUMPDEST PUSH32 0x4E487B7100000000000000000000000000000000000000000000000000000000 PUSH1 0x0 MSTORE PUSH1 0x22 PUSH1 0x4 MSTORE PUSH1 0x24 PUSH1 0x0 REVERT JUMPDEST PUSH1 0x0 PUSH1 0x2 DUP3 DIV SWAP1 POP PUSH1 0x1 DUP3 AND DUP1 PUSH2 0x3D81 JUMPI PUSH1 0x7F DUP3 AND SWAP2 POP JUMPDEST PUSH1 0x20 DUP3 LT DUP2 SUB PUSH2 0x3D94 JUMPI PUSH2 0x3D93 PUSH2 0x3D3A JUMP JUMPDEST JUMPDEST POP SWAP2 SWAP1 POP JUMP JUMPDEST PUSH1 0x0 DUP2 SWAP1 POP DUP2 PUSH1 0x0 MSTORE PUSH1 0x20 PUSH1 0x0 KECCAK256 SWAP1 POP SWAP2 SWAP1 POP JUMP JUMPDEST PUSH1 0x0 DUP2 SLOAD PUSH2 0x3DBC DUP2 PUSH2 0x3D69 JUMP JUMPDEST PUSH2 0x3DC6 DUP2 DUP7 PUSH2 0x3CCE JUMP JUMPDEST SWAP5 POP PUSH1 0x1 DUP3 AND PUSH1 0x0 DUP2 EQ PUSH2 0x3DE1 JUMPI PUSH1 0x1 DUP2 EQ PUSH2 0x3DF6 JUMPI PUSH2 0x3E29 JUMP JUMPDEST PUSH1 0xFF NOT DUP4 AND DUP7 MSTORE DUP2 ISZERO ISZERO DUP3 MUL DUP7 ADD SWAP4 POP PUSH2 0x3E29 JUMP JUMPDEST PUSH2 0x3DFF DUP6 PUSH2 0x3D9A JUMP JUMPDEST PUSH1 0x0 JUMPDEST DUP4 DUP2 LT ISZERO PUSH2 0x3E21 JUMPI DUP2 SLOAD DUP2 DUP10 ADD MSTORE PUSH1 0x1 DUP3 ADD SWAP2 POP PUSH1 0x20 DUP2 ADD SWAP1 POP PUSH2 0x3E02 JUMP JUMPDEST DUP4 DUP9 ADD SWAP6 POP POP POP JUMPDEST POP POP POP SWAP3 SWAP2 POP POP JUMP JUMPDEST PUSH1 0x0 PUSH2 0x3E3E DUP3 DUP5 PUSH2 0x3DAF JUMP JUMPDEST SWAP2 POP DUP2 SWAP1 POP SWAP3 SWAP2 POP POP JUMP JUMPDEST PUSH32 0x5573657220616C726561647920696E697469616C697A65640000000000000000 PUSH1 0x0 DUP3 ADD MSTORE POP JUMP JUMPDEST PUSH1 0x0 PUSH2 0x3E7F PUSH1 0x18 DUP4 PUSH2 0x37E3 JUMP JUMPDEST SWAP2 POP PUSH2 0x3E8A DUP3 PUSH2 0x3E49 JUMP JUMPDEST PUSH1 0x20 DUP3 ADD SWAP1 POP SWAP2 SWAP1 POP JUMP JUMPDEST PUSH1 0x0 PUSH1 0x20 DUP3 ADD SWAP1 POP DUP2 DUP2 SUB PUSH1 0x0 DUP4 ADD MSTORE PUSH2 0x3EAE DUP2 PUSH2 0x3E72 JUMP JUMPDEST SWAP1 POP SWAP2 SWAP1 POP JUMP JUMPDEST PUSH1 0x0 PUSH1 0x20 PUSH1 0x1F DUP4 ADD DIV SWAP1 POP SWAP2 SWAP1 POP JUMP JUMPDEST PUSH1 0x0 DUP3 DUP3 SHL SWAP1 POP SWAP3 SWAP2 POP POP JUMP JUMPDEST PUSH1 0x0 PUSH1 0x8 DUP4 MUL PUSH2 0x3F02 PUSH32 0xFFFFFFFFFFFFFFFFFFFFFFFFFFFFFFFFFFFFFFFFFFFFFFFFFFFFFFFFFFFFFFFF DUP3 PUSH2 0x3EC5 JUMP JUMPDEST PUSH2 0x3F0C DUP7 DUP4 PUSH2 0x3EC5 JUMP JUMPDEST SWAP6 POP DUP1 NOT DUP5 AND SWAP4 POP DUP1 DUP7 AND DUP5 OR SWAP3 POP POP POP SWAP4 SWAP3 POP POP POP JUMP JUMPDEST PUSH1 0x0 DUP2 SWAP1 POP SWAP2 SWAP1 POP JUMP JUMPDEST PUSH1 0x0 PUSH2 0x3F49 PUSH2 0x3F44 PUSH2 0x3F3F DUP5 PUSH2 0x3996 JUMP JUMPDEST PUSH2 0x3F24 JUMP JUMPDEST PUSH2 0x3996 JUMP JUMPDEST SWAP1 POP SWAP2 SWAP1 POP JUMP JUMPDEST PUSH1 0x0 DUP2 SWAP1 POP SWAP2 SWAP1 POP JUMP JUMPDEST PUSH2 0x3F63 DUP4 PUSH2 0x3F2E JUMP JUMPDEST PUSH2 0x3F77 PUSH2 0x3F6F DUP3 PUSH2 0x3F50 JUMP JUMPDEST DUP5 DUP5 SLOAD PUSH2 0x3ED2 JUMP JUMPDEST DUP3 SSTORE POP POP POP POP JUMP JUMPDEST PUSH1 0x0 SWAP1 JUMP JUMPDEST PUSH2 0x3F8C PUSH2 0x3F7F JUMP JUMPDEST PUSH2 0x3F97 DUP2 DUP5 DUP5 PUSH2 0x3F5A JUMP JUMPDEST POP POP POP JUMP JUMPDEST JUMPDEST DUP2 DUP2 LT ISZERO PUSH2 0x3FBB JUMPI PUSH2 0x3FB0 PUSH1 0x0 DUP3 PUSH2 0x3F84 JUMP JUMPDEST PUSH1 0x1 DUP2 ADD SWAP1 POP PUSH2 0x3F9D JUMP JUMPDEST POP POP JUMP JUMPDEST PUSH1 0x1F DUP3 GT ISZERO PUSH2 0x4000 JUMPI PUSH2 0x3FD1 DUP2 PUSH2 0x3D9A JUMP JUMPDEST PUSH2 0x3FDA DUP5 PUSH2 0x3EB5 JUMP JUMPDEST DUP2 ADD PUSH1 0x20 DUP6 LT ISZERO PUSH2 0x3FE9 JUMPI DUP2 SWAP1 POP JUMPDEST PUSH2 0x3FFD PUSH2 0x3FF5 DUP6 PUSH2 0x3EB5 JUMP JUMPDEST DUP4 ADD DUP3 PUSH2 0x3F9C JUMP JUMPDEST POP POP JUMPDEST POP POP POP JUMP JUMPDEST PUSH1 0x0 DUP3 DUP3 SHR SWAP1 POP SWAP3 SWAP2 POP POP JUMP JUMPDEST PUSH1 0x0 PUSH2 0x4023 PUSH1 0x0 NOT DUP5 PUSH1 0x8 MUL PUSH2 0x4005 JUMP JUMPDEST NOT DUP1 DUP4 AND SWAP2 POP POP SWAP3 SWAP2 POP POP JUMP JUMPDEST PUSH1 0x0 PUSH2 0x403C DUP4 DUP4 PUSH2 0x4012 JUMP JUMPDEST SWAP2 POP DUP3 PUSH1 0x2 MUL DUP3 OR SWAP1 POP SWAP3 SWAP2 POP POP JUMP JUMPDEST PUSH2 0x4055 DUP3 PUSH2 0x37D8 JUMP JUMPDEST PUSH8 0xFFFFFFFFFFFFFFFF DUP2 GT ISZERO PUSH2 0x406E JUMPI PUSH2 0x406D PUSH2 0x34AB JUMP JUMPDEST JUMPDEST PUSH2 0x4078 DUP3 SLOAD PUSH2 0x3D69 JUMP JUMPDEST PUSH2 0x4083 DUP3 DUP3 DUP6 PUSH2 0x3FBF JUMP JUMPDEST PUSH1 0x0 PUSH1 0x20 SWAP1 POP PUSH1 0x1F DUP4 GT PUSH1 0x1 DUP2 EQ PUSH2 0x40B6 JUMPI PUSH1 0x0 DUP5 ISZERO PUSH2 0x40A4 JUMPI DUP3 DUP8 ADD MLOAD SWAP1 POP JUMPDEST PUSH2 0x40AE DUP6 DUP3 PUSH2 0x4030 JUMP JUMPDEST DUP7 SSTORE POP PUSH2 0x4116 JUMP JUMPDEST PUSH1 0x1F NOT DUP5 AND PUSH2 0x40C4 DUP7 PUSH2 0x3D9A JUMP JUMPDEST PUSH1 0x0 JUMPDEST DUP3 DUP2 LT ISZERO PUSH2 0x40EC JUMPI DUP5 DUP10 ADD MLOAD DUP3 SSTORE PUSH1 0x1 DUP3 ADD SWAP2 POP PUSH1 0x20 DUP6 ADD SWAP5 POP PUSH1 0x20 DUP2 ADD SWAP1 POP PUSH2 0x40C7 JUMP JUMPDEST DUP7 DUP4 LT ISZERO PUSH2 0x4109 JUMPI DUP5 DUP10 ADD MLOAD PUSH2 0x4105 PUSH1 0x1F DUP10 AND DUP3 PUSH2 0x4012 JUMP JUMPDEST DUP4 SSTORE POP JUMPDEST PUSH1 0x1 PUSH1 0x2 DUP9 MUL ADD DUP9 SSTORE POP POP POP JUMPDEST POP POP POP POP POP POP JUMP JUMPDEST PUSH32 0x5573657220726F6F74206E6F7420696E697469616C697A656400000000000000 PUSH1 0x0 DUP3 ADD MSTORE POP JUMP JUMPDEST PUSH1 0x0 PUSH2 0x4154 PUSH1 0x19 DUP4 PUSH2 0x37E3 JUMP JUMPDEST SWAP2 POP PUSH2 0x415F DUP3 PUSH2 0x411E JUMP JUMPDEST PUSH1 0x20 DUP3 ADD SWAP1 POP SWAP2 SWAP1 POP JUMP JUMPDEST PUSH1 0x0 PUSH1 0x20 DUP3 ADD SWAP1 POP DUP2 DUP2 SUB PUSH1 0x0 DUP4 ADD MSTORE PUSH2 0x4183 DUP2 PUSH2 0x4147 JUMP JUMPDEST SWAP1 POP SWAP2 SWAP1 POP JUMP JUMPDEST PUSH32 0x4E487B7100000000000000000000000000000000000000000000000000000000 PUSH1 0x0 MSTORE PUSH1 0x32 PUSH1 0x4 MSTORE PUSH1 0x24 PUSH1 0x0 REVERT JUMPDEST PUSH1 0x0 PUSH2 0x41C4 DUP3 PUSH2 0x37D8 JUMP JUMPDEST PUSH2 0x41CE DUP2 DUP6 PUSH2 0x3CCE JUMP JUMPDEST SWAP4 POP PUSH2 0x41DE DUP2 DUP6 PUSH1 0x20 DUP7 ADD PUSH2 0x37F4 JUMP JUMPDEST DUP1 DUP5 ADD SWAP2 POP POP SWAP3 SWAP2 POP POP JUMP JUMPDEST PUSH1 0x0 PUSH2 0x41F6 DUP3 DUP5 PUSH2 0x41B9 JUMP JUMPDEST SWAP2 POP DUP2 SWAP1 POP SWAP3 SWAP2 POP POP JUMP JUMPDEST PUSH32 0x5061746820646F6573206E6F7420657869737420617420696E64657820000000 PUSH1 0x0 DUP3 ADD MSTORE POP JUMP JUMPDEST PUSH1 0x0 PUSH2 0x4237 PUSH1 0x1D DUP4 PUSH2 0x3CCE JUMP JUMPDEST SWAP2 POP PUSH2 0x4242 DUP3 PUSH2 0x4201 JUMP JUMPDEST PUSH1 0x1D DUP3 ADD SWAP1 POP SWAP2 SWAP1 POP JUMP JUMPDEST PUSH1 0x0 PUSH2 0x4258 DUP3 PUSH2 0x422A JUMP JUMPDEST SWAP2 POP PUSH2 0x4264 DUP3 DUP5 PUSH2 0x41B9 JUMP JUMPDEST SWAP2 POP DUP2 SWAP1 POP SWAP3 SWAP2 POP POP JUMP JUMPDEST PUSH32 0x4E487B7100000000000000000000000000000000000000000000000000000000 PUSH1 0x0 MSTORE PUSH1 0x11 PUSH1 0x4 MSTORE PUSH1 0x24 PUSH1 0x0 REVERT JUMPDEST PUSH1 0x0 PUSH2 0x42A9 DUP3 PUSH2 0x3996 JUMP JUMPDEST SWAP2 POP PUSH2 0x42B4 DUP4 PUSH2 0x3996 JUMP JUMPDEST SWAP3 POP DUP3 DUP3 SUB SWAP1 POP DUP2 DUP2 GT ISZERO PUSH2 0x42CC JUMPI PUSH2 0x42CB PUSH2 0x426F JUMP JUMPDEST JUMPDEST SWAP3 SWAP2 POP POP JUMP JUMPDEST PUSH1 0x0 PUSH2 0x42DD DUP3 PUSH2 0x3996 JUMP JUMPDEST SWAP2 POP PUSH2 0x42E8 DUP4 PUSH2 0x3996 JUMP JUMPDEST SWAP3 POP DUP3 DUP3 ADD SWAP1 POP DUP1 DUP3 GT ISZERO PUSH2 0x4300 JUMPI PUSH2 0x42FF PUSH2 0x426F JUMP JUMPDEST JUMPDEST SWAP3 SWAP2 POP POP JUMP JUMPDEST PUSH1 0x0 DUP2 SLOAD SWAP1 POP PUSH2 0x4315 DUP2 PUSH2 0x3D69 JUMP JUMPDEST SWAP1 POP SWAP2 SWAP1 POP JUMP JUMPDEST DUP2 DUP2 SUB PUSH2 0x432A JUMPI POP POP PUSH2 0x4402 JUMP JUMPDEST PUSH2 0x4333 DUP3 PUSH2 0x4306 JUMP JUMPDEST PUSH8 0xFFFFFFFFFFFFFFFF DUP2 GT ISZERO PUSH2 0x434C JUMPI PUSH2 0x434B PUSH2 0x34AB JUMP JUMPDEST JUMPDEST PUSH2 0x4356 DUP3 SLOAD PUSH2 0x3D69 JUMP JUMPDEST PUSH2 0x4361 DUP3 DUP3 DUP6 PUSH2 0x3FBF JUMP JUMPDEST PUSH1 0x0 PUSH1 0x1F DUP4 GT PUSH1 0x1 DUP2 EQ PUSH2 0x4390 JUMPI PUSH1 0x0 DUP5 ISZERO PUSH2 0x437E JUMPI DUP3 DUP8 ADD SLOAD SWAP1 POP JUMPDEST PUSH2 0x4388 DUP6 DUP3 PUSH2 0x4030 JUMP JUMPDEST DUP7 SSTORE POP PUSH2 0x43FB JUMP JUMPDEST PUSH1 0x1F NOT DUP5 AND PUSH2 0x439E DUP8 PUSH2 0x3D9A JUMP JUMPDEST SWAP7 POP PUSH2 0x43A9 DUP7 PUSH2 0x3D9A JUMP JUMPDEST PUSH1 0x0 JUMPDEST DUP3 DUP2 LT ISZERO PUSH2 0x43D1 JUMPI DUP5 DUP10 ADD SLOAD DUP3 SSTORE PUSH1 0x1 DUP3 ADD SWAP2 POP PUSH1 0x1 DUP6 ADD SWAP5 POP PUSH1 0x20 DUP2 ADD SWAP1 POP PUSH2 0x43AC JUMP JUMPDEST DUP7 DUP4 LT ISZERO PUSH2 0x43EE JUMPI DUP5 DUP10 ADD SLOAD PUSH2 0x43EA PUSH1 0x1F DUP10 AND DUP3 PUSH2 0x4012 JUMP JUMPDEST DUP4 SSTORE POP JUMPDEST PUSH1 0x1 PUSH1 0x2 DUP9 MUL ADD DUP9 SSTORE POP POP POP JUMPDEST POP POP POP POP POP POP JUMPDEST JUMP JUMPDEST PUSH32 0x4E487B7100000000000000000000000000000000000000000000000000000000 PUSH1 0x0 MSTORE PUSH1 0x31 PUSH1 0x4 MSTORE PUSH1 0x24 PUSH1 0x0 REVERT JUMPDEST PUSH32 0x46696C6520646F6573206E6F7420657869737420696E20726F6F7420666F6C64 PUSH1 0x0 DUP3 ADD MSTORE PUSH32 0x6572000000000000000000000000000000000000000000000000000000000000 PUSH1 0x20 DUP3 ADD MSTORE POP JUMP JUMPDEST PUSH1 0x0 PUSH2 0x448F PUSH1 0x22 DUP4 PUSH2 0x37E3 JUMP JUMPDEST SWAP2 POP PUSH2 0x449A DUP3 PUSH2 0x4433 JUMP JUMPDEST PUSH1 0x40 DUP3 ADD SWAP1 POP SWAP2 SWAP1 POP JUMP JUMPDEST PUSH1 0x0 PUSH1 0x20 DUP3 ADD SWAP1 POP DUP2 DUP2 SUB PUSH1 0x0 DUP4 ADD MSTORE PUSH2 0x44BE DUP2 PUSH2 0x4482 JUMP JUMPDEST SWAP1 POP SWAP2 SWAP1 POP JUMP JUMPDEST PUSH32 0x46696C652077697468207370656369666965642043494420646F6573206E6F74 PUSH1 0x0 DUP3 ADD MSTORE PUSH32 0x20657869737420696E20736861726564546F50656F706C650000000000000000 PUSH1 0x20 DUP3 ADD MSTORE POP JUMP JUMPDEST PUSH1 0x0 PUSH2 0x4521 PUSH1 0x38 DUP4 PUSH2 0x37E3 JUMP JUMPDEST SWAP2 POP PUSH2 0x452C DUP3 PUSH2 0x44C5 JUMP JUMPDEST PUSH1 0x40 DUP3 ADD SWAP1 POP SWAP2 SWAP1 POP JUMP JUMPDEST PUSH1 0x0 PUSH1 0x20 DUP3 ADD SWAP1 POP DUP2 DUP2 SUB PUSH1 0x0 DUP4 ADD MSTORE PUSH2 0x4550 DUP2 PUSH2 0x4514 JUMP JUMPDEST SWAP1 POP SWAP2 SWAP1 POP JUMP JUMPDEST PUSH32 0x5061746820646F6573206E6F7420657869737400000000000000000000000000 PUSH1 0x0 DUP3 ADD MSTORE POP JUMP JUMPDEST PUSH1 0x0 PUSH2 0x458D PUSH1 0x13 DUP4 PUSH2 0x37E3 JUMP JUMPDEST SWAP2 POP PUSH2 0x4598 DUP3 PUSH2 0x4557 JUMP JUMPDEST PUSH1 0x20 DUP3 ADD SWAP1 POP SWAP2 SWAP1 POP JUMP JUMPDEST PUSH1 0x0 PUSH1 0x20 DUP3 ADD SWAP1 POP DUP2 DUP2 SUB PUSH1 0x0 DUP4 ADD MSTORE PUSH2 0x45BC DUP2 PUSH2 0x4580 JUMP JUMPDEST SWAP1 POP SWAP2 SWAP1 POP JUMP JUMPDEST PUSH32 0x7B226E616D65223A220000000000000000000000000000000000000000000000 PUSH1 0x0 DUP3 ADD MSTORE POP JUMP JUMPDEST PUSH1 0x0 PUSH2 0x45F9 PUSH1 0x9 DUP4 PUSH2 0x3CCE JUMP JUMPDEST SWAP2 POP PUSH2 0x4604 DUP3 PUSH2 0x45C3 JUMP JUMPDEST PUSH1 0x9 DUP3 ADD SWAP1 POP SWAP2 SWAP1 POP JUMP JUMPDEST PUSH32 0x222C226F776E6572223A22000000000000000000000000000000000000000000 PUSH1 0x0 DUP3 ADD MSTORE POP JUMP JUMPDEST PUSH1 0x0 PUSH2 0x4645 PUSH1 0xB DUP4 PUSH2 0x3CCE JUMP JUMPDEST SWAP2 POP PUSH2 0x4650 DUP3 PUSH2 0x460F JUMP JUMPDEST PUSH1 0xB DUP3 ADD SWAP1 POP SWAP2 SWAP1 POP JUMP JUMPDEST PUSH32 0x222C22637265617465644174223A220000000000000000000000000000000000 PUSH1 0x0 DUP3 ADD MSTORE POP JUMP JUMPDEST PUSH1 0x0 PUSH2 0x4691 PUSH1 0xF DUP4 PUSH2 0x3CCE JUMP JUMPDEST SWAP2 POP PUSH2 0x469C DUP3 PUSH2 0x465B JUMP JUMPDEST PUSH1 0xF DUP3 ADD SWAP1 POP SWAP2 SWAP1 POP JUMP JUMPDEST PUSH32 0x2200000000000000000000000000000000000000000000000000000000000000 PUSH1 0x0 DUP3 ADD MSTORE POP JUMP JUMPDEST PUSH1 0x0 PUSH2 0x46DD PUSH1 0x1 DUP4 PUSH2 0x3CCE JUMP JUMPDEST SWAP2 POP PUSH2 0x46E8 DUP3 PUSH2 0x46A7 JUMP JUMPDEST PUSH1 0x1 DUP3 ADD SWAP1 POP SWAP2 SWAP1 POP JUMP JUMPDEST PUSH1 0x0 PUSH2 0x46FE DUP3 PUSH2 0x45EC JUMP JUMPDEST SWAP2 POP PUSH2 0x470A DUP3 DUP7 PUSH2 0x3DAF JUMP JUMPDEST SWAP2 POP PUSH2 0x4715 DUP3 PUSH2 0x4638 JUMP JUMPDEST SWAP2 POP PUSH2 0x4721 DUP3 DUP6 PUSH2 0x41B9 JUMP JUMPDEST SWAP2 POP PUSH2 0x472C DUP3 PUSH2 0x4684 JUMP JUMPDEST SWAP2 POP PUSH2 0x4738 DUP3 DUP5 PUSH2 0x41B9 JUMP JUMPDEST SWAP2 POP PUSH2 0x4743 DUP3 PUSH2 0x46D0 JUMP JUMPDEST SWAP2 POP DUP2 SWAP1 POP SWAP5 SWAP4 POP POP POP POP JUMP JUMPDEST PUSH32 0x2C2266696C6573223A5B00000000000000000000000000000000000000000000 PUSH1 0x0 DUP3 ADD MSTORE POP JUMP JUMPDEST PUSH1 0x0 PUSH2 0x4786 PUSH1 0xA DUP4 PUSH2 0x3CCE JUMP JUMPDEST SWAP2 POP PUSH2 0x4791 DUP3 PUSH2 0x4750 JUMP JUMPDEST PUSH1 0xA DUP3 ADD SWAP1 POP SWAP2 SWAP1 POP JUMP JUMPDEST PUSH1 0x0 PUSH2 0x47A8 DUP3 DUP5 PUSH2 0x41B9 JUMP JUMPDEST SWAP2 POP PUSH2 0x47B3 DUP3 PUSH2 0x4779 JUMP JUMPDEST SWAP2 POP DUP2 SWAP1 POP SWAP3 SWAP2 POP POP JUMP JUMPDEST PUSH32 0x222C22636964223A220000000000000000000000000000000000000000000000 PUSH1 0x0 DUP3 ADD MSTORE POP JUMP JUMPDEST PUSH1 0x0 PUSH2 0x47F4 PUSH1 0x9 DUP4 PUSH2 0x3CCE JUMP JUMPDEST SWAP2 POP PUSH2 0x47FF DUP3 PUSH2 0x47BE JUMP JUMPDEST PUSH1 0x9 DUP3 ADD SWAP1 POP SWAP2 SWAP1 POP JUMP JUMPDEST PUSH32 0x222C2273697A65223A2200000000000000000000000000000000000000000000 PUSH1 0x0 DUP3 ADD MSTORE POP JUMP JUMPDEST PUSH1 0x0 PUSH2 0x4840 PUSH1 0xA DUP4 PUSH2 0x3CCE JUMP JUMPDEST SWAP2 POP PUSH2 0x484B DUP3 PUSH2 0x480A JUMP JUMPDEST PUSH1 0xA DUP3 ADD SWAP1 POP SWAP2 SWAP1 POP JUMP JUMPDEST PUSH32 0x222C2266696C6554797065223A22000000000000000000000000000000000000 PUSH1 0x0 DUP3 ADD MSTORE POP JUMP JUMPDEST PUSH1 0x0 PUSH2 0x488C PUSH1 0xE DUP4 PUSH2 0x3CCE JUMP JUMPDEST SWAP2 POP PUSH2 0x4897 DUP3 PUSH2 0x4856 JUMP JUMPDEST PUSH1 0xE DUP3 ADD SWAP1 POP SWAP2 SWAP1 POP JUMP JUMPDEST PUSH32 0x227D000000000000000000000000000000000000000000000000000000000000 PUSH1 0x0 DUP3 ADD MSTORE POP JUMP JUMPDEST PUSH1 0x0 PUSH2 0x48D8 PUSH1 0x2 DUP4 PUSH2 0x3CCE JUMP JUMPDEST SWAP2 POP PUSH2 0x48E3 DUP3 PUSH2 0x48A2 JUMP JUMPDEST PUSH1 0x2 DUP3 ADD SWAP1 POP SWAP2 SWAP1 POP JUMP JUMPDEST PUSH1 0x0 PUSH2 0x48FA DUP3 DUP11 PUSH2 0x41B9 JUMP JUMPDEST SWAP2 POP PUSH2 0x4905 DUP3 PUSH2 0x45EC JUMP JUMPDEST SWAP2 POP PUSH2 0x4911 DUP3 DUP10 PUSH2 0x3DAF JUMP JUMPDEST SWAP2 POP PUSH2 0x491C DUP3 PUSH2 0x47E7 JUMP JUMPDEST SWAP2 POP PUSH2 0x4928 DUP3 DUP9 PUSH2 0x3DAF JUMP JUMPDEST SWAP2 POP PUSH2 0x4933 DUP3 PUSH2 0x4833 JUMP JUMPDEST SWAP2 POP PUSH2 0x493F DUP3 DUP8 PUSH2 0x41B9 JUMP JUMPDEST SWAP2 POP PUSH2 0x494A DUP3 PUSH2 0x4684 JUMP JUMPDEST SWAP2 POP PUSH2 0x4956 DUP3 DUP7 PUSH2 0x41B9 JUMP JUMPDEST SWAP2 POP PUSH2 0x4961 DUP3 PUSH2 0x4638 JUMP JUMPDEST SWAP2 POP PUSH2 0x496D DUP3 DUP6 PUSH2 0x41B9 JUMP JUMPDEST SWAP2 POP PUSH2 0x4978 DUP3 PUSH2 0x487F JUMP JUMPDEST SWAP2 POP PUSH2 0x4984 DUP3 DUP5 PUSH2 0x3DAF JUMP JUMPDEST SWAP2 POP PUSH2 0x498F DUP3 PUSH2 0x48CB JUMP JUMPDEST SWAP2 POP DUP2 SWAP1 POP SWAP9 SWAP8 POP POP POP POP POP POP POP POP JUMP JUMPDEST PUSH32 0x2C00000000000000000000000000000000000000000000000000000000000000 PUSH1 0x0 DUP3 ADD MSTORE POP JUMP JUMPDEST PUSH1 0x0 PUSH2 0x49D6 PUSH1 0x1 DUP4 PUSH2 0x3CCE JUMP JUMPDEST SWAP2 POP PUSH2 0x49E1 DUP3 PUSH2 0x49A0 JUMP JUMPDEST PUSH1 0x1 DUP3 ADD SWAP1 POP SWAP2 SWAP1 POP JUMP JUMPDEST PUSH1 0x0 PUSH2 0x49F8 DUP3 DUP5 PUSH2 0x41B9 JUMP JUMPDEST SWAP2 POP PUSH2 0x4A03 DUP3 PUSH2 0x49C9 JUMP JUMPDEST SWAP2 POP DUP2 SWAP1 POP SWAP3 SWAP2 POP POP JUMP JUMPDEST PUSH32 0x5D00000000000000000000000000000000000000000000000000000000000000 PUSH1 0x0 DUP3 ADD MSTORE POP JUMP JUMPDEST PUSH1 0x0 PUSH2 0x4A44 PUSH1 0x1 DUP4 PUSH2 0x3CCE JUMP JUMPDEST SWAP2 POP PUSH2 0x4A4F DUP3 PUSH2 0x4A0E JUMP JUMPDEST PUSH1 0x1 DUP3 ADD SWAP1 POP SWAP2 SWAP1 POP JUMP JUMPDEST PUSH1 0x0 PUSH2 0x4A66 DUP3 DUP5 PUSH2 0x41B9 JUMP JUMPDEST SWAP2 POP PUSH2 0x4A71 DUP3 PUSH2 0x4A37 JUMP JUMPDEST SWAP2 POP DUP2 SWAP1 POP SWAP3 SWAP2 POP POP JUMP JUMPDEST PUSH32 0x2C22666F6C64657273223A5B0000000000000000000000000000000000000000 PUSH1 0x0 DUP3 ADD MSTORE POP JUMP JUMPDEST PUSH1 0x0 PUSH2 0x4AB2 PUSH1 0xC DUP4 PUSH2 0x3CCE JUMP JUMPDEST SWAP2 POP PUSH2 0x4ABD DUP3 PUSH2 0x4A7C JUMP JUMPDEST PUSH1 0xC DUP3 ADD SWAP1 POP SWAP2 SWAP1 POP JUMP JUMPDEST PUSH1 0x0 PUSH2 0x4AD4 DUP3 DUP5 PUSH2 0x41B9 JUMP JUMPDEST SWAP2 POP PUSH2 0x4ADF DUP3 PUSH2 0x4AA5 JUMP JUMPDEST SWAP2 POP DUP2 SWAP1 POP SWAP3 SWAP2 POP POP JUMP JUMPDEST PUSH1 0x0 PUSH2 0x4AF6 DUP3 DUP8 PUSH2 0x41B9 JUMP JUMPDEST SWAP2 POP PUSH2 0x4B01 DUP3 PUSH2 0x45EC JUMP JUMPDEST SWAP2 POP PUSH2 0x4B0D DUP3 DUP7 PUSH2 0x3DAF JUMP JUMPDEST SWAP2 POP PUSH2 0x4B18 DUP3 PUSH2 0x4638 JUMP JUMPDEST SWAP2 POP PUSH2 0x4B24 DUP3 DUP6 PUSH2 0x41B9 JUMP JUMPDEST SWAP2 POP PUSH2 0x4B2F DUP3 PUSH2 0x4684 JUMP JUMPDEST SWAP2 POP PUSH2 0x4B3B DUP3 DUP5 PUSH2 0x41B9 JUMP JUMPDEST SWAP2 POP PUSH2 0x4B46 DUP3 PUSH2 0x48CB JUMP JUMPDEST SWAP2 POP DUP2 SWAP1 POP SWAP6 SWAP5 POP POP POP POP POP JUMP JUMPDEST PUSH32 0x7D00000000000000000000000000000000000000000000000000000000000000 PUSH1 0x0 DUP3 ADD MSTORE POP JUMP JUMPDEST PUSH1 0x0 PUSH2 0x4B8A PUSH1 0x1 DUP4 PUSH2 0x3CCE JUMP JUMPDEST SWAP2 POP PUSH2 0x4B95 DUP3 PUSH2 0x4B54 JUMP JUMPDEST PUSH1 0x1 DUP3 ADD SWAP1 POP SWAP2 SWAP1 POP JUMP JUMPDEST PUSH1 0x0 PUSH2 0x4BAC DUP3 DUP5 PUSH2 0x41B9 JUMP JUMPDEST SWAP2 POP PUSH2 0x4BB7 DUP3 PUSH2 0x4B7D JUMP JUMPDEST SWAP2 POP DUP2 SWAP1 POP SWAP3 SWAP2 POP POP JUMP JUMPDEST PUSH32 0x46696C652077697468207370656369666965642043494420646F6573206E6F74 PUSH1 0x0 DUP3 ADD MSTORE PUSH32 0x20657869737420696E20736861726564576974684D6500000000000000000000 PUSH1 0x20 DUP3 ADD MSTORE POP JUMP JUMPDEST PUSH1 0x0 PUSH2 0x4C1E PUSH1 0x36 DUP4 PUSH2 0x37E3 JUMP JUMPDEST SWAP2 POP PUSH2 0x4C29 DUP3 PUSH2 0x4BC2 JUMP JUMPDEST PUSH1 0x40 DUP3 ADD SWAP1 POP SWAP2 SWAP1 POP JUMP JUMPDEST PUSH1 0x0 PUSH1 0x20 DUP3 ADD SWAP1 POP DUP2 DUP2 SUB PUSH1 0x0 DUP4 ADD MSTORE PUSH2 0x4C4D DUP2 PUSH2 0x4C11 JUMP JUMPDEST SWAP1 POP SWAP2 SWAP1 POP JUMP JUMPDEST PUSH32 0x466F6C64657220646F6573206E6F742065786973740000000000000000000000 PUSH1 0x0 DUP3 ADD MSTORE POP JUMP JUMPDEST PUSH1 0x0 PUSH2 0x4C8A PUSH1 0x15 DUP4 PUSH2 0x37E3 JUMP JUMPDEST SWAP2 POP PUSH2 0x4C95 DUP3 PUSH2 0x4C54 JUMP JUMPDEST PUSH1 0x20 DUP3 ADD SWAP1 POP SWAP2 SWAP1 POP JUMP JUMPDEST PUSH1 0x0 PUSH1 0x20 DUP3 ADD SWAP1 POP DUP2 DUP2 SUB PUSH1 0x0 DUP4 ADD MSTORE PUSH2 0x4CB9 DUP2 PUSH2 0x4C7D JUMP JUMPDEST SWAP1 POP SWAP2 SWAP1 POP JUMP JUMPDEST PUSH32 0x222C22746F223A22000000000000000000000000000000000000000000000000 PUSH1 0x0 DUP3 ADD MSTORE POP JUMP JUMPDEST PUSH1 0x0 PUSH2 0x4CF6 PUSH1 0x8 DUP4 PUSH2 0x3CCE JUMP JUMPDEST SWAP2 POP PUSH2 0x4D01 DUP3 PUSH2 0x4CC0 JUMP JUMPDEST PUSH1 0x8 DUP3 ADD SWAP1 POP SWAP2 SWAP1 POP JUMP JUMPDEST PUSH1 0x0 PUSH2 0x4D17 DUP3 PUSH2 0x45EC JUMP JUMPDEST SWAP2 POP PUSH2 0x4D23 DUP3 DUP10 PUSH2 0x3DAF JUMP JUMPDEST SWAP2 POP PUSH2 0x4D2E DUP3 PUSH2 0x4638 JUMP JUMPDEST SWAP2 POP PUSH2 0x4D3A DUP3 DUP9 PUSH2 0x41B9 JUMP JUMPDEST SWAP2 POP PUSH2 0x4D45 DUP3 PUSH2 0x4684 JUMP JUMPDEST SWAP2 POP PUSH2 0x4D51 DUP3 DUP8 PUSH2 0x41B9 JUMP JUMPDEST SWAP2 POP PUSH2 0x4D5C DUP3 PUSH2 0x4CE9 JUMP JUMPDEST SWAP2 POP PUSH2 0x4D68 DUP3 DUP7 PUSH2 0x41B9 JUMP JUMPDEST SWAP2 POP PUSH2 0x4D73 DUP3 PUSH2 0x47E7 JUMP JUMPDEST SWAP2 POP PUSH2 0x4D7F DUP3 DUP6 PUSH2 0x3DAF JUMP JUMPDEST SWAP2 POP PUSH2 0x4D8A DUP3 PUSH2 0x487F JUMP JUMPDEST SWAP2 POP PUSH2 0x4D96 DUP3 DUP5 PUSH2 0x3DAF JUMP JUMPDEST SWAP2 POP PUSH2 0x4DA1 DUP3 PUSH2 0x48CB JUMP JUMPDEST SWAP2 POP DUP2 SWAP1 POP SWAP8 SWAP7 POP POP POP POP POP POP POP JUMP JUMPDEST PUSH1 0x0 PUSH2 0x4DBD DUP3 DUP6 PUSH2 0x41B9 JUMP JUMPDEST SWAP2 POP PUSH2 0x4DC9 DUP3 DUP5 PUSH2 0x41B9 JUMP JUMPDEST SWAP2 POP DUP2 SWAP1 POP SWAP4 SWAP3 POP POP POP JUMP JUMPDEST PUSH32 0x7B22736861726564546F50656F706C65223A0000000000000000000000000000 PUSH1 0x0 DUP3 ADD MSTORE POP JUMP JUMPDEST PUSH1 0x0 PUSH2 0x4E0B PUSH1 0x12 DUP4 PUSH2 0x3CCE JUMP JUMPDEST SWAP2 POP PUSH2 0x4E16 DUP3 PUSH2 0x4DD5 JUMP JUMPDEST PUSH1 0x12 DUP3 ADD SWAP1 POP SWAP2 SWAP1 POP JUMP JUMPDEST PUSH32 0x2C22736861726564576974684D65223A00000000000000000000000000000000 PUSH1 0x0 DUP3 ADD MSTORE POP JUMP JUMPDEST PUSH1 0x0 PUSH2 0x4E57 PUSH1 0x10 DUP4 PUSH2 0x3CCE JUMP JUMPDEST SWAP2 POP PUSH2 0x4E62 DUP3 PUSH2 0x4E21 JUMP JUMPDEST PUSH1 0x10 DUP3 ADD SWAP1 POP SWAP2 SWAP1 POP JUMP JUMPDEST PUSH1 0x0 PUSH2 0x4E78 DUP3 PUSH2 0x4DFE JUMP JUMPDEST SWAP2 POP PUSH2 0x4E84 DUP3 DUP6 PUSH2 0x41B9 JUMP JUMPDEST SWAP2 POP PUSH2 0x4E8F DUP3 PUSH2 0x4E4A JUMP JUMPDEST SWAP2 POP PUSH2 0x4E9B DUP3 DUP5 PUSH2 0x41B9 JUMP JUMPDEST SWAP2 POP PUSH2 0x4EA6 DUP3 PUSH2 0x4B7D JUMP JUMPDEST SWAP2 POP DUP2 SWAP1 POP SWAP4 SWAP3 POP POP POP JUMP JUMPDEST PUSH1 0x0 PUSH2 0x4EBD DUP3 PUSH2 0x3996 JUMP JUMPDEST SWAP2 POP PUSH32 0xFFFFFFFFFFFFFFFFFFFFFFFFFFFFFFFFFFFFFFFFFFFFFFFFFFFFFFFFFFFFFFFF DUP3 SUB PUSH2 0x4EEF JUMPI PUSH2 0x4EEE PUSH2 0x426F JUMP JUMPDEST JUMPDEST PUSH1 0x1 DUP3 ADD SWAP1 POP SWAP2 SWAP1 POP JUMP JUMPDEST PUSH32 0x4E487B7100000000000000000000000000000000000000000000000000000000 PUSH1 0x0 MSTORE PUSH1 0x12 PUSH1 0x4 MSTORE PUSH1 0x24 PUSH1 0x0 REVERT JUMPDEST PUSH1 0x0 PUSH2 0x4F34 DUP3 PUSH2 0x3996 JUMP JUMPDEST SWAP2 POP PUSH2 0x4F3F DUP4 PUSH2 0x3996 JUMP JUMPDEST SWAP3 POP DUP3 PUSH2 0x4F4F JUMPI PUSH2 0x4F4E PUSH2 0x4EFA JUMP JUMPDEST JUMPDEST DUP3 DUP3 DIV SWAP1 POP SWAP3 SWAP2 POP POP JUMP JUMPDEST PUSH1 0x0 PUSH2 0x4F65 DUP3 PUSH2 0x3996 JUMP JUMPDEST SWAP2 POP PUSH2 0x4F70 DUP4 PUSH2 0x3996 JUMP JUMPDEST SWAP3 POP DUP3 DUP3 MUL PUSH2 0x4F7E DUP2 PUSH2 0x3996 JUMP JUMPDEST SWAP2 POP DUP3 DUP3 DIV DUP5 EQ DUP4 ISZERO OR PUSH2 0x4F95 JUMPI PUSH2 0x4F94 PUSH2 0x426F JUMP JUMPDEST JUMPDEST POP SWAP3 SWAP2 POP POP JUMP JUMPDEST PUSH1 0x0 PUSH1 0xFF DUP3 AND SWAP1 POP SWAP2 SWAP1 POP JUMP JUMPDEST PUSH1 0x0 PUSH2 0x4FB4 DUP3 PUSH2 0x4F9C JUMP JUMPDEST SWAP2 POP PUSH2 0x4FBF DUP4 PUSH2 0x4F9C JUMP JUMPDEST SWAP3 POP DUP3 DUP3 ADD SWAP1 POP PUSH1 0xFF DUP2 GT ISZERO PUSH2 0x4FD8 JUMPI PUSH2 0x4FD7 PUSH2 0x426F JUMP JUMPDEST JUMPDEST SWAP3 SWAP2 POP POP JUMP INVALID LOG2 PUSH5 0x6970667358 0x22 SLT KECCAK256 PUSH10 0xEFC5A299BEAB5A201521 0xB5 PUSH24 0x49959B4955DD70E73C420DEF7FD0294E0538E964736F6C63 NUMBER STOP ADDMOD XOR STOP CALLER "
        },
        "methodIdentifiers": {
          "checkUserRoot(address)": "d9ec2719",
          "createFiles(string[],(string,string,uint256,string)[],address)": "4ee37c28",
          "createFolder(string[],string,address)": "cc6cd16f",
          "deleteFile(string[],string,string,address)": "06d36558",
          "deleteFolder(string[],string,address)": "39cf4df2",
          "getFolderData(string[],address)": "140af0e2",
          "getSharedData(address)": "62bfa014",
          "giveFileAccess(address,address,string,string,uint256,uint256,string)": "cbcba28c",
          "initUserRoot(address)": "01496b84",
          "removeFileByFieldAndCid(string,address)": "341e6179"
        }
      }
    }
  }
}