{
	"data": {
		"bytecode": {
			"linkReferences": {},
			"object": "608060405234801561000f575f80fd5b5061001f3361002460201b60201c565b610453565b5f805f8373ffffffffffffffffffffffffffffffffffffffff1673ffffffffffffffffffffffffffffffffffffffff1681526020019081526020015f205f01805461006e90610177565b905003610147575f805f8373ffffffffffffffffffffffffffffffffffffffff1673ffffffffffffffffffffffffffffffffffffffff1681526020019081526020015f2090506040518060400160405280600881526020017f4d79205370616365000000000000000000000000000000000000000000000000815250815f0190816100f99190610384565b5081816001015f6101000a81548173ffffffffffffffffffffffffffffffffffffffff021916908373ffffffffffffffffffffffffffffffffffffffff160217905550428160020181905550505b50565b7f4e487b71000000000000000000000000000000000000000000000000000000005f52602260045260245ffd5b5f600282049050600182168061018e57607f821691505b6020821081036101a1576101a061014a565b5b50919050565b5f81519050919050565b7f4e487b71000000000000000000000000000000000000000000000000000000005f52604160045260245ffd5b5f819050815f5260205f209050919050565b5f6020601f8301049050919050565b5f82821b905092915050565b5f6008830261023a7fffffffffffffffffffffffffffffffffffffffffffffffffffffffffffffffff826101ff565b61024486836101ff565b95508019841693508086168417925050509392505050565b5f819050919050565b5f819050919050565b5f61028861028361027e8461025c565b610265565b61025c565b9050919050565b5f819050919050565b6102a18361026e565b6102b56102ad8261028f565b84845461020b565b825550505050565b5f90565b6102c96102bd565b6102d4818484610298565b505050565b5b818110156102f7576102ec5f826102c1565b6001810190506102da565b5050565b601f82111561033c5761030d816101de565b610316846101f0565b81016020851015610325578190505b610339610331856101f0565b8301826102d9565b50505b505050565b5f82821c905092915050565b5f61035c5f1984600802610341565b1980831691505092915050565b5f610374838361034d565b9150826002028217905092915050565b61038d826101a7565b67ffffffffffffffff8111156103a6576103a56101b1565b5b6103b08254610177565b6103bb8282856102fb565b5f60209050601f8311600181146103ec575f84156103da578287015190505b6103e48582610369565b86555061044b565b601f1984166103fa866101de565b5f5b82811015610421578489015182556001820191506020850194506020810190506103fc565b8683101561043e578489015161043a601f89168261034d565b8355505b6001600288020188555050505b505050505050565b613665806104605f395ff3fe608060405234801561000f575f80fd5b5060043610610091575f3560e01c8063e01adc0511610064578063e01adc051461011d578063e75c50511461013b578063eff9f64f14610157578063f5ded10b14610173578063f7da18c81461018f57610091565b8063243a658d1461009557806337db6c1a146100b3578063c905819b146100d1578063d3780e1014610101575b5f80fd5b61009d6101ab565b6040516100aa91906122f1565b60405180910390f35b6100bb610481565b6040516100c89190612359565b60405180910390f35b6100eb60048036038101906100e69190612598565b61054d565b6040516100f891906127a5565b60405180910390f35b61011b600480360381019061011691906127c5565b610684565b005b6101256109c4565b6040516101329190612359565b60405180910390f35b610155600480360381019061015091906127c5565b610a99565b005b610171600480360381019061016c9190612865565b610ccf565b005b61018d600480360381019061018891906129d4565b61114d565b005b6101a960048036038101906101a49190612a5c565b6113ab565b005b60605f805f3373ffffffffffffffffffffffffffffffffffffffff1673ffffffffffffffffffffffffffffffffffffffff1681526020019081526020015f2090505f816006018054905067ffffffffffffffff81111561020e5761020d61238e565b5b60405190808252806020026020018201604052801561024757816020015b610234611fa1565b81526020019060019003908161022c5790505b5090505f5b8260060180549050811015610478575f83600601828154811061027257610271612b43565b5b905f5260205f20906006020190506040518060a00160405280825f01805461029990612b9d565b80601f01602080910402602001604051908101604052809291908181526020018280546102c590612b9d565b80156103105780601f106102e757610100808354040283529160200191610310565b820191905f5260205f20905b8154815290600101906020018083116102f357829003601f168201915b5050505050815260200182600101805461032990612b9d565b80601f016020809104026020016040519081016040528092919081815260200182805461035590612b9d565b80156103a05780601f10610377576101008083540402835291602001916103a0565b820191905f5260205f20905b81548152906001019060200180831161038357829003601f168201915b50505050508152602001826002015481526020018260030180546103c390612b9d565b80601f01602080910402602001604051908101604052809291908181526020018280546103ef90612b9d565b801561043a5780601f106104115761010080835404028352916020019161043a565b820191905f5260205f20905b81548152906001019060200180831161041d57829003601f168201915b50505050508152602001826005015481525083838151811061045f5761045e612b43565b5b602002602001018190525050808060010191505061024c565b50809250505090565b60605f805f3373ffffffffffffffffffffffffffffffffffffffff1673ffffffffffffffffffffffffffffffffffffffff1681526020019081526020015f205f0180546104cd90612b9d565b905003610511576040518060400160405280601381526020017f4261736520646f6573206e6f7420657869737400000000000000000000000000815250905061054a565b6040518060400160405280601381526020017f4261736520616c7265616479206578697374730000000000000000000000000081525090505b90565b610555611fce565b5f805f3373ffffffffffffffffffffffffffffffffffffffff1673ffffffffffffffffffffffffffffffffffffffff1681526020019081526020015f2090505f5b8351811015610672575f826005018583815181106105b7576105b6612b43565b5b60200260200101516040516105cc9190612c07565b90815260200160405180910390205f0180546105e790612b9d565b905003610629576040517f08c379a000000000000000000000000000000000000000000000000000000000815260040161062090612c67565b60405180910390fd5b816005018482815181106106405761063f612b43565b5b60200260200101516040516106559190612c07565b908152602001604051809103902091508080600101915050610596565b5061067c81611611565b915050919050565b61068d33611e7b565b5f805f3373ffffffffffffffffffffffffffffffffffffffff1673ffffffffffffffffffffffffffffffffffffffff1681526020019081526020015f2090505f5b835181101561072057816005018482815181106106ee576106ed612b43565b5b60200260200101516040516107039190612c07565b9081526020016040518091039020915080806001019150506106ce565b505f81600401836040516107349190612c07565b90815260200160405180910390205f01805461074f90612b9d565b9050146107de5780600401826040516107689190612c07565b90815260200160405180910390205f8082015f6107859190611ffc565b600182015f6107949190611ffc565b600282015f9055600382015f6107aa9190611ffc565b600482015f6101000a81549073ffffffffffffffffffffffffffffffffffffffff0219169055600582015f905550506108d0565b5f81600501836040516107f19190612c07565b90815260200160405180910390205f01805461080c90612b9d565b9050146108945780600501826040516108259190612c07565b90815260200160405180910390205f8082015f6108429190611ffc565b600182015f6101000a81549073ffffffffffffffffffffffffffffffffffffffff0219169055600282015f9055600382015f61087e9190612039565b600682015f61088d9190612057565b50506108cf565b6040517f08c379a00000000000000000000000000000000000000000000000000000000081526004016108c690612ccf565b60405180910390fd5b5b5f5b81600301805490508110156109be5782805190602001208260030182815481106108ff576108fe612b43565b5b905f5260205f20016040516109149190612d89565b6040518091039020036109b15781600301600183600301805490506109399190612dcc565b8154811061094a57610949612b43565b5b905f5260205f200182600301828154811061096857610967612b43565b5b905f5260205f2001908161097c9190612fc3565b5081600301805480610991576109906130a8565b5b600190038181905f5260205f20015f6109aa9190611ffc565b90556109be565b80806001019150506108d2565b50505050565b60605f805f3373ffffffffffffffffffffffffffffffffffffffff1673ffffffffffffffffffffffffffffffffffffffff1681526020019081526020015f205f018054610a1090612b9d565b905003610a5d57610a2033611e7b565b6040518060400160405280601081526020017f4261736520696e697469616c697a6564000000000000000000000000000000008152509050610a96565b6040518060400160405280601881526020017f4261736520616c726561647920696e697469616c697a6564000000000000000081525090505b90565b610aa233611e7b565b5f805f3373ffffffffffffffffffffffffffffffffffffffff1673ffffffffffffffffffffffffffffffffffffffff1681526020019081526020015f2090505f5b8351811015610b355781600501848281518110610b0357610b02612b43565b5b6020026020010151604051610b189190612c07565b908152602001604051809103902091508080600101915050610ae3565b505f8160050183604051610b499190612c07565b90815260200160405180910390205f018054610b6490612b9d565b905014610ba6576040517f08c379a0000000000000000000000000000000000000000000000000000000008152600401610b9d9061311f565b60405180910390fd5b5f8160040183604051610bb99190612c07565b90815260200160405180910390205f018054610bd490612b9d565b905014610c16576040517f08c379a0000000000000000000000000000000000000000000000000000000008152600401610c0d906131ad565b60405180910390fd5b5f8160050183604051610c299190612c07565b9081526020016040518091039020905082815f019081610c4991906131cb565b5033816001015f6101000a81548173ffffffffffffffffffffffffffffffffffffffff021916908373ffffffffffffffffffffffffffffffffffffffff1602179055504281600201819055508160030183908060018154018082558091505060019003905f5260205f20015f909190919091509081610cc891906131cb565b5050505050565b610cd833611e7b565b5f805f3373ffffffffffffffffffffffffffffffffffffffff1673ffffffffffffffffffffffffffffffffffffffff1681526020019081526020015f2090505f5b8751811015610d6b5781600501888281518110610d3957610d38612b43565b5b6020026020010151604051610d4e9190612c07565b908152602001604051809103902091508080600101915050610d19565b505f8160040187604051610d7f9190612c07565b90815260200160405180910390205f018054610d9a90612b9d565b905003610ddc576040517f08c379a0000000000000000000000000000000000000000000000000000000008152600401610dd3906132e4565b60405180910390fd5b5f835114158015610dfb57508580519060200120838051906020012014155b15610ee1575f8160040184604051610e139190612c07565b90815260200160405180910390205f018054610e2e90612b9d565b905014610e70576040517f08c379a0000000000000000000000000000000000000000000000000000000008152600401610e679061334c565b60405180910390fd5b5f8160050184604051610e839190612c07565b90815260200160405180910390205f018054610e9e90612b9d565b905014610ee0576040517f08c379a0000000000000000000000000000000000000000000000000000000008152600401610ed7906133da565b60405180910390fd5b5b5f8160040187604051610ef49190612c07565b9081526020016040518091039020905085816001019081610f1591906131cb565b5084816002018190555082816003019081610f3091906131cb565b505f845114158015610f5057508680519060200120848051906020012014155b15611143575f5b8260030180549050811015610fe4578780519060200120836003018281548110610f8457610f83612b43565b5b905f5260205f2001604051610f999190612d89565b604051809103902003610fd75784836003018281548110610fbd57610fbc612b43565b5b905f5260205f20019081610fd191906131cb565b50610fe4565b8080600101915050610f57565b50808260040185604051610ff89190612c07565b90815260200160405180910390205f8201815f019081611018919061340d565b506001820181600101908161102d919061340d565b50600282015481600201556003820181600301908161104c919061340d565b50600482015f9054906101000a900473ffffffffffffffffffffffffffffffffffffffff16816004015f6101000a81548173ffffffffffffffffffffffffffffffffffffffff021916908373ffffffffffffffffffffffffffffffffffffffff1602179055506005820154816005015590505081600401876040516110d19190612c07565b90815260200160405180910390205f8082015f6110ee9190611ffc565b600182015f6110fd9190611ffc565b600282015f9055600382015f6111139190611ffc565b600482015f6101000a81549073ffffffffffffffffffffffffffffffffffffffff0219169055600582015f905550505b5050505050505050565b61115633611e7b565b5f805f3373ffffffffffffffffffffffffffffffffffffffff1673ffffffffffffffffffffffffffffffffffffffff1681526020019081526020015f2090505f5b84518110156111e957816005018582815181106111b7576111b6612b43565b5b60200260200101516040516111cc9190612c07565b908152602001604051809103902091508080600101915050611197565b505f81600401846040516111fd9190612c07565b90815260200160405180910390205f01805461121890612b9d565b90500361125a576040517f08c379a0000000000000000000000000000000000000000000000000000000008152600401611251906132e4565b60405180910390fd5b5f816004018460405161126d9190612c07565b9081526020016040518091039020905061128683611e7b565b5f808473ffffffffffffffffffffffffffffffffffffffff1673ffffffffffffffffffffffffffffffffffffffff1681526020019081526020015f2060060181908060018154018082558091505060019003905f5260205f2090600602015f909190919091505f8201815f0190816112fe919061340d565b5060018201816001019081611313919061340d565b506002820154816002015560038201816003019081611332919061340d565b50600482015f9054906101000a900473ffffffffffffffffffffffffffffffffffffffff16816004015f6101000a81548173ffffffffffffffffffffffffffffffffffffffff021916908373ffffffffffffffffffffffffffffffffffffffff1602179055506005820154816005015550505050505050565b6113b433611e7b565b5f805f3373ffffffffffffffffffffffffffffffffffffffff1673ffffffffffffffffffffffffffffffffffffffff1681526020019081526020015f2090505f5b8651811015611447578160050187828151811061141557611414612b43565b5b602002602001015160405161142a9190612c07565b9081526020016040518091039020915080806001019150506113f5565b505f816004018660405161145b9190612c07565b90815260200160405180910390205f01805461147690612b9d565b9050146114b8576040517f08c379a00000000000000000000000000000000000000000000000000000000081526004016114af9061353c565b60405180910390fd5b5f81600501866040516114cb9190612c07565b90815260200160405180910390205f0180546114e690612b9d565b905014611528576040517f08c379a000000000000000000000000000000000000000000000000000000000815260040161151f906135ca565b60405180910390fd5b5f816004018660405161153b9190612c07565b9081526020016040518091039020905085815f01908161155b91906131cb565b508481600101908161156d91906131cb565b508381600201819055508281600301908161158891906131cb565b5033816004015f6101000a81548173ffffffffffffffffffffffffffffffffffffffff021916908373ffffffffffffffffffffffffffffffffffffffff1602179055504281600501819055508160030186908060018154018082558091505060019003905f5260205f20015f90919091909150908161160791906131cb565b5050505050505050565b611619611fce565b5f805f5b8460030180549050811015611739575f85600301828154811061164357611642612b43565b5b905f5260205f2001805461165690612b9d565b80601f016020809104026020016040519081016040528092919081815260200182805461168290612b9d565b80156116cd5780601f106116a4576101008083540402835291602001916116cd565b820191905f5260205f20905b8154815290600101906020018083116116b057829003601f168201915b505050505090505f86600401826040516116e79190612c07565b90815260200160405180910390205f01805461170290612b9d565b90501461171c578380611714906135e8565b94505061172b565b8280611727906135e8565b9350505b50808060010191505061161d565b505f8267ffffffffffffffff8111156117555761175461238e565b5b60405190808252806020026020018201604052801561178e57816020015b61177b611fa1565b8152602001906001900390816117735790505b5090505f8267ffffffffffffffff8111156117ac576117ab61238e565b5b6040519080825280602002602001820160405280156117df57816020015b60608152602001906001900390816117ca5790505b5090505f866006018054905067ffffffffffffffff8111156118045761180361238e565b5b60405190808252806020026020018201604052801561183d57816020015b61182a611fa1565b8152602001906001900390816118225790505b5090505f805f5b8960030180549050811015611b89575f8a600301828154811061186a57611869612b43565b5b905f5260205f2001805461187d90612b9d565b80601f01602080910402602001604051908101604052809291908181526020018280546118a990612b9d565b80156118f45780601f106118cb576101008083540402835291602001916118f4565b820191905f5260205f20905b8154815290600101906020018083116118d757829003601f168201915b505050505090505f8b6004018260405161190e9190612c07565b90815260200160405180910390205f01805461192990612b9d565b905014611b4f575f8b600401826040516119439190612c07565b908152602001604051809103902090506040518060a00160405280825f01805461196c90612b9d565b80601f016020809104026020016040519081016040528092919081815260200182805461199890612b9d565b80156119e35780601f106119ba576101008083540402835291602001916119e3565b820191905f5260205f20905b8154815290600101906020018083116119c657829003601f168201915b505050505081526020018260010180546119fc90612b9d565b80601f0160208091040260200160405190810160405280929190818152602001828054611a2890612b9d565b8015611a735780601f10611a4a57610100808354040283529160200191611a73565b820191905f5260205f20905b815481529060010190602001808311611a5657829003601f168201915b5050505050815260200182600201548152602001826003018054611a9690612b9d565b80601f0160208091040260200160405190810160405280929190818152602001828054611ac290612b9d565b8015611b0d5780601f10611ae457610100808354040283529160200191611b0d565b820191905f5260205f20905b815481529060010190602001808311611af057829003601f168201915b505050505081526020018260050154815250888680611b2b906135e8565b975081518110611b3e57611b3d612b43565b5b602002602001018190525050611b7b565b80868480611b5c906135e8565b955081518110611b6f57611b6e612b43565b5b60200260200101819052505b508080600101915050611844565b505f5b8960060180549050811015611db8575f8a6006018281548110611bb257611bb1612b43565b5b905f5260205f20906006020190506040518060a00160405280825f018054611bd990612b9d565b80601f0160208091040260200160405190810160405280929190818152602001828054611c0590612b9d565b8015611c505780601f10611c2757610100808354040283529160200191611c50565b820191905f5260205f20905b815481529060010190602001808311611c3357829003601f168201915b50505050508152602001826001018054611c6990612b9d565b80601f0160208091040260200160405190810160405280929190818152602001828054611c9590612b9d565b8015611ce05780601f10611cb757610100808354040283529160200191611ce0565b820191905f5260205f20905b815481529060010190602001808311611cc357829003601f168201915b5050505050815260200182600201548152602001826003018054611d0390612b9d565b80601f0160208091040260200160405190810160405280929190818152602001828054611d2f90612b9d565b8015611d7a5780601f10611d5157610100808354040283529160200191611d7a565b820191905f5260205f20905b815481529060010190602001808311611d5d57829003601f168201915b505050505081526020018260050154815250858381518110611d9f57611d9e612b43565b5b6020026020010181905250508080600101915050611b8c565b506040518060a001604052808a5f018054611dd290612b9d565b80601f0160208091040260200160405190810160405280929190818152602001828054611dfe90612b9d565b8015611e495780601f10611e2057610100808354040283529160200191611e49565b820191905f5260205f20905b815481529060010190602001808311611e2c57829003601f168201915b505050505081526020018a60020154815260200186815260200185815260200184815250975050505050505050919050565b5f805f8373ffffffffffffffffffffffffffffffffffffffff1673ffffffffffffffffffffffffffffffffffffffff1681526020019081526020015f205f018054611ec590612b9d565b905003611f9e575f805f8373ffffffffffffffffffffffffffffffffffffffff1673ffffffffffffffffffffffffffffffffffffffff1681526020019081526020015f2090506040518060400160405280600881526020017f4d79205370616365000000000000000000000000000000000000000000000000815250815f019081611f5091906131cb565b5081816001015f6101000a81548173ffffffffffffffffffffffffffffffffffffffff021916908373ffffffffffffffffffffffffffffffffffffffff160217905550428160020181905550505b50565b6040518060a0016040528060608152602001606081526020015f8152602001606081526020015f81525090565b6040518060a00160405280606081526020015f81526020016060815260200160608152602001606081525090565b50805461200890612b9d565b5f825580601f106120195750612036565b601f0160209004905f5260205f20908101906120359190612078565b5b50565b5080545f8255905f5260205f20908101906120549190612093565b50565b5080545f8255600602905f5260205f209081019061207591906120b6565b50565b5b8082111561208f575f815f905550600101612079565b5090565b5b808211156120b2575f81816120a99190611ffc565b50600101612094565b5090565b5b80821115612129575f8082015f6120ce9190611ffc565b600182015f6120dd9190611ffc565b600282015f9055600382015f6120f39190611ffc565b600482015f6101000a81549073ffffffffffffffffffffffffffffffffffffffff0219169055600582015f9055506006016120b7565b5090565b5f81519050919050565b5f82825260208201905092915050565b5f819050602082019050919050565b5f81519050919050565b5f82825260208201905092915050565b8281835e5f83830152505050565b5f601f19601f8301169050919050565b5f61219882612156565b6121a28185612160565b93506121b2818560208601612170565b6121bb8161217e565b840191505092915050565b5f819050919050565b6121d8816121c6565b82525050565b5f60a083015f8301518482035f8601526121f8828261218e565b91505060208301518482036020860152612212828261218e565b915050604083015161222760408601826121cf565b506060830151848203606086015261223f828261218e565b915050608083015161225460808601826121cf565b508091505092915050565b5f61226a83836121de565b905092915050565b5f602082019050919050565b5f6122888261212d565b6122928185612137565b9350836020820285016122a485612147565b805f5b858110156122df57848403895281516122c0858261225f565b94506122cb83612272565b925060208a019950506001810190506122a7565b50829750879550505050505092915050565b5f6020820190508181035f830152612309818461227e565b905092915050565b5f82825260208201905092915050565b5f61232b82612156565b6123358185612311565b9350612345818560208601612170565b61234e8161217e565b840191505092915050565b5f6020820190508181035f8301526123718184612321565b905092915050565b5f604051905090565b5f80fd5b5f80fd5b5f80fd5b7f4e487b71000000000000000000000000000000000000000000000000000000005f52604160045260245ffd5b6123c48261217e565b810181811067ffffffffffffffff821117156123e3576123e261238e565b5b80604052505050565b5f6123f5612379565b905061240182826123bb565b919050565b5f67ffffffffffffffff8211156124205761241f61238e565b5b602082029050602081019050919050565b5f80fd5b5f80fd5b5f67ffffffffffffffff8211156124535761245261238e565b5b61245c8261217e565b9050602081019050919050565b828183375f83830152505050565b5f61248961248484612439565b6123ec565b9050828152602081018484840111156124a5576124a4612435565b5b6124b0848285612469565b509392505050565b5f82601f8301126124cc576124cb61238a565b5b81356124dc848260208601612477565b91505092915050565b5f6124f76124f284612406565b6123ec565b9050808382526020820190506020840283018581111561251a57612519612431565b5b835b8181101561256157803567ffffffffffffffff81111561253f5761253e61238a565b5b80860161254c89826124b8565b8552602085019450505060208101905061251c565b5050509392505050565b5f82601f83011261257f5761257e61238a565b5b813561258f8482602086016124e5565b91505092915050565b5f602082840312156125ad576125ac612382565b5b5f82013567ffffffffffffffff8111156125ca576125c9612386565b5b6125d68482850161256b565b91505092915050565b5f82825260208201905092915050565b5f6125f98261212d565b61260381856125df565b93508360208202850161261585612147565b805f5b858110156126505784840389528151612631858261225f565b945061263c83612272565b925060208a01995050600181019050612618565b50829750879550505050505092915050565b5f81519050919050565b5f82825260208201905092915050565b5f819050602082019050919050565b5f612696838361218e565b905092915050565b5f602082019050919050565b5f6126b482612662565b6126be818561266c565b9350836020820285016126d08561267c565b805f5b8581101561270b57848403895281516126ec858261268b565b94506126f78361269e565b925060208a019950506001810190506126d3565b50829750879550505050505092915050565b5f60a083015f8301518482035f860152612737828261218e565b915050602083015161274c60208601826121cf565b506040830151848203604086015261276482826125ef565b9150506060830151848203606086015261277e82826126aa565b9150506080830151848203608086015261279882826125ef565b9150508091505092915050565b5f6020820190508181035f8301526127bd818461271d565b905092915050565b5f80604083850312156127db576127da612382565b5b5f83013567ffffffffffffffff8111156127f8576127f7612386565b5b6128048582860161256b565b925050602083013567ffffffffffffffff81111561282557612824612386565b5b612831858286016124b8565b9150509250929050565b612844816121c6565b811461284e575f80fd5b50565b5f8135905061285f8161283b565b92915050565b5f805f805f8060c0878903121561287f5761287e612382565b5b5f87013567ffffffffffffffff81111561289c5761289b612386565b5b6128a889828a0161256b565b965050602087013567ffffffffffffffff8111156128c9576128c8612386565b5b6128d589828a016124b8565b955050604087013567ffffffffffffffff8111156128f6576128f5612386565b5b61290289828a016124b8565b945050606061291389828a01612851565b935050608087013567ffffffffffffffff81111561293457612933612386565b5b61294089828a016124b8565b92505060a087013567ffffffffffffffff81111561296157612960612386565b5b61296d89828a016124b8565b9150509295509295509295565b5f73ffffffffffffffffffffffffffffffffffffffff82169050919050565b5f6129a38261297a565b9050919050565b6129b381612999565b81146129bd575f80fd5b50565b5f813590506129ce816129aa565b92915050565b5f805f606084860312156129eb576129ea612382565b5b5f84013567ffffffffffffffff811115612a0857612a07612386565b5b612a148682870161256b565b935050602084013567ffffffffffffffff811115612a3557612a34612386565b5b612a41868287016124b8565b9250506040612a52868287016129c0565b9150509250925092565b5f805f805f60a08688031215612a7557612a74612382565b5b5f86013567ffffffffffffffff811115612a9257612a91612386565b5b612a9e8882890161256b565b955050602086013567ffffffffffffffff811115612abf57612abe612386565b5b612acb888289016124b8565b945050604086013567ffffffffffffffff811115612aec57612aeb612386565b5b612af8888289016124b8565b9350506060612b0988828901612851565b925050608086013567ffffffffffffffff811115612b2a57612b29612386565b5b612b36888289016124b8565b9150509295509295909350565b7f4e487b71000000000000000000000000000000000000000000000000000000005f52603260045260245ffd5b7f4e487b71000000000000000000000000000000000000000000000000000000005f52602260045260245ffd5b5f6002820490506001821680612bb457607f821691505b602082108103612bc757612bc6612b70565b5b50919050565b5f81905092915050565b5f612be182612156565b612beb8185612bcd565b9350612bfb818560208601612170565b80840191505092915050565b5f612c128284612bd7565b915081905092915050565b7f466f6c64657220646f6573206e6f7420657869737400000000000000000000005f82015250565b5f612c51601583612311565b9150612c5c82612c1d565b602082019050919050565b5f6020820190508181035f830152612c7e81612c45565b9050919050565b7f4974656d20646f6573206e6f74206578697374000000000000000000000000005f82015250565b5f612cb9601383612311565b9150612cc482612c85565b602082019050919050565b5f6020820190508181035f830152612ce681612cad565b9050919050565b5f81905092915050565b5f819050815f5260205f209050919050565b5f8154612d1581612b9d565b612d1f8186612ced565b9450600182165f8114612d395760018114612d4e57612d80565b60ff1983168652811515820286019350612d80565b612d5785612cf7565b5f5b83811015612d7857815481890152600182019150602081019050612d59565b838801955050505b50505092915050565b5f612d948284612d09565b915081905092915050565b7f4e487b71000000000000000000000000000000000000000000000000000000005f52601160045260245ffd5b5f612dd6826121c6565b9150612de1836121c6565b9250828203905081811115612df957612df8612d9f565b5b92915050565b5f81549050612e0d81612b9d565b9050919050565b5f819050815f5260205f209050919050565b5f819050815f5260205f209050919050565b5f6020601f8301049050919050565b5f82821b905092915050565b5f60088302612e827fffffffffffffffffffffffffffffffffffffffffffffffffffffffffffffffff82612e47565b612e8c8683612e47565b95508019841693508086168417925050509392505050565b5f819050919050565b5f612ec7612ec2612ebd846121c6565b612ea4565b6121c6565b9050919050565b5f819050919050565b612ee083612ead565b612ef4612eec82612ece565b848454612e53565b825550505050565b5f90565b612f08612efc565b612f13818484612ed7565b505050565b5b81811015612f3657612f2b5f82612f00565b600181019050612f19565b5050565b601f821115612f7b57612f4c81612e14565b612f5584612e38565b81016020851015612f64578190505b612f78612f7085612e38565b830182612f18565b50505b505050565b5f82821c905092915050565b5f612f9b5f1984600802612f80565b1980831691505092915050565b5f612fb38383612f8c565b9150826002028217905092915050565b818103612fd15750506130a6565b612fda82612dff565b67ffffffffffffffff811115612ff357612ff261238e565b5b612ffd8254612b9d565b613008828285612f3a565b5f601f831160018114613035575f8415613023578287015490505b61302d8582612fa8565b86555061309f565b601f19841661304387612e26565b965061304e86612e14565b5f5b8281101561307557848901548255600182019150600185019450602081019050613050565b86831015613092578489015461308e601f891682612f8c565b8355505b6001600288020188555050505b5050505050505b565b7f4e487b71000000000000000000000000000000000000000000000000000000005f52603160045260245ffd5b7f466f6c64657220616c72656164792065786973747300000000000000000000005f82015250565b5f613109601583612311565b9150613114826130d5565b602082019050919050565b5f6020820190508181035f830152613136816130fd565b9050919050565b7f412066696c652077697468207468652073616d65206e616d6520616c726561645f8201527f7920657869737473000000000000000000000000000000000000000000000000602082015250565b5f613197602883612311565b91506131a28261313d565b604082019050919050565b5f6020820190508181035f8301526131c48161318b565b9050919050565b6131d482612156565b67ffffffffffffffff8111156131ed576131ec61238e565b5b6131f78254612b9d565b613202828285612f3a565b5f60209050601f831160018114613233575f8415613221578287015190505b61322b8582612fa8565b865550613292565b601f19841661324186612e14565b5f5b8281101561326857848901518255600182019150602085019450602081019050613243565b868310156132855784890151613281601f891682612f8c565b8355505b6001600288020188555050505b505050505050565b7f46696c6520646f6573206e6f74206578697374000000000000000000000000005f82015250565b5f6132ce601383612311565b91506132d98261329a565b602082019050919050565b5f6020820190508181035f8301526132fb816132c2565b9050919050565b7f4e65772066696c65206e616d6520616c726561647920657869737473000000005f82015250565b5f613336601c83612311565b915061334182613302565b602082019050919050565b5f6020820190508181035f8301526133638161332a565b9050919050565b7f4120666f6c646572207769746820746865206e65772066696c65206e616d65205f8201527f616c726561647920657869737473000000000000000000000000000000000000602082015250565b5f6133c4602e83612311565b91506133cf8261336a565b604082019050919050565b5f6020820190508181035f8301526133f1816133b8565b9050919050565b5f8154905061340681612b9d565b9050919050565b81810361341b5750506134f0565b613424826133f8565b67ffffffffffffffff81111561343d5761343c61238e565b5b6134478254612b9d565b613452828285612f3a565b5f601f83116001811461347f575f841561346d578287015490505b6134778582612fa8565b8655506134e9565b601f19841661348d87612e14565b965061349886612e14565b5f5b828110156134bf5784890154825560018201915060018501945060208101905061349a565b868310156134dc57848901546134d8601f891682612f8c565b8355505b6001600288020188555050505b5050505050505b565b7f46696c6520616c726561647920657869737473000000000000000000000000005f82015250565b5f613526601383612311565b9150613531826134f2565b602082019050919050565b5f6020820190508181035f8301526135538161351a565b9050919050565b7f4120666f6c6465722077697468207468652073616d65206e616d6520616c72655f8201527f6164792065786973747300000000000000000000000000000000000000000000602082015250565b5f6135b4602a83612311565b91506135bf8261355a565b604082019050919050565b5f6020820190508181035f8301526135e1816135a8565b9050919050565b5f6135f2826121c6565b91507fffffffffffffffffffffffffffffffffffffffffffffffffffffffffffffffff820361362457613623612d9f565b5b60018201905091905056fea26469706673582212207e3370cf1236eefd8d686154535b7d11325d53f00804309eac73797fff59c1bb64736f6c634300081a0033",
			"opcodes": "PUSH1 0x80 PUSH1 0x40 MSTORE CALLVALUE DUP1 ISZERO PUSH2 0xF JUMPI PUSH0 DUP1 REVERT JUMPDEST POP PUSH2 0x1F CALLER PUSH2 0x24 PUSH1 0x20 SHL PUSH1 0x20 SHR JUMP JUMPDEST PUSH2 0x453 JUMP JUMPDEST PUSH0 DUP1 PUSH0 DUP4 PUSH20 0xFFFFFFFFFFFFFFFFFFFFFFFFFFFFFFFFFFFFFFFF AND PUSH20 0xFFFFFFFFFFFFFFFFFFFFFFFFFFFFFFFFFFFFFFFF AND DUP2 MSTORE PUSH1 0x20 ADD SWAP1 DUP2 MSTORE PUSH1 0x20 ADD PUSH0 KECCAK256 PUSH0 ADD DUP1 SLOAD PUSH2 0x6E SWAP1 PUSH2 0x177 JUMP JUMPDEST SWAP1 POP SUB PUSH2 0x147 JUMPI PUSH0 DUP1 PUSH0 DUP4 PUSH20 0xFFFFFFFFFFFFFFFFFFFFFFFFFFFFFFFFFFFFFFFF AND PUSH20 0xFFFFFFFFFFFFFFFFFFFFFFFFFFFFFFFFFFFFFFFF AND DUP2 MSTORE PUSH1 0x20 ADD SWAP1 DUP2 MSTORE PUSH1 0x20 ADD PUSH0 KECCAK256 SWAP1 POP PUSH1 0x40 MLOAD DUP1 PUSH1 0x40 ADD PUSH1 0x40 MSTORE DUP1 PUSH1 0x8 DUP2 MSTORE PUSH1 0x20 ADD PUSH32 0x4D79205370616365000000000000000000000000000000000000000000000000 DUP2 MSTORE POP DUP2 PUSH0 ADD SWAP1 DUP2 PUSH2 0xF9 SWAP2 SWAP1 PUSH2 0x384 JUMP JUMPDEST POP DUP2 DUP2 PUSH1 0x1 ADD PUSH0 PUSH2 0x100 EXP DUP2 SLOAD DUP2 PUSH20 0xFFFFFFFFFFFFFFFFFFFFFFFFFFFFFFFFFFFFFFFF MUL NOT AND SWAP1 DUP4 PUSH20 0xFFFFFFFFFFFFFFFFFFFFFFFFFFFFFFFFFFFFFFFF AND MUL OR SWAP1 SSTORE POP TIMESTAMP DUP2 PUSH1 0x2 ADD DUP2 SWAP1 SSTORE POP POP JUMPDEST POP JUMP JUMPDEST PUSH32 0x4E487B7100000000000000000000000000000000000000000000000000000000 PUSH0 MSTORE PUSH1 0x22 PUSH1 0x4 MSTORE PUSH1 0x24 PUSH0 REVERT JUMPDEST PUSH0 PUSH1 0x2 DUP3 DIV SWAP1 POP PUSH1 0x1 DUP3 AND DUP1 PUSH2 0x18E JUMPI PUSH1 0x7F DUP3 AND SWAP2 POP JUMPDEST PUSH1 0x20 DUP3 LT DUP2 SUB PUSH2 0x1A1 JUMPI PUSH2 0x1A0 PUSH2 0x14A JUMP JUMPDEST JUMPDEST POP SWAP2 SWAP1 POP JUMP JUMPDEST PUSH0 DUP2 MLOAD SWAP1 POP SWAP2 SWAP1 POP JUMP JUMPDEST PUSH32 0x4E487B7100000000000000000000000000000000000000000000000000000000 PUSH0 MSTORE PUSH1 0x41 PUSH1 0x4 MSTORE PUSH1 0x24 PUSH0 REVERT JUMPDEST PUSH0 DUP2 SWAP1 POP DUP2 PUSH0 MSTORE PUSH1 0x20 PUSH0 KECCAK256 SWAP1 POP SWAP2 SWAP1 POP JUMP JUMPDEST PUSH0 PUSH1 0x20 PUSH1 0x1F DUP4 ADD DIV SWAP1 POP SWAP2 SWAP1 POP JUMP JUMPDEST PUSH0 DUP3 DUP3 SHL SWAP1 POP SWAP3 SWAP2 POP POP JUMP JUMPDEST PUSH0 PUSH1 0x8 DUP4 MUL PUSH2 0x23A PUSH32 0xFFFFFFFFFFFFFFFFFFFFFFFFFFFFFFFFFFFFFFFFFFFFFFFFFFFFFFFFFFFFFFFF DUP3 PUSH2 0x1FF JUMP JUMPDEST PUSH2 0x244 DUP7 DUP4 PUSH2 0x1FF JUMP JUMPDEST SWAP6 POP DUP1 NOT DUP5 AND SWAP4 POP DUP1 DUP7 AND DUP5 OR SWAP3 POP POP POP SWAP4 SWAP3 POP POP POP JUMP JUMPDEST PUSH0 DUP2 SWAP1 POP SWAP2 SWAP1 POP JUMP JUMPDEST PUSH0 DUP2 SWAP1 POP SWAP2 SWAP1 POP JUMP JUMPDEST PUSH0 PUSH2 0x288 PUSH2 0x283 PUSH2 0x27E DUP5 PUSH2 0x25C JUMP JUMPDEST PUSH2 0x265 JUMP JUMPDEST PUSH2 0x25C JUMP JUMPDEST SWAP1 POP SWAP2 SWAP1 POP JUMP JUMPDEST PUSH0 DUP2 SWAP1 POP SWAP2 SWAP1 POP JUMP JUMPDEST PUSH2 0x2A1 DUP4 PUSH2 0x26E JUMP JUMPDEST PUSH2 0x2B5 PUSH2 0x2AD DUP3 PUSH2 0x28F JUMP JUMPDEST DUP5 DUP5 SLOAD PUSH2 0x20B JUMP JUMPDEST DUP3 SSTORE POP POP POP POP JUMP JUMPDEST PUSH0 SWAP1 JUMP JUMPDEST PUSH2 0x2C9 PUSH2 0x2BD JUMP JUMPDEST PUSH2 0x2D4 DUP2 DUP5 DUP5 PUSH2 0x298 JUMP JUMPDEST POP POP POP JUMP JUMPDEST JUMPDEST DUP2 DUP2 LT ISZERO PUSH2 0x2F7 JUMPI PUSH2 0x2EC PUSH0 DUP3 PUSH2 0x2C1 JUMP JUMPDEST PUSH1 0x1 DUP2 ADD SWAP1 POP PUSH2 0x2DA JUMP JUMPDEST POP POP JUMP JUMPDEST PUSH1 0x1F DUP3 GT ISZERO PUSH2 0x33C JUMPI PUSH2 0x30D DUP2 PUSH2 0x1DE JUMP JUMPDEST PUSH2 0x316 DUP5 PUSH2 0x1F0 JUMP JUMPDEST DUP2 ADD PUSH1 0x20 DUP6 LT ISZERO PUSH2 0x325 JUMPI DUP2 SWAP1 POP JUMPDEST PUSH2 0x339 PUSH2 0x331 DUP6 PUSH2 0x1F0 JUMP JUMPDEST DUP4 ADD DUP3 PUSH2 0x2D9 JUMP JUMPDEST POP POP JUMPDEST POP POP POP JUMP JUMPDEST PUSH0 DUP3 DUP3 SHR SWAP1 POP SWAP3 SWAP2 POP POP JUMP JUMPDEST PUSH0 PUSH2 0x35C PUSH0 NOT DUP5 PUSH1 0x8 MUL PUSH2 0x341 JUMP JUMPDEST NOT DUP1 DUP4 AND SWAP2 POP POP SWAP3 SWAP2 POP POP JUMP JUMPDEST PUSH0 PUSH2 0x374 DUP4 DUP4 PUSH2 0x34D JUMP JUMPDEST SWAP2 POP DUP3 PUSH1 0x2 MUL DUP3 OR SWAP1 POP SWAP3 SWAP2 POP POP JUMP JUMPDEST PUSH2 0x38D DUP3 PUSH2 0x1A7 JUMP JUMPDEST PUSH8 0xFFFFFFFFFFFFFFFF DUP2 GT ISZERO PUSH2 0x3A6 JUMPI PUSH2 0x3A5 PUSH2 0x1B1 JUMP JUMPDEST JUMPDEST PUSH2 0x3B0 DUP3 SLOAD PUSH2 0x177 JUMP JUMPDEST PUSH2 0x3BB DUP3 DUP3 DUP6 PUSH2 0x2FB JUMP JUMPDEST PUSH0 PUSH1 0x20 SWAP1 POP PUSH1 0x1F DUP4 GT PUSH1 0x1 DUP2 EQ PUSH2 0x3EC JUMPI PUSH0 DUP5 ISZERO PUSH2 0x3DA JUMPI DUP3 DUP8 ADD MLOAD SWAP1 POP JUMPDEST PUSH2 0x3E4 DUP6 DUP3 PUSH2 0x369 JUMP JUMPDEST DUP7 SSTORE POP PUSH2 0x44B JUMP JUMPDEST PUSH1 0x1F NOT DUP5 AND PUSH2 0x3FA DUP7 PUSH2 0x1DE JUMP JUMPDEST PUSH0 JUMPDEST DUP3 DUP2 LT ISZERO PUSH2 0x421 JUMPI DUP5 DUP10 ADD MLOAD DUP3 SSTORE PUSH1 0x1 DUP3 ADD SWAP2 POP PUSH1 0x20 DUP6 ADD SWAP5 POP PUSH1 0x20 DUP2 ADD SWAP1 POP PUSH2 0x3FC JUMP JUMPDEST DUP7 DUP4 LT ISZERO PUSH2 0x43E JUMPI DUP5 DUP10 ADD MLOAD PUSH2 0x43A PUSH1 0x1F DUP10 AND DUP3 PUSH2 0x34D JUMP JUMPDEST DUP4 SSTORE POP JUMPDEST PUSH1 0x1 PUSH1 0x2 DUP9 MUL ADD DUP9 SSTORE POP POP POP JUMPDEST POP POP POP POP POP POP JUMP JUMPDEST PUSH2 0x3665 DUP1 PUSH2 0x460 PUSH0 CODECOPY PUSH0 RETURN INVALID PUSH1 0x80 PUSH1 0x40 MSTORE CALLVALUE DUP1 ISZERO PUSH2 0xF JUMPI PUSH0 DUP1 REVERT JUMPDEST POP PUSH1 0x4 CALLDATASIZE LT PUSH2 0x91 JUMPI PUSH0 CALLDATALOAD PUSH1 0xE0 SHR DUP1 PUSH4 0xE01ADC05 GT PUSH2 0x64 JUMPI DUP1 PUSH4 0xE01ADC05 EQ PUSH2 0x11D JUMPI DUP1 PUSH4 0xE75C5051 EQ PUSH2 0x13B JUMPI DUP1 PUSH4 0xEFF9F64F EQ PUSH2 0x157 JUMPI DUP1 PUSH4 0xF5DED10B EQ PUSH2 0x173 JUMPI DUP1 PUSH4 0xF7DA18C8 EQ PUSH2 0x18F JUMPI PUSH2 0x91 JUMP JUMPDEST DUP1 PUSH4 0x243A658D EQ PUSH2 0x95 JUMPI DUP1 PUSH4 0x37DB6C1A EQ PUSH2 0xB3 JUMPI DUP1 PUSH4 0xC905819B EQ PUSH2 0xD1 JUMPI DUP1 PUSH4 0xD3780E10 EQ PUSH2 0x101 JUMPI JUMPDEST PUSH0 DUP1 REVERT JUMPDEST PUSH2 0x9D PUSH2 0x1AB JUMP JUMPDEST PUSH1 0x40 MLOAD PUSH2 0xAA SWAP2 SWAP1 PUSH2 0x22F1 JUMP JUMPDEST PUSH1 0x40 MLOAD DUP1 SWAP2 SUB SWAP1 RETURN JUMPDEST PUSH2 0xBB PUSH2 0x481 JUMP JUMPDEST PUSH1 0x40 MLOAD PUSH2 0xC8 SWAP2 SWAP1 PUSH2 0x2359 JUMP JUMPDEST PUSH1 0x40 MLOAD DUP1 SWAP2 SUB SWAP1 RETURN JUMPDEST PUSH2 0xEB PUSH1 0x4 DUP1 CALLDATASIZE SUB DUP2 ADD SWAP1 PUSH2 0xE6 SWAP2 SWAP1 PUSH2 0x2598 JUMP JUMPDEST PUSH2 0x54D JUMP JUMPDEST PUSH1 0x40 MLOAD PUSH2 0xF8 SWAP2 SWAP1 PUSH2 0x27A5 JUMP JUMPDEST PUSH1 0x40 MLOAD DUP1 SWAP2 SUB SWAP1 RETURN JUMPDEST PUSH2 0x11B PUSH1 0x4 DUP1 CALLDATASIZE SUB DUP2 ADD SWAP1 PUSH2 0x116 SWAP2 SWAP1 PUSH2 0x27C5 JUMP JUMPDEST PUSH2 0x684 JUMP JUMPDEST STOP JUMPDEST PUSH2 0x125 PUSH2 0x9C4 JUMP JUMPDEST PUSH1 0x40 MLOAD PUSH2 0x132 SWAP2 SWAP1 PUSH2 0x2359 JUMP JUMPDEST PUSH1 0x40 MLOAD DUP1 SWAP2 SUB SWAP1 RETURN JUMPDEST PUSH2 0x155 PUSH1 0x4 DUP1 CALLDATASIZE SUB DUP2 ADD SWAP1 PUSH2 0x150 SWAP2 SWAP1 PUSH2 0x27C5 JUMP JUMPDEST PUSH2 0xA99 JUMP JUMPDEST STOP JUMPDEST PUSH2 0x171 PUSH1 0x4 DUP1 CALLDATASIZE SUB DUP2 ADD SWAP1 PUSH2 0x16C SWAP2 SWAP1 PUSH2 0x2865 JUMP JUMPDEST PUSH2 0xCCF JUMP JUMPDEST STOP JUMPDEST PUSH2 0x18D PUSH1 0x4 DUP1 CALLDATASIZE SUB DUP2 ADD SWAP1 PUSH2 0x188 SWAP2 SWAP1 PUSH2 0x29D4 JUMP JUMPDEST PUSH2 0x114D JUMP JUMPDEST STOP JUMPDEST PUSH2 0x1A9 PUSH1 0x4 DUP1 CALLDATASIZE SUB DUP2 ADD SWAP1 PUSH2 0x1A4 SWAP2 SWAP1 PUSH2 0x2A5C JUMP JUMPDEST PUSH2 0x13AB JUMP JUMPDEST STOP JUMPDEST PUSH1 0x60 PUSH0 DUP1 PUSH0 CALLER PUSH20 0xFFFFFFFFFFFFFFFFFFFFFFFFFFFFFFFFFFFFFFFF AND PUSH20 0xFFFFFFFFFFFFFFFFFFFFFFFFFFFFFFFFFFFFFFFF AND DUP2 MSTORE PUSH1 0x20 ADD SWAP1 DUP2 MSTORE PUSH1 0x20 ADD PUSH0 KECCAK256 SWAP1 POP PUSH0 DUP2 PUSH1 0x6 ADD DUP1 SLOAD SWAP1 POP PUSH8 0xFFFFFFFFFFFFFFFF DUP2 GT ISZERO PUSH2 0x20E JUMPI PUSH2 0x20D PUSH2 0x238E JUMP JUMPDEST JUMPDEST PUSH1 0x40 MLOAD SWAP1 DUP1 DUP3 MSTORE DUP1 PUSH1 0x20 MUL PUSH1 0x20 ADD DUP3 ADD PUSH1 0x40 MSTORE DUP1 ISZERO PUSH2 0x247 JUMPI DUP2 PUSH1 0x20 ADD JUMPDEST PUSH2 0x234 PUSH2 0x1FA1 JUMP JUMPDEST DUP2 MSTORE PUSH1 0x20 ADD SWAP1 PUSH1 0x1 SWAP1 SUB SWAP1 DUP2 PUSH2 0x22C JUMPI SWAP1 POP JUMPDEST POP SWAP1 POP PUSH0 JUMPDEST DUP3 PUSH1 0x6 ADD DUP1 SLOAD SWAP1 POP DUP2 LT ISZERO PUSH2 0x478 JUMPI PUSH0 DUP4 PUSH1 0x6 ADD DUP3 DUP2 SLOAD DUP2 LT PUSH2 0x272 JUMPI PUSH2 0x271 PUSH2 0x2B43 JUMP JUMPDEST JUMPDEST SWAP1 PUSH0 MSTORE PUSH1 0x20 PUSH0 KECCAK256 SWAP1 PUSH1 0x6 MUL ADD SWAP1 POP PUSH1 0x40 MLOAD DUP1 PUSH1 0xA0 ADD PUSH1 0x40 MSTORE DUP1 DUP3 PUSH0 ADD DUP1 SLOAD PUSH2 0x299 SWAP1 PUSH2 0x2B9D JUMP JUMPDEST DUP1 PUSH1 0x1F ADD PUSH1 0x20 DUP1 SWAP2 DIV MUL PUSH1 0x20 ADD PUSH1 0x40 MLOAD SWAP1 DUP2 ADD PUSH1 0x40 MSTORE DUP1 SWAP3 SWAP2 SWAP1 DUP2 DUP2 MSTORE PUSH1 0x20 ADD DUP3 DUP1 SLOAD PUSH2 0x2C5 SWAP1 PUSH2 0x2B9D JUMP JUMPDEST DUP1 ISZERO PUSH2 0x310 JUMPI DUP1 PUSH1 0x1F LT PUSH2 0x2E7 JUMPI PUSH2 0x100 DUP1 DUP4 SLOAD DIV MUL DUP4 MSTORE SWAP2 PUSH1 0x20 ADD SWAP2 PUSH2 0x310 JUMP JUMPDEST DUP3 ADD SWAP2 SWAP1 PUSH0 MSTORE PUSH1 0x20 PUSH0 KECCAK256 SWAP1 JUMPDEST DUP2 SLOAD DUP2 MSTORE SWAP1 PUSH1 0x1 ADD SWAP1 PUSH1 0x20 ADD DUP1 DUP4 GT PUSH2 0x2F3 JUMPI DUP3 SWAP1 SUB PUSH1 0x1F AND DUP3 ADD SWAP2 JUMPDEST POP POP POP POP POP DUP2 MSTORE PUSH1 0x20 ADD DUP3 PUSH1 0x1 ADD DUP1 SLOAD PUSH2 0x329 SWAP1 PUSH2 0x2B9D JUMP JUMPDEST DUP1 PUSH1 0x1F ADD PUSH1 0x20 DUP1 SWAP2 DIV MUL PUSH1 0x20 ADD PUSH1 0x40 MLOAD SWAP1 DUP2 ADD PUSH1 0x40 MSTORE DUP1 SWAP3 SWAP2 SWAP1 DUP2 DUP2 MSTORE PUSH1 0x20 ADD DUP3 DUP1 SLOAD PUSH2 0x355 SWAP1 PUSH2 0x2B9D JUMP JUMPDEST DUP1 ISZERO PUSH2 0x3A0 JUMPI DUP1 PUSH1 0x1F LT PUSH2 0x377 JUMPI PUSH2 0x100 DUP1 DUP4 SLOAD DIV MUL DUP4 MSTORE SWAP2 PUSH1 0x20 ADD SWAP2 PUSH2 0x3A0 JUMP JUMPDEST DUP3 ADD SWAP2 SWAP1 PUSH0 MSTORE PUSH1 0x20 PUSH0 KECCAK256 SWAP1 JUMPDEST DUP2 SLOAD DUP2 MSTORE SWAP1 PUSH1 0x1 ADD SWAP1 PUSH1 0x20 ADD DUP1 DUP4 GT PUSH2 0x383 JUMPI DUP3 SWAP1 SUB PUSH1 0x1F AND DUP3 ADD SWAP2 JUMPDEST POP POP POP POP POP DUP2 MSTORE PUSH1 0x20 ADD DUP3 PUSH1 0x2 ADD SLOAD DUP2 MSTORE PUSH1 0x20 ADD DUP3 PUSH1 0x3 ADD DUP1 SLOAD PUSH2 0x3C3 SWAP1 PUSH2 0x2B9D JUMP JUMPDEST DUP1 PUSH1 0x1F ADD PUSH1 0x20 DUP1 SWAP2 DIV MUL PUSH1 0x20 ADD PUSH1 0x40 MLOAD SWAP1 DUP2 ADD PUSH1 0x40 MSTORE DUP1 SWAP3 SWAP2 SWAP1 DUP2 DUP2 MSTORE PUSH1 0x20 ADD DUP3 DUP1 SLOAD PUSH2 0x3EF SWAP1 PUSH2 0x2B9D JUMP JUMPDEST DUP1 ISZERO PUSH2 0x43A JUMPI DUP1 PUSH1 0x1F LT PUSH2 0x411 JUMPI PUSH2 0x100 DUP1 DUP4 SLOAD DIV MUL DUP4 MSTORE SWAP2 PUSH1 0x20 ADD SWAP2 PUSH2 0x43A JUMP JUMPDEST DUP3 ADD SWAP2 SWAP1 PUSH0 MSTORE PUSH1 0x20 PUSH0 KECCAK256 SWAP1 JUMPDEST DUP2 SLOAD DUP2 MSTORE SWAP1 PUSH1 0x1 ADD SWAP1 PUSH1 0x20 ADD DUP1 DUP4 GT PUSH2 0x41D JUMPI DUP3 SWAP1 SUB PUSH1 0x1F AND DUP3 ADD SWAP2 JUMPDEST POP POP POP POP POP DUP2 MSTORE PUSH1 0x20 ADD DUP3 PUSH1 0x5 ADD SLOAD DUP2 MSTORE POP DUP4 DUP4 DUP2 MLOAD DUP2 LT PUSH2 0x45F JUMPI PUSH2 0x45E PUSH2 0x2B43 JUMP JUMPDEST JUMPDEST PUSH1 0x20 MUL PUSH1 0x20 ADD ADD DUP2 SWAP1 MSTORE POP POP DUP1 DUP1 PUSH1 0x1 ADD SWAP2 POP POP PUSH2 0x24C JUMP JUMPDEST POP DUP1 SWAP3 POP POP POP SWAP1 JUMP JUMPDEST PUSH1 0x60 PUSH0 DUP1 PUSH0 CALLER PUSH20 0xFFFFFFFFFFFFFFFFFFFFFFFFFFFFFFFFFFFFFFFF AND PUSH20 0xFFFFFFFFFFFFFFFFFFFFFFFFFFFFFFFFFFFFFFFF AND DUP2 MSTORE PUSH1 0x20 ADD SWAP1 DUP2 MSTORE PUSH1 0x20 ADD PUSH0 KECCAK256 PUSH0 ADD DUP1 SLOAD PUSH2 0x4CD SWAP1 PUSH2 0x2B9D JUMP JUMPDEST SWAP1 POP SUB PUSH2 0x511 JUMPI PUSH1 0x40 MLOAD DUP1 PUSH1 0x40 ADD PUSH1 0x40 MSTORE DUP1 PUSH1 0x13 DUP2 MSTORE PUSH1 0x20 ADD PUSH32 0x4261736520646F6573206E6F7420657869737400000000000000000000000000 DUP2 MSTORE POP SWAP1 POP PUSH2 0x54A JUMP JUMPDEST PUSH1 0x40 MLOAD DUP1 PUSH1 0x40 ADD PUSH1 0x40 MSTORE DUP1 PUSH1 0x13 DUP2 MSTORE PUSH1 0x20 ADD PUSH32 0x4261736520616C72656164792065786973747300000000000000000000000000 DUP2 MSTORE POP SWAP1 POP JUMPDEST SWAP1 JUMP JUMPDEST PUSH2 0x555 PUSH2 0x1FCE JUMP JUMPDEST PUSH0 DUP1 PUSH0 CALLER PUSH20 0xFFFFFFFFFFFFFFFFFFFFFFFFFFFFFFFFFFFFFFFF AND PUSH20 0xFFFFFFFFFFFFFFFFFFFFFFFFFFFFFFFFFFFFFFFF AND DUP2 MSTORE PUSH1 0x20 ADD SWAP1 DUP2 MSTORE PUSH1 0x20 ADD PUSH0 KECCAK256 SWAP1 POP PUSH0 JUMPDEST DUP4 MLOAD DUP2 LT ISZERO PUSH2 0x672 JUMPI PUSH0 DUP3 PUSH1 0x5 ADD DUP6 DUP4 DUP2 MLOAD DUP2 LT PUSH2 0x5B7 JUMPI PUSH2 0x5B6 PUSH2 0x2B43 JUMP JUMPDEST JUMPDEST PUSH1 0x20 MUL PUSH1 0x20 ADD ADD MLOAD PUSH1 0x40 MLOAD PUSH2 0x5CC SWAP2 SWAP1 PUSH2 0x2C07 JUMP JUMPDEST SWAP1 DUP2 MSTORE PUSH1 0x20 ADD PUSH1 0x40 MLOAD DUP1 SWAP2 SUB SWAP1 KECCAK256 PUSH0 ADD DUP1 SLOAD PUSH2 0x5E7 SWAP1 PUSH2 0x2B9D JUMP JUMPDEST SWAP1 POP SUB PUSH2 0x629 JUMPI PUSH1 0x40 MLOAD PUSH32 0x8C379A000000000000000000000000000000000000000000000000000000000 DUP2 MSTORE PUSH1 0x4 ADD PUSH2 0x620 SWAP1 PUSH2 0x2C67 JUMP JUMPDEST PUSH1 0x40 MLOAD DUP1 SWAP2 SUB SWAP1 REVERT JUMPDEST DUP2 PUSH1 0x5 ADD DUP5 DUP3 DUP2 MLOAD DUP2 LT PUSH2 0x640 JUMPI PUSH2 0x63F PUSH2 0x2B43 JUMP JUMPDEST JUMPDEST PUSH1 0x20 MUL PUSH1 0x20 ADD ADD MLOAD PUSH1 0x40 MLOAD PUSH2 0x655 SWAP2 SWAP1 PUSH2 0x2C07 JUMP JUMPDEST SWAP1 DUP2 MSTORE PUSH1 0x20 ADD PUSH1 0x40 MLOAD DUP1 SWAP2 SUB SWAP1 KECCAK256 SWAP2 POP DUP1 DUP1 PUSH1 0x1 ADD SWAP2 POP POP PUSH2 0x596 JUMP JUMPDEST POP PUSH2 0x67C DUP2 PUSH2 0x1611 JUMP JUMPDEST SWAP2 POP POP SWAP2 SWAP1 POP JUMP JUMPDEST PUSH2 0x68D CALLER PUSH2 0x1E7B JUMP JUMPDEST PUSH0 DUP1 PUSH0 CALLER PUSH20 0xFFFFFFFFFFFFFFFFFFFFFFFFFFFFFFFFFFFFFFFF AND PUSH20 0xFFFFFFFFFFFFFFFFFFFFFFFFFFFFFFFFFFFFFFFF AND DUP2 MSTORE PUSH1 0x20 ADD SWAP1 DUP2 MSTORE PUSH1 0x20 ADD PUSH0 KECCAK256 SWAP1 POP PUSH0 JUMPDEST DUP4 MLOAD DUP2 LT ISZERO PUSH2 0x720 JUMPI DUP2 PUSH1 0x5 ADD DUP5 DUP3 DUP2 MLOAD DUP2 LT PUSH2 0x6EE JUMPI PUSH2 0x6ED PUSH2 0x2B43 JUMP JUMPDEST JUMPDEST PUSH1 0x20 MUL PUSH1 0x20 ADD ADD MLOAD PUSH1 0x40 MLOAD PUSH2 0x703 SWAP2 SWAP1 PUSH2 0x2C07 JUMP JUMPDEST SWAP1 DUP2 MSTORE PUSH1 0x20 ADD PUSH1 0x40 MLOAD DUP1 SWAP2 SUB SWAP1 KECCAK256 SWAP2 POP DUP1 DUP1 PUSH1 0x1 ADD SWAP2 POP POP PUSH2 0x6CE JUMP JUMPDEST POP PUSH0 DUP2 PUSH1 0x4 ADD DUP4 PUSH1 0x40 MLOAD PUSH2 0x734 SWAP2 SWAP1 PUSH2 0x2C07 JUMP JUMPDEST SWAP1 DUP2 MSTORE PUSH1 0x20 ADD PUSH1 0x40 MLOAD DUP1 SWAP2 SUB SWAP1 KECCAK256 PUSH0 ADD DUP1 SLOAD PUSH2 0x74F SWAP1 PUSH2 0x2B9D JUMP JUMPDEST SWAP1 POP EQ PUSH2 0x7DE JUMPI DUP1 PUSH1 0x4 ADD DUP3 PUSH1 0x40 MLOAD PUSH2 0x768 SWAP2 SWAP1 PUSH2 0x2C07 JUMP JUMPDEST SWAP1 DUP2 MSTORE PUSH1 0x20 ADD PUSH1 0x40 MLOAD DUP1 SWAP2 SUB SWAP1 KECCAK256 PUSH0 DUP1 DUP3 ADD PUSH0 PUSH2 0x785 SWAP2 SWAP1 PUSH2 0x1FFC JUMP JUMPDEST PUSH1 0x1 DUP3 ADD PUSH0 PUSH2 0x794 SWAP2 SWAP1 PUSH2 0x1FFC JUMP JUMPDEST PUSH1 0x2 DUP3 ADD PUSH0 SWAP1 SSTORE PUSH1 0x3 DUP3 ADD PUSH0 PUSH2 0x7AA SWAP2 SWAP1 PUSH2 0x1FFC JUMP JUMPDEST PUSH1 0x4 DUP3 ADD PUSH0 PUSH2 0x100 EXP DUP2 SLOAD SWAP1 PUSH20 0xFFFFFFFFFFFFFFFFFFFFFFFFFFFFFFFFFFFFFFFF MUL NOT AND SWAP1 SSTORE PUSH1 0x5 DUP3 ADD PUSH0 SWAP1 SSTORE POP POP PUSH2 0x8D0 JUMP JUMPDEST PUSH0 DUP2 PUSH1 0x5 ADD DUP4 PUSH1 0x40 MLOAD PUSH2 0x7F1 SWAP2 SWAP1 PUSH2 0x2C07 JUMP JUMPDEST SWAP1 DUP2 MSTORE PUSH1 0x20 ADD PUSH1 0x40 MLOAD DUP1 SWAP2 SUB SWAP1 KECCAK256 PUSH0 ADD DUP1 SLOAD PUSH2 0x80C SWAP1 PUSH2 0x2B9D JUMP JUMPDEST SWAP1 POP EQ PUSH2 0x894 JUMPI DUP1 PUSH1 0x5 ADD DUP3 PUSH1 0x40 MLOAD PUSH2 0x825 SWAP2 SWAP1 PUSH2 0x2C07 JUMP JUMPDEST SWAP1 DUP2 MSTORE PUSH1 0x20 ADD PUSH1 0x40 MLOAD DUP1 SWAP2 SUB SWAP1 KECCAK256 PUSH0 DUP1 DUP3 ADD PUSH0 PUSH2 0x842 SWAP2 SWAP1 PUSH2 0x1FFC JUMP JUMPDEST PUSH1 0x1 DUP3 ADD PUSH0 PUSH2 0x100 EXP DUP2 SLOAD SWAP1 PUSH20 0xFFFFFFFFFFFFFFFFFFFFFFFFFFFFFFFFFFFFFFFF MUL NOT AND SWAP1 SSTORE PUSH1 0x2 DUP3 ADD PUSH0 SWAP1 SSTORE PUSH1 0x3 DUP3 ADD PUSH0 PUSH2 0x87E SWAP2 SWAP1 PUSH2 0x2039 JUMP JUMPDEST PUSH1 0x6 DUP3 ADD PUSH0 PUSH2 0x88D SWAP2 SWAP1 PUSH2 0x2057 JUMP JUMPDEST POP POP PUSH2 0x8CF JUMP JUMPDEST PUSH1 0x40 MLOAD PUSH32 0x8C379A000000000000000000000000000000000000000000000000000000000 DUP2 MSTORE PUSH1 0x4 ADD PUSH2 0x8C6 SWAP1 PUSH2 0x2CCF JUMP JUMPDEST PUSH1 0x40 MLOAD DUP1 SWAP2 SUB SWAP1 REVERT JUMPDEST JUMPDEST PUSH0 JUMPDEST DUP2 PUSH1 0x3 ADD DUP1 SLOAD SWAP1 POP DUP2 LT ISZERO PUSH2 0x9BE JUMPI DUP3 DUP1 MLOAD SWAP1 PUSH1 0x20 ADD KECCAK256 DUP3 PUSH1 0x3 ADD DUP3 DUP2 SLOAD DUP2 LT PUSH2 0x8FF JUMPI PUSH2 0x8FE PUSH2 0x2B43 JUMP JUMPDEST JUMPDEST SWAP1 PUSH0 MSTORE PUSH1 0x20 PUSH0 KECCAK256 ADD PUSH1 0x40 MLOAD PUSH2 0x914 SWAP2 SWAP1 PUSH2 0x2D89 JUMP JUMPDEST PUSH1 0x40 MLOAD DUP1 SWAP2 SUB SWAP1 KECCAK256 SUB PUSH2 0x9B1 JUMPI DUP2 PUSH1 0x3 ADD PUSH1 0x1 DUP4 PUSH1 0x3 ADD DUP1 SLOAD SWAP1 POP PUSH2 0x939 SWAP2 SWAP1 PUSH2 0x2DCC JUMP JUMPDEST DUP2 SLOAD DUP2 LT PUSH2 0x94A JUMPI PUSH2 0x949 PUSH2 0x2B43 JUMP JUMPDEST JUMPDEST SWAP1 PUSH0 MSTORE PUSH1 0x20 PUSH0 KECCAK256 ADD DUP3 PUSH1 0x3 ADD DUP3 DUP2 SLOAD DUP2 LT PUSH2 0x968 JUMPI PUSH2 0x967 PUSH2 0x2B43 JUMP JUMPDEST JUMPDEST SWAP1 PUSH0 MSTORE PUSH1 0x20 PUSH0 KECCAK256 ADD SWAP1 DUP2 PUSH2 0x97C SWAP2 SWAP1 PUSH2 0x2FC3 JUMP JUMPDEST POP DUP2 PUSH1 0x3 ADD DUP1 SLOAD DUP1 PUSH2 0x991 JUMPI PUSH2 0x990 PUSH2 0x30A8 JUMP JUMPDEST JUMPDEST PUSH1 0x1 SWAP1 SUB DUP2 DUP2 SWAP1 PUSH0 MSTORE PUSH1 0x20 PUSH0 KECCAK256 ADD PUSH0 PUSH2 0x9AA SWAP2 SWAP1 PUSH2 0x1FFC JUMP JUMPDEST SWAP1 SSTORE PUSH2 0x9BE JUMP JUMPDEST DUP1 DUP1 PUSH1 0x1 ADD SWAP2 POP POP PUSH2 0x8D2 JUMP JUMPDEST POP POP POP POP JUMP JUMPDEST PUSH1 0x60 PUSH0 DUP1 PUSH0 CALLER PUSH20 0xFFFFFFFFFFFFFFFFFFFFFFFFFFFFFFFFFFFFFFFF AND PUSH20 0xFFFFFFFFFFFFFFFFFFFFFFFFFFFFFFFFFFFFFFFF AND DUP2 MSTORE PUSH1 0x20 ADD SWAP1 DUP2 MSTORE PUSH1 0x20 ADD PUSH0 KECCAK256 PUSH0 ADD DUP1 SLOAD PUSH2 0xA10 SWAP1 PUSH2 0x2B9D JUMP JUMPDEST SWAP1 POP SUB PUSH2 0xA5D JUMPI PUSH2 0xA20 CALLER PUSH2 0x1E7B JUMP JUMPDEST PUSH1 0x40 MLOAD DUP1 PUSH1 0x40 ADD PUSH1 0x40 MSTORE DUP1 PUSH1 0x10 DUP2 MSTORE PUSH1 0x20 ADD PUSH32 0x4261736520696E697469616C697A656400000000000000000000000000000000 DUP2 MSTORE POP SWAP1 POP PUSH2 0xA96 JUMP JUMPDEST PUSH1 0x40 MLOAD DUP1 PUSH1 0x40 ADD PUSH1 0x40 MSTORE DUP1 PUSH1 0x18 DUP2 MSTORE PUSH1 0x20 ADD PUSH32 0x4261736520616C726561647920696E697469616C697A65640000000000000000 DUP2 MSTORE POP SWAP1 POP JUMPDEST SWAP1 JUMP JUMPDEST PUSH2 0xAA2 CALLER PUSH2 0x1E7B JUMP JUMPDEST PUSH0 DUP1 PUSH0 CALLER PUSH20 0xFFFFFFFFFFFFFFFFFFFFFFFFFFFFFFFFFFFFFFFF AND PUSH20 0xFFFFFFFFFFFFFFFFFFFFFFFFFFFFFFFFFFFFFFFF AND DUP2 MSTORE PUSH1 0x20 ADD SWAP1 DUP2 MSTORE PUSH1 0x20 ADD PUSH0 KECCAK256 SWAP1 POP PUSH0 JUMPDEST DUP4 MLOAD DUP2 LT ISZERO PUSH2 0xB35 JUMPI DUP2 PUSH1 0x5 ADD DUP5 DUP3 DUP2 MLOAD DUP2 LT PUSH2 0xB03 JUMPI PUSH2 0xB02 PUSH2 0x2B43 JUMP JUMPDEST JUMPDEST PUSH1 0x20 MUL PUSH1 0x20 ADD ADD MLOAD PUSH1 0x40 MLOAD PUSH2 0xB18 SWAP2 SWAP1 PUSH2 0x2C07 JUMP JUMPDEST SWAP1 DUP2 MSTORE PUSH1 0x20 ADD PUSH1 0x40 MLOAD DUP1 SWAP2 SUB SWAP1 KECCAK256 SWAP2 POP DUP1 DUP1 PUSH1 0x1 ADD SWAP2 POP POP PUSH2 0xAE3 JUMP JUMPDEST POP PUSH0 DUP2 PUSH1 0x5 ADD DUP4 PUSH1 0x40 MLOAD PUSH2 0xB49 SWAP2 SWAP1 PUSH2 0x2C07 JUMP JUMPDEST SWAP1 DUP2 MSTORE PUSH1 0x20 ADD PUSH1 0x40 MLOAD DUP1 SWAP2 SUB SWAP1 KECCAK256 PUSH0 ADD DUP1 SLOAD PUSH2 0xB64 SWAP1 PUSH2 0x2B9D JUMP JUMPDEST SWAP1 POP EQ PUSH2 0xBA6 JUMPI PUSH1 0x40 MLOAD PUSH32 0x8C379A000000000000000000000000000000000000000000000000000000000 DUP2 MSTORE PUSH1 0x4 ADD PUSH2 0xB9D SWAP1 PUSH2 0x311F JUMP JUMPDEST PUSH1 0x40 MLOAD DUP1 SWAP2 SUB SWAP1 REVERT JUMPDEST PUSH0 DUP2 PUSH1 0x4 ADD DUP4 PUSH1 0x40 MLOAD PUSH2 0xBB9 SWAP2 SWAP1 PUSH2 0x2C07 JUMP JUMPDEST SWAP1 DUP2 MSTORE PUSH1 0x20 ADD PUSH1 0x40 MLOAD DUP1 SWAP2 SUB SWAP1 KECCAK256 PUSH0 ADD DUP1 SLOAD PUSH2 0xBD4 SWAP1 PUSH2 0x2B9D JUMP JUMPDEST SWAP1 POP EQ PUSH2 0xC16 JUMPI PUSH1 0x40 MLOAD PUSH32 0x8C379A000000000000000000000000000000000000000000000000000000000 DUP2 MSTORE PUSH1 0x4 ADD PUSH2 0xC0D SWAP1 PUSH2 0x31AD JUMP JUMPDEST PUSH1 0x40 MLOAD DUP1 SWAP2 SUB SWAP1 REVERT JUMPDEST PUSH0 DUP2 PUSH1 0x5 ADD DUP4 PUSH1 0x40 MLOAD PUSH2 0xC29 SWAP2 SWAP1 PUSH2 0x2C07 JUMP JUMPDEST SWAP1 DUP2 MSTORE PUSH1 0x20 ADD PUSH1 0x40 MLOAD DUP1 SWAP2 SUB SWAP1 KECCAK256 SWAP1 POP DUP3 DUP2 PUSH0 ADD SWAP1 DUP2 PUSH2 0xC49 SWAP2 SWAP1 PUSH2 0x31CB JUMP JUMPDEST POP CALLER DUP2 PUSH1 0x1 ADD PUSH0 PUSH2 0x100 EXP DUP2 SLOAD DUP2 PUSH20 0xFFFFFFFFFFFFFFFFFFFFFFFFFFFFFFFFFFFFFFFF MUL NOT AND SWAP1 DUP4 PUSH20 0xFFFFFFFFFFFFFFFFFFFFFFFFFFFFFFFFFFFFFFFF AND MUL OR SWAP1 SSTORE POP TIMESTAMP DUP2 PUSH1 0x2 ADD DUP2 SWAP1 SSTORE POP DUP2 PUSH1 0x3 ADD DUP4 SWAP1 DUP1 PUSH1 0x1 DUP2 SLOAD ADD DUP1 DUP3 SSTORE DUP1 SWAP2 POP POP PUSH1 0x1 SWAP1 SUB SWAP1 PUSH0 MSTORE PUSH1 0x20 PUSH0 KECCAK256 ADD PUSH0 SWAP1 SWAP2 SWAP1 SWAP2 SWAP1 SWAP2 POP SWAP1 DUP2 PUSH2 0xCC8 SWAP2 SWAP1 PUSH2 0x31CB JUMP JUMPDEST POP POP POP POP POP JUMP JUMPDEST PUSH2 0xCD8 CALLER PUSH2 0x1E7B JUMP JUMPDEST PUSH0 DUP1 PUSH0 CALLER PUSH20 0xFFFFFFFFFFFFFFFFFFFFFFFFFFFFFFFFFFFFFFFF AND PUSH20 0xFFFFFFFFFFFFFFFFFFFFFFFFFFFFFFFFFFFFFFFF AND DUP2 MSTORE PUSH1 0x20 ADD SWAP1 DUP2 MSTORE PUSH1 0x20 ADD PUSH0 KECCAK256 SWAP1 POP PUSH0 JUMPDEST DUP8 MLOAD DUP2 LT ISZERO PUSH2 0xD6B JUMPI DUP2 PUSH1 0x5 ADD DUP9 DUP3 DUP2 MLOAD DUP2 LT PUSH2 0xD39 JUMPI PUSH2 0xD38 PUSH2 0x2B43 JUMP JUMPDEST JUMPDEST PUSH1 0x20 MUL PUSH1 0x20 ADD ADD MLOAD PUSH1 0x40 MLOAD PUSH2 0xD4E SWAP2 SWAP1 PUSH2 0x2C07 JUMP JUMPDEST SWAP1 DUP2 MSTORE PUSH1 0x20 ADD PUSH1 0x40 MLOAD DUP1 SWAP2 SUB SWAP1 KECCAK256 SWAP2 POP DUP1 DUP1 PUSH1 0x1 ADD SWAP2 POP POP PUSH2 0xD19 JUMP JUMPDEST POP PUSH0 DUP2 PUSH1 0x4 ADD DUP8 PUSH1 0x40 MLOAD PUSH2 0xD7F SWAP2 SWAP1 PUSH2 0x2C07 JUMP JUMPDEST SWAP1 DUP2 MSTORE PUSH1 0x20 ADD PUSH1 0x40 MLOAD DUP1 SWAP2 SUB SWAP1 KECCAK256 PUSH0 ADD DUP1 SLOAD PUSH2 0xD9A SWAP1 PUSH2 0x2B9D JUMP JUMPDEST SWAP1 POP SUB PUSH2 0xDDC JUMPI PUSH1 0x40 MLOAD PUSH32 0x8C379A000000000000000000000000000000000000000000000000000000000 DUP2 MSTORE PUSH1 0x4 ADD PUSH2 0xDD3 SWAP1 PUSH2 0x32E4 JUMP JUMPDEST PUSH1 0x40 MLOAD DUP1 SWAP2 SUB SWAP1 REVERT JUMPDEST PUSH0 DUP4 MLOAD EQ ISZERO DUP1 ISZERO PUSH2 0xDFB JUMPI POP DUP6 DUP1 MLOAD SWAP1 PUSH1 0x20 ADD KECCAK256 DUP4 DUP1 MLOAD SWAP1 PUSH1 0x20 ADD KECCAK256 EQ ISZERO JUMPDEST ISZERO PUSH2 0xEE1 JUMPI PUSH0 DUP2 PUSH1 0x4 ADD DUP5 PUSH1 0x40 MLOAD PUSH2 0xE13 SWAP2 SWAP1 PUSH2 0x2C07 JUMP JUMPDEST SWAP1 DUP2 MSTORE PUSH1 0x20 ADD PUSH1 0x40 MLOAD DUP1 SWAP2 SUB SWAP1 KECCAK256 PUSH0 ADD DUP1 SLOAD PUSH2 0xE2E SWAP1 PUSH2 0x2B9D JUMP JUMPDEST SWAP1 POP EQ PUSH2 0xE70 JUMPI PUSH1 0x40 MLOAD PUSH32 0x8C379A000000000000000000000000000000000000000000000000000000000 DUP2 MSTORE PUSH1 0x4 ADD PUSH2 0xE67 SWAP1 PUSH2 0x334C JUMP JUMPDEST PUSH1 0x40 MLOAD DUP1 SWAP2 SUB SWAP1 REVERT JUMPDEST PUSH0 DUP2 PUSH1 0x5 ADD DUP5 PUSH1 0x40 MLOAD PUSH2 0xE83 SWAP2 SWAP1 PUSH2 0x2C07 JUMP JUMPDEST SWAP1 DUP2 MSTORE PUSH1 0x20 ADD PUSH1 0x40 MLOAD DUP1 SWAP2 SUB SWAP1 KECCAK256 PUSH0 ADD DUP1 SLOAD PUSH2 0xE9E SWAP1 PUSH2 0x2B9D JUMP JUMPDEST SWAP1 POP EQ PUSH2 0xEE0 JUMPI PUSH1 0x40 MLOAD PUSH32 0x8C379A000000000000000000000000000000000000000000000000000000000 DUP2 MSTORE PUSH1 0x4 ADD PUSH2 0xED7 SWAP1 PUSH2 0x33DA JUMP JUMPDEST PUSH1 0x40 MLOAD DUP1 SWAP2 SUB SWAP1 REVERT JUMPDEST JUMPDEST PUSH0 DUP2 PUSH1 0x4 ADD DUP8 PUSH1 0x40 MLOAD PUSH2 0xEF4 SWAP2 SWAP1 PUSH2 0x2C07 JUMP JUMPDEST SWAP1 DUP2 MSTORE PUSH1 0x20 ADD PUSH1 0x40 MLOAD DUP1 SWAP2 SUB SWAP1 KECCAK256 SWAP1 POP DUP6 DUP2 PUSH1 0x1 ADD SWAP1 DUP2 PUSH2 0xF15 SWAP2 SWAP1 PUSH2 0x31CB JUMP JUMPDEST POP DUP5 DUP2 PUSH1 0x2 ADD DUP2 SWAP1 SSTORE POP DUP3 DUP2 PUSH1 0x3 ADD SWAP1 DUP2 PUSH2 0xF30 SWAP2 SWAP1 PUSH2 0x31CB JUMP JUMPDEST POP PUSH0 DUP5 MLOAD EQ ISZERO DUP1 ISZERO PUSH2 0xF50 JUMPI POP DUP7 DUP1 MLOAD SWAP1 PUSH1 0x20 ADD KECCAK256 DUP5 DUP1 MLOAD SWAP1 PUSH1 0x20 ADD KECCAK256 EQ ISZERO JUMPDEST ISZERO PUSH2 0x1143 JUMPI PUSH0 JUMPDEST DUP3 PUSH1 0x3 ADD DUP1 SLOAD SWAP1 POP DUP2 LT ISZERO PUSH2 0xFE4 JUMPI DUP8 DUP1 MLOAD SWAP1 PUSH1 0x20 ADD KECCAK256 DUP4 PUSH1 0x3 ADD DUP3 DUP2 SLOAD DUP2 LT PUSH2 0xF84 JUMPI PUSH2 0xF83 PUSH2 0x2B43 JUMP JUMPDEST JUMPDEST SWAP1 PUSH0 MSTORE PUSH1 0x20 PUSH0 KECCAK256 ADD PUSH1 0x40 MLOAD PUSH2 0xF99 SWAP2 SWAP1 PUSH2 0x2D89 JUMP JUMPDEST PUSH1 0x40 MLOAD DUP1 SWAP2 SUB SWAP1 KECCAK256 SUB PUSH2 0xFD7 JUMPI DUP5 DUP4 PUSH1 0x3 ADD DUP3 DUP2 SLOAD DUP2 LT PUSH2 0xFBD JUMPI PUSH2 0xFBC PUSH2 0x2B43 JUMP JUMPDEST JUMPDEST SWAP1 PUSH0 MSTORE PUSH1 0x20 PUSH0 KECCAK256 ADD SWAP1 DUP2 PUSH2 0xFD1 SWAP2 SWAP1 PUSH2 0x31CB JUMP JUMPDEST POP PUSH2 0xFE4 JUMP JUMPDEST DUP1 DUP1 PUSH1 0x1 ADD SWAP2 POP POP PUSH2 0xF57 JUMP JUMPDEST POP DUP1 DUP3 PUSH1 0x4 ADD DUP6 PUSH1 0x40 MLOAD PUSH2 0xFF8 SWAP2 SWAP1 PUSH2 0x2C07 JUMP JUMPDEST SWAP1 DUP2 MSTORE PUSH1 0x20 ADD PUSH1 0x40 MLOAD DUP1 SWAP2 SUB SWAP1 KECCAK256 PUSH0 DUP3 ADD DUP2 PUSH0 ADD SWAP1 DUP2 PUSH2 0x1018 SWAP2 SWAP1 PUSH2 0x340D JUMP JUMPDEST POP PUSH1 0x1 DUP3 ADD DUP2 PUSH1 0x1 ADD SWAP1 DUP2 PUSH2 0x102D SWAP2 SWAP1 PUSH2 0x340D JUMP JUMPDEST POP PUSH1 0x2 DUP3 ADD SLOAD DUP2 PUSH1 0x2 ADD SSTORE PUSH1 0x3 DUP3 ADD DUP2 PUSH1 0x3 ADD SWAP1 DUP2 PUSH2 0x104C SWAP2 SWAP1 PUSH2 0x340D JUMP JUMPDEST POP PUSH1 0x4 DUP3 ADD PUSH0 SWAP1 SLOAD SWAP1 PUSH2 0x100 EXP SWAP1 DIV PUSH20 0xFFFFFFFFFFFFFFFFFFFFFFFFFFFFFFFFFFFFFFFF AND DUP2 PUSH1 0x4 ADD PUSH0 PUSH2 0x100 EXP DUP2 SLOAD DUP2 PUSH20 0xFFFFFFFFFFFFFFFFFFFFFFFFFFFFFFFFFFFFFFFF MUL NOT AND SWAP1 DUP4 PUSH20 0xFFFFFFFFFFFFFFFFFFFFFFFFFFFFFFFFFFFFFFFF AND MUL OR SWAP1 SSTORE POP PUSH1 0x5 DUP3 ADD SLOAD DUP2 PUSH1 0x5 ADD SSTORE SWAP1 POP POP DUP2 PUSH1 0x4 ADD DUP8 PUSH1 0x40 MLOAD PUSH2 0x10D1 SWAP2 SWAP1 PUSH2 0x2C07 JUMP JUMPDEST SWAP1 DUP2 MSTORE PUSH1 0x20 ADD PUSH1 0x40 MLOAD DUP1 SWAP2 SUB SWAP1 KECCAK256 PUSH0 DUP1 DUP3 ADD PUSH0 PUSH2 0x10EE SWAP2 SWAP1 PUSH2 0x1FFC JUMP JUMPDEST PUSH1 0x1 DUP3 ADD PUSH0 PUSH2 0x10FD SWAP2 SWAP1 PUSH2 0x1FFC JUMP JUMPDEST PUSH1 0x2 DUP3 ADD PUSH0 SWAP1 SSTORE PUSH1 0x3 DUP3 ADD PUSH0 PUSH2 0x1113 SWAP2 SWAP1 PUSH2 0x1FFC JUMP JUMPDEST PUSH1 0x4 DUP3 ADD PUSH0 PUSH2 0x100 EXP DUP2 SLOAD SWAP1 PUSH20 0xFFFFFFFFFFFFFFFFFFFFFFFFFFFFFFFFFFFFFFFF MUL NOT AND SWAP1 SSTORE PUSH1 0x5 DUP3 ADD PUSH0 SWAP1 SSTORE POP POP JUMPDEST POP POP POP POP POP POP POP POP JUMP JUMPDEST PUSH2 0x1156 CALLER PUSH2 0x1E7B JUMP JUMPDEST PUSH0 DUP1 PUSH0 CALLER PUSH20 0xFFFFFFFFFFFFFFFFFFFFFFFFFFFFFFFFFFFFFFFF AND PUSH20 0xFFFFFFFFFFFFFFFFFFFFFFFFFFFFFFFFFFFFFFFF AND DUP2 MSTORE PUSH1 0x20 ADD SWAP1 DUP2 MSTORE PUSH1 0x20 ADD PUSH0 KECCAK256 SWAP1 POP PUSH0 JUMPDEST DUP5 MLOAD DUP2 LT ISZERO PUSH2 0x11E9 JUMPI DUP2 PUSH1 0x5 ADD DUP6 DUP3 DUP2 MLOAD DUP2 LT PUSH2 0x11B7 JUMPI PUSH2 0x11B6 PUSH2 0x2B43 JUMP JUMPDEST JUMPDEST PUSH1 0x20 MUL PUSH1 0x20 ADD ADD MLOAD PUSH1 0x40 MLOAD PUSH2 0x11CC SWAP2 SWAP1 PUSH2 0x2C07 JUMP JUMPDEST SWAP1 DUP2 MSTORE PUSH1 0x20 ADD PUSH1 0x40 MLOAD DUP1 SWAP2 SUB SWAP1 KECCAK256 SWAP2 POP DUP1 DUP1 PUSH1 0x1 ADD SWAP2 POP POP PUSH2 0x1197 JUMP JUMPDEST POP PUSH0 DUP2 PUSH1 0x4 ADD DUP5 PUSH1 0x40 MLOAD PUSH2 0x11FD SWAP2 SWAP1 PUSH2 0x2C07 JUMP JUMPDEST SWAP1 DUP2 MSTORE PUSH1 0x20 ADD PUSH1 0x40 MLOAD DUP1 SWAP2 SUB SWAP1 KECCAK256 PUSH0 ADD DUP1 SLOAD PUSH2 0x1218 SWAP1 PUSH2 0x2B9D JUMP JUMPDEST SWAP1 POP SUB PUSH2 0x125A JUMPI PUSH1 0x40 MLOAD PUSH32 0x8C379A000000000000000000000000000000000000000000000000000000000 DUP2 MSTORE PUSH1 0x4 ADD PUSH2 0x1251 SWAP1 PUSH2 0x32E4 JUMP JUMPDEST PUSH1 0x40 MLOAD DUP1 SWAP2 SUB SWAP1 REVERT JUMPDEST PUSH0 DUP2 PUSH1 0x4 ADD DUP5 PUSH1 0x40 MLOAD PUSH2 0x126D SWAP2 SWAP1 PUSH2 0x2C07 JUMP JUMPDEST SWAP1 DUP2 MSTORE PUSH1 0x20 ADD PUSH1 0x40 MLOAD DUP1 SWAP2 SUB SWAP1 KECCAK256 SWAP1 POP PUSH2 0x1286 DUP4 PUSH2 0x1E7B JUMP JUMPDEST PUSH0 DUP1 DUP5 PUSH20 0xFFFFFFFFFFFFFFFFFFFFFFFFFFFFFFFFFFFFFFFF AND PUSH20 0xFFFFFFFFFFFFFFFFFFFFFFFFFFFFFFFFFFFFFFFF AND DUP2 MSTORE PUSH1 0x20 ADD SWAP1 DUP2 MSTORE PUSH1 0x20 ADD PUSH0 KECCAK256 PUSH1 0x6 ADD DUP2 SWAP1 DUP1 PUSH1 0x1 DUP2 SLOAD ADD DUP1 DUP3 SSTORE DUP1 SWAP2 POP POP PUSH1 0x1 SWAP1 SUB SWAP1 PUSH0 MSTORE PUSH1 0x20 PUSH0 KECCAK256 SWAP1 PUSH1 0x6 MUL ADD PUSH0 SWAP1 SWAP2 SWAP1 SWAP2 SWAP1 SWAP2 POP PUSH0 DUP3 ADD DUP2 PUSH0 ADD SWAP1 DUP2 PUSH2 0x12FE SWAP2 SWAP1 PUSH2 0x340D JUMP JUMPDEST POP PUSH1 0x1 DUP3 ADD DUP2 PUSH1 0x1 ADD SWAP1 DUP2 PUSH2 0x1313 SWAP2 SWAP1 PUSH2 0x340D JUMP JUMPDEST POP PUSH1 0x2 DUP3 ADD SLOAD DUP2 PUSH1 0x2 ADD SSTORE PUSH1 0x3 DUP3 ADD DUP2 PUSH1 0x3 ADD SWAP1 DUP2 PUSH2 0x1332 SWAP2 SWAP1 PUSH2 0x340D JUMP JUMPDEST POP PUSH1 0x4 DUP3 ADD PUSH0 SWAP1 SLOAD SWAP1 PUSH2 0x100 EXP SWAP1 DIV PUSH20 0xFFFFFFFFFFFFFFFFFFFFFFFFFFFFFFFFFFFFFFFF AND DUP2 PUSH1 0x4 ADD PUSH0 PUSH2 0x100 EXP DUP2 SLOAD DUP2 PUSH20 0xFFFFFFFFFFFFFFFFFFFFFFFFFFFFFFFFFFFFFFFF MUL NOT AND SWAP1 DUP4 PUSH20 0xFFFFFFFFFFFFFFFFFFFFFFFFFFFFFFFFFFFFFFFF AND MUL OR SWAP1 SSTORE POP PUSH1 0x5 DUP3 ADD SLOAD DUP2 PUSH1 0x5 ADD SSTORE POP POP POP POP POP POP POP JUMP JUMPDEST PUSH2 0x13B4 CALLER PUSH2 0x1E7B JUMP JUMPDEST PUSH0 DUP1 PUSH0 CALLER PUSH20 0xFFFFFFFFFFFFFFFFFFFFFFFFFFFFFFFFFFFFFFFF AND PUSH20 0xFFFFFFFFFFFFFFFFFFFFFFFFFFFFFFFFFFFFFFFF AND DUP2 MSTORE PUSH1 0x20 ADD SWAP1 DUP2 MSTORE PUSH1 0x20 ADD PUSH0 KECCAK256 SWAP1 POP PUSH0 JUMPDEST DUP7 MLOAD DUP2 LT ISZERO PUSH2 0x1447 JUMPI DUP2 PUSH1 0x5 ADD DUP8 DUP3 DUP2 MLOAD DUP2 LT PUSH2 0x1415 JUMPI PUSH2 0x1414 PUSH2 0x2B43 JUMP JUMPDEST JUMPDEST PUSH1 0x20 MUL PUSH1 0x20 ADD ADD MLOAD PUSH1 0x40 MLOAD PUSH2 0x142A SWAP2 SWAP1 PUSH2 0x2C07 JUMP JUMPDEST SWAP1 DUP2 MSTORE PUSH1 0x20 ADD PUSH1 0x40 MLOAD DUP1 SWAP2 SUB SWAP1 KECCAK256 SWAP2 POP DUP1 DUP1 PUSH1 0x1 ADD SWAP2 POP POP PUSH2 0x13F5 JUMP JUMPDEST POP PUSH0 DUP2 PUSH1 0x4 ADD DUP7 PUSH1 0x40 MLOAD PUSH2 0x145B SWAP2 SWAP1 PUSH2 0x2C07 JUMP JUMPDEST SWAP1 DUP2 MSTORE PUSH1 0x20 ADD PUSH1 0x40 MLOAD DUP1 SWAP2 SUB SWAP1 KECCAK256 PUSH0 ADD DUP1 SLOAD PUSH2 0x1476 SWAP1 PUSH2 0x2B9D JUMP JUMPDEST SWAP1 POP EQ PUSH2 0x14B8 JUMPI PUSH1 0x40 MLOAD PUSH32 0x8C379A000000000000000000000000000000000000000000000000000000000 DUP2 MSTORE PUSH1 0x4 ADD PUSH2 0x14AF SWAP1 PUSH2 0x353C JUMP JUMPDEST PUSH1 0x40 MLOAD DUP1 SWAP2 SUB SWAP1 REVERT JUMPDEST PUSH0 DUP2 PUSH1 0x5 ADD DUP7 PUSH1 0x40 MLOAD PUSH2 0x14CB SWAP2 SWAP1 PUSH2 0x2C07 JUMP JUMPDEST SWAP1 DUP2 MSTORE PUSH1 0x20 ADD PUSH1 0x40 MLOAD DUP1 SWAP2 SUB SWAP1 KECCAK256 PUSH0 ADD DUP1 SLOAD PUSH2 0x14E6 SWAP1 PUSH2 0x2B9D JUMP JUMPDEST SWAP1 POP EQ PUSH2 0x1528 JUMPI PUSH1 0x40 MLOAD PUSH32 0x8C379A000000000000000000000000000000000000000000000000000000000 DUP2 MSTORE PUSH1 0x4 ADD PUSH2 0x151F SWAP1 PUSH2 0x35CA JUMP JUMPDEST PUSH1 0x40 MLOAD DUP1 SWAP2 SUB SWAP1 REVERT JUMPDEST PUSH0 DUP2 PUSH1 0x4 ADD DUP7 PUSH1 0x40 MLOAD PUSH2 0x153B SWAP2 SWAP1 PUSH2 0x2C07 JUMP JUMPDEST SWAP1 DUP2 MSTORE PUSH1 0x20 ADD PUSH1 0x40 MLOAD DUP1 SWAP2 SUB SWAP1 KECCAK256 SWAP1 POP DUP6 DUP2 PUSH0 ADD SWAP1 DUP2 PUSH2 0x155B SWAP2 SWAP1 PUSH2 0x31CB JUMP JUMPDEST POP DUP5 DUP2 PUSH1 0x1 ADD SWAP1 DUP2 PUSH2 0x156D SWAP2 SWAP1 PUSH2 0x31CB JUMP JUMPDEST POP DUP4 DUP2 PUSH1 0x2 ADD DUP2 SWAP1 SSTORE POP DUP3 DUP2 PUSH1 0x3 ADD SWAP1 DUP2 PUSH2 0x1588 SWAP2 SWAP1 PUSH2 0x31CB JUMP JUMPDEST POP CALLER DUP2 PUSH1 0x4 ADD PUSH0 PUSH2 0x100 EXP DUP2 SLOAD DUP2 PUSH20 0xFFFFFFFFFFFFFFFFFFFFFFFFFFFFFFFFFFFFFFFF MUL NOT AND SWAP1 DUP4 PUSH20 0xFFFFFFFFFFFFFFFFFFFFFFFFFFFFFFFFFFFFFFFF AND MUL OR SWAP1 SSTORE POP TIMESTAMP DUP2 PUSH1 0x5 ADD DUP2 SWAP1 SSTORE POP DUP2 PUSH1 0x3 ADD DUP7 SWAP1 DUP1 PUSH1 0x1 DUP2 SLOAD ADD DUP1 DUP3 SSTORE DUP1 SWAP2 POP POP PUSH1 0x1 SWAP1 SUB SWAP1 PUSH0 MSTORE PUSH1 0x20 PUSH0 KECCAK256 ADD PUSH0 SWAP1 SWAP2 SWAP1 SWAP2 SWAP1 SWAP2 POP SWAP1 DUP2 PUSH2 0x1607 SWAP2 SWAP1 PUSH2 0x31CB JUMP JUMPDEST POP POP POP POP POP POP POP POP JUMP JUMPDEST PUSH2 0x1619 PUSH2 0x1FCE JUMP JUMPDEST PUSH0 DUP1 PUSH0 JUMPDEST DUP5 PUSH1 0x3 ADD DUP1 SLOAD SWAP1 POP DUP2 LT ISZERO PUSH2 0x1739 JUMPI PUSH0 DUP6 PUSH1 0x3 ADD DUP3 DUP2 SLOAD DUP2 LT PUSH2 0x1643 JUMPI PUSH2 0x1642 PUSH2 0x2B43 JUMP JUMPDEST JUMPDEST SWAP1 PUSH0 MSTORE PUSH1 0x20 PUSH0 KECCAK256 ADD DUP1 SLOAD PUSH2 0x1656 SWAP1 PUSH2 0x2B9D JUMP JUMPDEST DUP1 PUSH1 0x1F ADD PUSH1 0x20 DUP1 SWAP2 DIV MUL PUSH1 0x20 ADD PUSH1 0x40 MLOAD SWAP1 DUP2 ADD PUSH1 0x40 MSTORE DUP1 SWAP3 SWAP2 SWAP1 DUP2 DUP2 MSTORE PUSH1 0x20 ADD DUP3 DUP1 SLOAD PUSH2 0x1682 SWAP1 PUSH2 0x2B9D JUMP JUMPDEST DUP1 ISZERO PUSH2 0x16CD JUMPI DUP1 PUSH1 0x1F LT PUSH2 0x16A4 JUMPI PUSH2 0x100 DUP1 DUP4 SLOAD DIV MUL DUP4 MSTORE SWAP2 PUSH1 0x20 ADD SWAP2 PUSH2 0x16CD JUMP JUMPDEST DUP3 ADD SWAP2 SWAP1 PUSH0 MSTORE PUSH1 0x20 PUSH0 KECCAK256 SWAP1 JUMPDEST DUP2 SLOAD DUP2 MSTORE SWAP1 PUSH1 0x1 ADD SWAP1 PUSH1 0x20 ADD DUP1 DUP4 GT PUSH2 0x16B0 JUMPI DUP3 SWAP1 SUB PUSH1 0x1F AND DUP3 ADD SWAP2 JUMPDEST POP POP POP POP POP SWAP1 POP PUSH0 DUP7 PUSH1 0x4 ADD DUP3 PUSH1 0x40 MLOAD PUSH2 0x16E7 SWAP2 SWAP1 PUSH2 0x2C07 JUMP JUMPDEST SWAP1 DUP2 MSTORE PUSH1 0x20 ADD PUSH1 0x40 MLOAD DUP1 SWAP2 SUB SWAP1 KECCAK256 PUSH0 ADD DUP1 SLOAD PUSH2 0x1702 SWAP1 PUSH2 0x2B9D JUMP JUMPDEST SWAP1 POP EQ PUSH2 0x171C JUMPI DUP4 DUP1 PUSH2 0x1714 SWAP1 PUSH2 0x35E8 JUMP JUMPDEST SWAP5 POP POP PUSH2 0x172B JUMP JUMPDEST DUP3 DUP1 PUSH2 0x1727 SWAP1 PUSH2 0x35E8 JUMP JUMPDEST SWAP4 POP POP JUMPDEST POP DUP1 DUP1 PUSH1 0x1 ADD SWAP2 POP POP PUSH2 0x161D JUMP JUMPDEST POP PUSH0 DUP3 PUSH8 0xFFFFFFFFFFFFFFFF DUP2 GT ISZERO PUSH2 0x1755 JUMPI PUSH2 0x1754 PUSH2 0x238E JUMP JUMPDEST JUMPDEST PUSH1 0x40 MLOAD SWAP1 DUP1 DUP3 MSTORE DUP1 PUSH1 0x20 MUL PUSH1 0x20 ADD DUP3 ADD PUSH1 0x40 MSTORE DUP1 ISZERO PUSH2 0x178E JUMPI DUP2 PUSH1 0x20 ADD JUMPDEST PUSH2 0x177B PUSH2 0x1FA1 JUMP JUMPDEST DUP2 MSTORE PUSH1 0x20 ADD SWAP1 PUSH1 0x1 SWAP1 SUB SWAP1 DUP2 PUSH2 0x1773 JUMPI SWAP1 POP JUMPDEST POP SWAP1 POP PUSH0 DUP3 PUSH8 0xFFFFFFFFFFFFFFFF DUP2 GT ISZERO PUSH2 0x17AC JUMPI PUSH2 0x17AB PUSH2 0x238E JUMP JUMPDEST JUMPDEST PUSH1 0x40 MLOAD SWAP1 DUP1 DUP3 MSTORE DUP1 PUSH1 0x20 MUL PUSH1 0x20 ADD DUP3 ADD PUSH1 0x40 MSTORE DUP1 ISZERO PUSH2 0x17DF JUMPI DUP2 PUSH1 0x20 ADD JUMPDEST PUSH1 0x60 DUP2 MSTORE PUSH1 0x20 ADD SWAP1 PUSH1 0x1 SWAP1 SUB SWAP1 DUP2 PUSH2 0x17CA JUMPI SWAP1 POP JUMPDEST POP SWAP1 POP PUSH0 DUP7 PUSH1 0x6 ADD DUP1 SLOAD SWAP1 POP PUSH8 0xFFFFFFFFFFFFFFFF DUP2 GT ISZERO PUSH2 0x1804 JUMPI PUSH2 0x1803 PUSH2 0x238E JUMP JUMPDEST JUMPDEST PUSH1 0x40 MLOAD SWAP1 DUP1 DUP3 MSTORE DUP1 PUSH1 0x20 MUL PUSH1 0x20 ADD DUP3 ADD PUSH1 0x40 MSTORE DUP1 ISZERO PUSH2 0x183D JUMPI DUP2 PUSH1 0x20 ADD JUMPDEST PUSH2 0x182A PUSH2 0x1FA1 JUMP JUMPDEST DUP2 MSTORE PUSH1 0x20 ADD SWAP1 PUSH1 0x1 SWAP1 SUB SWAP1 DUP2 PUSH2 0x1822 JUMPI SWAP1 POP JUMPDEST POP SWAP1 POP PUSH0 DUP1 PUSH0 JUMPDEST DUP10 PUSH1 0x3 ADD DUP1 SLOAD SWAP1 POP DUP2 LT ISZERO PUSH2 0x1B89 JUMPI PUSH0 DUP11 PUSH1 0x3 ADD DUP3 DUP2 SLOAD DUP2 LT PUSH2 0x186A JUMPI PUSH2 0x1869 PUSH2 0x2B43 JUMP JUMPDEST JUMPDEST SWAP1 PUSH0 MSTORE PUSH1 0x20 PUSH0 KECCAK256 ADD DUP1 SLOAD PUSH2 0x187D SWAP1 PUSH2 0x2B9D JUMP JUMPDEST DUP1 PUSH1 0x1F ADD PUSH1 0x20 DUP1 SWAP2 DIV MUL PUSH1 0x20 ADD PUSH1 0x40 MLOAD SWAP1 DUP2 ADD PUSH1 0x40 MSTORE DUP1 SWAP3 SWAP2 SWAP1 DUP2 DUP2 MSTORE PUSH1 0x20 ADD DUP3 DUP1 SLOAD PUSH2 0x18A9 SWAP1 PUSH2 0x2B9D JUMP JUMPDEST DUP1 ISZERO PUSH2 0x18F4 JUMPI DUP1 PUSH1 0x1F LT PUSH2 0x18CB JUMPI PUSH2 0x100 DUP1 DUP4 SLOAD DIV MUL DUP4 MSTORE SWAP2 PUSH1 0x20 ADD SWAP2 PUSH2 0x18F4 JUMP JUMPDEST DUP3 ADD SWAP2 SWAP1 PUSH0 MSTORE PUSH1 0x20 PUSH0 KECCAK256 SWAP1 JUMPDEST DUP2 SLOAD DUP2 MSTORE SWAP1 PUSH1 0x1 ADD SWAP1 PUSH1 0x20 ADD DUP1 DUP4 GT PUSH2 0x18D7 JUMPI DUP3 SWAP1 SUB PUSH1 0x1F AND DUP3 ADD SWAP2 JUMPDEST POP POP POP POP POP SWAP1 POP PUSH0 DUP12 PUSH1 0x4 ADD DUP3 PUSH1 0x40 MLOAD PUSH2 0x190E SWAP2 SWAP1 PUSH2 0x2C07 JUMP JUMPDEST SWAP1 DUP2 MSTORE PUSH1 0x20 ADD PUSH1 0x40 MLOAD DUP1 SWAP2 SUB SWAP1 KECCAK256 PUSH0 ADD DUP1 SLOAD PUSH2 0x1929 SWAP1 PUSH2 0x2B9D JUMP JUMPDEST SWAP1 POP EQ PUSH2 0x1B4F JUMPI PUSH0 DUP12 PUSH1 0x4 ADD DUP3 PUSH1 0x40 MLOAD PUSH2 0x1943 SWAP2 SWAP1 PUSH2 0x2C07 JUMP JUMPDEST SWAP1 DUP2 MSTORE PUSH1 0x20 ADD PUSH1 0x40 MLOAD DUP1 SWAP2 SUB SWAP1 KECCAK256 SWAP1 POP PUSH1 0x40 MLOAD DUP1 PUSH1 0xA0 ADD PUSH1 0x40 MSTORE DUP1 DUP3 PUSH0 ADD DUP1 SLOAD PUSH2 0x196C SWAP1 PUSH2 0x2B9D JUMP JUMPDEST DUP1 PUSH1 0x1F ADD PUSH1 0x20 DUP1 SWAP2 DIV MUL PUSH1 0x20 ADD PUSH1 0x40 MLOAD SWAP1 DUP2 ADD PUSH1 0x40 MSTORE DUP1 SWAP3 SWAP2 SWAP1 DUP2 DUP2 MSTORE PUSH1 0x20 ADD DUP3 DUP1 SLOAD PUSH2 0x1998 SWAP1 PUSH2 0x2B9D JUMP JUMPDEST DUP1 ISZERO PUSH2 0x19E3 JUMPI DUP1 PUSH1 0x1F LT PUSH2 0x19BA JUMPI PUSH2 0x100 DUP1 DUP4 SLOAD DIV MUL DUP4 MSTORE SWAP2 PUSH1 0x20 ADD SWAP2 PUSH2 0x19E3 JUMP JUMPDEST DUP3 ADD SWAP2 SWAP1 PUSH0 MSTORE PUSH1 0x20 PUSH0 KECCAK256 SWAP1 JUMPDEST DUP2 SLOAD DUP2 MSTORE SWAP1 PUSH1 0x1 ADD SWAP1 PUSH1 0x20 ADD DUP1 DUP4 GT PUSH2 0x19C6 JUMPI DUP3 SWAP1 SUB PUSH1 0x1F AND DUP3 ADD SWAP2 JUMPDEST POP POP POP POP POP DUP2 MSTORE PUSH1 0x20 ADD DUP3 PUSH1 0x1 ADD DUP1 SLOAD PUSH2 0x19FC SWAP1 PUSH2 0x2B9D JUMP JUMPDEST DUP1 PUSH1 0x1F ADD PUSH1 0x20 DUP1 SWAP2 DIV MUL PUSH1 0x20 ADD PUSH1 0x40 MLOAD SWAP1 DUP2 ADD PUSH1 0x40 MSTORE DUP1 SWAP3 SWAP2 SWAP1 DUP2 DUP2 MSTORE PUSH1 0x20 ADD DUP3 DUP1 SLOAD PUSH2 0x1A28 SWAP1 PUSH2 0x2B9D JUMP JUMPDEST DUP1 ISZERO PUSH2 0x1A73 JUMPI DUP1 PUSH1 0x1F LT PUSH2 0x1A4A JUMPI PUSH2 0x100 DUP1 DUP4 SLOAD DIV MUL DUP4 MSTORE SWAP2 PUSH1 0x20 ADD SWAP2 PUSH2 0x1A73 JUMP JUMPDEST DUP3 ADD SWAP2 SWAP1 PUSH0 MSTORE PUSH1 0x20 PUSH0 KECCAK256 SWAP1 JUMPDEST DUP2 SLOAD DUP2 MSTORE SWAP1 PUSH1 0x1 ADD SWAP1 PUSH1 0x20 ADD DUP1 DUP4 GT PUSH2 0x1A56 JUMPI DUP3 SWAP1 SUB PUSH1 0x1F AND DUP3 ADD SWAP2 JUMPDEST POP POP POP POP POP DUP2 MSTORE PUSH1 0x20 ADD DUP3 PUSH1 0x2 ADD SLOAD DUP2 MSTORE PUSH1 0x20 ADD DUP3 PUSH1 0x3 ADD DUP1 SLOAD PUSH2 0x1A96 SWAP1 PUSH2 0x2B9D JUMP JUMPDEST DUP1 PUSH1 0x1F ADD PUSH1 0x20 DUP1 SWAP2 DIV MUL PUSH1 0x20 ADD PUSH1 0x40 MLOAD SWAP1 DUP2 ADD PUSH1 0x40 MSTORE DUP1 SWAP3 SWAP2 SWAP1 DUP2 DUP2 MSTORE PUSH1 0x20 ADD DUP3 DUP1 SLOAD PUSH2 0x1AC2 SWAP1 PUSH2 0x2B9D JUMP JUMPDEST DUP1 ISZERO PUSH2 0x1B0D JUMPI DUP1 PUSH1 0x1F LT PUSH2 0x1AE4 JUMPI PUSH2 0x100 DUP1 DUP4 SLOAD DIV MUL DUP4 MSTORE SWAP2 PUSH1 0x20 ADD SWAP2 PUSH2 0x1B0D JUMP JUMPDEST DUP3 ADD SWAP2 SWAP1 PUSH0 MSTORE PUSH1 0x20 PUSH0 KECCAK256 SWAP1 JUMPDEST DUP2 SLOAD DUP2 MSTORE SWAP1 PUSH1 0x1 ADD SWAP1 PUSH1 0x20 ADD DUP1 DUP4 GT PUSH2 0x1AF0 JUMPI DUP3 SWAP1 SUB PUSH1 0x1F AND DUP3 ADD SWAP2 JUMPDEST POP POP POP POP POP DUP2 MSTORE PUSH1 0x20 ADD DUP3 PUSH1 0x5 ADD SLOAD DUP2 MSTORE POP DUP9 DUP7 DUP1 PUSH2 0x1B2B SWAP1 PUSH2 0x35E8 JUMP JUMPDEST SWAP8 POP DUP2 MLOAD DUP2 LT PUSH2 0x1B3E JUMPI PUSH2 0x1B3D PUSH2 0x2B43 JUMP JUMPDEST JUMPDEST PUSH1 0x20 MUL PUSH1 0x20 ADD ADD DUP2 SWAP1 MSTORE POP POP PUSH2 0x1B7B JUMP JUMPDEST DUP1 DUP7 DUP5 DUP1 PUSH2 0x1B5C SWAP1 PUSH2 0x35E8 JUMP JUMPDEST SWAP6 POP DUP2 MLOAD DUP2 LT PUSH2 0x1B6F JUMPI PUSH2 0x1B6E PUSH2 0x2B43 JUMP JUMPDEST JUMPDEST PUSH1 0x20 MUL PUSH1 0x20 ADD ADD DUP2 SWAP1 MSTORE POP JUMPDEST POP DUP1 DUP1 PUSH1 0x1 ADD SWAP2 POP POP PUSH2 0x1844 JUMP JUMPDEST POP PUSH0 JUMPDEST DUP10 PUSH1 0x6 ADD DUP1 SLOAD SWAP1 POP DUP2 LT ISZERO PUSH2 0x1DB8 JUMPI PUSH0 DUP11 PUSH1 0x6 ADD DUP3 DUP2 SLOAD DUP2 LT PUSH2 0x1BB2 JUMPI PUSH2 0x1BB1 PUSH2 0x2B43 JUMP JUMPDEST JUMPDEST SWAP1 PUSH0 MSTORE PUSH1 0x20 PUSH0 KECCAK256 SWAP1 PUSH1 0x6 MUL ADD SWAP1 POP PUSH1 0x40 MLOAD DUP1 PUSH1 0xA0 ADD PUSH1 0x40 MSTORE DUP1 DUP3 PUSH0 ADD DUP1 SLOAD PUSH2 0x1BD9 SWAP1 PUSH2 0x2B9D JUMP JUMPDEST DUP1 PUSH1 0x1F ADD PUSH1 0x20 DUP1 SWAP2 DIV MUL PUSH1 0x20 ADD PUSH1 0x40 MLOAD SWAP1 DUP2 ADD PUSH1 0x40 MSTORE DUP1 SWAP3 SWAP2 SWAP1 DUP2 DUP2 MSTORE PUSH1 0x20 ADD DUP3 DUP1 SLOAD PUSH2 0x1C05 SWAP1 PUSH2 0x2B9D JUMP JUMPDEST DUP1 ISZERO PUSH2 0x1C50 JUMPI DUP1 PUSH1 0x1F LT PUSH2 0x1C27 JUMPI PUSH2 0x100 DUP1 DUP4 SLOAD DIV MUL DUP4 MSTORE SWAP2 PUSH1 0x20 ADD SWAP2 PUSH2 0x1C50 JUMP JUMPDEST DUP3 ADD SWAP2 SWAP1 PUSH0 MSTORE PUSH1 0x20 PUSH0 KECCAK256 SWAP1 JUMPDEST DUP2 SLOAD DUP2 MSTORE SWAP1 PUSH1 0x1 ADD SWAP1 PUSH1 0x20 ADD DUP1 DUP4 GT PUSH2 0x1C33 JUMPI DUP3 SWAP1 SUB PUSH1 0x1F AND DUP3 ADD SWAP2 JUMPDEST POP POP POP POP POP DUP2 MSTORE PUSH1 0x20 ADD DUP3 PUSH1 0x1 ADD DUP1 SLOAD PUSH2 0x1C69 SWAP1 PUSH2 0x2B9D JUMP JUMPDEST DUP1 PUSH1 0x1F ADD PUSH1 0x20 DUP1 SWAP2 DIV MUL PUSH1 0x20 ADD PUSH1 0x40 MLOAD SWAP1 DUP2 ADD PUSH1 0x40 MSTORE DUP1 SWAP3 SWAP2 SWAP1 DUP2 DUP2 MSTORE PUSH1 0x20 ADD DUP3 DUP1 SLOAD PUSH2 0x1C95 SWAP1 PUSH2 0x2B9D JUMP JUMPDEST DUP1 ISZERO PUSH2 0x1CE0 JUMPI DUP1 PUSH1 0x1F LT PUSH2 0x1CB7 JUMPI PUSH2 0x100 DUP1 DUP4 SLOAD DIV MUL DUP4 MSTORE SWAP2 PUSH1 0x20 ADD SWAP2 PUSH2 0x1CE0 JUMP JUMPDEST DUP3 ADD SWAP2 SWAP1 PUSH0 MSTORE PUSH1 0x20 PUSH0 KECCAK256 SWAP1 JUMPDEST DUP2 SLOAD DUP2 MSTORE SWAP1 PUSH1 0x1 ADD SWAP1 PUSH1 0x20 ADD DUP1 DUP4 GT PUSH2 0x1CC3 JUMPI DUP3 SWAP1 SUB PUSH1 0x1F AND DUP3 ADD SWAP2 JUMPDEST POP POP POP POP POP DUP2 MSTORE PUSH1 0x20 ADD DUP3 PUSH1 0x2 ADD SLOAD DUP2 MSTORE PUSH1 0x20 ADD DUP3 PUSH1 0x3 ADD DUP1 SLOAD PUSH2 0x1D03 SWAP1 PUSH2 0x2B9D JUMP JUMPDEST DUP1 PUSH1 0x1F ADD PUSH1 0x20 DUP1 SWAP2 DIV MUL PUSH1 0x20 ADD PUSH1 0x40 MLOAD SWAP1 DUP2 ADD PUSH1 0x40 MSTORE DUP1 SWAP3 SWAP2 SWAP1 DUP2 DUP2 MSTORE PUSH1 0x20 ADD DUP3 DUP1 SLOAD PUSH2 0x1D2F SWAP1 PUSH2 0x2B9D JUMP JUMPDEST DUP1 ISZERO PUSH2 0x1D7A JUMPI DUP1 PUSH1 0x1F LT PUSH2 0x1D51 JUMPI PUSH2 0x100 DUP1 DUP4 SLOAD DIV MUL DUP4 MSTORE SWAP2 PUSH1 0x20 ADD SWAP2 PUSH2 0x1D7A JUMP JUMPDEST DUP3 ADD SWAP2 SWAP1 PUSH0 MSTORE PUSH1 0x20 PUSH0 KECCAK256 SWAP1 JUMPDEST DUP2 SLOAD DUP2 MSTORE SWAP1 PUSH1 0x1 ADD SWAP1 PUSH1 0x20 ADD DUP1 DUP4 GT PUSH2 0x1D5D JUMPI DUP3 SWAP1 SUB PUSH1 0x1F AND DUP3 ADD SWAP2 JUMPDEST POP POP POP POP POP DUP2 MSTORE PUSH1 0x20 ADD DUP3 PUSH1 0x5 ADD SLOAD DUP2 MSTORE POP DUP6 DUP4 DUP2 MLOAD DUP2 LT PUSH2 0x1D9F JUMPI PUSH2 0x1D9E PUSH2 0x2B43 JUMP JUMPDEST JUMPDEST PUSH1 0x20 MUL PUSH1 0x20 ADD ADD DUP2 SWAP1 MSTORE POP POP DUP1 DUP1 PUSH1 0x1 ADD SWAP2 POP POP PUSH2 0x1B8C JUMP JUMPDEST POP PUSH1 0x40 MLOAD DUP1 PUSH1 0xA0 ADD PUSH1 0x40 MSTORE DUP1 DUP11 PUSH0 ADD DUP1 SLOAD PUSH2 0x1DD2 SWAP1 PUSH2 0x2B9D JUMP JUMPDEST DUP1 PUSH1 0x1F ADD PUSH1 0x20 DUP1 SWAP2 DIV MUL PUSH1 0x20 ADD PUSH1 0x40 MLOAD SWAP1 DUP2 ADD PUSH1 0x40 MSTORE DUP1 SWAP3 SWAP2 SWAP1 DUP2 DUP2 MSTORE PUSH1 0x20 ADD DUP3 DUP1 SLOAD PUSH2 0x1DFE SWAP1 PUSH2 0x2B9D JUMP JUMPDEST DUP1 ISZERO PUSH2 0x1E49 JUMPI DUP1 PUSH1 0x1F LT PUSH2 0x1E20 JUMPI PUSH2 0x100 DUP1 DUP4 SLOAD DIV MUL DUP4 MSTORE SWAP2 PUSH1 0x20 ADD SWAP2 PUSH2 0x1E49 JUMP JUMPDEST DUP3 ADD SWAP2 SWAP1 PUSH0 MSTORE PUSH1 0x20 PUSH0 KECCAK256 SWAP1 JUMPDEST DUP2 SLOAD DUP2 MSTORE SWAP1 PUSH1 0x1 ADD SWAP1 PUSH1 0x20 ADD DUP1 DUP4 GT PUSH2 0x1E2C JUMPI DUP3 SWAP1 SUB PUSH1 0x1F AND DUP3 ADD SWAP2 JUMPDEST POP POP POP POP POP DUP2 MSTORE PUSH1 0x20 ADD DUP11 PUSH1 0x2 ADD SLOAD DUP2 MSTORE PUSH1 0x20 ADD DUP7 DUP2 MSTORE PUSH1 0x20 ADD DUP6 DUP2 MSTORE PUSH1 0x20 ADD DUP5 DUP2 MSTORE POP SWAP8 POP POP POP POP POP POP POP POP SWAP2 SWAP1 POP JUMP JUMPDEST PUSH0 DUP1 PUSH0 DUP4 PUSH20 0xFFFFFFFFFFFFFFFFFFFFFFFFFFFFFFFFFFFFFFFF AND PUSH20 0xFFFFFFFFFFFFFFFFFFFFFFFFFFFFFFFFFFFFFFFF AND DUP2 MSTORE PUSH1 0x20 ADD SWAP1 DUP2 MSTORE PUSH1 0x20 ADD PUSH0 KECCAK256 PUSH0 ADD DUP1 SLOAD PUSH2 0x1EC5 SWAP1 PUSH2 0x2B9D JUMP JUMPDEST SWAP1 POP SUB PUSH2 0x1F9E JUMPI PUSH0 DUP1 PUSH0 DUP4 PUSH20 0xFFFFFFFFFFFFFFFFFFFFFFFFFFFFFFFFFFFFFFFF AND PUSH20 0xFFFFFFFFFFFFFFFFFFFFFFFFFFFFFFFFFFFFFFFF AND DUP2 MSTORE PUSH1 0x20 ADD SWAP1 DUP2 MSTORE PUSH1 0x20 ADD PUSH0 KECCAK256 SWAP1 POP PUSH1 0x40 MLOAD DUP1 PUSH1 0x40 ADD PUSH1 0x40 MSTORE DUP1 PUSH1 0x8 DUP2 MSTORE PUSH1 0x20 ADD PUSH32 0x4D79205370616365000000000000000000000000000000000000000000000000 DUP2 MSTORE POP DUP2 PUSH0 ADD SWAP1 DUP2 PUSH2 0x1F50 SWAP2 SWAP1 PUSH2 0x31CB JUMP JUMPDEST POP DUP2 DUP2 PUSH1 0x1 ADD PUSH0 PUSH2 0x100 EXP DUP2 SLOAD DUP2 PUSH20 0xFFFFFFFFFFFFFFFFFFFFFFFFFFFFFFFFFFFFFFFF MUL NOT AND SWAP1 DUP4 PUSH20 0xFFFFFFFFFFFFFFFFFFFFFFFFFFFFFFFFFFFFFFFF AND MUL OR SWAP1 SSTORE POP TIMESTAMP DUP2 PUSH1 0x2 ADD DUP2 SWAP1 SSTORE POP POP JUMPDEST POP JUMP JUMPDEST PUSH1 0x40 MLOAD DUP1 PUSH1 0xA0 ADD PUSH1 0x40 MSTORE DUP1 PUSH1 0x60 DUP2 MSTORE PUSH1 0x20 ADD PUSH1 0x60 DUP2 MSTORE PUSH1 0x20 ADD PUSH0 DUP2 MSTORE PUSH1 0x20 ADD PUSH1 0x60 DUP2 MSTORE PUSH1 0x20 ADD PUSH0 DUP2 MSTORE POP SWAP1 JUMP JUMPDEST PUSH1 0x40 MLOAD DUP1 PUSH1 0xA0 ADD PUSH1 0x40 MSTORE DUP1 PUSH1 0x60 DUP2 MSTORE PUSH1 0x20 ADD PUSH0 DUP2 MSTORE PUSH1 0x20 ADD PUSH1 0x60 DUP2 MSTORE PUSH1 0x20 ADD PUSH1 0x60 DUP2 MSTORE PUSH1 0x20 ADD PUSH1 0x60 DUP2 MSTORE POP SWAP1 JUMP JUMPDEST POP DUP1 SLOAD PUSH2 0x2008 SWAP1 PUSH2 0x2B9D JUMP JUMPDEST PUSH0 DUP3 SSTORE DUP1 PUSH1 0x1F LT PUSH2 0x2019 JUMPI POP PUSH2 0x2036 JUMP JUMPDEST PUSH1 0x1F ADD PUSH1 0x20 SWAP1 DIV SWAP1 PUSH0 MSTORE PUSH1 0x20 PUSH0 KECCAK256 SWAP1 DUP2 ADD SWAP1 PUSH2 0x2035 SWAP2 SWAP1 PUSH2 0x2078 JUMP JUMPDEST JUMPDEST POP JUMP JUMPDEST POP DUP1 SLOAD PUSH0 DUP3 SSTORE SWAP1 PUSH0 MSTORE PUSH1 0x20 PUSH0 KECCAK256 SWAP1 DUP2 ADD SWAP1 PUSH2 0x2054 SWAP2 SWAP1 PUSH2 0x2093 JUMP JUMPDEST POP JUMP JUMPDEST POP DUP1 SLOAD PUSH0 DUP3 SSTORE PUSH1 0x6 MUL SWAP1 PUSH0 MSTORE PUSH1 0x20 PUSH0 KECCAK256 SWAP1 DUP2 ADD SWAP1 PUSH2 0x2075 SWAP2 SWAP1 PUSH2 0x20B6 JUMP JUMPDEST POP JUMP JUMPDEST JUMPDEST DUP1 DUP3 GT ISZERO PUSH2 0x208F JUMPI PUSH0 DUP2 PUSH0 SWAP1 SSTORE POP PUSH1 0x1 ADD PUSH2 0x2079 JUMP JUMPDEST POP SWAP1 JUMP JUMPDEST JUMPDEST DUP1 DUP3 GT ISZERO PUSH2 0x20B2 JUMPI PUSH0 DUP2 DUP2 PUSH2 0x20A9 SWAP2 SWAP1 PUSH2 0x1FFC JUMP JUMPDEST POP PUSH1 0x1 ADD PUSH2 0x2094 JUMP JUMPDEST POP SWAP1 JUMP JUMPDEST JUMPDEST DUP1 DUP3 GT ISZERO PUSH2 0x2129 JUMPI PUSH0 DUP1 DUP3 ADD PUSH0 PUSH2 0x20CE SWAP2 SWAP1 PUSH2 0x1FFC JUMP JUMPDEST PUSH1 0x1 DUP3 ADD PUSH0 PUSH2 0x20DD SWAP2 SWAP1 PUSH2 0x1FFC JUMP JUMPDEST PUSH1 0x2 DUP3 ADD PUSH0 SWAP1 SSTORE PUSH1 0x3 DUP3 ADD PUSH0 PUSH2 0x20F3 SWAP2 SWAP1 PUSH2 0x1FFC JUMP JUMPDEST PUSH1 0x4 DUP3 ADD PUSH0 PUSH2 0x100 EXP DUP2 SLOAD SWAP1 PUSH20 0xFFFFFFFFFFFFFFFFFFFFFFFFFFFFFFFFFFFFFFFF MUL NOT AND SWAP1 SSTORE PUSH1 0x5 DUP3 ADD PUSH0 SWAP1 SSTORE POP PUSH1 0x6 ADD PUSH2 0x20B7 JUMP JUMPDEST POP SWAP1 JUMP JUMPDEST PUSH0 DUP2 MLOAD SWAP1 POP SWAP2 SWAP1 POP JUMP JUMPDEST PUSH0 DUP3 DUP3 MSTORE PUSH1 0x20 DUP3 ADD SWAP1 POP SWAP3 SWAP2 POP POP JUMP JUMPDEST PUSH0 DUP2 SWAP1 POP PUSH1 0x20 DUP3 ADD SWAP1 POP SWAP2 SWAP1 POP JUMP JUMPDEST PUSH0 DUP2 MLOAD SWAP1 POP SWAP2 SWAP1 POP JUMP JUMPDEST PUSH0 DUP3 DUP3 MSTORE PUSH1 0x20 DUP3 ADD SWAP1 POP SWAP3 SWAP2 POP POP JUMP JUMPDEST DUP3 DUP2 DUP4 MCOPY PUSH0 DUP4 DUP4 ADD MSTORE POP POP POP JUMP JUMPDEST PUSH0 PUSH1 0x1F NOT PUSH1 0x1F DUP4 ADD AND SWAP1 POP SWAP2 SWAP1 POP JUMP JUMPDEST PUSH0 PUSH2 0x2198 DUP3 PUSH2 0x2156 JUMP JUMPDEST PUSH2 0x21A2 DUP2 DUP6 PUSH2 0x2160 JUMP JUMPDEST SWAP4 POP PUSH2 0x21B2 DUP2 DUP6 PUSH1 0x20 DUP7 ADD PUSH2 0x2170 JUMP JUMPDEST PUSH2 0x21BB DUP2 PUSH2 0x217E JUMP JUMPDEST DUP5 ADD SWAP2 POP POP SWAP3 SWAP2 POP POP JUMP JUMPDEST PUSH0 DUP2 SWAP1 POP SWAP2 SWAP1 POP JUMP JUMPDEST PUSH2 0x21D8 DUP2 PUSH2 0x21C6 JUMP JUMPDEST DUP3 MSTORE POP POP JUMP JUMPDEST PUSH0 PUSH1 0xA0 DUP4 ADD PUSH0 DUP4 ADD MLOAD DUP5 DUP3 SUB PUSH0 DUP7 ADD MSTORE PUSH2 0x21F8 DUP3 DUP3 PUSH2 0x218E JUMP JUMPDEST SWAP2 POP POP PUSH1 0x20 DUP4 ADD MLOAD DUP5 DUP3 SUB PUSH1 0x20 DUP7 ADD MSTORE PUSH2 0x2212 DUP3 DUP3 PUSH2 0x218E JUMP JUMPDEST SWAP2 POP POP PUSH1 0x40 DUP4 ADD MLOAD PUSH2 0x2227 PUSH1 0x40 DUP7 ADD DUP3 PUSH2 0x21CF JUMP JUMPDEST POP PUSH1 0x60 DUP4 ADD MLOAD DUP5 DUP3 SUB PUSH1 0x60 DUP7 ADD MSTORE PUSH2 0x223F DUP3 DUP3 PUSH2 0x218E JUMP JUMPDEST SWAP2 POP POP PUSH1 0x80 DUP4 ADD MLOAD PUSH2 0x2254 PUSH1 0x80 DUP7 ADD DUP3 PUSH2 0x21CF JUMP JUMPDEST POP DUP1 SWAP2 POP POP SWAP3 SWAP2 POP POP JUMP JUMPDEST PUSH0 PUSH2 0x226A DUP4 DUP4 PUSH2 0x21DE JUMP JUMPDEST SWAP1 POP SWAP3 SWAP2 POP POP JUMP JUMPDEST PUSH0 PUSH1 0x20 DUP3 ADD SWAP1 POP SWAP2 SWAP1 POP JUMP JUMPDEST PUSH0 PUSH2 0x2288 DUP3 PUSH2 0x212D JUMP JUMPDEST PUSH2 0x2292 DUP2 DUP6 PUSH2 0x2137 JUMP JUMPDEST SWAP4 POP DUP4 PUSH1 0x20 DUP3 MUL DUP6 ADD PUSH2 0x22A4 DUP6 PUSH2 0x2147 JUMP JUMPDEST DUP1 PUSH0 JUMPDEST DUP6 DUP2 LT ISZERO PUSH2 0x22DF JUMPI DUP5 DUP5 SUB DUP10 MSTORE DUP2 MLOAD PUSH2 0x22C0 DUP6 DUP3 PUSH2 0x225F JUMP JUMPDEST SWAP5 POP PUSH2 0x22CB DUP4 PUSH2 0x2272 JUMP JUMPDEST SWAP3 POP PUSH1 0x20 DUP11 ADD SWAP10 POP POP PUSH1 0x1 DUP2 ADD SWAP1 POP PUSH2 0x22A7 JUMP JUMPDEST POP DUP3 SWAP8 POP DUP8 SWAP6 POP POP POP POP POP POP SWAP3 SWAP2 POP POP JUMP JUMPDEST PUSH0 PUSH1 0x20 DUP3 ADD SWAP1 POP DUP2 DUP2 SUB PUSH0 DUP4 ADD MSTORE PUSH2 0x2309 DUP2 DUP5 PUSH2 0x227E JUMP JUMPDEST SWAP1 POP SWAP3 SWAP2 POP POP JUMP JUMPDEST PUSH0 DUP3 DUP3 MSTORE PUSH1 0x20 DUP3 ADD SWAP1 POP SWAP3 SWAP2 POP POP JUMP JUMPDEST PUSH0 PUSH2 0x232B DUP3 PUSH2 0x2156 JUMP JUMPDEST PUSH2 0x2335 DUP2 DUP6 PUSH2 0x2311 JUMP JUMPDEST SWAP4 POP PUSH2 0x2345 DUP2 DUP6 PUSH1 0x20 DUP7 ADD PUSH2 0x2170 JUMP JUMPDEST PUSH2 0x234E DUP2 PUSH2 0x217E JUMP JUMPDEST DUP5 ADD SWAP2 POP POP SWAP3 SWAP2 POP POP JUMP JUMPDEST PUSH0 PUSH1 0x20 DUP3 ADD SWAP1 POP DUP2 DUP2 SUB PUSH0 DUP4 ADD MSTORE PUSH2 0x2371 DUP2 DUP5 PUSH2 0x2321 JUMP JUMPDEST SWAP1 POP SWAP3 SWAP2 POP POP JUMP JUMPDEST PUSH0 PUSH1 0x40 MLOAD SWAP1 POP SWAP1 JUMP JUMPDEST PUSH0 DUP1 REVERT JUMPDEST PUSH0 DUP1 REVERT JUMPDEST PUSH0 DUP1 REVERT JUMPDEST PUSH32 0x4E487B7100000000000000000000000000000000000000000000000000000000 PUSH0 MSTORE PUSH1 0x41 PUSH1 0x4 MSTORE PUSH1 0x24 PUSH0 REVERT JUMPDEST PUSH2 0x23C4 DUP3 PUSH2 0x217E JUMP JUMPDEST DUP2 ADD DUP2 DUP2 LT PUSH8 0xFFFFFFFFFFFFFFFF DUP3 GT OR ISZERO PUSH2 0x23E3 JUMPI PUSH2 0x23E2 PUSH2 0x238E JUMP JUMPDEST JUMPDEST DUP1 PUSH1 0x40 MSTORE POP POP POP JUMP JUMPDEST PUSH0 PUSH2 0x23F5 PUSH2 0x2379 JUMP JUMPDEST SWAP1 POP PUSH2 0x2401 DUP3 DUP3 PUSH2 0x23BB JUMP JUMPDEST SWAP2 SWAP1 POP JUMP JUMPDEST PUSH0 PUSH8 0xFFFFFFFFFFFFFFFF DUP3 GT ISZERO PUSH2 0x2420 JUMPI PUSH2 0x241F PUSH2 0x238E JUMP JUMPDEST JUMPDEST PUSH1 0x20 DUP3 MUL SWAP1 POP PUSH1 0x20 DUP2 ADD SWAP1 POP SWAP2 SWAP1 POP JUMP JUMPDEST PUSH0 DUP1 REVERT JUMPDEST PUSH0 DUP1 REVERT JUMPDEST PUSH0 PUSH8 0xFFFFFFFFFFFFFFFF DUP3 GT ISZERO PUSH2 0x2453 JUMPI PUSH2 0x2452 PUSH2 0x238E JUMP JUMPDEST JUMPDEST PUSH2 0x245C DUP3 PUSH2 0x217E JUMP JUMPDEST SWAP1 POP PUSH1 0x20 DUP2 ADD SWAP1 POP SWAP2 SWAP1 POP JUMP JUMPDEST DUP3 DUP2 DUP4 CALLDATACOPY PUSH0 DUP4 DUP4 ADD MSTORE POP POP POP JUMP JUMPDEST PUSH0 PUSH2 0x2489 PUSH2 0x2484 DUP5 PUSH2 0x2439 JUMP JUMPDEST PUSH2 0x23EC JUMP JUMPDEST SWAP1 POP DUP3 DUP2 MSTORE PUSH1 0x20 DUP2 ADD DUP5 DUP5 DUP5 ADD GT ISZERO PUSH2 0x24A5 JUMPI PUSH2 0x24A4 PUSH2 0x2435 JUMP JUMPDEST JUMPDEST PUSH2 0x24B0 DUP5 DUP3 DUP6 PUSH2 0x2469 JUMP JUMPDEST POP SWAP4 SWAP3 POP POP POP JUMP JUMPDEST PUSH0 DUP3 PUSH1 0x1F DUP4 ADD SLT PUSH2 0x24CC JUMPI PUSH2 0x24CB PUSH2 0x238A JUMP JUMPDEST JUMPDEST DUP2 CALLDATALOAD PUSH2 0x24DC DUP5 DUP3 PUSH1 0x20 DUP7 ADD PUSH2 0x2477 JUMP JUMPDEST SWAP2 POP POP SWAP3 SWAP2 POP POP JUMP JUMPDEST PUSH0 PUSH2 0x24F7 PUSH2 0x24F2 DUP5 PUSH2 0x2406 JUMP JUMPDEST PUSH2 0x23EC JUMP JUMPDEST SWAP1 POP DUP1 DUP4 DUP3 MSTORE PUSH1 0x20 DUP3 ADD SWAP1 POP PUSH1 0x20 DUP5 MUL DUP4 ADD DUP6 DUP2 GT ISZERO PUSH2 0x251A JUMPI PUSH2 0x2519 PUSH2 0x2431 JUMP JUMPDEST JUMPDEST DUP4 JUMPDEST DUP2 DUP2 LT ISZERO PUSH2 0x2561 JUMPI DUP1 CALLDATALOAD PUSH8 0xFFFFFFFFFFFFFFFF DUP2 GT ISZERO PUSH2 0x253F JUMPI PUSH2 0x253E PUSH2 0x238A JUMP JUMPDEST JUMPDEST DUP1 DUP7 ADD PUSH2 0x254C DUP10 DUP3 PUSH2 0x24B8 JUMP JUMPDEST DUP6 MSTORE PUSH1 0x20 DUP6 ADD SWAP5 POP POP POP PUSH1 0x20 DUP2 ADD SWAP1 POP PUSH2 0x251C JUMP JUMPDEST POP POP POP SWAP4 SWAP3 POP POP POP JUMP JUMPDEST PUSH0 DUP3 PUSH1 0x1F DUP4 ADD SLT PUSH2 0x257F JUMPI PUSH2 0x257E PUSH2 0x238A JUMP JUMPDEST JUMPDEST DUP2 CALLDATALOAD PUSH2 0x258F DUP5 DUP3 PUSH1 0x20 DUP7 ADD PUSH2 0x24E5 JUMP JUMPDEST SWAP2 POP POP SWAP3 SWAP2 POP POP JUMP JUMPDEST PUSH0 PUSH1 0x20 DUP3 DUP5 SUB SLT ISZERO PUSH2 0x25AD JUMPI PUSH2 0x25AC PUSH2 0x2382 JUMP JUMPDEST JUMPDEST PUSH0 DUP3 ADD CALLDATALOAD PUSH8 0xFFFFFFFFFFFFFFFF DUP2 GT ISZERO PUSH2 0x25CA JUMPI PUSH2 0x25C9 PUSH2 0x2386 JUMP JUMPDEST JUMPDEST PUSH2 0x25D6 DUP5 DUP3 DUP6 ADD PUSH2 0x256B JUMP JUMPDEST SWAP2 POP POP SWAP3 SWAP2 POP POP JUMP JUMPDEST PUSH0 DUP3 DUP3 MSTORE PUSH1 0x20 DUP3 ADD SWAP1 POP SWAP3 SWAP2 POP POP JUMP JUMPDEST PUSH0 PUSH2 0x25F9 DUP3 PUSH2 0x212D JUMP JUMPDEST PUSH2 0x2603 DUP2 DUP6 PUSH2 0x25DF JUMP JUMPDEST SWAP4 POP DUP4 PUSH1 0x20 DUP3 MUL DUP6 ADD PUSH2 0x2615 DUP6 PUSH2 0x2147 JUMP JUMPDEST DUP1 PUSH0 JUMPDEST DUP6 DUP2 LT ISZERO PUSH2 0x2650 JUMPI DUP5 DUP5 SUB DUP10 MSTORE DUP2 MLOAD PUSH2 0x2631 DUP6 DUP3 PUSH2 0x225F JUMP JUMPDEST SWAP5 POP PUSH2 0x263C DUP4 PUSH2 0x2272 JUMP JUMPDEST SWAP3 POP PUSH1 0x20 DUP11 ADD SWAP10 POP POP PUSH1 0x1 DUP2 ADD SWAP1 POP PUSH2 0x2618 JUMP JUMPDEST POP DUP3 SWAP8 POP DUP8 SWAP6 POP POP POP POP POP POP SWAP3 SWAP2 POP POP JUMP JUMPDEST PUSH0 DUP2 MLOAD SWAP1 POP SWAP2 SWAP1 POP JUMP JUMPDEST PUSH0 DUP3 DUP3 MSTORE PUSH1 0x20 DUP3 ADD SWAP1 POP SWAP3 SWAP2 POP POP JUMP JUMPDEST PUSH0 DUP2 SWAP1 POP PUSH1 0x20 DUP3 ADD SWAP1 POP SWAP2 SWAP1 POP JUMP JUMPDEST PUSH0 PUSH2 0x2696 DUP4 DUP4 PUSH2 0x218E JUMP JUMPDEST SWAP1 POP SWAP3 SWAP2 POP POP JUMP JUMPDEST PUSH0 PUSH1 0x20 DUP3 ADD SWAP1 POP SWAP2 SWAP1 POP JUMP JUMPDEST PUSH0 PUSH2 0x26B4 DUP3 PUSH2 0x2662 JUMP JUMPDEST PUSH2 0x26BE DUP2 DUP6 PUSH2 0x266C JUMP JUMPDEST SWAP4 POP DUP4 PUSH1 0x20 DUP3 MUL DUP6 ADD PUSH2 0x26D0 DUP6 PUSH2 0x267C JUMP JUMPDEST DUP1 PUSH0 JUMPDEST DUP6 DUP2 LT ISZERO PUSH2 0x270B JUMPI DUP5 DUP5 SUB DUP10 MSTORE DUP2 MLOAD PUSH2 0x26EC DUP6 DUP3 PUSH2 0x268B JUMP JUMPDEST SWAP5 POP PUSH2 0x26F7 DUP4 PUSH2 0x269E JUMP JUMPDEST SWAP3 POP PUSH1 0x20 DUP11 ADD SWAP10 POP POP PUSH1 0x1 DUP2 ADD SWAP1 POP PUSH2 0x26D3 JUMP JUMPDEST POP DUP3 SWAP8 POP DUP8 SWAP6 POP POP POP POP POP POP SWAP3 SWAP2 POP POP JUMP JUMPDEST PUSH0 PUSH1 0xA0 DUP4 ADD PUSH0 DUP4 ADD MLOAD DUP5 DUP3 SUB PUSH0 DUP7 ADD MSTORE PUSH2 0x2737 DUP3 DUP3 PUSH2 0x218E JUMP JUMPDEST SWAP2 POP POP PUSH1 0x20 DUP4 ADD MLOAD PUSH2 0x274C PUSH1 0x20 DUP7 ADD DUP3 PUSH2 0x21CF JUMP JUMPDEST POP PUSH1 0x40 DUP4 ADD MLOAD DUP5 DUP3 SUB PUSH1 0x40 DUP7 ADD MSTORE PUSH2 0x2764 DUP3 DUP3 PUSH2 0x25EF JUMP JUMPDEST SWAP2 POP POP PUSH1 0x60 DUP4 ADD MLOAD DUP5 DUP3 SUB PUSH1 0x60 DUP7 ADD MSTORE PUSH2 0x277E DUP3 DUP3 PUSH2 0x26AA JUMP JUMPDEST SWAP2 POP POP PUSH1 0x80 DUP4 ADD MLOAD DUP5 DUP3 SUB PUSH1 0x80 DUP7 ADD MSTORE PUSH2 0x2798 DUP3 DUP3 PUSH2 0x25EF JUMP JUMPDEST SWAP2 POP POP DUP1 SWAP2 POP POP SWAP3 SWAP2 POP POP JUMP JUMPDEST PUSH0 PUSH1 0x20 DUP3 ADD SWAP1 POP DUP2 DUP2 SUB PUSH0 DUP4 ADD MSTORE PUSH2 0x27BD DUP2 DUP5 PUSH2 0x271D JUMP JUMPDEST SWAP1 POP SWAP3 SWAP2 POP POP JUMP JUMPDEST PUSH0 DUP1 PUSH1 0x40 DUP4 DUP6 SUB SLT ISZERO PUSH2 0x27DB JUMPI PUSH2 0x27DA PUSH2 0x2382 JUMP JUMPDEST JUMPDEST PUSH0 DUP4 ADD CALLDATALOAD PUSH8 0xFFFFFFFFFFFFFFFF DUP2 GT ISZERO PUSH2 0x27F8 JUMPI PUSH2 0x27F7 PUSH2 0x2386 JUMP JUMPDEST JUMPDEST PUSH2 0x2804 DUP6 DUP3 DUP7 ADD PUSH2 0x256B JUMP JUMPDEST SWAP3 POP POP PUSH1 0x20 DUP4 ADD CALLDATALOAD PUSH8 0xFFFFFFFFFFFFFFFF DUP2 GT ISZERO PUSH2 0x2825 JUMPI PUSH2 0x2824 PUSH2 0x2386 JUMP JUMPDEST JUMPDEST PUSH2 0x2831 DUP6 DUP3 DUP7 ADD PUSH2 0x24B8 JUMP JUMPDEST SWAP2 POP POP SWAP3 POP SWAP3 SWAP1 POP JUMP JUMPDEST PUSH2 0x2844 DUP2 PUSH2 0x21C6 JUMP JUMPDEST DUP2 EQ PUSH2 0x284E JUMPI PUSH0 DUP1 REVERT JUMPDEST POP JUMP JUMPDEST PUSH0 DUP2 CALLDATALOAD SWAP1 POP PUSH2 0x285F DUP2 PUSH2 0x283B JUMP JUMPDEST SWAP3 SWAP2 POP POP JUMP JUMPDEST PUSH0 DUP1 PUSH0 DUP1 PUSH0 DUP1 PUSH1 0xC0 DUP8 DUP10 SUB SLT ISZERO PUSH2 0x287F JUMPI PUSH2 0x287E PUSH2 0x2382 JUMP JUMPDEST JUMPDEST PUSH0 DUP8 ADD CALLDATALOAD PUSH8 0xFFFFFFFFFFFFFFFF DUP2 GT ISZERO PUSH2 0x289C JUMPI PUSH2 0x289B PUSH2 0x2386 JUMP JUMPDEST JUMPDEST PUSH2 0x28A8 DUP10 DUP3 DUP11 ADD PUSH2 0x256B JUMP JUMPDEST SWAP7 POP POP PUSH1 0x20 DUP8 ADD CALLDATALOAD PUSH8 0xFFFFFFFFFFFFFFFF DUP2 GT ISZERO PUSH2 0x28C9 JUMPI PUSH2 0x28C8 PUSH2 0x2386 JUMP JUMPDEST JUMPDEST PUSH2 0x28D5 DUP10 DUP3 DUP11 ADD PUSH2 0x24B8 JUMP JUMPDEST SWAP6 POP POP PUSH1 0x40 DUP8 ADD CALLDATALOAD PUSH8 0xFFFFFFFFFFFFFFFF DUP2 GT ISZERO PUSH2 0x28F6 JUMPI PUSH2 0x28F5 PUSH2 0x2386 JUMP JUMPDEST JUMPDEST PUSH2 0x2902 DUP10 DUP3 DUP11 ADD PUSH2 0x24B8 JUMP JUMPDEST SWAP5 POP POP PUSH1 0x60 PUSH2 0x2913 DUP10 DUP3 DUP11 ADD PUSH2 0x2851 JUMP JUMPDEST SWAP4 POP POP PUSH1 0x80 DUP8 ADD CALLDATALOAD PUSH8 0xFFFFFFFFFFFFFFFF DUP2 GT ISZERO PUSH2 0x2934 JUMPI PUSH2 0x2933 PUSH2 0x2386 JUMP JUMPDEST JUMPDEST PUSH2 0x2940 DUP10 DUP3 DUP11 ADD PUSH2 0x24B8 JUMP JUMPDEST SWAP3 POP POP PUSH1 0xA0 DUP8 ADD CALLDATALOAD PUSH8 0xFFFFFFFFFFFFFFFF DUP2 GT ISZERO PUSH2 0x2961 JUMPI PUSH2 0x2960 PUSH2 0x2386 JUMP JUMPDEST JUMPDEST PUSH2 0x296D DUP10 DUP3 DUP11 ADD PUSH2 0x24B8 JUMP JUMPDEST SWAP2 POP POP SWAP3 SWAP6 POP SWAP3 SWAP6 POP SWAP3 SWAP6 JUMP JUMPDEST PUSH0 PUSH20 0xFFFFFFFFFFFFFFFFFFFFFFFFFFFFFFFFFFFFFFFF DUP3 AND SWAP1 POP SWAP2 SWAP1 POP JUMP JUMPDEST PUSH0 PUSH2 0x29A3 DUP3 PUSH2 0x297A JUMP JUMPDEST SWAP1 POP SWAP2 SWAP1 POP JUMP JUMPDEST PUSH2 0x29B3 DUP2 PUSH2 0x2999 JUMP JUMPDEST DUP2 EQ PUSH2 0x29BD JUMPI PUSH0 DUP1 REVERT JUMPDEST POP JUMP JUMPDEST PUSH0 DUP2 CALLDATALOAD SWAP1 POP PUSH2 0x29CE DUP2 PUSH2 0x29AA JUMP JUMPDEST SWAP3 SWAP2 POP POP JUMP JUMPDEST PUSH0 DUP1 PUSH0 PUSH1 0x60 DUP5 DUP7 SUB SLT ISZERO PUSH2 0x29EB JUMPI PUSH2 0x29EA PUSH2 0x2382 JUMP JUMPDEST JUMPDEST PUSH0 DUP5 ADD CALLDATALOAD PUSH8 0xFFFFFFFFFFFFFFFF DUP2 GT ISZERO PUSH2 0x2A08 JUMPI PUSH2 0x2A07 PUSH2 0x2386 JUMP JUMPDEST JUMPDEST PUSH2 0x2A14 DUP7 DUP3 DUP8 ADD PUSH2 0x256B JUMP JUMPDEST SWAP4 POP POP PUSH1 0x20 DUP5 ADD CALLDATALOAD PUSH8 0xFFFFFFFFFFFFFFFF DUP2 GT ISZERO PUSH2 0x2A35 JUMPI PUSH2 0x2A34 PUSH2 0x2386 JUMP JUMPDEST JUMPDEST PUSH2 0x2A41 DUP7 DUP3 DUP8 ADD PUSH2 0x24B8 JUMP JUMPDEST SWAP3 POP POP PUSH1 0x40 PUSH2 0x2A52 DUP7 DUP3 DUP8 ADD PUSH2 0x29C0 JUMP JUMPDEST SWAP2 POP POP SWAP3 POP SWAP3 POP SWAP3 JUMP JUMPDEST PUSH0 DUP1 PUSH0 DUP1 PUSH0 PUSH1 0xA0 DUP7 DUP9 SUB SLT ISZERO PUSH2 0x2A75 JUMPI PUSH2 0x2A74 PUSH2 0x2382 JUMP JUMPDEST JUMPDEST PUSH0 DUP7 ADD CALLDATALOAD PUSH8 0xFFFFFFFFFFFFFFFF DUP2 GT ISZERO PUSH2 0x2A92 JUMPI PUSH2 0x2A91 PUSH2 0x2386 JUMP JUMPDEST JUMPDEST PUSH2 0x2A9E DUP9 DUP3 DUP10 ADD PUSH2 0x256B JUMP JUMPDEST SWAP6 POP POP PUSH1 0x20 DUP7 ADD CALLDATALOAD PUSH8 0xFFFFFFFFFFFFFFFF DUP2 GT ISZERO PUSH2 0x2ABF JUMPI PUSH2 0x2ABE PUSH2 0x2386 JUMP JUMPDEST JUMPDEST PUSH2 0x2ACB DUP9 DUP3 DUP10 ADD PUSH2 0x24B8 JUMP JUMPDEST SWAP5 POP POP PUSH1 0x40 DUP7 ADD CALLDATALOAD PUSH8 0xFFFFFFFFFFFFFFFF DUP2 GT ISZERO PUSH2 0x2AEC JUMPI PUSH2 0x2AEB PUSH2 0x2386 JUMP JUMPDEST JUMPDEST PUSH2 0x2AF8 DUP9 DUP3 DUP10 ADD PUSH2 0x24B8 JUMP JUMPDEST SWAP4 POP POP PUSH1 0x60 PUSH2 0x2B09 DUP9 DUP3 DUP10 ADD PUSH2 0x2851 JUMP JUMPDEST SWAP3 POP POP PUSH1 0x80 DUP7 ADD CALLDATALOAD PUSH8 0xFFFFFFFFFFFFFFFF DUP2 GT ISZERO PUSH2 0x2B2A JUMPI PUSH2 0x2B29 PUSH2 0x2386 JUMP JUMPDEST JUMPDEST PUSH2 0x2B36 DUP9 DUP3 DUP10 ADD PUSH2 0x24B8 JUMP JUMPDEST SWAP2 POP POP SWAP3 SWAP6 POP SWAP3 SWAP6 SWAP1 SWAP4 POP JUMP JUMPDEST PUSH32 0x4E487B7100000000000000000000000000000000000000000000000000000000 PUSH0 MSTORE PUSH1 0x32 PUSH1 0x4 MSTORE PUSH1 0x24 PUSH0 REVERT JUMPDEST PUSH32 0x4E487B7100000000000000000000000000000000000000000000000000000000 PUSH0 MSTORE PUSH1 0x22 PUSH1 0x4 MSTORE PUSH1 0x24 PUSH0 REVERT JUMPDEST PUSH0 PUSH1 0x2 DUP3 DIV SWAP1 POP PUSH1 0x1 DUP3 AND DUP1 PUSH2 0x2BB4 JUMPI PUSH1 0x7F DUP3 AND SWAP2 POP JUMPDEST PUSH1 0x20 DUP3 LT DUP2 SUB PUSH2 0x2BC7 JUMPI PUSH2 0x2BC6 PUSH2 0x2B70 JUMP JUMPDEST JUMPDEST POP SWAP2 SWAP1 POP JUMP JUMPDEST PUSH0 DUP2 SWAP1 POP SWAP3 SWAP2 POP POP JUMP JUMPDEST PUSH0 PUSH2 0x2BE1 DUP3 PUSH2 0x2156 JUMP JUMPDEST PUSH2 0x2BEB DUP2 DUP6 PUSH2 0x2BCD JUMP JUMPDEST SWAP4 POP PUSH2 0x2BFB DUP2 DUP6 PUSH1 0x20 DUP7 ADD PUSH2 0x2170 JUMP JUMPDEST DUP1 DUP5 ADD SWAP2 POP POP SWAP3 SWAP2 POP POP JUMP JUMPDEST PUSH0 PUSH2 0x2C12 DUP3 DUP5 PUSH2 0x2BD7 JUMP JUMPDEST SWAP2 POP DUP2 SWAP1 POP SWAP3 SWAP2 POP POP JUMP JUMPDEST PUSH32 0x466F6C64657220646F6573206E6F742065786973740000000000000000000000 PUSH0 DUP3 ADD MSTORE POP JUMP JUMPDEST PUSH0 PUSH2 0x2C51 PUSH1 0x15 DUP4 PUSH2 0x2311 JUMP JUMPDEST SWAP2 POP PUSH2 0x2C5C DUP3 PUSH2 0x2C1D JUMP JUMPDEST PUSH1 0x20 DUP3 ADD SWAP1 POP SWAP2 SWAP1 POP JUMP JUMPDEST PUSH0 PUSH1 0x20 DUP3 ADD SWAP1 POP DUP2 DUP2 SUB PUSH0 DUP4 ADD MSTORE PUSH2 0x2C7E DUP2 PUSH2 0x2C45 JUMP JUMPDEST SWAP1 POP SWAP2 SWAP1 POP JUMP JUMPDEST PUSH32 0x4974656D20646F6573206E6F7420657869737400000000000000000000000000 PUSH0 DUP3 ADD MSTORE POP JUMP JUMPDEST PUSH0 PUSH2 0x2CB9 PUSH1 0x13 DUP4 PUSH2 0x2311 JUMP JUMPDEST SWAP2 POP PUSH2 0x2CC4 DUP3 PUSH2 0x2C85 JUMP JUMPDEST PUSH1 0x20 DUP3 ADD SWAP1 POP SWAP2 SWAP1 POP JUMP JUMPDEST PUSH0 PUSH1 0x20 DUP3 ADD SWAP1 POP DUP2 DUP2 SUB PUSH0 DUP4 ADD MSTORE PUSH2 0x2CE6 DUP2 PUSH2 0x2CAD JUMP JUMPDEST SWAP1 POP SWAP2 SWAP1 POP JUMP JUMPDEST PUSH0 DUP2 SWAP1 POP SWAP3 SWAP2 POP POP JUMP JUMPDEST PUSH0 DUP2 SWAP1 POP DUP2 PUSH0 MSTORE PUSH1 0x20 PUSH0 KECCAK256 SWAP1 POP SWAP2 SWAP1 POP JUMP JUMPDEST PUSH0 DUP2 SLOAD PUSH2 0x2D15 DUP2 PUSH2 0x2B9D JUMP JUMPDEST PUSH2 0x2D1F DUP2 DUP7 PUSH2 0x2CED JUMP JUMPDEST SWAP5 POP PUSH1 0x1 DUP3 AND PUSH0 DUP2 EQ PUSH2 0x2D39 JUMPI PUSH1 0x1 DUP2 EQ PUSH2 0x2D4E JUMPI PUSH2 0x2D80 JUMP JUMPDEST PUSH1 0xFF NOT DUP4 AND DUP7 MSTORE DUP2 ISZERO ISZERO DUP3 MUL DUP7 ADD SWAP4 POP PUSH2 0x2D80 JUMP JUMPDEST PUSH2 0x2D57 DUP6 PUSH2 0x2CF7 JUMP JUMPDEST PUSH0 JUMPDEST DUP4 DUP2 LT ISZERO PUSH2 0x2D78 JUMPI DUP2 SLOAD DUP2 DUP10 ADD MSTORE PUSH1 0x1 DUP3 ADD SWAP2 POP PUSH1 0x20 DUP2 ADD SWAP1 POP PUSH2 0x2D59 JUMP JUMPDEST DUP4 DUP9 ADD SWAP6 POP POP POP JUMPDEST POP POP POP SWAP3 SWAP2 POP POP JUMP JUMPDEST PUSH0 PUSH2 0x2D94 DUP3 DUP5 PUSH2 0x2D09 JUMP JUMPDEST SWAP2 POP DUP2 SWAP1 POP SWAP3 SWAP2 POP POP JUMP JUMPDEST PUSH32 0x4E487B7100000000000000000000000000000000000000000000000000000000 PUSH0 MSTORE PUSH1 0x11 PUSH1 0x4 MSTORE PUSH1 0x24 PUSH0 REVERT JUMPDEST PUSH0 PUSH2 0x2DD6 DUP3 PUSH2 0x21C6 JUMP JUMPDEST SWAP2 POP PUSH2 0x2DE1 DUP4 PUSH2 0x21C6 JUMP JUMPDEST SWAP3 POP DUP3 DUP3 SUB SWAP1 POP DUP2 DUP2 GT ISZERO PUSH2 0x2DF9 JUMPI PUSH2 0x2DF8 PUSH2 0x2D9F JUMP JUMPDEST JUMPDEST SWAP3 SWAP2 POP POP JUMP JUMPDEST PUSH0 DUP2 SLOAD SWAP1 POP PUSH2 0x2E0D DUP2 PUSH2 0x2B9D JUMP JUMPDEST SWAP1 POP SWAP2 SWAP1 POP JUMP JUMPDEST PUSH0 DUP2 SWAP1 POP DUP2 PUSH0 MSTORE PUSH1 0x20 PUSH0 KECCAK256 SWAP1 POP SWAP2 SWAP1 POP JUMP JUMPDEST PUSH0 DUP2 SWAP1 POP DUP2 PUSH0 MSTORE PUSH1 0x20 PUSH0 KECCAK256 SWAP1 POP SWAP2 SWAP1 POP JUMP JUMPDEST PUSH0 PUSH1 0x20 PUSH1 0x1F DUP4 ADD DIV SWAP1 POP SWAP2 SWAP1 POP JUMP JUMPDEST PUSH0 DUP3 DUP3 SHL SWAP1 POP SWAP3 SWAP2 POP POP JUMP JUMPDEST PUSH0 PUSH1 0x8 DUP4 MUL PUSH2 0x2E82 PUSH32 0xFFFFFFFFFFFFFFFFFFFFFFFFFFFFFFFFFFFFFFFFFFFFFFFFFFFFFFFFFFFFFFFF DUP3 PUSH2 0x2E47 JUMP JUMPDEST PUSH2 0x2E8C DUP7 DUP4 PUSH2 0x2E47 JUMP JUMPDEST SWAP6 POP DUP1 NOT DUP5 AND SWAP4 POP DUP1 DUP7 AND DUP5 OR SWAP3 POP POP POP SWAP4 SWAP3 POP POP POP JUMP JUMPDEST PUSH0 DUP2 SWAP1 POP SWAP2 SWAP1 POP JUMP JUMPDEST PUSH0 PUSH2 0x2EC7 PUSH2 0x2EC2 PUSH2 0x2EBD DUP5 PUSH2 0x21C6 JUMP JUMPDEST PUSH2 0x2EA4 JUMP JUMPDEST PUSH2 0x21C6 JUMP JUMPDEST SWAP1 POP SWAP2 SWAP1 POP JUMP JUMPDEST PUSH0 DUP2 SWAP1 POP SWAP2 SWAP1 POP JUMP JUMPDEST PUSH2 0x2EE0 DUP4 PUSH2 0x2EAD JUMP JUMPDEST PUSH2 0x2EF4 PUSH2 0x2EEC DUP3 PUSH2 0x2ECE JUMP JUMPDEST DUP5 DUP5 SLOAD PUSH2 0x2E53 JUMP JUMPDEST DUP3 SSTORE POP POP POP POP JUMP JUMPDEST PUSH0 SWAP1 JUMP JUMPDEST PUSH2 0x2F08 PUSH2 0x2EFC JUMP JUMPDEST PUSH2 0x2F13 DUP2 DUP5 DUP5 PUSH2 0x2ED7 JUMP JUMPDEST POP POP POP JUMP JUMPDEST JUMPDEST DUP2 DUP2 LT ISZERO PUSH2 0x2F36 JUMPI PUSH2 0x2F2B PUSH0 DUP3 PUSH2 0x2F00 JUMP JUMPDEST PUSH1 0x1 DUP2 ADD SWAP1 POP PUSH2 0x2F19 JUMP JUMPDEST POP POP JUMP JUMPDEST PUSH1 0x1F DUP3 GT ISZERO PUSH2 0x2F7B JUMPI PUSH2 0x2F4C DUP2 PUSH2 0x2E14 JUMP JUMPDEST PUSH2 0x2F55 DUP5 PUSH2 0x2E38 JUMP JUMPDEST DUP2 ADD PUSH1 0x20 DUP6 LT ISZERO PUSH2 0x2F64 JUMPI DUP2 SWAP1 POP JUMPDEST PUSH2 0x2F78 PUSH2 0x2F70 DUP6 PUSH2 0x2E38 JUMP JUMPDEST DUP4 ADD DUP3 PUSH2 0x2F18 JUMP JUMPDEST POP POP JUMPDEST POP POP POP JUMP JUMPDEST PUSH0 DUP3 DUP3 SHR SWAP1 POP SWAP3 SWAP2 POP POP JUMP JUMPDEST PUSH0 PUSH2 0x2F9B PUSH0 NOT DUP5 PUSH1 0x8 MUL PUSH2 0x2F80 JUMP JUMPDEST NOT DUP1 DUP4 AND SWAP2 POP POP SWAP3 SWAP2 POP POP JUMP JUMPDEST PUSH0 PUSH2 0x2FB3 DUP4 DUP4 PUSH2 0x2F8C JUMP JUMPDEST SWAP2 POP DUP3 PUSH1 0x2 MUL DUP3 OR SWAP1 POP SWAP3 SWAP2 POP POP JUMP JUMPDEST DUP2 DUP2 SUB PUSH2 0x2FD1 JUMPI POP POP PUSH2 0x30A6 JUMP JUMPDEST PUSH2 0x2FDA DUP3 PUSH2 0x2DFF JUMP JUMPDEST PUSH8 0xFFFFFFFFFFFFFFFF DUP2 GT ISZERO PUSH2 0x2FF3 JUMPI PUSH2 0x2FF2 PUSH2 0x238E JUMP JUMPDEST JUMPDEST PUSH2 0x2FFD DUP3 SLOAD PUSH2 0x2B9D JUMP JUMPDEST PUSH2 0x3008 DUP3 DUP3 DUP6 PUSH2 0x2F3A JUMP JUMPDEST PUSH0 PUSH1 0x1F DUP4 GT PUSH1 0x1 DUP2 EQ PUSH2 0x3035 JUMPI PUSH0 DUP5 ISZERO PUSH2 0x3023 JUMPI DUP3 DUP8 ADD SLOAD SWAP1 POP JUMPDEST PUSH2 0x302D DUP6 DUP3 PUSH2 0x2FA8 JUMP JUMPDEST DUP7 SSTORE POP PUSH2 0x309F JUMP JUMPDEST PUSH1 0x1F NOT DUP5 AND PUSH2 0x3043 DUP8 PUSH2 0x2E26 JUMP JUMPDEST SWAP7 POP PUSH2 0x304E DUP7 PUSH2 0x2E14 JUMP JUMPDEST PUSH0 JUMPDEST DUP3 DUP2 LT ISZERO PUSH2 0x3075 JUMPI DUP5 DUP10 ADD SLOAD DUP3 SSTORE PUSH1 0x1 DUP3 ADD SWAP2 POP PUSH1 0x1 DUP6 ADD SWAP5 POP PUSH1 0x20 DUP2 ADD SWAP1 POP PUSH2 0x3050 JUMP JUMPDEST DUP7 DUP4 LT ISZERO PUSH2 0x3092 JUMPI DUP5 DUP10 ADD SLOAD PUSH2 0x308E PUSH1 0x1F DUP10 AND DUP3 PUSH2 0x2F8C JUMP JUMPDEST DUP4 SSTORE POP JUMPDEST PUSH1 0x1 PUSH1 0x2 DUP9 MUL ADD DUP9 SSTORE POP POP POP JUMPDEST POP POP POP POP POP POP JUMPDEST JUMP JUMPDEST PUSH32 0x4E487B7100000000000000000000000000000000000000000000000000000000 PUSH0 MSTORE PUSH1 0x31 PUSH1 0x4 MSTORE PUSH1 0x24 PUSH0 REVERT JUMPDEST PUSH32 0x466F6C64657220616C7265616479206578697374730000000000000000000000 PUSH0 DUP3 ADD MSTORE POP JUMP JUMPDEST PUSH0 PUSH2 0x3109 PUSH1 0x15 DUP4 PUSH2 0x2311 JUMP JUMPDEST SWAP2 POP PUSH2 0x3114 DUP3 PUSH2 0x30D5 JUMP JUMPDEST PUSH1 0x20 DUP3 ADD SWAP1 POP SWAP2 SWAP1 POP JUMP JUMPDEST PUSH0 PUSH1 0x20 DUP3 ADD SWAP1 POP DUP2 DUP2 SUB PUSH0 DUP4 ADD MSTORE PUSH2 0x3136 DUP2 PUSH2 0x30FD JUMP JUMPDEST SWAP1 POP SWAP2 SWAP1 POP JUMP JUMPDEST PUSH32 0x412066696C652077697468207468652073616D65206E616D6520616C72656164 PUSH0 DUP3 ADD MSTORE PUSH32 0x7920657869737473000000000000000000000000000000000000000000000000 PUSH1 0x20 DUP3 ADD MSTORE POP JUMP JUMPDEST PUSH0 PUSH2 0x3197 PUSH1 0x28 DUP4 PUSH2 0x2311 JUMP JUMPDEST SWAP2 POP PUSH2 0x31A2 DUP3 PUSH2 0x313D JUMP JUMPDEST PUSH1 0x40 DUP3 ADD SWAP1 POP SWAP2 SWAP1 POP JUMP JUMPDEST PUSH0 PUSH1 0x20 DUP3 ADD SWAP1 POP DUP2 DUP2 SUB PUSH0 DUP4 ADD MSTORE PUSH2 0x31C4 DUP2 PUSH2 0x318B JUMP JUMPDEST SWAP1 POP SWAP2 SWAP1 POP JUMP JUMPDEST PUSH2 0x31D4 DUP3 PUSH2 0x2156 JUMP JUMPDEST PUSH8 0xFFFFFFFFFFFFFFFF DUP2 GT ISZERO PUSH2 0x31ED JUMPI PUSH2 0x31EC PUSH2 0x238E JUMP JUMPDEST JUMPDEST PUSH2 0x31F7 DUP3 SLOAD PUSH2 0x2B9D JUMP JUMPDEST PUSH2 0x3202 DUP3 DUP3 DUP6 PUSH2 0x2F3A JUMP JUMPDEST PUSH0 PUSH1 0x20 SWAP1 POP PUSH1 0x1F DUP4 GT PUSH1 0x1 DUP2 EQ PUSH2 0x3233 JUMPI PUSH0 DUP5 ISZERO PUSH2 0x3221 JUMPI DUP3 DUP8 ADD MLOAD SWAP1 POP JUMPDEST PUSH2 0x322B DUP6 DUP3 PUSH2 0x2FA8 JUMP JUMPDEST DUP7 SSTORE POP PUSH2 0x3292 JUMP JUMPDEST PUSH1 0x1F NOT DUP5 AND PUSH2 0x3241 DUP7 PUSH2 0x2E14 JUMP JUMPDEST PUSH0 JUMPDEST DUP3 DUP2 LT ISZERO PUSH2 0x3268 JUMPI DUP5 DUP10 ADD MLOAD DUP3 SSTORE PUSH1 0x1 DUP3 ADD SWAP2 POP PUSH1 0x20 DUP6 ADD SWAP5 POP PUSH1 0x20 DUP2 ADD SWAP1 POP PUSH2 0x3243 JUMP JUMPDEST DUP7 DUP4 LT ISZERO PUSH2 0x3285 JUMPI DUP5 DUP10 ADD MLOAD PUSH2 0x3281 PUSH1 0x1F DUP10 AND DUP3 PUSH2 0x2F8C JUMP JUMPDEST DUP4 SSTORE POP JUMPDEST PUSH1 0x1 PUSH1 0x2 DUP9 MUL ADD DUP9 SSTORE POP POP POP JUMPDEST POP POP POP POP POP POP JUMP JUMPDEST PUSH32 0x46696C6520646F6573206E6F7420657869737400000000000000000000000000 PUSH0 DUP3 ADD MSTORE POP JUMP JUMPDEST PUSH0 PUSH2 0x32CE PUSH1 0x13 DUP4 PUSH2 0x2311 JUMP JUMPDEST SWAP2 POP PUSH2 0x32D9 DUP3 PUSH2 0x329A JUMP JUMPDEST PUSH1 0x20 DUP3 ADD SWAP1 POP SWAP2 SWAP1 POP JUMP JUMPDEST PUSH0 PUSH1 0x20 DUP3 ADD SWAP1 POP DUP2 DUP2 SUB PUSH0 DUP4 ADD MSTORE PUSH2 0x32FB DUP2 PUSH2 0x32C2 JUMP JUMPDEST SWAP1 POP SWAP2 SWAP1 POP JUMP JUMPDEST PUSH32 0x4E65772066696C65206E616D6520616C72656164792065786973747300000000 PUSH0 DUP3 ADD MSTORE POP JUMP JUMPDEST PUSH0 PUSH2 0x3336 PUSH1 0x1C DUP4 PUSH2 0x2311 JUMP JUMPDEST SWAP2 POP PUSH2 0x3341 DUP3 PUSH2 0x3302 JUMP JUMPDEST PUSH1 0x20 DUP3 ADD SWAP1 POP SWAP2 SWAP1 POP JUMP JUMPDEST PUSH0 PUSH1 0x20 DUP3 ADD SWAP1 POP DUP2 DUP2 SUB PUSH0 DUP4 ADD MSTORE PUSH2 0x3363 DUP2 PUSH2 0x332A JUMP JUMPDEST SWAP1 POP SWAP2 SWAP1 POP JUMP JUMPDEST PUSH32 0x4120666F6C646572207769746820746865206E65772066696C65206E616D6520 PUSH0 DUP3 ADD MSTORE PUSH32 0x616C726561647920657869737473000000000000000000000000000000000000 PUSH1 0x20 DUP3 ADD MSTORE POP JUMP JUMPDEST PUSH0 PUSH2 0x33C4 PUSH1 0x2E DUP4 PUSH2 0x2311 JUMP JUMPDEST SWAP2 POP PUSH2 0x33CF DUP3 PUSH2 0x336A JUMP JUMPDEST PUSH1 0x40 DUP3 ADD SWAP1 POP SWAP2 SWAP1 POP JUMP JUMPDEST PUSH0 PUSH1 0x20 DUP3 ADD SWAP1 POP DUP2 DUP2 SUB PUSH0 DUP4 ADD MSTORE PUSH2 0x33F1 DUP2 PUSH2 0x33B8 JUMP JUMPDEST SWAP1 POP SWAP2 SWAP1 POP JUMP JUMPDEST PUSH0 DUP2 SLOAD SWAP1 POP PUSH2 0x3406 DUP2 PUSH2 0x2B9D JUMP JUMPDEST SWAP1 POP SWAP2 SWAP1 POP JUMP JUMPDEST DUP2 DUP2 SUB PUSH2 0x341B JUMPI POP POP PUSH2 0x34F0 JUMP JUMPDEST PUSH2 0x3424 DUP3 PUSH2 0x33F8 JUMP JUMPDEST PUSH8 0xFFFFFFFFFFFFFFFF DUP2 GT ISZERO PUSH2 0x343D JUMPI PUSH2 0x343C PUSH2 0x238E JUMP JUMPDEST JUMPDEST PUSH2 0x3447 DUP3 SLOAD PUSH2 0x2B9D JUMP JUMPDEST PUSH2 0x3452 DUP3 DUP3 DUP6 PUSH2 0x2F3A JUMP JUMPDEST PUSH0 PUSH1 0x1F DUP4 GT PUSH1 0x1 DUP2 EQ PUSH2 0x347F JUMPI PUSH0 DUP5 ISZERO PUSH2 0x346D JUMPI DUP3 DUP8 ADD SLOAD SWAP1 POP JUMPDEST PUSH2 0x3477 DUP6 DUP3 PUSH2 0x2FA8 JUMP JUMPDEST DUP7 SSTORE POP PUSH2 0x34E9 JUMP JUMPDEST PUSH1 0x1F NOT DUP5 AND PUSH2 0x348D DUP8 PUSH2 0x2E14 JUMP JUMPDEST SWAP7 POP PUSH2 0x3498 DUP7 PUSH2 0x2E14 JUMP JUMPDEST PUSH0 JUMPDEST DUP3 DUP2 LT ISZERO PUSH2 0x34BF JUMPI DUP5 DUP10 ADD SLOAD DUP3 SSTORE PUSH1 0x1 DUP3 ADD SWAP2 POP PUSH1 0x1 DUP6 ADD SWAP5 POP PUSH1 0x20 DUP2 ADD SWAP1 POP PUSH2 0x349A JUMP JUMPDEST DUP7 DUP4 LT ISZERO PUSH2 0x34DC JUMPI DUP5 DUP10 ADD SLOAD PUSH2 0x34D8 PUSH1 0x1F DUP10 AND DUP3 PUSH2 0x2F8C JUMP JUMPDEST DUP4 SSTORE POP JUMPDEST PUSH1 0x1 PUSH1 0x2 DUP9 MUL ADD DUP9 SSTORE POP POP POP JUMPDEST POP POP POP POP POP POP JUMPDEST JUMP JUMPDEST PUSH32 0x46696C6520616C72656164792065786973747300000000000000000000000000 PUSH0 DUP3 ADD MSTORE POP JUMP JUMPDEST PUSH0 PUSH2 0x3526 PUSH1 0x13 DUP4 PUSH2 0x2311 JUMP JUMPDEST SWAP2 POP PUSH2 0x3531 DUP3 PUSH2 0x34F2 JUMP JUMPDEST PUSH1 0x20 DUP3 ADD SWAP1 POP SWAP2 SWAP1 POP JUMP JUMPDEST PUSH0 PUSH1 0x20 DUP3 ADD SWAP1 POP DUP2 DUP2 SUB PUSH0 DUP4 ADD MSTORE PUSH2 0x3553 DUP2 PUSH2 0x351A JUMP JUMPDEST SWAP1 POP SWAP2 SWAP1 POP JUMP JUMPDEST PUSH32 0x4120666F6C6465722077697468207468652073616D65206E616D6520616C7265 PUSH0 DUP3 ADD MSTORE PUSH32 0x6164792065786973747300000000000000000000000000000000000000000000 PUSH1 0x20 DUP3 ADD MSTORE POP JUMP JUMPDEST PUSH0 PUSH2 0x35B4 PUSH1 0x2A DUP4 PUSH2 0x2311 JUMP JUMPDEST SWAP2 POP PUSH2 0x35BF DUP3 PUSH2 0x355A JUMP JUMPDEST PUSH1 0x40 DUP3 ADD SWAP1 POP SWAP2 SWAP1 POP JUMP JUMPDEST PUSH0 PUSH1 0x20 DUP3 ADD SWAP1 POP DUP2 DUP2 SUB PUSH0 DUP4 ADD MSTORE PUSH2 0x35E1 DUP2 PUSH2 0x35A8 JUMP JUMPDEST SWAP1 POP SWAP2 SWAP1 POP JUMP JUMPDEST PUSH0 PUSH2 0x35F2 DUP3 PUSH2 0x21C6 JUMP JUMPDEST SWAP2 POP PUSH32 0xFFFFFFFFFFFFFFFFFFFFFFFFFFFFFFFFFFFFFFFFFFFFFFFFFFFFFFFFFFFFFFFF DUP3 SUB PUSH2 0x3624 JUMPI PUSH2 0x3623 PUSH2 0x2D9F JUMP JUMPDEST JUMPDEST PUSH1 0x1 DUP3 ADD SWAP1 POP SWAP2 SWAP1 POP JUMP INVALID LOG2 PUSH5 0x6970667358 0x22 SLT KECCAK256 PUSH31 0x3370CF1236EEFD8D686154535B7D11325D53F00804309EAC73797FFF59C1BB PUSH5 0x736F6C6343 STOP ADDMOD BYTE STOP CALLER "
		},
		"gasEstimates": {
			"creation": {
				"codeDepositCost": "2785000",
				"executionCost": "infinite",
				"totalCost": "infinite"
			},
			"external": {
				"checkUserRootExists()": "infinite",
				"createFolder(string[],string)": "infinite",
				"deleteItem(string[],string)": "infinite",
				"getFolderData(string[])": "infinite",
				"getSharedWithMeFiles()": "infinite",
				"initializeUserRoot()": "infinite",
				"shareFileWithUser(string[],string,address)": "infinite",
				"updateFile(string[],string,string,uint256,string,string)": "infinite",
				"uploadFile(string[],string,string,uint256,string)": "infinite"
			},
			"internal": {
				"_getFolderInfo(struct Lock.Folder storage pointer)": "infinite",
				"_initializeUserRoot(address)": "infinite"
			}
		},
		"methodIdentifiers": {
			"checkUserRootExists()": "37db6c1a",
			"createFolder(string[],string)": "e75c5051",
			"deleteItem(string[],string)": "d3780e10",
			"getFolderData(string[])": "c905819b",
			"getSharedWithMeFiles()": "243a658d",
			"initializeUserRoot()": "e01adc05",
			"shareFileWithUser(string[],string,address)": "f5ded10b",
			"updateFile(string[],string,string,uint256,string,string)": "eff9f64f",
			"uploadFile(string[],string,string,uint256,string)": "f7da18c8"
		}
	},
	"abi": [
		{
			"inputs": [],
			"stateMutability": "nonpayable",
			"type": "constructor"
		},
		{
			"inputs": [],
			"name": "checkUserRootExists",
			"outputs": [
				{
					"internalType": "string",
					"name": "",
					"type": "string"
				}
			],
			"stateMutability": "view",
			"type": "function"
		},
		{
			"inputs": [
				{
					"internalType": "string[]",
					"name": "path",
					"type": "string[]"
				},
				{
					"internalType": "string",
					"name": "folderName",
					"type": "string"
				}
			],
			"name": "createFolder",
			"outputs": [],
			"stateMutability": "nonpayable",
			"type": "function"
		},
		{
			"inputs": [
				{
					"internalType": "string[]",
					"name": "path",
					"type": "string[]"
				},
				{
					"internalType": "string",
					"name": "itemName",
					"type": "string"
				}
			],
			"name": "deleteItem",
			"outputs": [],
			"stateMutability": "nonpayable",
			"type": "function"
		},
		{
			"inputs": [
				{
					"internalType": "string[]",
					"name": "path",
					"type": "string[]"
				}
			],
			"name": "getFolderData",
			"outputs": [
				{
					"components": [
						{
							"internalType": "string",
							"name": "name",
							"type": "string"
						},
						{
							"internalType": "uint256",
							"name": "createdAt",
							"type": "uint256"
						},
						{
							"components": [
								{
									"internalType": "string",
									"name": "name",
									"type": "string"
								},
								{
									"internalType": "string",
									"name": "cid",
									"type": "string"
								},
								{
									"internalType": "uint256",
									"name": "size",
									"type": "uint256"
								},
								{
									"internalType": "string",
									"name": "fileType",
									"type": "string"
								},
								{
									"internalType": "uint256",
									"name": "createdAt",
									"type": "uint256"
								}
							],
							"internalType": "struct Lock.FileInfo[]",
							"name": "files",
							"type": "tuple[]"
						},
						{
							"internalType": "string[]",
							"name": "subFolderNames",
							"type": "string[]"
						},
						{
							"components": [
								{
									"internalType": "string",
									"name": "name",
									"type": "string"
								},
								{
									"internalType": "string",
									"name": "cid",
									"type": "string"
								},
								{
									"internalType": "uint256",
									"name": "size",
									"type": "uint256"
								},
								{
									"internalType": "string",
									"name": "fileType",
									"type": "string"
								},
								{
									"internalType": "uint256",
									"name": "createdAt",
									"type": "uint256"
								}
							],
							"internalType": "struct Lock.FileInfo[]",
							"name": "sharedWithMe",
							"type": "tuple[]"
						}
					],
					"internalType": "struct Lock.FolderInfo",
					"name": "",
					"type": "tuple"
				}
			],
			"stateMutability": "view",
			"type": "function"
		},
		{
			"inputs": [],
			"name": "getSharedWithMeFiles",
			"outputs": [
				{
					"components": [
						{
							"internalType": "string",
							"name": "name",
							"type": "string"
						},
						{
							"internalType": "string",
							"name": "cid",
							"type": "string"
						},
						{
							"internalType": "uint256",
							"name": "size",
							"type": "uint256"
						},
						{
							"internalType": "string",
							"name": "fileType",
							"type": "string"
						},
						{
							"internalType": "uint256",
							"name": "createdAt",
							"type": "uint256"
						}
					],
					"internalType": "struct Lock.FileInfo[]",
					"name": "",
					"type": "tuple[]"
				}
			],
			"stateMutability": "view",
			"type": "function"
		},
		{
			"inputs": [],
			"name": "initializeUserRoot",
			"outputs": [
				{
					"internalType": "string",
					"name": "",
					"type": "string"
				}
			],
			"stateMutability": "nonpayable",
			"type": "function"
		},
		{
			"inputs": [
				{
					"internalType": "string[]",
					"name": "path",
					"type": "string[]"
				},
				{
					"internalType": "string",
					"name": "fileName",
					"type": "string"
				},
				{
					"internalType": "address",
					"name": "recipient",
					"type": "address"
				}
			],
			"name": "shareFileWithUser",
			"outputs": [],
			"stateMutability": "nonpayable",
			"type": "function"
		},
		{
			"inputs": [
				{
					"internalType": "string[]",
					"name": "path",
					"type": "string[]"
				},
				{
					"internalType": "string",
					"name": "fileName",
					"type": "string"
				},
				{
					"internalType": "string",
					"name": "newCid",
					"type": "string"
				},
				{
					"internalType": "uint256",
					"name": "newSize",
					"type": "uint256"
				},
				{
					"internalType": "string",
					"name": "newFileName",
					"type": "string"
				},
				{
					"internalType": "string",
					"name": "newFileType",
					"type": "string"
				}
			],
			"name": "updateFile",
			"outputs": [],
			"stateMutability": "nonpayable",
			"type": "function"
		},
		{
			"inputs": [
				{
					"internalType": "string[]",
					"name": "path",
					"type": "string[]"
				},
				{
					"internalType": "string",
					"name": "fileName",
					"type": "string"
				},
				{
					"internalType": "string",
					"name": "cid",
					"type": "string"
				},
				{
					"internalType": "uint256",
					"name": "size",
					"type": "uint256"
				},
				{
					"internalType": "string",
					"name": "fileType",
					"type": "string"
				}
			],
			"name": "uploadFile",
			"outputs": [],
			"stateMutability": "nonpayable",
			"type": "function"
		}
	]
}