{
  "_format": "hh-sol-artifact-1",
  "contractName": "Smooth",
  "sourceName": "contracts/smooth.sol",
  "abi": [
    {
      "inputs": [
        {
          "internalType": "address",
          "name": "_user",
          "type": "address"
        }
      ],
      "name": "checkUserRoot",
      "outputs": [
        {
          "internalType": "bool",
          "name": "",
          "type": "bool"
        }
      ],
      "stateMutability": "view",
      "type": "function"
    },
    {
      "inputs": [
        {
          "internalType": "string[]",
          "name": "_path",
          "type": "string[]"
        },
        {
          "components": [
            {
              "internalType": "string",
              "name": "name",
              "type": "string"
            },
            {
              "internalType": "string",
              "name": "cid",
              "type": "string"
            },
            {
              "internalType": "uint256",
              "name": "size",
              "type": "uint256"
            },
            {
              "internalType": "string",
              "name": "fileType",
              "type": "string"
            }
          ],
          "internalType": "struct Smooth.FileData[]",
          "name": "_files",
          "type": "tuple[]"
        },
        {
          "internalType": "address",
          "name": "_user",
          "type": "address"
        }
      ],
      "name": "createFiles",
      "outputs": [],
      "stateMutability": "nonpayable",
      "type": "function"
    },
    {
      "inputs": [
        {
          "internalType": "string[]",
          "name": "_path",
          "type": "string[]"
        },
        {
          "internalType": "string",
          "name": "_folderName",
          "type": "string"
        },
        {
          "internalType": "address",
          "name": "_user",
          "type": "address"
        }
      ],
      "name": "createFolder",
      "outputs": [],
      "stateMutability": "nonpayable",
      "type": "function"
    },
    {
      "inputs": [
        {
          "internalType": "string[]",
          "name": "_path",
          "type": "string[]"
        },
        {
          "internalType": "string",
          "name": "_fileName",
          "type": "string"
        },
        {
          "internalType": "string",
          "name": "_cid",
          "type": "string"
        },
        {
          "internalType": "address",
          "name": "_user",
          "type": "address"
        }
      ],
      "name": "deleteFile",
      "outputs": [],
      "stateMutability": "nonpayable",
      "type": "function"
    },
    {
      "inputs": [
        {
          "internalType": "string",
          "name": "_cid",
          "type": "string"
        },
        {
          "internalType": "address",
          "name": "_user",
          "type": "address"
        }
      ],
      "name": "deleteFileFromSharedToPeople",
      "outputs": [],
      "stateMutability": "nonpayable",
      "type": "function"
    },
    {
      "inputs": [
        {
          "internalType": "string[]",
          "name": "_path",
          "type": "string[]"
        },
        {
          "internalType": "string",
          "name": "_folderName",
          "type": "string"
        },
        {
          "internalType": "address",
          "name": "_user",
          "type": "address"
        }
      ],
      "name": "deleteFolder",
      "outputs": [],
      "stateMutability": "nonpayable",
      "type": "function"
    },
    {
      "inputs": [
        {
          "internalType": "string[]",
          "name": "_path",
          "type": "string[]"
        },
        {
          "internalType": "address",
          "name": "_user",
          "type": "address"
        }
      ],
      "name": "getFolderData",
      "outputs": [
        {
          "internalType": "string",
          "name": "",
          "type": "string"
        }
      ],
      "stateMutability": "view",
      "type": "function"
    },
    {
      "inputs": [
        {
          "internalType": "address",
          "name": "_user",
          "type": "address"
        }
      ],
      "name": "getSharedData",
      "outputs": [
        {
          "internalType": "string",
          "name": "",
          "type": "string"
        }
      ],
      "stateMutability": "view",
      "type": "function"
    },
    {
      "inputs": [
        {
          "internalType": "address",
          "name": "owner",
          "type": "address"
        },
        {
          "internalType": "address",
          "name": "to",
          "type": "address"
        },
        {
          "internalType": "string",
          "name": "name",
          "type": "string"
        },
        {
          "internalType": "string",
          "name": "cid",
          "type": "string"
        },
        {
          "internalType": "uint256",
          "name": "size",
          "type": "uint256"
        },
        {
          "internalType": "uint256",
          "name": "createdAt",
          "type": "uint256"
        },
        {
          "internalType": "string",
          "name": "fileType",
          "type": "string"
        }
      ],
      "name": "giveFileAccess",
      "outputs": [],
      "stateMutability": "nonpayable",
      "type": "function"
    },
    {
      "inputs": [
        {
          "internalType": "address",
          "name": "_user",
          "type": "address"
        }
      ],
      "name": "initUserRoot",
      "outputs": [
        {
          "internalType": "bool",
          "name": "",
          "type": "bool"
        }
      ],
      "stateMutability": "nonpayable",
      "type": "function"
    },
    {
      "inputs": [
        {
          "internalType": "string",
          "name": "_cid",
          "type": "string"
        },
        {
          "internalType": "address",
          "name": "_user",
          "type": "address"
        }
      ],
      "name": "removeFileByFieldAndCid",
      "outputs": [],
      "stateMutability": "nonpayable",
      "type": "function"
    }
  ],
  "bytecode": "0x608060405234801561001057600080fd5b5061556f806100206000396000f3fe608060405234801561001057600080fd5b50600436106100a95760003560e01c80634ee37c28116100715780634ee37c281461016257806362bfa0141461017e578063c868e511146101ae578063cbcba28c146101ca578063cc6cd16f146101e6578063d9ec271914610202576100a9565b806301496b84146100ae57806306d36558146100de578063140af0e2146100fa578063341e61791461012a57806339cf4df214610146575b600080fd5b6100c860048036038101906100c39190613975565b610232565b6040516100d591906139bd565b60405180910390f35b6100f860048036038101906100f39190613c04565b61045f565b005b610114600480360381019061010f9190613cbf565b610dd9565b6040516101219190613d9a565b60405180910390f35b610144600480360381019061013f9190613dbc565b611415565b005b610160600480360381019061015b9190613e18565b6118cd565b005b61017c60048036038101906101779190614090565b611d80565b005b61019860048036038101906101939190613975565b612121565b6040516101a59190613d9a565b60405180910390f35b6101c860048036038101906101c39190613dbc565b612578565b005b6101e460048036038101906101df919061411b565b612a78565b005b61020060048036038101906101fb9190613e18565b612d87565b005b61021c60048036038101906102179190613975565b613016565b60405161022991906139bd565b60405180910390f35b600060405160200161024390614268565b604051602081830303815290604052805190602001206000808473ffffffffffffffffffffffffffffffffffffffff1673ffffffffffffffffffffffffffffffffffffffff1681526020019081526020016000206000016000016040516020016102ad9190614375565b6040516020818303038152906040528051906020012003610303576040517f08c379a00000000000000000000000000000000000000000000000000000000081526004016102fa906143d8565b60405180910390fd5b6040518060400160405280600481526020017f726f6f74000000000000000000000000000000000000000000000000000000008152506000808473ffffffffffffffffffffffffffffffffffffffff1673ffffffffffffffffffffffffffffffffffffffff1681526020019081526020016000206000016000019081610389919061458f565b50816000808473ffffffffffffffffffffffffffffffffffffffff1673ffffffffffffffffffffffffffffffffffffffff16815260200190815260200160002060000160010160006101000a81548173ffffffffffffffffffffffffffffffffffffffff021916908373ffffffffffffffffffffffffffffffffffffffff160217905550426000808473ffffffffffffffffffffffffffffffffffffffff1673ffffffffffffffffffffffffffffffffffffffff1681526020019081526020016000206000016002018190555060019050919050565b61046881613016565b6104a7576040517f08c379a000000000000000000000000000000000000000000000000000000000815260040161049e906146ad565b60405180910390fd5b60008060008373ffffffffffffffffffffffffffffffffffffffff1673ffffffffffffffffffffffffffffffffffffffff16815260200190815260200160002060000190506000600190505b8551811015610658576000805b83600401805490508110156105de57878381518110610522576105216146cd565b5b602002602001015160405160200161053a919061472d565b60405160208183030381529060405280519060200120846004018281548110610566576105656146cd565b5b90600052602060002090600502016000016040516020016105879190614375565b60405160208183030381529060405280519060200120036105d1578360040181815481106105b8576105b76146cd565b5b90600052602060002090600502019350600191506105de565b8080600101915050610500565b50806105e9836130bf565b6040516020016105f99190614790565b60405160208183030381529060405290610649576040517f08c379a00000000000000000000000000000000000000000000000000000000081526004016106409190613d9a565b60405180910390fd5b505080806001019150506104f3565b506000805b82600301805490508110156108cf578560405160200161067d919061472d565b604051602081830303815290604052805190602001208360030182815481106106a9576106a86146cd565b5b90600052602060002090600602016000016040516020016106ca9190614375565b60405160208183030381529060405280519060200120036108c2576001915060008190505b6001846003018054905061070391906147e1565b811015610828578360030160018261071b9190614815565b8154811061072c5761072b6146cd565b5b90600052602060002090600602018460030182815481106107505761074f6146cd565b5b906000526020600020906006020160008201816000019081610772919061485f565b5060018201816001019081610787919061485f565b5060028201548160020155600382015481600301556004820160009054906101000a900473ffffffffffffffffffffffffffffffffffffffff168160040160006101000a81548173ffffffffffffffffffffffffffffffffffffffff021916908373ffffffffffffffffffffffffffffffffffffffff16021790555060058201816005019081610817919061485f565b5090505080806001019150506106ef565b508260030180548061083d5761083c614947565b5b600190038181906000526020600020906006020160008082016000610862919061354c565b600182016000610872919061354c565b600282016000905560038201600090556004820160006101000a81549073ffffffffffffffffffffffffffffffffffffffff02191690556005820160006108b9919061354c565b505090556108cf565b808060010191505061065d565b5080610910576040517f08c379a0000000000000000000000000000000000000000000000000000000008152600401610907906149e8565b60405180910390fd5b600084511115610dd1576000905060005b6000808573ffffffffffffffffffffffffffffffffffffffff1673ffffffffffffffffffffffffffffffffffffffff16815260200190815260200160002060060180549050811015610d8f578460405160200161097e919061472d565b604051602081830303815290604052805190602001206000808673ffffffffffffffffffffffffffffffffffffffff1673ffffffffffffffffffffffffffffffffffffffff16815260200190815260200160002060060182815481106109e7576109e66146cd565b5b9060005260206000209060070201600101604051602001610a089190614375565b6040516020818303038152906040528051906020012003610d82576001915060008190505b60016000808773ffffffffffffffffffffffffffffffffffffffff1673ffffffffffffffffffffffffffffffffffffffff16815260200190815260200160002060060180549050610a7e91906147e1565b811015610c84576000808673ffffffffffffffffffffffffffffffffffffffff1673ffffffffffffffffffffffffffffffffffffffff168152602001908152602001600020600601600182610ad39190614815565b81548110610ae457610ae36146cd565b5b90600052602060002090600702016000808773ffffffffffffffffffffffffffffffffffffffff1673ffffffffffffffffffffffffffffffffffffffff1681526020019081526020016000206006018281548110610b4557610b446146cd565b5b906000526020600020906007020160008201816000019081610b67919061485f565b5060018201816001019081610b7c919061485f565b5060028201548160020155600382015481600301556004820160009054906101000a900473ffffffffffffffffffffffffffffffffffffffff168160040160006101000a81548173ffffffffffffffffffffffffffffffffffffffff021916908373ffffffffffffffffffffffffffffffffffffffff1602179055506005820160009054906101000a900473ffffffffffffffffffffffffffffffffffffffff168160050160006101000a81548173ffffffffffffffffffffffffffffffffffffffff021916908373ffffffffffffffffffffffffffffffffffffffff16021790555060068201816006019081610c73919061485f565b509050508080600101915050610a2d565b506000808573ffffffffffffffffffffffffffffffffffffffff1673ffffffffffffffffffffffffffffffffffffffff168152602001908152602001600020600601805480610cd657610cd5614947565b5b600190038181906000526020600020906007020160008082016000610cfb919061354c565b600182016000610d0b919061354c565b600282016000905560038201600090556004820160006101000a81549073ffffffffffffffffffffffffffffffffffffffff02191690556005820160006101000a81549073ffffffffffffffffffffffffffffffffffffffff0219169055600682016000610d79919061354c565b50509055610d8f565b8080600101915050610921565b5080610dd0576040517f08c379a0000000000000000000000000000000000000000000000000000000008152600401610dc790614a7a565b60405180910390fd5b5b505050505050565b6060610de482613016565b610e23576040517f08c379a0000000000000000000000000000000000000000000000000000000008152600401610e1a906146ad565b60405180910390fd5b60008060008473ffffffffffffffffffffffffffffffffffffffff1673ffffffffffffffffffffffffffffffffffffffff1681526020019081526020016000206000019050600184511115610fb5576000600190505b8451811015610fb3576000805b8360040180549050811015610f6457868381518110610ea857610ea76146cd565b5b6020026020010151604051602001610ec0919061472d565b60405160208183030381529060405280519060200120846004018281548110610eec57610eeb6146cd565b5b9060005260206000209060050201600001604051602001610f0d9190614375565b6040516020818303038152906040528051906020012003610f5757836004018181548110610f3e57610f3d6146cd565b5b9060005260206000209060050201935060019150610f64565b8080600101915050610e86565b5080610fa5576040517f08c379a0000000000000000000000000000000000000000000000000000000008152600401610f9c90614ae6565b60405180910390fd5b508080600101915050610e79565b505b600081600001610fe88360010160009054906101000a900473ffffffffffffffffffffffffffffffffffffffff16613247565b610ff584600201546130bf565b60405160200161100793929190614c36565b604051602081830303815290604052905060008260030180549050111561122257806040516020016110399190614cdf565b604051602081830303815290604052905060005b82600301805490508110156111fe576000836003018281548110611074576110736146cd565b5b906000526020600020906006020190506000816000018054611095906142ac565b90501180156110b4575060008160010180546110b0906142ac565b9050115b80156110c4575060008160020154115b80156110d4575060008160030154115b80156111315750600073ffffffffffffffffffffffffffffffffffffffff168160040160009054906101000a900473ffffffffffffffffffffffffffffffffffffffff1673ffffffffffffffffffffffffffffffffffffffff1614155b156111f05782816000018260010161114c84600201546130bf565b61115985600301546130bf565b6111868660040160009054906101000a900473ffffffffffffffffffffffffffffffffffffffff16613247565b866005016040516020016111a09796959493929190614e31565b6040516020818303038152906040529250600184600301805490506111c591906147e1565b8210156111ef57826040516020016111dd9190614f2f565b60405160208183030381529060405292505b5b50808060010191505061104d565b50806040516020016112109190614f9d565b60405160208183030381529060405290505b6000826004018054905011156113e85780604051602001611243919061500b565b604051602081830303815290604052905060005b82600401805490508110156113c457600083600401828154811061127e5761127d6146cd565b5b90600052602060002090600502019050600081600001805461129f906142ac565b90501180156112ff5750600073ffffffffffffffffffffffffffffffffffffffff168160010160009054906101000a900473ffffffffffffffffffffffffffffffffffffffff1673ffffffffffffffffffffffffffffffffffffffff1614155b801561130f575060008160020154115b156113b65782816000016113468360010160009054906101000a900473ffffffffffffffffffffffffffffffffffffffff16613247565b61135384600201546130bf565b604051602001611366949392919061502d565b60405160208183030381529060405292506001846004018054905061138b91906147e1565b8210156113b557826040516020016113a39190614f2f565b60405160208183030381529060405292505b5b508080600101915050611257565b50806040516020016113d69190614f9d565b60405160208183030381529060405290505b806040516020016113f991906150e3565b6040516020818303038152906040529050809250505092915050565b6000805b6000808473ffffffffffffffffffffffffffffffffffffffff1673ffffffffffffffffffffffffffffffffffffffff168152602001908152602001600020600501805490508110156118875783604051602001611476919061472d565b604051602081830303815290604052805190602001206000808573ffffffffffffffffffffffffffffffffffffffff1673ffffffffffffffffffffffffffffffffffffffff16815260200190815260200160002060050182815481106114df576114de6146cd565b5b90600052602060002090600702016001016040516020016115009190614375565b604051602081830303815290604052805190602001200361187a576001915060008190505b60016000808673ffffffffffffffffffffffffffffffffffffffff1673ffffffffffffffffffffffffffffffffffffffff1681526020019081526020016000206005018054905061157691906147e1565b81101561177c576000808573ffffffffffffffffffffffffffffffffffffffff1673ffffffffffffffffffffffffffffffffffffffff1681526020019081526020016000206005016001826115cb9190614815565b815481106115dc576115db6146cd565b5b90600052602060002090600702016000808673ffffffffffffffffffffffffffffffffffffffff1673ffffffffffffffffffffffffffffffffffffffff168152602001908152602001600020600501828154811061163d5761163c6146cd565b5b90600052602060002090600702016000820181600001908161165f919061485f565b5060018201816001019081611674919061485f565b5060028201548160020155600382015481600301556004820160009054906101000a900473ffffffffffffffffffffffffffffffffffffffff168160040160006101000a81548173ffffffffffffffffffffffffffffffffffffffff021916908373ffffffffffffffffffffffffffffffffffffffff1602179055506005820160009054906101000a900473ffffffffffffffffffffffffffffffffffffffff168160050160006101000a81548173ffffffffffffffffffffffffffffffffffffffff021916908373ffffffffffffffffffffffffffffffffffffffff1602179055506006820181600601908161176b919061485f565b509050508080600101915050611525565b506000808473ffffffffffffffffffffffffffffffffffffffff1673ffffffffffffffffffffffffffffffffffffffff1681526020019081526020016000206005018054806117ce576117cd614947565b5b6001900381819060005260206000209060070201600080820160006117f3919061354c565b600182016000611803919061354c565b600282016000905560038201600090556004820160006101000a81549073ffffffffffffffffffffffffffffffffffffffff02191690556005820160006101000a81549073ffffffffffffffffffffffffffffffffffffffff0219169055600682016000611871919061354c565b50509055611887565b8080600101915050611419565b50806118c8576040517f08c379a00000000000000000000000000000000000000000000000000000000081526004016118bf90615177565b60405180910390fd5b505050565b6118d681613016565b611915576040517f08c379a000000000000000000000000000000000000000000000000000000000815260040161190c906146ad565b60405180910390fd5b60008060008373ffffffffffffffffffffffffffffffffffffffff1673ffffffffffffffffffffffffffffffffffffffff168152602001908152602001600020600001905060008190506000600190505b8551811015611ace576000805b8460040180549050811015611a5457878381518110611995576119946146cd565b5b60200260200101516040516020016119ad919061472d565b604051602081830303815290604052805190602001208560040182815481106119d9576119d86146cd565b5b90600052602060002090600502016000016040516020016119fa9190614375565b6040516020818303038152906040528051906020012003611a4757849350846004018181548110611a2e57611a2d6146cd565b5b9060005260206000209060050201945060019150611a54565b8080600101915050611973565b5080611a5f836130bf565b604051602001611a6f9190614790565b60405160208183030381529060405290611abf576040517f08c379a0000000000000000000000000000000000000000000000000000000008152600401611ab69190613d9a565b60405180910390fd5b50508080600101915050611966565b506000805b8260040180549050811015611d375785604051602001611af3919061472d565b60405160208183030381529060405280519060200120836004018281548110611b1f57611b1e6146cd565b5b9060005260206000209060050201600001604051602001611b409190614375565b6040516020818303038152906040528051906020012003611d2a576001915060008190505b60018460040180549050611b7991906147e1565b811015611c985783600401600182611b919190614815565b81548110611ba257611ba16146cd565b5b9060005260206000209060050201846004018281548110611bc657611bc56146cd565b5b906000526020600020906005020160008201816000019081611be8919061485f565b506001820160009054906101000a900473ffffffffffffffffffffffffffffffffffffffff168160010160006101000a81548173ffffffffffffffffffffffffffffffffffffffff021916908373ffffffffffffffffffffffffffffffffffffffff160217905550600282015481600201556003820181600301908054611c7092919061358c565b506004820181600401908054611c8792919061369e565b509050508080600101915050611b65565b5082600401805480611cad57611cac614947565b5b600190038181906000526020600020906005020160008082016000611cd2919061354c565b6001820160006101000a81549073ffffffffffffffffffffffffffffffffffffffff02191690556002820160009055600382016000611d1191906137aa565b600482016000611d2191906137ce565b50509055611d37565b8080600101915050611ad3565b5080611d78576040517f08c379a0000000000000000000000000000000000000000000000000000000008152600401611d6f906151e3565b60405180910390fd5b505050505050565b611d8981613016565b611dc8576040517f08c379a0000000000000000000000000000000000000000000000000000000008152600401611dbf906146ad565b60405180910390fd5b60008060008373ffffffffffffffffffffffffffffffffffffffff1673ffffffffffffffffffffffffffffffffffffffff16815260200190815260200160002060000190506000600190505b8451811015611f79576000805b8360040180549050811015611eff57868381518110611e4357611e426146cd565b5b6020026020010151604051602001611e5b919061472d565b60405160208183030381529060405280519060200120846004018281548110611e8757611e866146cd565b5b9060005260206000209060050201600001604051602001611ea89190614375565b6040516020818303038152906040528051906020012003611ef257836004018181548110611ed957611ed86146cd565b5b9060005260206000209060050201935060019150611eff565b8080600101915050611e21565b5080611f0a836130bf565b604051602001611f1a9190614790565b60405160208183030381529060405290611f6a576040517f08c379a0000000000000000000000000000000000000000000000000000000008152600401611f619190613d9a565b60405180910390fd5b50508080600101915050611e14565b5060005b835181101561211a57816003016040518060c00160405280868481518110611fa857611fa76146cd565b5b6020026020010151600001518152602001868481518110611fcc57611fcb6146cd565b5b6020026020010151602001518152602001868481518110611ff057611fef6146cd565b5b60200260200101516040015181526020014281526020018573ffffffffffffffffffffffffffffffffffffffff168152602001868481518110612036576120356146cd565b5b60200260200101516060015181525090806001815401808255809150506001900390600052602060002090600602016000909190919091506000820151816000019081612083919061458f565b506020820151816001019081612099919061458f565b50604082015181600201556060820151816003015560808201518160040160006101000a81548173ffffffffffffffffffffffffffffffffffffffff021916908373ffffffffffffffffffffffffffffffffffffffff16021790555060a082015181600501908161210a919061458f565b5050508080600101915050611f7d565b5050505050565b606061212c82613016565b61216b576040517f08c379a0000000000000000000000000000000000000000000000000000000008152600401612162906146ad565b60405180910390fd5b60008060008473ffffffffffffffffffffffffffffffffffffffff1673ffffffffffffffffffffffffffffffffffffffff168152602001908152602001600020600601905060008060008573ffffffffffffffffffffffffffffffffffffffff1673ffffffffffffffffffffffffffffffffffffffff168152602001908152602001600020600501905060006040518060400160405280600181526020017f5b00000000000000000000000000000000000000000000000000000000000000815250905060005b838054905081101561237a576000848281548110612253576122526146cd565b5b906000526020600020906007020190506000816000016122968360040160009054906101000a900473ffffffffffffffffffffffffffffffffffffffff16613247565b6122a384600301546130bf565b6122d08560050160009054906101000a900473ffffffffffffffffffffffffffffffffffffffff16613247565b856001016122e187600201546130bf565b876006016040516020016122fb979695949392919061524f565b6040516020818303038152906040529050838160405160200161231f92919061530c565b60405160208183030381529060405293506001868054905061234191906147e1565b83101561236b57836040516020016123599190614f2f565b60405160208183030381529060405293505b50508080600101915050612232565b508060405160200161238c9190614f9d565b604051602081830303815290604052905060006040518060400160405280600181526020017f5b00000000000000000000000000000000000000000000000000000000000000815250905060005b83805490508110156125225760008482815481106123fb576123fa6146cd565b5b9060005260206000209060070201905060008160000161243e8360040160009054906101000a900473ffffffffffffffffffffffffffffffffffffffff16613247565b61244b84600301546130bf565b6124788560050160009054906101000a900473ffffffffffffffffffffffffffffffffffffffff16613247565b8560010161248987600201546130bf565b876006016040516020016124a3979695949392919061524f565b604051602081830303815290604052905083816040516020016124c792919061530c565b6040516020818303038152906040529350600186805490506124e991906147e1565b83101561251357836040516020016125019190614f2f565b60405160208183030381529060405293505b505080806001019150506123da565b50806040516020016125349190614f9d565b60405160208183030381529060405290506000828260405160200161255a9291906153c8565b60405160208183030381529060405290508095505050505050919050565b61258181613016565b6125c0576040517f08c379a00000000000000000000000000000000000000000000000000000000081526004016125b7906146ad565b60405180910390fd5b6000805b6000808473ffffffffffffffffffffffffffffffffffffffff1673ffffffffffffffffffffffffffffffffffffffff16815260200190815260200160002060060180549050811015612a325783604051602001612621919061472d565b604051602081830303815290604052805190602001206000808573ffffffffffffffffffffffffffffffffffffffff1673ffffffffffffffffffffffffffffffffffffffff168152602001908152602001600020600601828154811061268a576126896146cd565b5b90600052602060002090600702016001016040516020016126ab9190614375565b6040516020818303038152906040528051906020012003612a25576001915060008190505b60016000808673ffffffffffffffffffffffffffffffffffffffff1673ffffffffffffffffffffffffffffffffffffffff1681526020019081526020016000206006018054905061272191906147e1565b811015612927576000808573ffffffffffffffffffffffffffffffffffffffff1673ffffffffffffffffffffffffffffffffffffffff1681526020019081526020016000206006016001826127769190614815565b81548110612787576127866146cd565b5b90600052602060002090600702016000808673ffffffffffffffffffffffffffffffffffffffff1673ffffffffffffffffffffffffffffffffffffffff16815260200190815260200160002060060182815481106127e8576127e76146cd565b5b90600052602060002090600702016000820181600001908161280a919061485f565b506001820181600101908161281f919061485f565b5060028201548160020155600382015481600301556004820160009054906101000a900473ffffffffffffffffffffffffffffffffffffffff168160040160006101000a81548173ffffffffffffffffffffffffffffffffffffffff021916908373ffffffffffffffffffffffffffffffffffffffff1602179055506005820160009054906101000a900473ffffffffffffffffffffffffffffffffffffffff168160050160006101000a81548173ffffffffffffffffffffffffffffffffffffffff021916908373ffffffffffffffffffffffffffffffffffffffff16021790555060068201816006019081612916919061485f565b5090505080806001019150506126d0565b506000808473ffffffffffffffffffffffffffffffffffffffff1673ffffffffffffffffffffffffffffffffffffffff16815260200190815260200160002060060180548061297957612978614947565b5b60019003818190600052602060002090600702016000808201600061299e919061354c565b6001820160006129ae919061354c565b600282016000905560038201600090556004820160006101000a81549073ffffffffffffffffffffffffffffffffffffffff02191690556005820160006101000a81549073ffffffffffffffffffffffffffffffffffffffff0219169055600682016000612a1c919061354c565b50509055612a32565b80806001019150506125c4565b5080612a73576040517f08c379a0000000000000000000000000000000000000000000000000000000008152600401612a6a90614a7a565b60405180910390fd5b505050565b60006040518060e001604052808781526020018681526020018581526020018481526020018973ffffffffffffffffffffffffffffffffffffffff1681526020018873ffffffffffffffffffffffffffffffffffffffff1681526020018381525090506000808973ffffffffffffffffffffffffffffffffffffffff1673ffffffffffffffffffffffffffffffffffffffff1681526020019081526020016000206006018190806001815401808255809150506001900390600052602060002090600702016000909190919091506000820151816000019081612b5b919061458f565b506020820151816001019081612b71919061458f565b50604082015181600201556060820151816003015560808201518160040160006101000a81548173ffffffffffffffffffffffffffffffffffffffff021916908373ffffffffffffffffffffffffffffffffffffffff16021790555060a08201518160050160006101000a81548173ffffffffffffffffffffffffffffffffffffffff021916908373ffffffffffffffffffffffffffffffffffffffff16021790555060c0820151816006019081612c29919061458f565b5050506000808873ffffffffffffffffffffffffffffffffffffffff1673ffffffffffffffffffffffffffffffffffffffff1681526020019081526020016000206005018190806001815401808255809150506001900390600052602060002090600702016000909190919091506000820151816000019081612cac919061458f565b506020820151816001019081612cc2919061458f565b50604082015181600201556060820151816003015560808201518160040160006101000a81548173ffffffffffffffffffffffffffffffffffffffff021916908373ffffffffffffffffffffffffffffffffffffffff16021790555060a08201518160050160006101000a81548173ffffffffffffffffffffffffffffffffffffffff021916908373ffffffffffffffffffffffffffffffffffffffff16021790555060c0820151816006019081612d7a919061458f565b5050505050505050505050565b612d9081613016565b612dcf576040517f08c379a0000000000000000000000000000000000000000000000000000000008152600401612dc6906146ad565b60405180910390fd5b60008060008373ffffffffffffffffffffffffffffffffffffffff1673ffffffffffffffffffffffffffffffffffffffff16815260200190815260200160002060000190506000600190505b8451811015612f55576000805b8360040180549050811015612f0657868381518110612e4a57612e496146cd565b5b6020026020010151604051602001612e62919061472d565b60405160208183030381529060405280519060200120846004018281548110612e8e57612e8d6146cd565b5b9060005260206000209060050201600001604051602001612eaf9190614375565b6040516020818303038152906040528051906020012003612ef957836004018181548110612ee057612edf6146cd565b5b9060005260206000209060050201935060019150612f06565b8080600101915050612e28565b5080612f47576040517f08c379a0000000000000000000000000000000000000000000000000000000008152600401612f3e90614ae6565b60405180910390fd5b508080600101915050612e1b565b50806004016001816001815401808255809150500390600052602060002090505060008160040160018360040180549050612f9091906147e1565b81548110612fa157612fa06146cd565b5b9060005260206000209060050201905083816000019081612fc2919061458f565b50828160010160006101000a81548173ffffffffffffffffffffffffffffffffffffffff021916908373ffffffffffffffffffffffffffffffffffffffff1602179055504281600201819055505050505050565b600060405160200161302790614268565b604051602081830303815290604052805190602001206000808473ffffffffffffffffffffffffffffffffffffffff1673ffffffffffffffffffffffffffffffffffffffff1681526020019081526020016000206000016000016040516020016130919190614375565b60405160208183030381529060405280519060200120146130b557600090506130ba565b600190505b919050565b606060008203613106576040518060400160405280600181526020017f30000000000000000000000000000000000000000000000000000000000000008152509050613242565b600082905060005b600082146131385780806131219061540d565b915050600a826131319190615484565b915061310e565b60008167ffffffffffffffff811115613154576131536139ee565b5b6040519080825280601f01601f1916602001820160405280156131865781602001600182028036833780820191505090505b50905060008290505b6000861461323a576001816131a491906147e1565b90506000600a80886131b69190615484565b6131c091906154b5565b876131cb91906147e1565b60306131d79190615504565b905060008160f81b9050808484815181106131f5576131f46146cd565b5b60200101907effffffffffffffffffffffffffffffffffffffffffffffffffffffffffffff1916908160001a905350600a886132319190615484565b9750505061318f565b819450505050505b919050565b606060008273ffffffffffffffffffffffffffffffffffffffff1660001b905060006040518060400160405280601081526020017f303132333435363738396162636465660000000000000000000000000000000081525090506000602a67ffffffffffffffff8111156132be576132bd6139ee565b5b6040519080825280601f01601f1916602001820160405280156132f05781602001600182028036833780820191505090505b5090507f300000000000000000000000000000000000000000000000000000000000000081600081518110613328576133276146cd565b5b60200101907effffffffffffffffffffffffffffffffffffffffffffffffffffffffffffff1916908160001a9053507f78000000000000000000000000000000000000000000000000000000000000008160018151811061338c5761338b6146cd565b5b60200101907effffffffffffffffffffffffffffffffffffffffffffffffffffffffffffff1916908160001a90535060005b60148110156135405782600485600c846133d89190614815565b602081106133e9576133e86146cd565b5b1a60f81b7effffffffffffffffffffffffffffffffffffffffffffffffffffffffffffff1916901c60f81c60ff1681518110613428576134276146cd565b5b602001015160f81c60f81b8260028361344191906154b5565b600261344d9190614815565b8151811061345e5761345d6146cd565b5b60200101907effffffffffffffffffffffffffffffffffffffffffffffffffffffffffffff1916908160001a90535082600f60f81b85600c846134a19190614815565b602081106134b2576134b16146cd565b5b1a60f81b1660f81c60ff16815181106134ce576134cd6146cd565b5b602001015160f81c60f81b826002836134e791906154b5565b60036134f39190614815565b81518110613504576135036146cd565b5b60200101907effffffffffffffffffffffffffffffffffffffffffffffffffffffffffffff1916908160001a90535080806001019150506133be565b50809350505050919050565b508054613558906142ac565b6000825580601f1061356a5750613589565b601f01602090049060005260206000209081019061358891906137f2565b5b50565b82805482825590600052602060002090600602810192821561368d5760005260206000209160060282015b8281111561368c578282600082018160000190816135d5919061485f565b50600182018160010190816135ea919061485f565b5060028201548160020155600382015481600301556004820160009054906101000a900473ffffffffffffffffffffffffffffffffffffffff168160040160006101000a81548173ffffffffffffffffffffffffffffffffffffffff021916908373ffffffffffffffffffffffffffffffffffffffff1602179055506005820181600501908161367a919061485f565b505050916006019190600601906135b7565b5b50905061369a919061380f565b5090565b8280548282559060005260206000209060050281019282156137995760005260206000209160050282015b82811115613798578282600082018160000190816136e7919061485f565b506001820160009054906101000a900473ffffffffffffffffffffffffffffffffffffffff168160010160006101000a81548173ffffffffffffffffffffffffffffffffffffffff021916908373ffffffffffffffffffffffffffffffffffffffff16021790555060028201548160020155600382018160030190805461376f92919061358c565b50600482018160040190805461378692919061369e565b505050916005019190600501906136c9565b5b5090506137a6919061388d565b5090565b50805460008255600602906000526020600020908101906137cb919061380f565b50565b50805460008255600502906000526020600020908101906137ef919061388d565b50565b5b8082111561380b5760008160009055506001016137f3565b5090565b5b808211156138895760008082016000613829919061354c565b600182016000613839919061354c565b600282016000905560038201600090556004820160006101000a81549073ffffffffffffffffffffffffffffffffffffffff0219169055600582016000613880919061354c565b50600601613810565b5090565b5b808211156138ff57600080820160006138a7919061354c565b6001820160006101000a81549073ffffffffffffffffffffffffffffffffffffffff021916905560028201600090556003820160006138e691906137aa565b6004820160006138f691906137ce565b5060050161388e565b5090565b6000604051905090565b600080fd5b600080fd5b600073ffffffffffffffffffffffffffffffffffffffff82169050919050565b600061394282613917565b9050919050565b61395281613937565b811461395d57600080fd5b50565b60008135905061396f81613949565b92915050565b60006020828403121561398b5761398a61390d565b5b600061399984828501613960565b91505092915050565b60008115159050919050565b6139b7816139a2565b82525050565b60006020820190506139d260008301846139ae565b92915050565b600080fd5b6000601f19601f8301169050919050565b7f4e487b7100000000000000000000000000000000000000000000000000000000600052604160045260246000fd5b613a26826139dd565b810181811067ffffffffffffffff82111715613a4557613a446139ee565b5b80604052505050565b6000613a58613903565b9050613a648282613a1d565b919050565b600067ffffffffffffffff821115613a8457613a836139ee565b5b602082029050602081019050919050565b600080fd5b600080fd5b600067ffffffffffffffff821115613aba57613ab96139ee565b5b613ac3826139dd565b9050602081019050919050565b82818337600083830152505050565b6000613af2613aed84613a9f565b613a4e565b905082815260208101848484011115613b0e57613b0d613a9a565b5b613b19848285613ad0565b509392505050565b600082601f830112613b3657613b356139d8565b5b8135613b46848260208601613adf565b91505092915050565b6000613b62613b5d84613a69565b613a4e565b90508083825260208201905060208402830185811115613b8557613b84613a95565b5b835b81811015613bcc57803567ffffffffffffffff811115613baa57613ba96139d8565b5b808601613bb78982613b21565b85526020850194505050602081019050613b87565b5050509392505050565b600082601f830112613beb57613bea6139d8565b5b8135613bfb848260208601613b4f565b91505092915050565b60008060008060808587031215613c1e57613c1d61390d565b5b600085013567ffffffffffffffff811115613c3c57613c3b613912565b5b613c4887828801613bd6565b945050602085013567ffffffffffffffff811115613c6957613c68613912565b5b613c7587828801613b21565b935050604085013567ffffffffffffffff811115613c9657613c95613912565b5b613ca287828801613b21565b9250506060613cb387828801613960565b91505092959194509250565b60008060408385031215613cd657613cd561390d565b5b600083013567ffffffffffffffff811115613cf457613cf3613912565b5b613d0085828601613bd6565b9250506020613d1185828601613960565b9150509250929050565b600081519050919050565b600082825260208201905092915050565b60005b83811015613d55578082015181840152602081019050613d3a565b60008484015250505050565b6000613d6c82613d1b565b613d768185613d26565b9350613d86818560208601613d37565b613d8f816139dd565b840191505092915050565b60006020820190508181036000830152613db48184613d61565b905092915050565b60008060408385031215613dd357613dd261390d565b5b600083013567ffffffffffffffff811115613df157613df0613912565b5b613dfd85828601613b21565b9250506020613e0e85828601613960565b9150509250929050565b600080600060608486031215613e3157613e3061390d565b5b600084013567ffffffffffffffff811115613e4f57613e4e613912565b5b613e5b86828701613bd6565b935050602084013567ffffffffffffffff811115613e7c57613e7b613912565b5b613e8886828701613b21565b9250506040613e9986828701613960565b9150509250925092565b600067ffffffffffffffff821115613ebe57613ebd6139ee565b5b602082029050602081019050919050565b600080fd5b600080fd5b6000819050919050565b613eec81613ed9565b8114613ef757600080fd5b50565b600081359050613f0981613ee3565b92915050565b600060808284031215613f2557613f24613ecf565b5b613f2f6080613a4e565b9050600082013567ffffffffffffffff811115613f4f57613f4e613ed4565b5b613f5b84828501613b21565b600083015250602082013567ffffffffffffffff811115613f7f57613f7e613ed4565b5b613f8b84828501613b21565b6020830152506040613f9f84828501613efa565b604083015250606082013567ffffffffffffffff811115613fc357613fc2613ed4565b5b613fcf84828501613b21565b60608301525092915050565b6000613fee613fe984613ea3565b613a4e565b9050808382526020820190506020840283018581111561401157614010613a95565b5b835b8181101561405857803567ffffffffffffffff811115614036576140356139d8565b5b8086016140438982613f0f565b85526020850194505050602081019050614013565b5050509392505050565b600082601f830112614077576140766139d8565b5b8135614087848260208601613fdb565b91505092915050565b6000806000606084860312156140a9576140a861390d565b5b600084013567ffffffffffffffff8111156140c7576140c6613912565b5b6140d386828701613bd6565b935050602084013567ffffffffffffffff8111156140f4576140f3613912565b5b61410086828701614062565b925050604061411186828701613960565b9150509250925092565b600080600080600080600060e0888a03121561413a5761413961390d565b5b60006141488a828b01613960565b97505060206141598a828b01613960565b965050604088013567ffffffffffffffff81111561417a57614179613912565b5b6141868a828b01613b21565b955050606088013567ffffffffffffffff8111156141a7576141a6613912565b5b6141b38a828b01613b21565b94505060806141c48a828b01613efa565b93505060a06141d58a828b01613efa565b92505060c088013567ffffffffffffffff8111156141f6576141f5613912565b5b6142028a828b01613b21565b91505092959891949750929550565b600081905092915050565b7f726f6f7400000000000000000000000000000000000000000000000000000000600082015250565b6000614252600483614211565b915061425d8261421c565b600482019050919050565b600061427382614245565b9150819050919050565b7f4e487b7100000000000000000000000000000000000000000000000000000000600052602260045260246000fd5b600060028204905060018216806142c457607f821691505b6020821081036142d7576142d661427d565b5b50919050565b60008190508160005260206000209050919050565b600081546142ff816142ac565b6143098186614211565b9450600182166000811461432457600181146143395761436c565b60ff198316865281151582028601935061436c565b614342856142dd565b60005b8381101561436457815481890152600182019150602081019050614345565b838801955050505b50505092915050565b600061438182846142f2565b915081905092915050565b7f5573657220616c726561647920696e697469616c697a65640000000000000000600082015250565b60006143c2601883613d26565b91506143cd8261438c565b602082019050919050565b600060208201905081810360008301526143f1816143b5565b9050919050565b60006020601f8301049050919050565b600082821b905092915050565b6000600883026144457fffffffffffffffffffffffffffffffffffffffffffffffffffffffffffffffff82614408565b61444f8683614408565b95508019841693508086168417925050509392505050565b6000819050919050565b600061448c61448761448284613ed9565b614467565b613ed9565b9050919050565b6000819050919050565b6144a683614471565b6144ba6144b282614493565b848454614415565b825550505050565b600090565b6144cf6144c2565b6144da81848461449d565b505050565b5b818110156144fe576144f36000826144c7565b6001810190506144e0565b5050565b601f82111561454357614514816142dd565b61451d846143f8565b8101602085101561452c578190505b614540614538856143f8565b8301826144df565b50505b505050565b600082821c905092915050565b600061456660001984600802614548565b1980831691505092915050565b600061457f8383614555565b9150826002028217905092915050565b61459882613d1b565b67ffffffffffffffff8111156145b1576145b06139ee565b5b6145bb82546142ac565b6145c6828285614502565b600060209050601f8311600181146145f957600084156145e7578287015190505b6145f18582614573565b865550614659565b601f198416614607866142dd565b60005b8281101561462f5784890151825560018201915060208501945060208101905061460a565b8683101561464c5784890151614648601f891682614555565b8355505b6001600288020188555050505b505050505050565b7f5573657220726f6f74206e6f7420696e697469616c697a656400000000000000600082015250565b6000614697601983613d26565b91506146a282614661565b602082019050919050565b600060208201905081810360008301526146c68161468a565b9050919050565b7f4e487b7100000000000000000000000000000000000000000000000000000000600052603260045260246000fd5b600061470782613d1b565b6147118185614211565b9350614721818560208601613d37565b80840191505092915050565b600061473982846146fc565b915081905092915050565b7f5061746820646f6573206e6f7420657869737420617420696e64657820000000600082015250565b600061477a601d83614211565b915061478582614744565b601d82019050919050565b600061479b8261476d565b91506147a782846146fc565b915081905092915050565b7f4e487b7100000000000000000000000000000000000000000000000000000000600052601160045260246000fd5b60006147ec82613ed9565b91506147f783613ed9565b925082820390508181111561480f5761480e6147b2565b5b92915050565b600061482082613ed9565b915061482b83613ed9565b9250828201905080821115614843576148426147b2565b5b92915050565b600081549050614858816142ac565b9050919050565b81810361486d575050614945565b61487682614849565b67ffffffffffffffff81111561488f5761488e6139ee565b5b61489982546142ac565b6148a4828285614502565b6000601f8311600181146148d357600084156148c1578287015490505b6148cb8582614573565b86555061493e565b601f1984166148e1876142dd565b96506148ec866142dd565b60005b82811015614914578489015482556001820191506001850194506020810190506148ef565b86831015614931578489015461492d601f891682614555565b8355505b6001600288020188555050505b5050505050505b565b7f4e487b7100000000000000000000000000000000000000000000000000000000600052603160045260246000fd5b7f46696c6520646f6573206e6f7420657869737420696e20726f6f7420666f6c6460008201527f6572000000000000000000000000000000000000000000000000000000000000602082015250565b60006149d2602283613d26565b91506149dd82614976565b604082019050919050565b60006020820190508181036000830152614a01816149c5565b9050919050565b7f46696c652077697468207370656369666965642043494420646f6573206e6f7460008201527f20657869737420696e20736861726564546f50656f706c650000000000000000602082015250565b6000614a64603883613d26565b9150614a6f82614a08565b604082019050919050565b60006020820190508181036000830152614a9381614a57565b9050919050565b7f5061746820646f6573206e6f7420657869737400000000000000000000000000600082015250565b6000614ad0601383613d26565b9150614adb82614a9a565b602082019050919050565b60006020820190508181036000830152614aff81614ac3565b9050919050565b7f7b226e616d65223a220000000000000000000000000000000000000000000000600082015250565b6000614b3c600983614211565b9150614b4782614b06565b600982019050919050565b7f222c226f776e6572223a22000000000000000000000000000000000000000000600082015250565b6000614b88600b83614211565b9150614b9382614b52565b600b82019050919050565b7f222c22637265617465644174223a220000000000000000000000000000000000600082015250565b6000614bd4600f83614211565b9150614bdf82614b9e565b600f82019050919050565b7f2200000000000000000000000000000000000000000000000000000000000000600082015250565b6000614c20600183614211565b9150614c2b82614bea565b600182019050919050565b6000614c4182614b2f565b9150614c4d82866142f2565b9150614c5882614b7b565b9150614c6482856146fc565b9150614c6f82614bc7565b9150614c7b82846146fc565b9150614c8682614c13565b9150819050949350505050565b7f2c2266696c6573223a5b00000000000000000000000000000000000000000000600082015250565b6000614cc9600a83614211565b9150614cd482614c93565b600a82019050919050565b6000614ceb82846146fc565b9150614cf682614cbc565b915081905092915050565b7f222c22636964223a220000000000000000000000000000000000000000000000600082015250565b6000614d37600983614211565b9150614d4282614d01565b600982019050919050565b7f222c2273697a65223a2200000000000000000000000000000000000000000000600082015250565b6000614d83600a83614211565b9150614d8e82614d4d565b600a82019050919050565b7f222c2266696c6554797065223a22000000000000000000000000000000000000600082015250565b6000614dcf600e83614211565b9150614dda82614d99565b600e82019050919050565b7f227d000000000000000000000000000000000000000000000000000000000000600082015250565b6000614e1b600283614211565b9150614e2682614de5565b600282019050919050565b6000614e3d828a6146fc565b9150614e4882614b2f565b9150614e5482896142f2565b9150614e5f82614d2a565b9150614e6b82886142f2565b9150614e7682614d76565b9150614e8282876146fc565b9150614e8d82614bc7565b9150614e9982866146fc565b9150614ea482614b7b565b9150614eb082856146fc565b9150614ebb82614dc2565b9150614ec782846142f2565b9150614ed282614e0e565b915081905098975050505050505050565b7f2c00000000000000000000000000000000000000000000000000000000000000600082015250565b6000614f19600183614211565b9150614f2482614ee3565b600182019050919050565b6000614f3b82846146fc565b9150614f4682614f0c565b915081905092915050565b7f5d00000000000000000000000000000000000000000000000000000000000000600082015250565b6000614f87600183614211565b9150614f9282614f51565b600182019050919050565b6000614fa982846146fc565b9150614fb482614f7a565b915081905092915050565b7f2c22666f6c64657273223a5b0000000000000000000000000000000000000000600082015250565b6000614ff5600c83614211565b915061500082614fbf565b600c82019050919050565b600061501782846146fc565b915061502282614fe8565b915081905092915050565b600061503982876146fc565b915061504482614b2f565b915061505082866142f2565b915061505b82614b7b565b915061506782856146fc565b915061507282614bc7565b915061507e82846146fc565b915061508982614e0e565b915081905095945050505050565b7f7d00000000000000000000000000000000000000000000000000000000000000600082015250565b60006150cd600183614211565b91506150d882615097565b600182019050919050565b60006150ef82846146fc565b91506150fa826150c0565b915081905092915050565b7f46696c652077697468207370656369666965642043494420646f6573206e6f7460008201527f20657869737420696e20736861726564576974684d6500000000000000000000602082015250565b6000615161603683613d26565b915061516c82615105565b604082019050919050565b6000602082019050818103600083015261519081615154565b9050919050565b7f466f6c64657220646f6573206e6f742065786973740000000000000000000000600082015250565b60006151cd601583613d26565b91506151d882615197565b602082019050919050565b600060208201905081810360008301526151fc816151c0565b9050919050565b7f222c22746f223a22000000000000000000000000000000000000000000000000600082015250565b6000615239600883614211565b915061524482615203565b600882019050919050565b600061525a82614b2f565b9150615266828a6142f2565b915061527182614b7b565b915061527d82896146fc565b915061528882614bc7565b915061529482886146fc565b915061529f8261522c565b91506152ab82876146fc565b91506152b682614d2a565b91506152c282866142f2565b91506152cd82614d76565b91506152d982856146fc565b91506152e482614dc2565b91506152f082846142f2565b91506152fb82614e0e565b915081905098975050505050505050565b600061531882856146fc565b915061532482846146fc565b91508190509392505050565b7f7b22736861726564546f50656f706c65223a0000000000000000000000000000600082015250565b6000615366601283614211565b915061537182615330565b601282019050919050565b7f2c22736861726564576974684d65223a00000000000000000000000000000000600082015250565b60006153b2601083614211565b91506153bd8261537c565b601082019050919050565b60006153d382615359565b91506153df82856146fc565b91506153ea826153a5565b91506153f682846146fc565b9150615401826150c0565b91508190509392505050565b600061541882613ed9565b91507fffffffffffffffffffffffffffffffffffffffffffffffffffffffffffffffff820361544a576154496147b2565b5b600182019050919050565b7f4e487b7100000000000000000000000000000000000000000000000000000000600052601260045260246000fd5b600061548f82613ed9565b915061549a83613ed9565b9250826154aa576154a9615455565b5b828204905092915050565b60006154c082613ed9565b91506154cb83613ed9565b92508282026154d981613ed9565b915082820484148315176154f0576154ef6147b2565b5b5092915050565b600060ff82169050919050565b600061550f826154f7565b915061551a836154f7565b9250828201905060ff811115615533576155326147b2565b5b9291505056fea2646970667358221220ad7147a67d189f6eb6e63caf452d3c00f933e1b20ed122b957549d845ebd483564736f6c63430008180033",
  "linkReferences": {},
  "deployedLinkReferences": {}
}